:020000040000FA
:100000000C94B7100C94E8100C94E8100C94E810C1
:100010000C94E8100C94E8100C94E8100C94E81080
:100020000C94E8100C94E8100C94E8100C94E81070
:100030000C94E8100C94E8100C94E8100C94E81060
:100040000C94E8100C94E8100C94E8100C94E81050
:100050000C94E8100C94E8100C94E8100C94A03563
:100060000C94E8100C9474360C944A360C94E810F6
:100070000C94E8100C94E8100C94E8100C94E81020
:100080000C94E8100C94E8100C94E8100C94E81010
:100090000C94E8100C94E8100C94E8100C94E81000
:1000A0000C94E8100C94E8100C94E8100C94E810F0
:1000B0000C94E8100C94E8100C94E8100C94E810E0
:1000C0000C94E8100C94E8100C94E8100C94E810D0
:1000D0000C94E8100C94E8100C9414360C94EA3547
:1000E0000C94E8100C94AA360C94C8160C94092BA6
:1000F0000C94D72A0C94EE160C949C150C944F1863
:100100000C9499150C94C7150C945E180C94891EC8
:100110000C94A6150C940A170C942F2B0C94291EE2
:100120000C94292C0C94A2150C94C2180C94CC1588
:100130000C94952C0C9491150C94301E0C944B1728
:100140000C942D170C94252B0C94221E0C94C21584
:100150000C94851E0C94512B0C94BA150C949B2B6B
:100160000C94FF320C9400170C94112B0C945C1916
:100170000C94BE3F0C94372A0C945C1E0C9487158B
:100180000C9422180C948D150C94B0150C94141723
:100190000C948D1E0C940F190C94BE150C94DC1647
:1001A0000C94B4150C94F22A0C9437170C946B2B06
:1001B0000C9472180C9455170C9498190C942317DE
:1001C0000C94811E0C94BB160C94371E0C941B2BA4
:1001D0000C94832B0C94C8150C94AC150C94C72864
:1001E0000C94901E0C94D2160C9441170C94F61695
:1001F0000C9495150C9480180C9497290C94E61681
:100200000C94C316060820600400000000000005DE
:100210000000065F0600060007030007030600242F
:100220007E247E240500242B6A1200060063130836
:10023000646306003649562050040000070300009E
:100240000400003E410000040000413E00000600A2
:10025000083E1C3E08060008083E0808040000E0AE
:10026000600000060008080808080400006060003C
:10027000000600201008040206003E5149453E05D4
:100280000000427F400006006251494946060022B4
:100290004949493606001814127F1006002F4949B3
:1002A000493106003C4A49493006000171090503FD
:1002B000060036494949360600064949291E040008
:1002C000006C6C0000040000EC6C000005000814D9
:1002D0002241000600242424242406000041221484
:1002E000080600020159090606003E415D551E063A
:1002F000007E1111117E06007F4949493606003EF5
:100300004141412206007F4141413E06007F49496B
:10031000494106007F0909090106003E4149497A21
:1003200006007F0808087F050000417F41000600A5
:10033000304040403F06007F0814224106007F40C5
:1003400040404006007F0204027F06007F0204084E
:100350007F06003E4141413E06007F09090906062D
:10036000003E4151215E06007F09091966060026FC
:1003700049494932060001017F010106003F404022
:10038000403F06001F2040201F06003F403C403FEA
:1003900006006314081463060007087008070500C8
:1003A00071494543000500007F41410006000204F9
:1003B00008102005000041417F00060004020102F0
:1003C000040680808080808004000003070000060F
:1003D00000205454547806007F44444438060038C2
:1003E000444444280600384444447F0600385454AA
:1003F00054080500087E090900060018A4A4A47C7E
:1004000005007F04047800050000007D4000050021
:100410004080847D0005007F102844000500000016
:100420007F400006007C0418047805007C040478F2
:1004300000060038444444380600FC44444438066E
:100440000038444444FC060044784404080600088C
:10045000545454200500043E44240005003C402030
:100460007C0006001C2040201C06003C6030603CE4
:1004700005006C10106C0005009CA0603C0005009D
:100480006454544C000500083E4141000400000043
:1004900077000006000041413E080500020102010C
:1004A0000006003C2623263C0B10206006000000BE
:1004B000000000000000000000000000000000003C
:1004C000000000070000000000007C00FF33FF3345
:1004D0007C00000000000000000008000000003C5C
:1004E000003C00000000003C003C00000000000058
:1004F000000B0002101E901FF0037E021E1E901FB4
:10050000F0037E021E0010000900007804FC0CCCF1
:100510000CFF3FFF3FCC0CCC0F8807000000000B06
:1005200000303838381C380E00078003C001E0382E
:10053000703838381C000A0000001FB83FFC31C674
:1005400021E2373E1E1C1C0036002200000600007F
:100550000000000027003F001F0000000000000016
:10056000000000000800000000F003FC0FFE1F0761
:1005700038012001200000000000000800000000F9
:10058000012001200738FE1FFC0FF00300000000CF
:100590000000090000980CB80EE003F80FF80FE017
:1005A00003B80E980C0000000009000080018001D3
:1005B0008001F00FF00F8001800180010000000039
:1005C0000600000000000000B800F80078000000FD
:1005D000000000000000000900008001800180018F
:1005E0008001800180018001800100000000060080
:1005F0000000000000003800380038000000000053
:1006000000000000000B0018001C000E0007800313
:10061000C001E000700038001C000E000BF807FE5F
:100620001F061E03338331C330633033301E18FE80
:100630001FF8070A000000000C300C300E30FF3F9E
:10064000FF3F00300030003000000B1C301E380728
:100650003C033E03378333C331E33077303E301CF5
:10066000300B0C0C0E1C0738C330C330C330C33002
:10067000C330E7397E1F3C0E0BC003E00370033824
:10068000031C030E030703FF3FFF3F000300030BA0
:100690003F0C7F1C633863306330633063306330FA
:1006A000E338C31F830F0BC00FF01FF839DC30CEC7
:1006B00030C730C330C330C339801F000F0B030075
:1006C000030003000330033C030FC303F3003F00A8
:1006D0000F0003000B000FBC1FFE39E730C330C30F
:1006E00030C330E730FE39BC1F000F0B3C007E00EA
:1006F000E730C330C330C338C31CC30EE707FE0363
:10070000FC0006000000000000701C701C701C0043
:1007100000000000000000000006000000000000D3
:10072000709C70FC707C0000000000000000000065
:10073000090000C000E001F00338071C0E0E1C0782
:10074000380330000000000A000060066006600602
:10075000600660066006600660066006000009002C
:1007600000033007380E1C1C0E3807F003E001C0F0
:1007700000000000000A1C001E0007000300833771
:10078000C337E30077003E001C0000000BF80FFEAB
:100790001F0718F333FB371B36FB37FB370736FED3
:1007A00003F8010A0038003FE007FC061F061F0699
:1007B000FC06E007003F003800000AFF3FFF3FC390
:1007C00030C330C330C330E730FE39BC1F000F00E8
:1007D000000AF003FC0F0E1C07380330033003300F
:1007E00007380E1C0C0C00000AFF3FFF3F033003CC
:1007F000300330033007380E1CFC0FF00300000AF2
:10080000FF3FFF3FC330C330C330C330C330C330BA
:100810000330033000000AFF3FFF3FC300C300C3A3
:1008200000C300C300C3000300030000000AF0037C
:10083000FC0F0E1C07380330C330C330C330C73F32
:10084000C63F00000AFF3FFF3FC000C000C000C01D
:1008500000C000C000FF3FFF3F0000080000000094
:1008600003300330FF3FFF3F033003300000000040
:1008700000000A000E001E0038003000300030007A
:10088000300038FF1FFF0700000AFF3FFF3FC00096
:10089000E001F00338071C0E0E1C0738033000007F
:1008A0000AFF3FFF3F0030003000300030003000D2
:1008B000300030003000000AFF3FFF3F1E0078008C
:1008C000E001E00178001E00FF3FFF3F00000AFF4B
:1008D0003FFF3F0E003800F000C0030007001CFF80
:1008E0003FFF3F00000AF003FC0F0E1C07380330E7
:1008F000033007380E1CFC0FF00300000AFF3FFF17
:100900003F83018301830183018301C701FE007CD2
:100910000000000AF003FC0F0E1C073803300336FA
:10092000073E0E1CFC3FF03300000AFF3FFF3F83F1
:1009300001830183038307830FC71DFE387C3000CA
:10094000000A3C0C7E1CE738C330C330C330C330D0
:10095000C7398E1F0C0F00000900000300030003BD
:1009600000FF3FFF3F030003000300000000000AF8
:10097000FF07FF1F00380030003000300030003823
:10098000FF1FFF0700000A07003F00F801C00F002B
:100990003E003EC00FF8013F00070000000AFF3F85
:1009A000FF3F001C0006800380030006001CFF3F81
:1009B000FF3F00000A03300F3C1C0E3003E001E053
:1009C0000130031C0E0F3C033000000A03000F002F
:1009D0003C00F000C03FC03FF0003C000F000300AF
:1009E00000000A0330033C033E0333C331E33033DA
:1009F000301F300F30033000000800000000FF3FC0
:100A0000FF3F0330033003300330000000000000DC
:100A10000B0E001C0038007000E000C001800300D5
:100A200007000E001C00180800000000033003300F
:100A300003300330FF3FFF3F0000000000000B6069
:100A400000700038001C000E0007000E001C00386B
:100A500000700060000B00C000C000C000C000C0FB
:100A600000C000C000C000C000C000C007000000FF
:100A700000000000003E007E004E0000000000006C
:100A80000000000A001C403E603360336033603376
:100A900060336033E03FC03F00000AFF3FFF3FC0CC
:100AA000306030603060306030E038C01F800F0050
:100AB000000A800FC01FE038603060306030603066
:100AC0006030C018800800000A800FC01FE0386046
:100AD0003060306030E030C030FF3FFF3F00000A40
:100AE000800FC01FE03B603360336033603360339E
:100AF000C0138001000008C000C000FC3FFE3FC7DB
:100B000000C300C30003000000000000000A8003CF
:100B1000C0C7E0CE60CC60CC60CC60CC60E6E07F4B
:100B2000E03F000009FF3FFF3FC000600060006041
:100B300000E000C03F803F0000000008000000000F
:100B400000306030EC3FEC3F00300030000000002F
:100B500000000800000000006000E000C060C0EC81
:100B6000FFEC7F000000000000090000FF3FFF3F96
:100B700000038007C00FE01C603800300000000058
:100B8000080000000000300330FF3FFF3F0030004E
:100B9000300000000000000AE03FC03FE000E0003D
:100BA000C03FC03FE000E000C03F803F00000A00BF
:100BB00000E03FE03F6000600060006000E000C0D7
:100BC0003F803F00000A800FC01FE0386030603077
:100BD00060306030E038C01F800F00000AE0FFE0A6
:100BE000FF600C6018601860186018E01CC00F806F
:100BF0000700000A8007C00FE01C6018601860182A
:100C00006018600CE0FFE0FF00000A0000E03FE039
:100C10003FC0006000600060006000E000C00000B5
:100C20000008C011E0336033603360336033603FED
:100C3000401E0000000000000860006000FE1FFE73
:100C40003F60306030603000300000000000000A7B
:100C5000E00FE01F00380030003000300030001896
:100C6000E03FE03F00000A6000E0018007001E0056
:100C7000380038001E8007E001600000000AE0072D
:100C8000E01F0038001CE00FE00F001C0038E01FE0
:100C9000E0070000096030E038C01D800F000780C9
:100CA0000FC01DE038603000000000090000600047
:100CB000E08180E7007E001E8007E0016000000008
:100CC00000000960306038603C60366033E031E03D
:100CD0003060302030000000000900008000C001BA
:100CE000FC1F7E3F0770036003600360000000008C
:100CF000060000000000000000FF3FFF3F00000072
:100D000000000000000000090000036003600360B1
:100D100007707E3FFC1FC0018000000000000A1029
:100D20000018000C0004000C001800100018000C43
:100D300000040000000A000F800FC00C600C300C93
:100D4000300C600CC00C800F000F0000FFFFFFFF95
:100D5000FFFFFFFFFFFFFFFFFFFFFFFFFFFFFFFFA3
:100D6000FFFFFFFFFFFFFFFFFFFFFFFFFFFFFFFF93
:100D7000FFFFFFFFFFFFFFFFFFFFFFFFFFFFFFFF83
:100D8000FFFFFFFFFFFFFFFFFFFFFFFFFFFFFFFF73
:10111000FFFFFFFFFFFFFFFFFFFFFFFFFFFF0000DD
:101120000FFFFFFFFFFFFFFFFFFFFFFFFFFFFFFFBF
:10113000FFFFFFE00000007FFFFFFFFFFFFFFFFF5B
:10114000FFFFFFFFFFFFFFFFFE0000000007FFFFA4
:10115000FFFFFFFFFFFFFFFFFFFFFFFFFFFFF000AD
:1011600000000000FFFFFFFFFFFFFFFFFFFFFFFF8B
:10117000FFFFFFFFC000000000003FFFFFFFFFFF79
:10118000FFFFFFFFFFFFFFFFFFFE0000000000006A
:1011900007FFFFFFFFFFFFFFFFFFFFFFFFFFFFF85E
:1011A00000000000000001FFFFFFFFFFFFFFFFFF47
:1011B000FFFFFFFFFFE0000000000000007FFFFFD7
:1011C000FFFFFFFFFFFFFFFFFFFFFFC0000000006A
:1011D0000000003FFFFFFFFFFFFFFFFFFFFFFFFFDC
:1011E000FF00000000000000000FFFFFFFFFFFFFF7
:1011F000FFFFFFFFFFFFFE000000000000000007F0
:10120000FFFFFFFFFFFFFFFFFFFFFFFFF8000000F2
:10121000000000000001FFFFFFFFFFFFFFFFFFFFD7
:10122000FFFFF0000000000000000000FFFFFFFFD4
:10123000FFFFFFFFFFFFFFFFE000000000000000D6
:1012400000007FFFFFFFFFFFFFFFFFFFFFFF8000AA
:1012500000000000000000001FFFFFFFFFFFFFFF76
:10126000FFFFFFFF000000000000000000000FFF74
:10127000FFFFFFFFFFFFFFFFFFFE00000000000079
:101280000000000007FFFFFFFFFFFFFFFFFFFFFC65
:101290000000000000000000000003FFFFFFFFFF50
:1012A000FFFFFFFFFFF8000000000000000000004B
:1012B00001FFFFFFFFFFFFFFFFFFFFF00000000047
:1012C00000000000000000FFFFFFFFFFFFFFFFFF27
:1012D000FFE000000000000000000000007FFFFFB2
:1012E000FFFFFFFFFFFFFFC0000000000000000045
:1012F0000000003FFFFFFFFFFFFFFFFFFF80000038
:101300000000000000000000001FFFFFFFFFFFFFC4
:10131000FFFFFF0000000000000000000000000FC1
:10132000FFFFFFFFFFFFFFFFFF00000000000000C6
:1013300000000000000FFFFFFFFFFFFFFFFFFE00A8
:10134000000000000000000000000007FFFFFFFF9A
:10135000FFFFFFFFFC000000000000000000000095
:101360000003FFFFFFFFFFFFFFFFFC000000000086
:101370000000000000000001FFFFFFFFFFFFFFFF74
:10138000F800000000000000000000000001FFFF66
:10139000FFFFFFFFFFFFF000000000000000000063
:1013A00000000000FFFFFFFFFFFFFFFFF000000055
:1013B000000000000000000000007FFFFFFFFFFFB3
:1013C000FFFFE0000000000000000000000000003F
:1013D0007FFFFFFFFFFFFFFFC000000000000000D5
:1013E0000000000000007FFFFFFFFFFFFFFFC000C5
:1013F0000FFFE00000000000000000007FFFFFFF83
:10140000FFFFFFFF80007FFFFC0000000007FFFFE1
:10141000FFFFFFFFFFFFFFFFFFFF8001FFFFFF0058
:101420000000003FFFFFFFFFFFFFFFFFFFFFFFFF89
:101430000003FFFFFFC0000000FFFFFFFFFFFFFFF3
:10144000FFFFFFFFFFFF000FFFFFFFE0000003FFB4
:10145000FFFFFFFFFFFFFFFFFFFFFFFE001FFFFF7C
:10146000FFF8000007FFFFFFFFFFFFFFFFFFFFFF89
:10147000FFFE003FFFFFFFFC00000FFFFFFFFFFF2D
:10148000FFFFFFFFFFFFFFFE007FFFFFFFFE0000EB
:101490001FFFFFFFFFFFFFFFFFFFFFFFFFFC00FF3E
:1014A000FFFFFFFF00001FFFFFFFFFFFFFFFFFFF2A
:1014B000FFFFFFFC01FFFFFFFFFF00003FFFFFFFFB
:1014C000FFFFFFFFFFFFFFFFFFFC01FFFC007FFFAF
:1014D00080003FFFF800000007FFFFFFFFFFFFF85D
:1014E00003FFF0001FFFC0003FFE0000000001FFEF
:1014F000FFFFFFFFFFF807FFE00007FFC0007FF8D6
:101500000000000001FFFFFFFFFFFFF807FFC00022
:1015100003FFE0007FF80000000001FFFFFFFFFF76
:10152000FFF00FFF800001FFE0007FF000000000EF
:1015300000FFFFFFFFFFFFF00FFF000001FFF000C3
:101540007FF00000000000FFFFFFFFFFFFF00FFE35
:10155000000000FFF0007FF00000000000FFFFFF30
:10156000FFFFFFF01FFE0000007FF0007FF0000093
:10157000000000FFFFFFFFFFFFE01FFC0000007FF7
:10158000F8007FF800000000007FFFFFFFFFFFE092
:101590001FFC0000003FF8007FF800000000007F03
:1015A000FFFFFFFFFFE01FFC0000003FF8007FFC93
:1015B00000000000007FFFFFFFFFFFE01FF80000BA
:1015C000003FF8003FFF00000000007FFFFFFFFF2B
:1015D000FFE03FF80000003FF8003FFFC0000000C0
:1015E000007FFFFFFFFFFFE03FF80000001FF80053
:1015F0001FFFF8000000007FFFFFFFFFFFE03FF844
:101600000000001FF8001FFFFF000000007FFFFF29
:10161000FFFFFFC03FF80000001FF8000FFFFFE0D2
:101620000000003FFFFFFFFFFFC03FF80000001F6A
:10163000F80007FFFFFE0000003FFFFFFFFFFFC0B5
:101640003FF80000003FF80003FFFFFFC000003F2D
:10165000FFFFFFFFFFC03FF80000003FF80001FF61
:10166000FFFFF800003FFFFFFFFFFFC03FF000005B
:10167000003FF800007FFFFFFE00003FFFFFFFFF7D
:10168000FFC03FF00000003FF800001FFFFFFF8099
:10169000003FFFFFFFFFFFC03FF00000003FF800EA
:1016A0000007FFFFFFE0003FFFFFFFFFFFC03FF02D
:1016B0000000003FF8000000FFFFFFF0003FFFFFC9
:1016C000FFFFFFC03FF00000003FF00000001FFFE1
:1016D000FFF8003FFFFFFFFFFFC07FF00000003F6B
:1016E000F000000003FFFFFC003FFFFFFFFFFFC013
:1016F0007FF00000003FF0000000007FFFFE003F91
:10170000FFFFFFFFFFE07FE00000003FF000000070
:10171000000FFFFF003FFFFFFFFFFFE07FE0000043
:10172000007FF00000000001FFFF007FFFFFFFFFD0
:10173000FFE07FE00000007FF000000000007FFF7E
:10174000807FFFFFFFFFFFE07FE00000007FF000F1
:10175000000000001FFF807FFFFFFFFFFFE07FE032
:101760000000007FE0000000000007FF807FFFFF17
:10177000FFFFFFE07FE00000007FE00000000000CE
:1017800003FFC07FFFFFFFFFFFE0FFE00000007FDF
:10179000E0000000000003FFC07FFFFFFFFFFFF03D
:1017A000FFE00000007FE0000000000001FFC0FF3C
:1017B000FFFFFFFFFFF0FFE0000000FFE000000080
:1017C000000001FFC0FFFFFFFFFFFFF0FFE0000090
:1017D00000FFE0000000000001FFC0FFFFFFFFFF6F
:1017E000FFF0FFE0000000FFE0000000000001FF4C
:1017F000C0FFFFFFFFFFFFF0FFC0000000FFE000A1
:101800000000000003FFC0FFFFFFFFFFFFF8FFC065
:10181000000000FFE0000000000003FF81FFFFFF69
:10182000FFFFFFF8FFC0000000FFE0000000000025
:101830000FFF81FFFFFFFFFFFFFCFFC0000000FF65
:10184000E000000000003FFF81FFFFFFFFFFFFFD02
:10185000FFC0000000FFFFFFFFFFFFFFFFFF03FFD0
:10186000FFFFFFFFFFFFFFC0000000FFFFFFFFFFC4
:10187000FFFFFFFF03FFFFFFFFFFFFFFFFC00000B1
:1018800001FFFFFFFFFFFFFFFFFE03FFFFFFFFFF63
:10189000FFFFFF80000001FFFFFFFFFFFFFFFFFED4
:1018A00007FFFFFFFFFFFFFFFF80000001FFFFFFBB
:1018B000FFFFFFFFFFFC07FFFFFFFFFFFFFFFF80B2
:1018C000000001FFFFFFFFFFFFFFFFF80FFFFFFF1B
:1018D000FFFFFFFFFF80000001FFFFFFFFFFFFFF93
:1018E000FFE00FFFFFFFFFFFFFFFFF80000001FF92
:1018F000FFFFFFFFFFFFFFC01FFFFFFFFFFFFFFF17
:10190000FF80000001FFFFFFFFFFFFFFFF001FFF41
:10191000FFFFFFFFFFFFFF80000001FFFFFFFFFF52
:10192000FFFFC0003FFFFFFFFFFFFFFFFF80000042
:10193000000000000000000000003FFFFFFFFFFF6D
:10194000FFFFFF800000000000000000000000001A
:101950007FFFFFFFFFFFFFFFFF0000000000000010
:101960000000000000007FFFFFFFFFFFFFFFFF0000
:10197000000000000000000000000000FFFFFFFF6B
:10198000FFFFFFFFFF00000000000000000000005C
:101990000000FFFFFFFFFFFFFFFFFF000000000050
:1019A0000000000000000001FFFFFFFFFFFFFFFF3E
:1019B000FF00000000000000000000000003FFFF27
:1019C000FFFFFFFFFFFFFF0000000000000000001E
:1019D00000000007FFFFFFFFFFFFFFFFFF00000009
:1019E00000000000000000000007FFFFFFFFFFFFF6
:1019F000FFFFFF0000000000000000000000000FDB
:101A0000FFFFFFFFFFFFFFFFFF800000000000005F
:101A100000000000001FFFFFFFFFFFFFFFFFFFC0F0
:101A200000000000000000000000003FFFFFFFFF7B
:101A3000FFFFFFFFFFE000000000000000000000CB
:101A4000007FFFFFFFFFFFFFFFFFFFE00000000040
:101A5000000000000000007FFFFFFFFFFFFFFFFF0F
:101A6000FFF00000000000000000000000FFFFFF8A
:101A7000FFFFFFFFFFFFFFFC000000000000000071
:101A8000000001FFFFFFFFFFFFFFFFFFFFFE000061
:101A9000000000000000000003FFFFFFFFFFFFFF4A
:101AA000FFFFFFFF0000000000000000000007FF34
:101AB000FFFFFFFFFFFFFFFFFFFF800000000000B0
:101AC000000000001FFFFFFFFFFFFFFFFFFFFFFF02
:101AD000C00000000000000000003FFFFFFFFFFF0C
:101AE000FFFFFFFFFFFFE00000000000000000001C
:101AF0007FFFFFFFFFFFFFFFFFFFFFFFF80000007A
:101B0000000000000000FFFFFFFFFFFFFFFFFFFFDF
:101B1000FFFFFC000000000000000003FFFFFFFFCC
:101B2000FFFFFFFFFFFFFFFFFE00000000000000BF
:101B30000007FFFFFFFFFFFFFFFFFFFFFFFFFF802B
:101B4000000000000000001FFFFFFFFFFFFFFFFF7E
:101B5000FFFFFFFFFFE0000000000000007FFFFF2D
:101B6000FFFFFFFFFFFFFFFFFFFFFFF00000000090
:101B7000000000FFFFFFFFFFFFFFFFFFFFFFFFFF72
:101B8000FFFE00000000000003FFFFFFFFFFFFFF5C
:101B9000FFFFFFFFFFFFFFFF8000000000001FFFAF
:101BA000FFFFFFFFFFFFFFFFFFFFFFFFFFFFE00063
:101BB000000000007FFFFFFFFFFFFFFFFFFFFFFFB1
:101BC000FFFFFFFFFC0000000003FFFFFFFFFFFF20
:101BD000FFFFFFFFFFFFFFFFFFFFFF800000001F71
:101BE000FFFFFFFFFFFFFFFFFFFFFFFFFFFFFFFF05
:101BF000FFFC000001FFFFFFFFFFFFFFFFFFFFFFF4
:101C0000FFFFFFFFFFFFFFFFF000FFFFFFFFFFFFF2
:101C1000FFFFFFFFFFFFFFFFFFFFFFFFFFFFFFFFD4
:101C2000FFFFFFFFFFFFFFFFFFFFFFFFFFFFFFFFC4
:101C3000FFFFFFFFFFFFFFFFFFFFFFFFFFFFFFFFB4
:101C4000FFFFFFFFFFFFFFFFFFFFFFFFFFFFFFFFA4
:10204000FFFFFFFFFFFFFFFFFFFF00002100240055
:1020500027002A002D003000330001010000040198
:1020600007010A0100002200250028002B002E0095
:102070003100340002010000050108010B010000DD
:1020800020002300260029002C002F003200000130
:1020900000000301060109010505050507050808FB
:1020A0000808020202020A0A0808040404040101E2
:1020B00001010101010103030303030303030407F7
:1020C00007070C0C0C0C0C0C0C0C0202020206068E
:1020D0000606060606060B0B0B0B0B0B0B0B010281
:1020E000102020080810204010204080020102012A
:1020F00008040201010204081020408080402010E2
:10210000080402018004020180402010080402013A
:1021100008040201010204081020408001020408A2
:102120001020408000000A0B02090C0D0E08070366
:10213000040100000000000000000000000000009A
:10214000000000000000000000000000000000008F
:10215000121110000000000000000000000000004C
:1021600000000000000000000000AA36BE3F11245D
:102170001FBECFEFD1E2DEBFCDBF00E00CBF2FE02E
:10218000AAE9B5E001C01D92A03EB207E1F715E053
:10219000A0E0B2E0E0E5FBE800E00BBF02C0079082
:1021A0000D92AA39B107D9F710E1C6EBD0E100E0F2
:1021B00006C021970109802FFE010E949142C53B74
:1021C000D10780E00807A9F70E94AE370C94964526
:1021D0000C940000FC01A089B18982E08C93A48555
:1021E000B5851C92A685B78580E18C93108EA48955
:1021F000B58986E08C93A289B3898C9180618C9398
:10220000A289B3898C9188608C93A289B3898C91BF
:1022100080688C930288F389E02D80818F7D808394
:1022200008958091CA0F9091CB0FA091CC0FB091DF
:10223000CD0F0197A109B1098093CA0F9093CB0FDD
:10224000A093CC0FB093CD0F892B8A2B8B2B49F405
:10225000E091880FF091890F808190918C0F892BEC
:1022600080830895AC01E091840FF091850F808107
:1022700090918D0F892B8083E091880FF091890FC9
:10228000808190918C0F90959823908380917E0F00
:1022900020E130E060E070E887FF12C05EBD0DB461
:1022A00007FEFDCF4EBD0DB407FEFDCFE091880FB8
:1022B000F091890F808190918C0F892B80830895F4
:1022C000E091800FF091810F90918A0FDA01A6239F
:1022D000B7238081AB2BD9F0982B9083E091820FAC
:1022E000F091830F808190918B0F892B8083E091F7
:1022F000820FF091830F808190918B0F909598239E
:1023000090837695679521503109D1F6CFCF90957E
:102310009823E3CF9C01E091840FF091850F808199
:1023200090918D0F909598239083E091880FF09174
:10233000890F808190918C0F909598239083809144
:102340007E0F40E150E060E070E887FF12C01EBCE5
:102350000DB407FEFDCF2EBD0DB407FEFDCFE091FD
:10236000880FF091890F808190918C0F892B808349
:102370000895E091800FF091810F90918A0FD9011B
:10238000A623B7238081AB2BD9F0982B9083E091C3
:10239000820FF091830F808190918B0F892B808326
:1023A000E091820FF091830F808190918B0F909537
:1023B000982390837695679541505109D1F6CFCFF8
:1023C00090959823E3CFCF93DF93EB010E948A117E
:1023D000CE01DF91CF910C9432118091CA0F909170
:1023E000CB0FA091CC0FB091CD0FAC01BD014F5FD1
:1023F0005F4F6F4F7F4F4093CA0F5093CB0F609347
:10240000CC0F7093CD0F892B8A2B8B2B91F480915D
:102410007E0F87FF04C080E58CBD81E08DBDE0911B
:10242000880FF091890F908180918C0F809589237E
:1024300080830895DC01FB0180918E0F8230B9F01A
:10244000833069F1813051F58091760F9091770F4B
:10245000019720813181821B930B918380832D9181
:102460003C9111978D939C933183208308958091A3
:10247000740F9091750F01972D913C911197821BCC
:10248000930B8D939C938091760F9091770F01978A
:1024900020813181821B930B9183808308958091E9
:1024A000740F9091750F01972D913C911197821B9C
:1024B000930B11969C938E93208131812D933C93A5
:1024C000EBCF0F931F93CF93DF9300D01F92CDB725
:1024D000DEB79A8389837C836B832091740F30915C
:1024E000750F8217930720F52091760F3091770FA3
:1024F00062177307E8F48A01BE016D5F7F4FCE015A
:1025000001960E941A120E94ED1169817A8180E27F
:1025100090E00E94E3116B817C8181E290E00E9457
:10252000E311B80182E290E00E94E3110E941111D0
:102530000F900F900F900F90DF91CF911F910F91FF
:1025400008950F931F93CF93DF9300D000D01F9275
:102550001F92CDB7DEB77C836B835E834D83388754
:102560002F832091740F3091750F21503109281756
:10257000390708F4C9019A8389838D819E812817C0
:10258000390708F4C9019E838D838091760F90915D
:10259000770F01972B813C818217930708F49C01E8
:1025A0003C832B832F8138858217930708F49C0185
:1025B00038872F83BE016D5F7F4FCE0101960E9449
:1025C0001A12BE01695F7F4FCE0105960E941A1252
:1025D0002D813E8189819A812817390720F43A8319
:1025E00029839E838D832F8138858B819C81281739
:1025F000390720F43C832B8398878F830E94ED1149
:10260000E0918E0FEE2379F0E150FF0B23E0EE0F07
:10261000FF1F2A95E1F7E00FF11FEE0FFF1FE057B4
:10262000F04F00811181B80183E0660F771F8A9512
:10263000E1F7706183E090E00E94E3116D817E819B
:1026400086E390E00E94E31169817A8187E390E05C
:102650000E94E3116F81788588E390E00E94E31186
:102660006B817C8189E390E00E94E31115950795C9
:102670000130110529F1ACF46D817E81012B11F13E
:1026800082E290E00E948A110E94111128960FB6F2
:10269000F894DEBF0FBECDBFDF91CF911F910F9198
:1026A000089502301105C9F069817A81033011055E
:1026B00039F780E290E00E94E3116B817C8108C0D1
:1026C00069817A8180E290E00E94E3116F817885D0
:1026D00081E290E00E94E311D3CF6D817E81E9CF4A
:1026E0006FEA70E086E390E00E94E31170E060E042
:1026F00087E390E00E94E3116BED70E088E390E0E7
:102700000E94E31170E060E089E390E00C94E31133
:102710008F929F92AF92BF92CF92DF92EF92FF92F1
:102720000F931F93CF93DF935C014B01EA01790173
:10273000680107E010E00E94A1120E94ED118FEFE6
:10274000E81AF80AE818F9082196CA19DB09EC9E7C
:102750005001ED9EB00CFC9EB00C1124A114B104EC
:1027600039F0C6010E94321181E0A81AB108F6CFF3
:102770000E941111DF91CF911F910F91FF90EF9067
:10278000DF90CF90BF90AF909F908F900C9470137C
:102790002F923F924F925F926F927F928F929F9271
:1027A000AF92BF92CF92DF92EF92FF920F931F935F
:1027B000CF93DF9300D000D000D01F921F92CDB7EF
:1027C000DEB75B015B834A83522E432E7C01712C62
:1027D000272D30E0EA81FB81848195812817390714
:1027E00008F0D4C080819181009709F4A5C0820FC0
:1027F000931FFC018081F091C40FFA872091C80FCC
:10280000F29F900111242F5F3F4F082E000C990B6F
:102810004091C60F841B9109289F6001299FD00C0D
:10282000389FD00C11248091C90F81110BC0E09109
:10283000C20FF091C30F96012C5F3F4FE20FF31FC1
:1028400034913A8785E0C80ED11C0E94ED119A851B
:10285000292E312CA7014F5F5F4F420D531D8091F0
:10286000740F9091750F4817590708F067C02091B1
:10287000C50F2150330B2A0D3B1D8091760F90918F
:10288000770F2817390708F059C007E010E0B501A5
:10289000C7010E94A112E1E0E9831B868601612C39
:1028A0002B852E0D3F2D311D39872887802F8C19C0
:1028B0009091C80F891708F059C03A859B85E0E0D0
:1028C000391739F0E091C20FF091C30FE00FF11FFB
:1028D000E4910F5F1F4FF8E08F9FC00111249C010E
:1028E0002A0D3B1D3D832C83912C812C8E2F90E053
:1028F0009F838E838091C50F6816C0F68E819F815D
:10290000082C02C0959587950A94E2F78170992763
:10291000E981EE23D1F0892BA9F48091780F909171
:10292000790F0E9432116394FFEF8F1A9F0A28E0FB
:1029300082169104F9F6BACF80E05DCF1982ADCF4F
:102940006801ACCF852D942DECCF4091780F50913C
:10295000790F892B11F0452D542D6C817D81680DE7
:10296000791D888599850E946112DDCF3B853F5F87
:102970003B878A85831720F70E9411110E947013EC
:10298000C1010196E80EF91E739422CFC7012B9660
:102990000FB6F894DEBF0FBECDBFDF91CF911F9170
:1029A0000F91FF90EF90DF90CF90BF90AF909F90EE
:1029B0008F907F906F905F904F903F902F900895F1
:1029C0002F923F924F925F926F927F928F929F923F
:1029D000AF92BF92CF92DF92EF92FF920F931F932D
:1029E000CF93DF93EC018B014A017901E61AF70AD4
:1029F000F7FE03C0F194E194F1086401CC1ADD0AFA
:102A0000D7FE03C0D194C194D108CE14DF0454F48E
:102A1000982D892D4901292F382F9C2F8D2FE801C2
:102A2000092F182F8C169D0650F4902F812F8901A5
:102A3000292F382F9C2F8D2FE401892E982E1401D9
:102A40002C1A3D0A2901401A510A57FE03C051941D
:102A500041945108310137FE03C08FEF681A780A9C
:102A600075946794AA24AA94BA2C0217130718F431
:102A7000AA24A394B12C0E94ED118C169D06A8F0F7
:102A80004FEF5FEFBE01C801CE14DF0414F0B801B0
:102A9000CE010E9461126418750877FE04C00A0D09
:102AA0001B1D620C731C2196E8CFDF91CF911F9103
:102AB0000F91FF90EF90DF90CF90BF90AF909F90DD
:102AC0008F907F906F905F904F903F902F900C94DD
:102AD00011118150823108F05AC0E82FF0E08827A8
:102AE000EB58FA4E8F4F0C94914295159915871516
:102AF0008D159115C7159C15A215A615AC15B01509
:102B0000B415BA15BE15C715C215C815CC158091D8
:102B100080008F77809380000895809180008F7D62
:102B2000F9CF80918000877FF5CF84B58F7784BD02
:102B3000089584B58F7DFBCF8091B0008F7780930F
:102B4000B00008958091B0008F7DF9CF8091900002
:102B50008F77809390000895809190008F7DF9CFBA
:102B600080919000877FF5CF8091A0008F77809330
:102B7000A00008958091A0008F7DF9CF8091A000E2
:102B8000877FF5CF809120018F7780932001089572
:102B9000809120018F7DF9CF80912001877FF5CF33
:102BA000CF93DF93282F30E0F901EC5DFE4D849147
:102BB000F901E252FF4DD491F901E856FF4DC4915D
:102BC000CC23A1F081110E946915EC2FF0E0EE0FEB
:102BD000FF1FE258FF4DA591B491EC91ED2381E0E8
:102BE00090E009F480E0DF91CF91089580E090E0DB
:102BF000FACFCF93DF93EC0188810E94D015892B07
:102C000039F481E08983EC81FD81DF91CF911994C2
:102C10001982EA81FB81F9CF1F93CF93DF93282F8D
:102C200030E0F901EC5DFE4D8491F901E252FF4D77
:102C3000D491F901E856FF4DC491CC23A9F0162F89
:102C400081110E946915EC2FF0E0EE0FFF1FEC5987
:102C5000FF4DA591B4918FB7F894EC91111108C074
:102C6000D095DE23DC938FBFDF91CF911F91089524
:102C7000DE2BF8CFCF93DF9390E0FC01E252FF4DC3
:102C8000249188569F4DFC0184918823C9F090E0DF
:102C9000880F991FFC01E65BFF4DA591B491FC01E3
:102CA000EC59FF4DC591D49161110DC09FB7F894B7
:102CB0008C91209582238C938881282328839FBF21
:102CC000DF91CF910895623051F49FB7F8943C9111
:102CD000822F809583238C93E8812E2BEFCF8FB7A3
:102CE000F894EC912E2B2C938FBFEACF1F93CF93A8
:102CF000DF938093C10F10917F0F112309F43FC020
:102D0000C0918F0FD0E0811102C0D0E0C0E061E03F
:102D1000812F0E943A16209739F460E0812FDF91CD
:102D2000CF911F910C940C16CF3FD10511F461E0A7
:102D3000F5CFE12FF0E0EC5DFE4DE491E150E231A2
:102D400008F0B3C0F0E08827E755F94E8F4F0C9498
:102D50009142BB16C316C816D216DC165517E616D6
:102D6000EE16F61600170A17141723172D17551706
:102D7000371741174B1784B5806884BDC7BDDF91F5
:102D8000CF911F91089584B5806284BDC8BDF7CFEF
:102D900080918000806880938000D0938900C093E8
:102DA0008800EDCF80918000806280938000D09376
:102DB0008B00C0938A00E3CF80918000886080936D
:102DC0008000D0938D00C0938C00D9CF8091B0004B
:102DD00080688093B000C093B300D1CF8091B000E1
:102DE00080628093B000C093B400C9CF80919000FE
:102DF000806880939000D0939900C0939800BFCFD3
:102E000080919000806280939000D0939B00C0934B
:102E10009A00B5CF80919000886080939000D09305
:102E20009D00C0939C00ABCF8091A00080688093F0
:102E3000A0008091A0008F7B8093A000D093A90078
:102E4000C093A8009CCF8091A00080628093A000D6
:102E5000D093AB00C093AA0092CF8091A00088606D
:102E60008093A000D093AD00C093AC0088CF809138
:102E70002001806880932001D0932901C09328010C
:102E80007ECF80912001806280932001D0932B011E
:102E9000C0932A0174CF8091200188608093200123
:102EA000D0932D01C0932C016ACFC038D1050CF00E
:102EB0003ECF33CF90917B00977F90937B008653DA
:102EC000806480937C0080917A00806480937A0093
:102ED00080917A0086FDFCCF8091780090917900F6
:102EE00008953FB7F8948091550B9091560BA0919F
:102EF000570BB091580B26B5A89B05C02F3F19F072
:102F00000196A11DB11D3FBFBA2FA92F982F882769
:102F1000BC01CD01620F711D811D911D42E0660F44
:102F2000771F881F991F4A95D1F708958F929F9216
:102F3000AF92BF92CF92DF92EF92FF924B015C0172
:102F40000E9471176B017C010E9471176C197D0939
:102F50008E099F09683E734081059105A8F321E021
:102F6000821A9108A108B10888EEC80E83E0D81E25
:102F7000E11CF11C81149104A104B10429F7FF9014
:102F8000EF90DF90CF90BF90AF909F908F9008957B
:102F9000CF92DF92EF92FF920F931F93CF93C09146
:102FA0008E0F10928E0F80EBC82ED12CD092750F01
:102FB000C092740F9CEDE92EF12CF092770FE09205
:102FC000760F10E000E02BED30E04FEA50E070E0CB
:102FD00060E090E080E00E948813C370C0938E0F81
:102FE000C130B9F0C330A9F0D092750FC092740F00
:102FF000F092770FE092760F6AE070E080E090E068
:10300000CF911F910F91FF90EF90DF90CF900C9494
:1030100096178CED90E09093750F8093740F80EB72
:1030200090E09093770F8093760FE6CF2FB7F894C8
:103030006091510B7091520B8091530B9091540BF6
:103040002FBF0895AF92BF92CF92DF92EF92FF927F
:103050000F931F93CF93DF936C017B018B01040FC0
:10306000151FEB015E01AE18BF08C017D10759F05C
:103070006991D601ED91FC910190F081E02DC6019E
:103080001995892B79F7C501DF91CF911F910F9188
:10309000FF90EF90DF90CF90BF90AF900895FC012C
:1030A000538D448D252F30E0842F90E0821B930BAD
:1030B000541710F0CF96089501970895FC01918D53
:1030C000828D981761F0A28DAE0FBF2FB11D5D9656
:1030D0008C91928D9F5F9F73928F90E008958FEFF8
:1030E0009FEF0895FC01918D828D981731F0828DAC
:1030F000E80FF11D858D90E008958FEF9FEF089503
:10310000FC01918D228D892F90E0805C9F4F821B66
:1031100091098F739927089581E69BE00E9480189A
:1031200021E0892B09F420E0822F08958EEF9BE0A7
:103130000E94801821E0892B09F420E0822F089555
:10314000FC01A48DA80FB92FB11DA35ABF4F2C911C
:10315000848D90E001968F739927848FA689B78913
:103160002C93A089B1898C91837080648C93938D0A
:10317000848D981306C00288F389E02D80818F7DAD
:1031800080830895EF92FF920F931F93CF93DF9365
:10319000EC0181E0888F9B8D8C8D98131AC0E88993
:1031A000F989808185FF15C09FB7F894EE89FF8962
:1031B0006083E889F98980818370806480839FBF00
:1031C00081E090E0DF91CF911F910F91FF90EF9000
:1031D0000895F62E0B8D10E00F5F1F4F0F73112710
:1031E000E02E8C8D8E110CC00FB607FCFACFE8894B
:1031F000F989808185FFF5CFCE010E94A018F1CF1B
:10320000EB8DEC0FFD2FF11DE35AFF4FF0829FB7BE
:10321000F8940B8FEA89FB8980818062CFCFCF93AE
:10322000DF93EC01888D8823B9F0AA89BB89E889EE
:10323000F9898C9185FD03C0808186FD0DC00FB694
:1032400007FCF7CF8C9185FFF2CF808185FFEDCF12
:10325000CE010E94A018E9CFDF91CF91089580E0C0
:1032600090E0892B29F00E94961881110E9400009D
:1032700080E090E0892B49F080E090E0892B29F0F4
:103280000E94000081110E94000080E090E0892BE4
:1032900049F080E090E0892B29F00E940000811124
:1032A0000E94000080E090E0892B29F00E948C1899
:1032B00081110C940000089581E020913A02309130
:1032C0003B02232B09F080E008950F931F93CF93C7
:1032D000DF938C01CFEDDDE0CE018F5D9D40801747
:1032E000910734F4699181E69BE00E94C218F4CF03
:1032F000DF91CF911F910F9108950F931F930E941B
:1033000016180091060210910702209108023091D0
:103310000902601B710B820B930B21E0693B7B4020
:103320008105910508F420E0822F1F910F910895E7
:103330004F3651056105710571F042305105610547
:10334000710548F04F7D81E04D34510561057105EF
:1033500019F080E0089581E00895FB0190818927AC
:1033600090E1899F90011124822790E0382F222735
:10337000AC0163E0440F551F6A95E1F72427352718
:10338000418150E02427352774E0959587957A95FB
:10339000E1F7822793279183808308950F931F93EA
:1033A000CF93DF931F921F92CDB7DEB78C01862F8C
:1033B000F801208131813A832983BE016F5F7F4FFD
:1033C0000E94AD1989819A81F801918380830F90C1
:1033D0000F90DF91CF911F910F9108952F923F92FF
:1033E0004F925F926F927F928F929F92AF92BF9215
:1033F000CF92DF92EF92FF920F931F93CF93DF93C1
:10340000CDB7DEB7A4970FB6F894DEBF0FBECDBF21
:10341000FC019C01205C3F4F8C01D8016D917D9196
:103420008D919D91AD010E949942D8016D937D933C
:103430008D939C9313978A014217530771F7DA0112
:103440008D909D90AD90BC908D829E82AF82B8860B
:10345000DF01AC5BBF4F8D909D90AD90BC901397FA
:103460008D869E86AF86B88A14960D911D912D91FA
:103470003C911397098B1A8B2B8B3C8B14962D91B7
:103480003D914D915C9113972F8F38A349A35AA377
:1034900014968D909D90AD90BC90139789829A82DE
:1034A000AB82BC8214960D911D912D913C91139786
:1034B0000D8B1E8B2F8B388F14962D913D914D9136
:1034C0005C911397298F3A8F4B8F5C8F14968D9058
:1034D0009D90AD90BC9089869A86AB86BC860CE7A1
:1034E00012E01E8F0D8F312C212CD10110E12116FD
:1034F00031040CF021C2AA0FBB1FAA0FBB1FAE0FD5
:10350000BF1FCD90DD90ED90FC90AD8DBE8D0D91E7
:103510001D912D913D91BE8FAD8F49815A816B8157
:103520007C818AE1440F551F661F771F8A95D1F76A
:1035300089809A80AB80BC8096E0B694A7949794DB
:1035400087949A95D1F7482959296A297B29498076
:103550005A806B807C80A5E1440C551C661C771C4E
:10356000AA95D1F789819A81AB81BC81072E7BE036
:10357000B695A795979587957A95D1F7702D84295B
:103580009529A629B729482759276A277B274980E3
:103590005A806B807C8089E1769467945794479435
:1035A0008A95D1F789819A81AB81BC81689416F89C
:1035B000880F991FAA1FBB1F1694D1F7842995293C
:1035C000A629B7292A013B01482659266A267B26C7
:1035D00049815A816B817C814095509560957095A9
:1035E000898C9A8CAB8CBC8C482159216A217B2117
:1035F00089819A81AB81BC818D889E88AF88B88C87
:1036000088219921AA21BB2184279527A627B7279E
:10361000B301A201480F591F6A1F7B1F400F511FA2
:10362000621F731FC40ED51EE61EF71E09851A857C
:103630002B853C850C0D1D1D2E1D3F1D8D809E80F4
:10364000AF80B8848EE1880C991CAA1CBB1C8A959B
:10365000D1F74D805E806F80788492E07694679495
:10366000579447949A95D1F784289528A628B72887
:103670004D815E816F817885A3E1440F551F661FE0
:10368000771FAA95D1F78D819E81AF81B885072ECE
:103690007DE0B695A795979587957A95D1F7702D8A
:1036A000842B952BA62BB72B88269926AA26BB26DA
:1036B0004D815E816F81788586E176956795579516
:1036C00047958A95D1F78D819E81AF81B885072E68
:1036D0007AE0880F991FAA1FBB1F7A95D1F7702D2A
:1036E000842B952BA62BB72BB501A401482759276E
:1036F0006A277B278D849E84AF84B88889899A89BC
:10370000AB89BC8988269926AA26BB268D819E81F5
:10371000AF81B88588229922AA22BB22CD84DE847B
:10372000EF84F88889899A89AB89BC89C822D92213
:10373000EA22FB22C824D924EA24FB24C40ED51E85
:10374000E61EF71E4F8C58A069A07AA0400E511EAD
:10375000621E731EC00ED11EE21EF31E9FEF291AB9
:10376000390A89889A88AB88BC888F8E98A2A9A2CA
:10377000BAA2098D1A8D2B8D3C8D09871A872B874C
:103780003C8710E42116310409F0ADC0DF01A05CD4
:10379000BF4F0D911D912D913C911397C00ED11EDD
:1037A000E21EF31ECD92DD92ED92FC9213971496D9
:1037B0004D915D916D917C9113978D809E80AF802E
:1037C000B884480D591D6A1D7B1D4D935D936D9303
:1037D0007C93139714964D915D916D917C91139705
:1037E0000D851E852F853889400F511F621F731F5D
:1037F0004D935D936D937C93139714964D915D91CA
:103800006D917C91139789889A88AB88BC88480D04
:10381000591D6A1D7B1D4D935D936D937C9313978A
:1038200014964D915D916D917C911397440E551EA8
:10383000661E771E4D925D926D927C921397149640
:103840004D915D916D917C91139709811A812B8126
:103850003C81400F511F621F731F4D935D936D9309
:103860007C931397BF01685A7F4FDB01CD90DD90A9
:10387000ED90FC9013978D889E88AF88B88CC80C0B
:10388000D91CEA1CFB1CCD92DD92ED92FC921397A1
:10389000E45AFF4F80819181A281B381898C9A8CF7
:1038A000AB8CBC8C880D991DAA1DBB1D8083918398
:1038B000A283B383A4960FB6F894DEBF0FBECDBF2C
:1038C000DF91CF911F910F91FF90EF90DF90CF90FC
:1038D000BF90AF909F908F907F906F905F904F9030
:1038E0003F902F9008952D893E894F89588D298FBB
:1038F0003A8F4B8F5C8F89819A81AB81BC818D8B94
:103900009E8BAF8BB88F49825A826B827C828D846A
:103910009E84AF84B888898A9A8AAB8ABC8A0D81D2
:103920001E812F8138850D871E872F87388BCD828A
:10393000DE82EF82F886D9CD1297AF70BB27AA0F2F
:10394000BB1FAA0FBB1FAE0FBF1F0D911D912D9165
:103950003C91D1011F97AF70BB27AA0FBB1FAA0FC5
:10396000BB1FAE0FBF1F4D915D916D917C91C10149
:103970008F709927880F991F880F991FDF01A80F53
:10398000B91FBCA3ABA3D1011797AF70BB27AA0F78
:10399000BB1FAA0FBB1FAE0FBF1FCD90DD90ED90D8
:1039A000FC90ABA1BCA18D909D90AD90BC90C80C3B
:1039B000D91CEA1CFB1C480159019FE0880C991C8A
:1039C000AA1CBB1C9A95D1F7D901C801072E71E139
:1039D000B695A795979587957A95D1F7702D882AF2
:1039E000992AAA2ABB2AD901C801072E7DE0880F8F
:1039F000991FAA1FBB1F7A95D1F7702D2801390195
:103A0000032E33E176946794579447943A95D1F70F
:103A1000302D84299529A629B72988259925AA25F5
:103A2000BB250F2EFAE03695279517950795FA9541
:103A3000D1F7F02D80279127A227B327C80ED91ED2
:103A4000EA1EFB1E8A019B0187E036952795179594
:103A500007958A95D1F7DB01CA01072E79E1880F16
:103A6000991FAA1FBB1F7A95D1F7702D082B192B10
:103A70002A2B3B2BDB01CA01072E7EE0880F991F02
:103A8000AA1FBB1F7A95D1F7702D2A013B01032E87
:103A900032E176946794579447943A95D1F7302D54
:103AA00084299529A629B72980279127A227B327FA
:103AB00023E076956795579547952A95D1F7842702
:103AC0009527A627B727C80ED91EEA1EFB1EABA155
:103AD000BCA1CD92DD92ED92FC92139716CD0F937F
:103AE0001F9310E000E028EC30E040EB50E066E986
:103AF00070E090E080E00E9488131F910F9108957C
:103B00000F931F9310E000E02DED30E040EB50E00C
:103B100068EC70E090E080E00E9488131F910F91A4
:103B20000895E8EAF4E0F093C30FE093C20FE49144
:103B3000E093C40FE9EAF4E084918093C50FEAEAC8
:103B4000F4E0E491E093C60FEBEAF4E0E491E09353
:103B5000C70F982F9695969596959093C80F1092AB
:103B6000C90F877019F09F5F9093C80F0895E4E024
:103B7000F2E0F093C30FE093C20FE491E093C40F1F
:103B8000E5E0F2E084918093C50FE6E0F2E0E49195
:103B9000E093C60FE7E0F2E0E491E093C70F982FBF
:103BA0009695969596959093C80F1092C90F877029
:103BB00019F09F5F9093C80F0895CF92DF92EF9214
:103BC000FF92CF93DF93EC016A017B0188810E9411
:103BD000D0159C0181E090E02115310511F090E0B5
:103BE00080E09A8389838D819E81AF81B885232B64
:103BF000C9F4181619061A061B062CF0EB81FC8175
:103C0000309709F0199588E290E0A0E0B0E08D834C
:103C10009E83AF83B887DF91CF91FF90EF90DF90C5
:103C2000CF9008958C199D09AE09BF09B7FF03C055
:103C300080E090E0DC018D839E83AF83B8871A8299
:103C40001982E9CF83E090E090934A0B8093490B6F
:103C5000089582E090E090934A0B8093490B089579
:103C600081E090E090934A0B8093490B08950F9365
:103C70001F930E94161800919E0510919F05209198
:103C8000A0053091A105601B710B820B930B6D3D5C
:103C900075408105910568F081E080934E0B0E948C
:103CA000161860939E0570939F058093A0059093CE
:103CB000A1051F910F9108950F931F930E9416184D
:103CC00000919A0510919B0520919C0530919D05CE
:103CD000601B710B820B930B6D3D75408105910547
:103CE00068F081E080934F0B0E94161860939A054C
:103CF00070939B0580939C0590939D051F910F9158
:103D0000089581E08093480B089581E080934B0BE8
:103D1000089581E080934C0B089510924D0B089507
:103D200081E080934D0B08958F929F92AF92BF9246
:103D3000EF92FF920F931F93CF93DF938C014A0171
:103D40005B017901FC011995C0915B0BD0915C0B73
:103D500082E190E02097D1F50E946343FC0110823C
:103D600011821282138214821582168217821386A0
:103D700012861586148617861686118A108A9093E5
:103D80005C0B80935B0B90935A0B8093590B1186BD
:103D90001086E0915B0BF0915C0B15870487108215
:103DA00011821282138284829582A682B782F38660
:103DB000E28617861686DF91CF911F910F91FF90B3
:103DC000EF90BF90AF909F908F9008950E946343B3
:103DD000FC011082118212821382148215821682D3
:103DE0001782138612861586148617861686118A00
:103DF000108A998B888B8885998501969187808711
:103E0000F0935C0BE0935B0BC4CFEF92FF920F93A8
:103E10001F93CF93DF930097A1F1EC01E0905F0B2C
:103E2000F090600B0885198584E090E0E114F104BE
:103E3000D1F40E946343FC01138212829093600BC1
:103E400080935F0B90935E0B80935D0B11830083D7
:103E5000EE85FF853097A9F0DF91CF911F910F91EB
:103E6000FF90EF9019940E946343FC011382128229
:103E7000F701938382839093600B80935F0BFC0127
:103E8000E5CFDF91CF911F910F91FF90EF900895B3
:103E90008091590B90915A0B009751F0FC012089A9
:103EA000318930935A0B2093590B0E94FF43F0CF76
:103EB00080915D0B90915E0B009751F0FC01228187
:103EC000338130935E0B20935D0B0E94FF43F0CF54
:103ED00010925A0B1092590B10925C0B10925B0BC4
:103EE0001092600B10925F0B0895CF92DF92EF92C9
:103EF000FF920F931F93CF93DF93C0915D0BD091EF
:103F00005E0B209709F445C0E091590BF0915A0BD4
:103F100028813981808591852817390759F480894E
:103F2000918990935A0B8093590B0E94FF430A800A
:103F3000DB81C02D0091590B10915A0BD80150967E
:103F4000ED91FC912097E9F03097D9F0E088F18865
:103F500028813981808591852817390779F4D8011E
:103F60005096EC9250975196FC92E088F188C701E8
:103F70000E94FF430A80DB81C02DF8018F01F70109
:103F8000E1CF10925E0B10925D0B1092600B1092BD
:103F90005F0BC091590BD0915A0B209751F1CC80F7
:103FA000DD80EE80FF800E941618088119812A8129
:103FB0003B81601B710B820B930B6C157D058E058D
:103FC0009F0598F00E941618688379838A839B83E3
:103FD000EA85FB85309731F01995882319F0CE01D9
:103FE0000E94051FEC85FD8519950888D989C02D8B
:103FF000D4CFDF91CF911F910F91FF90EF90DF9081
:10400000CF900895CF93DF93EC0188819981009739
:1040100011F00E94FF43198218821D821C821B82AC
:104020001A82DF91CF910895FC01808191810097E0
:1040300011F00C94FF430895CF92DF92EF92FF921C
:104040000F931F93CF93DF93EC018B01FC01E05A98
:10405000FF4FC080D180E280F38096012F73332719
:1040600083E0CC0CDD1CEE1CFF1C8A95D1F7C90146
:1040700001962C0F3D1F40E8F901408389339105DB
:1040800078F040E450E0481B590B70E060E08C0F82
:104090009D1F0E947F45CE010E94EE1990E080E0B6
:1040A0004CE350E0481B590B70E060E08C0F9D1F03
:1040B0000E947F45FCAEEDAEDEAECFAECE010E94DB
:1040C000EE19FE01E05CFF4F208131814281538176
:1040D000CC5BDF4F8A819B81F8015083418332831F
:1040E000238394838583DF91CF911F910F91FF905C
:1040F000EF90DF90CF900895CF93DF93EC01A881EC
:10410000B981EB01E881F9811097F1F03097B1F4B2
:10411000EC018C819D81892BC9F08C9190E00BC0C2
:10412000DB0114968D919C91892B81F0808190E028
:10413000919581959109DF91CF910895BF01CD01AE
:10414000DF91CF910C948645309751F790E080E055
:10415000F2CF0F931F93CF93DF93EC018881998166
:10416000009759F02A813B812617370730F081E00C
:10417000DF91CF911F910F9108958B016F5F7F4F5A
:104180000E948844009759F0998388831B830A838F
:104190002C813D81232B59F7FC011082E8CF80E070
:1041A000E7CFEF92FF920F931F93CF93DF93EC0132
:1041B000FB01E080F180E114F10411F1048115812B
:1041C00001151105A9F08C819D81080F191FB801F7
:1041D000CE010E94A920882399F0288139818C8101
:1041E0009D81B701820F931F0E948F451D830C8311
:1041F000CE01DF91CF911F910F91FF90EF90089525
:10420000CE010E940220F4CFEF92FF920F931F93F2
:10421000CF93DF93EC017B018A01BA010E94A920B0
:1042200081110BC0CE010E940220CE01DF91CF91FF
:104230001F910F91FF90EF9008951D830C83B7019C
:10424000888199810E948F45F0CFFB010190002069
:10425000E9F73197AF01461B570B0C9404210F93DC
:104260001F93CF93DF93CDB7DEB762970FB6F89465
:10427000DEBF0FBECDBF8C01CB01F80111821082D1
:1042800013821282158214824AE0BE016F5F7F4F53
:104290000E94C63FBE016F5F7F4FC8010E9425216B
:1042A00062960FB6F894DEBF0FBECDBFDF91CF91FF
:1042B0001F910F9108950F931F93CF93DF93CDB765
:1042C000DEB7A1970FB6F894DEBF0FBECDBF8C014D
:1042D000CB01BA01F8011182108213821282158279
:1042E00014822AE0AE014F5F5F4F0E94D13FBE01B2
:1042F0006F5F7F4FC8010E942521A1960FB6F894E9
:10430000DEBF0FBECDBFDF91CF911F910F910895FA
:10431000CF93DF93EC01FB018617970749F060818B
:1043200071816115710541F0448155810E9404211C
:10433000CE01DF91CF9108950E940220F9CFFC01B8
:104340001182108213821282158214820C948821A9
:10435000FC01118210821382128215821482FB01E9
:1043600001900020E9F73197AF01461B570B0C94E1
:104370000421AF92BF92CF92DF92EF92FF920F9300
:104380001F93CF93DF936C015B017A01890124179E
:10439000350720F48F2D7901042F182F64E075E084
:1043A000C6010E94A821D5011496CD91DC91EC168E
:1043B000FD06E0F40C171D0708F4E801D501ED91A6
:1043C000FC911197EC0FFD1F108110826D917C9173
:1043D0006E0D7F1DC60161157105A1F00E9425219A
:1043E000F50180819181C80FD91F1883C601DF9123
:1043F000CF911F910F91FF90EF90DF90CF90BF90E2
:10440000AF9008950E940220EBCF0F931F93CF939C
:10441000DF9300D000D0CDB7DEB78C010E94B71D6E
:1044200068E074E00115110539F064E174E00130D1
:10443000110511F060E274E0CE0101960E94A821FE
:1044400025EE3FEAAE014F5F5F4F65E070E085E02B
:1044500090E00E94C813CE0101960E9414200E9491
:10446000911D26960FB6F894DEBF0FBECDBFDF912B
:10447000CF911F910F9108950F931F93CF93DF93C7
:10448000CDB7DEB72C970FB6F894DEBF0FBECDBF09
:104490008C0164E075E0CE0107960E94A8210130EE
:1044A000110589F102301105B9F169E075E0CE011D
:1044B00007960E9425211092930A00E018EFBE0192
:1044C000695F7F4FCE0101960E949F219801AE0146
:1044D0004F5F5F4F6CE270E085E090E00E94C81390
:1044E000CE0101960E941420CE0107960E9414204E
:1044F0002C960FB6F894DEBF0FBECDBFDF91CF91E3
:104500001F910F9108956CE274E0CE0107960E940E
:10451000252100EE17E0D3CF6DE374E0CE010796BE
:104520000E9425210FE110E0CACF20913A0230917C
:104530003B022817390741F090933B0280933A02DF
:104540000E943C2281E0089580E00895EF92FF925E
:104550000F931F93CF93DF93CDB7DEB762970FB65C
:10456000F894DEBF0FBECDBF8C017B01FC0124811E
:1045700035818091D40F9091D50F2817390741F4D8
:1045800060ED7FE0C8010E947C20892B09F472C095
:10459000B80180ED9FE00E948821F0920502E09230
:1045A0000402B701CE0107960E942F216EE474E049
:1045B000CE0101960E94A821BE01695F7F4FCE0106
:1045C00001960E94D120BC01CE010D960E949F2130
:1045D00020E038EFAE01435F5F4F66E970E090E0A6
:1045E00080E00E94C813CE010D960E941420CE01D7
:1045F00001960E941420CE0107960E9414200E946A
:10460000B71DF801848195814C9708F440C02BE1D7
:1046100030E050E040E0B801CE0101960E94B9219F
:1046200020E038EFAE014F5F5F4F6AEA70E090E044
:1046300080E00E94C813CE0101960E941420F80168
:10464000248135814BE150E0B801CE0101960E94F2
:10465000B92120E038EFAE014F5F5F4F62EB70E0B1
:1046600090E080E00E94C813CE0101960E941420C1
:104670000E94911D62960FB6F894DEBF0FBECDBFAB
:10468000DF91CF911F910F91FF90EF900895B801A6
:10469000CE0101960E949F2120E038EFAE014F5FCE
:1046A0005F4F6AEA70E0DCCF0F931F93CF93DF93E5
:1046B000CDB7DEB762970FB6F894DEBF0FBECDBFA1
:1046C0008C012091DA0F3091DB0FFC018481958100
:1046D0002817390741F4B80186ED9FE00E947C203D
:1046E000892B09F45CC0B80186ED9FE00E94882107
:1046F0000E94801D0E94B71DF80184819581489712
:1047000008F458C026E130E050E040E0B801CE01A6
:1047100007960E94B92167E574E0CE0101960E94D8
:10472000A821BE01695F7F4FCE0101960E94D12072
:10473000BC01CE010D960E949F2120EE3FEFAE01FD
:10474000435F5F4F68EC70E090E080E00E94C81328
:10475000CE010D960E941420CE0101960E941420D5
:10476000CE0107960E941420F8012481358146E18C
:1047700050E0B801CE0101960E94B92120EE3FEF32
:10478000AE014F5F5F4F60ED70E090E080E00E940F
:10479000C813CE0101960E9414200E94911D6296BA
:1047A0000FB6F894DEBF0FBECDBFDF91CF911F9142
:1047B0000F91089567E574E0CE0101960E94A8214B
:1047C000B801CE0101960E94D120BC01CE0107960E
:1047D0000E949F2120EE3FEFAE01495F5F4F68ECE2
:1047E00070E090E080E00E94C813CE0107960E941E
:1047F0001420CE0101960E941420CFCF4F925F92D9
:104800006F927F928F929F92AF92BF92CF92DF92E0
:10481000EF92FF920F931F93CF93DF938C01EB01E5
:1048200049015A01FC01E05AFF4F80819181A28128
:10483000B3816C017D012FE3C222DD24EE24FF242D
:10484000880D991DAA1DBB1D80839183A283B3830C
:1048500081149104A104B10479F180E490E0A0E016
:10486000B0E08C199D09AE09BF09240135018815F6
:104870009905AA05BB0510F42C013D01C8018C0D5A
:104880009D1DA201BE010E947645C40CD51CE61CEC
:10489000F71CC40DD51D84189508A608B70880E438
:1048A000C816D104E104F10499F6C8010E94EE197A
:1048B000C12CD12C7601CCCFDF91CF911F910F91DC
:1048C000FF90EF90DF90CF90BF90AF909F908F9030
:1048D0007F906F905F904F900895AF92BF92DF925C
:1048E000EF92FF920F931F93CF93DF93EC018B0115
:1048F000FB01D3808281645F7F4F8E3F09F459C0F2
:10490000ED2CF12CFB01EE0DFF1DDE2C91E09E1530
:1049100038F49701215031099291992309F463C029
:104920008883D982F80184818A8385818B838681FB
:104930008C8387818D8380858E8381858F8381851C
:104940009285A385988781859285A385A987A701EC
:10495000CE010A960E947645FAE0EF0EF11CCE0DCC
:10496000DF1DF801848199E0F92E80FF3AC08DE0C7
:10497000F8019081988391819983A82EB12C882386
:1049800041F0B8016A5E7E4FA501CE0102960E94F9
:104990007645C5018F0D911D03968D0D911DDF91FB
:1049A000CF911F910F91FF90EF90DF90BF90AF904C
:1049B00008958883D98286818A8387818B838085C5
:1049C0008C8381858D83438150E0CE0106960E94C1
:1049D0007645F801838190E00696C80FD91F25E03F
:1049E000F22E80E0C5CF790190CF3F924F925F9237
:1049F0006F927F928F929F92AF92BF92CF92DF92EF
:104A0000EF92FF920F931F93CF93DF93CDB7DEB753
:104A1000C857D1090FB6F894DEBF0FBECDBF6C01E9
:104A20003E2C8091B405582F527081FD1DC0E0913D
:104A3000B605F091B705309731F080812DE0522E08
:104A400011E080FD02C0512C10E08DEFF601828351
:104A50003C96E00FF11D8291811103C0015001309D
:104A6000D1F78AE0482E09C08EEFD60112968C93BA
:104A7000022F512C96E0492E10E0D60113960C938C
:104A8000139717966C93179718964C9318971111C4
:104A90004CC014961C92D60115961C9215978091C5
:104AA000AF0516968C9316978091AF058F5F809314
:104AB000AF0512968C911297A6968FAFA697139674
:104AC0008C911397A7968FAFA79719968D919D916B
:104AD000AC91F60136812781552359F1A8963FAF55
:104AE000A897A9962FAFA997AA964FAFAA97AB966A
:104AF0008FAFAB97A42CB12C8FEF9FEF9A83898354
:104B0000CE018B599F4F7C014C018A0C9B1C9FEF5F
:104B1000E91AF90A8E149F0439F1BE016F5F7F4FC5
:104B2000D7018C910E94AD19F2CF81E0F601848308
:104B3000B2CF5481A8965FAFA8975581A9965FAF71
:104B4000A997AA963FAFAA97AB962FAFAB97AC9613
:104B50004FAFAC97AD968FAFAD97AE969FAFAE9778
:104B6000AF96AFAFAF97C6CF89819A81E9969FAFD5
:104B70008EAFE997F6016380712C7601FCE0EF0EB1
:104B8000F11C470181E0681A7108BE0169587F4F26
:104B90009FEF6916790631F0D4018D914D010E9485
:104BA000AD19F0CF832D0E94AD19E8969FADE8971F
:104BB000E9968FADE997D6011396EC911397EE0D18
:104BC000FF2DF11D90831396EC911397EE0DFF2DA1
:104BD000F11D81839C9311968C931197112309F4F5
:104BE000F4C00091B6051091B7050115110509F43F
:104BF000ECC0F801808180FFE8C013967C90818131
:104C00004601FAEE8F1AFEEF9F0AD4018C93F80149
:104C10008281E0968FAFE0978381E1968FAFE19735
:104C20008481E2968FAFE2978581E3968FAFE39719
:104C30008681E4968FAFE4978781E5968FAFE597FD
:104C40008085E6968FAFE6978185E7968FAFE797E9
:104C500086E0FE01E159FF4F119601900D928A9571
:104C6000E1F7D80112962C91129713963C91139765
:104C700014964C91149715965C91159716966C9115
:104C8000169717967C91179718968C9118971996E6
:104C90009C91A1E00E942543F80122833383448341
:104CA0005583668377838087918787E696EEA9E0B0
:104CB000BAE625968CAF9DAFAEAFBFAF259785E81E
:104CC0009EEAA7E6BBEB29968CAF9DAFAEAFBFAF18
:104CD000299782E793EFAEE6BCE32D968CAF9DAFAC
:104CE000AEAFBFAF2D978AE395EFAFE4B5EA61961B
:104CF0008CAF9DAFAEAFBFAF61978FE792E5AEE0EF
:104D0000B1E565968CAF9DAFAEAFBFAF65978CE850
:104D100098E6A5E0BBE969968CAF9DAFAEAFBFAF9B
:104D200069978BEA99EDA3E8BFE16D968CAF9DAFD3
:104D3000AEAFBFAF6D9789E19DECA0EEBBE5A1964C
:104D40008CAF9DAFAEAFBFAFA197A5961CAE1DAE09
:104D50001EAE1FAEA597B801665F7F4F20E230E020
:104D600040E050E0CE0101960E94FE23242D30E069
:104D700050E040E0BE016B597F4FCE0101960E948A
:104D8000FE23272D30E050E040E0B701CE01019630
:104D90000E94FE23B701670D711D22E030E040E064
:104DA00050E0CE0101960E94FE2327E030E040E073
:104DB00050E0B401CE0101960E94FE23B601635E6D
:104DC0007E4FCE0101960E941C20D60113968C9135
:104DD0008A0D9B2D911D0296850D911DC858DF4FA0
:104DE0000FB6F894DEBF0FBECDBFDF91CF911F91FC
:104DF0000F91FF90EF90DF90CF90BF90AF909F907A
:104E00008F907F906F905F904F903F9008958F921A
:104E10009F92AF92BF92CF92DF92EF92FF920F9349
:104E2000882309F46DC080E090E0A0E8BFE38093A0
:104E3000100F9093110FA093120FB093130FC09007
:104E4000140FD090150FE090160FF090170F80916F
:104E50000F0F40910D0F50910E0F90910C0F20915C
:104E60000B0FE091720FF091730F8090100F9090E4
:104E7000110FA090120FB090130F84869586A6860E
:104E8000B786C08AD18AE28AF38A148A158A168A7A
:104E9000178A108E118E128E138E148E158E168E0A
:104EA000178E10A211A212A213A214A215A216A26A
:104EB00017A251A740A722A793A784A78CE490E04C
:104EC000A0E081879287A38788E9E82E01E221E2AA
:104ED00041E062E0CF010E94F5246091720F709171
:104EE000730F8091700F9091710F0F91FF90EF9061
:104EF000DF90CF90BF90AF909F908F900C946D24D7
:104F000080E090E0A0E0B0E492CF8F929F92AF92C9
:104F1000BF92CF92DF92EF92FF920F931F93CF93A6
:104F2000DF93F62E142F682F70E090E080E00E944F
:104F300022404B015C01CBE0DFE08CA69DA6AEA633
:104F4000BFA66F2D70E090E080E00E9422406B01D0
:104F50007C01C8AAD9AAEAAAFBAA612F70E090E056
:104F600080E00E9422406CAB7DAB8EAB9FAB2BA54B
:104F700049A55AA538A5AFA1C2E7DFE0E881F981CC
:104F800084869586A686B786C08AD18AE28AF38A05
:104F9000648B758B868B978B108E118E128E138E71
:104FA000148E158E168E178E10A211A212A213A2A5
:104FB00014A215A216A217A251A740A7A2A733A711
:104FC00024A78CE490E0A0E081879287A38788E9FA
:104FD000E82E01E221E241E062E0CF010E94F524E7
:104FE000688179818091700F9091710FDF91CF91DD
:104FF0001F910F91FF90EF90DF90CF90BF90AF90F7
:105000009F908F900C946D24EF920F93CF93DF932A
:10501000BC01990F880B990B0E942440EBE0FFE044
:1050200063A374A385A396A322A1A0A1B1A1378DE8
:10503000468DC2E7DFE0E881F9816487758786875E
:105040009787108A118A128A138A148A158A168AF7
:10505000178A108E118E128E138E148E158E168E48
:10506000178E10A211A212A213A214A215A216A2A8
:1050700017A2B1A7A0A742A733A724A78CE490E06A
:10508000A0E081879287A38788E9E82E01E221E2E8
:1050900041E062E0CF010E94F5246881798180912E
:1050A000700F9091710FDF91CF910F91EF900C9451
:1050B0006D24CF92DF92EF92FF920F93882309F431
:1050C00061C080E090E0A0E0B0E48093480F90934E
:1050D000490FA0934A0FB0934B0FC090480FD09048
:1050E000490FE0904A0FF0904B0F8091470F40918D
:1050F000450F5091460F9091440F2091430FE0913E
:10510000720FF091730FC486D586E686F786108AF3
:10511000118A128A138A148A158A168A178A108E9F
:10512000118E128E138E148E158E168E178E10A25F
:1051300011A212A213A214A215A216A217A251A77D
:1051400040A722A793A784A78CE490E0A0E08187E2
:105150009287A38788E9E82E01E221E241E062E03C
:10516000CF010E94F5246091720F7091730F8091AE
:10517000700F9091710F0F91FF90EF90DF90CF9093
:105180000C946D2480E090E0A0E8BFE39ECF2F92C6
:105190003F924F925F926F927F928F929F92AF92C7
:1051A000BF92CF92DF92EF92FF920F931F93CF9314
:1051B000DF9320917C0A30917D0A40917E0A5091C4
:1051C0007F0A6091800A7091810A8091820A909191
:1051D000830AA0E00E944343A1F40E947117DC01FE
:1051E000CB0160937C0A90937D0AA0937E0AB093D2
:1051F0007F0A1092800A1092810A1092820A1092FD
:10520000830A0E9471172B013C012091200B3091E1
:10521000210B4091220B5091230B6091240B709134
:10522000250B8091260B9091270BA0907C0AB090C3
:105230007D0AC0907E0AD0907F0AE090800AF090AC
:10524000810A0091820A1091830A0E94314312015F
:1052500051016301E12CF12C00E010E00E941C439D
:105260002093660F3093670F4093680F5093690F38
:1052700060936A0F70936B0F80936C0F90936D0F18
:10528000A0916F0FB0916E0F40905E0F50905F0F26
:105290006090600F7090610F8090620F9090630F2C
:1052A000D091640FC091650FE091720FF091730F70
:1052B0004486558666867786808A918AD28BC38B90
:1052C000248B358B468B578B608F718F828F938F9A
:1052D000B48FA58F8FE690E0A0E081879287A387A7
:1052E00086ECE82E02E122E141E062E0CF010E947B
:1052F000F5246091720F7091730F8091700F9091EF
:10530000710F0E946D24DF91CF911F910F91FF903B
:10531000EF90DF90CF90BF90AF909F908F907F9055
:105320006F905F904F903F902F900C946519CF92A3
:10533000DF92EF920F931F93CF93DF93C8EAD5E0EC
:105340001C8522E02C873091520F5091500F7091A4
:105350004F0F00914E0F82E7C82E8FE0D82ED60156
:10536000ED91FC9140914D0F60914C0F8091510F48
:1053700090E0B0E0A0E084879587A687B787008B90
:10538000718B528B338B248B11861286138692E39A
:10539000E92E09E029E0CF010E94F5241C87F601DF
:1053A000608171818091700F9091710F0E946D24C6
:1053B000DF91CF911F910F91EF90DF90CF900C94E0
:1053C00065192F923F924F925F926F927F928F92C8
:1053D0009F92AF92BF92CF92DF92EF92FF920F9384
:1053E0001F93CF93DF93CDB7DEB7C75AD1090FB65E
:1053F000F894DEBF0FBECDBF81E69BE00E9480180F
:10540000892B11F40C94E53281E69BE00E945E1832
:105410008C01CD56DF4F8883C359D0401092A90A22
:105420002091AC0A3091AD0A2131310508F03CC021
:10543000F9018827E15EF54D8F4F0C949142372A90
:10544000372AD72AF22A092B112B1B2B252B2F2B7E
:10545000512B6B2B832B9B2B292C292C952C952C9A
:1054600081E090E09093AD0A8093AC0AC5CF809123
:10547000B50ACD56DF4F2881C359D0402D3F09F0E2
:1054800081C022E030E03093AD0A2093AC0A109244
:10549000F3050093F2058E7F8093B50A8FEF9FEF9F
:1054A0009093F1058093F0058091A90A8130A9F4C9
:1054B0002091B10A3091B20A9091F6059093AF0A0B
:1054C0002115310521F41092B40A1092B30A2F5F0E
:1054D0003F4F3093B20A2093B10A9091F305909315
:1054E000BF0C2091AC0A3091AD0A3093980A2093FA
:1054F000970A9091AE0A9093990A9091AF0A9F5F94
:1055000090939A0A2091B10A3091B20A30939D0A81
:1055100020939C0A2091AB0A30E030939F0A20939D
:105520009E0A9091B50A9093A00A1092AB0A82301D
:1055300041F420910407309105073093BD0C20936E
:10554000BC0C9EEF980F923008F046C481E0809327
:10555000AB0A1092A90ACD56DF4FF881C359D0404B
:10556000FD3F09F07DCF82E090E09093AD0A8093FB
:10557000AC0A1092F3058FEF9FEF9093F1058093A3
:10558000F0053ACFCD56DF4F3881C359D0403E3F6A
:1055900011F00C94E13222E030E03093AD0A209318
:1055A000AC0A1092F3050093F205816075CF009369
:1055B000F3051092AE0A602F80EF95E00E94CE199D
:1055C0008091B50A80FF07C01092F4051092F5058E
:1055D00085E090E002C083E090E09093AD0A809374
:1055E000AC0A62CF0093F405C8018E7F9927892BFE
:1055F00041F08091AB0A8F5F8093AB0A81E090E02D
:10560000ECCF602F80EF95E00E94CE1984E090E00F
:10561000E4CF0093F505602F80EF95E00E94CE194E
:10562000D7CF0093F605602F80EF95E00E94CE194A
:1056300086E090E0D2CF0093F705602F80EF95E0F1
:105640000E94CE1987E090E0C8CF0093F805602F44
:1056500080EF95E00E94CE1988E090E0BECFCD5655
:10566000DF4F4881C359D040842F90E0A0E0809361
:10567000F9059093FA05A093FB05602F80EF95E064
:105680000E94CE198091B50A80FF08C08091F30571
:10569000882309F44DC08BE090E09FCF89E090E033
:1056A0009CCF8091F9059091FA05A091FB05CD560C
:1056B000DF4F5881C359D040952B8093F9059093C3
:1056C000FA05A093FB05602F80EF95E00E94CE19AC
:1056D0008AE090E082CF8091F9059091FA05A0913F
:1056E000FB05CD56DF4FB881C359D040AB2B80931B
:1056F000F9059093FA05A093FB05602F80EF95E0E4
:105700000E94CE19C3CFE091AE0A81E08E0F809344
:10571000AE0AF0E0E450FA4F0083602F80EF95E08E
:105720000E94CE199091AE0A8091F3059813BCCED9
:105730008CE090E052CF8091F9059091FA05A0910C
:10574000FB05AC016A2F70E0E8E08E2E912CA12CB5
:10575000B12CC12CD12C76012AE0D701C601880DCD
:10576000991DAA1DBB1D0196A11DB11DB695A7953A
:1057700097958795289FF001299FF00D1124E458F3
:10578000FC4F40805180628073804415550566054A
:10579000770568F54C015D01E1E08E1A9108A108DA
:1057A000B108C814D904EA04FB04B8F28AE08C9D5D
:1057B000F0018D9DF00D1124E458FC4F8081918102
:1057C000A281B381481759076A077B07C1F4648136
:1057D00080EF95E00E94CE198091F0059091F1053F
:1057E000992708171906A1F48DE090E013C06C0109
:1057F0007D014416550666067706C0F6D2CF8EE0C8
:1058000090E09093AD0A8093AC0A009304074CCECD
:105810008EE090E09093AD0A8093AC0A0093040769
:105820008091AE0A9AE09C9DF0019D9DF00D11249F
:10583000E458FC4F4681841708F036CE50E090E0E3
:10584000481B590B70E060E084509A4F0E947F45DE
:105850002BCE2E303105B1F0F091F105C456DF4F5B
:10586000F883CC59D040C356DF4F1882CD59D04071
:10587000C456DF4FE880F980CC59D04081E00E1546
:105880001F0409F082E08093A90A00930507809124
:10589000F40580FF17C08091A90A823051F480E19D
:1058A00090E09093AD0A8093AC0A8DE08093B60AA5
:1058B000FBCD8FE090E09093AD0A8093AC0A1092FC
:1058C000A90AF3CFE091B70AF091B80A309749F0EE
:1058D00002A4F3A5E02D3097A9F48091A90A8230A3
:1058E00001F581E090E09093AD0A8093AC0A83E2E9
:1058F00091E0E0EFF5E0ACEBBCE001900D92019798
:10590000E1F7D2CD8091F9059091FA05A091FB05C0
:10591000AC016A2F70E089EA9AE019958111E1CF14
:10592000DCCF83E08093A90ADCCF8091B60AEDE05A
:10593000F0E0E81BF109EA5FF84F008381508093A3
:10594000B60A81113EC68090B70A9090B80A81E0ED
:105950008114910409F4D0C12090B90A3090BA0A98
:1059600007E616EE29E03AE625960CAF1DAF2EAFFE
:105970003FAF259725E83EEA47E65BEB29962CAF3B
:105980003DAF4EAF5FAF299782E793EFAEE6BCE342
:105990002D968CAF9DAFAEAFBFAF2D971AE3E12E22
:1059A00015EFF12E0FE415EA6196ECAEFDAE0EAFE9
:1059B0001FAF61970FE712E52EE031E565960CAF5A
:1059C0001DAF2EAF3FAF65972CE838E645E05BE9A9
:1059D00069962CAF3DAF4EAF5FAF69978BEA99EDFB
:1059E000A3E8BFE16D968CAF9DAFAEAFBFAF6D9733
:1059F00089E19DECA0EEBBE5A1968CAF9DAFAEAF6B
:105A0000BFAFA197A5961CAE1DAE1EAE1FAEA5974B
:105A100020E230E040E050E0B401665F7F4FCE010D
:105A200001960E94FE232AE030E040E050E062EF61
:105A300075E0CE0101960E94FE232091F30530E02F
:105A400050E040E06CEF75E0CE0101960E94FE232D
:105A500022E030E040E050E064E077E0CE010196E3
:105A60000E94FE2327E030E040E050E066E077E06F
:105A7000CE0101960E94FE23BE016B587F4FCE01DE
:105A800001960E941C2046E050E06DE077E0CE01D8
:105A90008B589F4F0E946945892B21F082E090E04E
:105AA000D4018FC050900607AE961FAEAE97AF964A
:105AB0001FAEAF97E0961FAEE097E1961FAEE1975D
:105AC000E2961FAEE297E3961FAEE397E4961FAE11
:105AD000E497E5961FAEE59786E0E7E0F7E0DE01A4
:105AE000A359BF4F01900D928A95E1F7211431041B
:105AF00011F1F10180819181E091F7052091F80584
:105B0000D101712C612C86159705C1F013963C913B
:105B10001397E3130BC014963C911497231306C0FC
:105B200012963C911297531609F4F0C0FFEF6F1ACA
:105B30007F0A1996E8CF83E090E0B2CF409718F043
:105B400084E090E0ADCFAE962FADAE97AF963FAD6F
:105B5000AF97E0964FADE097E1965FADE197E296A3
:105B60006FADE297E3967FADE397E4968FADE49750
:105B7000E5969FADE59720583247444A5F4F6F4FF7
:105B80007F4F8F4F9F4FD4011296AC901297139670
:105B9000BC9013971496CC9014971596DC9015979B
:105BA0001696EC9016971796FC90179718960C91EE
:105BB000189719961C9119970E943A43F0F485E0C2
:105BC00090E09D969C938E939C97E091B70AF091FC
:105BD000B80A02A4F3A5E02D80E0309709F48CC048
:105BE0008091F9059091FA05A091FB05AC016A2F0F
:105BF00070E089EA9AE019957FC089E0869DD0011E
:105C0000879DB00D1124A20DB31D1396EC9313972D
:105C10008091F80514968C93149712965C92C301A8
:105C20000196F1019183808389E0869DD001879D53
:105C3000B00D11241596A20DB31D86E0E7E0F7E044
:105C400001900D928A95E1F7AE963FACAE97AF9674
:105C50005FACAF97E0966FACE097E1967FACE197D1
:105C6000E2964FACE297E3962FACE397E496FFAD54
:105C7000E497E596EFADE597D4011296AC901297B4
:105C80001396BC9013971496CC9014971596DC90AD
:105C900015971696EC9016971796FC9017971896EE
:105CA0000C91189719961C911997232D352DA30146
:105CB000642D722D8F2F9E2F0E943A43C1F0B8F0B1
:105CC00012963C92129713965C92139714966C92CC
:105CD000149715967C92159716964C9216971796D0
:105CE0002C9217971896FC9318971996EC9381E0CD
:105CF00090E0F40195A784A72091AC0A3091AD0AF9
:105D00002031310509F063C082E00CCEA6961FAEAB
:105D1000A697A7961FAEA797A8961FAEA897A99675
:105D20001FAEA997AA961FAEAA97AB961FAEAB97C8
:105D3000AC961FAEAC97AD961FAEAD9789E0869D31
:105D4000F001879DF00D11243596E20DF31D86E0DC
:105D5000DE01AB59BF4F01900D928A95E1F7AE96E7
:105D60002FADAE97AF963FADAF97E0964FADE097B2
:105D7000E1965FADE197E2966FADE297E3967FAD76
:105D8000E397A696AFACA697A796BFACA797A896A1
:105D9000CFACA897A996DFACA997AA96EFACAA9723
:105DA000AB96FFACAB97AC960FADAC97AD961FAD75
:105DB000AD97E4968FADE497E5969FADE5970E9489
:105DC0003A4311F008F030CF86E090E069CE8823A6
:105DD00009F4A7CD81E0A6CD882309F40DCB8091ED
:105DE000C50C9091C60CA091C70C8D369105A105EC
:105DF00009F469C38F369105A10509F40BC1892BFC
:105E00008A2B09F0F9CA9091C30C8091AD0C9813BC
:105E1000F3CA9091C40C8091AE0C9813EDCA0E9405
:105E200016186093060270930702809308029093FD
:105E300009028091CF0C8093BB0CC090C80CD0900D
:105E4000C90CE090CA0CF090CB0CC092AF0C8091C2
:105E5000CD0C8093B00CC092B20CD092B30CE092F7
:105E6000B40CF092B50CC6018370992701979093FA
:105E70003D0B80933C0B0E9405229701860142E076
:105E800036952795179507954A95D1F703701127F1
:105E9000C801019790933F0B80933E0B64E075E03F
:105EA000CE018B599F4F0E94A8210230110509F4A1
:105EB0006BC30330110509F471C30130110509F4F6
:105EC00059C367E774E0CE018B599F4F0E9425218B
:105ED0000FEF1FEFBE016B597F4FCE0101960E945D
:105EE0009F219801AE014F5F5F4F61E470E086E44F
:105EF00090E00E94C813CE0101960E941420CE01AA
:105F00008B599F4F0E941420D701C60124E0B695FB
:105F1000A795979587952A95D1F783709927AA27F2
:105F2000BB270297A105B10509F442C382E090E0C6
:105F30000E9495229701860186E036952795179550
:105F400007958A95D1F70370112701501109B801FF
:105F5000CE018B599F4F0E942F2163EA74E0CE013E
:105F60008B589F4F0E94A821BE016B587F4FCE01D6
:105F700083599F4F0E949F21BE016B597F4FCE01D5
:105F800083599F4F0E94D120BC01CE0101960E94EF
:105F90009F21CE0101960E945423CE0101960E94BA
:105FA0001420CE0183599F4F0E941420CE018B589C
:105FB0009F4F0E941420CE018B599F4F0E941420A6
:105FC00080910402909105020130110509F0F3C29D
:105FD0008830910509F4EFC264EB74E0CE010196BC
:105FE0000E94A82168E070E0CE0101960E94A622DE
:105FF000CE0101960E9414201093470B0093460B8C
:106000008D2D8F779FEF980F943608F0F5C9809308
:10601000930AF2C98091040290910502079711F446
:106020000E946F1D81E08093840AE090C80CCD56D9
:10603000DF4FE882C359D040F090C90CC556DF4FFE
:10604000F882CB59D0400091CA0CC256DF4F08836A
:10605000CE59D0401091CB0CC156DF4F1883CF5989
:10606000D0402091CC0CC056DF4F2883C05AD0407E
:106070003091CD0CCF55DF4F3883C15AD04040917D
:10608000CE0CCE55DF4F4883C25AD0405091CF0C32
:10609000CD55DF4F5883C35AD040E0929B0CF0920D
:1060A0009C0C00939D0C10939E0C20939F0C30939E
:1060B000A00C4093A10C5093A20C4090D00C509097
:1060C000D10C6090D20C7090D30C8090D40C909036
:1060D000D50C3090D60C2090D70C4092A30C509247
:1060E000A40C6092A50C7092A60C8092A70C9092C2
:1060F000A80C3092A90C2092AA0C0E947117CC55C2
:10610000DF4F688379838A839B83C45AD040209170
:10611000200B3091210B4091220B5091230B609169
:10612000240B7091250B8091260B9091270BA0904A
:106130007C0AB0907D0AC0907E0AD0907F0AE090E1
:10614000800AF090810A0091820A1091830A0E94CD
:106150003143520163017401032D122D0E9431431A
:10616000CC55DF4FE880F9800A811B81C45AD040AA
:1061700057016801E12CF12C00E010E00E941C4363
:1061800001E00E940143CD56DF4FA880C359D040A3
:10619000C556DF4FB880CB59D040C256DF4FC880BC
:1061A000CE59D040C156DF4FD880CF59D040C056CD
:1061B000DF4FE880C05AD040CF55DF4FF880C15A3A
:1061C000D040CE55DF4F0881C25AD040CD55DF4F69
:1061D0001881C35AD0400E941C43722E832E942EE5
:1061E000652E562E472E382E292E2093200B3093C5
:1061F000210B4093220B5093230B6093240B70933D
:10620000250B8093260B9093270B0E9471177B011F
:106210008C0120E030E0A901CD56DF4F6883C359DF
:10622000D040CC56DF4FF882C459D040CB56DF4F18
:106230008883C559D040CA56DF4F1883C659D0400D
:10624000C956DF4F2883C759D040C856DF4F38831F
