:020000040000FA
:100000000C9438070C9469070C9469070C946907E1
:100010000C9469070C9469070C9469070C946907A0
:100020000C9469070C9469070C9469070C94690790
:100030000C9469070C9469070C9469070C94690780
:100040000C9469070C9469070C9469070C94690770
:100050000C9469070C9469070C9469070C94EF2CB5
:100060000C9469070C94632D0C94392D0C9469073A
:100070000C9469070C9469070C9469070C94690740
:100080000C9469070C9469070C9469070C94690730
:100090000C9469070C9469070C9469070C94690720
:1000A0000C9469070C9469070C9469070C94690710
:1000B0000C9469070C9469070C9469070C94690700
:1000C0000C9469070C9469070C9469070C946907F0
:1000D0000C9469070C9469070C9469070C946907E0
:1000E0000C9469070C9418250C94FC0D0C94430C8B
:1000F0000C946F0D0C940E250C94992D0C94AC0F50
:100100000C946E0C0C94B10D0C9411160C945510AB
:100110000C9422250C94591C0C94340C0C943E160F
:100120000C942E0C0C94620D0C945F0F0C94400CEC
:100130000C945E250C94690C0C948A230C94E515A0
:100140000C9444250C946A0D0C94F60E0C94570CE8
:100150000C941C260C94A70D0C943C0C0C94EC15E0
:100160000C94530C0C94E5240C9404250C94190F56
:100170000C94F20D0C94270F0C94CA240C94E80DE7
:100180000C943A160C94FC240C94050F0C94451610
:100190000C94950D0C9476250C94DE0D0C945B0C50
:1001A0000C94FD0F0C944D0C0C9442160C94CA0D3B
:1001B0000C9488260C94380C0C94730C0C94C90E77
:1001C0000C946F0C0C94790D0C94830D0C94BE362A
:1001D0000C948D0D0C9436160C94D7150C949D0D23
:1001E0000C94650C0C94BB0D0C942A240C94610C9B
:1001F0000C94D40D0C948E250C94DE150C94490CA3
:100200000C94BA22060820600400000000000005DB
:100210000000065F0600060007030007030600242F
:100220007E247E240500242B6A1200060063130836
:10023000646306003649562050040000070300009E
:100240000400003E410000040000413E00000600A2
:10025000083E1C3E08060008083E0808040000E0AE
:10026000600000060008080808080400006060003C
:10027000000600201008040206003E5149453E05D4
:100280000000427F400006006251494946060022B4
:100290004949493606001814127F1006002F4949B3
:1002A000493106003C4A49493006000171090503FD
:1002B000060036494949360600064949291E040008
:1002C000006C6C0000040000EC6C000005000814D9
:1002D0002241000600242424242406000041221484
:1002E000080600020159090606003E415D551E063A
:1002F000007E1111117E06007F4949493606003EF5
:100300004141412206007F4141413E06007F49496B
:10031000494106007F0909090106003E4149497A21
:1003200006007F0808087F050000417F41000600A5
:10033000304040403F06007F0814224106007F40C5
:1003400040404006007F0204027F06007F0204084E
:100350007F06003E4141413E06007F09090906062D
:10036000003E4151215E06007F09091966060026FC
:1003700049494932060001017F010106003F404022
:10038000403F06001F2040201F06003F403C403FEA
:1003900006006314081463060007087008070500C8
:1003A00071494543000500007F41410006000204F9
:1003B00008102005000041417F00060004020102F0
:1003C000040680808080808004000003070000060F
:1003D00000205454547806007F44444438060038C2
:1003E000444444280600384444447F0600385454AA
:1003F00054080500087E090900060018A4A4A47C7E
:1004000005007F04047800050000007D4000050021
:100410004080847D0005007F102844000500000016
:100420007F400006007C0418047805007C040478F2
:1004300000060038444444380600FC44444438066E
:100440000038444444FC060044784404080600088C
:10045000545454200500043E44240005003C402030
:100460007C0006001C2040201C06003C6030603CE4
:1004700005006C10106C0005009CA0603C0005009D
:100480006454544C000500083E4141000400000043
:1004900077000006000041413E080500020102010C
:1004A0000006003C2623263C0B10206006000000BE
:1004B000000000000000000000000000000000003C
:1004C000000000070000000000007C00FF33FF3345
:1004D0007C00000000000000000008000000003C5C
:1004E000003C00000000003C003C00000000000058
:1004F000000B0002101E901FF0037E021E1E901FB4
:10050000F0037E021E0010000900007804FC0CCCF1
:100510000CFF3FFF3FCC0CCC0F8807000000000B06
:1005200000303838381C380E00078003C001E0382E
:10053000703838381C000A0000001FB83FFC31C674
:1005400021E2373E1E1C1C0036002200000600007F
:100550000000000027003F001F0000000000000016
:10056000000000000800000000F003FC0FFE1F0761
:1005700038012001200000000000000800000000F9
:10058000012001200738FE1FFC0FF00300000000CF
:100590000000090000980CB80EE003F80FF80FE017
:1005A00003B80E980C0000000009000080018001D3
:1005B0008001F00FF00F8001800180010000000039
:1005C0000600000000000000B800F80078000000FD
:1005D000000000000000000900008001800180018F
:1005E0008001800180018001800100000000060080
:1005F0000000000000003800380038000000000053
:1006000000000000000B0018001C000E0007800313
:10061000C001E000700038001C000E000BF807FE5F
:100620001F061E03338331C330633033301E18FE80
:100630001FF8070A000000000C300C300E30FF3F9E
:10064000FF3F00300030003000000B1C301E380728
:100650003C033E03378333C331E33077303E301CF5
:10066000300B0C0C0E1C0738C330C330C330C33002
:10067000C330E7397E1F3C0E0BC003E00370033824
:10068000031C030E030703FF3FFF3F000300030BA0
:100690003F0C7F1C633863306330633063306330FA
:1006A000E338C31F830F0BC00FF01FF839DC30CEC7
:1006B00030C730C330C330C339801F000F0B030075
:1006C000030003000330033C030FC303F3003F00A8
:1006D0000F0003000B000FBC1FFE39E730C330C30F
:1006E00030C330E730FE39BC1F000F0B3C007E00EA
:1006F000E730C330C330C338C31CC30EE707FE0363
:10070000FC0006000000000000701C701C701C0043
:1007100000000000000000000006000000000000D3
:10072000709C70FC707C0000000000000000000065
:10073000090000C000E001F00338071C0E0E1C0782
:10074000380330000000000A000060066006600602
:10075000600660066006600660066006000009002C
:1007600000033007380E1C1C0E3807F003E001C0F0
:1007700000000000000A1C001E0007000300833771
:10078000C337E30077003E001C0000000BF80FFEAB
:100790001F0718F333FB371B36FB37FB370736FED3
:1007A00003F8010A0038003FE007FC061F061F0699
:1007B000FC06E007003F003800000AFF3FFF3FC390
:1007C00030C330C330C330E730FE39BC1F000F00E8
:1007D000000AF003FC0F0E1C07380330033003300F
:1007E00007380E1C0C0C00000AFF3FFF3F033003CC
:1007F000300330033007380E1CFC0FF00300000AF2
:10080000FF3FFF3FC330C330C330C330C330C330BA
:100810000330033000000AFF3FFF3FC300C300C3A3
:1008200000C300C300C3000300030000000AF0037C
:10083000FC0F0E1C07380330C330C330C330C73F32
:10084000C63F00000AFF3FFF3FC000C000C000C01D
:1008500000C000C000FF3FFF3F0000080000000094
:1008600003300330FF3FFF3F033003300000000040
:1008700000000A000E001E0038003000300030007A
:10088000300038FF1FFF0700000AFF3FFF3FC00096
:10089000E001F00338071C0E0E1C0738033000007F
:1008A0000AFF3FFF3F0030003000300030003000D2
:1008B000300030003000000AFF3FFF3F1E0078008C
:1008C000E001E00178001E00FF3FFF3F00000AFF4B
:1008D0003FFF3F0E003800F000C0030007001CFF80
:1008E0003FFF3F00000AF003FC0F0E1C07380330E7
:1008F000033007380E1CFC0FF00300000AFF3FFF17
:100900003F83018301830183018301C701FE007CD2
:100910000000000AF003FC0F0E1C073803300336FA
:10092000073E0E1CFC3FF03300000AFF3FFF3F83F1
:1009300001830183038307830FC71DFE387C3000CA
:10094000000A3C0C7E1CE738C330C330C330C330D0
:10095000C7398E1F0C0F00000900000300030003BD
:1009600000FF3FFF3F030003000300000000000AF8
:10097000FF07FF1F00380030003000300030003823
:10098000FF1FFF0700000A07003F00F801C00F002B
:100990003E003EC00FF8013F00070000000AFF3F85
:1009A000FF3F001C0006800380030006001CFF3F81
:1009B000FF3F00000A03300F3C1C0E3003E001E053
:1009C0000130031C0E0F3C033000000A03000F002F
:1009D0003C00F000C03FC03FF0003C000F000300AF
:1009E00000000A0330033C033E0333C331E33033DA
:1009F000301F300F30033000000800000000FF3FC0
:100A0000FF3F0330033003300330000000000000DC
:100A10000B0E001C0038007000E000C001800300D5
:100A200007000E001C00180800000000033003300F
:100A300003300330FF3FFF3F0000000000000B6069
:100A400000700038001C000E0007000E001C00386B
:100A500000700060000B00C000C000C000C000C0FB
:100A600000C000C000C000C000C000C007000000FF
:100A700000000000003E007E004E0000000000006C
:100A80000000000A001C403E603360336033603376
:100A900060336033E03FC03F00000AFF3FFF3FC0CC
:100AA000306030603060306030E038C01F800F0050
:100AB000000A800FC01FE038603060306030603066
:100AC0006030C018800800000A800FC01FE0386046
:100AD0003060306030E030C030FF3FFF3F00000A40
:100AE000800FC01FE03B603360336033603360339E
:100AF000C0138001000008C000C000FC3FFE3FC7DB
:100B000000C300C30003000000000000000A8003CF
:100B1000C0C7E0CE60CC60CC60CC60CC60E6E07F4B
:100B2000E03F000009FF3FFF3FC000600060006041
:100B300000E000C03F803F0000000008000000000F
:100B400000306030EC3FEC3F00300030000000002F
:100B500000000800000000006000E000C060C0EC81
:100B6000FFEC7F000000000000090000FF3FFF3F96
:100B700000038007C00FE01C603800300000000058
:100B8000080000000000300330FF3FFF3F0030004E
:100B9000300000000000000AE03FC03FE000E0003D
:100BA000C03FC03FE000E000C03F803F00000A00BF
:100BB00000E03FE03F6000600060006000E000C0D7
:100BC0003F803F00000A800FC01FE0386030603077
:100BD00060306030E038C01F800F00000AE0FFE0A6
:100BE000FF600C6018601860186018E01CC00F806F
:100BF0000700000A8007C00FE01C6018601860182A
:100C00006018600CE0FFE0FF00000A0000E03FE039
:100C10003FC0006000600060006000E000C00000B5
:100C20000008C011E0336033603360336033603FED
:100C3000401E0000000000000860006000FE1FFE73
:100C40003F60306030603000300000000000000A7B
:100C5000E00FE01F00380030003000300030001896
:100C6000E03FE03F00000A6000E0018007001E0056
:100C7000380038001E8007E001600000000AE0072D
:100C8000E01F0038001CE00FE00F001C0038E01FE0
:100C9000E0070000096030E038C01D800F000780C9
:100CA0000FC01DE038603000000000090000600047
:100CB000E08180E7007E001E8007E0016000000008
:100CC00000000960306038603C60366033E031E03D
:100CD0003060302030000000000900008000C001BA
:100CE000FC1F7E3F0770036003600360000000008C
:100CF000060000000000000000FF3FFF3F00000072
:100D000000000000000000090000036003600360B1
:100D100007707E3FFC1FC0018000000000000A1029
:100D20000018000C0004000C001800100018000C43
:100D300000040000000A000F800FC00C600C300C93
:100D4000300C600CC00C800F000F00000000210070
:100D5000240027002A002D0030003300010100008C
:100D6000040107010A0100002200250028002B00D1
:100D70002E003100340002010000050108010B01C2
:100D8000000020002300260029002C002F00320044
:100D9000000100000301060109010505050507051D
:100DA00008080808020202020A0A080804040404E7
:100DB0000101010101010101030303030303030313
:100DC000040707070C0C0C0C0C0C0C0C02020202A2
:100DD00006060606060606060B0B0B0B0B0B0B0B8B
:100DE000010210202008081020401020408002013D
:100DF0000201080402010102040810204080804022
:100E00002010080402018004020180402010080420
:100E100002010804020101020408102040800102BE
:100E200004081020408000000A0B02090C0D0E0877
:100E300007030401000000000000000000000000A3
:100E400000000000000000000000000000000000A2
:100E5000000012111000000000000000000000005F
:100E6000000000000000000000000000992DBE36C8
:100E700011241FBECFEFD1E2DEBFCDBF00E00CBF1B
:100E80002FE0A4EFB5E001C01D92A23BB207E1F74D
:100E900015E0A0E0B2E0EAEBF9E700E00BBF02C02A
:100EA00007900D92A43FB107D9F717E0C7E3D7E049
:100EB00000E006C021970109802FFE010E94BF3982
:100EC000C633D10780E00807A9F70E94772E0C945B
:100ED000CB3C0C940000AC01E091560FF091570F01
:100EE000808190915F0F892B8083E0915A0FF09160
:100EF0005B0F808190915E0F9095982390838091F5
:100F0000500F20E130E060E070E887FF12C05EBD66
:100F10000DB407FEFDCF4EBD0DB407FEFDCFE09131
:100F20005A0FF0915B0F808190915E0F892B808327
:100F30000895E091520FF091530F90915C0FDA01F8
:100F4000A623B7238081AB2BD9F0982B9083E09117
:100F5000540FF091550F808190915D0F892B808304
:100F6000E091540FF091550F808190915D0F909515
:100F7000982390837695679521503109D1F6CFCF8C
:100F800090959823E3CF9C01E091560FF091570F75
:100F9000808190915F0F909598239083E0915A0FF4
:100FA000F0915B0F808190915E0F909598239083D4
:100FB0008091500F40E150E060E070E887FF12C080
:100FC0001EBC0DB407FEFDCF2EBD0DB407FEFDCF38
:100FD000E0915A0FF0915B0F808190915E0F892B09
:100FE00080830895E091520FF091530F90915C0F20
:100FF000D901A623B7238081AB2BD9F0982B9083FE
:10100000E091540FF091550F808190915D0F892BE5
:101010008083E091540FF091550F808190915D0F86
:101020009095982390837695679541505109D1F614
:10103000CFCF90959823E3CFCF93DF93EB010E941E
:10104000C307CE01DF91CF910C946B076FEA70E07C
:1010500086E390E00E941C0870E060E087E390E087
:101060000E941C086BED70E088E390E00E941C0871
:1010700070E060E089E390E00C941C0880919C0F84
:1010800090919D0FA0919E0FB0919F0F0197A10984
:10109000B10980939C0F90939D0FA0939E0FB093E6
:1010A0009F0F892B8A2B8B2B49F4E0915A0FF091DB
:1010B0005B0F808190915E0F892B808308958091D2
:1010C0009C0F90919D0FA0919E0FB0919F0FAC012E
:1010D000BD014F5F5F4F6F4F7F4F40939C0F509309
:1010E0009D0F60939E0F70939F0F892B8A2B8B2BE4
:1010F00091F48091500F87FF04C080E58CBD81E0A2
:101100008DBDE0915A0FF0915B0F908180915E0F41
:101110008095892380830895DC01FB018091600F15
:101120008230B9F0833069F1813051F58091480FF8
:101130009091490F019720813181821B930B9183FC
:1011400080832D913C9111978D939C9331832083C3
:1011500008958091460F9091470F01972D913C91F2
:101160001197821B930B8D939C938091480F9091C4
:10117000490F019720813181821B930B91838083DA
:1011800008958091460F9091470F01972D913C91C2
:101190001197821B930B11969C938E932081318122
:1011A0002D933C93EBCF0F931F93CF93DF9300D0FE
:1011B00000D01F921F92CDB7DEB77C836B835E8316
:1011C0004D8338872F832091460F3091470F215050
:1011D00031092817390708F4C9019A8389838D8159
:1011E0009E812817390708F4C9019E838D83809159
:1011F000480F9091490F01972B813C8182179307EB
:1012000008F49C013C832B832F8138858217930738
:1012100008F49C0138872F83BE016D5F7F4FCE019C
:1012200001960E948C08BE01695F7F4FCE01059632
:101230000E948C082D813E8189819A812817390767
:1012400020F43A8329839E838D832F8138858B8177
:101250009C812817390720F43C832B8398878F8340
:101260000E945F08E091600F07E010E0EE2359F064
:10127000E150FF0B24E0EE0FFF1F2A95E1F7EA5B38
:10128000F04F02A513A5B80183E0660F771F8A957A
:10129000E1F7706183E090E00E941C086D817E811F
:1012A00086E390E00E941C0869817A8187E390E0E0
:1012B0000E941C086F81788588E390E00E941C08DA
:1012C0006B817C8189E390E00E941C08159507954D
:1012D0000130110529F1ACF46D817E81012B11F1F2
:1012E00082E290E00E94C3070E943E0828960FB653
:1012F000F894DEBF0FBECDBFDF91CF911F910F914C
:10130000089502301105C9F069817A810330110511
:1013100039F780E290E00E941C086B817C8108C054
:1013200069817A8180E290E00E941C086F81788553
:1013300081E290E00E941C08D3CF6D817E81E9CFCD
:10134000AF92BF92CF92DF92EF92FF920F931F93D3
:10135000CF93DF936C015B01EA0179010E94D3080E
:101360000E945F088FEFE81AF80AEA18FB08219636
:10137000CC19DD09EC9E6001ED9ED00CFC9ED00CDA
:101380001124C114D10439F0C8010E946B0781E017
:10139000C81AD108F6CF0E943E08DF91CF911F9165
:1013A0000F91FF90EF90DF90CF90BF90AF900C9493
:1013B00026080F931F93CF93DF9300D01F92CDB7D2
:1013C000DEB79A8389837C836B832091460F3091AB
:1013D000470F8217930720F52091480F3091490F4E
:1013E00062177307E8F48A01BE016D5F7F4FCE017B
:1013F00001960E948C080E945F0869817A8180E2D0
:1014000090E00E941C086B817C8181E290E00E9448
:101410001C08B80182E290E00E941C080E943E086D
:101420000F900F900F900F90DF91CF911F910F9120
:1014300008952F923F924F925F926F927F928F9278
:101440009F92AF92BF92CF92DF92EF92FF920F9353
:101450001F93CF93DF93EC018B014A017901E61AC8
:10146000F70AF7FE03C0F194E194F1086401CC1A85
:10147000DD0AD7FE03C0D194C194D108CE14DF0495
:1014800054F4982D892D4901292F382F9C2F8D2F09
:10149000E801092F182F8C169D0650F4902F812FEC
:1014A0008901292F382F9C2F8D2FE401892E982E0A
:1014B00014012C1A3D0A2901401A510A57FE03C093
:1014C000519441945108310137FE03C08FEF681ADF
:1014D000780A75946794AA24AA94BA2C0217130761
:1014E00018F4AA24A394B12C0E945F088C169D06C0
:1014F000A8F04FEF5FEFBE01C801CE14DF0414F077
:10150000B801CE010E94D9096418750877FE04C09D
:101510000A0D1B1D620C731C2196E8CFDF91CF9141
:101520001F910F91FF90EF90DF90CF90BF90AF9001
:101530009F908F907F906F905F904F903F902F90F3
:101540000C943E08CF92DF92EF92FF920F931F937D
:10155000CF93DF936C018B01EA0179010E945F0850
:101560009701A601B801C6010E94190A9801AE01AF
:10157000B801C6010E94190A9701AE01B701C60160
:101580000E94190A9701AE01B801CE010E94190A02
:10159000DF91CF911F910F91FF90EF90DF90CF904F
:1015A0000C943E08E0EDFBE0A089B18982E08C93C9
:1015B000A485B5851C92A685B78580E18C93108E95
:1015C000A489B58986E08C93A289B3898C918061C6
:1015D0008C93A289B3898C9188608C93A289B389FA
:1015E0008C9180688C930288F389E02D80818F7DB7
:1015F000808308952F923F924F925F926F927F92D5
:101600008F929F92AF92BF92CF92DF92EF92FF9212
:101610000F931F93CF93DF9300D000D000D01F9281
:101620001F92CDB7DEB74B015C834B83422E3D83C7
:101630008C01712C272D30E0EB81FC818481958118
:101640002817390708F0D2C080819181009709F4EA
:10165000A3C0820F931FFC018081F091960FFA873F
:1016600020919A0FF29F900111242F5F3F4F082E77
:10167000000C990B4091980F841B9109289F7001D1
:10168000299FF00C389FF00C112480919B0F811141
:101690000BC0E091940FF091950F97012C5F3F4F95
:1016A000E20FF31F34913A8785E0E80EF11C0E94A7
:1016B0005F089A85292E312CA8014F5F5F4F420D9C
:1016C000531D8091460F9091470F4817590708F016
:1016D00065C02091970F2150330B280D391D809143
:1016E000480F9091490F2817390708F057C0B401E7
:1016F000C8010E94D308662463941B866701512C9D
:10170000EB85E00FF12FF11DF987E8878C2D8E19FD
:1017100090919A0F891708F059C0FA852B85E0E05F
:10172000F21739F0E091940FF091950FEC0DFD1D3B
:10173000E4913FEFC31AD30AF8E08F9FC001112450
:101740009C01280D391D3A832983B12CA12C8E2FA1
:1017500090E09F838E838091970F5816B8F68E8104
:101760009F810A2C02C0959587950A94E2F78170B3
:1017700099276620D1F0892BA9F480914A0F909186
:101780004B0F0E946B0753949FEFA91AB90AE8E028
:10179000AE16B10401F7BACF80E05FCF612CADCFB8
:1017A0007601ACCF842D9D81ECCF40914A0F5091B2
:1017B0004B0F892B11F0442D5D8169817A816A0D6F
:1017C0007B1D888599850E94D909DDCFFB85FF5F48
:1017D000FB872A852F1720F70E943E080E942608C3
:1017E000C1010196080F191F739424CFC8012B96CD
:1017F0000FB6F894DEBF0FBECDBFDF91CF911F9122
:101800000F91FF90EF90DF90CF90BF90AF909F909F
:101810008F907F906F905F904F903F902F900895A2
:101820008150823108F05AC0E82FF0E08827E45E4A
:10183000F34F8F4F0C94BF393C0C400C2E0C340CE2
:10184000380C6E0C430C490C4D0C530C570C5B0CB4
:10185000610C650C6E0C690C6F0C730C8091800030
:101860008F77809380000895809180008F7DF9CFDD
:1018700080918000877FF5CF84B58F7784BD0895F0
:1018800084B58F7DFBCF8091B0008F778093B000BF
:1018900008958091B0008F7DF9CF809190008F776F
:1018A000809390000895809190008F7DF9CF809172
:1018B0009000877FF5CF8091A0008F778093A00064
:1018C00008958091A0008F7DF9CF8091A000877F3F
:1018D000F5CF809120018F7780932001089580912A
:1018E00020018F7DF9CF80912001877FF5CFCF93A5
:1018F000DF93282F30E0F901EA5DF14F8491F9017F
:10190000E052F24FD491F901E656F24FC491CC2344
:10191000A1F081110E94100CEC2FF0E0EE0FFF1FE0
:10192000E058F24FA591B491EC91ED2381E090E065
:1019300009F480E0DF91CF91089580E090E0FACF44
:10194000CF93DF93EC0188810E94770C892B39F4C7
:1019500081E08983EC81FD81DF91CF911994198217
:10196000EA81FB81F9CF1F93CF93DF93282F30E0DB
:10197000F901EA5DF14F8491F901E052F24FD491FF
:10198000F901E656F24FC491CC23A9F0162F81112C
:101990000E94100CEC2FF0E0EE0FFF1FEA59F24FFF
:1019A000A591B4918FB7F894EC91111108C0D0951E
:1019B000DE23DC938FBFDF91CF911F910895DE2B43
:1019C000F8CFCF93DF9390E0FC01E052F24F2491E7
:1019D0008656924FFC0184918823C9F090E0880FCD
:1019E000991FFC01E45BF24FA591B491FC01EA5907
:1019F000F24FC591D49161110DC09FB7F8948C91AD
:101A0000209582238C938881282328839FBFDF9190
:101A1000CF910895623051F49FB7F8943C91822F92
:101A2000809583238C93E8812E2BEFCF8FB7F8948A
:101A3000EC912E2B2C938FBFEACF1F93CF93DF9384
:101A40008093930F1091510F112309F43FC0C0915F
:101A5000610FD0E0811102C0D0E0C0E061E0812FD1
:101A60000E94E10C209739F460E0812FDF91CF9143
:101A70001F910C94B30CCF3FD10511F461E0F5CF69
:101A8000E12FF0E0EA5DF14FE491E150E23108F03E
:101A9000B3C0F0E08827E05BF24F8F4F0C94BF3962
:101AA000620D6A0D6F0D790D830DFC0D8D0D950D79
:101AB0009D0DA70DB10DBB0DCA0DD40DFC0DDE0D96
:101AC000E80DF20D84B5806884BDC7BDDF91CF916C
:101AD0001F91089584B5806284BDC8BDF7CF809101
:101AE0008000806880938000D0938900C093880034
:101AF000EDCF80918000806280938000D0938B0036
:101B0000C0938A00E3CF809180008860809380003A
:101B1000D0938D00C0938C00D9CF8091B0008068A5
:101B20008093B000C093B300D1CF8091B0008062A9
:101B30008093B000C093B400C9CF809190008068BA
:101B400080939000D0939900C0939800BFCF80916C
:101B50009000806280939000D0939B00C0939A0085
:101B6000B5CF80919000886080939000D0939D00C5
:101B7000C0939C00ABCF8091A00080688093A000B0
:101B80008091A0008F7B8093A000D093A900C09388
:101B9000A8009CCF8091A00080628093A000D09389
:101BA000AB00C093AA0092CF8091A0008860809380
:101BB000A000D093AD00C093AC0088CF80912001ED
:101BC000806880932001D0932901C09328017ECFA3
:101BD00080912001806280932001D0932B01C093DB
:101BE0002A0174CF80912001886080932001D093D6
:101BF0002D01C0932C016ACFC038D1050CF03ECF27
:101C000033CF90917B00977F90937B0086538064C5
:101C100080937C0080917A00806480937A00809128
:101C20007A0086FDFCCF809178009091790008952C
:101C30003FB7F8948091C40B9091C50BA091C60B4F
:101C4000B091C70B26B5A89B05C02F3F19F0019690
:101C5000A11DB11D3FBFBA2FA92F982F8827BC0106
:101C6000CD01620F711D811D911D42E0660F771F2E
:101C7000881F991F4A95D1F708958F929F92AF922E
:101C8000BF92CF92DF92EF92FF924B015C010E94D4
:101C9000180E6B017C010E94180E6C197D098E09CB
:101CA0009F09683E734081059105A8F321E0821ADF
:101CB0009108A108B10888EEC80E83E0D81EE11C87
:101CC000F11C81149104A104B10429F7FF90EF9055
:101CD000DF90CF90BF90AF909F908F900895CF925C
:101CE000DF92EF92FF920F931F93CF93C091600FFB
:101CF0001092600F80EBC82ED12CD092470FC0926B
:101D0000460F9CEDE92EF12CF092490FE092480F1E
:101D100010E000E02BED30E04FEA50E070E060E0D2
:101D200090E080E00E94A009C370C093600FC130B2
:101D3000B9F0C330A9F0D092470FC092460FF0928D
:101D4000490FE092480F6AE070E080E090E0CF91A8
:101D50001F910F91FF90EF90DF90CF900C943D0E6C
:101D60008CED90E09093470F8093460F80EB90E0CE
:101D70009093490F8093480FE6CF2FB7F894609166
:101D8000C00B7091C10B8091C20B9091C30B2FBF00
:101D90000895AF92BF92CF92DF92EF92FF920F938E
:101DA0001F93CF93DF936C017B018B01040F151FF1
:101DB000EB015E01AE18BF08C017D10759F0699159
:101DC000D601ED91FC910190F081E02DC6011995AD
:101DD000892B79F7C501DF91CF911F910F91FF906A
:101DE000EF90DF90CF90BF90AF900895FC01538D9E
:101DF000448D252F30E0842F90E0821B930B5417E5
:101E000010F0CF96089501970895FC01918D828D71
:101E1000981761F0A28DAE0FBF2FB11D5D968C910A
:101E2000928D9F5F9F73928F90E008958FEF9FEF49
:101E30000895FC01918D828D981731F0828DE80F05
:101E4000F11D858D90E008958FEF9FEF0895FC01BF
:101E5000918D228D892F90E0805C9F4F821B91098C
:101E60008F739927089580ED9BE00E94270F21E052
:101E7000892B09F420E0822F0895FC01A48DA80F7E
:101E8000B92FB11DA35ABF4F2C91848D90E00196BC
:101E90008F739927848FA689B7892C93A089B189DC
:101EA0008C91837080648C93938D848D981306C07D
:101EB0000288F389E02D80818F7D80830895EF92E1
:101EC000FF920F931F93CF93DF93EC0181E0888FF4
:101ED0009B8D8C8D98131AC0E889F989808185FFC4
:101EE00015C09FB7F894EE89FF896083E889F98966
:101EF00080818370806480839FBF81E090E0DF9168
:101F0000CF911F910F91FF90EF900895F62E0B8DBA
:101F100010E00F5F1F4F0F731127E02E8C8D8E1175
:101F20000CC00FB607FCFACFE889F989808185FFDC
:101F3000F5CFCE010E943D0FF1CFEB8DEC0FFD2FC1
:101F4000F11DE35AFF4FF0829FB7F8940B8FEA8997
:101F5000FB8980818062CFCFCF93DF93EC01888DA6
:101F60008823B9F0AA89BB89E889F9898C9185FD14
:101F700003C0808186FD0DC00FB607FCF7CF8C91A2
:101F800085FFF2CF808185FFEDCFCE010E943D0F0E
:101F9000E9CFDF91CF91089580E090E0892B29F07F
:101FA0000E94330F81110E94000080E090E0892B95
:101FB00049F080E090E0892B29F00E940000811117
:101FC0000E94000080E090E0892B49F080E090E0E2
:101FD000892B29F00E94000081110E94000080E0FE
:101FE00090E0892B49F080E090E0892B29F00E9455
:101FF000000081110C940000089581E020913C02C2
:1020000030913D02232B09F080E008959093990BC5
:102010008093980B0E94BD0E6093940B7093950B68
:102020008093960B9093970B08951092990B1092B2
:10203000980B1092940B1092950B1092960B109295
:10204000970B08950F931F93CF93DF938C01C1EBF0
:10205000DDE0CE01815B9D408017910734F46991EA
:1020600080ED9BE00E945F0FF4CFDF91CF911F9135
:102070000F9108950F931F930E94BD0E0091360299
:10208000109137022091380230913902601B710B98
:10209000820B930B21E0693B7B408105910508F49D
:1020A00020E0822F1F910F9108954F365105610551
:1020B000710571F0423051056105710548F04F7DA1
:1020C00081E04D3451056105710519F080E00895F6
:1020D00081E00895FB019081892790E1899F90011B
:1020E0001124822790E0382F2227AC0163E0440FAF
:1020F000551F6A95E1F724273527418150E02427B1
:10210000352774E0959587957A95E1F7822793278F
:102110009183808308950F931F93CF93DF931F9232
:102120001F92CDB7DEB78C01862FF8012081318157
:102130003A832983BE016F5F7F4F0E946A108981B5
:102140009A81F801918380830F900F90DF91CF9156
:102150001F910F9108952F923F924F925F926F922D
:102160007F928F929F92AF92BF92CF92DF92EF9227
:10217000FF920F931F93CF93DF93CDB7DEB7A49752
:102180000FB6F894DEBF0FBECDBFFC019C01205CF2
:102190003F4F8C01D8016D917D918D919D91AD0145
:1021A0000E94C739D8016D937D938D939C931397AB
:1021B0008A014217530771F7DA018D909D90AD9017
:1021C000BC908D829E82AF82B886DF01AC5BBF4F30
:1021D0008D909D90AD90BC9013978D869E86AF8616
:1021E000B88A14960D911D912D913C911397098BEE
:1021F0001A8B2B8B3C8B14962D913D914D915C91BC
:1022000013972F8F38A349A35AA314968D909D90AE
:10221000AD90BC90139789829A82AB82BC8214964F
:102220000D911D912D913C9113970D8B1E8B2F8B32
:10223000388F14962D913D914D915C911397298F74
:102240003A8F4B8F5C8F14968D909D90AD90BC9083
:1022500089869A86AB86BC860EE712E01E8F0D8FAC
:10226000312C212CD10110E1211631040CF021C2B6
:10227000AA0FBB1FAA0FBB1FAE0FBF1FCD90DD90D3
:10228000ED90FC90AD8DBE8D0D911D912D913D91E8
:10229000BE8FAD8F49815A816B817C818AE1440F69
:1022A000551F661F771F8A95D1F789809A80AB806A
:1022B000BC8096E0B694A794979487949A95D1F7AA
:1022C000482959296A297B2949805A806B807C805A
:1022D000A5E1440C551C661C771CAA95D1F7898191
:1022E0009A81AB81BC81072E7BE0B695A795979527
:1022F00087957A95D1F7702D84299529A629B72934
:10230000482759276A277B2749805A806B807C8021
:1023100089E176946794579447948A95D1F7898197
:102320009A81AB81BC81689416F8880F991FAA1F07
:10233000BB1F1694D1F784299529A629B7292A010C
:102340003B01482659266A267B2649815A816B81A2
:102350007C814095509560957095898C9A8CAB8C5A
:10236000BC8C482159216A217B2189819A81AB81CA
:10237000BC818D889E88AF88B88C88219921AA213C
:10238000BB2184279527A627B727B301A201480FB1
:10239000591F6A1F7B1F400F511F621F731FC40EFE
:1023A000D51EE61EF71E09851A852B853C850C0D6A
:1023B0001D1D2E1D3F1D8D809E80AF80B8848EE137
:1023C000880C991CAA1CBB1C8A95D1F74D805E8095
:1023D0006F80788492E076946794579447949A95A6
:1023E000D1F784289528A628B7284D815E816F8172
:1023F0007885A3E1440F551F661F771FAA95D1F773
:102400008D819E81AF81B885072E7DE0B695A79519
:10241000979587957A95D1F7702D842B952BA62BC0
:10242000B72B88269926AA26BB264D815E816F810F
:10243000788586E176956795579547958A95D1F782
:102440008D819E81AF81B885072E7AE0880F991F14
:10245000AA1FBB1F7A95D1F7702D842B952BA62B25
:10246000B72BB501A401482759276A277B278D84FC
:102470009E84AF84B88889899A89AB89BC8988266B
:102480009926AA26BB268D819E81AF81B885882298
:102490009922AA22BB22CD84DE84EF84F888898920
:1024A0009A89AB89BC89C822D922EA22FB22C82496
:1024B000D924EA24FB24C40ED51EE61EF71E4F8C39
:1024C00058A069A07AA0400E511E621E731EC00E55
:1024D000D11EE21EF31E9FEF291A390A89889A88B5
:1024E000AB88BC888F8E98A2A9A2BAA2098D1A8D3A
:1024F0002B8D3C8D09871A872B873C8710E421168A
:10250000310409F0ADC0DF01A05CBF4F0D911D91FA
:102510002D913C911397C00ED11EE21EF31ECD9259
:10252000DD92ED92FC92139714964D915D916D9111
:102530007C9113978D809E80AF80B884480D591D83
:102540006A1D7B1D4D935D936D937C931397149639
:102550004D915D916D917C9113970D851E852F8511
:102560003889400F511F621F731F4D935D936D9308
:102570007C93139714964D915D916D917C91139777
:1025800089889A88AB88BC88480D591D6A1D7B1DB7
:102590004D935D936D937C93139714964D915D913C
:1025A0006D917C911397440E551E661E771E4D92B9
:1025B0005D926D927C92139714964D915D916D9101
:1025C0007C91139709811A812B813C81400F511F07
:1025D000621F731F4D935D936D937C931397BF019F
:1025E000685A7F4FDB01CD90DD90ED90FC90139702
:1025F0008D889E88AF88B88CC80CD91CEA1CFB1C3F
:10260000CD92DD92ED92FC921397E45AFF4F8081B8
:102610009181A281B381898C9A8CAB8CBC8C880D02
:10262000991DAA1DBB1D80839183A283B383A496A9
:102630000FB6F894DEBF0FBECDBFDF91CF911F91D3
:102640000F91FF90EF90DF90CF90BF90AF909F9051
:102650008F907F906F905F904F903F902F90089554
:102660002D893E894F89588D298F3A8F4B8F5C8FEA
:1026700089819A81AB81BC818D8B9E8BAF8BB88F0A
:1026800049825A826B827C828D849E84AF84B88812
:10269000898A9A8AAB8ABC8A0D811E812F813885EE
:1026A0000D871E872F87388BCD82DE82EF82F886DA
:1026B000D9CD1297AF70BB27AA0FBB1FAA0FBB1FA4
:1026C000AE0FBF1F0D911D912D913C91D1011F9710
:1026D000AF70BB27AA0FBB1FAA0FBB1FAE0FBF1F38
:1026E0004D915D916D917C91C1018F709927880FFB
:1026F000991F880F991FDF01A80FB91FBCA3ABA3B7
:10270000D1011797AF70BB27AA0FBB1FAA0FBB1F22
:10271000AE0FBF1FCD90DD90ED90FC90ABA1BCA1A2
:102720008D909D90AD90BC90C80CD91CEA1CFB1CF0
:10273000480159019FE0880C991CAA1CBB1C9A9562
:10274000D1F7D901C801072E71E1B695A7959795E4
:1027500087957A95D1F7702D882A992AAA2ABB2ABB
:10276000D901C801072E7DE0880F991FAA1FBB1F42
:102770007A95D1F7702D28013901032E33E1769433
:102780006794579447943A95D1F7302D8429952929
:10279000A629B72988259925AA25BB250F2EFAE059
:1027A0003695279517950795FA95D1F7F02D80273F
:1027B0009127A227B327C80ED91EEA1EFB1E8A0145
:1027C0009B0187E036952795179507958A95D1F750
:1027D000DB01CA01072E79E1880F991FAA1FBB1FD1
:1027E0007A95D1F7702D082B192B2A2B3B2BDB0167
:1027F000CA01072E7EE0880F991FAA1FBB1F7A957A
:10280000D1F7702D2A013B01032E32E176946794B3
:10281000579447943A95D1F7302D84299529A629C4
:10282000B72980279127A227B32723E076956795BC
:10283000579547952A95D1F784279527A627B72737
:10284000C80ED91EEA1EFB1EABA1BCA1CD92DD9223
:10285000ED92FC92139716CD0F931F9310E000E0BA
:1028600028EC30E040EB50E066E970E090E080E07A
:102870000E94A0091F910F9108950F931F9310E0DC
:1028800000E02DED30E040EB50E068EC70E090E0CF
:1028900080E00E94A0091F910F9108959F92AF922E
:1028A000BF92CF92DF92EF92FF920F931F93CF933D
:1028B000DF93942E690190E07C012CE1E20EF11C83
:1028C000C62FD0E05E01E9E0AE0EB11C10E000E0E2
:1028D0009501A701BE010E94A0099920C9F0892D88
:1028E000853608F084E6FCE18F9FC001112464E680
:1028F00070E00E946A39CB01009751F08601950182
:10290000A701BE01F701E81BF90BCF010E94A00946
:10291000DF91CF911F910F91FF90EF90DF90CF90BB
:10292000BF90AF909F900895E8EAF4E0F093950F80
:10293000E093940FE491E093960FE9EAF4E0849138
:102940008093970FEAEAF4E0E491E093980FEBEAC2
:10295000F4E0E491E093990F982F969596959695CB
:1029600090939A0F10929B0F877019F09F5F90932E
:102970009A0F0895E4E0F2E0F093950FE093940F3E
:10298000E491E093960FE5E0F2E084918093970F55
:10299000E6E0F2E0E491E093980FE7E0F2E0E49102
:1029A000E093990F982F96959695969590939A0FF8
:1029B00010929B0F877019F09F5F90939A0F089564
:1029C000CF92DF92EF92FF92CF93DF93CAE0D0E0F5
:1029D000C12CD12C76018CE30E94010E092E000C33
:1029E000AA0BBB0BC80ED91EEA1EFB1E219799F736
:1029F000C701B6012AE030E040E050E00E94A03973
:102A0000C90118161906BCF42F3F63E03607ACF471
:102A1000D90124E630E00E94CE392FEF33E040E0C8
:102A200050E00E94A039822FDF91CF91FF90EF906C
:102A3000DF90CF90089580E0F7CF84E6F5CFCF9276
:102A4000DF92EF92FF92CF93DF93EC016A017B015B
:102A500088810E94770C9C0181E090E0211531056E
:102A600011F090E080E09A8389838D819E81AF810F
:102A7000B885232BC9F4181619061A061B062CF064
:102A8000EB81FC81309709F0199588E290E0A0E095
:102A9000B0E08D839E83AF83B887DF91CF91FF90A5
:102AA000EF90DF90CF9008958C199D09AE09BF0972
:102AB000B7FF03C080E090E0DC018D839E83AF838D
:102AC000B8871A821982E9CFCF92DF92EF92FF92F4
:102AD0008091000681110DC00E94BD0E6093FC051F
:102AE0007093FD058093FE059093FF0581E0809330
:102AF00000060E94BD0EC090FC05D090FD05E09040
:102B0000FE05F090FF059B01AC012C193D094E0913
:102B10005F0969017A01BA01A90187E292E00E9486
:102B20001F15B701A6018EE192E00E941F15B701A3
:102B3000A60185E192E00E941F158FE092E00E94BD
:102B4000A00C89E092E00E94A00C809101020E94FA
:102B5000770C892BB1F410920202E0910302F091FC
:102B6000040219950E94BD0E6093FC057093FD054B
:102B70008093FE059093FF05FF90EF90DF90CF903C
:102B80000895809100020E94770C892B41F482E025
:102B900080930202E0910702F0910802E2CF81E007
:102BA00080930202E0910502F0910602DACF83E001
:102BB00090E09093AD0B8093AC0B089582E090E091
:102BC0009093AD0B8093AC0B089581E090E09093CF
:102BD000AD0B8093AC0B08950F931F930E94BD0E15
:102BE0000091F8051091F9052091FA053091FB0547
:102BF000601B710B820B930B6D3D75408105910538
:102C000068F081E08093BD0B0E94BD0E6093F805D3
:102C10007093F9058093FA059093FB051F910F912E
:102C200008950F931F930E94BD0E0091F40510911B
:102C3000F5052091F6053091F705601B710B820BAD
:102C4000930B6D3D75408105910568F081E080939F
:102C5000BE0B0E94BD0E6093F4057093F505809342
:102C6000F6059093F7051F910F91089581E08093E9
:102C7000A90B089581E08093B20B089581E08093C1
:102C8000B30B08951092BC0B089581E08093BC0BA8
:102C900008958F929F92AF92BF92EF92FF920F93FF
:102CA0001F93CF93DF938C014A015B017901FC01F3
:102CB0001995C091CA0BD091CB0B82E190E020977F
:102CC000D1F50E94983AFC0110821182128213827F
:102CD0001482158216821782138612861586148630
:102CE00017861686118A108A9093CB0B8093CA0B95
:102CF0009093C90B8093C80B11861086E091CA0B84
:102D0000F091CB0B158704871082118212821382F7
:102D100084829582A682B782F386E286178616861B
:102D2000DF91CF911F910F91FF90EF90BF90AF90E7
:102D30009F908F9008950E94983AFC011082118212
:102D400012821382148215821682178213861286CB
:102D50001586148617861686118A108A998B888B99
:102D600088859985019691878087F093CB0BE093B6
:102D7000CA0BC4CFEF92FF920F931F93CF93DF93B1
:102D80000097A1F1EC01E090CE0BF090CF0B0885FD
:102D9000198584E090E0E114F104D1F40E94983A9E
:102DA000FC01138212829093CF0B8093CE0B9093F1
:102DB000CD0B8093CC0B11830083EE85FF8530977C
:102DC000A9F0DF91CF911F910F91FF90EF9019948F
:102DD0000E94983AFC0113821282F7019383828346
:102DE0009093CF0B8093CE0BFC01E5CFDF91CF9179
:102DF0001F910F91FF90EF9008958091C80B9091D3
:102E0000C90B009751F0FC01208931893093C90B1F
:102E10002093C80B0E94343BF0CF8091CC0B909153
:102E2000CD0B009751F0FC01228133813093CD0B03
:102E30002093CC0B0E94343BF0CF1092C90B109220
:102E4000C80B1092CB0B1092CA0B1092CF0B1092A2
:102E5000CE0B0895CF92DF92EF92FF920F931F93C4
:102E6000CF93DF93C091CC0BD091CD0B209709F479
:102E700045C0E091C80BF091C90B2881398180854C
:102E800091852817390759F4808991899093C90B46
:102E90008093C80B0E94343B0A80DB81C02D0091D7
:102EA000C80B1091C90BD8015096ED91FC91209759
:102EB000E9F03097D9F0E088F18828813981808560
:102EC00091852817390779F4D8015096EC925097DC
:102ED0005196FC92E088F188C7010E94343B0A8039
:102EE000DB81C02DF8018F01F701E1CF1092CD0BEE
:102EF0001092CC0B1092CF0B1092CE0BC091C80B3E
:102F0000D091C90B209751F1CC80DD80EE80FF80FD
:102F10000E94BD0E088119812A813B81601B710BC3
:102F2000820B930B6C157D058E059F0598F00E9412
:102F3000BD0E688379838A839B83EA85FB853097FE
:102F400031F01995882319F0CE010E94BA16EC854C
:102F5000FD8519950888D989C02DD4CFDF91CF91EF
:102F60001F910F91FF90EF90DF90CF900895CF9336
:102F7000DF93EC0188819981009711F00E94343B26
:102F8000198218821D821C821B821A82DF91CF91C6
:102F90000895FC0180819181009711F00C94343BDD
:102FA0000895CF92DF92EF92FF920F931F93CF93EA
:102FB000DF93EC018B01FC01E05AFF4FC080D18010
:102FC000E280F38096012F73332783E0CC0CDD1C65
:102FD000EE1CFF1C8A95D1F7C90101962C0F3D1FED
:102FE00040E8F90140838933910578F040E450E0EE
:102FF000481B590B70E060E08C0F9D1F0E94B43C91
:10300000CE010E94AB1090E080E04CE350E0481B02
:10301000590B70E060E08C0F9D1F0E94B43CFCAE29
:10302000EDAEDEAECFAECE010E94AB10FE01E05C95
:10303000FF4F2081318142815381CC5BDF4F8A81F8
:103040009B81F8015083418332832383948385835A
:10305000DF91CF911F910F91FF90EF90DF90CF9074
:103060000895CF93DF93EC01A881B981EB01E8814A
:10307000F9811097F1F03097B1F4EC018C819D81CA
:10308000892BC9F08C9190E00BC0DB0114968D91D7
:103090009C91892B81F0808190E091958195910997
:1030A000DF91CF910895BF01CD01DF91CF910C94B5
:1030B000BB3C309751F790E080E0F2CF0F931F9325
:1030C000CF93DF93EC0188819981009759F02A8191
:1030D0003B812617370730F081E0DF91CF911F91B8
:1030E0000F9108958B016F5F7F4F0E94BD3B00974A
:1030F00059F0998388831B830A832C813D81232B7C
:1031000059F7FC011082E8CF80E0E7CFEF92FF9201
:103110000F931F93CF93DF93EC01FB01E080F180CD
:10312000E114F10411F10481158101151105A9F0D3
:103130008C819D81080F191FB801CE010E945E1875
:10314000882399F0288139818C819D81B701820F74
:10315000931F0E94C43C1D830C83CE01DF91CF914D
:103160001F910F91FF90EF900895CE010E94B71725
:10317000F4CFEF92FF920F931F93CF93DF93EC0165
:103180007B018A01BA010E945E1881110BC0CE0139
:103190000E94B717CE01DF91CF911F910F91FF9041
:1031A000EF9008951D830C83B701888199810E9457
:1031B000C43CF0CFFB0101900020E9F73197AF014B
:1031C000461B570B0C94B9180F931F93CF93DF93A3
:1031D000CDB7DEB762970FB6F894DEBF0FBECDBF96
:1031E0008C01CB01F80111821082138212821582A8
:1031F00014824AE0BE016F5F7F4F0E94C636BE0157
:103200006F5F7F4FC8010E94DA1862960FB6F8947C
:10321000DEBF0FBECDBFDF91CF911F910F910895FB
:103220000F931F93CF93DF93CDB7DEB7A1970FB660
:10323000F894DEBF0FBECDBF8C01CB01BA01F801FF
:103240001182108213821282158214822AE0AE014A
:103250004F5F5F4F0E94D136BE016F5F7F4FC80145
:103260000E94DA18A1960FB6F894DEBF0FBECDBF4C
:10327000DF91CF911F910F910895CF93DF93EC01D0
:10328000FB018617970749F060817181611571050F
:1032900041F0448155810E94B918CE01DF91CF9150
:1032A00008950E94B717F9CFFC0111821082138292
:1032B0001282158214820C943D19FC011182108235
:1032C0001382128215821482FB0101900020E9F71B
:1032D0003197AF01461B570B0C94B918AF92BF92B0
:1032E000CF92DF92EF92FF920F931F93CF93DF93D2
:1032F0006C015B017A0189012417350720F48F2DB9
:103300007901042F182F65EC74E0C6010E945D1945
:10331000D5011496CD91DC91EC16FD06E0F40C1766
:103320001D0708F4E801D501ED91FC911197EC0F10
:10333000FD1F108110826D917C916E0D7F1DC60165
:1033400061157105A1F00E94DA18F5018081918163
:10335000C80FD91F1883C601DF91CF911F910F911C
:10336000FF90EF90DF90CF90BF90AF9008950E94B4
:10337000B717EBCFCF93DF9300D000D0CDB7DEB738
:103380000E94E014853058F020EE37E0893250F486
:1033900020E038EF853130F020EE3FEF03C030E021
:1033A00020E080E0482F60910D0B80910E0B0E9471
:1033B0004E140E94BA146AE074E0CE0101960E9495
:1033C0005D1960910D0B70E06F5F7F4F80910E0B68
:1033D00090E02FEF3FEFAE014F5F5F4F06960E94E8
:1033E000FA0ACE0101960E94C91726960FB6F894E4
:1033F000DEBF0FBECDBFDF91CF9108950F931F9316
:10340000CF93DF9300D000D0CDB7DEB78C010E9400
:10341000BA146DE074E00115110539F069E174E04A
:103420000130110511F065E274E0CE0101960E94B1
:103430005D1925EE3FEAAE014F5F5F4F65E070E03A
:1034400085E090E00E94FA0ACE0101960E94C91719
:103450000E94941426960FB6F894DEBF0FBECDBF1F
:10346000DF91CF911F910F9108950F931F93CF93E9
:10347000DF93CDB7DEB72C970FB6F894DEBF0FBE43
:10348000CDBF8C0165EC74E0CE0107960E945D19FA
:103490000130110589F102301105B9F16AEC74E0CF
:1034A000CE0107960E94DA181092F90A00E018EF90
:1034B000BE01695F7F4FCE0101960E9454199801A9
:1034C000AE014F5F5F4F6CE270E085E090E00E94DC
:1034D000FA0ACE0101960E94C917CE0107960E94F2
:1034E000C9172C960FB6F894DEBF0FBECDBFDF9183
:1034F000CF911F910F91089561E374E0CE0107967B
:103500000E94DA1800EE17E0D3CF62E474E0CE0137
:1035100007960E94DA180FE110E0CACF20913C0212
:1035200030913D022817390741F090933D02809376
:103530003C020E94351A81E0089580E00895EF92E0
:10354000FF920F931F93CF93DF93CDB7DEB76297B0
:103550000FB6F894DEBF0FBECDBF8C017B01FC011E
:10356000248135818091A60F9091A70F28173907E4
:1035700041F462EA7FE0C8010E943118892B09F406
:1035800072C0B80182EA9FE00E943D19F0923B02AE
:10359000E0923A02B701CE0107960E94E41863E573
:1035A00074E0CE0101960E945D19BE01695F7F4FF4
:1035B000CE0101960E948618BC01CE010D960E9494
:1035C000541920E038EFAE01435F5F4F66E970E0C9
:1035D00090E080E00E94FA0ACE010D960E94C91781
:1035E000CE0101960E94C917CE0107960E94C91705
:1035F0000E94BA14F801848195814C9708F440C068
:103600002BE130E050E040E0B801CE0101960E948D
:103610006E1920E038EFAE014F5F5F4F6AEA70E04D
:1036200090E080E00E94FA0ACE0101960E94C9173C
:10363000F801248135814BE150E0B801CE010196BB
:103640000E946E1920E038EFAE014F5F5F4F62EBD2
:1036500070E090E080E00E94FA0ACE0101960E949C
:10366000C9170E94941462960FB6F894DEBF0FBE7D
:10367000CDBFDF91CF911F910F91FF90EF900895F3
:10368000B801CE0101960E94541920E038EFAE0136
:103690004F5F5F4F6AEA70E0DCCF0F931F93CF93C9
:1036A000DF93CDB7DEB762970FB6F894DEBF0FBEDB
:1036B000CDBF8C012091AC0F3091AD0FFC01848106
:1036C00095812817390741F4B80188EA9FE00E94E4
:1036D0003118892B09F45CC0B80188EA9FE00E9488
:1036E0003D190E943D140E94BA14F801848195810D
:1036F000489708F458C026E130E050E040E0B801B7
:10370000CE0107960E946E196CE574E0CE01019619
:103710000E945D19BE01695F7F4FCE0101960E9434
:103720008618BC01CE010D960E94541920EE3FEF81
:10373000AE01435F5F4F68EC70E090E080E00E9474
:10374000FA0ACE010D960E94C917CE0101960E9479
:10375000C917CE0107960E94C917F8012481358147
:1037600046E150E0B801CE0101960E946E1920EEAC
:103770003FEFAE014F5F5F4F60ED70E090E080E0A3
:103780000E94FA0ACE0101960E94C9170E94941461
:1037900062960FB6F894DEBF0FBECDBFDF91CF911A
:1037A0001F910F9108956CE574E0CE0101960E947F
:1037B0005D19B801CE0101960E948618BC01CE01A8
:1037C00007960E94541920EE3FEFAE01495F5F4F0C
:1037D00068EC70E090E080E00E94FA0ACE01079663
:1037E0000E94C917CE0101960E94C917CFCF0F932F
:1037F0001F93CF93DF9300D000D0CDB7DEB71091E9
:10380000F90A20EE37E0193230F420EE3FEF1F3195
:1038100010F420E038EF412F60910F0B8091100BD6
:103820000E944E140E94BA1462E674E0CE01019622
:103830000E945D1960910F0B70E06F5F7F4F809168
:10384000100B90E02FEF3FEFAE014F5F5F4F0296FE
:103850000E94FA0ACE0101960E94C917115001E098
:103860001E3108F000E0809108061E31E8F4811155
:103870000EC066E674E0CE0101960E945D19CE018D
:1038800001960E944D1BCE0101960E94C91700931C
:10389000080626960FB6F894DEBF0FBECDBFDF91A7
:1038A000CF911F910F910895882389F30E943D14B1
:1038B000EECFCF92DF92EF92FF920F931F93CF93B1
:1038C000DF93CDB7DEB768970FB6F894DEBF0FBEB3
:1038D000CDBF0E94BA141091110BE0903C02F09001
:1038E0003D028091320290913302112309F48DC080
:1038F000E114F10409F45AC0029751F164E874E04C
:10390000CE0101960E945D1920EE37E0AE014F5FB7
:103910005F4F63E770E085E090E00E94FA0ACE0115
:1039200001960E94C91766E974E0CE0101960E94D3
:103930005D1920EE37E0AE014F5F5F4F6BE770E03F
:1039400085E090E00E94FA0ACE0101960E94C91714
:1039500082E090E090933302809332020E949414AC
:10396000C090EE0AD090EF0AEF2809F480C011232E
:1039700009F47DC08091EB0A24E0E22EF12C88232B
:1039800009F477C08091EC0A9091ED0A88389F4F36
:103990004CF033E0E32EF12C88E8C8168FEFD80600
:1039A0000CF067C092E0E92EF12C63C0019751F151
:1039B00062EA74E0CE0101960E945D1920E038EFC2
:1039C000AE014F5F5F4F63E770E085E090E00E94DB
:1039D000FA0ACE0101960E94C91764EB74E0CE0189
:1039E00001960E945D1920EE37E0AE014F5F5F4FF8
:1039F0006BE770E085E090E00E94FA0ACE01019644
:103A00000E94C91781E090E0A5CF892B09F4A6CFC9
:103A100066EC74E0CE0101960E945D1920E038EF5B
:103A2000AE014F5F5F4F63E770E085E090E00E947A
:103A3000FA0ACE0101960E94C91764EB74E0CE0128
:103A400001960E945D1920EE37E0AE014F5F5F4F97
:103A50006BE770E085E090E00E94FA0ACE010196E3
:103A60000E94C917109233021092320277CFF12CC4
:103A7000E12CF0920A06E0920906809130029091C2
:103A80003102E816F90689F0F701EE0FFF1FEC5836
:103A9000FD4F008111812DE230E04AEA50E069E1FA
:103AA00070E086E990E00E94A009F0923102E09275
:103AB000300280910D0690910E068C159D0509F43B
:103AC00056C0B601CE0143960E94E4180091EE0A5A
:103AD0001091EF0A0D392FEF120754F16DEB74E0DE
:103AE000CE0101960E945D19B801CE010D960E948B
:103AF000E418BE01635F7F4FCE0107960E94541900
:103B0000BE016F5F7F4FCE0107960E948618BC01F1
:103B1000CE0143960E943D19CE0107960E94C91717
:103B2000CE010D960E94C917CE0101960E94C917B9
:103B30008091110B882309F452C0BE016D5E7F4F46
:103B4000CE0101960E9454192FEF3FEFAE014F5F57
:103B50005F4F6AE570E087E390E00E94FA0ACE01C9
:103B600001960E94C917CE0143960E94C917009181
:103B7000F90A10E080910B0690910C0608171907BE
:103B800011F00E94F71B0E94E014E82EF12C8091A6
:103B9000340290913502E816F90611F00E94BA1924
:103BA0008091EE0A9091EF0A90930E0680930D0695
:103BB00010930C0600930B06F0923502E09234024B
:103BC00068960FB6F894DEBF0FBECDBFDF91CF91E0
:103BD0001F910F91FF90EF90DF90CF9008956FEBC2
:103BE00074E0CE0101960E945D19AECF4F925F92B4
:103BF0006F927F928F929F92AF92BF92CF92DF92FD
:103C0000EF92FF920F931F93CF93DF938C01EB0101
:103C100049015A01FC01E05AFF4F80819181A28144
:103C2000B3816C017D012FE3C222DD24EE24FF2449
:103C3000880D991DAA1DBB1D80839183A283B38328
:103C400081149104A104B10479F180E490E0A0E032
:103C5000B0E08C199D09AE09BF0924013501881512
:103C60009905AA05BB0510F42C013D01C8018C0D76
:103C70009D1DA201BE010E94AB3CC40CD51CE61CDC
:103C8000F71CC40DD51D84189508A608B70880E454
:103C9000C816D104E104F10499F6C8010E94AB10E2
:103CA000C12CD12C7601CCCFDF91CF911F910F91F8
:103CB000FF90EF90DF90CF90BF90AF909F908F904C
:103CC0007F906F905F904F900895AF92BF92DF9278
:103CD000EF92FF920F931F93CF93DF93EC018B0131
:103CE000FB01D3808281645F7F4F8E3F09F459C00E
:103CF000ED2CF12CFB01EE0DFF1DDE2C91E09E154D
:103D000038F49701215031099291992309F463C045
:103D10008883D982F80184818A8385818B83868117
:103D20008C8387818D8380858E8381858F83818538
:103D30009285A385988781859285A385A987A70108
:103D4000CE010A960E94AB3CFAE0EF0EF11CCE0DBC
:103D5000DF1DF801848199E0F92E80FF3AC08DE0E3
:103D6000F8019081988391819983A82EB12C8823A2
:103D700041F0B8016A5E7E4FA501CE0102960E9415
:103D8000AB3CC5018F0D911D03968D0D911DDF91EB
:103D9000CF911F910F91FF90EF90DF90BF90AF9068
:103DA00008958883D98286818A8387818B838085E1
:103DB0008C8381858D83438150E0CE0106960E94DD
:103DC000AB3CF801838190E00696C80FD91F25E02F
:103DD000F22E80E0C5CF790190CF3F924F925F9253
:103DE0006F927F928F929F92AF92BF92CF92DF920B
:103DF000EF92FF920F931F93CF93DF93CDB7DEB770
:103E0000C857D1090FB6F894DEBF0FBECDBF6C0105
:103E10003E2C80911B06582F527081FD1DC0E091F1
:103E20001D06F0911E06309731F080812DE0522E54
:103E300011E080FD02C0512C10E08DEFF60182836D
:103E40003C96E00FF11D8291811103C001500130B9
:103E5000D1F78AE0482E09C08EEFD60112968C93D6
:103E6000022F512C96E0492E10E0D60113960C93A8
:103E7000139717966C93179718964C9318971111E0
:103E80004CC014961C92D60115961C9215978091E1
:103E9000160616968C931697809116068F5F809360
:103EA000160612968C911297A6968FAFA697139628
:103EB0008C911397A7968FAFA79719968D919D9187
:103EC000AC91F60136812781552359F1A8963FAF71
:103ED000A897A9962FAFA997AA964FAFAA97AB9686
:103EE0008FAFAB97A42CB12C8FEF9FEF9A83898370
:103EF000CE018B599F4F7C014C018A0C9B1C9FEF7C
:103F0000E91AF90A8E149F0439F1BE016F5F7F4FE1
:103F1000D7018C910E946A10F2CF81E0F601848370
:103F2000B2CF5481A8965FAFA8975581A9965FAF8D
:103F3000A997AA963FAFAA97AB962FAFAB97AC962F
:103F40004FAFAC97AD968FAFAD97AE969FAFAE9794
:103F5000AF96AFAFAF97C6CF89819A81E9969FAFF1
:103F60008EAFE997F6016380712C7601FCE0EF0ECD
:103F7000F11C470181E0681A7108BE0169587F4F42
:103F80009FEF6916790631F0D4018D914D010E94A1
:103F90006A10F0CF832D0E946A10E8969FADE897D3
:103FA000E9968FADE997D6011396EC911397EE0D34
:103FB000FF2DF11D90831396EC911397EE0DFF2DBD
:103FC000F11D81839C9311968C931197112309F411
:103FD000F4C000911D0610911E060115110509F48B
:103FE000ECC0F801808180FFE8C013967C9081814D
:103FF0004601FAEE8F1AFEEF9F0AD4018C93F80166
:104000008281E0968FAFE0978381E1968FAFE19751
:104010008481E2968FAFE2978581E3968FAFE39735
:104020008681E4968FAFE4978781E5968FAFE59719
:104030008085E6968FAFE6978185E7968FAFE79705
:1040400086E0FE01E159FF4F119601900D928A958D
:10405000E1F7D80112962C91129713963C91139781
:1040600014964C91149715965C91159716966C9131
:10407000169717967C91179718968C911897199602
:104080009C91A1E00E945A3AF80122833383448331
:104090005583668377838087918787E696EEA9E0CC
:1040A000BAE625968CAF9DAFAEAFBFAF259785E83A
:1040B0009EEAA7E6BBEB29968CAF9DAFAEAFBFAF34
:1040C000299782E793EFAEE6BCE32D968CAF9DAFC8
:1040D000AEAFBFAF2D978AE395EFAFE4B5EA619637
:1040E0008CAF9DAFAEAFBFAF61978FE792E5AEE00B
:1040F000B1E565968CAF9DAFAEAFBFAF65978CE86D
:1041000098E6A5E0BBE969968CAF9DAFAEAFBFAFB7
:1041100069978BEA99EDA3E8BFE16D968CAF9DAFEF
:10412000AEAFBFAF6D9789E19DECA0EEBBE5A19668
:104130008CAF9DAFAEAFBFAFA197A5961CAE1DAE25
:104140001EAE1FAEA597B801665F7F4F20E230E03C
:1041500040E050E0CE0101960E94F61D242D30E093
:1041600050E040E0BE016B597F4FCE0101960E94A6
:10417000F61D272D30E050E040E0B701CE0101965A
:104180000E94F61DB701670D711D22E030E040E08E
:1041900050E0CE0101960E94F61D27E030E040E09D
:1041A00050E0B401CE0101960E94F61DB601635E97
:1041B0007E4FCE0101960E94D117D60113968C91A5
:1041C0008A0D9B2D911D0296850D911DC858DF4FBC
:1041D0000FB6F894DEBF0FBECDBFDF91CF911F9118
:1041E0000F91FF90EF90DF90CF90BF90AF909F9096
:1041F0008F907F906F905F904F903F900895CF92F7
:10420000DF92EF92FF920F93811161C080E090E006
:10421000A0E0B0E48093E20E9093E30EA093E40E4E
:10422000B093E50EC090E60ED090E70EE090E80E59
:10423000F090E90E2091E10E6091DF0E7091E00E9A
:104240003091DE0E4091DD0EE091440FF091450F6C
:1042500084879587A687B787C08AD18AE28AF38A3E
:10426000148A158A168A178A108E118E128E138E52
:10427000148E158E168E178E10A211A212A213A2E2
:1042800014A215A216A217A271A760A742A733A76E
:1042900024A78CE490E0A0E081879287A38788E937
:1042A000E82E01E221E241E062E0CF010E94ED1E32
:1042B0006091440F7091450F8091420F9091430F90
:1042C0000F91FF90EF90DF90CF900C94651E80E0EF
:1042D00090E0A0E8BFE39ECFCF92DF92EF92FF92F3
:1042E0000F931F93CF93C12CD12C7601882331F0EB
:1042F000C12CD12C90E8E92E9FE3F92EC092090F32
:10430000D0920A0FE0920B0FF0920C0F00E010E039
:104310009801662321F000E010E020E83FE30093DD
:104320000D0F10930E0F20930F0F3093100F80E09E
:1043300090E0DC01442321F080E090E0A0E8BFE3BE
:104340008093110F9093120FA093130FB093140F3B
:104350006091080F4091060F5091070F7091050F63
:10436000C091040FE091440FF091450FC486D586AB
:10437000E686F786008B118B228B338B848B958B93
:10438000A68BB78B108E118E128E138E148E158EF7
:10439000168E178E10A211A212A213A214A215A299
:1043A00016A217A251A740A7C2A773A764A78CE4BF
:1043B00090E0A0E081879287A38788E9E82E01E258
:1043C00021E241E062E0CF010E94ED1E6091440FC6
:1043D0007091450F8091420F9091430FCF911F91A3
:1043E0000F91FF90EF90DF90CF900C94651EEF92AD
:1043F0000F93CF93DF93BC01990F880B990B0E9409
:104400002437EDEDFEE063A374A385A396A322A158
:10441000A0A1B1A1378D468DC4E4DFE0E881F98128
:104420006487758786879787108A118A128A138A0C
:10443000148A158A168A178A108E118E128E138E80
:10444000148E158E168E178E10A211A212A213A210
:1044500014A215A216A217A2B1A7A0A742A733A71C
:1044600024A78CE490E0A0E081879287A38788E965
:10447000E82E01E221E241E062E0CF010E94ED1E60
:10448000688179818091420F9091430FDF91CF91A4
:104490000F91EF900C94651ECF92DF92EF92FF92F6
:1044A0000F93882309F461C080E090E0A0E0B0E4BD
:1044B00080931A0F90931B0FA0931C0FB0931D0FA6
:1044C000C0901A0FD0901B0FE0901C0FF0901D0FA2
:1044D0008091190F4091170F5091180F9091160F5E
:1044E0002091150FE091440FF091450FC486D586B9
:1044F000E686F786108A118A128A138A148A158A28
:10450000168A178A108E118E128E138E148E158EA7
:10451000168E178E10A211A212A213A214A215A217
:1045200016A217A251A740A722A793A784A78CE49D
:1045300090E0A0E081879287A38788E9E82E01E2D6
:1045400021E241E062E0CF010E94ED1E6091440F44
:104550007091450F8091420F9091430F0F91FF9002
:10456000EF90DF90CF900C94651E80E090E0A0E883
:10457000BFE39ECF2F923F924F925F926F927F92B6
:104580008F929F92AF92BF92CF92DF92EF92FF9263
:104590000F931F93CF93DF932091E30A3091E40AA6
:1045A0004091E50A5091E60A6091E70A7091E80AA5
:1045B0008091E90A9091EA0AA0E00E94783AA1F479
:1045C0000E94180EDC01CB016093E30A9093E40A89
:1045D000A093E50AB093E60A1092E70A1092E80A5F
:1045E0001092E90A1092EA0A0E94180E2B013C016F
:1045F0002091880B3091890B40918A0B50918B0B45
:1046000060918C0B70918D0B80918E0B90918F0B24
:10461000A090E30AB090E40AC090E50AD090E60AC0
:10462000E090E70AF090E80A0091E90A1091EA0A9E
:104630000E94663A120151016301E12CF12C00E065
:1046400010E00E94513A2093380F3093390F409375
:104650003A0F50933B0F60933C0F70933D0F809344
:104660003E0F90933F0FA091410FB091400F4090AB
:10467000300F5090310F6090320F7090330F809058
:10468000340F9090350FD091360FC091370FE091D5
:10469000440FF091450F4486558666867786808A5A
:1046A000918AD28BC38B248B358B468B578B608F33
:1046B000718F828F938FB48FA58F8FE690E0A0E0EB
:1046C00081879287A38786ECE82E02E122E141E010
:1046D00062E0CF010E94ED1E6091440F7091450F82
:1046E0008091420F9091430F0E94651EDF91CF9100
:1046F0001F910F91FF90EF90DF90CF90BF90AF9000
:104700009F908F907F906F905F904F903F902F90F1
:104710000C942210CF92DF92EF920F931F93CF93BE
:10472000DF93CFE0D6E01C8522E02C873091240F68
:104730005091220F7091210F0091200F84E4C82E18
:104740008FE0D82ED601ED91FC9140911F0F609122
:104750001E0F8091230F90E0B0E0A0E08487958742
:10476000A687B787008B718B528B338B248B118676
:104770001286138692E3E92E09E029E0CF010E9418
:10478000ED1E1C87F601608171818091420F90912E
:10479000430F0E94651EDF91CF911F910F91EF9003
:1047A000DF90CF900C9422102F923F924F925F9205
:1047B0006F927F928F929F92AF92BF92CF92DF9231
:1047C000EF92FF920F931F93CF93DF93CDB7DEB796
:1047D000C75AD1090FB6F894DEBF0FBECDBF80ED2A
:1047E0009BE00E94270F892B11F40C94D52C80EDAF
:1047F0009BE00E94050F8C01CD56DF4F8883C35983
:10480000D0401092120B2091150B3091160B2131D4
:10481000310508F03CC0F9018827EE5EFB4D8F4F53
:104820000C94BF392A242A24CA24E524FC24042514
:104830000E251825222544255E2576258E251C2645
:104840001C268826882681E090E09093160B8093A2
:10485000150BC5CF80911E0BCD56DF4F2881C35954
:10486000D0402D3F09F081C022E030E03093160B9C
:104870002093150B10925A06009359068E7F809351
:104880001E0B8FEF9FEF90935806809357068091F1
:10489000120B8130A9F420911A0B30911B0B9091CF
:1048A0005D069093180B2115310521F410921D0B14
:1048B00010921C0B2F5F3F4F30931B0B20931A0B52
:1048C00090915A069093910C2091150B3091160BF4
:1048D0003093FE0A2093FD0A9091170B9093FF0AE4
:1048E0009091180B9F5F9093000B20911A0B3091C1
:1048F0001B0B3093030B2093020B2091140B30E021
:104900003093050B2093040B90911E0B9093060B94
:104910001092140B823041F420916B0730916C0798
:1049200030938F0C20938E0C9EEF980F923008F0EE
:1049300046C481E08093140B1092120BCD56DF4FCA
:10494000F881C359D040FD3F09F07DCF82E090E06F
:104950009093160B8093150B10925A068FEF9FEFD2
:1049600090935806809357063ACFCD56DF4F388143
:10497000C359D0403E3F11F00C94D12C22E030E0DE
:104980003093160B2093150B10925A06009359067C
:10499000816075CF00935A061092170B602F87E540
:1049A00096E00E948B1080911E0B80FF07C0109232
:1049B0005B0610925C0685E090E002C083E090E028
:1049C0009093160B8093150B62CF00935B06C80182
:1049D0008E7F9927892B41F08091140B8F5F8093F4
:1049E000140B81E090E0ECCF602F87E596E00E9409
:1049F0008B1084E090E0E4CF00935C06602F87E5A5
:104A000096E00E948B10D7CF00935D06602F87E55C
:104A100096E00E948B1086E090E0D2CF00935E0675
:104A2000602F87E596E00E948B1087E090E0C8CF6A
:104A300000935F06602F87E596E00E948B1088E068
:104A400090E0BECFCD56DF4F4881C359D040842F70
:104A500090E0A0E08093600690936106A0936206C8
:104A6000602F87E596E00E948B1080911E0B80FFDF
:104A700008C080915A06882309F44DC08BE090E06D
:104A80009FCF89E090E09CCF809160069091610675
:104A9000A0916206CD56DF4F5881C359D040952B67
:104AA0008093600690936106A0936206602F87E56D
:104AB00096E00E948B108AE090E082CF80916006A1
:104AC00090916106A0916206CD56DF4FB881C3591F
:104AD000D040AB2B8093600690936106A093620652
:104AE000602F87E596E00E948B10C3CFE091170BF3
:104AF00081E08E0F8093170BF0E0ED59F94F0083A2
:104B0000602F87E596E00E948B109091170B8091A3
:104B10005A069813BCCE8CE090E052CF809160068C
:104B200090916106A0916206AC016A2F70E0E8E006
:104B30008E2E912CA12CB12CC12CD12C76012AE0E7
:104B4000D701C601880D991DAA1DBB1D0196A11D87
:104B5000B11DB695A79597958795289FF001299F38
:104B6000F00D1124E258FC4F408051806280738028
:104B7000441555056605770568F54C015D01E1E0D2
:104B80008E1A9108A108B108C814D904EA04FB04DC
:104B9000B8F28AE08C9DF0018D9DF00D1124E25851
:104BA000FC4F80819181A281B381481759076A0720
:104BB0007B07C1F4648187E596E00E948B108091A9
:104BC000570690915806992708171906A1F48DE009
:104BD00090E013C06C017D01441655066606770609
:104BE000C0F6D2CF8EE090E09093160B8093150B19
:104BF00000936B074CCE8EE090E09093160B809361
:104C0000150B00936B078091170B9AE09C9DF001A8
:104C10009D9DF00D1124E258FC4F4681841708F049
:104C200036CE50E090E0481B590B70E060E08D59A3
:104C3000994F0E94B43C2BCE2E303105B1F0F0914B
:104C40005806C456DF4FF883CC59D040C356DF4FC7
:104C50001882CD59D040C456DF4FE880F980CC5936
:104C6000D04081E00E151F0409F082E08093120B02
:104C700000936C0780915B0680FF17C08091120B38
:104C8000823051F480E190E09093160B8093150BE5
:104C90008DE080931F0BFBCD8FE090E09093160B7F
:104CA0008093150B1092120BF3CFE091200BF09133
:104CB000210B309749F002A4F3A5E02D3097A9F419
:104CC0008091120B823001F581E090E09093160BF9
:104CD0008093150B83E291E0E7E5F6E0AEE8BCE0F7
:104CE00001900D920197E1F7D2CD809160069091ED
:104CF0006106A0916206AC016A2F70E082E19BE040
:104D000019958111E1CFDCCF83E08093120BDCCFCA
:104D100080911F0BEDE0F0E0E81BF109E359F84F3B
:104D20000083815080931F0B81113BC68090200B24
:104D30009090210B81E08114910409F4D0C120905E
:104D4000220B3090230B07E616EE29E03AE6259673
:104D50000CAF1DAF2EAF3FAF259725E83EEA47E6E3
:104D60005BEB29962CAF3DAF4EAF5FAF299782E743
:104D700093EFAEE6BCE32D968CAF9DAFAEAFBFAF69
:104D80002D971AE3E12E15EFF12E0FE415EA619647
:104D9000ECAEFDAE0EAF1FAF61970FE712E52EE050
:104DA00031E565960CAF1DAF2EAF3FAF65972CE890
:104DB00038E645E05BE969962CAF3DAF4EAF5FAF9B
:104DC00069978BEA99EDA3E8BFE16D968CAF9DAF33
:104DD000AEAFBFAF6D9789E19DECA0EEBBE5A196AC
:104DE0008CAF9DAFAEAFBFAFA197A5961CAE1DAE69
:104DF0001EAE1FAEA59720E230E040E050E0B401C7
:104E0000665F7F4FCE0101960E94F61D2AE030E0DA
:104E100040E050E069E576E0CE0101960E94F61D83
:104E200020915A0630E050E040E063E676E0CE01A3
:104E300001960E94F61D22E030E040E050E06BE673
:104E400077E0CE0101960E94F61D27E030E040E0B9
:104E500050E06DE677E0CE0101960E94F61DBE019E
:104E60006B587F4FCE0101960E94D11746E050E06B
:104E700064E777E0CE018B589F4F0E949E3C892BC0
:104E800021F082E090E0D4018FC050906D07AE9683
:104E90001FAEAE97AF961FAEAF97E0961FAEE097EE
:104EA000E1961FAEE197E2961FAEE297E3961FAE42
:104EB000E397E4961FAEE497E5961FAEE59786E08C
:104EC000EEE6F7E0DE01A359BF4F01900D928A95FF
:104ED000E1F72114310411F1F10180819181E09118
:104EE0005E0620915F06D101712C612C8615970515
:104EF000C1F013963C911397E3130BC014963C91A9
:104F00001497231306C012963C911297531609F476
:104F1000F0C0FFEF6F1A7F0A1996E8CF83E090E0A8
:104F2000B2CF409718F084E090E0ADCFAE962FADB1
:104F3000AE97AF963FADAF97E0964FADE097E19655
:104F40005FADE197E2966FADE297E3967FADE397B1
:104F5000E4968FADE497E5969FADE59720583247EC
:104F6000444A5F4F6F4F7F4F8F4F9F4FD401129630
:104F7000AC9012971396BC9013971496CC901497FC
:104F80001596DC9015971696EC9016971796FC9050
:104F9000179718960C91189719961C9119970E94BB
:104FA0006F3AF0F485E090E09D969C938E939C97E9
:104FB000E091200BF091210B02A4F3A5E02D80E0FD
:104FC000309709F48CC08091600690916106A091A1
:104FD0006206AC016A2F70E082E19BE019957FC008
:104FE00089E0869DD001879DB00D1124A20DB31DCF
:104FF0001396EC93139780915F0614968C931497F5
:1050000012965C92C3010196F1019183808389E03D
:10501000869DD001879DB00D11241596A20DB31D5C
:1050200086E0EEE6F7E001900D928A95E1F7AE9604
:105030003FACAE97AF965FACAF97E0966FACE097A2
:10504000E1967FACE197E2964FACE297E3962FAC06
:10505000E397E496FFADE497E596EFADE597D401CD
:105060001296AC9012971396BC9013971496CC900E
:1050700014971596DC9015971696EC901697179640
:10508000FC90179718960C91189719961C911997E0
:10509000232D352DA301642D722D8F2F9E2F0E945D
:1050A0006F3AC1F0B8F012963C92129713965C9248
:1050B000139714966C92149715967C9215971696E2
:1050C0004C92169717962C9217971896FC93189750
:1050D0001996EC9381E090E0F40195A784A72091C4
:1050E000150B3091160B2031310509F063C082E0B9
:1050F0000CCEA6961FAEA697A7961FAEA797A8960A
:105100001FAEA897A9961FAEA997AA961FAEAA97F9
:10511000AB961FAEAB97AC961FAEAC97AD961FAEDD
:10512000AD9789E0869DF001879DF00D112435969D
:10513000E20DF31D86E0DE01AB59BF4F01900D92E9
:105140008A95E1F7AE962FADAE97AF963FADAF978C
:10515000E0964FADE097E1965FADE197E2966FADD7
:10516000E297E3967FADE397A696AFACA697A79696
:10517000BFACA797A896CFACA897A996DFACA99784
:10518000AA96EFACAA97AB96FFACAB97AC960FADD7
:10519000AC97AD961FADAD97E4968FADE497E596CD
:1051A0009FADE5970E946F3A11F008F030CF86E08E
:1051B00090E069CE882309F4A7CD81E0A6CD8823AD
:1051C00009F40DCB8091970C9091980CA091990CBB
:1051D0008D369105A10509F469C38F369105A105A6
:1051E00009F40BC1892B8A2B09F0F9CA9091950C0F
:1051F00080917F0C9813F3CA9091960C8091800C4B
:105200009813EDCA0E94BD0E609336027093370268
:1052100080933802909339028091A10C80938D0C79
:10522000C0909A0CD0909B0CE0909C0CF0909D0C40
:10523000C092810C80919F0C8093820CC092840C50
:10524000D092850CE092860CF092870CC601837098
:105250009927019790939B0B80939A0B0E94FE19BC
:105260009701860142E036952795179507954A954F
:10527000D1F703701127C801019790939D0B80937C
:105280009C0B65EC74E0CE018B599F4F0E945D1919
:105290000230110509F468C30330110509F46EC327
:1052A0000130110509F456C361EF74E0CE018B594A
:1052B0009F4F0E94DA180FEF1FEFBE016B597F4F0F
:1052C000CE0101960E9454199801AE014F5F5F4FC5
:1052D00061E470E086E490E00E94FA0ACE01019653
:1052E0000E94C917CE018B599F4F0E94C9174601D2
:1052F000570194E0B694A794979487949A95D1F720
:10530000D501C40183709927AA27BB270297A1055D
:10531000B10509F43DC382E090E00E948E1A03E0DB
:105320008022992411E0811A9108B401CE018B5991
:105330009F4F0E94E4186DE175E0CE018B589F4F9E
:105340000E945D19BE016B587F4FCE0183599F4F5C
:105350000E945419BE016B597F4FCE0183599F4F54
:105360000E948618BC01CE0101960E945419CE01FC
:1053700001960E944D1BCE0101960E94C917CE01D5
:1053800083599F4F0E94C917CE018B589F4F0E948F
:10539000C917CE018B599F4F0E94C91780913A02BD
:1053A00090913B0221E08216910409F0F4C288300A
:1053B000910509F4F0C26EE275E0CE0101960E94FB
:1053C0005D1968E070E0CE0101960E949F1ACE013F
:1053D00001960E94C9179092A50B8092A40B86E0BB
:1053E000F694E794D794C7948A95D1F734E63C15A0
:1053F00008F4F5C9C092F90AF2C980913A02909175
:105400003B02079711F40E942C1481E08093EB0A71
:10541000E0909A0CCD56DF4FE882C359D040F0900F
:105420009B0CC556DF4FF882CB59D04000919C0CA5
:10543000C256DF4F0883CE59D04010919D0CC15603
:10544000DF4F1883CF59D04020919E0CC056DF4FBC
:105450002883C05AD04030919F0CCF55DF4F3883FE
:10546000C15AD0404091A00CCE55DF4F4883C25A5C
:10547000D0405091A10CCD55DF4F5883C35AD04036
:10548000E0926D0CF0926E0C00936F0C1093700C08
:105490002093710C3093720C4093730C5093740CE6
:1054A0004090A20C5090A30C6090A40C7090A50C9E
:1054B0008090A60C9090A70C3090A80C2090A90C7E
:1054C0004092750C5092760C6092770C7092780C2A
:1054D0008092790C90927A0C30927B0C20927C0C0A
:1054E0000E94180ECC55DF4F688379838A839B8393
:1054F000C45AD0402091880B3091890B40918A0B7F
:1055000050918B0B60918C0B70918D0B80918E0B59
:1055100090918F0BA090E30AB090E40AC090E50A46
:10552000D090E60AE090E70AF090E80A0091E90AD4
:105530001091EA0A0E94663A520163017401032D38
:10554000122D0E94663ACC55DF4FE880F9800A811F
:105550001B81C45AD04057016801E12CF12C00E0B6
:1055600010E00E94513A01E00E94363ACD56DF4FDA
:10557000A880C359D040C556DF4FB880CB59D04022
:10558000C256DF4FC880CE59D040C156DF4FD880B9
:10559000CF59D040C056DF4FE880C05AD040CF55D9
:1055A000DF4FF880C15AD040CE55DF4F0881C25A34
:1055B000D040CD55DF4F1881C35AD0400E94513A98
:1055C000722E832E942E652E562E472E382E292E7F
:1055D0002093880B3093890B40938A0B50938B0B4D
:1055E00060938C0B70938D0B80938E0B90938F0B2D
:1055F0000E94180E7B018C0120E030E0A901CD56FD
:10560000DF4F6883C359D040CC56DF4FF882C4596E
:10561000D040CB56DF4F8883C559D040CA56DF4FA4
:105620001883C659D040C956DF4F2883C759D04088
:10563000C856DF4F3883C859D040C756DF4F48831C
:10564000C959D040C656DF4F5883CA59D0406093DD
:10565000E30AF092E40A8093E50A1093E60A1092B6
:10566000E70A1092E80A1092E90A1092EA0A0E94E8
:105670003D140E94180E9B01AC0160E070E080E0D8
:1056800090E0CD56DF4FA880C359D040CC56DF4FB5
:10569000B880C459D040CB56DF4FC880C559D040E0
:1056A000CA56DF4FD880C659D040E12CF12C00E01B
:1056B00010E00E94663AA72CB82CC92CD62CE52CF9
:1056C000F42C032D122D0E94513AE0E4AE2EF2E4A8
:1056D000BF2EAFE0CA2ED12CE12CF12C00E010E05F
:1056E0000E94D73979018A01BCE34B2E512C612CE1
:1056F000712CB901C801A30192010E947E394901B0
:105700005A01AB01BC01CE0189579F4F0E9410196D
:105710006CE275E0CE018F579F4F0E945D19C50165
:10572000B401625E7F4F8F4F9F4FA30192010E9491
:105730007E39AB01BC01CE0185589F4F0E941019E4
:105740006CE275E0CE018B589F4F0E945D19B70146
:10575000C80120E13EE040E050E00E947E39CA01ED
:10576000B9016B5F7F4F8F4F9F4F28E130E040E0E2
:1057700050E00E947E39AB01BC01CE0183599F4F9E
:105780000E94101967ED74E0CE0101960E945D1928
:10579000BE016F5F7F4FCE018B599F4F0E945419FE
:1057A000BE0163597F4FCE018B599F4F0E948618CF
:1057B000BE016B587F4F0E948618BE0165587F4F0F
:1057C0000E948618BE016F577F4F0E948618BE0147
:1057D00069577F4F0E948618BC01CE0183579F4FA7
:1057E0000E945419CE018B599F4F0E94C917CE01B8
:1057F00001960E94C917CE0183599F4F0E94C91775
:10580000CE018B589F4F0E94C917CE0185589F4FDC
:105810000E94C917CE018F579F4F0E94C917CE0112
:1058200089579F4F0E94C9170E943D14BE016357BC
:105830007F4FCE0101960E945419CE0101960E941D
:105840004D1BCE0101960E94C9172091880B309103
:10585000890B40918A0B50918B0B60918C0B70914E
:105860008D0B1AE0A12EB12CC12CE12CF12C00E003
:1058700010E080918E0B90918F0B0E94D73920936E
:10588000020030930300409304005093050060939E
:105890000600709307008093080090930900CE01E2
:1058A00083579F4F0E94C9170C94EF2300913A022F
:1058B00010913B020530110511F40E942C148091C7
:1058C0009E0C8093F00A80919F0C8093F10A809146
:1058D000A00C8093F20A8B3050F56EED74E0CE018F
:1058E00001960E945D1966E070E0CE0101960E946B
:1058F0009F1ACE0101960E94C9171091F10A112337
:10590000E1F081E08093110B8091F00A869588592F
:10591000990B9093EF0A8093EE0A812F8695885910
:10592000990B9093ED0A8093EC0A0C94EF230630C8
:10593000110519F70E942C14E0CF1092110B90E082
:1059400080E00E948E1A8823F9F290E080E00E94A5
:10595000351ADACF6CEF74E0CE018B599F4F0E945D
:10596000DA1800EE17E0A9CC67E075E0CE018B599C
:105970009F4F0E94DA1800EE1FEF9FCC62E175E0A6
:10598000CE018B599F4F0E94DA1800E018EF95CC9A
:1059900081E090E0C2CC089709F01DCD0E942C1444
:1059A0001ACD8091120B0C946024C955DF4F0FB6AD
:1059B000F894DEBF0FBECDBFDF91CF911F910F9145
:1059C000FF90EF90DF90CF90BF90AF909F908F901F
:1059D0007F906F905F904F903F902F9008951F920F
:1059E0000F920FB60F9211242F933F938F939F9393
:1059F000AF93BF938091C00B9091C10BA091C20B4C
:105A0000B091C30B3091BF0B23E0230F2D3758F516
:105A10000196A11DB11D2093BF0B8093C00B9093E5
:105A2000C10BA093C20BB093C30B8091C40B909198
:105A3000C50BA091C60BB091C70B0196A11DB11D5E
:105A40008093C40B9093C50BA093C60BB093C70B68
:105A5000BF91AF919F918F913F912F910F900FBE6A
:105A60000F901F90189526E8230F0296A11DB11DD7
:105A7000D2CF1F920F920FB60F9211240BB60F9236
:105A80002F933F934F935F936F937F938F939F9346
:105A9000AF93BF93EF93FF9380ED9BE00E943D0F88
:105AA000FF91EF91BF91AF919F918F917F916F91F6
:105AB0005F914F913F912F910F900BBE0F900FBEB2
:105AC0000F901F9018951F920F920FB60F921124EE
:105AD0000BB60F922F938F939F93EF93FF93E091C9
