:100000000C94B3100C94E4100C94E4100C94E410D1
:100010000C94E4100C94E4100C94E4100C94E41090
:100020000C94E4100C94E4100C94E4100C94E41080
:100030000C94E4100C94E4100C94E4100C94E41070
:100040000C94E4100C94E4100C94E4100C94E41060
:100050000C94E4100C94E4100C94E4100C943933D8
:100060000C94E4100C940D340C94E3330C94E410D1
:100070000C94E4100C94E4100C94E4100C94E41030
:100080000C94E4100C94E4100C94E4100C94E41020
:100090000C94E4100C94E4100C94E4100C94E41010
:1000A0000C94E4100C94E4100C94E4100C94E41000
:1000B0000C94E4100C94E4100C94E4100C94E410F0
:1000C0000C94E4100C94E4100C94E4100C94E410E0
:1000D0000C94E4100C94E4100C94AD330C94833322
:1000E0000C94E4100C94D9170C943A2C0C948515AC
:1000F0000C9402170C94A5160C947A160C94931574
:100100000C94CB160C94522D0C94A1150C94002C2D
:100110000C9443340C94BE2D0C9408240C94E416D7
:100120000C94B7160C94261E0C94442C0C94721646
:100130000C94603D0C941B2C0C949D160C94DA16B8
:100140000C9481150C94582C0C94C42C0C94B3274B
:100150000C9471150C947B150C94EA230C94F923E0
:100160000C94AC2C0C9489160C941F260C94322CF5
:100170000C94F8160C94E3170C9433180C946E1529
:100180000C9493160C946A150C94221E0C94EE1683
:100190000C9483180C9441180C948F150C942A1EFF
:1001A0000C949C150C94321E0C942E1E0C949715D6
:1001B0000C9410180C9462150C94942C0C947715D4
:1001C0000C947A2C0C94612B0C9489150C94D018F7
:1001D0000C944E2C0C947F160C9466150C941F18DE
:1001E0000C945C150C94A52A0C94AD160C94C116B5
:1001F0000C941E260C949D150C940C170608206078
:1002000004000000000000050000065F0600060074
:1002100007030007030600247E247E240500242B08
:100220006A1200060063130864630600364956200C
:1002300050040000070300000400003E41000004D9
:100240000000413E00000600083E1C3E0806000873
:10025000083E0808040000E06000000600080808E6
:100260000808040000606000000600201008040276
:1002700006003E5149453E050000427F4000060011
:100280006251494946060022494949360600181478
:10029000127F1006002F4949493106003C4A49495E
:1002A0003006000171090503060036494949360642
:1002B00000064949291E0400006C6C00000400007F
:1002C000EC6C0000050008142241000600242424E0
:1002D00024240600004122140806000201590906E0
:1002E00006003E415D551E06007E1111117E06007E
:1002F0007F4949493606003E4141412206007F417F
:1003000041413E06007F4949494106007F090909EC
:100310000106003E4149497A06007F0808087F052A
:100320000000417F41000600304040403F06007F12
:100330000814224106007F4040404006007F02042E
:10034000027F06007F0204087F06003E4141413ED5
:1003500006007F0909090606003E4151215E06009C
:100360007F0909196606002649494932060001013C
:100370007F010106003F4040403F06001F20402013
:100380001F06003F403C403F06006314081463060C
:100390000007087008070500714945430005000083
:1003A0007F41410006000204081020050000414181
:1003B0007F000600040201020406808080808080A5
:1003C000040000030700000600205454547806007F
:1003D0007F444444380600384444442806003844E6
:1003E00044447F060038545454080500087E090927
:1003F00000060018A4A4A47C05007F04047800056E
:100400000000007D400005004080847D0005007FE5
:1004100010284400050000007F400006007C0418FE
:10042000047805007C04047800060038444444380D
:100430000600FC44444438060038444444FC0600AA
:100440004478440408060008545454200500043E2F
:1004500044240005003C40207C0006001C20402075
:100460001C06003C6030603C05006C10106C000500
:10047000009CA0603C0005006454544C000500083A
:100480003E414100040000007700000600004141A9
:100490003E080500020102010006003C2623263C1E
:1004A0000B102060060000000000000000000000AB
:1004B0000000000000000000000000070000000035
:1004C00000007C00FF33FF337C00000000000000D0
:1004D000000008000000003C003C00000000003C60
:1004E000003C000000000000000B0002101E901FE6
:1004F000F0037E021E1E901FF0037E021E001000FD
:100500000900007804FC0CCC0CFF3FFF3FCC0CCC66
:100510000F8807000000000B00303838381C380EF8
:1005200000078003C001E038703838381C000A002A
:1005300000001FB83FFC31C621E2373E1E1C1C00E4
:1005400036002200000600000000000027003F00E7
:100550001F00000000000000000000000800000074
:1005600000F003FC0FFE1F073801200120000000EF
:100570000000000800000000012001200738FE1FD5
:10058000FC0FF003000000000000090000980CB808
:100590000EE003F80FF80FE003B80E980C0000000F
:1005A00000090000800180018001F00FF00F800140
:1005B0008001800100000000060000000000000033
:1005C000B800F800780000000000000000000009FA
:1005D0000000800180018001800180018001800194
:1005E000800100000000060000000000000038004C
:1005F000380038000000000000000000000B001868
:10060000001C000E00078003C001E00070003800ED
:100610001C000E000BF807FE1F061E03338331C3B8
:1006200030633033301E18FE1FF8070A0000000048
:100630000C300C300E30FF3FFF3F003000300030F8
:1006400000000B1C301E38073C033E03378333C3C6
:1006500031E33077303E301C300B0C0C0E1C073869
:10066000C330C330C330C330C330E7397E1F3C0EC4
:100670000BC003E003700338031C030E030703FFE2
:100680003FFF3F000300030B3F0C7F1C63386330C8
:100690006330633063306330E338C31F830F0BC0B4
:1006A0000FF01FF839DC30CE30C730C330C330C351
:1006B00039801F000F0B0300030003000330033CCD
:1006C000030FC303F3003F000F0003000B000FBC38
:1006D0001FFE39E730C330C330C330E730FE39BCCA
:1006E0001F000F0B3C007E00E730C330C330C3381F
:1006F000C31CC30EE707FE03FC0006000000000059
:1007000000701C701C701C00000000000000000045
:100710000006000000000000709C70FC707C00006F
:100720000000000000000000090000C000E001F02F
:100730000338071C0E0E1C07380330000000000AA7
:1007400000006006600660066006600660066006DF
:10075000600660060000090000033007380E1C1C0C
:100760000E3807F003E001C000000000000A1C0082
:100770001E00070003008337C337E30077003E0005
:100780001C0000000BF80FFE1F0718F333FB371B8C
:1007900036FB37FB370736FE03F8010A0038003F07
:1007A000E007FC061F061F06FC06E007003F0038B6
:1007B00000000AFF3FFF3FC330C330C330C330E700
:1007C00030FE39BC1F000F00000AF003FC0F0E1CA6
:1007D000073803300330033007380E1C0C0C0000C0
:1007E0000AFF3FFF3F033003300330033007380E6A
:1007F0001CFC0FF00300000AFF3FFF3FC330C33073
:10080000C330C330C330C3300330033000000AFFAD
:100810003FFF3FC300C300C300C300C300C30003C6
:1008200000030000000AF003FC0F0E1C0738033021
:10083000C330C330C330C73FC63F00000AFF3FFF8D
:100840003FC000C000C000C000C000C000FF3FFFAC
:100850003F0000080000000003300330FF3FFF3F6F
:10086000033003300000000000000A000E001E00EC
:100870003800300030003000300038FF1FFF070024
:10088000000AFF3FFF3FC000E001F00338071C0EE5
:100890000E1C0738033000000AFF3FFF3F00300006
:1008A0003000300030003000300030003000000AEE
:1008B000FF3FFF3F1E007800E001E00178001E00CE
:1008C000FF3FFF3F00000AFF3FFF3F0E003800F0F0
:1008D00000C0030007001CFF3FFF3F00000AF003B9
:1008E000FC0F0E1C07380330033007380E1CFC0FBA
:1008F000F00300000AFF3FFF3F8301830183018370
:10090000018301C701FE007C0000000AF003FC0F18
:100910000E1C073803300336073E0E1CFC3FF03335
:1009200000000AFF3FFF3F830183018303830783A6
:100930000FC71DFE387C3000000A3C0C7E1CE738D7
:10094000C330C330C330C330C7398E1F0C0F000013
:10095000090000030003000300FF3FFF3F03000303
:10096000000300000000000AFF07FF1F00380030EE
:100970000030003000300038FF1FFF0700000A077A
:10098000003F00F801C00F003E003EC00FF8013FDD
:1009900000070000000AFF3FFF3F001C0006800325
:1009A00080030006001CFF3FFF3F00000A03300FDA
:1009B0003C1C0E3003E001E00130031C0E0F3C0331
:1009C0003000000A03000F003C00F000C03FC03FB1
:1009D000F0003C000F00030000000A0330033C035A
:1009E0003E0333C331E33033301F300F3003300068
:1009F000000800000000FF3FFF3F033003300330DA
:100A000003300000000000000B0E001C00380070D6
:100A100000E000C00180030007000E001C00180861
:100A2000000000000330033003300330FF3FFF3F7E
:100A30000000000000000B6000700038001C000E79
:100A40000007000E001C003800700060000B00C0A2
:100A500000C000C000C000C000C000C000C000C096
:100A600000C000C00700000000000000003E007E43
:100A7000004E0000000000000000000A001C403E84
:100A8000603360336033603360336033E03FC03FD6
:100A900000000AFF3FFF3FC03060306030603060D0
:100AA00030E038C01F800F00000A800FC01FE03800
:100AB00060306030603060306030C0188008000006
:100AC0000A800FC01FE038603060306030E030C016
:100AD00030FF3FFF3F00000A800FC01FE03B603344
:100AE0006033603360336033C0138001000008C09E
:100AF00000C000FC3FFE3FC700C300C3000300006E
:100B000000000000000A8003C0C7E0CE60CC60CCCB
:100B100060CC60CC60E6E07FE03F000009FF3FFF73
:100B20003FC000600060006000E000C03F803F0008
:100B3000000000080000000000306030EC3FEC3F97
:100B4000003000300000000000000800000000003D
:100B50006000E000C060C0ECFFEC7F00000000001F
:100B600000090000FF3FFF3F00038007C00FE01CAB
:100B70006038003000000000080000000000300372
:100B800030FF3FFF3F003000300000000000000A4F
:100B9000E03FC03FE000E000C03FC03FE000E000B9
:100BA000C03F803F00000A0000E03FE03F6000607F
:100BB0000060006000E000C03F803F00000A800F3E
:100BC000C01FE0386030603060306030E038C01FF7
:100BD000800F00000AE0FFE0FF600C601860186002
:100BE000186018E01CC00F800700000A8007C00FC3
:100BF000E01C6018601860186018600CE0FFE0FFEF
:100C000000000A0000E03FE03FC0006000600060BC
:100C1000006000E000C000000008C011E033603355
:100C2000603360336033603F401E0000000000000E
:100C30000860006000FE1FFE3F60306030603000E2
:100C4000300000000000000AE00FE01F0038003014
:100C50000030003000300018E03FE03F00000A6044
:100C600000E0018007001E00380038001E8007E009
:100C700001600000000AE007E01F0038001CE00FE0
:100C8000E00F001C0038E01FE0070000096030E0C2
:100C900038C01D800F0007800FC01DE03860300095
:100CA0000000000900006000E08180E7007E001E77
:100CB0008007E001600000000000096030603860DB
:100CC0003C60366033E031E03060302030000000BE
:100CD000000900008000C001FC1F7E3F0770036018
:100CE0000360036000000000060000000000000038
:100CF00000FF3FFF3F00000000000000000000096F
:100D0000000003600360036007707E3FFC1FC001AA
:100D10008000000000000A100018000C0004000C05
:100D2000001800100018000C00040000000A000F5A
:100D3000800FC00C600C300C300C600CC00C800FAD
:100D4000000F0000FFFFFFFFFFFFFFFFFFFFFFFFA0
:100D5000FFFFFFFFFFFFFFFFFFFFFFFFFFFFFFFFA3
:100D6000FFFFFFFFFFFFFFFFFFFFFFFFFFFFFFFF93
:100D7000FFFFFFFFFFFFFFFFFFFFFFFFFFFFFFFF83
:100D8000FFFFFFFFFFFFFFFFFFFFFFFFFFFFFFFF73
:10111000FFFFFFFFFFFF00000FFFFFFFFFFFFFFFCD
:10112000FFFFFFFFFFFFFFFFFFFFFFE00000007F6B
:10113000FFFFFFFFFFFFFFFFFFFFFFFFFFFFFFFFBF
:10114000FE0000000007FFFFFFFFFFFFFFFFFFFFA4
:10115000FFFFFFFFFFFFF00000000000FFFFFFFFA9
:10116000FFFFFFFFFFFFFFFFFFFFFFFFC0000000CB
:1011700000003FFFFFFFFFFFFFFFFFFFFFFFFFFF3D
:10118000FFFE00000000000007FFFFFFFFFFFFFF62
:10119000FFFFFFFFFFFFFFF800000000000001FF5E
:1011A000FFFFFFFFFFFFFFFFFFFFFFFFFFE000006C
:1011B00000000000007FFFFFFFFFFFFFFFFFFFFFBA
:1011C000FFFFFFC0000000000000003FFFFFFFFF27
:1011D000FFFFFFFFFFFFFFFFFF0000000000000018
:1011E000000FFFFFFFFFFFFFFFFFFFFFFFFFFE00FE
:1011F0000000000000000007FFFFFFFFFFFFFFFFF0
:10120000FFFFFFFFF8000000000000000001FFFFEB
:10121000FFFFFFFFFFFFFFFFFFFFF00000000000E8
:1012200000000000FFFFFFFFFFFFFFFFFFFFFFFFCA
:10123000E00000000000000000007FFFFFFFFFFF54
:10124000FFFFFFFFFFFF8000000000000000000024
:101250001FFFFFFFFFFFFFFFFFFFFFFF000000007A
:101260000000000000000FFFFFFFFFFFFFFFFFFF78
:10127000FFFE0000000000000000000007FFFFFF6D
:10128000FFFFFFFFFFFFFFFC000000000000000069
:10129000000003FFFFFFFFFFFFFFFFFFFFF800005D
:1012A000000000000000000001FFFFFFFFFFFFFF44
:1012B000FFFFFFF00000000000000000000000FF42
:1012C000FFFFFFFFFFFFFFFFFFE000000000000047
:1012D00000000000007FFFFFFFFFFFFFFFFFFFC0D8
:1012E00000000000000000000000003FFFFFFFFFC3
:1012F000FFFFFFFFFF800000000000000000000073
:10130000001FFFFFFFFFFFFFFFFFFF0000000000C7
:10131000000000000000000FFFFFFFFFFFFFFFFFC6
:10132000FF0000000000000000000000000FFFFFB1
:10133000FFFFFFFFFFFFFE000000000000000000B5
:1013400000000007FFFFFFFFFFFFFFFFFC000000A2
:1013500000000000000000000003FFFFFFFFFFFF90
:10136000FFFFFC0000000000000000000000000182
:10137000FFFFFFFFFFFFFFFFF8000000000000007D
:10138000000000000001FFFFFFFFFFFFFFFFF00074
:10139000000000000000000000000000FFFFFFFF51
:1013A000FFFFFFFFF0000000000000000000000051
:1013B00000007FFFFFFFFFFFFFFFE00000000000D5
:1013C00000000000000000007FFFFFFFFFFFFFFFA5
:1013D000C0000000000000000000000000007FFFCF
:1013E000FFFFFFFFFFFFC0000FFFE0000000000055
:1013F000000000007FFFFFFFFFFFFFFF80007FFF77
:10140000FC0000000007FFFFFFFFFFFFFFFFFFFFE3
:10141000FFFF8001FFFFFF000000003FFFFFFFFF15
:10142000FFFFFFFFFFFFFFFF0003FFFFFFC0000004
:1014300000FFFFFFFFFFFFFFFFFFFFFFFFFF000FAA
:10144000FFFFFFE0000003FFFFFFFFFFFFFFFFFFC5
:10145000FFFFFFFE001FFFFFFFF8000007FFFFFF79
:10146000FFFFFFFFFFFFFFFFFFFE003FFFFFFFFC4F
:1014700000000FFFFFFFFFFFFFFFFFFFFFFFFFFE6B
:10148000007FFFFFFFFE00001FFFFFFFFFFFFFFFCA
:10149000FFFFFFFFFFFC00FFFFFFFFFF00001FFF3C
:1014A000FFFFFFFFFFFFFFFFFFFFFFFC01FFFFFF4D
:1014B000FFFF00003FFFFFFFFFFFFFFFFFFFFFFFFA
:1014C000FFFC01FFFC007FFF80003FFFF8000000F1
:1014D00007FFFFFFFFFFFFF803FFF0001FFFC00043
:1014E0003FFE0000000001FFFFFFFFFFFFF807FFC6
:1014F000E00007FFC0007FF80000000001FFFFFFD1
:10150000FFFFFFF807FFC00003FFE0007FF80000C7
:10151000000001FFFFFFFFFFFFF00FFF800001FF52
:10152000E0007FF00000000000FFFFFFFFFFFFF082
:101530000FFF000001FFF0007FF00000000000FF3F
:10154000FFFFFFFFFFF00FFE000000FFF0007FF045
:101550000000000000FFFFFFFFFFFFF01FFE000084
:10156000007FF0007FF00000000000FFFFFFFFFFA2
:10157000FFE01FFC0000007FF8007FF80000000083
:10158000007FFFFFFFFFFFE01FFC0000003FF800AF
:101590007FF800000000007FFFFFFFFFFFE01FFC5F
:1015A0000000003FF8007FFC00000000007FFFFF0C
:1015B000FFFFFFE01FF80000003FF8003FFF0000C2
:1015C0000000007FFFFFFFFFFFE03FF80000003F4B
:1015D000F8003FFFC0000000007FFFFFFFFFFFE0BB
:1015E0003FF80000001FF8001FFFF8000000007F18
:1015F000FFFFFFFFFFE03FF80000001FF8001FFFA4
:10160000FF000000007FFFFFFFFFFFC03FF800006A
:10161000001FF8000FFFFFE00000003FFFFFFFFF8B
:10162000FFC03FF80000001FF80007FFFFFE0000AA
:10163000003FFFFFFFFFFFC03FF80000003FF80042
:1016400003FFFFFFC000003FFFFFFFFFFFC03FF8A9
:101650000000003FF80001FFFFFFF800003FFFFF20
:10166000FFFFFFC03FF00000003FF800007FFFFFDA
:10167000FE00003FFFFFFFFFFFC03FF00000003F04
:10168000F800001FFFFFFF80003FFFFFFFFFFFC0CC
:101690003FF00000003FF8000007FFFFFFE0003FC1
:1016A000FFFFFFFFFFC03FF00000003FF800000019
:1016B000FFFFFFF0003FFFFFFFFFFFC03FF0000014
:1016C000003FF00000001FFFFFF8003FFFFFFFFF9B
:1016D000FFC07FF00000003FF000000003FFFFFCB0
:1016E000003FFFFFFFFFFFC07FF00000003FF00062
:1016F0000000007FFFFE003FFFFFFFFFFFE07FE0F5
:101700000000003FF0000000000FFFFF003FFFFF60
:10171000FFFFFFE07FE00000007FF000000000011D
:10172000FFFF007FFFFFFFFFFFE07FE00000007F83
:10173000F000000000007FFF807FFFFFFFFFFFE061
:101740007FE00000007FF000000000001FFF807FAE
:10175000FFFFFFFFFFE07FE00000007FE0000000F0
:10176000000007FF807FFFFFFFFFFFE07FE000003A
:10177000007FE0000000000003FFC07FFFFFFFFFCD
:10178000FFE0FFE00000007FE0000000000003FF3A
:10179000C07FFFFFFFFFFFF0FFE00000007FE000E1
:1017A0000000000001FFC0FFFFFFFFFFFFF0FFE0B0
:1017B000000000FFE0000000000001FFC0FFFFFF8D
:1017C000FFFFFFF0FFE0000000FFE000000000006E
:1017D00001FFC0FFFFFFFFFFFFF0FFE0000000FF81
:1017E000E0000000000001FFC0FFFFFFFFFFFFF06F
:1017F000FFC0000000FFE0000000000003FFC0FF8A
:10180000FFFFFFFFFFF8FFC0000000FFE000000047
:10181000000003FF81FFFFFFFFFFFFF8FFC0000094
:1018200000FFE000000000000FFF81FFFFFFFFFF4F
:10183000FFFCFFC0000000FFE000000000003FFFD1
:1018400081FFFFFFFFFFFFFDFFC0000000FFFFFF64
:10185000FFFFFFFFFFFF03FFFFFFFFFFFFFFFFC0D3
:10186000000000FFFFFFFFFFFFFFFFFF03FFFFFF81
:10187000FFFFFFFFFFC0000001FFFFFFFFFFFFFFB3
:10188000FFFE03FFFFFFFFFFFFFFFF80000001FFE0
:10189000FFFFFFFFFFFFFFFE07FFFFFFFFFFFFFF51
:1018A000FF80000001FFFFFFFFFFFFFFFFFC07FFBE
:1018B000FFFFFFFFFFFFFF80000001FFFFFFFFFFB3
:1018C000FFFFFFF80FFFFFFFFFFFFFFFFF8000009C
:1018D00001FFFFFFFFFFFFFFFFE00FFFFFFFFFFF25
:1018E000FFFFFF80000001FFFFFFFFFFFFFFFFC0C2
:1018F0001FFFFFFFFFFFFFFFFF80000001FFFFFF53
:10190000FFFFFFFFFF001FFFFFFFFFFFFFFFFF8045
:10191000000001FFFFFFFFFFFFFFC0003FFFFFFFD1
:10192000FFFFFFFFFF80000000000000000000003C
:1019300000003FFFFFFFFFFFFFFFFF8000000000F0
:1019400000000000000000007FFFFFFFFFFFFFFF1F
:10195000FF000000000000000000000000007FFF0A
:10196000FFFFFFFFFFFFFF0000000000000000007E
:1019700000000000FFFFFFFFFFFFFFFFFF00000070
:1019800000000000000000000000FFFFFFFFFFFF5D
:10199000FFFFFF0000000000000000000000000149
:1019A000FFFFFFFFFFFFFFFFFF0000000000000040
:1019B000000000000003FFFFFFFFFFFFFFFFFF002D
:1019C000000000000000000000000007FFFFFFFF14
:1019D000FFFFFFFFFF00000000000000000000000C
:1019E0000007FFFFFFFFFFFFFFFFFF0000000000F9
:1019F000000000000000000FFFFFFFFFFFFFFFFFE0
:101A0000FF8000000000000000000000001FFFFF3A
:101A1000FFFFFFFFFFFFFFC000000000000000000D
:101A20000000003FFFFFFFFFFFFFFFFFFFE00000A0
:101A30000000000000000000007FFFFFFFFFFFFF2D
:101A4000FFFFFFE000000000000000000000007F3A
:101A5000FFFFFFFFFFFFFFFFFFF00000000000009F
:101A60000000000000FFFFFFFFFFFFFFFFFFFFFC84
:101A70000000000000000000000001FFFFFFFFFF6A
:101A8000FFFFFFFFFFFE000000000000000000005D
:101A900003FFFFFFFFFFFFFFFFFFFFFF000000004E
:101AA00000000000000007FFFFFFFFFFFFFFFFFF38
:101AB000FFFF800000000000000000001FFFFFFF8C
:101AC000FFFFFFFFFFFFFFFFC0000000000000005E
:101AD00000003FFFFFFFFFFFFFFFFFFFFFFFE000F2
:101AE00000000000000000007FFFFFFFFFFFFFFF7E
:101AF000FFFFFFFFF8000000000000000000FFFFF4
:101B0000FFFFFFFFFFFFFFFFFFFFFC0000000000E3
:101B100000000003FFFFFFFFFFFFFFFFFFFFFFFFCE
:101B2000FE000000000000000007FFFFFFFFFFFFB6
:101B3000FFFFFFFFFFFFFF80000000000000001F0D
:101B4000FFFFFFFFFFFFFFFFFFFFFFFFFFE00000C2
:101B500000000000007FFFFFFFFFFFFFFFFFFFFF10
:101B6000FFFFFFF000000000000000FFFFFFFFFF8D
:101B7000FFFFFFFFFFFFFFFFFFFE00000000000070
:101B800003FFFFFFFFFFFFFFFFFFFFFFFFFFFFFF61
:101B90008000000000001FFFFFFFFFFFFFFFFFFFAF
:101BA000FFFFFFFFFFFFE000000000007FFFFFFFDF
:101BB000FFFFFFFFFFFFFFFFFFFFFFFFFC00000035
:101BC0000003FFFFFFFFFFFFFFFFFFFFFFFFFFFF20
:101BD000FFFFFF800000001FFFFFFFFFFFFFFFFF71
:101BE000FFFFFFFFFFFFFFFFFFFC000001FFFFFF04
:101BF000FFFFFFFFFFFFFFFFFFFFFFFFFFFFFFFFF5
:101C0000F000FFFFFFFFFFFFFFFFFFFFFFFFFFFFF2
:101C1000FFFFFFFFFFFFFFFFFFFFFFFFFFFFFFFFD4
:101C2000FFFFFFFFFFFFFFFFFFFFFFFFFFFFFFFFC4
:101C3000FFFFFFFFFFFFFFFFFFFFFFFFFFFFFFFFB4
:101C4000FFFFFFFFFFFFFFFFFFFFFFFFFFFFFFFFA4
:10204000FFFF00002100240027002A002D0030009F
:10205000330001010000040107010A010000220011
:10206000250028002B002E00310034000201000062
:10207000050108010B0100002000230026002900B3
:102080002C002F00320000010000030106010901AD
:1020900005050505070508080808020202020A0AE4
:1020A0000808040404040101010101010101030302
:1020B000030303030303040707070C0C0C0C0C0CAD
:1020C0000C0C0202020206060606060606060B0BAA
:1020D0000B0B0B0B0B0B01021020200808102040EB
:1020E00010204080020102010804020101020408DC
:1020F000102040808040201008040201800402016A
:1021000080402010080402010804020101020408B2
:1021100010204080010204081020408000000A0BBB
:1021200002090C0D0E080703040100000000000066
:10213000000000000000000000000000000000009F
:10214000000000000000000012111000000000005C
:10215000000000000000000000000000000000007F
:1021600000004334603D11241FBECFEFD1E2DEBF3B
:10217000CDBF00E00CBF2FE0A4E9B5E001C01D9287
:10218000A739B207E1F715E0A0E0B2E0ECE7F6E826
:1021900000E00BBF02C007900D92A439B107D9F738
:1021A00010E1C2EBD0E100E006C021970109802FC9
:1021B000FE010E943340C13BD10780E00807A9F728
:1021C0000E943C350C942C430C9400008091810FAC
:1021D0009091820FA091830FB091840F0197A10974
:1021E000B1098093810F9093820FA093830FB093D6
:1021F000840F892B8A2B8B2B49F4E0913F0FF091B0
:10220000400F80819091430F892B80830895AC010A
:10221000E0913B0FF0913C0F80819091440F892B0E
:102220008083E0913F0FF091400F80819091430FA8
:102230009095982390838091350F20E130E060E005
:1022400070E887FF12C05EBD0DB407FEFDCF4EBD26
:102250000DB407FEFDCFE0913F0FF091400F80815C
:102260009091430F892B80830895E091370FF0916F
:10227000380F9091410FDA01A623B7238081AB2B51
:10228000D9F0982B9083E091390FF0913A0F80812B
:102290009091420F892B8083E091390FF0913A0F92
:1022A00080819091420F90959823908376956795C1
:1022B00021503109D1F6CFCF90959823E3CF9C01DF
:1022C000E0913B0FF0913C0F80819091440F9095ED
:1022D00098239083E0913F0FF091400F808190917F
:1022E000430F9095982390838091350F40E150E003
:1022F00060E070E887FF12C01EBC0DB407FEFDCF82
:102300002EBD0DB407FEFDCFE0913F0FF091400FC1
:1023100080819091430F892B80830895E091370F3E
:10232000F091380F9091410FD901A623B7238081F6
:10233000AB2BD9F0982B9083E091390FF0913A0FA5
:1023400080819091420F892B8083E091390FF09129
:102350003A0F80819091420F9095982390837695C3
:10236000679541505109D1F6CFCF90959823E3CF8F
:10237000CF93DF93EB010E945F11CE01DF91CF91EC
:102380000C9407118091810F9091820FA091830F7F
:10239000B091840FAC01BD014F5F5F4F6F4F7F4F16
:1023A0004093810F5093820F6093830F7093840F3B
:1023B000892B8A2B8B2B91F48091350F87FF04C0DA
:1023C00080E58CBD81E08DBDE0913F0FF091400F25
:1023D00090818091430F8095892380830895DC014B
:1023E000FB018091450F8230B9F0833069F1813073
:1023F00051F580912D0F90912E0F01972081318101
:10240000821B930B918380832D913C9111978D9327
:102410009C9331832083089580912B0F90912C0FF2
:1024200001972D913C911197821B930B8D939C9357
:1024300080912D0F90912E0F019720813181821B69
:10244000930B91838083089580912B0F90912C0F93
:1024500001972D913C911197821B930B11969C93A0
:102460008E93208131812D933C93EBCF0F931F935B
:10247000CF93DF9300D01F92CDB7DEB79A838983C5
:102480007C836B8320912B0F30912C0F8217930745
:1024900020F520912D0F30912E0F62177307E8F46D
:1024A0008A01BE016D5F7F4FCE0101960E94EF1140
:1024B0000E94C21169817A8180E290E00E94B81185
:1024C0006B817C8181E290E00E94B811B80182E2C8
:1024D00090E00E94B8110E94E6100F900F900F90AC
:1024E0000F90DF91CF911F910F9108950F931F933C
:1024F000CF93DF9300D000D01F921F92CDB7DEB7ED
:102500007C836B835E834D8338872F8320912B0FD1
:1025100030912C0F215031092817390708F4C901CF
:102520009A8389838D819E812817390708F4C90110
:102530009E838D8380912D0F90912E0F01972B817B
:102540003C818217930708F49C013C832B832F81E5
:1025500038858217930708F49C0138872F83BE01C2
:102560006D5F7F4FCE0101960E94EF11BE01695F42
:102570007F4FCE0105960E94EF112D813E8189810A
:102580009A812817390720F43A8329839E838D8303
:102590002F8138858B819C812817390720F43C8353
:1025A0002B8398878F830E94C211E091450FEE2301
:1025B00079F0E150FF0B23E0EE0FFF1F2A95E1F7C2
:1025C000E00FF11FEE0FFF1FE95BF04F008111815B
:1025D000B80183E0660F771F8A95E1F7706183E0A9
:1025E00090E00E94B8116D817E8186E390E00E94A8
:1025F000B81169817A8187E390E00E94B8116F81F8
:10260000788588E390E00E94B8116B817C8189E332
:1026100090E00E94B811159507950130110529F138
:10262000ACF46D817E81012B11F182E290E00E9479
:102630005F110E94E61028960FB6F894DEBF0FBE19
:10264000CDBFDF91CF911F910F91089502301105F9
:10265000C9F069817A810330110539F780E290E091
:102660000E94B8116B817C8108C069817A8180E207
:1026700090E00E94B8116F81788581E290E00E941D
:10268000B811D3CF6D817E81E9CF6FEA70E086E328
:1026900090E00E94B81170E060E087E390E00E9453
:1026A000B8116BED70E088E390E00E94B81170E023
:1026B00060E089E390E00C94B8118F929F92AF9202
:1026C000BF92CF92DF92EF92FF920F931F93CF931F
:1026D000DF935C014B01EA017901680107E010E03A
:1026E0000E9476120E94C2118FEFE81AF80AE818C9
:1026F000F9082196CA19DB09EC9E5001ED9EB00C39
:10270000FC9EB00C1124A114B10439F0C6010E9442
:10271000071181E0A81AB108F6CF0E94E610DF91F8
:10272000CF911F910F91FF90EF90DF90CF90BF90CE
:10273000AF909F908F900C9445132F923F924F92A1
:102740005F926F927F928F929F92AF92BF92CF9241
:10275000DF92EF92FF920F931F93CF93DF9300D0FE
:1027600000D000D01F921F92CDB7DEB75B015B8314
:102770004A83522E432E7C01712C272D30E0EA81B2
:10278000FB81848195812817390708F0D4C08081A6
:102790009181009709F4A5C0820F931FFC018081ED
:1027A000F0917B0FFA8720917F0FF29F9001112407
:1027B0002F5F3F4F082E000C990B40917D0F841B1B
:1027C0009109289F6001299FD00C389FD00C1124BB
:1027D0008091800F81110BC0E091790FF0917A0FF9
:1027E00096012C5F3F4FE20FF31F34913A8785E04B
:1027F000C80ED11C0E94C2119A85292E312CA70126
:102800004F5F5F4F420D531D80912B0F90912C0F06
:102810004817590708F067C020917C0F2150330BEF
:102820002A0D3B1D80912D0F90912E0F28173907EF
:1028300008F059C007E010E0B501C7010E94761208
:10284000E1E0E9831B868601612C2B852E0D3F2D4F
:10285000311D39872887802F8C1990917F0F891718
:1028600008F059C03A859B85E0E0391739F0E091CE
:10287000790FF0917A0FE00FF11FE4910F5F1F4F76
:10288000F8E08F9FC00111249C012A0D3B1D3D8360
:102890002C83912C812C8E2F90E09F838E838091AE
:1028A0007C0F6816C0F68E819F81082C02C095951A
:1028B00087950A94E2F781709927E981EE23D1F098
:1028C000892BA9F480912F0F9091300F0E9407114E
:1028D0006394FFEF8F1A9F0A28E082169104F9F69D
:1028E000BACF80E05DCF1982ADCF6801ACCF852D26
:1028F000942DECCF40912F0F5091300F892B11F078
:10290000452D542D6C817D81680D791D88859985B3
:102910000E943612DDCF3B853F5F3B878A85831758
:1029200020F70E94E6100E944513C1010196E80EAF
:10293000F91E739422CFC7012B960FB6F894DEBF11
:102940000FBECDBFDF91CF911F910F91FF90EF9000
:10295000DF90CF90BF90AF909F908F907F906F90BF
:102960005F904F903F902F9008952F923F924F92FB
:102970005F926F927F928F929F92AF92BF92CF920F
:10298000DF92EF92FF920F931F93CF93DF93EC01AF
:102990008B014A017901E61AF70AF7FE03C0F194A8
:1029A000E194F1086401CC1ADD0AD7FE03C0D1948A
:1029B000C194D108CE14DF0454F4982D892D490117
:1029C000292F382F9C2F8D2FE801092F182F8C16B7
:1029D0009D0650F4902F812F8901292F382F9C2F8D
:1029E0008D2FE401892E982E14012C1A3D0A2901FD
:1029F000401A510A57FE03C05194419451083101C5
:102A000037FE03C08FEF681A780A75946794AA247A
:102A1000AA94BA2C0217130718F4AA24A394B12C71
:102A20000E94C2118C169D06A8F04FEF5FEFBE0109
:102A3000C801CE14DF0414F0B801CE010E94361292
:102A40006418750877FE04C00A0D1B1D620C731C08
:102A50002196E8CFDF91CF911F910F91FF90EF90DA
:102A6000DF90CF90BF90AF909F908F907F906F90AE
:102A70005F904F903F902F900C94E61081508231E0
:102A800008F05AC0E82FF0E08827E65BFA4E8F4F37
:102A90000C9433406A156E155C15621566159C150D
:102AA000711577157B158115851589158F1593156A
:102AB0009C1597159D15A115809180008F778093A7
:102AC00080000895809180008F7DF9CF80918000F3
:102AD000877FF5CF84B58F7784BD089584B58F7DCA
:102AE000FBCF8091B0008F778093B00008958091E4
:102AF000B0008F7DF9CF809190008F778093900008
:102B00000895809190008F7DF9CF80919000877F0C
:102B1000F5CF8091A0008F778093A00008958091D9
:102B2000A0008F7DF9CF8091A000877FF5CF8091A5
:102B300020018F77809320010895809120018F7D5F
:102B4000F9CF80912001877FF5CFCF93DF93282F96
:102B500030E0F901E45EFE4D8491F901EA52FF4D47
:102B6000D491F901E057FF4DC491CC23A1F081111C
:102B70000E943E15EC2FF0E0EE0FFF1FEA58FF4DCC
:102B8000A591B491EC91ED2381E090E009F480E00F
:102B9000DF91CF91089580E090E0FACF1F93CF931B
:102BA000DF93282F30E0F901E45EFE4D8491F901B6
:102BB000EA52FF4DD491F901E057FF4DC491CC2367
:102BC000A9F0162F81110E943E15EC2FF0E0EE0FB8
:102BD000FF1FE45AFF4DA591B4918FB7F894EC9183
:102BE000111108C0D095DE23DC938FBFDF91CF9108
:102BF0001F910895DE2BF8CFCF93DF9390E0FC0177
:102C0000EA52FF4D249180579F4DFC018491882307
:102C1000D1F090E0880F991FFC01EE5BFF4DA5916C
:102C2000B491FC01E45AFF4DC591D49161110EC0DD
:102C30009FB7F8948C91E22FE0958E238C93288196
:102C4000E223E8839FBFDF91CF9108958FB7F89477
:102C5000EC91E22BEC938FBFF6CF1F93CF93DF93D2
:102C60008093780F1091360F112309F43FC0C09163
:102C7000460FD0E0811102C0D0E0C0E061E0812FBA
:102C80000E94FC15209739F460E0812FDF91CF91ED
:102C90001F910C94CE15CF3FD10511F461E0F5CF13
:102CA000E12FF0E0E45EFE4DE491E150E23108F006
:102CB000B3C0F0E08827E05AF94E8F4F0C943340B0
:102CC00072167A167F16891693160C179D16A5167E
:102CD000AD16B716C116CB16DA16E4160C17EE169B
:102CE000F816021784B5806884BDC7BDDF91CF9107
:102CF0001F91089584B5806284BDC8BDF7CF8091CF
:102D00008000806880938000D0938900C093880001
:102D1000EDCF80918000806280938000D0938B0003
:102D2000C0938A00E3CF8091800088608093800008
:102D3000D0938D00C0938C00D9CF8091B000806873
:102D40008093B000C093B300D1CF8091B000806277
:102D50008093B000C093B400C9CF80919000806888
:102D600080939000D0939900C0939800BFCF80913A
:102D70009000806280939000D0939B00C0939A0053
:102D8000B5CF80919000886080939000D0939D0093
:102D9000C0939C00ABCF8091A00080688093A0007E
:102DA0008091A0008F7B8093A000D093A900C09356
:102DB000A8009CCF8091A00080628093A000D09357
:102DC000AB00C093AA0092CF8091A000886080934E
:102DD000A000D093AD00C093AC0088CF80912001BB
:102DE000806880932001D0932901C09328017ECF71
:102DF00080912001806280932001D0932B01C093A9
:102E00002A0174CF80912001886080932001D093A3
:102E10002D01C0932C016ACFC038D1050CF03ECFF4
:102E200033CF90917B00977F90937B008653806493
:102E300080937C0080917A00806480937A008091F6
:102E40007A0086FDFCCF80917800909179000895FA
:102E50003FB7F8948091BF0A9091C00AA091C10A2F
:102E6000B091C20A26B5A89B05C02F3F19F0019664
:102E7000A11DB11D3FBFBA2FA92F982F8827BC01D4
:102E8000CD01620F711D811D911D42E0660F771FFC
:102E9000881F991F4A95D1F708958F929F92AF92FC
:102EA000BF92CF92DF92EF92FF924B015C010E94A2
:102EB00028176B017C010E9428176C197D098E0967
:102EC0009F09683E734081059105A8F321E0821AAD
:102ED0009108A108B10888EEC80E83E0D81EE11C55
:102EE000F11C81149104A104B10429F7FF90EF9023
:102EF000DF90CF90BF90AF909F908F900895CF922A
:102F0000DF92EF92FF920F931F93CF93C091450FE3
:102F10001092450F80EBC82ED12CD0922C0FC0926E
:102F20002B0F9CEDE92EF12CF0922E0FE0922D0F3D
:102F300010E000E02BED30E04FEA50E070E060E0A0
:102F400090E080E00E945D13C370C093450FC130D4
:102F5000B9F0C330A9F0D0922C0FC0922B0FF09291
:102F60002E0FE0922D0F6AE070E080E090E0CF91AC
:102F70001F910F91FF90EF90DF90CF900C944D1721
:102F80008CED90E090932C0F80932B0F80EB90E0D2
:102F900090932E0F80932D0FE6CF2FB7F89460916A
:102FA000BB0A7091BC0A8091BD0A9091BE0A2FBFE6
:102FB000089581E02091B40A3091B50A12161306E3
:102FC0000CF480E00895AF92BF92CF92DF92EF921F
:102FD000FF920F931F93CF93DF936C017B018B01C3
:102FE000040F151FEB015E01AE18BF08C017D10713
:102FF00059F06991D601ED91FC910190F081E02D9D
:10300000C6011995892B79F7C501DF91CF911F91E1
:103010000F91FF90EF90DF90CF90BF90AF90089509
:10302000FC01538D448D252F30E0842F90E0821BCE
:10303000930B541710F0CF96089501970895FC0153
:10304000918D828D981761F0A28DAE0FBF2FB11DAB
:103050005D968C91928D9F5F9F73928F90E0089503
:103060008FEF9FEF0895FC01918D828D981731F0BD
:10307000828DE80FF11D858D90E008958FEF9FEF11
:103080000895FC01918D228D892F90E0805C9F4FE7
:10309000821B91098F739927089583E19BE00E9419
:1030A000411821E0892B09F420E0822F089580EB5C
:1030B0009BE00E94411821E0892B09F420E0822F37
:1030C0000895FC01A48DA80FB92FB11DA35ABF4FBD
:1030D0002C91848D90E001968F739927848FA68917
:1030E000B7892C93A089B1898C91837080648C936B
:1030F000938D848D981306C00288F389E02D80811A
:103100008F7D80830895EF92FF920F931F93CF934B
:10311000DF93EC0181E0888F9B8D8C8D98131AC012
:10312000E889F989808185FF15C09FB7F894EE89F9
:10313000FF896083E889F989808183708064808356
:103140009FBF81E090E0DF91CF911F910F91FF90A1
:10315000EF900895F62E0B8D10E00F5F1F4F0F7349
:103160001127E02E8C8D8E110CC00FB607FCFACF04
:10317000E889F989808185FFF5CFCE010E94611829
:10318000F1CFEB8DEC0FFD2FF11DE35AFF4FF082D5
:103190009FB7F8940B8FEA89FB8980818062CFCF3B
:1031A000CF93DF93EC01888D8823B9F0AA89BB897E
:1031B000E889F9898C9185FD03C0808186FD0DC069
:1031C0000FB607FCF7CF8C9185FFF2CF808185FF8A
:1031D000EDCFCE010E946118E9CFDF91CF91089524
:1031E00080E090E0892B29F00E94571881110E94FD
:1031F000000080E090E0892B49F080E090E0892B8E
:1032000029F00E94000081110E94000080E090E0FF
:10321000892B49F080E090E0892B29F00E94000082
:1032200081110E94000080E090E0892B29F00E942B
:103230004D1881110C94000008950F931F93CF93A4
:10324000DF938C01CBE8DDE0CE018B589D408017E9
:10325000910734F4699183E19BE00E948318F4CFD5
:10326000DF91CF911F910F9108950F931F930E94AB
:10327000CD170091040210910502209106023091B1
:103280000702601B710B820B930B21E061317742C7
:103290008105910508F420E0822F1F910F91089578
:1032A000FB019081892790E1899F90011124822759
:1032B00090E0382F2227AC0163E0440F551F6A9538
:1032C000E1F724273527418150E02427352774E092
:1032D000959587957A95E1F7822793279183808347
:1032E00008950F931F93CF93DF931F921F92CDB733
:1032F000DEB78C01862FF801208131813A83298342
:10330000BE016F5F7F4F0E94501989819A81F80139
:10331000918380830F900F90DF91CF911F910F9138
:1033200008952F923F924F925F926F927F928F9269
:103330009F92AF92BF92CF92DF92EF92FF920F9344
:103340001F93CF93DF93CDB7DEB7A4970FB6F89452
:10335000DEBF0FBECDBFFC019C01205C3F4F8C0146
:10336000D8016D917D918D919D91AD010E943B4061
:10337000D8016D937D938D939C9313978A01421787
:10338000530771F7DA018D909D90AD90BC908D82BE
:103390009E82AF82B886DF01AC5BBF4F8D909D905F
:1033A000AD90BC9013978D869E86AF86B88A149692
:1033B0000D911D912D913C911397098B1A8B2B8B9D
:1033C0003C8B14962D913D914D915C9113972F8FCD
:1033D00038A349A35AA314968D909D90AD90BC90AC
:1033E000139789829A82AB82BC8214960D911D91AB
:1033F0002D913C9113970D8B1E8B2F8B388F14962C
:103400002D913D914D915C911397298F3A8F4B8F60
:103410005C8F14968D909D90AD90BC9089869A8615
:10342000AB86BC860AE912E01E8F0D8F312C212C51
:10343000D10110E1211631040CF021C2AA0FBB1FEB
:10344000AA0FBB1FAE0FBF1FCD90DD90ED90FC907B
:10345000AD8DBE8D0D911D912D913D91BE8FAD8F86
:1034600049815A816B817C818AE1440F551F661F17
:10347000771F8A95D1F789809A80AB80BC8096E0CF
:10348000B694A794979487949A95D1F74829592987
:103490006A297B2949805A806B807C80A5E1440C95
:1034A000551C661C771CAA95D1F789819A81AB813E
:1034B000BC81072E7BE0B695A795979587957A9561
:1034C000D1F7702D84299529A629B729482759278E
:1034D0006A277B2749805A806B807C8089E17694BB
:1034E0006794579447948A95D1F789819A81AB81E3
:1034F000BC81689416F8880F991FAA1FBB1F1694E9
:10350000D1F784299529A629B7292A013B01482604
:1035100059266A267B2649815A816B817C81409598
:10352000509560957095898C9A8CAB8CBC8C482199
:1035300059216A217B2189819A81AB81BC818D8847
:103540009E88AF88B88C88219921AA21BB21842725
:103550009527A627B727B301A201480F591F6A1F55
:103560007B1F400F511F621F731FC40ED51EE61E26
:10357000F71E09851A852B853C850C0D1D1D2E1DFA
:103580003F1D8D809E80AF80B8848EE1880C991C91
:10359000AA1CBB1C8A95D1F74D805E806F80788411
:1035A00092E076946794579447949A95D1F784283B
:1035B0009528A628B7284D815E816F817885A3E183
:1035C000440F551F661F771FAA95D1F78D819E81E5
:1035D000AF81B885072E7DE0B695A795979587951D
:1035E0007A95D1F7702D842B952BA62BB72B882697
:1035F0009926AA26BB264D815E816F81788586E15A
:1036000076956795579547958A95D1F78D819E81D7
:10361000AF81B885072E7AE0880F991FAA1FBB1FBC
:103620007A95D1F7702D842B952BA62BB72BB5014E
:10363000A401482759276A277B278D849E84AF845D
:10364000B88889899A89AB89BC8988269926AA264F
:10365000BB268D819E81AF81B88588229922AA22BE
:10366000BB22CD84DE84EF84F88889899A89AB896E
:10367000BC89C822D922EA22FB22C824D924EA2400
:10368000FB24C40ED51EE61EF71E4F8C58A069A061
:103690007AA0400E511E621E731EC00ED11EE21E85
:1036A000F31E9FEF291A390A89889A88AB88BC884B
:1036B0008F8E98A2A9A2BAA2098D1A8D2B8D3C8D4E
:1036C00009871A872B873C8710E42116310409F0FB
:1036D000ADC0DF01A05CBF4F0D911D912D913C91BC
:1036E0001397C00ED11EE21EF31ECD92DD92ED9215
:1036F000FC92139714964D915D916D917C91139767
:103700008D809E80AF80B884480D591D6A1D7B1D39
:103710004D935D936D937C93139714964D915D91AA
:103720006D917C9113970D851E852F853889400FEB
:10373000511F621F731F4D935D936D937C9313977D
:1037400014964D915D916D917C91139789889A881B
:10375000AB88BC88480D591D6A1D7B1D4D935D9338
:103760006D937C93139714964D915D916D917C911F
:103770001397440E551E661E771E4D925D926D92F4
:103780007C92139714964D915D916D917C91139756
:1037900009811A812B813C81400F511F621F731FC9
:1037A0004D935D936D937C931397BF01685A7F4F40
:1037B000DB01CD90DD90ED90FC9013978D889E8875
:1037C000AF88B88CC80CD91CEA1CFB1CCD92DD92CA
:1037D000ED92FC921397E45AFF4F80819181A28170
:1037E000B381898C9A8CAB8CBC8C880D991DAA1DD9
:1037F000BB1D80839183A283B383A4960FB6F894F4
:10380000DEBF0FBECDBFDF91CF911F910F91FF9013
:10381000EF90DF90CF90BF90AF909F908F907F9070
:103820006F905F904F903F902F9008952D893E8923
:103830004F89588D298F3A8F4B8F5C8F89819A8160
:10384000AB81BC818D8B9E8BAF8BB88F49825A82A6
:103850006B827C828D849E84AF84B888898A9A8AA0
:10386000AB8ABC8A0D811E812F8138850D871E870A
:103870002F87388BCD82DE82EF82F886D9CD1297E2
:10388000AF70BB27AA0FBB1FAA0FBB1FAE0FBF1F76
:103890000D911D912D913C91D1011F97AF70BB27C8
:1038A000AA0FBB1FAA0FBB1FAE0FBF1F4D915D918B
:1038B0006D917C91C1018F709927880F991F880F96
:1038C000991FDF01A80FB91FBCA3ABA3D1011797A4
:1038D000AF70BB27AA0FBB1FAA0FBB1FAE0FBF1F26
:1038E000CD90DD90ED90FC90ABA1BCA18D909D9012
:1038F000AD90BC90C80CD91CEA1CFB1C48015901B6
:103900009FE0880C991CAA1CBB1C9A95D1F7D90181
:10391000C801072E71E1B695A795979587957A9579
:10392000D1F7702D882A992AAA2ABB2AD901C80161
:10393000072E7DE0880F991FAA1FBB1F7A95D1F72C
:10394000702D28013901032E33E176946794579442
:1039500047943A95D1F7302D84299529A629B7297E
:1039600088259925AA25BB250F2EFAE0369527959F
:1039700017950795FA95D1F7F02D80279127A22763
:10398000B327C80ED91EEA1EFB1E8A019B0187E0E1
:1039900036952795179507958A95D1F7DB01CA01CA
:1039A000072E79E1880F991FAA1FBB1F7A95D1F7BF
:1039B000702D082B192B2A2B3B2BDB01CA01072E5C
:1039C0007EE0880F991FAA1FBB1F7A95D1F7702D33
:1039D0002A013B01032E32E1769467945794479471
:1039E0003A95D1F7302D84299529A629B729802722
:1039F0009127A227B32723E076956795579547959A
:103A00002A95D1F784279527A627B727C80ED91E50
:103A1000EA1EFB1EABA1BCA1CD92DD92ED92FC9201
:103A2000139716CD0F931F9310E000E02DED30E0BB
:103A300040EB50E068EC70E090E080E00E945D13A5
:103A40001F910F910895E0EAF4E0F0937A0FE0936C
:103A5000790FE491E0937B0FE1EAF4E084918093A5
:103A60007C0FE2EAF4E0E491E0937D0FE3EAF4E016
:103A7000E491E0937E0F982F969596959695909366
:103A80007F0F1092800F877019F09F5F90937F0FC8
:103A90000895ECEFF1E0F0937A0FE093790FE49161
:103AA000E0937B0FEDEFF1E0849180937C0FEEEFDC
:103AB000F1E0E491E0937D0FEFEFF1E0E491E0932A
:103AC0007E0F982F96959695969590937F0F1092CE
:103AD000800F877019F09F5F90937F0F0895CF92AA
:103AE000DF92EF92FF92CF93DF93EC016A017B01AB
:103AF0008F819885A985BA858C199D09AE09BF0962
:103B0000B7FF03C080E090E0DC018F839887A9872E
:103B1000BA8788810E94A51529813A81892BE9F508
:103B20008F819885A985BA85892B8A2B8B2BA9F53E
:103B3000232B41F18B859C85AD85BE858C0D9D1D0C
:103B4000AE1DBF1D8B879C87AD87BE87843F91408C
:103B5000A105B105D8F083E090E09A83898384EFD2
:103B600091E0A0E0B0E08F839887A987BA87ED81C4
:103B7000FE81309759F0DF91CF91FF90EF90DF9069
:103B8000CF90199481E090E09A838983DF91CF915F
:103B9000FF90EF90DF90CF9008952130310569F4C8
:103BA00084EF91E0A0E0B0E08F839887A987BA877F
:103BB000EB81FC81309709F019951A8219821B86D6
:103BC0001C861D861E86E2CFCF92DF92EF92FF9277
:103BD000CF93DF93EC016A017B0188810E94A515D8
:103BE0009C0181E090E02115310511F090E080E02A
:103BF0009A8389838D819E81AF81B885232BC1F4FF
:103C00000097A105B105A1F4EB81FC81309709F083
:103C1000199584EF91E0A0E0B0E08D839E83AF839F
:103C2000B887DF91CF91FF90EF90DF90CF9008950C
:103C30008C199D09AE09BF09B7FFEFCF80E090E076
:103C4000DC01EBCF81E08093B20A089581E080939C
:103C5000B30A089581E08093B60A089581E08093C5
:103C6000B70A089581E08093B80A08954F925F9251
:103C70006F927F928F929F92AF92BF92CF92DF927C
:103C8000EF92FF920F931F93CF93DF938C01EB0181
:103C900049015A01FC01E05AFF4F80819181A281C4
:103CA000B3816C017D012FE3C222DD24EE24FF24C9
:103CB000880D991DAA1DBB1D80839183A283B383A8
:103CC00081149104A104B10479F180E490E0A0E0B2
:103CD000B0E08C199D09AE09BF0924013501881592
:103CE0009905AA05BB0510F42C013D01C8018C0DF6
:103CF0009D1DA201BE010E940C43C40CD51CE61CF4
:103D0000F71CC40DD51D84189508A608B70880E4D3
:103D1000C816D104E104F10499F6C8010E94911972
:103D2000C12CD12C7601CCCFDF91CF911F910F9177
:103D3000FF90EF90DF90CF90BF90AF909F908F90CB
:103D40007F906F905F904F900895AF92BF92DF92F7
:103D5000EF92FF920F931F93CF93DF93EC018B01B0
:103D6000FB01D3808281645F7F4F8E3F09F459C08D
:103D7000ED2CF12CFB01EE0DFF1DDE2C91E09E15CC
:103D800038F49701215031099291992309F463C0C5
:103D90008883D982F80184818A8385818B83868197
:103DA0008C8387818D8380858E8381858F838185B8
:103DB0009285A385988781859285A385A987A70188
:103DC000CE010A960E940C43FAE0EF0EF11CCE0DD4
:103DD000DF1DF801848199E0F92E80FF3AC08DE063
:103DE000F8019081988391819983A82EB12C882322
:103DF00041F0B8016A5E7E4FA501CE0102960E9495
:103E00000C43C5018F0D911D03968D0D911DDF9102
:103E1000CF911F910F91FF90EF90DF90BF90AF90E7
:103E200008958883D98286818A8387818B83808560
:103E30008C8381858D83438150E0CE0106960E945C
:103E40000C43F801838190E00696C80FD91F25E046
:103E5000F22E80E0C5CF790190CF8F929F92AF92E2
:103E6000BF92CF92DF92EF92FF920F931F93CF9367
:103E7000DF937C014A015B016901FC011995C09146
:103E8000C50AD091C60A82E190E02097E1F50E9430
:103E9000F940FC0110821182128213821482158271
:103EA0001682178213861286158614861786168642
:103EB000118A108A9093C60A8093C50A9093C40A07
:103EC0008093C30A11861086E091C50AF091C60A54
:103ED000F586E48610821182128213828482958292
:103EE000A682B782D386C28617870687DF91CF91D5
:103EF0001F910F91FF90EF90DF90CF90BF90AF9008
:103F00009F908F9008950E94F940FC0110821182C9
:103F100012821382148215821682178213861286E9
:103F20001586148617861686118A108A998B888BB7
:103F300088859985019691878087F093C60AE093DA
:103F4000C50AC2CF8091C30A9091C40A009751F06C
:103F5000FC01208931893093C40A2093C30A0E944E
:103F60009541F0CF8091C70A9091C80A009751F00F
:103F7000FC01228133813093C80A2093C70A0E9432
:103F80009541F0CF1092C40A1092C30A1092C60A4B
:103F90001092C50A1092CA0A1092C90A0895CF92C7
:103FA000DF92EF92FF920F931F93CF93DF93C09115
:103FB000C70AD091C80A209709F445C0E091C30A06
:103FC000F091C40A288139818085918528173907A5
:103FD00059F4808991899093C40A8093C30A0E94FE
:103FE00095410A80DB81C02D0091C30A1091C40A5B
:103FF000D8015096ED91FC912097E9F03097D9F0D7
:10400000E088F188288139818085918528173907D2
:1040100079F4D8015096EC9250975196FC92E08832
:10402000F188C7010E9495410A80DB81C02DF8010B
:104030008F01F701E1CF1092C80A1092C70A1092BF
:10404000CA0A1092C90AC091C30AD091C40A209723
:1040500009F457C0CC80DD80EE80FF800E94CD1730
:10406000088119812A813B81601B710B820B930BA4
:104070006C157D058E059F0578F10E94CD1768832C
:1040800079838A839B83EA85FB85309711F11995A3
:104090008823F9F0E090C90AF090CA0A08851985CA
:1040A00084E090E0E114F104D9F40E94F940FC01AD
:1040B000138212829093CA0A8093C90A9093C80A05
:1040C0008093C70A11830083EE85FF85309709F03E
:1040D0001995EC85FD8519950888D989C02DB7CF2C
:1040E0000E94F940DC0113961C921E921297F70170
:1040F000938382839093CA0A8093C90A0D931C9379
:10410000E3CFDF91CF911F910F91FF90EF90DF9060
:10411000CF900895CF93DF93EC0188819981009728
:1041200011F00E949541198218821D821C821B8207
:104130001A82DF91CF910895FC01808191810097CF
:1041400011F00C9495410895CF92DF92EF92FF9277
:104150000F931F93CF93DF93EC018B01FC01E05A87
:10416000FF4FC080D180E280F38096012F73332708
:1041700083E0CC0CDD1CEE1CFF1C8A95D1F7C90135
:1041800001962C0F3D1F40E8F901408389339105CA
:1041900078F040E450E0481B590B70E060E08C0F71
:1041A0009D1F0E941543CE010E94911990E080E06E
:1041B0004CE350E0481B590B70E060E08C0F9D1FF2
:1041C0000E941543FCAEEDAEDEAECFAECE010E9436
:1041D0009119FE01E05CFF4F2081318142815381C2
:1041E000CC5BDF4F8A819B81F8015083418332830E
:1041F000238394838583DF91CF911F910F91FF904B
:10420000EF90DF90CF9008953F924F925F926F9220
:104210007F928F929F92AF92BF92CF92DF92EF9256
:10422000FF920F931F93CF93DF93CDB7DEB7C8579D
:10423000D1090FB6F894DEBF0FBECDBF6C013E2C86
:104240008091D70A582F527081FD1DC0E091D90A84
:10425000F091DA0A309731F080812DE0522E11E092
:1042600080FD02C0512C10E08DEFF60182833C9658
:10427000E00FF11D8291811103C001500130D1F78F
:104280008AE0482E09C08EEFD60112968C93022F39
:10429000512C96E0492E10E0D60113960C931397FB
:1042A00017966C93179718964C93189711114CC04A
:1042B00014961C92D60115961C9215978091D20ADD
:1042C00016968C9316978091D20A8F5F8093D20AAC
:1042D00012968C911297A6968FAFA69713968C91F3
:1042E0001397A7968FAFA79719968D919D91AC9133
:1042F000F60136812781552359F1A8963FAFA8973B
:10430000A9962FAFA997AA964FAFAA97AB968FAF52
:10431000AB97A42CB12C8FEF9FEF9A838983CE01AA
:104320008B599F4F7C014C018A0C9B1C9FEFE91A13
:10433000F90A8E149F0439F1BE016F5F7F4FD701D8
:104340008C910E945019F2CF81E0F6018483B2CFA4
:104350005481A8965FAFA8975581A9965FAFA9979A
:10436000AA963FAFAA97AB962FAFAB97AC964FAF3D
:10437000AC97AD968FAFAD97AE969FAFAE97AF9619
:10438000AFAFAF97C6CF89819A81E9969FAF8EAFC5
:10439000E997F6016380712C7601FCE0EF0EF11CC9
:1043A000470181E0681A7108BE0169587F4F9FEF8D
:1043B0006916790631F0D4018D914D010E94501992
:1043C000F0CF832D0E945019E8969FADE897E996AB
:1043D0008FADE997D6011396EC911397EE0DFF2D53
:1043E000F11D90831396EC911397EE0DFF2DF11DA7
:1043F00081839C9311968C931197112309F4F4C037
:104400000091D90A1091DA0A0115110509F4ECC0DE
:10441000F801808180FFE8C013967C90818146017D
:10442000FAEE8F1AFEEF9F0AD4018C93F801828175
:10443000E0968FAFE0978381E1968FAFE19784811B
:10444000E2968FAFE2978581E3968FAFE3978681FF
:10445000E4968FAFE4978781E5968FAFE5978085E7
:10446000E6968FAFE6978185E7968FAFE79786E070
:10447000FE01E159FF4F119601900D928A95E1F7E7
:10448000D80112962C91129713963C91139714967B
:104490004C91149715965C91159716966C911697FA
:1044A00017967C91179718968C91189719969C914E
:1044B000A1E00E94C740F8012283338344835583DF
:1044C000668377838087918787E696EEA9E0BAE6D0
:1044D00025968CAF9DAFAEAFBFAF259785E89EEA1E
:1044E000A7E6BBEB29968CAF9DAFAEAFBFAF2997C8
:1044F00082E793EFAEE6BCE32D968CAF9DAFAEAFF7
:10450000BFAF2D978AE395EFAFE4B5EA61968CAF24
:104510009DAFAEAFBFAF61978FE792E5AEE0B1E57B
:1045200065968CAF9DAFAEAFBFAF65978CE898E650
:10453000A5E0BBE969968CAF9DAFAEAFBFAF699701
:104540008BEA99EDA3E8BFE16D968CAF9DAFAEAF5E
:10455000BFAF6D9789E19DECA0EEBBE5A1968CAF56
:104560009DAFAEAFBFAFA197A5961CAE1DAE1EAE60
:104570001FAEA597B801665F7F4F20E230E040E0B4
:1045800050E0CE0101960E94361E242D30E050E00E
:1045900040E0BE016B597F4FCE0101960E94361E4E
:1045A000272D30E050E040E0B701CE0101960E9497
:1045B000361EB701670D711D22E030E040E050E08B
:1045C000CE0101960E94361E27E030E040E050E028
:1045D000B401CE0101960E94361EB601635E7E4F85
:1045E000CE0101960E94A420D60113968C918A0DCB
:1045F0009B2D911D0296850D911DC858DF4F0FB65A
:10460000F894DEBF0FBECDBFDF91CF911F910F9108
:10461000FF90EF90DF90CF90BF90AF909F908F90E2
:104620007F906F905F904F903F9008958F929F92F0
:10463000AF92BF92CF92DF92EF92FF920F931F93B0
:10464000CF93DF93F62E142F682F70E090E080E078
:104650000E94C43D4B015C01C7EBDEE08BA29CA233
:10466000ADA2BEA26F2D70E090E080E00E94C43D3C
:104670006B017C01CFA2D8A6E9A6FAA6612F70E053
:1046800090E080E00E94C43D6BA77CA78DA79EA709
:104690002AA148A159A13F8DAE8DC9E2DFE0E88192
:1046A000F98184869586A686B786C08AD18AE28AF1
:1046B000F38A648B758B868B978B108E118E128E7E
:1046C000138E148E158E168E178E10A211A212A2A2
:1046D00013A214A215A216A217A251A740A7A2A71F
:1046E00033A724A78CE490E0A0E081879287A3877A
:1046F00088E9E82E01E221E241E062E0CF010E9478
:104700000421688179818091270F9091280FDF9192
:10471000CF911F910F91FF90EF90DF90CF90BF90BE
:10472000AF909F908F900C94A51EEF920F93CF9314
:10473000DF93682F70E090E080E00E94C43DE7EBDB
:10474000FEE065837683878390872481A281B3818D
:1047500031814081C9E2DFE0E881F98164877587B2
:1047600086879787108A118A128A138A148A158A73
:10477000168A178A108E118E128E138E148E158E35
:10478000168E178E10A211A212A213A214A215A2A5
:1047900016A217A2B1A7A0A742A733A724A78CE40B
:1047A00090E0A0E081879287A38788E9E82E01E264
:1047B00021E241E062E0CF010E9404216881798119
:1047C0008091270F9091280FDF91CF910F91EF905B
:1047D0000C94A51E80E00E9495230E941D198091D3
:1047E000B40A9091B50A01979093B50A8093B40AE0
:1047F000089581E00E9495230E941D198091B40ABA
:104800009091B50A01979093B50A8093B40A0895E0
:10481000CF92DF92EF920F931F93CF93DF93CBEC66
:10482000DAE01C8582E08C8727EB3EE099E2C92E16
:104830009FE0D92ED601ED91FC91D901D0964C91F3
:10484000D0979F966C911486158616861786108AC7
:10485000118A128A138A848B11861286138622E3A8
:10486000E22E09E029E0CF010E9404211C87F60115
:10487000608171818091270F9091280F0E94A51E61
:10488000DF91CF911F910F91EF90DF90CF900C941B
:104890001D19CF93DF93EC01A881B981EB01E88169
:1048A000F9811097F1F03097B1F4EC018C819D8182
:1048B000892BC9F08C9190E00BC0DB0114968D918F
:1048C0009C91892B81F0808190E09195819591094F
:1048D000DF91CF910895BF01CD01DF91CF910C946D
:1048E0001C43309751F790E080E0F2CF0F931F9375
:1048F000CF93DF93EC0188819981009759F02A8149
:104900003B812617370730F081E0DF91CF911F916F
:104910000F9108958B016F5F7F4F0E941E42009799
:1049200059F0998388831B830A832C813D81232B33
:1049300059F7FC011082E8CF80E0E7CFEF92FF92B9
:104940000F931F93CF93DF93EC01FB01E080F18085
:10495000E114F10411F10481158101151105A9F08B
:104960008C819D81080F191FB801CE010E94762409
:10497000882399F0288139818C819D81B701820F2C
:10498000931F0E9425431D830C83CE01DF91CF919D
:104990001F910F91FF90EF900895CE010E948A2001
:1049A000F4CFEF92FF920F931F93CF93DF93EC011D
:1049B0007B018A01BA010E94762481110BC0CE01CD
:1049C0000E948A20CE01DF91CF911F910F91FF901D
:1049D000EF9008951D830C83B701888199810E940F
:1049E0002543F0CFFB0101900020E9F73197AF019B
:1049F000461B570B0C94D1240F931F93CF93DF9337
:104A000000D000D000D0CDB7DEB78C01862FF801E2
:104A10001182108213821282158214824AE0BE0132
:104A20006F5F7F4F90E00E94953DBE016F5F7F4FAB
:104A3000C8010E94F22429960FB6F894DEBF0FBE7B
:104A4000CDBFDF91CF911F910F9108950F931F93C9
:104A5000CF93DF93CDB7DEB7A1970FB6F894DEBF43
:104A60000FBECDBF8C01CB01BA01F80111821082BB
:104A700013821282158214822AE0AE014F5F5F4FCB
:104A80000E94733DBE016F5F7F4FC8010E94F224F8
:104A9000A1960FB6F894DEBF0FBECDBFDF91CF91C8
:104AA0001F910F910895CF93DF93EC01FB018617BF
:104AB000970749F0608171816115710541F044816A
:104AC00055810E94D124CE01DF91CF9108950E949B
:104AD0008A20F9CFFC011182108213821282158282
:104AE00014820C945325FC011182108213821282CD
:104AF00015821482FB0101900020E9F73197AF0184
:104B0000461B570B0C94D124AF92BF92CF92DF92E9
:104B1000EF92FF920F931F93CF93DF936C015B0192
:104B20007A0189012417350720F48F2D7901042F8C
:104B3000182F61ED74E0C6010E947325D50114960B
:104B4000CD91DC91EC16FD06E0F40C171D0708F47E
:104B5000E801D501ED91FC911197EC0FFD1F10813B
:104B600010826D917C916E0D7F1DC60161157105DE
:104B7000A1F00E94F224F50180819181C80FD91F14
:104B80001883C601DF91CF911F910F91FF90EF9095
:104B9000DF90CF90BF90AF9008950E948A20EBCF16
:104BA0000F931F93CF93DF93CDB7DEB72C970FB63C
:104BB000F894DEBF0FBECDBF2091020230910302F8
:104BC0008217930781F18C0161ED74E0CE010796A5
:104BD0000E9473256AE174E00230110511F462E26B
:104BE00074E0CE0107960E94F224BE01695F7F4FF8
:104BF000CE0101960E946A252FEF3FEFAE014F5F75
:104C00005F4F63E770E087E390E00E949D13CE0161
:104C100001960E949C201093030200930202CE0191
:104C200007960E949C202C960FB6F894DEBF0FBE0C
:104C3000CDBFDF91CF911F910F91089508950895F1
:104C4000EF92FF920F931F93CF93DF93CDB7DEB711
:104C50002C970FB6F894DEBF0FBECDBF8C0161ED6F
:104C600074E0CE0107960E9473250F5F1F4F01303D
:104C7000110509F443C044F5012BB1F1BE01695F90
:104C80007F4FCE0101960E946A259701AE014F5FCA
:104C90005F4F61E470E086E490E00E949D13CE01D6
:104CA00001960E949C20CE0107960E949C202C9683
:104CB0000FB6F894DEBF0FBECDBFDF91CF911F912D
:104CC0000F91FF90EF9008950230110511F103301C
:104CD0001105A1F66BE474E0CE0107960E94F22460
:104CE000E12C88EFF82ECACF6AE274E0CE01079675
:104CF0000E94F224EE24EA94FE2CC0CF65E374E017
:104D0000CE0107960E94F22420EEE22E27E0F22E3A
:104D1000B5CF60E474E0CE0107960E94F22490EED5
:104D2000E92EFF24FA94AACF0F931F93CF93DF931A
:104D3000CDB7DEB72C970FB6F894DEBF0FBECDBF50
:104D40008C0161ED74E0CE0107960E94732501305D
:104D50001105E1F168F00230110509F440C068E77F
:104D600074E0CE0107960E94F22400E21DEF0AC013
:104D700066ED74E0CE0107960E94F2241092870A35
:104D800000E018EFBE01695F7F4FCE0101960E94DF
:104D90006A259801AE014F5F5F4F6CE270E085E0DD
:104DA00090E00E949D13CE0101960E949C20CE01AE
:104DB00007960E949C202C960FB6F894DEBF0FBE7B
:104DC000CDBFDF91CF911F910F91089566E574E0FB
:104DD000CE0107960E94F22400EE17E0D3CF67E6DB
:104DE00074E0CE0107960E94F2240FE110E0CACFD2
:104DF00020914202309143022817390741F09093E5
:104E00004302809342020E94942681E0089580E04C
:104E100008950F931F93CF93DF93CDB7DEB76297BB
:104E20000FB6F894DEBF0FBECDBF8C012091910F5D
:104E30003091920FFC01848195812817390741F444
:104E4000B8018DE89FE00E944924892B09F45CC0D9
:104E5000B8018DE89FE00E9453250E94121D0E9418
:104E6000491DF80184819581489708F458C026E1CE
:104E700030E050E040E0B801CE0107960E94842562
:104E800069E874E0CE0101960E947325BE01695F56
:104E90007F4FCE0101960E949E24BC01CE010D964B
:104EA0000E946A2520EE3FEFAE01435F5F4F68EC42
:104EB00070E090E080E00E949D13CE010D960E946C
:104EC0009C20CE0101960E949C20CE0107960E9454
:104ED0009C20F8012481358146E150E0B801CE01E3
:104EE00001960E94842520EE3FEFAE014F5F5F4F99
:104EF00060ED70E090E080E00E949D13CE0101968D
:104F00000E949C200E94231D62960FB6F894DEBF7B
:104F10000FBECDBFDF91CF911F910F91089569E82A
:104F200074E0CE0101960E947325B801CE0101966E
:104F30000E949E24BC01CE0107960E946A2520EEA5
:104F40003FEFAE01495F5F4F68EC70E090E080E0BA
:104F50000E949D13CE0107960E949C20CE010196CF
:104F60000E949C20CFCF2F923F924F925F926F92E0
:104F70007F928F929F92AF92BF92DF92EF92FF92B9
:104F80000F931F93CF93DF93CDB7DEB768970FB61C
:104F9000F894DEBF0FBECDBF0E94491D8091000274
:104FA0009091010220917D0A222309F4C9C1209128
:104FB000420230914302232B09F493C1029751F12D
:104FC0006FE874E0CE0101960E94732520EE37E071
:104FD000AE014F5F5F4F63E770E085E090E00E94B5
:104FE0009D13CE0101960E949C2061EA74E0CE01DF
:104FF00001960E94732520EE37E0AE014F5F5F4FB0
:105000006BE770E085E090E00E949D13CE01019671
:105010000E949C2082E090E0909301028093000225
:105020000E94231D60917C0A8091960590919705BE
:105030006817190609F453C0CE0143960E94FC2458
:1050400060917C0A85EF860F893508F0ABC1CE01EF
:1050500001960E94FC2464EE74E0CE010D960E943D
:105060007325BE01635F7F4FCE0107960E946A25BC
:10507000BE016F5F7F4FCE0107960E949E24BC0148
:10508000CE0143960E945325CE0107960E949C2094
:10509000CE010D960E949C20CE0101960E949C207C
:1050A00080917D0A882309F487C1BE016D5E7F4F20
:1050B000CE0101960E946A252FEF3FEFAE014F5FB0
:1050C0005F4F6AE570E087E390E00E949D13CE0198
:1050D00001960E949C20CE0143960E949C20D09075
:1050E000870A6D2D70E08091940590919505681761
:1050F000790709F4D0C08CE390EE892E97E0992EC1
:105100008D1550F08EE120EE822E99249A948D1503
:1051100018F0812C88EF982EA0909C0AB12C3501B4
:105120008AE0680E711CE0909D0AF12C072E000C9D
:10513000880B990B0E94C63D20E030E048EC52E419
:105140000E94503F9B01AC0160E070E080E89FE36B
:105150000E94E33E20E030E040E252E40E94253E1F
:105160001B012C01B7010F2C000C880B990B0E941E
:10517000C63D9B01AC01C201B1010E94E43E0E9408
:10518000C93F1B0110E000E09301AB01B501C7016D
:105190000E945D13A701485D5F4F84019301B50133
:1051A000C1010E945D138FEF8D0D893070F466EEA2
:1051B00074E0CE0101960E947325CE0101960E94F3
:1051C0000927CE0101960E949C200E94491D6D2D49
:1051D000CE0143960E94FC248091870A9FEF980F8E
:1051E000993008F0F0C064EE74E0CE0107960E949A
:1051F0007325BE01695F7F4FCE0101960E946A252B
:10520000BE016D5E7F4FCE0101960E949E24BC01BF
:10521000CE0143960E945325CE0101960E949C2008
:10522000CE0107960E949C2067E175E0CE010796AB
:105230000E947325BE016D5E7F4FCE010D960E94C8
:105240006A25BE01695F7F4FCE010D960E949E24A4
:10525000BC01CE0101960E946A2560919C0A70E013
:1052600080919D0A90E02FEF3FEFAE014F5F5F4FBF
:10527000C2960E949D13CE0101960E949C20CE01F1
:105280000D960E949C20CE0107960E949C20CE0184
:1052900043960E949C2080917C0A90E09093970511
:1052A000809396058091870A90E09093950580936E
:1052B000940568960FB6F894DEBF0FBECDBFDF91A0
:1052C000CF911F910F91FF90EF90DF90BF90AF9023
:1052D0009F908F907F906F905F904F903F902F9016
:1052E0000895019751F16DEA74E0CE0101960E9494
:1052F00073252FEF37E0AE014F5F5F4F63E770E03C
:1053000085E090E00E949D13CE0101960E949C20B2
:1053100060EC74E0CE0101960E94732520EE37E028
:10532000AE014F5F5F4F6BE770E085E090E00E9459
:105330009D13CE0101960E949C2081E090E06CCEEE
:10534000892B09F46DCE62ED74E0CE0101960E94C6
:10535000732520E23DEFAE014F5F5F4F63E770E0E2
:1053600085E090E00E949D13CE0101960E949C2052
:1053700060EC74E0CE0101960E94732520EE37E0C8
:10538000AE014F5F5F4F6BE770E085E090E00E94F9
:105390009D13CE0101960E949C2010920102109252
:1053A00000023ECE6A3008F07BCECE0101960E940C
:1053B000FC2463EE74E051CE6BEC74E0CE010196F8
:1053C0000E94732579CE81112FCF64E175E0CE0163
:1053D00043960E94F22428CFEF92FF920F931F93DF
:1053E000CF93DF93CDB7DEB76E970FB6F894DEBFDD
:1053F0000FBECDBF8C017B01FC01248135818091E2
:105400008B0F90918C0F2817390741F467E87FE0E4
:10541000C8010E944924892B09F47DC0B80187E89E
:105420009FE00E9453251C8A1B8A1E8A1D8A188EA3
:105430001F8A4AE0BE016F5F7F4FC7010E94683D2F
:10544000BE016F5F7F4FCE0143960E94F22469E157
:1054500075E0CE0101960E947325BE016D5E7F4FFF
:10546000CE0101960E949E24BC01CE0149960E9465
:105470006A2520E038EFAE01475E5F4F66E970E0D5
:1054800090E080E00E949D13CE0149960E949C20EE
:10549000CE0101960E949C20CE0143960E949C2042
:1054A0000E94491DF801848195814C9708F440C001
:1054B0002BE130E050E040E0B801CE0101960E94BF
:1054C000842520E038EFAE014F5F5F4F6AEA70E05D
:1054D00090E080E00E949D13CE0101960E949C20E6
:1054E000F801248135814BE150E0B801CE010196ED
:1054F0000E94842520E038EFAE014F5F5F4F62EBE2
:1055000070E090E080E00E949D13CE0101960E9421
:105510009C200E94231D6E960FB6F894DEBF0FBE2E
:10552000CDBFDF91CF911F910F91FF90EF90089524
:10553000B801CE0101960E946A2520E038EFAE0145
:105540004F5F5F4F6AEA70E0DCCF1F93CF93DF932A
:10555000CDB7DEB768970FB6F894DEBF0FBECDBFEC
:105560000E94121D10919A0A112329F18091B90A03
:10557000882389F165E375E0CE0143960E94732587
:1055800010E063E070E0CE0143960E94EC29CE016A
:1055900043960E949C20112361F0CE0107960E9441
:1055A0009C20CE0101960E949C20CE010D960E9467
:1055B0009C201092B90A1092B50A1092B40A109267
:1055C0009A0A68960FB6F894DEBF0FBECDBFDF9182
:1055D000CF911F91089562E275E0CE010D960E9471
:1055E000732562E375E0CE0101960E947325BE012A
:1055F0006F5F7F4FCE0107960E946A25BE01635FF1
:105600007F4FCE0107960E949E24BC01CE01439697
:105610000E946A25B6CF2F923F924F925F926F926F
:105620007F928F929F92AF92BF92CF92DF92EF9232
:10563000FF920F931F93CF93DF93CDB7DEB7C75A77
:10564000D1090FB6F894DEBF0FBECDBF83E19BE05A
:105650000E944118892B11F40C941F3383E19BE0C5
:105660000E941F188C01CD56DF4F8883C359D0404C
:105670001092980520919B0530919C0521313105B0
:1056800008F03CC0F9018827E75BF44D8F4F0C947C
:105690003340612B612B002C1B2C322C3A2C442CD8
:1056A0004E2C582C7A2C942CAC2CC42C522D522DD0
:1056B000BE2DBE2D81E090E090939C0580939B05CC
:1056C000C5CF8091A405CD56DF4F2881C359D04066
:1056D0002D3F09F081C022E030E030939C052093FB
:1056E0009B051092E3050093E2058E7F8093A4054D
:1056F0008FEF9FEF9093E1058093E00580919805EF
:105700008130A9F42091A0053091A1059091E60582
:1057100090939E052115310521F41092A305109256
:10572000A2052F5F3F4F3093A1052093A0059091D4
:10573000E30590936B0C20919B0530919C05309371
:105740008C0A20938B0A90919D0590938D0A9091DD
:105750009E059F5F90938E0A2091A0053091A10530
:105760003093910A2093900A20919A0530E030936B
:10577000930A2093920A9091A4059093940A109210
:105780009A05823041F42091F4063091F506309369
:10579000690C2093680C9EEF980F923008F045C476
:1057A00081E080939A0510929805CD56DF4FF881DD
:1057B000C359D040FD3F09F07DCF82E090E0909347
:1057C0009C0580939B051092E3058FEF9FEF9093CC
:1057D000E1058093E0053ACFCD56DF4F3881C359BC
:1057E000D0403E3F09F028C722E030E030939C05CE
:1057F00020939B051092E3050093E205816076CF2C
:105800000093E30510929D05602F80EE95E00E94C5
:1058100071198091A40580FF07C01092E4051092D1
:10582000E50585E090E002C083E090E090939C0560
:1058300080939B0563CF0093E405C8018E7F992771
:10584000892B41F080919A058F5F80939A0581E0C2
:1058500090E0ECCF602F80EE95E00E94711984E01B
:1058600090E0E4CF0093E505602F80EE95E00E9484
:105870007119D7CF0093E605602F80EE95E00E9466
:10588000711986E090E0D2CF0093E705602F80EE9B
:1058900095E00E94711987E090E0C8CF0093E80579
:1058A000602F80EE95E00E94711988E090E0BECFF5
:1058B000CD56DF4F4881C359D040842F90E0A0E0FF
:1058C0008093E9059093EA05A093EB05602F80EEA5
:1058D00095E00E9471198091A40580FF08C0809115
:1058E000E305882309F44DC08BE090E09FCF89E069
:1058F00090E09CCF8091E9059091EA05A091EB059D
:10590000CD56DF4F5881C359D040952B8093E90580
:105910009093EA05A093EB05602F80EE95E00E943E
:1059200071198AE090E082CF8091E9059091EA05B3
:10593000A091EB05CD56DF4FB881C359D040AB2BBA
:105940008093E9059093EA05A093EB05602F80EE24
:1059500095E00E947119C3CFE0919D0581E08E0F03
:1059600080939D05F0E0E451FA4F0083602F80EEB4
:1059700095E00E94711990919D058091E30598131F
:10598000BDCE8CE090E052CF8091E9059091EA0580
:10599000A091EB05AC016A2F70E0EAE08E2E912C0D
:1059A000A12CB12CC12CD12C76012AE0D701C60143
:1059B000880D991DAA1DBB1D0196A11DB11DB6958F
:1059C000A79597958795289FF001299FF00D1124A1
:1059D000E656FC4F40805180628073804415550527
:1059E0006605770568F54C015D01E1E08E1A9108C6
:1059F000A108B108C814D904EA04FB04B8F28AE08B
:105A00008C9DF0018D9DF00D1124E656FC4F808198
:105A10009181A281B381481759076A077B07C1F4B6
:105A2000648180EE95E00E9471198091E00590916B
:105A3000E105992708171906A1F48DE090E013C03D
:105A40006C017D014416550666067706C0F6D2CF76
:105A50008EE090E090939C0580939B050093F40664
:105A60004DCE8EE090E090939C0580939B05009333
:105A7000F40680919D059AE09C9DF0019D9DF00D9E
:105A80001124E656FC4F4681841708F037CE50E0CB
:105A900090E0481B590B70E060E084519A4F0E94DF
:105AA00015432CCE2E303105B1F0F091E105C456EE
:105AB000DF4FF883CC59D040C356DF4F1882CD5901
:105AC000D040C456DF4FE880F980CC59D04081E007
:105AD0000E151F0409F082E0809398050093F506E7
:105AE0008091E40580FF17C080919805823051F4C1
:105AF00080E190E090939C0580939B058DE08093DE
:105B0000A505FCCD8FE090E090939C0580939B05CC
:105B100010929805F3CFE091A605F091A705309774
:105B200049F002A4F3A5E02D3097A9F480919805DF
:105B3000823001F581E090E090939C0580939B0575
:105B400083E291E0E0EEF5E0A8E6BCE001900D9282
:105B50000197E1F7D3CD8091E9059091EA05A091F5
:105B6000EB05AC016A2F70E088E995E01995811189
:105B7000E1CFDCCF83E080939805DCCF8091A50551
:105B8000EDE0F0E0E81BF109EA50F94F00838150A5
:105B90008093A505811150C58090A6059090A7051A
:105BA00081E08114910409F4D0C12090A8053090BF
:105BB000A90507E616EE29E03AE625960CAF1DAFDB
:105BC0002EAF3FAF259725E83EEA47E65BEB2996E7
:105BD0002CAF3DAF4EAF5FAF299782E793EFAEE6B4
:105BE000BCE32D968CAF9DAFAEAFBFAF2D971AE340
:105BF000E12E15EFF12E0FE415EA6196ECAEFDAE45
:105C00000EAF1FAF61970FE712E52EE031E5659605
:105C10000CAF1DAF2EAF3FAF65972CE838E645E0DF
:105C20005BE969962CAF3DAF4EAF5FAF69978BEAEA
:105C300099EDA3E8BFE16D968CAF9DAFAEAFBFAF5E
:105C40006D9789E19DECA0EEBBE5A1968CAF9DAF71
:105C5000AEAFBFAFA197A5961CAE1DAE1EAE1FAED8
:105C6000A59720E230E040E050E0B401665F7F4F4E
:105C7000CE0101960E94361E2AE030E040E050E05E
:105C800062EE75E0CE0101960E94361E2091E3057A
:105C900030E050E040E06CEE75E0CE0101960E94ED
:105CA000361E22E030E040E050E064EF76E0CE01C6
:105CB00001960E94361E27E030E040E050E066EF9B
:105CC00076E0CE0101960E94361EBE016B587F4FD2
:105CD000CE0101960E94A42046E050E06DEF76E0F0
:105CE000CE018B589F4F0E94FF42892B21F082E00A
:105CF00090E0D4018FC05090F606AE961FAEAE97DE
:105D0000AF961FAEAF97E0961FAEE097E1961FAE3D
:105D1000E197E2961FAEE297E3961FAEE397E49613
:105D20001FAEE497E5961FAEE59786E0E7EFF6E055
:105D3000DE01A359BF4F01900D928A95E1F721141E
:105D4000310411F1F10180819181E091E705209109
:105D5000E805D101712C612C86159705C1F01396C9
:105D60003C911397E3130BC014963C9114972313A3
:105D700006C012963C911297531609F4F0C0FFEF3B
:105D80006F1A7F0A1996E8CF83E090E0B2CF409770
:105D900018F084E090E0ADCFAE962FADAE97AF9601
:105DA0003FADAF97E0964FADE097E1965FADE197DD
:105DB000E2966FADE297E3967FADE397E4968FAD01
:105DC000E497E5969FADE59720583247444A5F4FE8
:105DD0006F4F7F4F8F4F9F4FD4011296AC90129709
:105DE0001396BC9013971496CC9014971596DC904C
:105DF00015971696EC9016971796FC90179718968D
:105E00000C91189719961C9119970E94DC40F0F498
:105E100085E090E09D969C938E939C97E091A605DB
:105E2000F091A70502A4F3A5E02D80E0309709F4D6
:105E30008CC08091E9059091EA05A091EB05AC0139
:105E40006A2F70E088E995E019957FC089E0869D0A
:105E5000D001879DB00D1124A20DB31D1396EC93B4
:105E600013978091E80514968C93149712965C9280
:105E7000C3010196F1019183808389E0869DD00161
:105E8000879DB00D11241596A20DB31D86E0E7EF96
:105E9000F6E001900D928A95E1F7AE963FACAE9791
:105EA000AF965FACAF97E0966FACE097E1967FACB2
:105EB000E197E2964FACE297E3962FACE397E49636
:105EC000FFADE497E596EFADE597D4011296AC905F
:105ED00012971396BC9013971496CC90149715961E
:105EE000DC9015971696EC9016971796FC901797DE
:105EF00018960C91189719961C911997232D352DEA
:105F0000A301642D722D8F2F9E2F0E94DC40C1F0C3
:105F1000B8F012963C92129713965C9213971496CF
:105F20006C92149715967C92159716964C9216972C
:105F300017962C9217971896FC9318971996EC932E
:105F400081E090E0F40195A784A720919B05309112
:105F50009C052031310509F063C082E00CCEA69685
:105F60001FAEA697A7961FAEA797A8961FAEA89795
:105F7000A9961FAEA997AA961FAEAA97AB961FAE79
:105F8000AB97AC961FAEAC97AD961FAEAD9789E0C0
:105F9000869DF001879DF00D11243596E20DF31DCD
:105FA00086E0DE01AB59BF4F01900D928A95E1F773
:105FB000AE962FADAE97AF963FADAF97E0964FAD93
:105FC000E097E1965FADE197E2966FADE297E396D9
:105FD0007FADE397A696AFACA697A796BFACA79761
:105FE000A896CFACA897A996DFACA997AA96EFACD4
:105FF000AA97AB96FFACAB97AC960FADAC97AD96AE
:106000001FADAD97E4968FADE497E5969FADE5970C
:106010000E94DC4011F008F030CF86E090E069CEBD
:10602000882309F4A7CD81E0A6CD882309F40ECBFF
:106030008091710C9091720CA091730C8D3491052C
:10604000A10509F4CAC268F40097A10509F48BC23E
:106050000197A10509F0FACA8091780C8093870A0C
:10606000F5CA8D369105A10509F450C28F36910508
:10607000A10509F0EBCAE090740CCD56DF4FE88221
:10608000C359D040F090750CC556DF4FF882CB59FC
:10609000D0400091760CC256DF4F0883CE59D040D5
:1060A0001091770CC156DF4F1883CF59D040209103
:1060B000780CC056DF4F2883C05AD0403091790CFD
:1060C000CF55DF4F3883C15AD04040917A0CCE551E
:1060D000DF4F4883C25AD04050917B0CCD55DF4FE3
:1060E0005883C35AD040E0924D0CF0924E0C00936E
:1060F0004F0C1093500C2093510C3093520C409342
:10610000530C5093540C40907C0C50907D0C60903C
:106110007E0C70907F0C8090800C9090810C309061
:10612000820C2090830C4092550C5092560C609239
:10613000570C7092580C8092590C90925A0C3092D5
:106140005B0C20925C0C0E942817CC55DF4F6883B3
:1061500079838A839B83C45AD0402091740A3091FA
:10616000750A4091760A5091770A6091780A709189
:10617000790A80917A0A90917B0AA0906C0AB0907B
:106180006D0AC0906E0AD0906F0AE090700AF0908D
:10619000710A0091720A1091730A0E94D340520151
:1061A00063017401032D122D0E94D340CC55DF4FA3
:1061B000E880F9800A811B81C45AD04057016801E8
:1061C000E12CF12C00E010E00E94BE4001E00E94B2
:1061D000A340CD56DF4FA880C359D040C556DF4FEE
:1061E000B880CB59D040C256DF4FC880CE59D0407E
:1061F000C156DF4FD880CF59D040C056DF4FE8801E
:10620000C05AD040CF55DF4FF880C15AD040CE554C
:10621000DF4F0881C25AD040CD55DF4F1881C35A95
:10622000D0400E94BE40722E832E942E652E562E94
:10623000472E382E292E2093740A3093750A4093E6
:10624000760A5093770A6093780A7093790A80935C
