:020000040000FA
:100000000C94B9100C94EA100C94EA100C94EA10B9
:100010000C94EA100C94EA100C94EA100C94EA1078
:100020000C94EA100C94EA100C94EA100C94EA1068
:100030000C94EA100C94EA100C94EA100C94EA1058
:100040000C94EA100C94EA100C94EA100C94EA1048
:100050000C94EA100C94EA100C94EA100C94BA3543
:100060000C94EA100C948E360C9464360C94EA10BE
:100070000C94EA100C94EA100C94EA100C94EA1018
:100080000C94EA100C94EA100C94EA100C94EA1008
:100090000C94EA100C94EA100C94EA100C94EA10F8
:1000A0000C94EA100C94EA100C94EA100C94EA10E8
:1000B0000C94EA100C94EA100C94EA100C94EA10D8
:1000C0000C94EA100C94EA100C94EA100C94EA10C8
:1000D0000C94EA100C94EA100C942E360C9404360E
:1000E0000C94EA100C9416170C94B2190C94CA3F95
:1000F0000C94AF2C0C949F1E0C949A180C94B2156F
:100100000C94B6150C9476190C9424180C94291997
:100110000C94492B0C94B52B0C9489150C94021754
:100120000C94CE150C94352B0C94A71E0C94BD1674
:100130000C9497150C94A4150C9478180C94E12841
:100140000C94431E0C94432C0C9493150C94511E48
:100150000C94852B0C94C4360C944D170C942F17CB
:100160000C94F12A0C943C180C949D2B0C94512A5D
:100170000C94DE160C94CA150C94F8160C94B12944
:100180000C94232B0C948F150C94BC150C94E8162E
:100190000C9443170C94C0150C94F0160C94C415D1
:1001A0000C94D4160C94A8150C9457170C942B2B64
:1001B0000C949B150C940C2B0C9439170C94761EF4
:1001C0000C94A31E0C949E150C94AA1E0C946B2BDD
:1001D0000C944A1E0C9419330C9425170C9469182E
:1001E0000C943F2B0C949B1E0C94CA160C940C1769
:1001F0000C94C9150C943C1E0C94AE150C94DC1890
:100200000C94C5160C948C1806082060040000009D
:10021000000000050000065F060006000703000757
:10022000030600247E247E240500242B6A12000687
:10023000006313086463060036495620500400002A
:10024000070300000400003E410000040000413E9E
:1002500000000600083E1C3E08060008083E08088C
:10026000040000E060000006000808080808040018
:1002700000606000000600201008040206003E51E5
:1002800049453E050000427F400006006251494951
:10029000460600224949493606001814127F100606
:1002A000002F4949493106003C4A494930060001BE
:1002B00071090503060036494949360600064949D1
:1002C000291E0400006C6C0000040000EC6C0000AF
:1002D00005000814224100060024242424240600DA
:1002E00000412214080600020159090606003E4199
:1002F0005D551E06007E1111117E06007F49494999
:100300003606003E4141412206007F4141413E0602
:10031000007F4949494106007F0909090106003E5D
:100320004149497A06007F0808087F050000417F9F
:1003300041000600304040403F06007F0814224143
:1003400006007F4040404006007F0204027F060016
:100350007F0204087F06003E4141413E06007F09BE
:1003600009090606003E4151215E06007F09091970
:100370006606002649494932060001017F0101064F
:10038000003F4040403F06001F2040201F06003F26
:10039000403C403F060063140814630600070870E1
:1003A0000807050071494543000500007F414100F1
:1003B0000600020408102005000041417F000600ED
:1003C0000402010204068080808080800400000313
:1003D0000700000600205454547806007F4444442B
:1003E00038060038444444280600384444447F0614
:1003F0000038545454080500087E09090006001806
:10040000A4A4A47C05007F04047800050000007DFE
:10041000400005004080847D0005007F10284400D6
:10042000050000007F400006007C041804780500E9
:100430007C04047800060038444444380600FC4438
:10044000444438060038444444FC060044784404DC
:1004500008060008545454200500043E44240005B6
:10046000003C40207C0006001C2040201C06003C74
:100470006030603C05006C10106C0005009CA060B2
:100480003C0005006454544C000500083E41410006
:100490000400000077000006000041413E0805000E
:1004A000020102010006003C2623263C0B102060BE
:1004B0000600000000000000000000000000000036
:1004C00000000000000000070000000000007C00A9
:1004D000FF33FF337C000000000000000000080034
:1004E0000000003C003C00000000003C003C00001C
:1004F00000000000000B0002101E901FF0037E029F
:100500001E1E901FF0037E021E00100009000078DE
:1005100004FC0CCC0CFF3FFF3FCC0CCC0F88070039
:100520000000000B00303838381C380E00078003FC
:10053000C001E038703838381C000A0000001FB8CD
:100540003FFC31C621E2373E1E1C1C003600220053
:10055000000600000000000027003F001F00000010
:1005600000000000000000000800000000F003FC94
:100570000FFE1F07380120012000000000000008C6
:1005800000000000012001200738FE1FFC0FF003CF
:10059000000000000000090000980CB80EE003F80D
:1005A0000FF80FE003B80E980C00000000090000DF
:1005B000800180018001F00FF00F80018001800137
:1005C000000000000600000000000000B800F80075
:1005D0007800000000000000000000090000800119
:1005E0008001800180018001800180018001000084
:1005F000000006000000000000003800380038004D
:100600000000000000000000000B0018001C000E9D
:1006100000078003C001E000700038001C000E00DD
:100620000BF807FE1F061E03338331C330633033DC
:10063000301E18FE1FF8070A000000000C300C30B6
:100640000E30FF3FFF3F00300030003000000B1C39
:10065000301E38073C033E03378333C331E3307722
:10066000303E301C300B0C0C0E1C0738C330C3302E
:10067000C330C330C330E7397E1F3C0E0BC003E0EC
:1006800003700338031C030E030703FF3FFF3F0003
:100690000300030B3F0C7F1C63386330633063300F
:1006A00063306330E338C31F830F0BC00FF01FF8B4
:1006B00039DC30CE30C730C330C330C339801F007F
:1006C0000F0B0300030003000330033C030FC303BD
:1006D000F3003F000F0003000B000FBC1FFE39E7C3
:1006E00030C330C330C330E730FE39BC1F000F0BBE
:1006F0003C007E00E730C330C330C338C31CC30E98
:10070000E707FE03FC0006000000000000701C70FC
:100710001C701C000000000000000000000600002B
:1007200000000000709C70FC707C00000000000065
:1007300000000000090000C000E001F00338071CC1
:100740000E0E1C07380330000000000A000060068F
:100750006006600660066006600660066006600669
:100760000000090000033007380E1C1C0E3807F08B
:1007700003E001C000000000000A1C001E0007008A
:1007800003008337C337E30077003E001C000000FE
:100790000BF80FFE1F0718F333FB371B36FB37FB35
:1007A000370736FE03F8010A0038003FE007FC0671
:1007B0001F061F06FC06E007003F003800000AFF86
:1007C0003FFF3FC330C330C330C330E730FE39BCD6
:1007D0001F000F00000AF003FC0F0E1C0738033047
:1007E0000330033007380E1C0C0C00000AFF3FFFDB
:1007F0003F033003300330033007380E1CFC0FF08A
:100800000300000AFF3FFF3FC330C330C330C33093
:10081000C330C3300330033000000AFF3FFF3FC343
:1008200000C300C300C300C300C3000300030000F3
:10083000000AF003FC0F0E1C07380330C330C3302E
:10084000C330C73FC63F00000AFF3FFF3FC000C0A4
:1008500000C000C000C000C000FF3FFF3F00000814
:100860000000000003300330FF3FFF3F0330033040
:100870000000000000000A000E001E0038003000DA
:1008800030003000300038FF1FFF0700000AFF3F34
:10089000FF3FC000E001F00338071C0E0E1C0738B4
:1008A000033000000AFF3FFF3F00300030003000FF
:1008B00030003000300030003000000AFF3FFF3FC2
:1008C0001E007800E001E00178001E00FF3FFF3FBE
:1008D00000000AFF3FFF3F0E003800F000C0030099
:1008E00007001CFF3FFF3F00000AF003FC0F0E1C37
:1008F00007380330033007380E1CFC0FF0030000EC
:100900000AFF3FFF3F83018301830183018301C706
:1009100001FE007C0000000AF003FC0F0E1C0738EB
:1009200003300336073E0E1CFC3FF03300000AFF85
:100930003FFF3F8301830183038307830FC71DFEAE
:10094000387C3000000A3C0C7E1CE738C330C330D2
:10095000C330C330C7398E1F0C0F000009000003DD
:100960000003000300FF3FFF3F03000300030000FC
:100970000000000AFF07FF1F003800300030003081
:1009800000300038FF1FFF0700000A07003F00F893
:1009900001C00F003E003EC00FF8013F00070000FD
:1009A000000AFF3FFF3F001C000680038003000693
:1009B000001CFF3FFF3F00000A03300F3C1C0E30BD
:1009C00003E001E00130031C0E0F3C033000000A7D
:1009D00003000F003C00F000C03FC03FF0003C00AF
:1009E0000F00030000000A0330033C033E0333C33F
:1009F00031E33033301F300F300330000008000087
:100A00000000FF3FFF3F033003300330033000009E
:100A1000000000000B0E001C0038007000E000C059
:100A20000180030007000E001C00180800000000F1
:100A30000330033003300330FF3FFF3F000000006E
:100A400000000B6000700038001C000E0007000E54
:100A5000001C003800700060000B00C000C000C027
:100A600000C000C000C000C000C000C000C000C086
:100A70000700000000000000003E007E004E000065
:100A8000000000000000000A001C403E603360339C
:100A90006033603360336033E03FC03F00000AFFE3
:100AA0003FFF3FC0306030603060306030E038C0C1
:100AB0001F800F00000A800FC01FE03860306030D8
:100AC000603060306030C018800800000A800FC0BD
:100AD0001FE038603060306030E030C030FF3FFFF2
:100AE0003F00000A800FC01FE03B6033603360337B
:100AF00060336033C0138001000008C000C000FCF8
:100B00003FFE3FC700C300C3000300000000000019
:100B1000000A8003C0C7E0CE60CC60CC60CC60CC63
:100B200060E6E07FE03F000009FF3FFF3FC000605C
:100B30000060006000E000C03F803F00000000084F
:100B40000000000000306030EC3FEC3F003000302F
:100B50000000000000000800000000006000E0004D
:100B6000C060C0ECFFEC7F00000000000009000046
:100B7000FF3FFF3F00038007C00FE01C60380030DC
:100B800000000000080000000000300330FF3FFFBD
:100B90003F003000300000000000000AE03FC03F8E
:100BA000E000E000C03FC03FE000E000C03F803F09
:100BB00000000A0000E03FE03F600060006000606D
:100BC00000E000C03F803F00000A800FC01FE038F7
:100BD0006030603060306030E038C01F800F00004F
:100BE0000AE0FFE0FF600C6018601860186018E011
:100BF0001CC00F800700000A8007C00FE01C6018AF
:100C0000601860186018600CE0FFE0FF00000A0048
:100C100000E03FE03FC0006000600060006000E076
:100C200000C000000008C011E0336033603360335F
:100C30006033603F401E000000000000086000605C
:100C400000FE1FFE3F60306030603000300000006A
:100C50000000000AE00FE01F0038003000300030D4
:100C600000300018E03FE03F00000A6000E0018033
:100C700007001E00380038001E8007E001600000F9
:100C8000000AE007E01F0038001CE00FE00F001C26
:100C90000038E01FE0070000096030E038C01D8028
:100CA0000F0007800FC01DE0386030000000000911
:100CB00000006000E08180E7007E001E8007E00108
:100CC0006000000000000960306038603C60366001
:100CD00033E031E0306030203000000000090000D7
:100CE0008000C001FC1F7E3F07700360036003604B
:100CF00000000000060000000000000000FF3FFFB1
:100D00003F00000000000000000000090000036038
:100D10000360036007707E3FFC1FC001800000007D
:100D200000000A100018000C0004000C001800104D
:100D30000018000C00040000000A000F800FC00C17
:100D4000600C300C300C600CC00C800F000F0000E9
:100D5000FFFFFFFFFFFFFFFFFFFFFFFFFFFFFFFFA3
:100D6000FFFFFFFFFFFFFFFFFFFFFFFFFFFFFFFF93
:100D7000FFFFFFFFFFFFFFFFFFFFFFFFFFFFFFFF83
:100D8000FFFFFFFFFFFFFFFFFFFFFFFFFFFFFFFF73
:10112000FFFF00000FFFFFFFFFFFFFFFFFFFFFFFBD
:10113000FFFFFFFFFFFFFFE00000007FFFFFFFFF5B
:10114000FFFFFFFFFFFFFFFFFFFFFFFFFE000000AD
:101150000007FFFFFFFFFFFFFFFFFFFFFFFFFFFF96
:10116000FFFFF00000000000FFFFFFFFFFFFFFFF99
:10117000FFFFFFFFFFFFFFFFC000000000003FFF79
:10118000FFFFFFFFFFFFFFFFFFFFFFFFFFFE00006E
:101190000000000007FFFFFFFFFFFFFFFFFFFFFF53
:1011A000FFFFFFF800000000000001FFFFFFFFFF4E
:1011B000FFFFFFFFFFFFFFFFFFE000000000000058
:1011C000007FFFFFFFFFFFFFFFFFFFFFFFFFFFC0ED
:1011D000000000000000003FFFFFFFFFFFFFFFFFD8
:1011E000FFFFFFFFFF00000000000000000FFFFFF7
:1011F000FFFFFFFFFFFFFFFFFFFFFE0000000000FB
:1012000000000007FFFFFFFFFFFFFFFFFFFFFFFFE3
:10121000F8000000000000000001FFFFFFFFFFFFDB
:10122000FFFFFFFFFFFFF0000000000000000000D4
:10123000FFFFFFFFFFFFFFFFFFFFFFFFE0000000DA
:101240000000000000007FFFFFFFFFFFFFFFFFFF28
:10125000FFFF800000000000000000001FFFFFFFF4
:10126000FFFFFFFFFFFFFFFF000000000000000086
:1012700000000FFFFFFFFFFFFFFFFFFFFFFE00006B
:10128000000000000000000007FFFFFFFFFFFFFF5E
:10129000FFFFFFFC0000000000000000000003FF53
:1012A000FFFFFFFFFFFFFFFFFFF80000000000004F
:1012B0000000000001FFFFFFFFFFFFFFFFFFFFF047
:1012C0000000000000000000000000FFFFFFFFFF23
:1012D000FFFFFFFFFFE00000000000000000000033
:1012E000007FFFFFFFFFFFFFFFFFFFC000000000C8
:1012F000000000000000003FFFFFFFFFFFFFFFFFB7
:10130000FF8000000000000000000000001FFFFF41
:10131000FFFFFFFFFFFFFF000000000000000000D4
:101320000000000FFFFFFFFFFFFFFFFFFF000000B7
:101330000000000000000000000FFFFFFFFFFFFFA4
:10134000FFFFFE000000000000000000000000079A
:10135000FFFFFFFFFFFFFFFFFC0000000000000099
:10136000000000000003FFFFFFFFFFFFFFFFFC0086
:10137000000000000000000000000001FFFFFFFF70
:10138000FFFFFFFFF8000000000000000000000069
:101390000001FFFFFFFFFFFFFFFFF0000000000064
:1013A0000000000000000000FFFFFFFFFFFFFFFF45
:1013B000F0000000000000000000000000007FFFBF
:1013C000FFFFFFFFFFFFE000000000000000000043
:1013D000000000007FFFFFFFFFFFFFFFC0000000D5
:1013E000000000000000000000007FFFFFFFFFFF83
:1013F000FFFFC0000FFFE000000000000000000041
:101400007FFFFFFFFFFFFFFF80007FFFFC0000006A
:101410000007FFFFFFFFFFFFFFFFFFFFFFFF800150
:10142000FFFFFF000000003FFFFFFFFFFFFFFFFF88
:10143000FFFFFFFF0003FFFFFFC0000000FFFFFFF3
:10144000FFFFFFFFFFFFFFFFFFFF000FFFFFFFE0BA
:10145000000003FFFFFFFFFFFFFFFFFFFFFFFFFE97
:10146000001FFFFFFFF8000007FFFFFFFFFFFFFF68
:10147000FFFFFFFFFFFE003FFFFFFFFC00000FFF2D
:10148000FFFFFFFFFFFFFFFFFFFFFFFE007FFFFFEC
:10149000FFFE00001FFFFFFFFFFFFFFFFFFFFFFF3B
:1014A000FFFC00FFFFFFFFFF00001FFFFFFFFFFF2C
:1014B000FFFFFFFFFFFFFFFC01FFFFFFFFFF00003B
:1014C0003FFFFFFFFFFFFFFFFFFFFFFFFFFC01FFED
:1014D000FC007FFF80003FFFF800000007FFFFFFD8
:1014E000FFFFFFF803FFF0001FFFC0003FFE0000FA
:1014F000000001FFFFFFFFFFFFF807FFE00007FF0D
:10150000C0007FF80000000001FFFFFFFFFFFFF8B1
:1015100007FFC00003FFE0007FF80000000001FFAC
:10152000FFFFFFFFFFF00FFF800001FFE0007FF0F3
:101530000000000000FFFFFFFFFFFFF00FFF0000B3
:1015400001FFF0007FF00000000000FFFFFFFFFF41
:10155000FFF00FFE000000FFF0007FF00000000031
:1015600000FFFFFFFFFFFFF01FFE0000007FF00005
:101570007FF00000000000FFFFFFFFFFFFE01FFC07
:101580000000007FF8007FF800000000007FFFFFF0
:10159000FFFFFFE01FFC0000003FF8007FF80000A5
:1015A0000000007FFFFFFFFFFFE01FFC0000003F87
:1015B000F8007FFC00000000007FFFFFFFFFFFE05E
:1015C0001FF80000003FF8003FFF00000000007F10
:1015D000FFFFFFFFFFE03FF80000003FF8003FFF84
:1015E000C0000000007FFFFFFFFFFFE03FF80000AA
:1015F000001FF8001FFFF8000000007FFFFFFFFF43
:10160000FFE03FF80000001FF8001FFFFF00000090
:10161000007FFFFFFFFFFFC03FF80000001FF80042
:101620000FFFFFE00000003FFFFFFFFFFFC03FF89C
:101630000000001FF80007FFFFFE0000003FFFFF53
:10164000FFFFFFC03FF80000003FF80003FFFFFF6F
:10165000C000003FFFFFFFFFFFC03FF80000003F5A
:10166000F80001FFFFFFF800003FFFFFFFFFFFC092
:101670003FF00000003FF800007FFFFFFE00003F4A
:10168000FFFFFFFFFFC03FF00000003FF800001F1A
:10169000FFFFFF80003FFFFFFFFFFFC03FF00000A4
:1016A000003FF8000007FFFFFFE0003FFFFFFFFFE4
:1016B000FFC03FF00000003FF8000000FFFFFFF018
:1016C000003FFFFFFFFFFFC03FF00000003FF000C2
:1016D00000001FFFFFF8003FFFFFFFFFFFC07FF08C
:1016E0000000003FF000000003FFFFFC003FFFFF91
:1016F000FFFFFFC07FF00000003FF0000000007F10
:10170000FFFE003FFFFFFFFFFFE07FE00000003F24
:10171000F0000000000FFFFF003FFFFFFFFFFFE0B2
:101720007FE00000007FF00000000001FFFF007F6D
:10173000FFFFFFFFFFE07FE00000007FF000000000
:1017400000007FFF807FFFFFFFFFFFE07FE00000E2
:10175000007FF000000000001FFF807FFFFFFFFF01
:10176000FFE07FE00000007FE0000000000007FFD6
:10177000807FFFFFFFFFFFE07FE00000007FE000D1
:101780000000000003FFC07FFFFFFFFFFFE0FFE05E
:101790000000007FE0000000000003FFC07FFFFFAB
:1017A000FFFFFFF0FFE00000007FE000000000000E
:1017B00001FFC0FFFFFFFFFFFFF0FFE0000000FFA1
:1017C000E0000000000001FFC0FFFFFFFFFFFFF08F
:1017D000FFE0000000FFE0000000000001FFC0FF8C
:1017E000FFFFFFFFFFF0FFE0000000FFE000000050
:1017F000000001FFC0FFFFFFFFFFFFF0FFC0000080
:1018000000FFE0000000000003FFC0FFFFFFFFFF3C
:10181000FFF8FFC0000000FFE0000000000003FF31
:1018200081FFFFFFFFFFFFF8FFC0000000FFE000A7
:10183000000000000FFF81FFFFFFFFFFFFFCFFC064
:10184000000000FFE000000000003FFF81FFFFFFFD
:10185000FFFFFFFDFFC0000000FFFFFFFFFFFFFFD6
:10186000FFFF03FFFFFFFFFFFFFFFFC0000000FFC0
:10187000FFFFFFFFFFFFFFFF03FFFFFFFFFFFFFF74
:10188000FFC0000001FFFFFFFFFFFFFFFFFE03FFA0
:10189000FFFFFFFFFFFFFF80000001FFFFFFFFFFD3
:1018A000FFFFFFFE07FFFFFFFFFFFFFFFF800000BE
:1018B00001FFFFFFFFFFFFFFFFFC07FFFFFFFFFF31
:1018C000FFFFFF80000001FFFFFFFFFFFFFFFFF8AA
:1018D0000FFFFFFFFFFFFFFFFF80000001FFFFFF83
:1018E000FFFFFFFFFFE00FFFFFFFFFFFFFFFFF8096
:1018F000000001FFFFFFFFFFFFFFFFC01FFFFFFF13
:10190000FFFFFFFFFF80000001FFFFFFFFFFFFFF62
:10191000FF001FFFFFFFFFFFFFFFFF80000001FF31
:10192000FFFFFFFFFFFFC0003FFFFFFFFFFFFFFFC5
:10193000FF800000000000000000000000003FFFEA
:10194000FFFFFFFFFFFFFF8000000000000000001E
:10195000000000007FFFFFFFFFFFFFFFFF00000010
:10196000000000000000000000007FFFFFFFFFFFFD
:10197000FFFFFF000000000000000000000000006A
:10198000FFFFFFFFFFFFFFFFFF0000000000000060
:10199000000000000000FFFFFFFFFFFFFFFFFF0050
:1019A000000000000000000000000001FFFFFFFF3A
:1019B000FFFFFFFFFF00000000000000000000002C
:1019C0000003FFFFFFFFFFFFFFFFFF00000000001D
:1019D0000000000000000007FFFFFFFFFFFFFFFF08
:1019E000FF00000000000000000000000007FFFFF3
:1019F000FFFFFFFFFFFFFF000000000000000000EE
:101A00000000000FFFFFFFFFFFFFFFFFFF80000050
:101A10000000000000000000001FFFFFFFFFFFFFAD
:101A2000FFFFFFC000000000000000000000003FBA
:101A3000FFFFFFFFFFFFFFFFFFE0000000000000CF
:101A400000000000007FFFFFFFFFFFFFFFFFFFE040
:101A500000000000000000000000007FFFFFFFFF0B
:101A6000FFFFFFFFFFF0000000000000000000008B
:101A700000FFFFFFFFFFFFFFFFFFFFFC0000000074
:101A800000000000000001FFFFFFFFFFFFFFFFFF5E
:101A9000FFFE0000000000000000000003FFFFFF49
:101AA000FFFFFFFFFFFFFFFF00000000000000003E
:101AB000000007FFFFFFFFFFFFFFFFFFFFFF8000AA
:101AC00000000000000000001FFFFFFFFFFFFFFFFE
:101AD000FFFFFFFFC00000000000000000003FFF0C
:101AE000FFFFFFFFFFFFFFFFFFFFE0000000000020
:101AF000000000007FFFFFFFFFFFFFFFFFFFFFFF72
:101B0000F8000000000000000000FFFFFFFFFFFFE3
:101B1000FFFFFFFFFFFFFC000000000000000003CC
:101B2000FFFFFFFFFFFFFFFFFFFFFFFFFE000000C3
:101B3000000000000007FFFFFFFFFFFFFFFFFFFFA8
:101B4000FFFFFF80000000000000001FFFFFFFFFFD
:101B5000FFFFFFFFFFFFFFFFFFE0000000000000AE
:101B6000007FFFFFFFFFFFFFFFFFFFFFFFFFFFF013
:101B700000000000000000FFFFFFFFFFFFFFFFFF6E
:101B8000FFFFFFFFFFFE00000000000003FFFFFF5C
:101B9000FFFFFFFFFFFFFFFFFFFFFFFF80000000D1
:101BA00000001FFFFFFFFFFFFFFFFFFFFFFFFFFF23
:101BB000FFFFE000000000007FFFFFFFFFFFFFFFCF
:101BC000FFFFFFFFFFFFFFFFFC0000000003FFFF20
:101BD000FFFFFFFFFFFFFFFFFFFFFFFFFFFFFF8094
:101BE0000000001FFFFFFFFFFFFFFFFFFFFFFFFFE2
:101BF000FFFFFFFFFFFC000001FFFFFFFFFFFFFFF4
:101C0000FFFFFFFFFFFFFFFFFFFFFFFFF000FFFFF2
:101C1000FFFFFFFFFFFFFFFFFFFFFFFFFFFFFFFFD4
:101C2000FFFFFFFFFFFFFFFFFFFFFFFFFFFFFFFFC4
:101C3000FFFFFFFFFFFFFFFFFFFFFFFFFFFFFFFFB4
:101C4000FFFFFFFFFFFFFFFFFFFFFFFFFFFFFFFFA4
:10204000FFFFFFFFFFFFFFFFFFFFFFFFFFFF00009E
:102050002100240027002A002D0030003300010158
:102060000000040107010A010000220025002800E9
:102070002B002E0031003400020100000501080190
:102080000B01000020002300260029002C002F0057
:1020900032000001000003010601090105050505E4
:1020A000070508080808020202020A0A08080404D0
:1020B00004040101010101010101030303030303FE
:1020C0000303040707070C0C0C0C0C0C0C0C02028D
:1020D000020206060606060606060B0B0B0B0B0B8A
:1020E0000B0B010210202008081020401020408017
:1020F00002010201080402010102040810204080CC
:102100008040201008040201800402018040201059
:1021100008040201080402010102040810204080A2
:10212000010204081020408000000A0B02090C0D77
:102130000E0807030401000000000000000000007A
:10214000000000000000000000000000000000008F
:10215000000000001211100000000000000000004C
:102160000000000000000000000000000000C43675
:10217000CA3F11241FBECFEFD1E2DEBFCDBF00E0CA
:102180000CBF20E1AAECB5E001C01D92A031B2075E
:10219000E1F715E0A0E0B2E0E8E6FBE800E00BBF05
:1021A00002C007900D92AA3CB107D9F710E1C8EB25
:1021B000D0E100E006C021970109802FFE010E94B6
:1021C0009D42C73BD10780E00807A9F70E94C837A6
:1021D0000C94A2450C940000FC01A089B18982E016
:1021E0008C93A485B5851C92A685B78580E18C93D8
:1021F000108EA489B58986E08C93A289B3898C91CD
:1022000080618C93A289B3898C9188608C93A28918
:10221000B3898C9180688C930288F389E02D80814A
:102220008F7D808308958091FA0F9091FB0FA0918C
:10223000FC0FB091FD0F0197A109B1098093FA0F2E
:102240009093FB0FA093FC0FB093FD0F892B8A2B6B
:102250008B2B49F4E091B80FF091B90F80819091E8
:10226000BC0F892B80830895AC01E091B40FF091ED
:10227000B50F80819091BD0F892B8083E091B80FBD
:10228000F091B90F80819091BC0F90959823908325
:102290008091AE0F20E130E060E070E887FF12C06F
:1022A0005EBD0DB407FEFDCF4EBD0DB407FEFDCFE4
:1022B000E091B80FF091B90F80819091BC0F892BFC
:1022C00080830895E091B00FF091B10F9091BA0F13
:1022D000DA01A623B7238081AB2BD9F0982B90830A
:1022E000E091B20FF091B30F80819091BB0F892BD9
:1022F0008083E091B20FF091B30F80819091BB0F7A
:102300009095982390837695679521503109D1F661
:10231000CFCF90959823E3CF9C01E091B40FF0913B
:10232000B50F80819091BD0F909598239083E09197
:10233000B80FF091B90F80819091BC0F90959823C0
:1023400090838091AE0F40E150E060E070E887FF3D
:1023500012C01EBC0DB407FEFDCF2EBD0DB407FE8E
:10236000FDCFE091B80FF091B90F80819091BC0F33
:10237000892B80830895E091B00FF091B10F909177
:10238000BA0FD901A623B7238081AB2BD9F0982BA4
:102390009083E091B20FF091B30F80819091BB0FC9
:1023A000892B8083E091B20FF091B30F80819091DF
:1023B000BB0F90959823908376956795415051096E
:1023C000D1F6CFCF90959823E3CFCF93DF93EB0156
:1023D0000E948C11CE01DF91CF910C943411809129
:1023E000FA0F9091FB0FA091FC0FB091FD0FAC0183
:1023F000BD014F5F5F4F6F4F7F4F4093FA0F509378
:10240000FB0F6093FC0F7093FD0F892B8A2B8B2B96
:1024100091F48091AE0F87FF04C080E58CBD81E010
:102420008DBDE091B80FF091B90F90818091BC0FF4
:102430008095892380830895DC01FB018091BE0F84
:102440008230B9F0833069F1813051F58091A60F67
:102450009091A70F019720813181821B930B91836B
:1024600080832D913C9111978D939C933183208390
:1024700008958091A40F9091A50F01972D913C9103
:102480001197821B930B8D939C938091A60F909133
:10249000A70F019720813181821B930B9183808349
:1024A00008958091A40F9091A50F01972D913C91D3
:1024B0001197821B930B11969C938E9320813181EF
:1024C0002D933C93EBCF0F931F93CF93DF9300D0CB
:1024D0001F92CDB7DEB79A8389837C836B8320916B
:1024E000A40F3091A50F8217930720F52091A60F16
:1024F0003091A70F62177307E8F48A01BE016D5F80
:102500007F4FCE0101960E941C120E94EF1169813B
:102510007A8180E290E00E94E5116B817C8181E20A
:1025200090E00E94E511B80182E290E00E94E5117E
:102530000E9413110F900F900F900F90DF91CF9189
:102540001F910F9108950F931F93CF93DF9300D0A6
:1025500000D01F921F92CDB7DEB77C836B835E8362
:102560004D8338872F832091A40F3091A50F2150E0
:1025700031092817390708F4C9019A8389838D81A5
:102580009E812817390708F4C9019E838D838091A5
:10259000A60F9091A70F01972B813C81821793077B
:1025A00008F49C013C832B832F8138858217930785
:1025B00008F49C0138872F83BE016D5F7F4FCE01E9
:1025C00001960E941C12BE01695F7F4FCE010596E5
:1025D0000E941C122D813E8189819A81281739071A
:1025E00020F43A8329839E838D832F8138858B81C4
:1025F0009C812817390720F43C832B8398878F838D
:102600000E94EF11E091BE0FEE2379F0E150FF0B35
:1026100023E0EE0FFF1F2A95E1F7E00FF11FEE0F09
:10262000FF1FE054F04F00811181B80183E0660F75
:10263000771F8A95E1F7706183E090E00E94E511D1
:102640006D817E8186E390E00E94E51169817A8147
:1026500087E390E00E94E5116F81788588E390E040
:102660000E94E5116B817C8189E390E00E94E51175
:10267000159507950130110529F1ACF46D817E8126
:10268000012B11F182E290E00E948C110E94131143
:1026900028960FB6F894DEBF0FBECDBFDF91CF9165
:1026A0001F910F91089502301105C9F069817A8157
:1026B0000330110539F780E290E00E94E5116B814B
:1026C0007C8108C069817A8180E290E00E94E511F6
:1026D0006F81788581E290E00E94E511D3CF6D8112
:1026E0007E81E9CF6FEA70E086E390E00E94E51119
:1026F00070E060E087E390E00E94E5116BED70E030
:1027000088E390E00E94E51170E060E089E390E0EA
:102710000C94E5118F929F92AF92BF92CF92DF926D
:10272000EF92FF920F931F93CF93DF935C014B01C6
:10273000EA017901680107E010E00E94A3120E94FB
:10274000EF118FEFE81AF80AE818F9082196CA196C
:10275000DB09EC9E5001ED9EB00CFC9EB00C1124E8
:10276000A114B10439F0C6010E94341181E0A81A05
:10277000B108F6CF0E941311DF91CF911F910F91F5
:10278000FF90EF90DF90CF90BF90AF909F908F9091
:102790000C9472132F923F924F925F926F927F929E
:1027A0008F929F92AF92BF92CF92DF92EF92FF9261
:1027B0000F931F93CF93DF9300D000D000D01F92D0
:1027C0001F92CDB7DEB75B015B834A83522E432E47
:1027D0007C01712C272D30E0EA81FB818481958179
:1027E0002817390708F0D4C080819181009709F437
:1027F000A5C0820F931FFC018081F091F40FFA872E
:102800002091F80FF29F900111242F5F3F4F082E67
:10281000000C990B4091F60F841B9109289F6001D1
:10282000299FD00C389FD00C11248091F90F811171
:102830000BC0E091F20FF091F30F96012C5F3F4F28
:10284000E20FF31F34913A8785E0C80ED11C0E9435
:10285000EF119A85292E312CA7014F5F5F4F420D52
:10286000531D8091A40F9091A50F4817590708F0A8
:1028700067C02091F50F2150330B2A0D3B1D80912D
:10288000A60F9091A70F2817390708F059C007E045
:1028900010E0B501C7010E94A312E1E0E9831B86A5
:1028A0008601612C2B852E0D3F2D311D3987288700
:1028B000802F8C199091F80F891708F059C03A852C
:1028C0009B85E0E0391739F0E091F20FF091F30FBA
:1028D000E00FF11FE4910F5F1F4FF8E08F9FC001E1
:1028E00011249C012A0D3B1D3D832C83912C812CAE
:1028F0008E2F90E09F838E838091F50F6816C0F62F
:102900008E819F81082C02C0959587950A94E2F7E5
:1029100081709927E981EE23D1F0892BA9F4809168
:10292000A80F9091A90F0E9434116394FFEF8F1AA2
:102930009F0A28E082169104F9F6BACF80E05DCFB5
:102940001982ADCF6801ACCF852D942DECCF40918D
:10295000A80F5091A90F892B11F0452D542D6C8192
:102960007D81680D791D888599850E946312DDCF70
:102970003B853F5F3B878A85831720F70E941311B1
:102980000E947213C1010196E80EF91E739422CFC2
:10299000C7012B960FB6F894DEBF0FBECDBFDF91F7
:1029A000CF911F910F91FF90EF90DF90CF90BF904C
:1029B000AF909F908F907F906F905F904F903F90DF
:1029C0002F9008952F923F924F925F926F927F9235
:1029D0008F929F92AF92BF92CF92DF92EF92FF922F
:1029E0000F931F93CF93DF93EC018B014A01790181
:1029F000E61AF70AF7FE03C0F194E194F1086401C6
:102A0000CC1ADD0AD7FE03C0D194C194D108CE14EC
:102A1000DF0454F4982D892D4901292F382F9C2F3C
:102A20008D2FE801092F182F8C169D0650F4902F3A
:102A3000812F8901292F382F9C2F8D2FE401892E7A
:102A4000982E14012C1A3D0A2901401A510A57FEEA
:102A500003C0519441945108310137FE03C08FEFF8
:102A6000681A780A75946794AA24AA94BA2C021753
:102A7000130718F4AA24A394B12C0E94EF118C160A
:102A80009D06A8F04FEF5FEFBE01C801CE14DF0432
:102A900014F0B801CE010E9463126418750877FE25
:102AA00004C00A0D1B1D620C731C2196E8CFDF9138
:102AB000CF911F910F91FF90EF90DF90CF90BF903B
:102AC000AF909F908F907F906F905F904F903F90CE
:102AD0002F900C9413118150823108F05AC0E82FC6
:102AE000F0E08827E958FA4E8F4F0C949D429715D5
:102AF0009B1589158F159315C9159E15A415A81535
:102B0000AE15B215B615BC15C015C915C415CA1534
:102B1000CE15809180008F778093800008958091FA
:102B200080008F7DF9CF80918000877FF5CF84B5BD
:102B30008F7784BD089584B58F7DFBCF8091B000E1
:102B40008F778093B00008958091B0008F7DF9CF8A
:102B5000809190008F7780939000089580919000ED
:102B60008F7DF9CF80919000877FF5CF8091A00075
:102B70008F778093A00008958091A0008F7DF9CF7A
:102B80008091A000877FF5CF809120018F7780937F
:102B900020010895809120018F7DF9CF809120013F
:102BA000877FF5CFCF93DF93282F30E0F901E85DE1
:102BB000FE4D8491F901EE51FF4DD491F901E45697
:102BC000FF4DC491CC23A1F081110E946B15EC2F15
:102BD000F0E0EE0FFF1FEE57FF4DA591B491EC9181
:102BE000ED2381E090E009F480E0DF91CF9108953A
:102BF00080E090E0FACFCF93DF93EC0188810E94D0
:102C0000D215892B39F481E08983EC81FD81DF9134
:102C1000CF9119941982EA81FB81F9CF1F93CF9349
:102C2000DF93282F30E0F901E85DFE4D8491F90132
:102C3000EE51FF4DD491F901E456FF4DC491CC23E0
:102C4000A9F0162F81110E946B15EC2FF0E0EE0F0A
:102C5000FF1FE859FF4DA591B4918FB7F894EC91FF
:102C6000111108C0D095DE23DC938FBFDF91CF9187
:102C70001F910895DE2BF8CFCF93DF9390E0FC01F6
:102C8000EE51FF4D249184569F4DFC018491882381
:102C9000C9F090E0880F991FFC01E25BFF4DA59100
:102CA000B491FC01E859FF4DC591D49161110DC05B
:102CB0009FB7F8948C91209582238C938881282348
:102CC00028839FBFDF91CF910895623051F49FB761
:102CD000F8943C91822F809583238C93E8812E2B4E
:102CE000EFCF8FB7F894EC912E2B2C938FBFEACFB8
:102CF0001F93CF93DF938093F10F1091AF0F1123A8
:102D000009F43FC0C091BF0FD0E0811102C0D0E0F4
:102D1000C0E061E0812F0E943C16209739F460E00A
:102D2000812FDF91CF911F910C940E16CF3FD105CB
:102D300011F461E0F5CFE12FF0E0E85DFE4DE491A4
:102D4000E150E23108F0B3C0F0E08827E555F94ED4
:102D50008F4F0C949D42BD16C516CA16D416DE16AA
:102D60005717E816F016F81602170C17161725173E
:102D70002F175717391743174D1784B5806884BD2F
:102D8000C7BDDF91CF911F91089584B5806284BD46
:102D9000C8BDF7CF80918000806880938000D09379
:102DA0008900C0938800EDCF80918000806280937D
:102DB0008000D0938B00C0938A00E3CF8091800085
:102DC000886080938000D0938D00C0938C00D9CF11
:102DD0008091B00080688093B000C093B300D1CFE1
:102DE0008091B00080628093B000C093B400C9CFDE
:102DF00080919000806880939000D0939900C09358
:102E00009800BFCF80919000806280939000D09313
:102E10009B00C0939A00B5CF80919000886080930A
:102E20009000D0939D00C0939C00ABCF8091A000F8
:102E300080688093A0008091A0008F7B8093A00089
:102E4000D093A900C093A8009CCF8091A00080627D
:102E50008093A000D093AB00C093AA0092CF809142
:102E6000A00088608093A000D093AD00C093AC0018
:102E700088CF80912001806880932001D093290120
:102E8000C09328017ECF8091200180628093200131
:102E9000D0932B01C0932A0174CF809120018860C8
:102EA00080932001D0932D01C0932C016ACFC038AC
:102EB000D1050CF03ECF33CF90917B00977F90935C
:102EC0007B008653806480937C0080917A008064CC
:102ED00080937A0080917A0086FDFCCF8091780003
:102EE0009091790008953FB7F8948091850B909167
:102EF000860BA091870BB091880B26B5A89B05C0C7
:102F00002F3F19F00196A11DB11D3FBFBA2FA92F68
:102F1000982F8827BC01CD01620F711D811D911D65
:102F200042E0660F771F881F991F4A95D1F70895D1
:102F30008F929F92AF92BF92CF92DF92EF92FF92C9
:102F40004B015C010E9473176B017C010E94731797
:102F50006C197D098E099F09683E734081059105B2
:102F6000A8F321E0821A9108A108B10888EEC80EE2
:102F700083E0D81EE11CF11C81149104A104B1046A
:102F800029F7FF90EF90DF90CF90BF90AF909F9088
:102F90008F900895CF92DF92EF92FF920F931F933D
:102FA000CF93C091BE0F1092BE0F80EBC82ED12CD4
:102FB000D092A50FC092A40F9CEDE92EF12CF092B7
:102FC000A70FE092A60F10E000E02BED30E04FEAF3
:102FD00050E070E060E090E080E00E948A13C370EF
:102FE000C093BE0FC130B9F0C330A9F0D092A50F85
:102FF000C092A40FF092A70FE092A60F6AE070E0D3
:1030000080E090E0CF911F910F91FF90EF90DF90C3
:10301000CF900C9498178CED90E09093A50F80932F
:10302000A40F80EB90E09093A70F8093A60FE6CFBC
:103030002FB7F8946091810B7091820B8091830B74
:103040009091840B2FBF0895E1E02091D60A309132
:10305000D70A4091D80A5091D90A6091DA0A709142
:10306000DB0A8091DC0A9091DD0AA0E00E944F43C8
:1030700009F4E0E08E2F0895AF92BF92CF92DF92D5
:10308000EF92FF920F931F93CF93DF936C017B011D
:103090008B01040F151FEB015E01AE18BF08C017AE
:1030A000D10759F06991D601ED91FC910190F08121
:1030B000E02DC6011995892B79F7C501DF91CF91D4
:1030C0001F910F91FF90EF90DF90CF90BF90AF9046
:1030D0000895FC01538D448D252F30E0842F90E01E
:1030E000821B930B541710F0CF9608950197089503
:1030F000FC01918D828D981761F0A28DAE0FBF2FCC
:10310000B11D5D968C91928D9F5F9F73928F90E021
:1031100008958FEF9FEF0895FC01918D828D981790
:1031200031F0828DE80FF11D858D90E008958FEFCD
:103130009FEF0895FC01918D228D892F90E0805C96
:103140009F4F821B91098F739927089581E99BE016
:103150000E949A1821E0892B09F420E0822F08951B
:103160008EE29CE00E949A1821E0892B09F420E06D
:10317000822F0895FC01A48DA80FB92FB11DA35A69
:10318000BF4F2C91848D90E001968F739927848F87
:10319000A689B7892C93A089B1898C9183708064AA
:1031A0008C93938D848D981306C00288F389E02D4B
:1031B00080818F7D80830895EF92FF920F931F93FC
:1031C000CF93DF93EC0181E0888F9B8D8C8D9813DA
:1031D0001AC0E889F989808185FF15C09FB7F894E6
:1031E000EE89FF896083E889F98980818370806432
:1031F00080839FBF81E090E0DF91CF911F910F917D
:10320000FF90EF900895F62E0B8D10E00F5F1F4F8B
:103210000F731127E02E8C8D8E110CC00FB607FC9A
:10322000FACFE889F989808185FFF5CFCE010E9428
:10323000BA18F1CFEB8DEC0FFD2FF11DE35AFF4FC4
:10324000F0829FB7F8940B8FEA89FB8980818062B6
:10325000CFCFCF93DF93EC01888D8823B9F0AA8973
:10326000BB89E889F9898C9185FD03C0808186FD41
:103270000DC00FB607FCF7CF8C9185FFF2CF808190
:1032800085FFEDCFCE010E94BA18E9CFDF91CF9133
:10329000089580E090E0892B29F00E94B0188111F8
:1032A0000E94000080E090E0892B49F080E090E0EF
:1032B000892B29F00E94000081110E94000080E00B
:1032C00090E0892B49F080E090E0892B29F00E9462
:1032D000000081110E94000080E090E0892B29F01D
:1032E0000E94A61881110C940000089581E020919D
:1032F0003A0230913B02232B09F080E008950F93AE
:103300001F93CF93DF938C01CFE0DEE0CE018F508F
:103310009E408017910734F4699181E99BE00E94F7
:10332000DC18F4CFDF91CF911F910F9108950F9387
:103330001F930E9418180091060210910702209115
:10334000080230910902601B710B820B930B21E084
:10335000693B7B408105910508F420E0822F1F9195
:103360000F9108954F3651056105710571F0423096
:1033700051056105710548F04F7D81E04D345105DF
:103380006105710519F080E0089581E00895FB0161
:103390009081892790E1899F90011124822790E0F4
:1033A000382F2227AC0163E0440F551F6A95E1F7DF
:1033B00024273527418150E02427352774E095954F
:1033C00087957A95E1F782279327918380830895E3
:1033D0000F931F93CF93DF931F921F92CDB7DEB74A
:1033E0008C01862FF801208131813A832983BE0127
:1033F0006F5F7F4F0E94C71989819A81F80191837D
:1034000080830F900F90DF91CF911F910F910895BE
:103410002F923F924F925F926F927F928F929F92E4
:10342000AF92BF92CF92DF92EF92FF920F931F93D2
:10343000CF93DF93CDB7DEB7A4970FB6F894DEBF76
:103440000FBECDBFFC019C01205C3F4F8C01D80119
:103450006D917D918D919D91AD010E94A542D80104
:103460006D937D938D939C9313978A014217530715
:1034700071F7DA018D909D90AD90BC908D829E8207
:10348000AF82B886DF01AC5BBF4F8D909D90AD9051
:10349000BC9013978D869E86AF86B88A14960D9140
:1034A0001D912D913C911397098B1A8B2B8B3C8B83
:1034B00014962D913D914D915C9113972F8F38A3C8
:1034C00049A35AA314968D909D90AD90BC901397EC
:1034D00089829A82AB82BC8214960D911D912D91A6
:1034E0003C9113970D8B1E8B2F8B388F14962D913B
:1034F0003D914D915C911397298F3A8F4B8F5C8F43
:1035000014968D909D90AD90BC9089869A86AB86DE
:10351000BC860CE712E01E8F0D8F312C212CD101BF
:1035200010E1211631040CF021C2AA0FBB1FAA0F13
:10353000BB1FAE0FBF1FCD90DD90ED90FC90AD8D09
:10354000BE8D0D911D912D913D91BE8FAD8F498105
:103550005A816B817C818AE1440F551F661F771F5A
:103560008A95D1F789809A80AB80BC8096E0B6942A
:10357000A794979487949A95D1F7482959296A294D
:103580007B2949805A806B807C80A5E1440C551CC6
:10359000661C771CAA95D1F789819A81AB81BC8181
:1035A000072E7BE0B695A795979587957A95D1F7E5
:1035B000702D84299529A629B729482759276A27D4
:1035C0007B2749805A806B807C8089E17694679460
:1035D000579447948A95D1F789819A81AB81BC81B0
:1035E000689416F8880F991FAA1FBB1F1694D1F76D
:1035F00084299529A629B7292A013B01482659265D
:103600006A267B2649815A816B817C814095509541
:1036100060957095898C9A8CAB8CBC8C4821592113
:103620006A217B2189819A81AB81BC818D889E88AA
:10363000AF88B88C88219921AA21BB21842795279E
:10364000A627B727B301A201480F591F6A1F7B1F86
:10365000400F511F621F731FC40ED51EE61EF71EBA
:1036600009851A852B853C850C0D1D1D2E1D3F1DC2
:103670008D809E80AF80B8848EE1880C991CAA1C36
:10368000BB1C8A95D1F74D805E806F80788492E074
:1036900076946794579447949A95D1F784289528FF
:1036A000A628B7284D815E816F817885A3E1440FFC
:1036B000551F661F771FAA95D1F78D819E81AF8117
:1036C000B885072E7DE0B695A795979587957A954D
:1036D000D1F7702D842B952BA62BB72B88269926F6
:1036E000AA26BB264D815E816F81788586E176951D
:1036F0006795579547958A95D1F78D819E81AF81C2
:10370000B885072E7AE0880F991FAA1FBB1F7A95EC
:10371000D1F7702D842B952BA62BB72BB501A401C7
:10372000482759276A277B278D849E84AF84B888D1
:1037300089899A89AB89BC8988269926AA26BB26BD
:103740008D819E81AF81B88588229922AA22BB22D1
:10375000CD84DE84EF84F88889899A89AB89BC8915
:10376000C822D922EA22FB22C824D924EA24FB2435
:10377000C40ED51EE61EF71E4F8C58A069A07AA075
:10378000400E511E621E731EC00ED11EE21EF31E9D
:103790009FEF291A390A89889A88AB88BC888F8E4E
:1037A00098A2A9A2BAA2098D1A8D2B8D3C8D0987EA
:1037B0001A872B873C8710E42116310409F0ADC02D
:1037C000DF01A05CBF4F0D911D912D913C9113978E
:1037D000C00ED11EE21EF31ECD92DD92ED92FC9240
:1037E000139714964D915D916D917C9113978D80F7
:1037F0009E80AF80B884480D591D6A1D7B1D4D9376
:103800005D936D937C93139714964D915D916D919B
:103810007C9113970D851E852F853889400F511F88
:10382000621F731F4D935D936D937C931397149652
:103830004D915D916D917C91139789889A88AB88A1
:10384000BC88480D591D6A1D7B1D4D935D936D937A
:103850007C93139714964D915D916D917C91139784
:10386000440E551E661E771E4D925D926D927C929F
:10387000139714964D915D916D917C9113970981E9
:103880001A812B813C81400F511F621F731F4D9382
:103890005D936D937C931397BF01685A7F4FDB0153
:1038A000CD90DD90ED90FC9013978D889E88AF8829
:1038B000B88CC80CD91CEA1CFB1CCD92DD92ED9291
:1038C000FC921397E45AFF4F80819181A281B381CA
:1038D000898C9A8CAB8CBC8C880D991DAA1DBB1D44
:1038E00080839183A283B383A4960FB6F894DEBF3E
:1038F0000FBECDBFDF91CF911F910F91FF90EF9041
:10390000DF90CF90BF90AF909F908F907F906F90FF
:103910005F904F903F902F9008952D893E894F8959
:10392000588D298F3A8F4B8F5C8F89819A81AB811B
:10393000BC818D8B9E8BAF8BB88F49825A826B82F4
:103940007C828D849E84AF84B888898A9A8AAB8A67
:10395000BC8A0D811E812F8138850D871E872F8798
:10396000388BCD82DE82EF82F886D9CD1297AF7088
:10397000BB27AA0FBB1FAA0FBB1FAE0FBF1F0D9106
:103980001D912D913C91D1011F97AF70BB27AA0FBC
:10399000BB1FAA0FBB1FAE0FBF1F4D915D916D9155
:1039A0007C91C1018F709927880F991F880F991FEB
:1039B000DF01A80FB91FBCA3ABA3D1011797AF704C
:1039C000BB27AA0FBB1FAA0FBB1FAE0FBF1FCD90F7
:1039D000DD90ED90FC90ABA1BCA18D909D90AD9041
:1039E000BC90C80CD91CEA1CFB1C480159019FE083
:1039F000880C991CAA1CBB1C9A95D1F7D901C80147
:103A0000072E71E1B695A795979587957A95D1F789
:103A1000702D882A992AAA2ABB2AD901C801072E03
:103A20007DE0880F991FAA1FBB1F7A95D1F7702DD3
:103A300028013901032E33E1769467945794479413
:103A40003A95D1F7302D84299529A629B7298825BB
:103A50009925AA25BB250F2EFAE0369527951795AF
:103A60000795FA95D1F7F02D80279127A227B32744
:103A7000C80ED91EEA1EFB1E8A019B0187E03695FF
:103A80002795179507958A95D1F7DB01CA01072E6F
:103A900079E1880F991FAA1FBB1F7A95D1F7702D66
:103AA000082B192B2A2B3B2BDB01CA01072E7EE0AA
:103AB000880F991FAA1FBB1F7A95D1F7702D2A0175
:103AC0003B01032E32E176946794579447943A95DC
:103AD000D1F7302D84299529A629B7298027912748
:103AE000A227B32723E076956795579547952A95A2
:103AF000D1F784279527A627B727C80ED91EEA1E17
:103B0000FB1EABA1BCA1CD92DD92ED92FC9213976E
:103B100016CD0F931F9310E000E028EC30E040EB4F
:103B200050E066E970E090E080E00E948A131F9107
:103B30000F9108950F931F9310E000E02DED30E0FA
:103B400040EB50E068EC70E090E080E00E948A1367
:103B50001F910F910895ECEAF4E0F093F30FE093D6
:103B6000F20FE491E093F40FEDEAF4E08491809396
:103B7000F50FEEEAF4E0E491E093F60FEFEAF4E0FB
:103B8000E491E093F70F982F9695969596959093DC
:103B9000F80F1092F90F877019F09F5F9093F80F4C
:103BA0000895E8E0F2E0F093F30FE093F20FE49170
:103BB000E093F40FE9E0F2E084918093F50FEAE0FE
:103BC000F2E0E491E093F60FEBE0F2E0E491E093B1
:103BD000F70F982F9695969596959093F80F1092CB
:103BE000F90F877019F09F5F9093F80F0895CF92A7
:103BF000DF92EF92FF92CF93DF93EC016A017B019A
:103C000088810E94D2159C0181E090E02115310548
:103C100011F090E080E09A8389838D819E81AF814D
:103C2000B885232BC9F4181619061A061B062CF0A2
:103C3000EB81FC81309709F0199588E290E0A0E0D3
:103C4000B0E08D839E83AF83B887DF91CF91FF90E3
:103C5000EF90DF90CF9008958C199D09AE09BF09B0
:103C6000B7FF03C080E090E0DC018D839E83AF83CB
:103C7000B8871A821982E9CF83E090E090937A0B9B
:103C80008093790B089582E090E090937A0B809373
:103C9000790B089581E090E090937A0B8093790BF3
:103CA00008950F931F930E9418180091CE0510914C
:103CB000CF052091D0053091D105601B710B820B8F
:103CC000930B6D3D75408105910568F081E080930F
:103CD0007E0B0E9418186093CE057093CF058093D9
:103CE000D0059093D1051F910F9108950F931F93C5
:103CF0000E9418180091CA051091CB052091CC059F
:103D00003091CD05601B710B820B930B6D3D75409F
:103D10008105910568F081E080937F0B0E9418185F
:103D20006093CA057093CB058093CC059093CD0525
:103D30001F910F91089581E08093780B089581E0A1
:103D400080937B0B089581E080937C0B0895109203
:103D50007D0B089581E080937D0B08958F929F9253
:103D6000AF92BF92EF92FF920F931F93CF93DF9387
:103D70008C014A015B017901FC011995C0918B0B03
:103D8000D0918C0B82E190E02097D1F50E946F4397
:103D9000FC01108211821282138214821582168213
:103DA0001782138612861586148617861686118A40
:103DB000108A90938C0B80938B0B90938A0B80933B
:103DC000890B11861086E0918B0BF0918C0B158777
:103DD0000487108211821282138284829582A682C5
:103DE000B782F386E28617861686DF91CF911F9100
:103DF0000F91FF90EF90BF90AF909F908F9008959C
:103E00000E946F43FC01108211821282138214827D
:103E100015821682178213861286158614861786D7
:103E20001686118A108A998B888B888599850196C8
:103E300091878087F0938C0BE0938B0BC4CFEF922C
:103E4000FF920F931F93CF93DF930097A1F1EC01A3
:103E5000E0908F0BF090900B0885198584E090E03E
:103E6000E114F104D1F40E946F43FC011382128229
:103E70009093900B80938F0B90938E0B80938D0B70
:103E800011830083EE85FF853097A9F0DF91CF91F4
:103E90001F910F91FF90EF9019940E946F43FC01C6
:103EA00013821282F701938382839093900B809305
:103EB0008F0BFC01E5CFDF91CF911F910F91FF9008
:103EC000EF9008958091890B90918A0B009751F0A3
:103ED000FC012089318930938A0B2093890B0E9441
:103EE0000B44F0CF80918D0B90918E0B009751F089
:103EF000FC012281338130938E0B20938D0B0E9425
:103F00000B44F0CF10928A0B1092890B10928C0BFD
:103F100010928B0B1092900B10928F0B0895CF92F2
:103F2000DF92EF92FF920F931F93CF93DF93C09195
:103F30008D0BD0918E0B209709F445C0E091890B31
:103F4000F0918A0B2881398180859185281739075E
:103F500059F48089918990938A0B8093890B0E94F0
:103F60000B440A80DB81C02D0091890B10918A0BD4
:103F7000D8015096ED91FC912097E9F03097D9F057
:103F8000E088F18828813981808591852817390753
:103F900079F4D8015096EC9250975196FC92E088B3
:103FA000F188C7010E940B440A80DB81C02DF80113
:103FB0008F01F701E1CF10928E0B10928D0B1092B2
:103FC000900B10928F0BC091890BD0918A0B209788
:103FD00051F1CC80DD80EE80FF800E9418180881AE
:103FE00019812A813B81601B710B820B930B6C152D
:103FF0007D058E059F0598F00E94181868837983C7
:104000008A839B83EA85FB85309731F01995882355
:1040100019F0CE010E941F1FEC85FD8519950888B7
:10402000D989C02DD4CFDF91CF911F910F91FF90EF
:10403000EF90DF90CF900895CF93DF93EC018881CC
:104040009981009711F00E940B44198218821D82F9
:104050001C821B821A82DF91CF910895FC0180811E
:104060009181009711F00C940B440895CF92DF9248
:10407000EF92FF920F931F93CF93DF93EC018B018D
:10408000FC01E05AFF4FC080D180E280F3809601AE
:104090002F73332783E0CC0CDD1CEE1CFF1C8A95AC
:1040A000D1F7C90101962C0F3D1F40E8F90140836B
:1040B0008933910578F040E450E0481B590B70E0DB
:1040C00060E08C0F9D1F0E948B45CE010E94081A54
:1040D00090E080E04CE350E0481B590B70E060E05A
:1040E0008C0F9D1F0E948B45FCAEEDAEDEAECFAEB9
:1040F000CE010E94081AFE01E05CFF4F2081318151
:1041000042815381CC5BDF4F8A819B81F8015083D0
:1041100041833283238394838583DF91CF911F91E1
:104120000F91FF90EF90DF90CF900895CF93DF93A2
:10413000EC01A881B981EB01E881F9811097F1F0D8
:104140003097B1F4EC018C819D81892BC9F08C9161
:1041500090E00BC0DB0114968D919C91892B81F02E
:10416000808190E0919581959109DF91CF9108959B
:10417000BF01CD01DF91CF910C949245309751F75B
:1041800090E080E0F2CF0F931F93CF93DF93EC0189
:1041900088819981009759F02A813B81261737073A
:1041A00030F081E0DF91CF911F910F9108958B0145
:1041B0006F5F7F4F0E949444009759F099838883E2
:1041C0001B830A832C813D81232B59F7FC0110822C
:1041D000E8CF80E0E7CFEF92FF920F931F93CF934A
:1041E000DF93EC01FB01E080F180E114F10411F1B7
:1041F0000481158101151105A9F08C819D81080F9D
:10420000191FB801CE010E94C320882399F028818C
:1042100039818C819D81B701820F931F0E949B453C
:104220001D830C83CE01DF91CF911F910F91FF90E1
:10423000EF900895CE010E941C20F4CFEF92FF92E0
:104240000F931F93CF93DF93EC017B018A01BA0197
:104250000E94C32081110BC0CE010E941C20CE0100
:10426000DF91CF911F910F91FF90EF9008951D83E3
:104270000C83B701888199810E949B45F0CFFB0197
:1042800001900020E9F73197AF01461B570B0C94C2
:104290001E210F931F93CF93DF93CDB7DEB76297A5
:1042A0000FB6F894DEBF0FBECDBF8C01CB01F80175
:1042B0001182108213821282158214824AE0BE019A
:1042C0006F5F7F4F0E94D23FBE016F5F7F4FC8017B
:1042D0000E943F2162960FB6F894DEBF0FBECDBF9D
:1042E000DF91CF911F910F9108950F931F93CF935B
:1042F000DF93CDB7DEB7A1970FB6F894DEBF0FBE40
:10430000CDBF8C01CB01BA01F8011182108213825A
:104310001282158214822AE0AE014F5F5F4F0E9425
:10432000DD3FBE016F5F7F4FC8010E943F21A19614
:104330000FB6F894DEBF0FBECDBFDF91CF911F91B6
:104340000F910895CF93DF93EC01FB018617970738
:1043500049F0608171816115710541F04481558199
:104360000E941E21CE01DF91CF9108950E941C2052
:10437000F9CFFC01118210821382128215821482FD
:104380000C94A221FC0111821082138212821582E8
:104390001482FB0101900020E9F73197AF01461B21
:1043A000570B0C941E21AF92BF92CF92DF92EF92E7
:1043B000FF920F931F93CF93DF936C015B017A0100
:1043C00089012417350720F48F2D7901042F182F28
:1043D00068E175E0C6010E94C221D5011496CD9115
:1043E000DC91EC16FD06E0F40C171D0708F4E8015B
:1043F000D501ED91FC911197EC0FFD1F10811082FA
:104400006D917C916E0D7F1DC60161157105A1F046
:104410000E943F21F50180819181C80FD91F188327
:10442000C601DF91CF911F910F91FF90EF90DF9028
:10443000CF90BF90AF9008950E941C20EBCF0F93B8
:104440001F93CF93DF9300D000D0CDB7DEB78C01A0
:104450000E94D11D6CE174E00115110539F068E28C
:1044600074E00130110511F064E374E0CE010196AF
:104470000E94C22125EE3FEAAE014F5F5F4F65E02B
:1044800070E085E090E00E94CA13CE0101960E9480
:104490002E200E94AB1D26960FB6F894DEBF0FBEED
:1044A000CDBFDF91CF911F910F9108950F931F936F
:1044B000CF93DF93CDB7DEB72C970FB6F894DEBF5E
:1044C0000FBECDBF8C0168E175E0CE0107960E945A
:1044D000C2210130110589F102301105B9F16DE1F8
:1044E00075E0CE0107960E943F211092C30A00E0BA
:1044F00018EFBE01695F7F4FCE0101960E94B9217E
:104500009801AE014F5F5F4F6CE270E085E090E094
:104510000E94CA13CE0101960E942E20CE0107965A
:104520000E942E202C960FB6F894DEBF0FBECDBF92
:10453000DF91CF911F910F91089560E474E0CE0157
:1045400007960E943F2100EE17E0D3CF61E574E0AB
:10455000CE0107960E943F210FE110E0CACF2091C3
:104560003A0230913B022817390741F090933B0201
:1045700080933A020E94562281E0089580E00895D7
:10458000EF92FF920F931F93CF93DF93CDB7DEB7D8
:1045900062970FB6F894DEBF0FBECDBF8C017B01D2
:1045A000FC01248135818091041090910510281719
:1045B000390741F460E070E1C8010E949620892B20
:1045C00009F472C0B80180E090E10E94A221F0924B
:1045D0000502E0920402B701CE0107960E9449212C
:1045E00062E674E0CE0101960E94C221BE01695FBD
:1045F0007F4FCE0101960E94EB20BC01CE010D96AB
:104600000E94B92120E038EFAE01435F5F4F66E9B9
:1046100070E090E080E00E94CA13CE010D960E94E7
:104620002E20CE0101960E942E20CE0107960E94D8
:104630002E200E94D11DF801848195814C9708F4A9
:1046400040C02BE130E050E040E0B801CE010196DF
:104650000E94D32120E038EFAE014F5F5F4F6AEA3E
:1046600070E090E080E00E94CA13CE0101960E94A3
:104670002E20F801248135814BE150E0B801CE01B4
:1046800001960E94D32120E038EFAE014F5F5F4FCB
:1046900062EB70E090E080E00E94CA13CE010196C8
:1046A0000E942E200E94AB1D62960FB6F894DEBFCA
:1046B0000FBECDBFDF91CF911F910F91FF90EF9073
:1046C0000895B801CE0101960E94B92120E038EF8B
:1046D000AE014F5F5F4F6AEA70E0DCCF0F931F932C
:1046E000CF93DF93CDB7DEB762970FB6F894DEBFF6
:1046F0000FBECDBF8C0120910A1030910B10FC0130
:10470000848195812817390741F4B80186E090E14A
:104710000E949620892B09F45CC0B80186E090E1E4
:104720000E94A2210E949A1D0E94D11DF80184813D
:104730009581489708F458C026E130E050E040E009
:10474000B801CE0107960E94D3216BE674E0CE013A
:1047500001960E94C221BE01695F7F4FCE01019682
:104760000E94EB20BC01CE010D960E94B92120EEE3
:104770003FEFAE01435F5F4F68EC70E090E080E098
:104780000E94CA13CE010D960E942E20CE010196E2
:104790000E942E20CE0107960E942E20F80124812F
:1047A000358146E150E0B801CE0101960E94D32147
:1047B00020EE3FEFAE014F5F5F4F60ED70E090E0A5
:1047C00080E00E94CA13CE0101960E942E200E9412
:1047D000AB1D62960FB6F894DEBF0FBECDBFDF9162
:1047E000CF911F910F9108956BE674E0CE01019671
:1047F0000E94C221B801CE0101960E94EB20BC01AB
:10480000CE0107960E94B92120EE3FEFAE01495F2D
:104810005F4F68EC70E090E080E00E94CA13CE0128
:1048200007960E942E20CE0101960E942E20CFCF07
:104830004F925F926F927F928F929F92AF92BF92B0
:10484000CF92DF92EF92FF920F931F93CF93DF935C
:104850008C01EB0149015A01FC01E05AFF4F8081B4
:104860009181A281B3816C017D012FE3C222DD24FD
:10487000EE24FF24880D991DAA1DBB1D8083918302
:10488000A283B38381149104A104B10479F180E47B
:1048900090E0A0E0B0E08C199D09AE09BF092401A9
:1048A000350188159905AA05BB0510F42C013D01B9
:1048B000C8018C0D9D1DA201BE010E948245C40C41
:1048C000D51CE61CF71CC40DD51D84189508A60838
:1048D000B70880E4C816D104E104F10499F6C801D0
:1048E0000E94081AC12CD12C7601CCCFDF91CF9138
:1048F0001F910F91FF90EF90DF90CF90BF90AF90FE
:104900009F908F907F906F905F904F900895AF929F
:10491000BF92DF92EF92FF920F931F93CF93DF939B
:10492000EC018B01FB01D3808281645F7F4F8E3F5E
:1049300009F459C0ED2CF12CFB01EE0DFF1DDE2C0E
:1049400091E09E1538F497012150310992919923F5
:1049500009F463C08883D982F80184818A838581C0
:104960008B8386818C8387818D8380858E838185EF
:104970008F8381859285A385988781859285A3857C
:10498000A987A701CE010A960E948245FAE0EF0EA0
:10499000F11CCE0DDF1DF801848199E0F92E80FF16
:1049A0003AC08DE0F8019081988391819983A82E77
:1049B000B12C882341F0B8016A5E7E4FA501CE017B
:1049C00002960E948245C5018F0D911D03968D0DA3
:1049D000911DDF91CF911F910F91FF90EF90DF908C
:1049E000BF90AF9008958883D98286818A8387811A
:1049F0008B8380858C8381858D83438150E0CE01BC
:104A000006960E948245F801838190E00696C80FC1
:104A1000D91F25E0F22E80E0C5CF790190CF3F92DB
:104A20004F925F926F927F928F929F92AF92BF92BE
:104A3000CF92DF92EF92FF920F931F93CF93DF936A
:104A4000CDB7DEB7C857D1090FB6F894DEBF0FBE99
:104A5000CDBF6C013E2C8091E405582F527081FD32
:104A60001DC0E091E605F091E705309731F08081B7
:104A70002DE0522E11E080FD02C0512C10E08DEF90
:104A8000F60182833C96E00FF11D8291811103C0F3
:104A900001500130D1F78AE0482E09C08EEFD601CF
:104AA00012968C93022F512C96E0492E10E0D601DD
:104AB00013960C93139717966C93179718964C931D
:104AC000189711114CC014961C92D60115961C9281
:104AD00015978091DF0516968C9316978091DF05C8
:104AE0008F5F8093DF0512968C911297A6968FAFF9
:104AF000A69713968C911397A7968FAFA7971996A1
:104B00008D919D91AC91F60136812781552359F104
:104B1000A8963FAFA897A9962FAFA997AA964FAF8F
:104B2000AA97AB968FAFAB97A42CB12C8FEF9FEFCA
:104B30009A838983CE018B599F4F7C014C018A0C4B
:104B40009B1C9FEFE91AF90A8E149F0439F1BE01EC
:104B50006F5F7F4FD7018C910E94C719F2CF81E020
:104B6000F6018483B2CF5481A8965FAFA897558190
:104B7000A9965FAFA997AA963FAFAA97AB962FAF1A
:104B8000AB97AC964FAFAC97AD968FAFAD97AE9657
:104B90009FAFAE97AF96AFAFAF97C6CF89819A81DF
:104BA000E9969FAF8EAFE997F6016380712C76018D
:104BB000FCE0EF0EF11C470181E0681A7108BE01AC
:104BC00069587F4F9FEF6916790631F0D4018D91B6
:104BD0004D010E94C719F0CF832D0E94C719E89696
:104BE0009FADE897E9968FADE997D6011396EC91C2
:104BF0001397EE0DFF2DF11D90831396EC911397F3
:104C0000EE0DFF2DF11D81839C9311968C931197CE
:104C1000112309F4F4C00091E6051091E705011590
:104C2000110509F4ECC0F801808180FFE8C01396FB
:104C30007C9081814601FAEE8F1AFEEF9F0AD40123
:104C40008C93F8018281E0968FAFE0978381E196A3
:104C50008FAFE1978481E2968FAFE2978581E396EB
:104C60008FAFE3978681E4968FAFE4978781E596CF
:104C70008FAFE5978085E6968FAFE6978185E796BB
:104C80008FAFE79786E0FE01E159FF4F1196019043
:104C90000D928A95E1F7D80112962C9112971396EE
:104CA0003C91139714964C91149715965C91159717
:104CB00016966C91169717967C91179718968C916B
:104CC000189719969C91A1E00E943143F801228324
:104CD000338344835583668377838087918787E610
:104CE00096EEA9E0BAE625968CAF9DAFAEAFBFAF0A
:104CF000259785E89EEAA7E6BBEB29968CAF9DAF8A
:104D0000AEAFBFAF299782E793EFAEE6BCE32D9637
:104D10008CAF9DAFAEAFBFAF2D978AE395EFAFE4F9
:104D2000B5EA61968CAF9DAFAEAFBFAF61978FE72D
:104D300092E5AEE0B1E565968CAF9DAFAEAFBFAF8B
:104D400065978CE898E6A5E0BBE969968CAF9DAFC6
:104D5000AEAFBFAF69978BEA99EDA3E8BFE16D965F
:104D60008CAF9DAFAEAFBFAF6D9789E19DECA0EE6C
:104D7000BBE5A1968CAF9DAFAEAFBFAFA197A59697
:104D80001CAE1DAE1EAE1FAEA597B801665F7F4F6D
:104D900020E230E040E050E0CE0101960E9418246D
:104DA000242D30E050E040E0BE016B597F4FCE0132
:104DB00001960E941824272D30E050E040E0B70112
:104DC000CE0101960E941824B701670D711D22E0E3
:104DD00030E040E050E0CE0101960E94182427E028
:104DE00030E040E050E0B401CE0101960E9418246A
:104DF000B601635E7E4FCE0101960E943620D60139
:104E000013968C918A0D9B2D911D0296850D911DF7
:104E1000C858DF4F0FB6F894DEBF0FBECDBFDF918D
:104E2000CF911F910F91FF90EF90DF90CF90BF90A7
:104E3000AF909F908F907F906F905F904F903F903A
:104E400008958F929F92AF92BF92CF92DF92EF928E
:104E5000FF920F93882309F46DC080E090E0A0E8F2
:104E6000BFE38093400F9093410FA093420FB09304
:104E7000430FC090440FD090450FE090460FF09044
:104E8000470F80913F0F40913D0F50913E0F909101
:104E90003C0F20913B0FE091A20FF091A30F809067
:104EA000400F9090410FA090420FB090430F848626
:104EB0009586A686B786C08AD18AE28AF38A148A42
:104EC000158A168A178A108E118E128E138E148EE2
:104ED000158E168E178E10A211A212A213A214A262
:104EE00015A216A217A251A740A722A793A784A78D
:104EF0008CE490E0A0E081879287A38788E9E82E80
:104F000001E221E241E062E0CF010E940F256091C1
:104F1000A20F7091A30F8091A00F9091A10F0F91FC
:104F2000FF90EF90DF90CF90BF90AF909F908F90C9
:104F30000C94872480E090E0A0E0B0E492CF8F92C0
:104F40009F92AF92BF92CF92DF92EF92FF920F9318
:104F50001F93CF93DF93F62E142F682F70E090E00D
:104F600080E00E942E404B015C01CBE3DFE08CA689
:104F70009DA6AEA6BFA66F2D70E090E080E00E94D7
:104F80002E406B017C01C8AAD9AAEAAAFBAA612F0C
:104F900070E090E080E00E942E406CAB7DAB8EAB69
:104FA0009FAB2BA549A55AA538A5AFA1C2EADFE062
:104FB000E881F98184869586A686B786C08AD18ADB
:104FC000E28AF38A648B758B868B978B108E118E99
:104FD000128E138E148E158E168E178E10A211A29D
:104FE00012A213A214A215A216A217A251A740A79B
:104FF000A2A733A724A78CE490E0A0E08187928742
:10500000A38788E9E82E01E221E241E062E0CF01D6
:105010000E940F25688179818091A00F9091A10F46
:10502000DF91CF911F910F91FF90EF90DF90CF9084
:10503000BF90AF909F908F900C948724EF920F9326
:10504000CF93DF93BC01990F880B990B0E943040DE
:10505000EBE3FFE063A374A385A396A322A1A0A121
:10506000B1A1378D468DC2EADFE0E881F98164871E
:10507000758786879787108A118A128A138A148AFD
:10508000158A168A178A108E118E128E138E148E20
:10509000158E168E178E10A211A212A213A214A2A0
:1050A00015A216A217A2B1A7A0A742A733A724A7AB
:1050B0008CE490E0A0E081879287A38788E9E82EBE
:1050C00001E221E241E062E0CF010E940F25688108
:1050D00079818091A00F9091A10FDF91CF910F91D5
:1050E000EF900C948724CF92DF92EF92FF920F9370
:1050F000882309F461C080E090E0A0E8BFE38093DA
:10510000780F9093790FA0937A0FB0937B0FC09094
:10511000780FD090790FE0907A0FF0907B0F80910C
:10512000770F4091750F5091760F9091740F2091E9
:10513000730FE091A20FF091A30FC486D586E68687
:10514000F786108A118A128A138A148A158A168A97
:10515000178A108E118E128E138E148E158E168E47
:10516000178E10A211A212A213A214A215A216A2A7
:1051700017A251A740A722A793A784A78CE490E089
:10518000A0E081879287A38788E9E82E01E221E2E7
:1051900041E062E0CF010E940F256091A20F709163
:1051A000A30F8091A00F9091A10F0F91FF90EF900E
:1051B000DF90CF900C94872480E090E0A0E0B0E4F2
:1051C0009ECF2F923F924F925F926F927F928F92DB
:1051D0009F92AF92BF92CF92DF92EF92FF920F9386
:1051E0001F93CF93DF932091AC0A3091AD0A409189
:1051F000AE0A5091AF0A6091B00A7091B10A8091E5
:10520000B20A9091B30AA0E00E944F43A1F40E9419
:105210007317DC01CB016093AC0A9093AD0AA093A5
:10522000AE0AB093AF0A1092B00A1092B10A10926F
:10523000B20A1092B30A0E9473172B013C0120910D
:10524000D60A3091D70A4091D80A5091D90A609174
:10525000DA0A7091DB0A8091DC0A9091DD0AA09055
:10526000AC0AB090AD0AC090AE0AD090AF0AE09000
:10527000B00AF090B10A0091B20A1091B30A0E94EC
:105280003D43120151016301E12CF12C00E010E0DB
:105290000E9428432093960F3093970F4093980FC6
:1052A0005093990F60939A0F70939B0F80939C0F6C
:1052B00090939D0FA0919F0FB0919E0F40908E0FE5
:1052C00050908F0F6090900F7090910F8090920F80
:1052D0009090930FD091940FC091950FE091A20FF1
:1052E000F091A30F4486558666867786808A918AD8
:1052F000D28BC38B248B358B468B578B608F718FF2
:10530000828F938FB48FA58F8FE690E0A0E0818786
:105310009287A38782E2E82E02E120E141E062E089
:10532000CF010E940F256091A20F7091A30F809171
:10533000A00F9091A10F0E948724DF91CF911F9120
:105340000F91FF90EF90DF90CF90BF90AF909F9024
:105350008F907F906F905F904F903F902F900C9424
:105360007F19CF92DF92EF920F931F93CF93DF932A
:10537000C8EDD5E01C8522E02C873091820F50913A
:10538000800F70917F0F00917E0F82EAC82E8FE010
:10539000D82ED601ED91FC9140917D0F60917C0F4C
:1053A0008091810F90E0B0E0A0E084879587A68788
:1053B000B787008B718B528B338B248B11861286AF
:1053C000138692E3E92E09E029E0CF010E940F2520
:1053D0001C87F601608171818091A00F9091A10FCF
:1053E0000E948724DF91CF911F910F91EF90DF9062
:1053F000CF900C947F192F923F924F925F926F92B1
:105400007F928F929F92AF92BF92CF92DF92EF9254
:10541000FF920F931F93CF93DF93CDB7DEB7C75A99
:10542000D1090FB6F894DEBF0FBECDBF81E99BE076
:105430000E949A18892B11F40C94FF3281E99BE0A9
:105440000E9478188C01CD56DF4F8883C359D04015
:105450001092E10A2091E40A3091E50A21313105E8
:1054600008F03CC0F9018827E75CF54D8F4F0C949C
:105470009D42512A512AF12A0C2B232B2B2B352B01
:105480003F2B492B6B2B852B9D2BB52B432C432C72
:10549000AF2CAF2C81E090E09093E50A8093E40A72
:1054A000C5CF8091ED0ACD56DF4F2881C359D0403A
:1054B0002D3F09F081C022E030E03093E50A2093CF
:1054C000E40A10922306009322068E7F8093ED0A51
:1054D0008FEF9FEF90932106809320068091E10A41
:1054E0008130A9F42091E90A3091EA0A90912606C8
:1054F0009093E70A2115310521F41092EC0A1092DD
:10550000EB0A2F5F3F4F3093EA0A2093E90A90910C
:1055100023069093EF0C2091E40A3091E50A309332
:10552000C80A2093C70A9091E60A9093C90A9091FD
:10553000E70A9F5F9093CA0A2091E90A3091EA0A2C
:105540003093CD0A2093CC0A2091E30A30E03093C7
:10555000CF0A2093CE0A9091ED0A9093D00A109230
:10556000E30A823041F420913407309135073093BB
:10557000ED0C2093EC0C9EEF980F923008F046C48F
:1055800081E08093E30A1092E10ACD56DF4FF88163
:10559000C359D040FD3F09F07DCF82E090E0909369
:1055A000E50A8093E40A109223068FEF9FEF909311
:1055B0002106809320063ACFCD56DF4F3881C3595C
:1055C000D0403E3F11F00C94FB3222E030E03093AB
:1055D000E50A2093E40A10922306009322068160D4
:1055E00075CF009323061092E60A602F80E296E0C2
:1055F0000E94E8198091ED0A80FF07C010922406EE
:105600001092250685E090E002C083E090E0909340
:10561000E50A8093E40A62CF00932406C8018E7FD6
:105620009927892B41F08091E30A8F5F8093E30AE9
:1056300081E090E0ECCF602F80E296E00E94E819D4
:1056400084E090E0E4CF00932506602F80E296E0AE
:105650000E94E819D7CF00932606602F80E296E0DB
:105660000E94E81986E090E0D2CF00932706602FD1
:1056700080E296E00E94E81987E090E0C8CF0093AE
:105680002806602F80E296E00E94E81988E090E00A
:10569000BECFCD56DF4F4881C359D040842F90E014
:1056A000A0E08093290690932A06A0932B06602FF2
:1056B00080E296E00E94E8198091ED0A80FF08C020
:1056C00080912306882309F44DC08BE090E09FCFA2
:1056D00089E090E09CCF8091290690912A06A091C4
:1056E0002B06CD56DF4F5881C359D040952B809360
:1056F000290690932A06A0932B06602F80E296E05D
:105700000E94E8198AE090E082CF8091290690916A
:105710002A06A0912B06CD56DF4FB881C359D04041
:10572000AB2B8093290690932A06A0932B06602F1B
:1057300080E296E00E94E819C3CFE091E60A81E09A
:105740008E0F8093E60AF0E0E45DF94F0083602F4E
:1057500080E296E00E94E8199091E60A8091230683
:105760009813BCCE8CE090E052CF809129069091A6
:105770002A06A0912B06AC016A2F70E0EAE08E2E7B
:10578000912CA12CB12CC12CD12C76012AE0D7016F
:10579000C601880D991DAA1DBB1D0196A11DB11D35
:1057A000B695A79597958795289FF001299FF00DAD
:1057B0001124E458FC4F408051806280738044156E
:1057C00055056605770568F54C015D01E1E08E1A27
:1057D0009108A108B108C814D904EA04FB04B8F27E
:1057E0008AE08C9DF0018D9DF00D1124E458FC4F52
:1057F00080819181A281B381481759076A077B078D
:10580000C1F4648180E296E00E94E819809120064C
:1058100090912106992708171906A1F48DE090E0D0
:1058200013C06C017D014416550666067706C0F666
:10583000D2CF8EE090E09093E50A8093E40A009343
:1058400034074CCE8EE090E09093E50A8093E40A12
:10585000009334078091E60A9AE09C9DF0019D9D9B
:10586000F00D1124E458FC4F4681841708F036CE21
:1058700050E090E0481B590B70E060E0845D994F68
:105880000E948B452BCE2E303105B1F0F0912106D0
:10589000C456DF4FF883CC59D040C356DF4F18822F
:1058A000CD59D040C456DF4FE880F980CC59D04064
:1058B00081E00E151F0409F082E08093E10A009355
:1058C00035078091240680FF17C08091E10A82305D
:1058D00051F480E190E09093E50A8093E40A8DE032
:1058E0008093EE0AFBCD8FE090E09093E50A8093E1
:1058F000E40A1092E10AF3CFE091EF0AF091F00A86
:10590000309749F002A4F3A5E02D3097A9F48091D7
:10591000E10A823001F581E090E09093E50A8093FE
:10592000E40A83E291E0E0E2F6E0ACEEBCE0019054
:105930000D920197E1F7D2CD8091290690912A0628
:10594000A0912B06AC016A2F70E081EE9AE01995C8
:105950008111E1CFDCCF83E08093E10ADCCF80913D
:10596000EE0AEDE0F0E0E81BF109EA5CF84F008395
:1059700081508093EE0A81113EC68090EF0A90908C
:10598000F00A81E08114910409F4D0C12090F10A59
:105990003090F20A07E616EE29E03AE625960CAFBB
:1059A0001DAF2EAF3FAF259725E83EEA47E65BEBFC
:1059B00029962CAF3DAF4EAF5FAF299782E793EFAB
:1059C000AEE6BCE32D968CAF9DAFAEAFBFAF2D97CB
:1059D0001AE3E12E15EFF12E0FE415EA6196ECAE15
:1059E000FDAE0EAF1FAF61970FE712E52EE031E578
:1059F00065960CAF1DAF2EAF3FAF65972CE838E62C
:105A000045E05BE969962CAF3DAF4EAF5FAF69975C
:105A10008BEA99EDA3E8BFE16D968CAF9DAFAEAF79
:105A2000BFAF6D9789E19DECA0EEBBE5A1968CAF71
:105A30009DAFAEAFBFAFA197A5961CAE1DAE1EAE7B
:105A40001FAEA59720E230E040E050E0B401665F71
:105A50007F4FCE0101960E9418242AE030E040E0FA
:105A600050E062E276E0CE0101960E941824209177
:105A7000230630E050E040E06CE276E0CE01019693
:105A80000E94182422E030E040E050E064E377E038
:105A9000CE0101960E94182427E030E040E050E05B
:105AA00066E377E0CE0101960E941824BE016B5890
:105AB0007F4FCE0101960E94362046E050E06DE314
:105AC00077E0CE018B589F4F0E947545892B21F0BE
:105AD00082E090E0D4018FC050903607AE961FAEA2
:105AE000AE97AF961FAEAF97E0961FAEE097E196E8
:105AF0001FAEE197E2961FAEE297E3961FAEE397E3
:105B0000E4961FAEE497E5961FAEE59786E0E7E3DF
:105B1000F7E0DE01A359BF4F01900D928A95E1F79E
:105B20002114310411F1F10180819181E091270666
:105B300020912806D101712C612C86159705C1F0A2
:105B400013963C911397E3130BC014963C91149752
:105B5000231306C012963C911297531609F4F0C015
:105B6000FFEF6F1A7F0A1996E8CF83E090E0B2CF7B
:105B7000409718F084E090E0ADCFAE962FADAE9791
:105B8000AF963FADAF97E0964FADE097E1965FAD32
:105B9000E197E2966FADE297E3967FADE397E496E7
:105BA0008FADE497E5969FADE59720583247444A7C
:105BB0005F4F6F4F7F4F8F4F9F4FD4011296AC9026
:105BC00012971396BC9013971496CC901497159631
:105BD000DC9015971696EC9016971796FC901797F1
:105BE00018960C91189719961C9119970E94464384
:105BF000F0F485E090E09D969C938E939C97E091C5
:105C0000EF0AF091F00A02A4F3A5E02D80E03097AE
:105C100009F48CC08091290690912A06A0912B0648
:105C2000AC016A2F70E081EE9AE019957FC089E09F
:105C3000869DD001879DB00D1124A20DB31D139632
:105C4000EC9313978091280614968C9314971296D0
:105C50005C92C3010196F1019183808389E0869D66
:105C6000D001879DB00D11241596A20DB31D86E0BD
:105C7000E7E3F7E001900D928A95E1F7AE963FAC2D
:105C8000AE97AF965FACAF97E0966FACE097E196BA
:105C90007FACE197E2964FACE297E3962FACE397A7
:105CA000E496FFADE497E596EFADE597D401129643
:105CB000AC9012971396BC9013971496CC901497AF
:105CC0001596DC9015971696EC9016971796FC9003
:105CD000179718960C91189719961C911997232DC0
:105CE000352DA301642D722D8F2F9E2F0E944643C8
:105CF000C1F0B8F012963C92129713965C921397EB
:105D000014966C92149715967C92159716964C9251
:105D1000169717962C9217971896FC931897199622
:105D2000EC9381E090E0F40195A784A72091E40A28
:105D30003091E50A2031310509F063C082E00CCED4
:105D4000A6961FAEA697A7961FAEA797A8961FAEBA
:105D5000A897A9961FAEA997AA961FAEAA97AB9629
:105D60001FAEAB97AC961FAEAC97AD961FAEAD977E
:105D700089E0869DF001879DF00D11243596E20D96
:105D8000F31D86E0DE01AB59BF4F01900D928A955D
:105D9000E1F7AE962FADAE97AF963FADAF97E096D9
:105DA0004FADE097E1965FADE197E2966FADE29778
:105DB000E3967FADE397A696AFACA697A796BFAC48
:105DC000A797A896CFACA897A996DFACA997AA9653
:105DD000EFACAA97AB96FFACAB97AC960FADAC9778
:105DE000AD961FADAD97E4968FADE497E5969FAD68
:105DF000E5970E94464311F008F030CF86E090E02E
:105E000069CE882309F4A7CD81E0A6CD882309F4C3
:105E10000DCB8091F50C9091F60CA091F70C8D367E
:105E20009105A10509F469C38F369105A10509F40F
:105E30000BC1892B8A2B09F0F9CA9091F30C809140
:105E4000DD0C9813F3CA9091F40C8091DE0C98133A
:105E5000EDCA0E941818609306027093070280939F
:105E60000802909309028091FF0C8093EB0CC09084
:105E7000F80CD090F90CE090FA0CF090FB0CC0926A
:105E8000DF0C8091FD0C8093E00CC092E20CD0926C
:105E9000E30CE092E40CF092E50CC60183709927C4
:105EA000019790936D0B80936C0B0E941F229701BA
:105EB000860142E036952795179507954A95D1F7C3
:105EC00003701127C801019790936F0B80936E0B9D
:105ED00068E175E0CE018B599F4F0E94C2210230CC
:105EE000110509F46BC30330110509F471C30130C6
:105EF000110509F459C36BE874E0CE018B599F4F2B
:105F00000E943F210FEF1FEFBE016B597F4FCE0163
:105F100001960E94B9219801AE014F5F5F4F61E485
:105F200070E086E490E00E94CA13CE0101960E94C0
:105F30002E20CE018B599F4F0E942E20D701C601E3
:105F400024E0B695A795979587952A95D1F7837004
:105F50009927AA27BB270297A105B10509F442C3D7
:105F600082E090E00E94AF229701860186E036959C
:105F70002795179507958A95D1F70370112701503A
:105F80001109B801CE018B599F4F0E94492167EB3F
:105F900074E0CE018B589F4F0E94C221BE016B5806
:105FA0007F4FCE0183599F4F0E94B921BE016B598B
:105FB0007F4FCE0183599F4F0E94EB20BC01CE0141
:105FC00001960E94B921CE0101960E946E23CE0156
:105FD00001960E942E20CE0183599F4F0E942E20B1
:105FE000CE018B589F4F0E942E20CE018B599F4F80
:105FF0000E942E208091040290910502013011052B
:1060000009F0F3C28830910509F0EFC268EC74E042
:10601000CE0101960E94C22168E070E0CE01019697
:106020000E94C022CE0101960E942E201093770B71
:106030000093760B8D2D8F779FEF980F943608F095
:10604000F5C98093C30AF2C98091040290910502B8
:10605000079711F40E94891D81E08093B40AE090B3
:10606000F80CCD56DF4FE882C359D040F090F90CC0
:10607000C556DF4FF882CB59D0400091FA0CC2567A
:10608000DF4F0883CE59D0401091FB0CC156DF4F33
:106090001883CF59D0402091FC0CC056DF4F288385
:1060A000C05AD0403091FD0CCF55DF4F3883C15AD4
:1060B000D0404091FE0CCE55DF4F4883C25AD040AD
:1060C0005091FF0CCD55DF4F5883C35AD040E0921A
:1060D000CB0CF092CC0C0093CD0C1093CE0C2093F3
:1060E000CF0C3093D00C4093D10C5093D20C4090F5
:1060F000000D5090010D6090020D7090030D809086
:10610000040D9090050D3090060D2090070D4092E3
:10611000D30C5092D40C6092D50C7092D60C809215
:10612000D70C9092D80C3092D90C2092DA0C0E94A5
:106130007317CC55DF4F688379838A839B83C45A56
:10614000D0402091D60A3091D70A4091D80A509178
:10615000D90A6091DA0A7091DB0A8091DC0A909189
:10616000DD0AA090AC0AB090AD0AC090AE0AD09003
:10617000AF0AE090B00AF090B10A0091B20A109113
:10618000B30A0E943D43520163017401032D122D95
:106190000E943D43CC55DF4FE880F9800A811B8186
:1061A000C45AD04057016801E12CF12C00E010E006
:1061B0000E94284301E00E940D43CD56DF4FA88086
:1061C000C359D040C556DF4FB880CB59D040C256D6
:1061D000DF4FC880CE59D040C156DF4FD880CF594D
:1061E000D040C056DF4FE880C05AD040CF55DF4F77
:1061F000F880C15AD040CE55DF4F0881C25AD040F6
:10620000CD55DF4F1881C35AD0400E942843722ECB
:10621000832E942E652E562E472E382E292E20930F
:10622000D60A3093D70A4093D80A5093D90A60937C
:10623000DA0A7093DB0A8093DC0A9093DD0A0E94ED
:1062400073177B018C0120E030E0A901CD56DF4FB0
:106250006883C359D040CC56DF4FF882C459D04030
