:100000000C9436070C9467070C9467070C946707E9
:100010000C9467070C9467070C9467070C946707A8
:100020000C9467070C9467070C9467070C94670798
:100030000C9467070C9467070C9467070C94670788
:100040000C9467070C9467070C9467070C94670778
:100050000C9467070C9467070C9467070C94992C11
:100060000C9467070C940D2D0C94E32C0C946707EB
:100070000C9467070C9467070C9467070C94670748
:100080000C9467070C9467070C9467070C94670738
:100090000C9467070C9467070C9467070C94670728
:1000A0000C9467070C9467070C9467070C94670718
:1000B0000C9467070C9467070C9467070C94670708
:1000C0000C9467070C9467070C9467070C946707F8
:1000D0000C9467070C9467070C9467070C946707E8
:1000E0000C9467070C94550C0C94360C0C942B262E
:1000F0000C943A250C949E160C94DE160C94D32581
:100100000C9463260C946D0C0C945F0C0C94470CAF
:100110000C94A40D0C94CD230C94670C0C94320C0D
:100120000C94EF0D0C94432D0C942C0C0C943E0C61
:100130000C949D240C94710C0C94EE250C949A0D47
:100140000C94240F0C94670D0C94920D0C94630C7A
:100150000C94751D0C946C0D0C94160F0C9452108D
:100160000C946C0C0C94D6160C94410C0C94CA167E
:100170000C94FA0F0C94A5160C940D260C9485275C
:100180000C941F270C944B0C0C94020F0C94052616
:100190000C94F90D0C943A0C0C9417260C949716A9
:1001A0000C9425360C9490160C94F30E0C94AE0D12
:1001B0000C9479260C94D10D0C94E50D0C948A0DB9
:1001C0000C94B7170C9421260C94C70D0C94760D43
:1001D0000C945F0D0C94800D0C9491260C94C60E1B
:1001E0000C94510C0C94B80D0C945C0F0C944B2691
:1001F0000C94590C0C94DB0D0C94A90F0C94CE1696
:100200000608206004000000000000050000065FF2
:100210000600060007030007030600247E247E2450
:100220000500242B6A1200060063130864630600AD
:100230003649562050040000070300000400003E29
:10024000410000040000413E00000600083E1C3E44
:1002500008060008083E0808040000E060000006E8
:10026000000808080808040000606000000600207C
:100270001008040206003E5149453E050000427F39
:100280004000060062514949460600224949493664
:1002900006001814127F1006002F49494931060044
:1002A0003C4A4949300600017109050306003649F8
:1002B0004949360600064949291E0400006C6C00B5
:1002C00000040000EC6C0000050008142241000648
:1002D00000242424242406000041221408060002DD
:1002E0000159090606003E415D551E06007E1111AA
:1002F000117E06007F4949493606003E41414122B0
:1003000006007F4141413E06007F494949410600C0
:100310007F0909090106003E4149497A06007F0824
:1003200008087F050000417F410006003040404042
:100330003F06007F0814224106007F4040404006EF
:10034000007F0204027F06007F0204087F06003E51
:100350004141413E06007F0909090606003E415120
:10036000215E06007F0909196606002649494932BF
:10037000060001017F010106003F4040403F0600AA
:100380001F2040201F06003F403C403F06006314F2
:100390000814630600070870080705007149454303
:1003A000000500007F4141000600020408102005FE
:1003B000000041417F000600040201020406808023
:1003C0008080808004000003070000060020545451
:1003D000547806007F444444380600384444442896
:1003E0000600384444447F0600385454540805003D
:1003F000087E090900060018A4A4A47C05007F0457
:10040000047800050000007D400005004080847DE8
:100410000005007F10284400050000007F40000612
:10042000007C0418047805007C0404780006003879
:10043000444444380600FC444444380600384444EC
:1004400044FC060044784404080600085454542030
:100450000500043E44240005003C40207C000600CA
:100460001C2040201C06003C6030603C05006C10E5
:10047000106C0005009CA0603C0005006454544CC6
:10048000000500083E41410004000000770000061E
:10049000000041413E080500020102010006003C47
:1004A0002623263C0B102060060000000000000000
:1004B0000000000000000000000000000000000735
:1004C0000000000000007C00FF33FF337C000000D0
:1004D00000000000000008000000003C003C00009C
:1004E0000000003C003C000000000000000B000287
:1004F000101E901FF0037E021E1E901FF0037E024E
:100500001E0010000900007804FC0CCC0CFF3FFF1B
:100510003FCC0CCC0F8807000000000B00303838AF
:10052000381C380E00078003C001E03870383838B6
:100530001C000A0000001FB83FFC31C621E2373E14
:100540001E1C1C00360022000006000000000000F7
:1005500027003F001F000000000000000000000016
:100560000800000000F003FC0FFE1F073801200107
:100570002000000000000008000000000120012011
:100580000738FE1FFC0FF003000000000000090008
:1005900000980CB80EE003F80FF80FE003B80E98BF
:1005A0000C00000000090000800180018001F00FB4
:1005B000F00F8001800180010000000006000000B3
:1005C00000000000B800F800780000000000000003
:1005D000000000090000800180018001800180018D
:1005E0008001800180010000000006000000000082
:1005F0000000380038003800000000000000000053
:10060000000B0018001C000E00078003C001E00072
:10061000700038001C000E000BF807FE1F061E03BA
:10062000338331C330633033301E18FE1FF8070A9E
:10063000000000000C300C300E30FF3FFF3F003058
:100640000030003000000B1C301E38073C033E0316
:10065000378333C331E33077303E301C300B0C0C22
:100660000E1C0738C330C330C330C330C330E73942
:100670007E1F3C0E0BC003E003700338031C030E07
:10068000030703FF3FFF3F000300030B3F0C7F1CEA
:10069000633863306330633063306330E338C31FE3
:1006A000830F0BC00FF01FF839DC30CE30C730C3DA
:1006B00030C330C339801F000F0B03000300030059
:1006C0000330033C030FC303F3003F000F0003009C
:1006D0000B000FBC1FFE39E730C330C330C330E717
:1006E00030FE39BC1F000F0B3C007E00E730C330EA
:1006F000C330C338C31CC30EE707FE03FC0006006B
:100700000000000000701C701C701C000000000045
:10071000000000000006000000000000709C70FC5B
:10072000707C00000000000000000000090000C014
:1007300000E001F00338071C0E0E1C0738033000E0
:100740000000000A000060066006600660066006A1
:1007500060066006600660060000090000033007BE
:10076000380E1C1C0E3807F003E001C0000000002A
:10077000000A1C001E00070003008337C337E30094
:1007800077003E001C0000000BF80FFE1F0718F357
:1007900033FB371B36FB37FB370736FE03F8010AFE
:1007A0000038003FE007FC061F061F06FC06E007B6
:1007B000003F003800000AFF3FFF3FC330C330C393
:1007C00030C330E730FE39BC1F000F00000AF003D1
:1007D000FC0F0E1C073803300330033007380E1CA3
:1007E0000C0C00000AFF3FFF3F03300330033003CF
:1007F0003007380E1CFC0FF00300000AFF3FFF3FDC
:10080000C330C330C330C330C330C33003300330D0
:1008100000000AFF3FFF3FC300C300C300C300C383
:1008200000C3000300030000000AF003FC0F0E1CCD
:1008300007380330C330C330C330C73FC63F000062
:100840000AFF3FFF3FC000C000C000C000C000C0A2
:1008500000FF3FFF3F0000080000000003300330AE
:10086000FF3FFF3F033003300000000000000A009C
:100870000E001E003800300030003000300038FF1D
:100880001FFF0700000AFF3FFF3FC000E001F00329
:1008900038071C0E0E1C0738033000000AFF3FFF0C
:1008A0003F003000300030003000300030003000B9
:1008B0003000000AFF3FFF3F1E007800E001E0012A
:1008C00078001E00FF3FFF3F00000AFF3FFF3F0E82
:1008D000003800F000C0030007001CFF3FFF3F008E
:1008E000000AF003FC0F0E1C0738033003300738F2
:1008F0000E1CFC0FF00300000AFF3FFF3F83018343
:1009000001830183018301C701FE007C0000000A0E
:10091000F003FC0F0E1C073803300336073E0E1C95
:10092000FC3FF03300000AFF3FFF3F830183018358
:10093000038307830FC71DFE387C3000000A3C0C80
:100940007E1CE738C330C330C330C330C7398E1F75
:100950000C0F0000090000030003000300FF3FFF2D
:100960003F030003000300000000000AFF07FF1F11
:10097000003800300030003000300038FF1FFF0723
:1009800000000A07003F00F801C00F003E003EC013
:100990000FF8013F00070000000AFF3FFF3F001C67
:1009A0000006800380030006001CFF3FFF3F00009D
:1009B0000A03300F3C1C0E3003E001E00130031C41
:1009C0000E0F3C033000000A03000F003C00F00053
:1009D000C03FC03FF0003C000F00030000000A03CE
:1009E00030033C033E0333C331E33033301F300F59
:1009F00030033000000800000000FF3FFF3F0330DD
:100A00000330033003300000000000000B0E001C18
:100A10000038007000E000C00180030007000E00F5
:100A20001C001808000000000330033003300330BE
:100A3000FF3FFF3F0000000000000B600070003827
:100A4000001C000E0007000E001C00380070006043
:100A5000000B00C000C000C000C000C000C000C04B
:100A600000C000C000C000C007000000000000007F
:100A7000003E007E004E0000000000000000000A62
:100A8000001C403E6033603360336033603360335A
:100A9000E03FC03F00000AFF3FFF3FC030603060D2
:100AA0003060306030E038C01F800F00000A800FD7
:100AB000C01FE03860306030603060306030C01897
:100AC000800800000A800FC01FE03860306030608E
:100AD00030E030C030FF3FFF3F00000A800FC01FF2
:100AE000E03B60336033603360336033C0138001B8
:100AF000000008C000C000FC3FFE3FC700C300C3A9
:100B00000003000000000000000A8003C0C7E0CE20
:100B100060CC60CC60CC60CC60E6E07FE03F000061
:100B200009FF3FFF3FC000600060006000E000C0C0
:100B30003F803F00000000080000000000306030EF
:100B4000EC3FEC3F003000300000000000000800E7
:100B5000000000006000E000C060C0ECFFEC7F001F
:100B60000000000000090000FF3FFF3F0003800776
:100B7000C00FE01C603800300000000008000000DA
:100B80000000300330FF3FFF3F0030003000000026
:100B90000000000AE03FC03FE000E000C03FC03F6F
:100BA000E000E000C03F803F00000A0000E03FE0BE
:100BB0003F6000600060006000E000C03F803F00D8
:100BC000000A800FC01FE038603060306030603055
:100BD000E038C01F800F00000AE0FFE0FF600C60FB
:100BE00018601860186018E01CC00F800700000A29
:100BF0008007C00FE01C6018601860186018600C57
:100C0000E0FFE0FF00000A0000E03FE03FC00060BE
:100C100000600060006000E000C000000008C0113B
:100C2000E0336033603360336033603F401E000068
:100C3000000000000860006000FE1FFE3F603060A2
:100C400030603000300000000000000AE00FE01FBC
:100C5000003800300030003000300018E03FE03F46
:100C600000000A6000E0018007001E003800380024
:100C70001E8007E001600000000AE007E01F003866
:100C8000001CE00FE00F001C0038E01FE007000030
:100C9000096030E038C01D800F0007800FC01DE0E4
:100CA000386030000000000900006000E08180E74B
:100CB000007E001E8007E001600000000000096067
:100CC000306038603C60366033E031E030603020C6
:100CD00030000000000900008000C001FC1F7E3FC2
:100CE000077003600360036000000000060000005E
:100CF0000000000000FF3FFF3F0000000000000078
:100D000000000009000003600360036007707E3F7D
:100D1000FC1FC0018000000000000A100018000C39
:100D20000004000C001800100018000C0004000063
:100D3000000A000F800FC00C600C300C300C600CEF
:100D4000C00C800F000F00000000210024002700CD
:100D50002A002D00300033000101000004010701CA
:100D60000A0100002200250028002B002E0031007F
:100D7000340002010000050108010B010000200001
:100D80002300260029002C002F0032000001000063
:100D900003010601090105050505070508080808FE
:100DA000020202020A0A0808040404040101010103
:100DB00001010101030303030303030304070707FE
:100DC0000C0C0C0C0C0C0C0C0202020206060606A3
:100DD000060606060B0B0B0B0B0B0B0B0102102070
:100DE0002008081020401020408002010201080461
:100DF00002010102040810204080804020100804F5
:100E0000020180040201804020100804020108044D
:100E10000201010204081020408001020408102091
:100E2000408000000A0B02090C0D0E0807030401A4
:100E300000000000000000000000000000000000B2
:100E4000000000000000000000000000000012117F
:100E50001000000000000000000000000000000082
:100E60000000000000000000432D253611241FBEA5
:100E7000CFEFD1E2DEBFCDBF00E00CBF2FE0A2E29A
:100E8000B6E001C01D92AC3DB207E1F716E0A0E06C
:100E9000B2E0E4E4F8E700E00BBF02C007900D9277
:100EA000A232B107D9F717E0C5E3D7E000E006C0EA
:100EB00021970109802FFE010E94E238C433D10737
:100EC00080E00807A9F70E94212E0C94103C0C9496
:100ED0000000AC01E091800FF091810F8081909132
:100EE000890F892B8083E091840FF091850F808199
:100EF0009091880F90959823908380917A0F20E1AC
:100F000030E060E070E887FF12C05EBD0DB407FE00
:100F1000FDCF4EBD0DB407FEFDCFE091840FF091E3
:100F2000850F80819091880F892B80830895E091AF
:100F30007C0FF0917D0F9091860FDA01A623B723E5
:100F40008081AB2BD9F0982B9083E0917E0FF091AC
:100F50007F0F80819091870F892B8083E0917E0F96
:100F6000F0917F0F80819091870F909598239083C7
:100F70007695679521503109D1F6CFCF909598237A
:100F8000E3CF9C01E091800FF091810F80819091DF
:100F9000890F909598239083E091840FF091850FAD
:100FA00080819091880F90959823908380917A0FFB
:100FB00040E150E060E070E887FF12C01EBC0DB455
:100FC00007FEFDCF2EBD0DB407FEFDCFE091840FCF
:100FD000F091850F80819091880F892B80830895EF
:100FE000E0917C0FF0917D0F9091860FD901A6239F
:100FF000B7238081AB2BD9F0982B9083E0917E0FA3
:10100000F0917F0F80819091870F892B8083E091F1
:101010007E0FF0917F0F80819091870F909598239C
:1010200090837695679541505109D1F6CFCF909531
:101030009823E3CFCF93DF93EB010E94C107CE014A
:10104000DF91CF910C9469076FEA70E086E390E03E
:101050000E941A0870E060E087E390E00E941A089E
:101060006BED70E088E390E00E941A0870E060E0A9
:1010700089E390E00C941A088091C60F9091C70FF5
:10108000A091C80FB091C90F0197A109B109809330
:10109000C60F9093C70FA093C80FB093C90F892BA9
:1010A0008A2B8B2B49F4E091840FF091850F80817E
:1010B0009091880F892B808308958091C60F90911D
:1010C000C70FA091C80FB091C90FAC01BD014F5F10
:1010D0005F4F6F4F7F4F4093C60F5093C70F609382
:1010E000C80F7093C90F892B8A2B8B2B91F4809199
:1010F0007A0F87FF04C080E58CBD81E08DBDE09153
:10110000840FF091850F90818091880F80958923BD
:1011100080830895DC01FB0180918A0F8230B9F051
:10112000833069F1813051F58091720F9091730F86
:10113000019720813181821B930B918380832D91B4
:101140003C9111978D939C933183208308958091D6
:10115000700F9091710F01972D913C911197821B07
:10116000930B8D939C938091720F9091730F0197C5
:1011700020813181821B930B91838083089580911C
:10118000700F9091710F01972D913C911197821BD7
:10119000930B11969C938E93208131812D933C93D8
:1011A000EBCF0F931F93CF93DF9300D000D01F920C
:1011B0001F92CDB7DEB77C836B835E834D83388708
:1011C0002F832091700F3091710F21503109281712
:1011D000390708F4C9019A8389838D819E81281774
:1011E000390708F4C9019E838D838091720F909115
:1011F000730F01972B813C818217930708F49C01A0
:101200003C832B832F8138858217930708F49C0138
:1012100038872F83BE016D5F7F4FCE0101960E94FC
:101220008A08BE01695F7F4FCE0105960E948A0839
:101230002D813E8189819A812817390720F43A83CC
:1012400029839E838D832F8138858B819C812817EC
:10125000390720F43C832B8398878F830E945D0895
:10126000E0918A0F07E010E0EE2359F0E150FF0B08
:1012700024E0EE0FFF1F2A95E1F7E059F04F02A599
:1012800013A5B80183E0660F771F8A95E1F77061B7
:1012900083E090E00E941A086D817E8186E390E0F1
:1012A0000E941A0869817A8187E390E00E941A08F7
:1012B0006F81788588E390E00E941A086B817C81B9
:1012C00089E390E00E941A081595079501301105F1
:1012D00029F1ACF46D817E81012B11F182E290E065
:1012E0000E94C1070E943C0828960FB6F894DEBF02
:1012F0000FBECDBFDF91CF911F910F9108950230A6
:101300001105C9F069817A810330110539F780E24E
:1013100090E00E941A086B817C8108C069817A8103
:1013200080E290E00E941A086F81788581E290E067
:101330000E941A08D3CF6D817E81E9CFAF92BF9210
:10134000CF92DF92EF92FF920F931F93CF93DF9391
:101350006C015B01EA0179010E94D1080E945D08DD
:101360008FEFE81AF80AEA18FB082196CC19DD0974
:10137000EC9E6001ED9ED00CFC9ED00C1124C1149B
:10138000D10439F0C8010E94690781E0C81AD10868
:10139000F6CF0E943C08DF91CF911F910F91FF90F3
:1013A000EF90DF90CF90BF90AF900C9424080F93F4
:1013B0001F93CF93DF9300D01F92CDB7DEB79A83F0
:1013C00089837C836B832091700F3091710F82171A
:1013D000930720F52091720F3091730F62177307F6
:1013E000E8F48A01BE016D5F7F4FCE0101960E9435
:1013F0008A080E945D0869817A8180E290E00E94FB
:101400001A086B817C8181E290E00E941A08B80181
:1014100082E290E00E941A080E943C080F900F9010
:101420000F900F90DF91CF911F910F9108952F9200
:101430003F924F925F926F927F928F929F92AF9264
:10144000BF92CF92DF92EF92FF920F931F93CF93B1
:10145000DF93EC018B014A017901E61AF70AF7FEE6
:1014600003C0F194E194F1086401CC1ADD0AD7FEBF
:1014700003C0D194C194D108CE14DF0454F4982D44
:10148000892D4901292F382F9C2F8D2FE801092FF5
:10149000182F8C169D0650F4902F812F8901292F2B
:1014A000382F9C2F8D2FE401892E982E14012C1A91
:1014B0003D0A2901401A510A57FE03C05194419434
:1014C0005108310137FE03C08FEF681A780A75940E
:1014D0006794AA24AA94BA2C0217130718F4AA2412
:1014E000A394B12C0E945D088C169D06A8F04FEFC6
:1014F0005FEFBE01C801CE14DF0414F0B801CE01C5
:101500000E94D7096418750877FE04C00A0D1B1DD8
:10151000620C731C2196E8CFDF91CF911F910F9140
:10152000FF90EF90DF90CF90BF90AF909F908F9003
:101530007F906F905F904F903F902F900C943C085D
:10154000CF92DF92EF92FF920F931F93CF93DF938F
:101550006C018B01EA0179010E945D089701A601E7
:10156000B801C6010E94170A9801AE01B801C60170
:101570000E94170A9701AE01B701C6010E94170A1F
:101580009701AE01B801CE010E94170ADF91CF91F9
:101590001F910F91FF90EF90DF90CF900C943C083B
:1015A000EAEFFBE0A089B18982E08C93A485B58540
:1015B0001C92A685B78580E18C93108EA489B5898D
:1015C00086E08C93A289B3898C9180618C93A289E7
:1015D000B3898C9188608C93A289B3898C9180683F
:1015E0008C930288F389E02D80818F7D808308951C
:1015F0002F923F924F925F926F927F928F929F9223
:10160000AF92BF92CF92DF92EF92FF920F931F9310
:10161000CF93DF9300D000D000D01F921F92CDB7A0
:10162000DEB74B015C834B83422E3D838C01712CD2
:10163000272D30E0EB81FC818481958128173907C3
:1016400008F0D2C080819181009709F4A3C0820F75
:10165000931FFC018081F091C00FFA872091C40F85
:10166000F29F900111242F5F3F4F082E000C990B21
:101670004091C20F841B9109289F7001299FF00C93
:10168000389FF00C11248091C50F81110BC0E0919F
:10169000BE0FF091BF0F97012C5F3F4FE20FF31F7A
:1016A00034913A8785E0E80EF11C0E945D089A8526
:1016B000292E312CA8014F5F5F4F420D531D8091A1
:1016C000700F9091710F4817590708F065C020916D
:1016D000C10F2150330B280D391D8091720F90914D
:1016E000730F2817390708F057C0B401C8010E94CA
:1016F000D108662463941B866701512CEB85E00FAB
:10170000F12FF11DF987E8878C2D8E199091C40F68
:10171000891708F059C0FA852B85E0E0F21739F0F7
:10172000E091BE0FF091BF0FEC0DFD1DE4913FEF76
:10173000C31AD30AF8E08F9FC00111249C01280D21
:10174000391D3A832983B12CA12C8E2F90E09F83E1
:101750008E838091C10F5816B8F68E819F810A2C16
:1017600002C0959587950A94E2F7817099276620C3
:10177000D1F0892BA9F48091740F9091750F0E947C
:10178000690753949FEFA91AB90AE8E0AE16B104AD
:1017900001F7BACF80E05FCF612CADCF7601ACCF3F
:1017A000842D9D81ECCF4091740F5091750F892B42
:1017B00011F0442D5D8169817A816A0D7B1D8885D8
:1017C00099850E94D709DDCFFB85FF5FFB872A85BE
:1017D0002F1720F70E943C080E942408C10101969F
:1017E000080F191F739424CFC8012B960FB6F894D5
:1017F000DEBF0FBECDBFDF91CF911F910F91FF9044
:10180000EF90DF90CF90BF90AF909F908F907F90A0
:101810006F905F904F903F902F900895815082314C
:1018200008F05AC0E82FF0E08827E65EF34F8F4FAC
:101830000C94E2383A0C3E0C2C0C320C360C6C0C2E
:10184000410C470C4B0C510C550C590C5F0C630CA4
:101850006C0C670C6D0C710C809180008F778093FD
:1018600080000895809180008F7DF9CF8091800065
:10187000877FF5CF84B58F7784BD089584B58F7D3C
:10188000FBCF8091B0008F778093B0000895809156
:10189000B0008F7DF9CF809190008F77809390007A
:1018A0000895809190008F7DF9CF80919000877F7F
:1018B000F5CF8091A0008F778093A000089580914C
:1018C000A0008F7DF9CF8091A000877FF5CF809118
:1018D00020018F77809320010895809120018F7DD2
:1018E000F9CF80912001877FF5CFCF93DF93282F09
:1018F00030E0F901EE5DF14F8491F901E452F24FCD
:10190000D491F901EA56F24FC491CC23A1F0811190
:101910000E940E0CEC2FF0E0EE0FFF1FE458F24F88
:10192000A591B491EC91ED2381E090E009F480E081
:10193000DF91CF91089580E090E0FACF80913F024F
:101940000E94750C892B41F080913E020E94750C1B
:10195000892B21F081E0089580E0089582E00895C8
:101960001F93CF93DF93282F30E0F901EE5DF14F05
:101970008491F901E452F24FD491F901EA56F24F01
:10198000C491CC23A9F0162F81110E940E0CEC2FCC
:10199000F0E0EE0FFF1FEE59F24FA591B4918FB713
:1019A000F894EC91111108C0D095DE23DC938FBF21
:1019B000DF91CF911F910895DE2BF8CFCF93DF9366
:1019C00090E0FC01E452F24F24918A56924FFC01C0
:1019D00084918823C9F090E0880F991FFC01E85B8F
:1019E000F24FA591B491FC01EE59F24FC591D491FB
:1019F00061110DC09FB7F8948C91209582238C9330
:101A00008881282328839FBFDF91CF91089562307A
:101A100051F49FB7F8943C91822F809583238C9347
:101A2000E8812E2BEFCF8FB7F894EC912E2B2C93CF
:101A30008FBFEACF1F93CF93DF938093BD0F109199
:101A40007B0F112309F43FC0C0918B0FD0E08111AF
:101A500002C0D0E0C0E061E0812F0E94DE0C209740
:101A600039F460E0812FDF91CF911F910C94B00C7D
:101A7000CF3FD10511F461E0F5CFE12FF0E0EE5D4D
:101A8000F14FE491E150E23108F0B3C0F0E0882773
:101A9000E35BF24F8F4F0C94E2385F0D670D6C0DD6
:101AA000760D800DF90D8A0D920D9A0DA40DAE0DD7
:101AB000B80DC70DD10DF90DDB0DE50DEF0D84B59A
:101AC000806884BDC7BDDF91CF911F91089584B513
:101AD000806284BDC8BDF7CF80918000806880930C
:101AE0008000D0938900C0938800EDCF8091800062
:101AF000806280938000D0938B00C0938A00E3CFF4
:101B000080918000886080938000D0938D00C09386
:101B10008C00D9CF8091B00080688093B000C093D2
:101B2000B300D1CF8091B00080628093B000C093A9
:101B3000B400C9CF80919000806880939000D093CA
:101B40009900C0939800BFCF8091900080628093ED
:101B50009000D0939B00C0939A00B5CF80919000E5
:101B6000886080939000D0939D00C0939C00ABCF81
:101B70008091A00080688093A0008091A0008F7B5E
:101B80008093A000D093A900C093A8009CCF80911F
:101B9000A00080628093A000D093AB00C093AA0005
:101BA00092CF8091A00088608093A000D093AD0078
:101BB000C093AC0088CF8091200180688093200181
:101BC000D0932901C09328017ECF809120018062AB
:101BD00080932001D0932B01C0932A0174CF809170
:101BE0002001886080932001D0932D01C0932C01A7
:101BF0006ACFC038D1050CF03ECF33CF90917B0037
:101C0000977F90937B008653806480937C008091C3
:101C10007A00806480937A0080917A0086FDFCCF00
:101C2000809178009091790008953FB7F894809161
:101C3000EE0B9091EF0BA091F00BB091F10B26B54C
:101C4000A89B05C02F3F19F00196A11DB11D3FBFF4
:101C5000BA2FA92F982F8827BC01CD01620F711DC3
:101C6000811D911D42E0660F771F881F991F4A95BD
:101C7000D1F708958F929F92AF92BF92CF92DF9249
:101C8000EF92FF924B015C010E94150E6B017C01EB
:101C90000E94150E6C197D098E099F09683E7340DC
:101CA00081059105A8F321E0821A9108A108B108E5
:101CB00088EEC80E83E0D81EE11CF11C811491044B
:101CC000A104B10429F7FF90EF90DF90CF90BF906F
:101CD000AF909F908F900895CF92DF92EF92FF92F6
:101CE0000F931F93CF93C0918A0F10928A0F80EBAE
:101CF000C82ED12CD092710FC092700F9CEDE92E9E
:101D0000F12CF092730FE092720F10E000E02BEDD7
:101D100030E04FEA50E070E060E090E080E00E9448
:101D20009E09C370C0938A0FC130B9F0C330A9F0C7
:101D3000D092710FC092700FF092730FE092720FF9
:101D40006AE070E080E090E0CF911F910F91FF90EA
:101D5000EF90DF90CF900C943A0E8CED90E0909342
:101D6000710F8093700F80EB90E09093730F8093CE
:101D7000720FE6CF2FB7F8946091EA0B7091EB0BDE
:101D80008091EC0B9091ED0B2FBF0895AF92BF9215
:101D9000CF92DF92EF92FF920F931F93CF93DF9337
:101DA0006C017B018B01040F151FEB015E01AE1866
:101DB000BF08C017D10759F06991D601ED91FC9188
:101DC0000190F081E02DC6011995892B79F7C501A5
:101DD000DF91CF911F910F91FF90EF90DF90CF9007
:101DE000BF90AF900895FC01538D448D252F30E0B6
:101DF000842F90E0821B930B541710F0CF96089518
:101E000001970895FC01918D828D981761F0A28D44
:101E1000AE0FBF2FB11D5D968C91928D9F5F9F730A
:101E2000928F90E008958FEF9FEF0895FC01918DC0
:101E3000828D981731F0828DE80FF11D858D90E02D
:101E400008958FEF9FEF0895FC01918D228D892FCA
:101E500090E0805C9F4F821B91098F7399270895B2
:101E60008AEF9BE00E94240F21E0892B09F420E0F7
:101E7000822F0895FC01A48DA80FB92FB11DA35A7C
:101E8000BF4F2C91848D90E001968F739927848F9A
:101E9000A689B7892C93A089B1898C9183708064BD
:101EA0008C93938D848D981306C00288F389E02D5E
:101EB00080818F7D80830895EF92FF920F931F930F
:101EC000CF93DF93EC0181E0888F9B8D8C8D9813ED
:101ED0001AC0E889F989808185FF15C09FB7F894F9
:101EE000EE89FF896083E889F98980818370806445
:101EF00080839FBF81E090E0DF91CF911F910F9190
:101F0000FF90EF900895F62E0B8D10E00F5F1F4F9E
:101F10000F731127E02E8C8D8E110CC00FB607FCAD
:101F2000FACFE889F989808185FFF5CFCE010E943B
:101F30003A0FF1CFEB8DEC0FFD2FF11DE35AFF4F60
:101F4000F0829FB7F8940B8FEA89FB8980818062C9
:101F5000CFCFCF93DF93EC01888D8823B9F0AA8986
:101F6000BB89E889F9898C9185FD03C0808186FD54
:101F70000DC00FB607FCF7CF8C9185FFF2CF8081A3
:101F800085FFEDCFCE010E943A0FE9CFDF91CF91CF
:101F9000089580E090E0892B29F00E94300F811194
:101FA0000E94000080E090E0892B49F080E090E002
:101FB000892B29F00E94000081110E94000080E01E
:101FC00090E0892B49F080E090E0892B29F00E9475
:101FD000000081110E94000080E090E0892B49F010
:101FE00080E090E0892B29F00E94000081110C9480
:101FF0000000089581E020913C0230913D02232BA6
:1020000009F080E008959093C80B8093C70B0E945D
:10201000BA0E6093C30B7093C40B8093C50B90935F
:10202000C60B08951092C80B1092C70B1092C30BE9
:102030001092C40B1092C50B1092C60B08950F930B
:102040001F93CF93DF938C01CBEDDDE0CE018B5D51
:102050009D408017910734F469918AEF9BE00E94BC
:102060005C0FF4CFDF91CF911F910F9108950F93E3
:102070001F930E94BA0E00913602109137022091F0
:10208000380230913902601B710B820B930B21E0F7
:10209000693B7B408105910508F420E0822F1F9168
:1020A0000F9108954F3651056105710571F0423069
:1020B00051056105710548F04F7D81E04D345105B2
:1020C0006105710519F080E0089581E00895FB0134
:1020D0009081892790E1899F90011124822790E0C7
:1020E000382F2227AC0163E0440F551F6A95E1F7B2
:1020F00024273527418150E02427352774E0959522
:1021000087957A95E1F782279327918380830895B5
:102110000F931F93CF93DF931F921F92CDB7DEB71C
:102120008C01862FF801208131813A832983BE01F9
:102130006F5F7F4F0E94671089819A81F8019183B8
:1021400080830F900F90DF91CF911F910F91089591
:102150002F923F924F925F926F927F928F929F92B7
:10216000AF92BF92CF92DF92EF92FF920F931F93A5
:10217000CF93DF93CDB7DEB7A4970FB6F894DEBF49
:102180000FBECDBFFC019C01205C3F4F8C01D801EC
:102190006D917D918D919D91AD010E94EA38D8019C
:1021A0006D937D938D939C9313978A0142175307E8
:1021B00071F7DA018D909D90AD90BC908D829E82DA
:1021C000AF82B886DF01AC5BBF4F8D909D90AD9024
:1021D000BC9013978D869E86AF86B88A14960D9113
:1021E0001D912D913C911397098B1A8B2B8B3C8B56
:1021F00014962D913D914D915C9113972F8F38A39B
:1022000049A35AA314968D909D90AD90BC901397BE
:1022100089829A82AB82BC8214960D911D912D9178
:102220003C9113970D8B1E8B2F8B388F14962D910D
:102230003D914D915C911397298F3A8F4B8F5C8F15
:1022400014968D909D90AD90BC9089869A86AB86B1
:10225000BC8607E812E01E8F0D8F312C212CD10196
:1022600010E1211631040CF021C2AA0FBB1FAA0FE6
:10227000BB1FAE0FBF1FCD90DD90ED90FC90AD8DDC
:10228000BE8D0D911D912D913D91BE8FAD8F4981D8
:102290005A816B817C818AE1440F551F661F771F2D
:1022A0008A95D1F789809A80AB80BC8096E0B694FD
:1022B000A794979487949A95D1F7482959296A2920
:1022C0007B2949805A806B807C80A5E1440C551C99
:1022D000661C771CAA95D1F789819A81AB81BC8154
:1022E000072E7BE0B695A795979587957A95D1F7B8
:1022F000702D84299529A629B729482759276A27A7
:102300007B2749805A806B807C8089E17694679432
:10231000579447948A95D1F789819A81AB81BC8182
:10232000689416F8880F991FAA1FBB1F1694D1F73F
:1023300084299529A629B7292A013B01482659262F
:102340006A267B2649815A816B817C814095509514
:1023500060957095898C9A8CAB8CBC8C48215921E6
:102360006A217B2189819A81AB81BC818D889E887D
:10237000AF88B88C88219921AA21BB218427952771
:10238000A627B727B301A201480F591F6A1F7B1F59
:10239000400F511F621F731FC40ED51EE61EF71E8D
:1023A00009851A852B853C850C0D1D1D2E1D3F1D95
:1023B0008D809E80AF80B8848EE1880C991CAA1C09
:1023C000BB1C8A95D1F74D805E806F80788492E047
:1023D00076946794579447949A95D1F784289528D2
:1023E000A628B7284D815E816F817885A3E1440FCF
:1023F000551F661F771FAA95D1F78D819E81AF81EA
:10240000B885072E7DE0B695A795979587957A951F
:10241000D1F7702D842B952BA62BB72B88269926C8
:10242000AA26BB264D815E816F81788586E17695EF
:102430006795579547958A95D1F78D819E81AF8194
:10244000B885072E7AE0880F991FAA1FBB1F7A95BF
:10245000D1F7702D842B952BA62BB72BB501A4019A
:10246000482759276A277B278D849E84AF84B888A4
:1024700089899A89AB89BC8988269926AA26BB2690
:102480008D819E81AF81B88588229922AA22BB22A4
:10249000CD84DE84EF84F88889899A89AB89BC89E8
:1024A000C822D922EA22FB22C824D924EA24FB2408
:1024B000C40ED51EE61EF71E4F8C58A069A07AA048
:1024C000400E511E621E731EC00ED11EE21EF31E70
:1024D0009FEF291A390A89889A88AB88BC888F8E21
:1024E00098A2A9A2BAA2098D1A8D2B8D3C8D0987BD
:1024F0001A872B873C8710E42116310409F0ADC000
:10250000DF01A05CBF4F0D911D912D913C91139760
:10251000C00ED11EE21EF31ECD92DD92ED92FC9212
:10252000139714964D915D916D917C9113978D80C9
:102530009E80AF80B884480D591D6A1D7B1D4D9348
:102540005D936D937C93139714964D915D916D916E
:102550007C9113970D851E852F853889400F511F5B
:10256000621F731F4D935D936D937C931397149625
:102570004D915D916D917C91139789889A88AB8874
:10258000BC88480D591D6A1D7B1D4D935D936D934D
:102590007C93139714964D915D916D917C91139757
:1025A000440E551E661E771E4D925D926D927C9272
:1025B000139714964D915D916D917C9113970981BC
:1025C0001A812B813C81400F511F621F731F4D9355
:1025D0005D936D937C931397BF01685A7F4FDB0126
:1025E000CD90DD90ED90FC9013978D889E88AF88FC
:1025F000B88CC80CD91CEA1CFB1CCD92DD92ED9264
:10260000FC921397E45AFF4F80819181A281B3819C
:10261000898C9A8CAB8CBC8C880D991DAA1DBB1D16
:1026200080839183A283B383A4960FB6F894DEBF10
:102630000FBECDBFDF91CF911F910F91FF90EF9013
:10264000DF90CF90BF90AF909F908F907F906F90D2
:102650005F904F903F902F9008952D893E894F892C
:10266000588D298F3A8F4B8F5C8F89819A81AB81EE
:10267000BC818D8B9E8BAF8BB88F49825A826B82C7
:102680007C828D849E84AF84B888898A9A8AAB8A3A
:10269000BC8A0D811E812F8138850D871E872F876B
:1026A000388BCD82DE82EF82F886D9CD1297AF705B
:1026B000BB27AA0FBB1FAA0FBB1FAE0FBF1F0D91D9
:1026C0001D912D913C91D1011F97AF70BB27AA0F8F
:1026D000BB1FAA0FBB1FAE0FBF1F4D915D916D9128
:1026E0007C91C1018F709927880F991F880F991FBE
:1026F000DF01A80FB91FBCA3ABA3D1011797AF701F
:10270000BB27AA0FBB1FAA0FBB1FAE0FBF1FCD90C9
:10271000DD90ED90FC90ABA1BCA18D909D90AD9013
:10272000BC90C80CD91CEA1CFB1C480159019FE055
:10273000880C991CAA1CBB1C9A95D1F7D901C80119
:10274000072E71E1B695A795979587957A95D1F75C
:10275000702D882A992AAA2ABB2AD901C801072ED6
:102760007DE0880F991FAA1FBB1F7A95D1F7702DA6
:1027700028013901032E33E17694679457944794E6
:102780003A95D1F7302D84299529A629B72988258E
:102790009925AA25BB250F2EFAE036952795179582
:1027A0000795FA95D1F7F02D80279127A227B32717
:1027B000C80ED91EEA1EFB1E8A019B0187E03695D2
:1027C0002795179507958A95D1F7DB01CA01072E42
:1027D00079E1880F991FAA1FBB1F7A95D1F7702D39
:1027E000082B192B2A2B3B2BDB01CA01072E7EE07D
:1027F000880F991FAA1FBB1F7A95D1F7702D2A0148
:102800003B01032E32E176946794579447943A95AE
:10281000D1F7302D84299529A629B729802791271A
:10282000A227B32723E076956795579547952A9574
:10283000D1F784279527A627B727C80ED91EEA1EE9
:10284000FB1EABA1BCA1CD92DD92ED92FC92139741
:1028500016CD0F931F9310E000E028EC30E040EB22
:1028600050E066E970E090E080E00E949E091F91D0
:102870000F9108950F931F9310E000E02DED30E0CD
:1028800040EB50E068EC70E090E080E00E949E0930
:102890001F910F9108959F92AF92BF92CF92DF92B6
:1028A000EF92FF920F931F93CF93DF93942E6901C2
:1028B00090E07C012CE1E20EF11CC62FD0E05E011D
:1028C000E9E0AE0EB11C10E000E09501A701BE01E9
:1028D0000E949E099920C9F0892D853608F084E66A
:1028E000FCE18F9FC001112464E670E00E94AF38C4
:1028F000CB01009751F086019501A701BE01F701B8
:10290000E81BF90BCF010E949E09DF91CF911F9127
:102910000F91FF90EF90DF90CF90BF90AF909F907E
:102920000895E4EAF4E0F093BF0FE093BE0FE49162
:10293000E093C00FE5EAF4E084918093C10FE6EAEA
:10294000F4E0E491E093C20FE7EAF4E0E491E0936D
:10295000C30F982F9695969596959093C40F1092C5
:10296000C50F877019F09F5F9093C40F0895E0E042
:10297000F2E0F093BF0FE093BE0FE491E093C00F3D
:10298000E1E0F2E084918093C10FE2E0F2E0E491B3
:10299000E093C20FE3E0F2E0E491E093C30F982FDD
:1029A0009695969596959093C40F1092C50F877043
:1029B00019F09F5F9093C40F08952F923F924F920A
:1029C0005F926F927F928F929F92AF92BF92CF92BF
:1029D000DF92EF92FF920F931F93CF93DF93CDB7C8
:1029E000DEB768970FB6F894DEBF0FBECDBF082FD5
:1029F000688BF42E152F0E94B71488E0EEEBFFE0F1
:102A0000DE01119601900D928A95E1F729803A80B6
:102A10002B812B873C813C878D815F8048854F8748
:102A2000529E90011124F9013196FE87ED87F986B7
:102A30001A87282F30E03C8B2B8B452D50E05E8B86
:102A40004D8BC1010596988F8F8BE985FA85819111
:102A5000FA87E987882309F463C090E02B893C89D1
:102A6000821B930B4D855E85849F7001859FF00CC2
:102A7000949FF00C11245F851B85511105C0F7014F
:102A80003496E20DF31D14918F89988DE80EF91E8E
:102A9000A02EB12C8A2D801B811708F03EC098898A
:102AA000692E712C912C812C412C851470F5F40128
:102AB000EE0DFF1DE491D12CC12C2E2F30E03A8B6E
:102AC000298B3C854316D0F489899A890C2C02C045
:102AD000959587950A94E2F780FF08C040E154E895
:102AE000B601660D771DC5010E94D70943944FEFCB
:102AF000C41AD40A58E0C516D10419F78FEF881A02
:102B0000980A98E0690E711CD0CFED89FE89EE0E0F
:102B1000FF1EFFEFAF1ABF0ABDCF1F5F010F95CF9A
:102B200068960FB6F894DEBF0FBECDBFDF91CF9190
:102B30001F910F91FF90EF90DF90CF90BF90AF90DB
:102B40009F908F907F906F905F904F903F902F90CD
:102B50000895CF92DF92EF92FF92CF93DF93CAE076
:102B6000D0E0C12CD12C76018CE30E94FE0D092E01
:102B7000000CAA0BBB0BC80ED91EEA1EFB1E219728
:102B800099F7C701B6012AE030E040E050E00E942A
:102B9000C338C90118161906BCF42F3F63E0360785
:102BA000ACF4D90124E630E00E94F1382FEF33E095
:102BB00040E050E00E94C338822FDF91CF91FF9018
:102BC000EF90DF90CF90089580E0F7CF84E6F5CFC7
:102BD0000E94A915853058F020EE37E0893250F474
:102BE00020E038EF853130F020EE3FEF03C030E0D9
:102BF00020E080E0482F60913C0B80913D0B0E94CB
:102C00004B1460913C0B6F5F80913D0B43E154E0AE
:102C10008A5F0C94DD14CF92DF92EF92FF92CF93F4
:102C2000DF93EC016A017B018F819885A985BA85C4
:102C30008C199D09AE09BF09B7FF03C080E090E081
:102C4000DC018F839887A987BA8788810E94750CD9
:102C5000892BC1F48F819885A985BA851816190624
:102C60001A061B067CF489819A81892BC9F481E0BC
:102C700090E09A838983DF91CF91FF90EF90DF906E
:102C8000CF90089588810E94750C892B89F588E280
:102C900090E0A0E0B0E08F839887A987BA87EBCF58
:102CA0008B859C85AD85BE858C0D9D1DAE1DBF1D84
:102CB0008B879C87AD87BE87843F9140A105B10576
:102CC000D0F283E090E09A83898388E290E0A0E0EC
:102CD000B0E08F839887A987BA87ED81FE8130970E
:102CE00051F2DF91CF91FF90EF90DF90CF90199448
:102CF00089819A81019769F488E290E0A0E0B0E0D0
:102D00008F839887A987BA87EB81FC81309709F078
:102D100019951A8219821B861C861D861E86ABCFCA
:102D200083E090E09093DA0B8093D90B089582E0D2
:102D300090E09093DA0B8093D90B089581E090E0B6
:102D40009093DA0B8093D90B08950F931F930E94F1
:102D5000BA0E009126061091270620912806309180
:102D60002906601B710B820B930B6D3D754081052D
:102D7000910568F081E08093E80B0E94BA0E6093A1
:102D800026067093270680932806909329061F91A4
:102D90000F91089581E08093D60B089581E0809390
:102DA000DB0B1092DD0B1092DC0B089581E0809319
:102DB000DD0B1092DC0B1092DB0B089581E0809309
:102DC000DC0B1092DD0B1092DB0B0895CF92DF929B
:102DD000EF92FF9280913606811107C00E949E0CEF
:102DE0008093400281E08093360680912E06811107
:102DF0000DC00E94BA0E60932A0670932B06809332
:102E00002C0690932D0681E080932E060E94BA0E28
:102E1000C0902A06D0902B06E0902C06F0902D064C
:102E20009B01AC012C193D094E095F0969017A012A
:102E3000BA01A90181E292E00E940B16B701A60136
:102E400082E192E00E940B16809109020E94750CAB
:102E50009C0181E090E02115310511F090E080E0C7
:102E600090930B0280930A0280910E0290910F02C0
:102E7000A0911002B0911102232B09F043C0181643
:102E800019061A061B063CF0E0910C02F0910D02A7
:102E9000309709F0199588E290E0A0E0B0E08093C7
:102EA0000E0290930F02A0931002B0931102809132
:102EB00001020E94750C892BD9F510920202E09153
:102EC0000302F091040219950E949E0C9091400219
:102ED000891749F080934002813009F442C0F0F133
:102EE000823009F441C00E94BA0E60932A067093A2
:102EF0002B0680932C0690932D06FF90EF90DF9089
:102F0000CF9008958C199D09AE09BF09B7FF03C082
:102F100080E090E0DC0180930E0290930F02A0937A
:102F20001002B093110210920B0210920A02BFCF4E
:102F3000809100020E94750C892B41F482E08093FD
:102F40000202E0910702F0910802BDCF81E0809378
:102F50000202E0910502F0910602B5CF0E94D6165A
:102F6000C2CF0E94DE16BFCF0E94CE16BCCF0F93F9
:102F70001F930E94BA0E0091220610912306209101
:102F8000240630912506601B710B820B930B6C3D60
:102F900075408105910598F00E94BA0E6093220653
:102FA0007093230680932406909325068091E70B67
:102FB000882341F01092E70B81E08093E20B1F9190
:102FC0000F91089581E08093E70B1092E20BF7CF09
:102FD0008F929F92AF92BF92EF92FF920F931F93A7
:102FE000CF93DF938C014A015B017901FC011995B4
:102FF000C091F40BD091F50B82E190E02097D1F5D0
:103000000E94DD39FC011082118212821382148227
:1030100015821682178213861286158614861786E5
:103020001686118A108A9093F50B8093F40B909377
:10303000F30B8093F20B11861086E091F40BF09164
:10304000F50B158704871082118212821382848205
:103050009582A682B782F386E28617861686DF916E
:10306000CF911F910F91FF90EF90BF90AF909F90E5
:103070008F9008950E94DD39FC0110821182128226
:103080001382148215821682178213861286158681
:10309000148617861686118A108A998B888B8885E4
:1030A0009985019691878087F093F50BE093F40B57
:1030B000C4CFEF92FF920F931F93CF93DF930097AC
:1030C000A1F1EC01E090F80BF090F90B088519855F
:1030D00084E090E0E114F104D1F40E94DD39FC01B8
:1030E000138212829093F90B8093F80B9093F70B55
:1030F0008093F60B11830083EE85FF853097A9F04E
:10310000DF91CF911F910F91FF90EF9019940E9442
:10311000DD39FC0113821282F7019383828390933D
:10312000F90B8093F80BFC01E5CFDF91CF911F9154
:103130000F91FF90EF9008958091F20B9091F30B17
:10314000009751F0FC01208931893093F30B2093D3
:10315000F20B0E94793AF0CF8091F60B9091F70B29
:10316000009751F0FC01228133813093F70B2093BB
:10317000F60B0E94793AF0CF1092F30B1092F20BFB
:103180001092F50B1092F40B1092F90B1092F80BB1
:103190000895CF92DF92EF92FF920F931F93CF93F8
:1031A000DF93C091F60BD091F70B209709F445C03F
:1031B000E091F20BF091F30B2881398180859185A4
:1031C0002817390759F4808991899093F30B8093DC
:1031D000F20B0E94793A0A80DB81C02D0091F20B3C
:1031E0001091F30BD8015096ED91FC912097E9F0E6
:1031F0003097D9F0E088F1882881398180859185E0
:103200002817390779F4D8015096EC9250975196C7
:10321000FC92E088F188C7010E94793A0A80DB813C
:10322000C02DF8018F01F701E1CF1092F70B10923A
:10323000F60B1092F90B1092F80BC091F20BD09193
:10324000F30B209751F1CC80DD80EE80FF800E944F
:10325000BA0E088119812A813B81601B710B820B98
:10326000930B6C157D058E059F0598F00E94BA0E94
:10327000688379838A839B83EA85FB85309731F065
:103280001995882319F0CE010E945918EC85FD8507
:1032900019950888D989C02DD4CFDF91CF911F917E
:1032A0000F91FF90EF90DF90CF900895CF93DF9331
:1032B000EC0188819981009711F00E94793A198276
:1032C00018821D821C821B821A82DF91CF91089581
:1032D000FC0180819181009711F00C94793A089556
:1032E000CF92DF92EF92FF920F931F93CF93DF93D2
:1032F000EC018B01FC01E05AFF4FC080D180E280DD
:10330000F38096012F73332783E0CC0CDD1CEE1C79
:10331000FF1C8A95D1F7C90101962C0F3D1F40E88B
:10332000F90140838933910578F040E450E0481B6F
:10333000590B70E060E08C0F9D1F0E94F93BCE019D
:103340000E94A81090E080E04CE350E0481B590B2D
:1033500070E060E08C0F9D1F0E94F93BFCAEEDAE6B
:10336000DEAECFAECE010E94A810FE01E05CFF4FA2
:103370002081318142815381CC5BDF4F8A819B81E7
:10338000F801508341833283238394838583DF91C3
:10339000CF911F910F91FF90EF90DF90CF90089504
:1033A000CF93DF93EC01A881B981EB01E881F9812A
:1033B0001097F1F03097B1F4EC018C819D81892B4D
:1033C000C9F08C9190E00BC0DB0114968D919C911B
:1033D000892B81F0808190E0919581959109DF9111
:1033E000CF910895BF01CD01DF91CF910C94003CA6
:1033F000309751F790E080E0F2CF0F931F93CF9377
:10340000DF93EC0188819981009759F02A813B81F3
:103410002617370730F081E0DF91CF911F910F9190
:1034200008958B016F5F7F4F0E94023B009759F018
:10343000998388831B830A832C813D81232B59F731
:10344000FC011082E8CF80E0E7CFEF92FF920F936C
:103450001F93CF93DF93EC01FB01E080F180E11437
:10346000F10411F10481158101151105A9F08C8178
:103470009D81080F191FB801CE010E94FD198823F4
:1034800099F0288139818C819D81B701820F931F2A
:103490000E94093C1D830C83CE01DF91CF911F91C7
:1034A0000F91FF90EF900895CE010E945619F4CF2E
:1034B000EF92FF920F931F93CF93DF93EC017B0169
:1034C0008A01BA010E94FD1981110BC0CE010E9430
:1034D0005619CE01DF91CF911F910F91FF90EF9080
:1034E00008951D830C83B701888199810E94093C4E
:1034F000F0CFFB0101900020E9F73197AF01461BA7
:10350000570B0C94581A0F931F93CF93DF93CDB79B
:10351000DEB762970FB6F894DEBF0FBECDBF8C0149
:10352000CB01F8011182108213821282158214825B
:103530004AE0BE016F5F7F4F0E942D36BE016F5F74
:103540007F4FC8010E94791A62960FB6F894DEBFC9
:103550000FBECDBFDF91CF911F910F910895CF93F3
:10356000DF93EC01FB018617970749F060817181B9
:103570006115710541F0448155810E94581ACE01B0
:10358000DF91CF9108950E945619F9CFFC01118265
:10359000108213821282158214820C94AF1AFC01DD
:1035A000118210821382128215821482FB01019013
:1035B0000020E9F73197AF01461B570B0C94581ABE
:1035C000AF92BF92CF92DF92EF92FF920F931F9331
:1035D000CF93DF936C015B017A01890124173507D2
:1035E00020F48F2D7901042F182F6EEC74E0C601A2
:1035F0000E94CF1AD5011496CD91DC91EC16FD06F0
:10360000E0F40C171D0708F4E801D501ED91FC91D9
:103610001197EC0FFD1F108110826D917C916E0D42
:103620007F1DC60161157105A1F00E94791AF5018F
:1036300080819181C80FD91F1883C601DF91CF9176
:103640001F910F91FF90EF90DF90CF90BF90AF90C0
:1036500008950E945619EBCF0F931F93CF93DF93DA
:1036600000D000D0CDB7DEB78C010E94B71466E160
:1036700074E00115110539F062E274E001301105C2
:1036800011F06EE274E0CE0101960E94CF1A25EE91
:103690003FEAAE014F5F5F4F65E070E085E090E08C
:1036A0000E94F80ACE0101960E9468190E949114A6
:1036B00026960FB6F894DEBF0FBECDBFDF91CF9137
:1036C0001F910F9108950F931F93CF93DF93CDB761
:1036D000DEB72C970FB6F894DEBF0FBECDBF8C01BE
:1036E0006EEC74E0CE0107960E94CF1A01301105EE
:1036F00089F102301105B9F163ED74E0CE0107964E
:103700000E94791A1092280B00E018EFBE01695F41
:103710007F4FCE0101960E94C61A9801AE014F5FFD
:103720005F4F6CE270E085E090E00E94F80ACE0105
:1037300001960E946819CE0107960E9468192C967E
:103740000FB6F894DEBF0FBECDBFDF91CF911F91B2
:103750000F9108956AE374E0CE0107960E94791AEA
:1037600000EE17E0D3CF6BE474E0CE0107960E9421
:10377000791A0FE110E0CACF20913C0230913D024E
:103780002817390741F090933D0280933C020E9434
:10379000631B81E0089580E00895EF92FF920F93FC
:1037A0001F93CF93DF93CDB7DEB762970FB6F89430
:1037B000DEBF0FBECDBF8C017B01FC0124813581B2
:1037C0008091D00F9091D10F2817390741F46CECFC
:1037D0007FE0C8010E94D019892B09F472C0B8019A
:1037E0008CEC9FE00E94AF1AF0923B02E0923A020A
:1037F000B701CE0107960E94831A6CE574E0CE01F2
:1038000001960E94CF1ABE01695F7F4FCE010196DB
:103810000E94251ABC01CE010D960E94C61A20E016
:1038200038EFAE01435F5F4F66E970E090E080E003
:103830000E94F80ACE010D960E946819CE010196E9
:103840000E946819CE0107960E9468190E94B71459
:10385000F801848195814C9708F440C02BE130E059
:1038600050E040E0B801CE0101960E94E01A20E04D
:1038700038EFAE014F5F5F4F6AEA70E090E080E0A2
:103880000E94F80ACE0101960E946819F80124816D
:1038900035814BE150E0B801CE0101960E94E01A5B
:1038A00020E038EFAE014F5F5F4F62EB70E090E0D9
:1038B00080E00E94F80ACE0101960E9468190E94D9
:1038C000911462960FB6F894DEBF0FBECDBFDF91A4
:1038D000CF911F910F91FF90EF900895B801CE0105
:1038E00001960E94C61A20E038EFAE014F5F5F4F8D
:1038F0006AEA70E0DCCF0F931F93CF93DF93CDB7CD
:10390000DEB762970FB6F894DEBF0FBECDBF8C0155
:103910002091D60F3091D70FFC0184819581281713
:10392000390741F4B80182ED9FE00E94D019892B3C
:1039300009F45CC0B80182ED9FE00E94AF1A0E94BA
:103940003A140E94B714F80184819581489708F4CD
:1039500058C026E130E050E040E0B801CE010796C3
:103960000E94E01A65E674E0CE0101960E94CF1A2B
:10397000BE01695F7F4FCE0101960E94251ABC01EE
:10398000CE010D960E94C61A20EE3FEFAE01435FB6
:103990005F4F68EC70E090E080E00E94F80ACE0192
:1039A0000D960E946819CE0101960E946819CE01F9
:1039B00007960E946819F8012481358146E150E09C
:1039C000B801CE0101960E94E01A20EE3FEFAE0151
:1039D0004F5F5F4F60ED70E090E080E00E94F80A7A
:1039E000CE0101960E9468190E94911462960FB64A
:1039F000F894DEBF0FBECDBFDF91CF911F910F9125
:103A0000089565E674E0CE0101960E94CF1AB801D0
:103A1000CE0101960E94251ABC01CE0107960E9494
:103A2000C61A20EE3FEFAE01495F5F4F68EC70E0D1
:103A300090E080E00E94F80ACE0107960E94681983
:103A4000CE0101960E946819CFCF0F931F93CF9399
:103A5000DF9300D000D0CDB7DEB71091280B20EE59
:103A600037E0193230F420EE3FEF1F3110F420E040
:103A700038EF412F60913E0B80913F0B0E944B1419
:103A800060913E0B6F5F80913F0B4BE654E08E5F81
:103A90000E94DD14115001E01E3108F000E0809119
:103AA00037061E31E8F481110EC06FE674E0CE01D6
:103AB00001960E94CF1ACE0101960E947B1CCE0176
:103AC00001960E9468190093370626960FB6F8945F
:103AD000DEBF0FBECDBFDF91CF911F910F91089533
:103AE000882389F30E943A14EECFCF92DF92EF92AF
:103AF000FF920F931F93CF93DF93CDB7DEB76897F5
:103B00000FB6F894DEBF0FBECDBF0E94B714109160
:103B1000400BE0903C02F0903D0280913202909187
:103B20003302112309F48DC0E114F10409F45AC0E1
:103B3000029751F16DE874E0CE0101960E94CF1A10
:103B400020EE37E0AE014F5F5F4F63E770E085E046
:103B500090E00E94F80ACE0101960E9468196FE970
:103B600074E0CE0101960E94CF1A20EE37E0AE013C
:103B70004F5F5F4F6BE770E085E090E00E94F80ACE
:103B8000CE0101960E94681982E090E09093330282
:103B9000809332020E949114C0901D0BD0901E0B96
:103BA000EF2809F480C0112309F47DC080911A0B1D
:103BB00024E0E22EF12C882309F477C080911B0BBE
:103BC00090911C0B88389F4F4CF033E0E32EF12C82
:103BD00088E8C8168FEFD8060CF067C092E0E92E8F
:103BE000F12C63C0019751F16BEA74E0CE010196AC
:103BF0000E94CF1A20E038EFAE014F5F5F4F63E7BE
:103C000070E085E090E00E94F80ACE0101960E94E3
:103C100068196DEB74E0CE0101960E94CF1A20EE78
:103C200037E0AE014F5F5F4F6BE770E085E090E0FB
:103C30000E94F80ACE0101960E94681981E090E086
:103C4000A5CF892B09F4A6CF6FEC74E0CE010196C5
:103C50000E94CF1A20E038EFAE014F5F5F4F63E75D
:103C600070E085E090E00E94F80ACE0101960E9483
:103C700068196DEB74E0CE0101960E94CF1A20EE18
:103C800037E0AE014F5F5F4F6BE770E085E090E09B
:103C90000E94F80ACE0101960E9468191092330220
:103CA0001092320277CFF12CE12CF0923906E0929B
:103CB00038068091300290913102E816F90689F0B9
:103CC000F701EE0FFF1FE358FD4F008111812DE238
:103CD00030E04AEA50E069E170E086E990E00E9455
:103CE0009E09F0923102E092300280913C06909160
:103CF0003D068C159D0509F456C0B601CE014396CC
:103D00000E94831A00911D0B10911E0B0D392FEF8D
:103D1000120754F166EC74E0CE0101960E94CF1AAE
:103D2000B801CE010D960E94831ABE01635F7F4FDA
:103D3000CE0107960E94C61ABE016F5F7F4FCE016B
:103D400007960E94251ABC01CE0143960E94AF1A25
:103D5000CE0107960E946819CE010D960E9468193F
:103D6000CE0101960E9468198091400B882309F4C6
:103D700052C0BE016D5E7F4FCE0101960E94C61AF1
:103D80002FEF3FEFAE014F5F5F4F6AE570E087E3D3
:103D900090E00E94F80ACE0101960E946819CE01B7
:103DA00043960E9468190091280B10E080913A0612
:103DB00090913B060817190711F00E94251D0E94DB
:103DC000A915E82EF12C8091340290913502E81665
:103DD000F90611F00E94E81580911D0B90911E0BC1
:103DE00090933D0680933C0610933B0600933A0661
:103DF000F0923502E092340268960FB6F894DEBF76
:103E00000FBECDBFDF91CF911F910F91FF90EF902B
:103E1000DF90CF90089568EC74E0CE0101960E9487
:103E2000CF1AAECF4F925F926F927F928F929F92F6
:103E3000AF92BF92CF92DF92EF92FF920F931F93B8
:103E4000CF93DF938C01EB0149015A01FC01E05A49
:103E5000FF4F80819181A281B3816C017D012FE3AD
:103E6000C222DD24EE24FF24880D991DAA1DBB1D4E
:103E700080839183A283B38381149104A104B1044C
:103E800079F180E490E0A0E0B0E08C199D09AE09E2
:103E9000BF092401350188159905AA05BB0510F451
:103EA0002C013D01C8018C0D9D1DA201BE010E9487
:103EB000F03BC40CD51CE61CF71CC40DD51D8418A2
:103EC0009508A608B70880E4C816D104E104F104F7
:103ED00099F6C8010E94A810C12CD12C7601CCCF34
:103EE000DF91CF911F910F91FF90EF90DF90CF90D6
:103EF000BF90AF909F908F907F906F905F904F900A
:103F00000895AF92BF92DF92EF92FF920F931F93AB
:103F1000CF93DF93EC018B01FB01D3808281645F3F
:103F20007F4F8E3F09F459C0ED2CF12CFB01EE0DB3
:103F3000FF1DDE2C91E09E1538F4970121503109C8
:103F40009291992309F463C08883D982F80184810E
:103F50008A8385818B8386818C8387818D8380850D
:103F60008E8381858F8381859285A38598878185BE
:103F70009285A385A987A701CE010A960E94F03BEE
:103F8000FAE0EF0EF11CCE0DDF1DF801848199E0FF
:103F9000F92E80FF3AC08DE0F801908198839181DD
:103FA0009983A82EB12C882341F0B8016A5E7E4F18
:103FB000A501CE0102960E94F03BC5018F0D911D17
:103FC00003968D0D911DDF91CF911F910F91FF9061
:103FD000EF90DF90BF90AF9008958883D98286815B
:103FE0008A8387818B8380858C8381858D834381C0
:103FF00050E0CE0106960E94F03BF801838190E0EC
:104000000696C80FD91F25E0F22E80E0C5CF7901B2
:1040100090CF3F924F925F926F927F928F929F923A
:10402000AF92BF92CF92DF92EF92FF920F931F93C6
:10403000CF93DF93CDB7DEB7C857D1090FB6F89449
:10404000DEBF0FBECDBF6C013E2C80914A06582FBB
:10405000527081FD1DC0E0914C06F0914D063097E5
:1040600031F080812DE0522E11E080FD02C0512CF4
:1040700010E08DEFF60182833C96E00FF11D8291F6
:10408000811103C001500130D1F78AE0482E09C0E8
:104090008EEFD60112968C93022F512C96E0492E6A
:1040A00010E0D60113960C93139717966C931797FD
:1040B00018964C93189711114CC014961C92D60167
:1040C00015961C9215978091450616968C93169717
:1040D000809145068F5F8093450612968C911297CA
:1040E000A6968FAFA69713968C911397A7968FAF2E
:1040F000A79719968D919D91AC91F60136812781F4
:10410000552359F1A8963FAFA897A9962FAFA99725
:10411000AA964FAFAA97AB968FAFAB97A42CB12CB2
:104120008FEF9FEF9A838983CE018B599F4F7C013C
:104130004C018A0C9B1C9FEFE91AF90A8E149F040C
:1041400039F1BE016F5F7F4FD7018C910E946710DC
:10415000F2CF81E0F6018483B2CF5481A8965FAF9D
:10416000A8975581A9965FAFA997AA963FAFAA973E
:10417000AB962FAFAB97AC964FAFAC97AD968FAFDA
:10418000AD97AE969FAFAE97AF96AFAFAF97C6CF96
:1041900089819A81E9969FAF8EAFE997F601638096
:1041A000712C7601FCE0EF0EF11C470181E0681AEA
:1041B0007108BE0169587F4F9FEF6916790631F08B
:1041C000D4018D914D010E946710F0CF832D0E9484
:1041D0006710E8969FADE897E9968FADE997D6010D
:1041E0001396EC911397EE0DFF2DF11D908313960E
:1041F000EC911397EE0DFF2DF11D81839C93119689
:104200008C931197112309F4F4C000914C0610917E
:104210004D060115110509F4ECC0F801808180FFFD
:10422000E8C013967C9081814601FAEE8F1AFEEF6A
:104230009F0AD4018C93F8018281E0968FAFE097BA
:104240008381E1968FAFE1978481E2968FAFE29709
:104250008581E3968FAFE3978681E4968FAFE497ED
:104260008781E5968FAFE5978085E6968FAFE697D5
:104270008185E7968FAFE79786E0FE01E159FF4F12
:10428000119601900D928A95E1F7D80112962C9122
:10429000129713963C91139714964C911497159678
:1042A0005C91159716966C91169717967C911797B7
:1042B00018968C91189719969C91A1E00E947D39CF
:1042C000F801228333834483558366837783808711
:1042D000918787E696EEA9E0BAE625968CAF9DAF6A
:1042E000AEAFBFAF259785E89EEAA7E6BBEB299660
:1042F0008CAF9DAFAEAFBFAF299782E793EFAEE62D
:10430000BCE32D968CAF9DAFAEAFBFAF2D978AE3C8
:1043100095EFAFE4B5EA61968CAF9DAFAEAFBFAF9E
:1043200061978FE792E5AEE0B1E565968CAF9DAF02
:10433000AEAFBFAF65978CE898E6A5E0BBE969969C
:104340008CAF9DAFAEAFBFAF69978BEA99EDA3E895
:10435000BFE16D968CAF9DAFAEAFBFAF6D9789E1FA
:104360009DECA0EEBBE5A1968CAF9DAFAEAFBFAF0D
:10437000A197A5961CAE1DAE1EAE1FAEA597B801A7
:10438000665F7F4F20E230E040E050E0CE010196D2
:104390000E94121F242D30E050E040E0BE016B5916
:1043A0007F4FCE0101960E94121F272D30E050E072
:1043B00040E0B701CE0101960E94121FB701670DC0
:1043C000711D22E030E040E050E0CE0101960E94F5
:1043D000121F27E030E040E050E0B401CE0101962A
:1043E0000E94121FB601635E7E4FCE0101960E94AD
:1043F0007019D60113968C918A0D9B2D911D0296F2
:10440000850D911DC858DF4F0FB6F894DEBF0FBE63
:10441000CDBFDF91CF911F910F91FF90EF90DF9073
:10442000CF90BF90AF909F908F907F906F905F9054
:104430004F903F900895CF92DF92EF92FF920F93AB
:10444000811161C080E090E0A0E0B0E480930C0FA7
:1044500090930D0FA0930E0FB0930F0FC090100FFD
:10446000D090110FE090120FF090130F20910B0FCE
:104470006091090F70910A0F3091080F4091070F5A
:10448000E0916E0FF0916F0F84879587A687B787AD
:10449000C08AD18AE28AF38A148A158A168A178A10
:1044A000108E118E128E138E148E158E168E178E00
:1044B00010A211A212A213A214A215A216A217A250
:1044C00071A760A742A733A724A78CE490E0A0E0DF
:1044D00081879287A38788E9E82E01E221E241E003
:1044E00062E0CF010E94092060916E0F70916F0F02
:1044F00080916C0F90916D0F0F91FF90EF90DF9076
:10450000CF900C94811F80E090E0A0E8BFE39ECFA5
:10451000EF920F93CF93DF93BC01990F880B990B08
:104520000E946936E7E0FFE063A374A385A396A326
:1045300022A1A0A1B1A1378D468DCEE6DFE0E881B2
:10454000F9816487758786879787108A118A128A0E
:10455000138A148A158A168A178A108E118E128E63
:10456000138E148E158E168E178E10A211A212A203
:1045700013A214A215A216A217A2B1A7A0A742A720
:1045800033A724A78CE490E0A0E081879287A387DB
:1045900088E9E82E01E221E241E062E0CF010E94D9
:1045A00009206881798180916C0F90916D0FDF9166
:1045B000CF910F91EF900C94811FCF92DF92EF92E9
:1045C000FF920F93882309F461C080E090E0A0E09F
:1045D000B0E48093440F9093450FA093460FB0939F
:1045E000470FC090440FD090450FE090460FF090D9
:1045F000470F8091430F4091410F5091420F90918E
:10460000400F20913F0FE0916E0FF0916F0FC48625
:10461000D586E686F786108A118A128A138A148A4A
:10462000158A168A178A108E118E128E138E148E8A
:10463000158E168E178E10A211A212A213A214A20A
:1046400015A216A217A251A740A722A793A784A735
:104650008CE490E0A0E081879287A38788E9E82E28
:1046600001E221E241E062E0CF010E940920609175
:104670006E0F70916F0F80916C0F90916D0F0F9175
:10468000FF90EF90DF90CF900C94811F80E090E03E
:10469000A0E4B0E49ECFEF920F931F93CF938130AD
:1046A00041F021E0823009F020E080E090E0DC0180
:1046B00005C020E080E090E0A0E8BFE38093330FE6
:1046C0009093340FA093350FB093360F40E050E035
:1046D000BA01222321F040E050E060E87FE34093FC
:1046E000370F5093380F6093390F70933A0F8093C0
:1046F0003B0F90933C0FA0933D0FB0933E0F209142
:10470000320F0091300F1091310F30912F0FC09167
:104710002E0FE0916E0FF0916F0F84879587A6871B
:10472000B787408B518B628B738B848B958BA68B59
:10473000B78B108E118E128E138E148E158E168ED0
:10474000178E10A211A212A213A214A215A216A2D1
:1047500017A211A700A7C2A733A724A78CE490E053
:10476000A0E081879287A38788E9E82E01E221E211
:1047700041E062E0CF010E94092060916E0F7091CC
:104780006F0F80916C0F90916D0F0E94811FCF91E0
:104790001F910F91EF900C941F102F923F924F9208
:1047A0005F926F927F928F929F92AF92BF92CF92C1
:1047B000DF92EF92FF920F931F93CF93DF9320919D
:1047C000120B3091130B4091140B5091150B60910B
:1047D000160B7091170B8091180B9091190BA0E09C
:1047E0000E949B39A1F40E94150EDC01CB0160935D
:1047F000120B9093130BA093140BB093150B109204
:10480000160B1092170B1092180B1092190B0E9496
:10481000150E2B013C012091B70B3091B80B409144
:10482000B90B5091BA0B6091BB0B7091BC0B80918E
:10483000BD0B9091BE0BA090120BB090130BC090CB
:10484000140BD090150BE090160BF090170B009105
:10485000180B1091190B0E94893912015101630143
:10486000E12CF12C00E010E00E9474392093620FDB
:104870003093630F4093640F5093650F6093660FFE
:104880007093670F8093680F9093690FA0916B0FDF
:10489000B0916A0F40905A0F50905B0F60905C0F80
:1048A00070905D0F80905E0F90905F0FD091600FC1
:1048B000C091610FE0916E0FF0916F0F44865586A5
:1048C00066867786808A918AD28BC38B248B358BC0
:1048D000468B578B608F718F828F938FB48FA58F8C
:1048E0008FE690E0A0E081879287A38786ECE82E90
:1048F00002E122E141E062E0CF010E9409206091E3
:104900006E0F70916F0F80916C0F90916D0F0E94E0
:10491000811FDF91CF911F910F91FF90EF90DF905A
:10492000CF90BF90AF909F908F907F906F905F904F
:104930004F903F902F900C941F10CF92DF92EF92E8
:104940000F931F93CF93DF93CEE3D6E01C8522E035
:104950002C8730914E0F50914C0F70914B0F00915E
:104960004A0F8EE6C82E8FE0D82ED601ED91FC912D
:104970004091490F6091480F80914D0F90E0B0E059
:10498000A0E084879587A687B787008B718B528BB1
:10499000338B248B11861286138692E3E92E09E06D
:1049A00029E0CF010E9409201C87F60160817181F6
:1049B00080916C0F90916D0F0E94811FDF91CF91BC
:1049C0001F910F91EF90DF90CF900C941F102F92BA
:1049D0003F924F925F926F927F928F929F92AF928F
:1049E000BF92CF92DF92EF92FF920F931F93CF93DC
:1049F000DF93CDB7DEB7C858D1090FB6F894DEBF44
:104A00000FBECDBF8AEF9BE00E94240F892B09F4D3
:104A100076C78AEF9BE00E94020F8C01EC968FAF65
:104A2000EC971092410B2091440B3091450B2131B2
:104A3000310508F03AC0F9018827EE5DFA4D8F4F35
:104A40000C94E2383A253A25D325EE2505260D2685
:104A5000172621262B264B266326792691261F27EB
:104A60001F278527852781E090E09093450B809351
:104A7000440BC8CF80914D0BEC962FADEC972D3F9A
:104A800009F07FC022E030E03093450B2093440BC7
:104A900010928906009388068E7F80934D0B8FEFCE
:104AA0009FEF90938706809386068091410B81301B
:104AB000A9F42091490B30914A0B90918C06909368
:104AC000470B2115310521F410924C0B10924B0B22
:104AD0002F5F3F4F30934A0B2093490B90918906EB
:104AE0009093BB0C2091440B3091450B30932D0BD0
:104AF00020932C0B9091460B90932E0B9091470B8B
:104B00009F5F90932F0B2091490B30914A0B30936C
:104B1000320B2093310B2091430B30E03093340B58
:104B20002093330B90914D0B9093350B1092430BC8
:104B3000823041F420919A0730919B073093B90C51
:104B40002093B80C9EEF980F923008F037C481E0A4
:104B50008093430B1092410BEC96FFADEC97FD3F19
:104B600009F081CF82E090E09093450B8093440B55
:104B7000109289068FEF9FEF9093870680938606A9
:104B800041CFEC963FADEC973E3F09F0B5C622E031
:104B900030E03093450B2093440B1092890600932C
:104BA000880681607ACF009389061092460B602FA9
:104BB00086E896E00E94881080914D0B80FF07C028
:104BC00010928A0610928B0685E090E002C083E086
:104BD00090E09093450B8093440B67CF00938A0637
:104BE000C8018E7F9927892B41F08091430B8F5FFD
:104BF0008093430B81E090E0ECCF602F86E896E055
:104C00000E94881084E090E0E4CF00938B06602F30
:104C100086E896E00E948810D7CF00938C06602F1C
:104C200086E896E00E94881086E090E0D2CF00935C
:104C30008D06602F86E896E00E94881087E090E05D
:104C4000C8CF00938E06602F86E896E00E948810F9
:104C500088E090E0BECFEC96BFADEC978B2F90E054
:104C6000A0E080938F0690939006A0939106602F0A
:104C700086E896E00E94881080914D0B80FF08C066
:104C800080918906882309F449C08BE090E0A1CF88
:104C900089E090E09ECF80918F0690919006A09140
:104CA0009106EC96EFADEC979E2B80938F06909338
:104CB0009006A0939106602F86E896E00E948810E7
:104CC0008AE090E086CF80918F0690919006A09127
:104CD0009106EC96FFADEC97AF2B80938F069093E7
:104CE0009006A0939106602F86E896E00E948810B7
:104CF000C7CFE091460B81E08E0F8093460BF0E02A
:104D0000EE56F94F0083602F86E896E00E948810E7
:104D10009091460B809189069813C7CE8CE090E065
:104D200058CF80918F0690919006A0919106AC018A
:104D30006A2F70E0F8E08F2E912CA12CB12CC12CA1
:104D4000D12C76012AE0D701C601880D991DAA1D34
:104D5000BB1D0196A11DB11DB695A7959795879589
:104D6000289FF001299FF00D1124E957FC4F408046
:104D7000518062807380441555056605770568F596
:104D80004C015D0131E0831A9108A108B108C814F3
:104D9000D904EA04FB04B8F28AE08C9DF0018D9DF1
:104DA000F00D1124E957FC4F80819181A281B381DC
:104DB000481759076A077B07C1F4648186E896E0C3
:104DC0000E9488108091860690918706992708177F
:104DD0001906A1F48DE090E013C06C017D0144162A
:104DE000550666067706C0F6D2CF8EE090E0909327
:104DF000450B8093440B00939A0757CE8EE090E0CA
:104E00009093450B8093440B00939A078091460B37
:104E10009AE09C9DF0019D9DF00D1124E957FC4FF7
:104E20004681841708F041CE50E090E0481B590BB2
:104E300070E060E08E56994F0E94F93B36CE2E30DE
:104E4000310581F080918706EE968FAFEE97EF9651
:104E50001FAEEF97EF96AEADBFADEF9781E00A17AB
:104E60001B0609F082E08093410B00939B07809121
:104E70008A0680FF17C08091410B823051F480E197
:104E800090E09093450B8093440B8DE080934E0B04
:104E90000CCE8FE090E09093450B8093440B1092E2
:104EA000410BF3CFE0914F0BF091500B309749F04D
:104EB00002A4F3A5E02D3097A9F48091410B823034
:104EC00001F581E090E09093450B8093440B83E2E1
:104ED00091E0E6E8F6E0A8EBBCE001900D920197C6
:104EE000E1F7E3CD80918F0690919006A091910615
:104EF000AC016A2F70E081E49BE019958111E1CF4C
:104F0000DCCF83E08093410BDCCF80914E0BEDE052
:104F1000F0E0E81BF109E456F84F008381508093DC
:104F20004E0B8111E9C480904F0B9090500B81E0A3
:104F30008114910409F4D2C12090510B3090520B8E
:104F400017E6E12E16EEF12E09E01AE62596ECAEF4
:104F5000FDAE0EAF1FAF259705E81EEA27E63BEB37
:104F600029960CAF1DAF2EAF3FAF299782E793EF85
:104F7000AEE6BCE32D968CAF9DAFAEAFBFAF2D9725
:104F80001AE3E12E15EFF12E0FE415EA6196ECAE6F
:104F9000FDAE0EAF1FAF61970FE712E52EE031E5D2
:104FA00065960CAF1DAF2EAF3FAF65978CE898E6C6
:104FB000A5E0BBE969968CAF9DAFAEAFBFAF699777
:104FC0008BEA99EDA3E8BFE16D968CAF9DAFAEAFD4
:104FD000BFAF6D9789E19DECA0EEBBE5A1968CAFCC
:104FE0009DAFAEAFBFAFA197A5961CAE1DAE1EAED6
:104FF0001FAEA59720E230E040E050E0B401665FCC
:105000007F4FCE0101960E94121F2AE030E040E05F
:1050100050E068E876E0CE0101960E94121F2091D0
:10502000890630E050E040E062E976E0CE0101968A
:105030000E94121F22E030E040E050E06AE977E091
:10504000CE0101960E94121F27E030E040E050E0C0
:105050006CE977E0CE0101960E94121FBE016B58E9
:105060007F4FCE0101960E94701946E050E063EA3E
:1050700077E0CE018B589F4F0E94E33B892B21F0B4
:1050800082E090E0D4018FC050909C07AE961FAE96
:10509000AE97AF961FAEAF97E0961FAEE097E19642
:1050A0001FAEE197E2961FAEE297E3961FAEE3973D
:1050B000E4961FAEE497E5961FAEE59786E0EDE92E
:1050C000F7E0DE01A359BF4F01900D928A95E1F7F9
:1050D0002114310411F1F10180819181E0918D065B
:1050E00020918E06D101712C612C86159705C1F097
:1050F00013963C911397E3130BC014963C911497AD
:10510000231306C012963C911297531609F4F0C06F
:10511000FFEF6F1A7F0A1996E8CF83E090E0B2CFD5
:10512000409718F084E090E0ADCFAE962FADAE97EB
:10513000AF963FADAF97E0964FADE097E1965FAD8C
:10514000E197E2966FADE297E3967FADE397E49641
:105150008FADE497E5969FADE59720583247444AD6
:105160005F4F6F4F7F4F8F4F9F4FD4011296AC9080
:1051700012971396BC9013971496CC90149715968B
:10518000DC9015971696EC9016971796FC9017974B
:1051900018960C91189719961C9119970E9492399C
:1051A000F0F485E090E09D969C938E939C97E0911F
:1051B0004F0BF091500B02A4F3A5E02D80E0309747
:1051C00009F48CC080918F0690919006A091910671
:1051D000AC016A2F70E081E49BE019957FC089E003
:1051E000869DD001879DB00D1124A20DB31D13968D
:1051F000EC93139780918E0614968C9314971296C5
:105200005C92C3010196F1019183808389E0869DC0
:10521000D001879DB00D11241596A20DB31D86E017
:10522000EDE9F7E001900D928A95E1F7AE963FAC7B
:10523000AE97AF965FACAF97E0966FACE097E19614
:105240007FACE197E2964FACE297E3962FACE39701
:10525000E496FFADE497E596EFADE597D40112969D
:10526000AC9012971396BC9013971496CC90149709
:105270001596DC9015971696EC9016971796FC905D
:10528000179718960C91189719961C911997232D1A
:10529000352DA301642D722D8F2F9E2F0E949239E0
:1052A000C1F0B8F012963C92129713965C92139745
:1052B00014966C92149715967C92159716964C92AC
:1052C000169717962C9217971896FC93189719967D
:1052D000EC9381E090E0F40195A784A72091440B22
:1052E0003091450B2031310509F063C082E00ACED0
:1052F000A6961FAEA697A7961FAEA797A8961FAE15
:10530000A897A9961FAEA997AA961FAEAA97AB9683
:105310001FAEAB97AC961FAEAC97AD961FAEAD97D8
:1053200089E0869DF001879DF00D11243596E20DF0
:10533000F31D86E0DE01AB59BF4F01900D928A95B7
:10534000E1F7AE962FADAE97AF963FADAF97E09633
:105350004FADE097E1965FADE197E2966FADE297D2
:10536000E3967FADE397A696AFACA697A796BFACA2
:10537000A797A896CFACA897A996DFACA997AA96AD
:10538000EFACAA97AB96FFACAB97AC960FADAC97D2
:10539000AD961FADAD97E4968FADE497E5969FADC2
:1053A000E5970E94923911F008F030CF86E090E046
:1053B00069CE882309F4A5CD81E0A4CD882309F422
:1053C00021CB8091C10C9091C20CA091C30C8D3661
:1053D0009105A10509F40CC28F369105A10509F4C8
:1053E000E2C0892B8A2B09F00DCB9091BF0C8091E4
:1053F000A90C981307CB9091C00C8091AA0C98131C
:1054000001CB0E94BA0E60933602709337028093EC
:105410003802909339028091CB0C8093B70CC090E6
:10542000C40CD090C50CE090C60CF090C70CC09294
:10543000AB0C8091C90C8093AC0CC092AE0CD09296
:10544000AF0CE092B00CF092B10CC60183709927BA
:1054500001979093CA0B8093C90B0E942C1B970154
:10546000860142E036952795179507954A95D1F71D
:1054700003701127C80101979093CC0B8093CB0B3D
:105480006EEC74E0CE018B599F4F0E94CF1A023010
:10549000110509F40AC20330110509F410C20130E4
:1054A000110509F4F8C163EF74E0CE018B599F4FE9
:1054B0000E94791A0FEF1FEFBE016B597F4FCE018B
:1054C00001960E94C61A9801AE014F5F5F4F61E4DA
:1054D00070E086E490E00E94F80ACE0101960E94F6
:1054E0006819CE018B599F4F0E946819D701C601D8
:1054F00024E0B695A795979587952A95D1F783705F
:105500009927AA27BB270297A105B10509F4E1C194
:1055100082E090E00E94BC1B9701860196E03695E0
:105520002795179507959A95D1F703700150110BA0
:105530000330110568F58091D10B9091D20B0817BB
:10554000190731F11093D20B0093D10B01301105E3
:1055500009F0C2C16FE175E0CE0101960E94CF1A39
:1055600068E070E0CE0101960E94CD1BCE0101964D
:105570000E9468196DE275E0CE0101960E94CF1A73
:10558000CE0101960E947B1CCE0101960E946819F3
:10559000CD2CDE2CEF2CFF2404E60C1508F432CAC7
:1055A000C092280B2FCA80913A0290913B02079734
:1055B00011F40E94291481E080931A0BE090C40C2E
:1055C000EC96EFAEEC97F090C50CED96FFAEED9734
:1055D0000091C60CC158DF4F0883CF57D0401091BF
:1055E000C70CC058DF4F1883C058D0402091C80C5A
:1055F000CF57DF4F2883C158D0403091C90CCE57C8
:10560000DF4F3883C258D0408091CA0CCD57DF4F4E
:105610008883C358D0409091CB0CCC57DF4F9883F0
:10562000C458D040E092970CF092980C0093990CDB
:1056300010939A0C20939B0C30939C0C80939D0CA0
:1056400090939E0C4090CC0C5090CD0C6090CE0C62
:105650007090CF0C8090D00C9090D10C3090D20CE8
:105660002090D30C40929F0C5092A00C6092A10C01
:105670007092A20C8092A30C9092A40C3092A50C74
:105680002092A60C0E94150ECB57DF4F68837983BA
:105690008A839B83C558D0402091B70B3091B80BBB
:1056A0004091B90B5091BA0B6091BB0B7091BC0B40
:1056B0008091BD0B9091BE0BA090120BB090130B7C
:1056C000C090140BD090150BE090160BF090170BB8
:1056D0000091180B1091190B0E9489395201630136
:1056E0007401032D122D0E948939CB57DF4FE880BA
:1056F000F9800A811B81C558D04057016801E12C0F
:10570000F12C00E010E00E94743901E00E94593948
:10571000EC96AFACEC97ED96BFACED97C158DF4F70
:10572000C880CF57D040C058DF4FD880C058D04035
:10573000CF57DF4FE880C158D040CE57DF4FF880B9
:10574000C258D040CD57DF4F0881C358D040CC5706
:10575000DF4F1881C458D0400E94743919012A01C2
:105760003B014C012093B70B3092B80B4093B90B1F
:105770005092BA0B6093BB0B7092BC0B8093BD0B25
:105780009092BE0B0E94150E8B019C016093120B30
:105790001093130B8093140B3093150B1092160B70
:1057A0001092170B1092180B1092190B0E943A14BA
:1057B0005AE0A52EB12CC12CD12CE12CF12C00E00B
:1057C00010E09101A201B301C4010E94FA382093B4
:1057D000020030930300409304005093050060934F
:1057E00006007093070080930800909309000AC98F
:1057F00000913A0210913B020530110511F40E940C
:1058000029148091C80C80931F0B8091C90C809340
:10581000200B8091CA0C8093210B8B3048F560EEF1
:1058200074E0CE0101960E94CF1A66E070E0CE01CE
:1058300001960E94CD1BCE0101960E94681910911D
:10584000200B1123D9F081E08093400B80911F0B36
:1058500086958859990B90931E0B80931D0B812F71
:1058600086958859990B90931C0B80931B0BCAC883
:105870000630110521F70E942914E1CF1092400B48
:1058800090E080E00E94BC1B882301F390E080E060
:105890000E94631BDBCF6EEF74E0CE018B599F4FEC
:1058A0000E94791A00EE17E007CE69E075E0CE019C
:1058B0008B599F4F0E94791A00EE1FEFFDCD64E1D6
:1058C00075E0CE018B599F4F0E94791A00E018EFC6
:1058D000F3CD81E090E01ECE80913A0290913B02A0
:1058E000089711F40E94291460E475E0012B09F473
:1058F00043CE66E575E040CE8091410BEFC8C857B6
:10590000DF4F0FB6F894DEBF0FBECDBFDF91CF9152
:105910001F910F91FF90EF90DF90CF90BF90AF90CD
:105920009F908F907F906F905F904F903F902F90BF
:1059300008951F920F920FB60F9211242F933F9349
:105940008F939F93AF93BF938091EA0B9091EB0B52
:10595000A091EC0BB091ED0B3091E90B23E0230FFC
:105960002D3758F50196A11DB11D2093E90B8093A9
:10597000EA0B9093EB0BA093EC0BB093ED0B8091A3
:10598000EE0B9091EF0BA091F00BB091F10B019603
:10599000A11DB11D8093EE0B9093EF0BA093F00B24
:1059A000B093F10BBF91AF919F918F913F912F9148
:1059B0000F900FBE0F901F90189526E8230F0296A8
:1059C000A11DB11DD2CF1F920F920FB60F921124BD
:1059D0000BB60F922F933F934F935F936F937F93E9
:1059E0008F939F93AF93BF93EF93FF938AEF9BE0C7
:1059F0000E943A0FFF91EF91BF91AF919F918F91CC
:105A00007F916F915F914F913F912F910F900BBEBE
:105A10000F900FBE0F901F9018951F920F920FB608
:105A20000F9211240BB60F922F938F939F93EF93A6
:105A3000FF93E0910A0CF0910B0C8081E091100C27
:105A4000F091110C82FD1DC090818091130C8F5F2D
:105A50008F732091140C821741F0E091130CF0E049
:105A6000E650F44F958F8093130CFF91EF919F9127
:105A70008F912F910F900BBE0F900FBE0F901F9024
:105A800018958081F2CFEAEFFBE01382128288EE54
:105A900093E0A0E0B0E084839583A683B78385E09C
:105AA00094E09183808385EC90E09587848784ECF3
:105AB00090E09787868780EC90E0918B808B81ECDB
:105AC00090E0938B828B82EC90E0958B848B86ECBC
:105AD00090E0978B868B118E128E138E148EE9EACE
