:020000040000FA
:100000000C94B3100C94E4100C94E4100C94E410D1
:100010000C94E4100C94E4100C94E4100C94E41090
:100020000C94E4100C94E4100C94E4100C94E41080
:100030000C94E4100C94E4100C94E4100C94E41070
:100040000C94E4100C94E4100C94E4100C94E41060
:100050000C94E4100C94E4100C94E4100C94C5324D
:100060000C94E4100C9499330C946F330C94E410BA
:100070000C94E4100C94E4100C94E4100C94E41030
:100080000C94E4100C94E4100C94E4100C94E41020
:100090000C94E4100C94E4100C94E4100C94E41010
:1000A0000C94E4100C94E4100C94E4100C94E41000
:1000B0000C94E4100C94E4100C94E4100C94E410F0
:1000C0000C94E4100C94E4100C94E4100C94E410E0
:1000D0000C94E4100C94E4100C9439330C940F330A
:1000E0000C94E4100C94D7160C9489150C942430BD
:1000F0000C942A170C94F5290C9473180C94B015D1
:100100000C9420170C94B6150C9416170C94EB292C
:100110000C940C170C9450180C94E9160C94981528
:100120000C94CF330C94BA150C94C2290C944D2A1C
:100130000C9423180C9491150C94652A0C941A1E97
:100140000C94372A0C94F3160C94C5160C94211EAB
:100150000C940B180C94BE150C9481180C94A215D9
:100160000C9483150C947D1E0C94281E0C94F32A79
:100170000C94BB160C943E170C94FF290C94FD169E
:100180000C94C4150C94C3180C94A7290C94791ED4
:100190000C94DF160C94B1160C94A4160C94C31591
:1001A0000C94541E0C944A240C94E1290C945F186E
:1001B0000C940E290C94811E0C941F2A0C94A815E3
:1001C0000C94CF160C941A250C94D9290C948D15E7
:1001D0000C945F2B0C94C8150C9495150C942F1E41
:1001E0000C94923D0C94AC160C9434170C9410198A
:1001F0000C9490190C949E150C94AC150608206074
:1002000004000000000000050000065F0600060074
:1002100007030007030600247E247E240500242B08
:100220006A1200060063130864630600364956200C
:1002300050040000070300000400003E41000004D9
:100240000000413E00000600083E1C3E0806000873
:10025000083E0808040000E06000000600080808E6
:100260000808040000606000000600201008040276
:1002700006003E5149453E050000427F4000060011
:100280006251494946060022494949360600181478
:10029000127F1006002F4949493106003C4A49495E
:1002A0003006000171090503060036494949360642
:1002B00000064949291E0400006C6C00000400007F
:1002C000EC6C0000050008142241000600242424E0
:1002D00024240600004122140806000201590906E0
:1002E00006003E415D551E06007E1111117E06007E
:1002F0007F4949493606003E4141412206007F417F
:1003000041413E06007F4949494106007F090909EC
:100310000106003E4149497A06007F0808087F052A
:100320000000417F41000600304040403F06007F12
:100330000814224106007F4040404006007F02042E
:10034000027F06007F0204087F06003E4141413ED5
:1003500006007F0909090606003E4151215E06009C
:100360007F0909196606002649494932060001013C
:100370007F010106003F4040403F06001F20402013
:100380001F06003F403C403F06006314081463060C
:100390000007087008070500714945430005000083
:1003A0007F41410006000204081020050000414181
:1003B0007F000600040201020406808080808080A5
:1003C000040000030700000600205454547806007F
:1003D0007F444444380600384444442806003844E6
:1003E00044447F060038545454080500087E090927
:1003F00000060018A4A4A47C05007F04047800056E
:100400000000007D400005004080847D0005007FE5
:1004100010284400050000007F400006007C0418FE
:10042000047805007C04047800060038444444380D
:100430000600FC44444438060038444444FC0600AA
:100440004478440408060008545454200500043E2F
:1004500044240005003C40207C0006001C20402075
:100460001C06003C6030603C05006C10106C000500
:10047000009CA0603C0005006454544C000500083A
:100480003E414100040000007700000600004141A9
:100490003E080500020102010006003C2623263C1E
:1004A0000B102060060000000000000000000000AB
:1004B0000000000000000000000000070000000035
:1004C00000007C00FF33FF337C00000000000000D0
:1004D000000008000000003C003C00000000003C60
:1004E000003C000000000000000B0002101E901FE6
:1004F000F0037E021E1E901FF0037E021E001000FD
:100500000900007804FC0CCC0CFF3FFF3FCC0CCC66
:100510000F8807000000000B00303838381C380EF8
:1005200000078003C001E038703838381C000A002A
:1005300000001FB83FFC31C621E2373E1E1C1C00E4
:1005400036002200000600000000000027003F00E7
:100550001F00000000000000000000000800000074
:1005600000F003FC0FFE1F073801200120000000EF
:100570000000000800000000012001200738FE1FD5
:10058000FC0FF003000000000000090000980CB808
:100590000EE003F80FF80FE003B80E980C0000000F
:1005A00000090000800180018001F00FF00F800140
:1005B0008001800100000000060000000000000033
:1005C000B800F800780000000000000000000009FA
:1005D0000000800180018001800180018001800194
:1005E000800100000000060000000000000038004C
:1005F000380038000000000000000000000B001868
:10060000001C000E00078003C001E00070003800ED
:100610001C000E000BF807FE1F061E03338331C3B8
:1006200030633033301E18FE1FF8070A0000000048
:100630000C300C300E30FF3FFF3F003000300030F8
:1006400000000B1C301E38073C033E03378333C3C6
:1006500031E33077303E301C300B0C0C0E1C073869
:10066000C330C330C330C330C330E7397E1F3C0EC4
:100670000BC003E003700338031C030E030703FFE2
:100680003FFF3F000300030B3F0C7F1C63386330C8
:100690006330633063306330E338C31F830F0BC0B4
:1006A0000FF01FF839DC30CE30C730C330C330C351
:1006B00039801F000F0B0300030003000330033CCD
:1006C000030FC303F3003F000F0003000B000FBC38
:1006D0001FFE39E730C330C330C330E730FE39BCCA
:1006E0001F000F0B3C007E00E730C330C330C3381F
:1006F000C31CC30EE707FE03FC0006000000000059
:1007000000701C701C701C00000000000000000045
:100710000006000000000000709C70FC707C00006F
:100720000000000000000000090000C000E001F02F
:100730000338071C0E0E1C07380330000000000AA7
:1007400000006006600660066006600660066006DF
:10075000600660060000090000033007380E1C1C0C
:100760000E3807F003E001C000000000000A1C0082
:100770001E00070003008337C337E30077003E0005
:100780001C0000000BF80FFE1F0718F333FB371B8C
:1007900036FB37FB370736FE03F8010A0038003F07
:1007A000E007FC061F061F06FC06E007003F0038B6
:1007B00000000AFF3FFF3FC330C330C330C330E700
:1007C00030FE39BC1F000F00000AF003FC0F0E1CA6
:1007D000073803300330033007380E1C0C0C0000C0
:1007E0000AFF3FFF3F033003300330033007380E6A
:1007F0001CFC0FF00300000AFF3FFF3FC330C33073
:10080000C330C330C330C3300330033000000AFFAD
:100810003FFF3FC300C300C300C300C300C30003C6
:1008200000030000000AF003FC0F0E1C0738033021
:10083000C330C330C330C73FC63F00000AFF3FFF8D
:100840003FC000C000C000C000C000C000FF3FFFAC
:100850003F0000080000000003300330FF3FFF3F6F
:10086000033003300000000000000A000E001E00EC
:100870003800300030003000300038FF1FFF070024
:10088000000AFF3FFF3FC000E001F00338071C0EE5
:100890000E1C0738033000000AFF3FFF3F00300006
:1008A0003000300030003000300030003000000AEE
:1008B000FF3FFF3F1E007800E001E00178001E00CE
:1008C000FF3FFF3F00000AFF3FFF3F0E003800F0F0
:1008D00000C0030007001CFF3FFF3F00000AF003B9
:1008E000FC0F0E1C07380330033007380E1CFC0FBA
:1008F000F00300000AFF3FFF3F8301830183018370
:10090000018301C701FE007C0000000AF003FC0F18
:100910000E1C073803300336073E0E1CFC3FF03335
:1009200000000AFF3FFF3F830183018303830783A6
:100930000FC71DFE387C3000000A3C0C7E1CE738D7
:10094000C330C330C330C330C7398E1F0C0F000013
:10095000090000030003000300FF3FFF3F03000303
:10096000000300000000000AFF07FF1F00380030EE
:100970000030003000300038FF1FFF0700000A077A
:10098000003F00F801C00F003E003EC00FF8013FDD
:1009900000070000000AFF3FFF3F001C0006800325
:1009A00080030006001CFF3FFF3F00000A03300FDA
:1009B0003C1C0E3003E001E00130031C0E0F3C0331
:1009C0003000000A03000F003C00F000C03FC03FB1
:1009D000F0003C000F00030000000A0330033C035A
:1009E0003E0333C331E33033301F300F3003300068
:1009F000000800000000FF3FFF3F033003300330DA
:100A000003300000000000000B0E001C00380070D6
:100A100000E000C00180030007000E001C00180861
:100A2000000000000330033003300330FF3FFF3F7E
:100A30000000000000000B6000700038001C000E79
:100A40000007000E001C003800700060000B00C0A2
:100A500000C000C000C000C000C000C000C000C096
:100A600000C000C00700000000000000003E007E43
:100A7000004E0000000000000000000A001C403E84
:100A8000603360336033603360336033E03FC03FD6
:100A900000000AFF3FFF3FC03060306030603060D0
:100AA00030E038C01F800F00000A800FC01FE03800
:100AB00060306030603060306030C0188008000006
:100AC0000A800FC01FE038603060306030E030C016
:100AD00030FF3FFF3F00000A800FC01FE03B603344
:100AE0006033603360336033C0138001000008C09E
:100AF00000C000FC3FFE3FC700C300C3000300006E
:100B000000000000000A8003C0C7E0CE60CC60CCCB
:100B100060CC60CC60E6E07FE03F000009FF3FFF73
:100B20003FC000600060006000E000C03F803F0008
:100B3000000000080000000000306030EC3FEC3F97
:100B4000003000300000000000000800000000003D
:100B50006000E000C060C0ECFFEC7F00000000001F
:100B600000090000FF3FFF3F00038007C00FE01CAB
:100B70006038003000000000080000000000300372
:100B800030FF3FFF3F003000300000000000000A4F
:100B9000E03FC03FE000E000C03FC03FE000E000B9
:100BA000C03F803F00000A0000E03FE03F6000607F
:100BB0000060006000E000C03F803F00000A800F3E
:100BC000C01FE0386030603060306030E038C01FF7
:100BD000800F00000AE0FFE0FF600C601860186002
:100BE000186018E01CC00F800700000A8007C00FC3
:100BF000E01C6018601860186018600CE0FFE0FFEF
:100C000000000A0000E03FE03FC0006000600060BC
:100C1000006000E000C000000008C011E033603355
:100C2000603360336033603F401E0000000000000E
:100C30000860006000FE1FFE3F60306030603000E2
:100C4000300000000000000AE00FE01F0038003014
:100C50000030003000300018E03FE03F00000A6044
:100C600000E0018007001E00380038001E8007E009
:100C700001600000000AE007E01F0038001CE00FE0
:100C8000E00F001C0038E01FE0070000096030E0C2
:100C900038C01D800F0007800FC01DE03860300095
:100CA0000000000900006000E08180E7007E001E77
:100CB0008007E001600000000000096030603860DB
:100CC0003C60366033E031E03060302030000000BE
:100CD000000900008000C001FC1F7E3F0770036018
:100CE0000360036000000000060000000000000038
:100CF00000FF3FFF3F00000000000000000000096F
:100D0000000003600360036007707E3FFC1FC001AA
:100D10008000000000000A100018000C0004000C05
:100D2000001800100018000C00040000000A000F5A
:100D3000800FC00C600C300C300C600CC00C800FAD
:100D4000000F0000FFFFFFFFFFFFFFFFFFFFFFFFA0
:100D5000FFFFFFFFFFFFFFFFFFFFFFFFFFFFFFFFA3
:100D6000FFFFFFFFFFFFFFFFFFFFFFFFFFFFFFFF93
:100D7000FFFFFFFFFFFFFFFFFFFFFFFFFFFFFFFF83
:100D8000FFFFFFFFFFFFFFFFFFFFFFFFFFFFFFFF73
:10111000FFFFFFFFFFFF00000FFFFFFFFFFFFFFFCD
:10112000FFFFFFFFFFFFFFFFFFFFFFE00000007F6B
:10113000FFFFFFFFFFFFFFFFFFFFFFFFFFFFFFFFBF
:10114000FE0000000007FFFFFFFFFFFFFFFFFFFFA4
:10115000FFFFFFFFFFFFF00000000000FFFFFFFFA9
:10116000FFFFFFFFFFFFFFFFFFFFFFFFC0000000CB
:1011700000003FFFFFFFFFFFFFFFFFFFFFFFFFFF3D
:10118000FFFE00000000000007FFFFFFFFFFFFFF62
:10119000FFFFFFFFFFFFFFF800000000000001FF5E
:1011A000FFFFFFFFFFFFFFFFFFFFFFFFFFE000006C
:1011B00000000000007FFFFFFFFFFFFFFFFFFFFFBA
:1011C000FFFFFFC0000000000000003FFFFFFFFF27
:1011D000FFFFFFFFFFFFFFFFFF0000000000000018
:1011E000000FFFFFFFFFFFFFFFFFFFFFFFFFFE00FE
:1011F0000000000000000007FFFFFFFFFFFFFFFFF0
:10120000FFFFFFFFF8000000000000000001FFFFEB
:10121000FFFFFFFFFFFFFFFFFFFFF00000000000E8
:1012200000000000FFFFFFFFFFFFFFFFFFFFFFFFCA
:10123000E00000000000000000007FFFFFFFFFFF54
:10124000FFFFFFFFFFFF8000000000000000000024
:101250001FFFFFFFFFFFFFFFFFFFFFFF000000007A
:101260000000000000000FFFFFFFFFFFFFFFFFFF78
:10127000FFFE0000000000000000000007FFFFFF6D
:10128000FFFFFFFFFFFFFFFC000000000000000069
:10129000000003FFFFFFFFFFFFFFFFFFFFF800005D
:1012A000000000000000000001FFFFFFFFFFFFFF44
:1012B000FFFFFFF00000000000000000000000FF42
:1012C000FFFFFFFFFFFFFFFFFFE000000000000047
:1012D00000000000007FFFFFFFFFFFFFFFFFFFC0D8
:1012E00000000000000000000000003FFFFFFFFFC3
:1012F000FFFFFFFFFF800000000000000000000073
:10130000001FFFFFFFFFFFFFFFFFFF0000000000C7
:10131000000000000000000FFFFFFFFFFFFFFFFFC6
:10132000FF0000000000000000000000000FFFFFB1
:10133000FFFFFFFFFFFFFE000000000000000000B5
:1013400000000007FFFFFFFFFFFFFFFFFC000000A2
:1013500000000000000000000003FFFFFFFFFFFF90
:10136000FFFFFC0000000000000000000000000182
:10137000FFFFFFFFFFFFFFFFF8000000000000007D
:10138000000000000001FFFFFFFFFFFFFFFFF00074
:10139000000000000000000000000000FFFFFFFF51
:1013A000FFFFFFFFF0000000000000000000000051
:1013B00000007FFFFFFFFFFFFFFFE00000000000D5
:1013C00000000000000000007FFFFFFFFFFFFFFFA5
:1013D000C0000000000000000000000000007FFFCF
:1013E000FFFFFFFFFFFFC0000FFFE0000000000055
:1013F000000000007FFFFFFFFFFFFFFF80007FFF77
:10140000FC0000000007FFFFFFFFFFFFFFFFFFFFE3
:10141000FFFF8001FFFFFF000000003FFFFFFFFF15
:10142000FFFFFFFFFFFFFFFF0003FFFFFFC0000004
:1014300000FFFFFFFFFFFFFFFFFFFFFFFFFF000FAA
:10144000FFFFFFE0000003FFFFFFFFFFFFFFFFFFC5
:10145000FFFFFFFE001FFFFFFFF8000007FFFFFF79
:10146000FFFFFFFFFFFFFFFFFFFE003FFFFFFFFC4F
:1014700000000FFFFFFFFFFFFFFFFFFFFFFFFFFE6B
:10148000007FFFFFFFFE00001FFFFFFFFFFFFFFFCA
:10149000FFFFFFFFFFFC00FFFFFFFFFF00001FFF3C
:1014A000FFFFFFFFFFFFFFFFFFFFFFFC01FFFFFF4D
:1014B000FFFF00003FFFFFFFFFFFFFFFFFFFFFFFFA
:1014C000FFFC01FFFC007FFF80003FFFF8000000F1
:1014D00007FFFFFFFFFFFFF803FFF0001FFFC00043
:1014E0003FFE0000000001FFFFFFFFFFFFF807FFC6
:1014F000E00007FFC0007FF80000000001FFFFFFD1
:10150000FFFFFFF807FFC00003FFE0007FF80000C7
:10151000000001FFFFFFFFFFFFF00FFF800001FF52
:10152000E0007FF00000000000FFFFFFFFFFFFF082
:101530000FFF000001FFF0007FF00000000000FF3F
:10154000FFFFFFFFFFF00FFE000000FFF0007FF045
:101550000000000000FFFFFFFFFFFFF01FFE000084
:10156000007FF0007FF00000000000FFFFFFFFFFA2
:10157000FFE01FFC0000007FF8007FF80000000083
:10158000007FFFFFFFFFFFE01FFC0000003FF800AF
:101590007FF800000000007FFFFFFFFFFFE01FFC5F
:1015A0000000003FF8007FFC00000000007FFFFF0C
:1015B000FFFFFFE01FF80000003FF8003FFF0000C2
:1015C0000000007FFFFFFFFFFFE03FF80000003F4B
:1015D000F8003FFFC0000000007FFFFFFFFFFFE0BB
:1015E0003FF80000001FF8001FFFF8000000007F18
:1015F000FFFFFFFFFFE03FF80000001FF8001FFFA4
:10160000FF000000007FFFFFFFFFFFC03FF800006A
:10161000001FF8000FFFFFE00000003FFFFFFFFF8B
:10162000FFC03FF80000001FF80007FFFFFE0000AA
:10163000003FFFFFFFFFFFC03FF80000003FF80042
:1016400003FFFFFFC000003FFFFFFFFFFFC03FF8A9
:101650000000003FF80001FFFFFFF800003FFFFF20
:10166000FFFFFFC03FF00000003FF800007FFFFFDA
:10167000FE00003FFFFFFFFFFFC03FF00000003F04
:10168000F800001FFFFFFF80003FFFFFFFFFFFC0CC
:101690003FF00000003FF8000007FFFFFFE0003FC1
:1016A000FFFFFFFFFFC03FF00000003FF800000019
:1016B000FFFFFFF0003FFFFFFFFFFFC03FF0000014
:1016C000003FF00000001FFFFFF8003FFFFFFFFF9B
:1016D000FFC07FF00000003FF000000003FFFFFCB0
:1016E000003FFFFFFFFFFFC07FF00000003FF00062
:1016F0000000007FFFFE003FFFFFFFFFFFE07FE0F5
:101700000000003FF0000000000FFFFF003FFFFF60
:10171000FFFFFFE07FE00000007FF000000000011D
:10172000FFFF007FFFFFFFFFFFE07FE00000007F83
:10173000F000000000007FFF807FFFFFFFFFFFE061
:101740007FE00000007FF000000000001FFF807FAE
:10175000FFFFFFFFFFE07FE00000007FE0000000F0
:10176000000007FF807FFFFFFFFFFFE07FE000003A
:10177000007FE0000000000003FFC07FFFFFFFFFCD
:10178000FFE0FFE00000007FE0000000000003FF3A
:10179000C07FFFFFFFFFFFF0FFE00000007FE000E1
:1017A0000000000001FFC0FFFFFFFFFFFFF0FFE0B0
:1017B000000000FFE0000000000001FFC0FFFFFF8D
:1017C000FFFFFFF0FFE0000000FFE000000000006E
:1017D00001FFC0FFFFFFFFFFFFF0FFE0000000FF81
:1017E000E0000000000001FFC0FFFFFFFFFFFFF06F
:1017F000FFC0000000FFE0000000000003FFC0FF8A
:10180000FFFFFFFFFFF8FFC0000000FFE000000047
:10181000000003FF81FFFFFFFFFFFFF8FFC0000094
:1018200000FFE000000000000FFF81FFFFFFFFFF4F
:10183000FFFCFFC0000000FFE000000000003FFFD1
:1018400081FFFFFFFFFFFFFDFFC0000000FFFFFF64
:10185000FFFFFFFFFFFF03FFFFFFFFFFFFFFFFC0D3
:10186000000000FFFFFFFFFFFFFFFFFF03FFFFFF81
:10187000FFFFFFFFFFC0000001FFFFFFFFFFFFFFB3
:10188000FFFE03FFFFFFFFFFFFFFFF80000001FFE0
:10189000FFFFFFFFFFFFFFFE07FFFFFFFFFFFFFF51
:1018A000FF80000001FFFFFFFFFFFFFFFFFC07FFBE
:1018B000FFFFFFFFFFFFFF80000001FFFFFFFFFFB3
:1018C000FFFFFFF80FFFFFFFFFFFFFFFFF8000009C
:1018D00001FFFFFFFFFFFFFFFFE00FFFFFFFFFFF25
:1018E000FFFFFF80000001FFFFFFFFFFFFFFFFC0C2
:1018F0001FFFFFFFFFFFFFFFFF80000001FFFFFF53
:10190000FFFFFFFFFF001FFFFFFFFFFFFFFFFF8045
:10191000000001FFFFFFFFFFFFFFC0003FFFFFFFD1
:10192000FFFFFFFFFF80000000000000000000003C
:1019300000003FFFFFFFFFFFFFFFFF8000000000F0
:1019400000000000000000007FFFFFFFFFFFFFFF1F
:10195000FF000000000000000000000000007FFF0A
:10196000FFFFFFFFFFFFFF0000000000000000007E
:1019700000000000FFFFFFFFFFFFFFFFFF00000070
:1019800000000000000000000000FFFFFFFFFFFF5D
:10199000FFFFFF0000000000000000000000000149
:1019A000FFFFFFFFFFFFFFFFFF0000000000000040
:1019B000000000000003FFFFFFFFFFFFFFFFFF002D
:1019C000000000000000000000000007FFFFFFFF14
:1019D000FFFFFFFFFF00000000000000000000000C
:1019E0000007FFFFFFFFFFFFFFFFFF0000000000F9
:1019F000000000000000000FFFFFFFFFFFFFFFFFE0
:101A0000FF8000000000000000000000001FFFFF3A
:101A1000FFFFFFFFFFFFFFC000000000000000000D
:101A20000000003FFFFFFFFFFFFFFFFFFFE00000A0
:101A30000000000000000000007FFFFFFFFFFFFF2D
:101A4000FFFFFFE000000000000000000000007F3A
:101A5000FFFFFFFFFFFFFFFFFFF00000000000009F
:101A60000000000000FFFFFFFFFFFFFFFFFFFFFC84
:101A70000000000000000000000001FFFFFFFFFF6A
:101A8000FFFFFFFFFFFE000000000000000000005D
:101A900003FFFFFFFFFFFFFFFFFFFFFF000000004E
:101AA00000000000000007FFFFFFFFFFFFFFFFFF38
:101AB000FFFF800000000000000000001FFFFFFF8C
:101AC000FFFFFFFFFFFFFFFFC0000000000000005E
:101AD00000003FFFFFFFFFFFFFFFFFFFFFFFE000F2
:101AE00000000000000000007FFFFFFFFFFFFFFF7E
:101AF000FFFFFFFFF8000000000000000000FFFFF4
:101B0000FFFFFFFFFFFFFFFFFFFFFC0000000000E3
:101B100000000003FFFFFFFFFFFFFFFFFFFFFFFFCE
:101B2000FE000000000000000007FFFFFFFFFFFFB6
:101B3000FFFFFFFFFFFFFF80000000000000001F0D
:101B4000FFFFFFFFFFFFFFFFFFFFFFFFFFE00000C2
:101B500000000000007FFFFFFFFFFFFFFFFFFFFF10
:101B6000FFFFFFF000000000000000FFFFFFFFFF8D
:101B7000FFFFFFFFFFFFFFFFFFFE00000000000070
:101B800003FFFFFFFFFFFFFFFFFFFFFFFFFFFFFF61
:101B90008000000000001FFFFFFFFFFFFFFFFFFFAF
:101BA000FFFFFFFFFFFFE000000000007FFFFFFFDF
:101BB000FFFFFFFFFFFFFFFFFFFFFFFFFC00000035
:101BC0000003FFFFFFFFFFFFFFFFFFFFFFFFFFFF20
:101BD000FFFFFF800000001FFFFFFFFFFFFFFFFF71
:101BE000FFFFFFFFFFFFFFFFFFFC000001FFFFFF04
:101BF000FFFFFFFFFFFFFFFFFFFFFFFFFFFFFFFFF5
:101C0000F000FFFFFFFFFFFFFFFFFFFFFFFFFFFFF2
:101C1000FFFFFFFFFFFFFFFFFFFFFFFFFFFFFFFFD4
:101C2000FFFFFFFFFFFFFFFFFFFFFFFFFFFFFFFFC4
:101C3000FFFFFFFFFFFFFFFFFFFFFFFFFFFFFFFFB4
:101C4000FFFFFFFFFFFFFFFFFFFFFFFFFFFFFFFFA4
:10204000FFFF00002100240027002A002D0030009F
:10205000330001010000040107010A010000220011
:10206000250028002B002E00310034000201000062
:10207000050108010B0100002000230026002900B3
:102080002C002F00320000010000030106010901AD
:1020900005050505070508080808020202020A0AE4
:1020A0000808040404040101010101010101030302
:1020B000030303030303040707070C0C0C0C0C0CAD
:1020C0000C0C0202020206060606060606060B0BAA
:1020D0000B0B0B0B0B0B01021020200808102040EB
:1020E00010204080020102010804020101020408DC
:1020F000102040808040201008040201800402016A
:1021000080402010080402010804020101020408B2
:1021100010204080010204081020408000000A0BBB
:1021200002090C0D0E080703040100000000000066
:10213000000000000000000000000000000000009F
:10214000000000000000000012111000000000005C
:10215000000000000000000000000000000000007F
:102160000000CF33923D11241FBECFEFD1E2DEBF7E
:10217000CDBF00E00CBF20E1A8EEB5E001C01D928C
:10218000A933B207E1F715E0A0E0B2E0E0E7F6E836
:1021900000E00BBF02C007900D92A83EB107D9F72F
:1021A00010E1C2EBD0E100E006C021970109802FC9
:1021B000FE010E942140C13BD10780E00807A9F73A
:1021C0000E94D3340C9426430C940000FC01A08997
:1021D000B18982E08C93A485B5851C92A685B785CC
:1021E00080E18C93108EA489B58986E08C93A289B6
:1021F000B3898C9180618C93A289B3898C9188601A
:102200008C93A289B3898C9180688C930288F3891E
:10221000E02D80818F7D808308958091231090919F
:102220002410A0912510B09126100197A109B109A1
:102230008093231090932410A0932510B093261020
:10224000892B8A2B8B2B49F4E091E10FF091E20F5F
:1022500080819091E50F892B80830895AC01E091F6
:10226000DD0FF091DE0F80819091E60F892B808346
:10227000E091E10FF091E20F80819091E50F909550
:10228000982390838091D70F20E130E060E070E8E0
:1022900087FF12C05EBD0DB407FEFDCF4EBD0DB46D
:1022A00007FEFDCFE091E10FF091E20F8081909168
:1022B000E50F892B80830895E091D90FF091DA0F13
:1022C0009091E30FDA01A623B7238081AB2BD9F0DD
:1022D000982B9083E091DB0FF091DC0F808190913F
:1022E000E40F892B8083E091DB0FF091DC0F80817C
:1022F0009091E40F9095982390837695679521505F
:102300003109D1F6CFCF90959823E3CF9C01E0918E
:10231000DD0FF091DE0F80819091E60F909598236C
:102320009083E091E10FF091E20F80819091E50FB1
:102330009095982390838091D70F40E150E060E022
:1023400070E887FF12C01EBC0DB407FEFDCF2EBD86
:102350000DB407FEFDCFE091E10FF091E20F808117
:102360009091E50F892B80830895E091D90FF0912A
:10237000DA0F9091E30FD901A623B7238081AB2B0D
:10238000D9F0982B9083E091DB0FF091DC0F8081E6
:102390009091E40F892B8083E091DB0FF091DC0FAB
:1023A00080819091E40F909598239083769567951E
:1023B00041505109D1F6CFCF90959823E3CFCF93D9
:1023C000DF93EB010E948611CE01DF91CF910C9437
:1023D0002E118091231090912410A0912510B0917E
:1023E0002610AC01BD014F5F5F4F6F4F7F4F409391
:1023F0002310509324106093251070932610892B7E
:102400008A2B8B2B91F48091D70F87FF04C080E536
:102410008CBD81E08DBDE091E10FF091E20F9081E4
:102420008091E50F8095892380830895DC01FB016D
:102430008091E70F8230B9F0833069F1813051F536
:102440008091CF0F9091D00F019720813181821B15
:10245000930B918380832D913C9111978D939C9345
:102460003183208308958091CD0F9091CE0F0197F5
:102470002D913C911197821B930B8D939C9380918E
:10248000CF0F9091D00F019720813181821B930B48
:102490009183808308958091CD0F9091CE0F019705
:1024A0002D913C911197821B930B11969C938E93C7
:1024B000208131812D933C93EBCF0F931F93CF93CA
:1024C000DF9300D01F92CDB7DEB79A8389837C83D8
:1024D0006B832091CD0F3091CE0F8217930720F59B
:1024E0002091CF0F3091D00F62177307E8F48A0163
:1024F000BE016D5F7F4FCE0101960E9416120E94B1
:10250000E91169817A8180E290E00E94DF116B819C
:102510007C8181E290E00E94DF11B80182E290E0CC
:102520000E94DF110E940D110F900F900F900F90DD
:10253000DF91CF911F910F9108950F931F93CF9328
:10254000DF9300D000D01F921F92CDB7DEB77C83FF
:102550006B835E834D8338872F832091CD0F30911D
:10256000CE0F215031092817390708F4C9019A8381
:1025700089838D819E812817390708F4C9019E83BC
:102580008D838091CF0F9091D00F01972B813C814B
:102590008217930708F49C013C832B832F81388595
:1025A0008217930708F49C0138872F83BE016D5F63
:1025B0007F4FCE0101960E941612BE01695F7F4FC8
:1025C000CE0105960E9416122D813E8189819A8145
:1025D0002817390720F43A8329839E838D832F811E
:1025E00038858B819C812817390720F43C832B8305
:1025F00098878F830E94E911E091E70FEE2379F02D
:10260000E150FF0B23E0EE0FFF1F2A95E1F7E00FEB
:10261000F11FEE0FFF1FE751F04F00811181B8014C
:1026200083E0660F771F8A95E1F7706183E090E0A1
:102630000E94DF116D817E8186E390E00E94DF11B0
:1026400069817A8187E390E00E94DF116F8178854C
:1026500088E390E00E94DF116B817C8189E390E048
:102660000E94DF11159507950130110529F1ACF491
:102670006D817E81012B11F182E290E00E94861132
:102680000E940D1128960FB6F894DEBF0FBECDBF85
:10269000DF91CF911F910F91089502301105C9F07C
:1026A00069817A810330110539F780E290E00E9458
:1026B000DF116B817C8108C069817A8180E290E0C2
:1026C0000E94DF116F81788581E290E00E94DF1126
:1026D000D3CF6D817E81E9CF6FEA70E086E390E031
:1026E0000E94DF1170E060E087E390E00E94DF115C
:1026F0006BED70E088E390E00E94DF1170E060E035
:1027000089E390E00C94DF118F929F92AF92BF9279
:10271000CF92DF92EF92FF920F931F93CF93DF93AD
:102720005C014B01EA017901680107E010E00E94B9
:102730009D120E94E9118FEFE81AF80AE818F908CB
:102740002196CA19DB09EC9E5001ED9EB00CFC9E4F
:10275000B00C1124A114B10439F0C6010E942E114D
:1027600081E0A81AB108F6CF0E940D11DF91CF9138
:102770001F910F91FF90EF90DF90CF90BF90AF909F
:102780009F908F900C946C132F923F924F925F9278
:102790006F927F928F929F92AF92BF92CF92DF9271
:1027A000EF92FF920F931F93CF93DF9300D000D04F
:1027B00000D01F921F92CDB7DEB75B015B834A83C7
:1027C000522E432E7C01712C272D30E0EA81FB81B3
:1027D000848195812817390708F0D4C080819181C0
:1027E000009709F4A5C0820F931FFC018081F0912E
:1027F0001D10FA8720912110F29F900111242F5F64
:102800003F4F082E000C990B40911F10841B91091B
:10281000289F6001299FD00C389FD00C11248091F3
:10282000221081110BC0E0911B10F0911C10960139
:102830002C5F3F4FE20FF31F34913A8785E0C80EBB
:10284000D11C0E94E9119A85292E312CA7014F5FD6
:102850005F4F420D531D8091CD0F9091CE0F4817C1
:10286000590708F067C020911E102150330B2A0D24
:102870003B1D8091CF0F9091D00F2817390708F09A
:1028800059C007E010E0B501C7010E949D12E1E0C8
:10289000E9831B868601612C2B852E0D3F2D311D72
:1028A00039872887802F8C1990912110891708F07B
:1028B00059C03A859B85E0E0391739F0E0911B104B
:1028C000F0911C10E00FF11FE4910F5F1F4FF8E033
:1028D0008F9FC00111249C012A0D3B1D3D832C8339
:1028E000912C812C8E2F90E09F838E8380911E10DF
:1028F0006816C0F68E819F81082C02C09595879539
:102900000A94E2F781709927E981EE23D1F0892BAF
:10291000A9F48091D10F9091D20F0E942E1163944F
:10292000FFEF8F1A9F0A28E082169104F9F6BACFBA
:1029300080E05DCF1982ADCF6801ACCF852D942D9D
:10294000ECCF4091D10F5091D20F892B11F0452D32
:10295000542D6C817D81680D791D888599850E9433
:102960005D12DDCF3B853F5F3B878A85831720F76C
:102970000E940D110E946C13C1010196E80EF91E10
:10298000739422CFC7012B960FB6F894DEBF0FBE0B
:10299000CDBFDF91CF911F910F91FF90EF90DF900E
:1029A000CF90BF90AF909F908F907F906F905F90EF
:1029B0004F903F902F9008952F923F924F925F92A9
:1029C0006F927F928F929F92AF92BF92CF92DF923F
:1029D000EF92FF920F931F93CF93DF93EC018B0144
:1029E0004A017901E61AF70AF7FE03C0F194E1946F
:1029F000F1086401CC1ADD0AD7FE03C0D194C1945A
:102A0000D108CE14DF0454F4982D892D4901292FC3
:102A1000382F9C2F8D2FE801092F182F8C169D061B
:102A200050F4902F812F8901292F382F9C2F8D2F23
:102A3000E401892E982E14012C1A3D0A2901401A0E
:102A4000510A57FE03C0519441945108310137FE99
:102A500003C08FEF681A780A75946794AA24AA9421
:102A6000BA2C0217130718F4AA24A394B12C0E94BD
:102A7000E9118C169D06A8F04FEF5FEFBE01C8016B
:102A8000CE14DF0414F0B801CE010E945D12641868
:102A9000750877FE04C00A0D1B1D620C731C21967D
:102AA000E8CFDF91CF911F910F91FF90EF90DF90D2
:102AB000CF90BF90AF909F908F907F906F905F90DE
:102AC0004F903F902F900C940D118150823108F05F
:102AD0005AC0E82FF0E08827EF58FA4E8F4F0C9439
:102AE000214091159515831589158D15C3159815D8
:102AF0009E15A215A815AC15B015B615BA15C315B7
:102B0000BE15C415C815809180008F778093800012
:102B10000895809180008F7DF9CF80918000877F1C
:102B2000F5CF84B58F7784BD089584B58F7DFBCFB5
:102B30008091B0008F778093B00008958091B000AD
:102B40008F7DF9CF809190008F77809390000895CA
:102B5000809190008F7DF9CF80919000877FF5CF95
:102B60008091A0008F778093A00008958091A000AD
:102B70008F7DF9CF8091A000877FF5CF80912001D4
:102B80008F77809320010895809120018F7DF9CF68
:102B900080912001877FF5CFCF93DF93282F30E0FE
:102BA000F901E45EFE4D8491F901EA52FF4DD491A2
:102BB000F901E057FF4DC491CC23A1F081110E948F
:102BC0006515EC2FF0E0EE0FFF1FEA58FF4DA591C1
:102BD000B491EC91ED2381E090E009F480E0DF9185
:102BE000CF91089580E090E0FACF1F93CF93DF93C9
:102BF000282F30E0F901E45EFE4D8491F901EA529C
:102C0000FF4DD491F901E057FF4DC491CC23A9F0B9
:102C1000162F81110E946515EC2FF0E0EE0FFF1FBB
:102C2000E45AFF4DA591B4918FB7F894EC9111112E
:102C300008C0D095DE23DC938FBFDF91CF911F9129
:102C40000895DE2BF8CFCF93DF9390E0FC01EA529A
:102C5000FF4D249180579F4DFC0184918823C9F03A
:102C600090E0880F991FFC01EE5BFF4DA591B49198
:102C7000FC01E45AFF4DC591D49161110DC09FB77D
:102C8000F8948C91209582238C9388812823288323
:102C90009FBFDF91CF910895623051F49FB7F894B0
:102CA0003C91822F809583238C93E8812E2BEFCF4C
:102CB0008FB7F894EC912E2B2C938FBFEACF1F93F4
:102CC000CF93DF9380931A101091D80F112309F43A
:102CD0003FC0C091E80FD0E0811102C0D0E0C0E059
:102CE00061E0812F0E942316209739F460E0812F44
:102CF000DF91CF911F910C94F515CF3FD10511F4C1
:102D000061E0F5CFE12FF0E0E45EFE4DE491E150AB
:102D1000E23108F0B3C0F0E08827EE56F94E8F4F4D
:102D20000C942140A416AC16B116BB16C5163E175E
:102D3000CF16D716DF16E916F316FD160C17161761
:102D40003E1720172A17341784B5806884BDC7BD85
:102D5000DF91CF911F91089584B5806284BDC8BD75
:102D6000F7CF80918000806880938000D0938900A5
:102D7000C0938800EDCF80918000806280938000B6
:102D8000D0938B00C0938A00E3CF8091800088604D
:102D900080938000D0938D00C0938C00D9CF809118
:102DA000B00080688093B000C093B300D1CF809111
:102DB000B00080628093B000C093B400C9CF80910E
:102DC0009000806880939000D0939900C093980001
:102DD000BFCF80919000806280939000D0939B0041
:102DE000C0939A00B5CF8091900088608093900046
:102DF000D0939D00C0939C00ABCF8091A0008068D1
:102E00008093A0008091A0008F7B8093A000D0933E
:102E1000A900C093A8009CCF8091A00080628093FD
:102E2000A000D093AB00C093AA0092CF8091A000E5
:102E300088608093A000D093AD00C093AC0088CF91
:102E400080912001806880932001D0932901C09354
:102E500028017ECF80912001806280932001D09351
:102E60002B01C0932A0174CF809120018860809348
:102E70002001D0932D01C0932C016ACFC038D10519
:102E80000CF03ECF33CF90917B00977F90937B00E7
:102E90008653806480937C0080917A008064809364
:102EA0007A0080917A0086FDFCCF80917800909125
:102EB000790008953FB7F8948091A00B9091A10BF1
:102EC000A091A20BB091A30B26B5A89B05C02F3FE4
:102ED00019F00196A11DB11D3FBFBA2FA92F982F40
:102EE0008827BC01CD01620F711D811D911D42E03B
:102EF000660F771F881F991F4A95D1F708958F9203
:102F00009F92AF92BF92CF92DF92EF92FF924B01CE
:102F10005C010E945A176B017C010E945A176C19C0
:102F20007D098E099F09683E734081059105A8F3CC
:102F300021E0821A9108A108B10888EEC80E83E04A
:102F4000D81EE11CF11C81149104A104B10429F7DD
:102F5000FF90EF90DF90CF90BF90AF909F908F90B9
:102F60000895CF92DF92EF92FF920F931F93CF932A
:102F7000C091E70F1092E70F80EBC82ED12CD092B2
:102F8000CE0FC092CD0F9CEDE92EF12CF092D00F18
:102F9000E092CF0F10E000E02BED30E04FEA50E080
:102FA00070E060E090E080E00E948413C370C09302
:102FB000E70FC130B9F0C330A9F0D092CE0FC09264
:102FC000CD0FF092D00FE092CF0F6AE070E080E07A
:102FD00090E0CF911F910F91FF90EF90DF90CF90F5
:102FE0000C947F178CED90E09093CE0F8093CD0FD3
:102FF00080EB90E09093D00F8093CF0FE6CF2FB768
:10300000F89460919C0B70919D0B80919E0B909118
:103010009F0B2FBF0895E1E02091F40A3091F50A4B
:103020004091F60A5091F70A6091F80A7091F90AF6
:103030008091FA0A9091FB0AA0E00E94D34009F423
:10304000E0E08E2F0895AF92BF92CF92DF92EF9281
:10305000FF920F931F93CF93DF936C017B018B0142
:10306000040F151FEB015E01AE18BF08C017D10792
:1030700059F06991D601ED91FC910190F081E02D1C
:10308000C6011995892B79F7C501DF91CF911F9161
:103090000F91FF90EF90DF90CF90BF90AF90089589
:1030A000FC01538D448D252F30E0842F90E0821B4E
:1030B000930B541710F0CF96089501970895FC01D3
:1030C000918D828D981761F0A28DAE0FBF2FB11D2B
:1030D0005D968C91928D9F5F9F73928F90E0089583
:1030E0008FEF9FEF0895FC01918D828D981731F03D
:1030F000828DE80FF11D858D90E008958FEF9FEF91
:103100000895FC01918D228D892F90E0805C9F4F66
:10311000821B91098F73992708958CEA9BE00E9486
:10312000811821E0892B09F420E0822F089589E499
:103130009CE00E94811821E0892B09F420E0822F75
:103140000895FC01A48DA80FB92FB11DA35ABF4F3C
:103150002C91848D90E001968F739927848FA68996
:10316000B7892C93A089B1898C91837080648C93EA
:10317000938D848D981306C00288F389E02D808199
:103180008F7D80830895EF92FF920F931F93CF93CB
:10319000DF93EC0181E0888F9B8D8C8D98131AC092
:1031A000E889F989808185FF15C09FB7F894EE8979
:1031B000FF896083E889F9898081837080648083D6
:1031C0009FBF81E090E0DF91CF911F910F91FF9021
:1031D000EF900895F62E0B8D10E00F5F1F4F0F73C9
:1031E0001127E02E8C8D8E110CC00FB607FCFACF84
:1031F000E889F989808185FFF5CFCE010E94A11869
:10320000F1CFEB8DEC0FFD2FF11DE35AFF4FF08254
:103210009FB7F8940B8FEA89FB8980818062CFCFBA
:10322000CF93DF93EC01888D8823B9F0AA89BB89FD
:10323000E889F9898C9185FD03C0808186FD0DC0E8
:103240000FB607FCF7CF8C9185FFF2CF808185FF09
:10325000EDCFCE010E94A118E9CFDF91CF91089563
:1032600080E090E0892B29F00E94971881110E943C
:10327000000080E090E0892B49F080E090E0892B0D
:1032800029F00E94000081110E94000080E090E07F
:10329000892B49F080E090E0892B29F00E94000002
:1032A00081110E94000080E090E0892B29F00E94AB
:1032B0008D1881110C94000008950F931F93CF93E4
:1032C000DF938C01C4E2DEE0CE0184529E40801781
:1032D000910734F469918CEA9BE00E94C318F4CF03
:1032E000DF91CF911F910F9108950F931F930E942B
:1032F000FF170091060210910702209108023091F9
:103300000902601B710B820B930B21E06131774244
:103310008105910508F420E0822F1F910F910895F7
:103320004F3651056105710571F042305105610557
:10333000710548F04F7D81E04D34510561057105FF
:1033400019F080E0089581E00895FB0190818927BC
:1033500090E1899F90011124822790E0382F222745
:10336000AC0163E0440F551F6A95E1F72427352728
:10337000418150E02427352774E0959587957A950B
:10338000E1F7822793279183808308950F931F93FA
:10339000CF93DF931F921F92CDB7DEB78C01862F9C
:1033A000F801208131813A832983BE016F5F7F4F0D
:1033B0000E94A51989819A81F801918380830F90D9
:1033C0000F90DF91CF911F910F9108952F923F920F
:1033D0004F925F926F927F928F929F92AF92BF9225
:1033E000CF92DF92EF92FF920F931F93CF93DF93D1
:1033F000CDB7DEB7A4970FB6F894DEBF0FBECDBF32
:10340000FC019C01205C3F4F8C01D8016D917D91A6
:103410008D919D91AD010E942940D8016D937D93BE
:103420008D939C9313978A014217530771F7DA0122
:103430008D909D90AD90BC908D829E82AF82B8861B
:10344000DF01AC5BBF4F8D909D90AD90BC9013970A
:103450008D869E86AF86B88A14960D911D912D910A
:103460003C911397098B1A8B2B8B3C8B14962D91C7
:103470003D914D915C9113972F8F38A349A35AA387
:1034800014968D909D90AD90BC90139789829A82EE
:10349000AB82BC8214960D911D912D913C91139796
:1034A0000D8B1E8B2F8B388F14962D913D914D9146
:1034B0005C911397298F3A8F4B8F5C8F14968D9068
:1034C0009D90AD90BC9089869A86AB86BC8606E9B5
:1034D00012E01E8F0D8F312C212CD10110E121160D
:1034E00031040CF021C2AA0FBB1FAA0FBB1FAE0FE5
:1034F000BF1FCD90DD90ED90FC90AD8DBE8D0D91F8
:103500001D912D913D91BE8FAD8F49815A816B8167
:103510007C818AE1440F551F661F771F8A95D1F77A
:1035200089809A80AB80BC8096E0B694A7949794EB
:1035300087949A95D1F7482959296A297B29498086
:103540005A806B807C80A5E1440C551C661C771C5E
:10355000AA95D1F789819A81AB81BC81072E7BE046
:10356000B695A795979587957A95D1F7702D84296B
:103570009529A629B729482759276A277B274980F3
:103580005A806B807C8089E1769467945794479445
:103590008A95D1F789819A81AB81BC81689416F8AC
:1035A000880F991FAA1FBB1F1694D1F7842995294C
:1035B000A629B7292A013B01482659266A267B26D7
:1035C00049815A816B817C814095509560957095B9
:1035D000898C9A8CAB8CBC8C482159216A217B2127
:1035E00089819A81AB81BC818D889E88AF88B88C97
:1035F00088219921AA21BB2184279527A627B727AF
:10360000B301A201480F591F6A1F7B1F400F511FB2
:10361000621F731FC40ED51EE61EF71E09851A858C
:103620002B853C850C0D1D1D2E1D3F1D8D809E8004
:10363000AF80B8848EE1880C991CAA1CBB1C8A95AB
:10364000D1F74D805E806F80788492E076946794A5
:10365000579447949A95D1F784289528A628B72897
:103660004D815E816F817885A3E1440F551F661FF0
:10367000771FAA95D1F78D819E81AF81B885072EDE
:103680007DE0B695A795979587957A95D1F7702D9A
:10369000842B952BA62BB72B88269926AA26BB26EA
:1036A0004D815E816F81788586E176956795579526
:1036B00047958A95D1F78D819E81AF81B885072E78
:1036C0007AE0880F991FAA1FBB1F7A95D1F7702D3A
:1036D000842B952BA62BB72BB501A401482759277E
:1036E0006A277B278D849E84AF84B88889899A89CC
:1036F000AB89BC8988269926AA26BB268D819E8106
:10370000AF81B88588229922AA22BB22CD84DE848B
:10371000EF84F88889899A89AB89BC89C822D92223
:10372000EA22FB22C824D924EA24FB24C40ED51E95
:10373000E61EF71E4F8C58A069A07AA0400E511EBD
:10374000621E731EC00ED11EE21EF31E9FEF291AC9
:10375000390A89889A88AB88BC888F8E98A2A9A2DA
:10376000BAA2098D1A8D2B8D3C8D09871A872B875C
:103770003C8710E42116310409F0ADC0DF01A05CE4
:10378000BF4F0D911D912D913C911397C00ED11EED
:10379000E21EF31ECD92DD92ED92FC9213971496E9
:1037A0004D915D916D917C9113978D809E80AF803E
:1037B000B884480D591D6A1D7B1D4D935D936D9313
:1037C0007C93139714964D915D916D917C91139715
:1037D0000D851E852F853889400F511F621F731F6D
:1037E0004D935D936D937C93139714964D915D91DA
:1037F0006D917C91139789889A88AB88BC88480D15
:10380000591D6A1D7B1D4D935D936D937C9313979A
:1038100014964D915D916D917C911397440E551EB8
:10382000661E771E4D925D926D927C921397149650
:103830004D915D916D917C91139709811A812B8136
:103840003C81400F511F621F731F4D935D936D9319
:103850007C931397BF01685A7F4FDB01CD90DD90B9
:10386000ED90FC9013978D889E88AF88B88CC80C1B
:10387000D91CEA1CFB1CCD92DD92ED92FC921397B1
:10388000E45AFF4F80819181A281B381898C9A8C07
:10389000AB8CBC8C880D991DAA1DBB1D80839183A8
:1038A000A283B383A4960FB6F894DEBF0FBECDBF3C
:1038B000DF91CF911F910F91FF90EF90DF90CF900C
:1038C000BF90AF909F908F907F906F905F904F9040
:1038D0003F902F9008952D893E894F89588D298FCB
:1038E0003A8F4B8F5C8F89819A81AB81BC818D8BA4
:1038F0009E8BAF8BB88F49825A826B827C828D847B
:103900009E84AF84B888898A9A8AAB8ABC8A0D81E2
:103910001E812F8138850D871E872F87388BCD829A
:10392000DE82EF82F886D9CD1297AF70BB27AA0F3F
:10393000BB1FAA0FBB1FAE0FBF1F0D911D912D9175
:103940003C91D1011F97AF70BB27AA0FBB1FAA0FD5
:10395000BB1FAE0FBF1F4D915D916D917C91C10159
:103960008F709927880F991F880F991FDF01A80F63
:10397000B91FBCA3ABA3D1011797AF70BB27AA0F88
:10398000BB1FAA0FBB1FAE0FBF1FCD90DD90ED90E8
:10399000FC90ABA1BCA18D909D90AD90BC90C80C4B
:1039A000D91CEA1CFB1C480159019FE0880C991C9A
:1039B000AA1CBB1C9A95D1F7D901C801072E71E149
:1039C000B695A795979587957A95D1F7702D882A02
:1039D000992AAA2ABB2AD901C801072E7DE0880F9F
:1039E000991FAA1FBB1F7A95D1F7702D28013901A5
:1039F000032E33E176946794579447943A95D1F720
:103A0000302D84299529A629B72988259925AA2505
:103A1000BB250F2EFAE03695279517950795FA9551
:103A2000D1F7F02D80279127A227B327C80ED91EE2
:103A3000EA1EFB1E8A019B0187E0369527951795A4
:103A400007958A95D1F7DB01CA01072E79E1880F26
:103A5000991FAA1FBB1F7A95D1F7702D082B192B20
:103A60002A2B3B2BDB01CA01072E7EE0880F991F12
:103A7000AA1FBB1F7A95D1F7702D2A013B01032E97
:103A800032E176946794579447943A95D1F7302D64
:103A900084299529A629B72980279127A227B3270A
:103AA00023E076956795579547952A95D1F7842712
:103AB0009527A627B727C80ED91EEA1EFB1EABA165
:103AC000BCA1CD92DD92ED92FC92139716CD0F938F
:103AD0001F9310E000E028EC30E040EB50E066E996
:103AE00070E090E080E00E9484131F910F91089590
:103AF0000F931F9310E000E02DED30E040EB50E01D
:103B000068EC70E090E080E00E9484131F910F91B8
:103B10000895E0EAF4E0F0931C10E0931B10E491A8
:103B2000E0931D10E1EAF4E0849180931E10E2EA34
:103B3000F4E0E491E0931F10E3EAF4E0E491E09311
:103B40002010982F96959695969590932110109207
:103B50002210877019F09F5F909321100895ECEF69
:103B6000F1E0F0931C10E0931B10E491E0931D1022
:103B7000EDEFF1E0849180931E10EEEFF1E0E4911F
:103B8000E0931F10EFEFF1E0E491E0932010982F05
:103B90009695969596959093211010922210877085
:103BA00019F09F5F909321100895CF92DF92EF92CA
:103BB000FF92CF93DF93EC016A017B0188810E9421
:103BC000CC159C0181E090E02115310511F090E0C9
:103BD00080E09A8389838D819E81AF81B885232B74
:103BE000C9F4181619061A061B06A4F0EB81FC810D
:103BF000309709F0199588EC90E0A0E0B0E08D8353
:103C00009E83AF83B887DF91CF91FF90EF90DF90D5
:103C1000CF9008958C199D09AE09BF09B7FF03C065
:103C200080E090E0DC018D839E83AF83B8871A82A9
:103C30001982E9CF83E090E09093960B8093950BE7
:103C4000089582E090E09093960B8093950B0895F1
:103C500081E090E09093960B8093950B08950F93DD
:103C60001F930E94FF170091EC051091ED05209124
:103C7000EE053091EF05601B710B820B930B6D3DD0
:103C800075408105910568F081E08093990B0E9451
:103C9000FF176093EC057093ED058093EE0590930C
:103CA000EF051F910F9108950F931F930E94FF1727
:103CB0000091E8051091E9052091EA053091EB05A6
:103CC000601B710B820B930B6D3D75408105910557
:103CD00068F081E080939A0B0E94FF176093E805DB
:103CE0007093E9058093EA059093EB051F910F917E
:103CF000089581E08093940B089581E08093970B61
:103D0000089581E08093980B08958F929F92AF92CF
:103D1000BF92EF92FF920F931F93CF93DF938C018B
:103D20004A015B017901FC011995C091A60BD09164
:103D3000A70B82E190E02097D1F50E94F340FC01AF
:103D400010821182128213821482158216821782C7
:103D5000138612861586148617861686118A108A8F
:103D60009093A70B8093A60B9093A50B8093A40B25
:103D700011861086E091A60BF091A70B158704879A
:103D8000108211821282138284829582A682B78267
:103D9000F386E28617861686DF91CF911F910F91E9
:103DA000FF90EF90BF90AF909F908F9008950E94EA
:103DB000F340FC0110821182128213821482158258
:103DC0001682178213861286158614861786168623
:103DD000118A108A998B888B88859985019691879D
:103DE0008087F093A70BE093A60BC4CFEF92FF92CE
:103DF0000F931F93CF93DF930097A1F1EC01E09015
:103E0000AA0BF090AB0B0885198584E090E0E114D3
:103E1000F104D1F40E94F340FC01138212829093CA
:103E2000AB0B8093AA0B9093A90B8093A80B1183E3
:103E30000083EE85FF853097A9F0DF91CF911F9128
:103E40000F91FF90EF9019940E94F340FC011382B0
:103E50001282F701938382839093AB0B8093AA0B1A
:103E6000FC01E5CFDF91CF911F910F91FF90EF9073
:103E700008958091A40B9091A50B009751F0FC013F
:103E8000208931893093A50B2093A40B0E948F4188
:103E9000F0CF8091A80B9091A90B009751F0FC01F5
:103EA000228133813093A90B2093A80B0E948F416C
:103EB000F0CF1092A50B1092A40B1092A70B1092AA
:103EC000A60B1092AB0B1092AA0B0895CF92DF9223
:103ED000EF92FF920F931F93CF93DF93C091A80BA4
:103EE000D091A90B209709F445C0E091A40BF09163
:103EF000A50B28813981808591852817390759F4C8
:103F0000808991899093A50B8093A40B0E948F4187
:103F10000A80DB81C02D0091A40B1091A50BD80164
:103F20005096ED91FC912097E9F03097D9F0E08818
:103F3000F18828813981808591852817390779F49E
:103F4000D8015096EC9250975196FC92E088F188F7
:103F5000C7010E948F410A80DB81C02DF8018F01CB
:103F6000F701E1CF1092A90B1092A80B1092AB0BA6
:103F70001092AA0BC091A40BD091A50B209751F1E0
:103F8000CC80DD80EE80FF800E94FF1708811981C0
:103F90002A813B81601B710B820B930B6C157D0595
:103FA0008E059F0598F00E94FF17688379838A83A6
:103FB0009B83EA85FB85309731F01995882319F0AA
:103FC000CE010E94F61EEC85FD8519950888D989D9
:103FD000C02DD4CFDF91CF911F910F91FF90EF9023
:103FE000DF90CF900895CF93DF93EC018881998182
:103FF000009711F00E948F41198218821D821C8245
:104000001B821A82DF91CF910895FC0180819181FA
:10401000009711F00C948F410895CF92DF92EF92A8
:10402000FF920F931F93CF93DF93EC018B01FC0161
:10403000E05AFF4FC080D180E280F38096012F7359
:10404000332783E0CC0CDD1CEE1CFF1C8A95D1F7D6
:10405000C90101962C0F3D1F40E8F90140838933C7
:10406000910578F040E450E0481B590B70E060E0A7
:104070008C0F9D1F0E940F43CE010E94E61990E015
:1040800080E04CE350E0481B590B70E060E08C0F7F
:104090009D1F0E940F43FCAEEDAEDEAECFAECE0153
:1040A0000E94E619FE01E05CFF4F208131814281D0
:1040B0005381CC5BDF4F8A819B81F8015083418320
:1040C0003283238394838583DF91CF911F910F9156
:1040D000FF90EF90DF90CF9008954F925F926F9294
:1040E0007F928F929F92AF92BF92CF92DF92EF9288
:1040F000FF920F931F93CF93DF938C01EB01490144
:104100005A01FC01E05AFF4F80819181A281B38165
:104110006C017D012FE3C222DD24EE24FF24880DF3
:10412000991DAA1DBB1D80839183A283B383811433
:104130009104A104B10479F180E490E0A0E0B0E042
:104140008C199D09AE09BF0924013501881599050F
:10415000AA05BB0510F42C013D01C8018C0D9D1D65
:10416000A201BE010E940643C40CD51CE61CF71C2C
:10417000C40DD51D84189508A608B70880E4C81694
:10418000D104E104F10499F6C8010E94E619C12C9A
:10419000D12C7601CCCFDF91CF911F910F91FF9061
:1041A000EF90DF90CF90BF90AF909F908F907F90D7
:1041B0006F905F904F900895AF92BF92DF92EF9211
:1041C000FF920F931F93CF93DF93EC018B01FB01C1
:1041D000D3808281645F7F4F8E3F09F459C0ED2CFC
:1041E000F12CFB01EE0DFF1DDE2C91E09E1538F445
:1041F0009701215031099291992309F463C0888372
:10420000D982F80184818A8385818B8386818C831E
:1042100087818D8380858E8381858F83818592853B
:10422000A385988781859285A385A987A701CE015B
:104230000A960E940643FAE0EF0EF11CCE0DDF1D38
:10424000F801848199E0F92E80FF3AC08DE0F801F1
:104250009081988391819983A82EB12C882341F075
:10426000B8016A5E7E4FA501CE0102960E94064308
:10427000C5018F0D911D03968D0D911DDF91CF917D
:104280001F910F91FF90EF90DF90BF90AF90089536
:104290008883D98286818A8387818B8380858C837A
:1042A00081858D83438150E0CE0106960E940643AE
:1042B000F801838190E00696C80FD91F25E0F22E01
:1042C00080E0C5CF790190CF3F924F925F926F927D
:1042D0007F928F929F92AF92BF92CF92DF92EF9296
:1042E000FF920F931F93CF93DF93CDB7DEB7C857DD
:1042F000D1090FB6F894DEBF0FBECDBF6C013E2CC6
:1043000080910206582F527081FD1DC0E091040675
:10431000F0910506309731F080812DE0522E11E0AA
:1043200080FD02C0512C10E08DEFF60182833C9697
:10433000E00FF11D8291811103C001500130D1F7CE
:104340008AE0482E09C08EEFD60112968C93022F78
:10435000512C96E0492E10E0D60113960C9313973A
:1043600017966C93179718964C93189711114CC089
:1043700014961C92D60115961C9215978091FD05F6
:1043800016968C9316978091FD058F5F8093FD059F
:1043900012968C911297A6968FAFA69713968C9132
:1043A0001397A7968FAFA79719968D919D91AC9172
:1043B000F60136812781552359F1A8963FAFA8977A
:1043C000A9962FAFA997AA964FAFAA97AB968FAF92
:1043D000AB97A42CB12C8FEF9FEF9A838983CE01EA
:1043E0008B599F4F7C014C018A0C9B1C9FEFE91A53
:1043F000F90A8E149F0439F1BE016F5F7F4FD70118
:104400008C910E94A519F2CF81E0F6018483B2CF8E
:104410005481A8965FAFA8975581A9965FAFA997D9
:10442000AA963FAFAA97AB962FAFAB97AC964FAF7C
:10443000AC97AD968FAFAD97AE969FAFAE97AF9658
:10444000AFAFAF97C6CF89819A81E9969FAF8EAF04
:10445000E997F6016380712C7601FCE0EF0EF11C08
:10446000470181E0681A7108BE0169587F4F9FEFCC
:104470006916790631F0D4018D914D010E94A5197C
:10448000F0CF832D0E94A519E8969FADE897E99695
:104490008FADE997D6011396EC911397EE0DFF2D92
:1044A000F11D90831396EC911397EE0DFF2DF11DE6
:1044B00081839C9311968C931197112309F4F4C076
:1044C00000910406109105060115110509F4ECC0D0
:1044D000F801808180FFE8C013967C9081814601BD
:1044E000FAEE8F1AFEEF9F0AD4018C93F8018281B5
:1044F000E0968FAFE0978381E1968FAFE19784815B
:10450000E2968FAFE2978581E3968FAFE39786813E
:10451000E4968FAFE4978781E5968FAFE597808526
:10452000E6968FAFE6978185E7968FAFE79786E0AF
:10453000FE01E159FF4F119601900D928A95E1F726
:10454000D80112962C91129713963C9113971496BA
:104550004C91149715965C91159716966C91169739
:1045600017967C91179718968C91189719969C918D
:10457000A1E00E94B540F801228333834483558330
:10458000668377838087918787E696EEA9E0BAE60F
:1045900025968CAF9DAFAEAFBFAF259785E89EEA5D
:1045A000A7E6BBEB29968CAF9DAFAEAFBFAF299707
:1045B00082E793EFAEE6BCE32D968CAF9DAFAEAF36
:1045C000BFAF2D978AE395EFAFE4B5EA61968CAF64
:1045D0009DAFAEAFBFAF61978FE792E5AEE0B1E5BB
:1045E00065968CAF9DAFAEAFBFAF65978CE898E690
:1045F000A5E0BBE969968CAF9DAFAEAFBFAF699741
:104600008BEA99EDA3E8BFE16D968CAF9DAFAEAF9D
:10461000BFAF6D9789E19DECA0EEBBE5A1968CAF95
:104620009DAFAEAFBFAFA197A5961CAE1DAE1EAE9F
:104630001FAEA597B801665F7F4F20E230E040E0F3
:1046400050E0CE0101960E946D20242D30E050E014
:1046500040E0BE016B597F4FCE0101960E946D2054
:10466000272D30E050E040E0B701CE0101960E94D6
:104670006D20B701670D711D22E030E040E050E091
:10468000CE0101960E946D2027E030E040E050E02E
:10469000B401CE0101960E946D20B601635E7E4F8B
:1046A000CE0101960E940D20D60113968C918A0DA1
:1046B0009B2D911D0296850D911DC858DF4F0FB699
:1046C000F894DEBF0FBECDBFDF91CF911F910F9148
:1046D000FF90EF90DF90CF90BF90AF909F908F9022
:1046E0007F906F905F904F903F900895EF920F935F
:1046F000CF93DF93682F70E090E080E00E94D43D7C
:10470000E0E5FFE065837683878390872481A2813B
:10471000B38131814081CBECDFE0E881F9816487AE
:10472000758786879787108A118A128A138A148A56
:10473000158A168A178A108E118E128E138E148E79
:10474000158E168E178E10A211A212A213A214A2F9
:1047500015A216A217A2B1A7A0A742A733A724A704
:104760008CE490E0A0E081879287A38788E9E82E17
:1047700001E221E241E062E0CF010E946421688110
:1047800079818091C90F9091CA0FDF91CF910F91DC
:10479000EF900C94DC208F929F92AF92BF92CF92B9
:1047A000DF92EF92FF920F931F93CF93DF93F62E3A
:1047B000142F682F70E090E080E00E94D43D4B0100
:1047C0005C01C0E5DFE08CA69DA6AEA6BFA66F2D5E
:1047D00070E090E080E00E94D43D6B017C01C8AAAB
:1047E000D9AAEAAAFBAA612F70E090E080E00E94BB
:1047F000D43D6CAB7DAB8EAB9FAB2BA549A55AA529
:1048000038A5AFA1CBECDFE0E881F98184869586FD
:10481000A686B786C08AD18AE28AF38A648B758BB2
:10482000868B978B108E118E128E138E148E158E92
:10483000168E178E10A211A212A213A214A215A2F4
:1048400016A217A251A740A7A2A733A724A78CE4BA
:1048500090E0A0E081879287A38788E9E82E01E2B3
:1048600021E241E062E0CF010E9464216881798108
:104870008091C90F9091CA0FDF91CF911F910F9135
:10488000FF90EF90DF90CF90BF90AF909F908F9070
:104890000C94DC202F923F924F925F926F927F9206
:1048A0008F929F92AF92BF92CF92DF92EF92FF9240
:1048B0000F931F93CF93DF932091CA0A3091CB0AB5
:1048C0004091CC0A5091CD0A6091CE0A7091CF0AE6
:1048D0008091D00A9091D10AA0E00E94D340A1F427
:1048E0000E945A17DC01CB016093CA0A9093CB0A4D
:1048F000A093CC0AB093CD0A1092CE0A1092CF0AA0
:104900001092D00A1092D10A0E945A172B013C0132
:104910002091F40A3091F50A4091F60A5091F70A75
:104920006091F80A7091F90A8091FA0A9091FB0A55
:10493000A090CA0AB090CB0AC090CC0AD090CD0A01
:10494000E090CE0AF090CF0A0091D00A1091D10ADF
:104950000E94C140120151016301E12CF12C00E0E1
:1049600010E00E94AC402093990F30939A0F40932F
:104970009B0F50939C0F60939D0F70939E0F80939D
:104980009F0F9093A00FA091A20FB091A10F409004
:10499000910F5090920F6090930F7090940F8090B1
:1049A000950F9090960FD091970FC091980FE0912E
:1049B000CB0FF091CC0F4486558666867786808A29
:1049C000918AD28BC38B248B358B468B578B608F10
:1049D000718F828F938FB48FA58F8FE690E0A0E0C8
:1049E00081879287A38782E2E82E02E120E141E0FD
:1049F00062E0CF010E9464216091CB0F7091CC0FD7
:104A00008091C90F9091CA0F0E94DC20DF91CF9155
:104A10001F910F91FF90EF90DF90CF90BF90AF90DC
:104A20009F908F907F906F905F904F903F902F90CE
:104A30000C945D19CF92DF92EF920F931F93CF9357
:104A4000DF93C6EFD5E01C8582E08C8720E53FE050
:104A50009BECC92E9FE0D92ED601ED91FC91D90196
:104A6000D9964C91D997D8966C911486158616864E
:104A70001786108A118A128A138A848B11861286ED
:104A8000138622E3E22E09E029E0CF010E9464218F
:104A90001C87F601608171818091C90F9091CA0FC6
:104AA0000E94DC20DF91CF911F910F91EF90DF905A
:104AB000CF900C945D19CF93DF93EC01A881B9815D
:104AC000EB01E881F9811097F1F03097B1F4EC0136
:104AD0008C819D81892BC9F08C9190E00BC0DB010A
:104AE00014968D919C91892B81F0808190E0919515
:104AF00081959109DF91CF910895BF01CD01DF919B
:104B0000CF910C941643309751F790E080E0F2CFAC
:104B10000F931F93CF93DF93EC01888199810097C6
:104B200059F02A813B812617370730F081E0DF9169
:104B3000CF911F910F9108958B016F5F7F4F0E945E
:104B40001842009759F0998388831B830A832C812C
:104B50003D81232B59F7FC011082E8CF80E0E7CF9D
:104B6000EF92FF920F931F93CF93DF93EC01FB0122
:104B7000E080F180E114F10411F104811581011547
:104B80001105A9F08C819D81080F191FB801CE0174
:104B90000E948825882399F0288139818C819D8104
:104BA000B701820F931F0E941F431D830C83CE0108
:104BB000DF91CF911F910F91FF90EF900895CE015B
:104BC0000E94F31FF4CFEF92FF920F931F93CF93A6
:104BD000DF93EC017B018A01BA010E9488258111D3
:104BE0000BC0CE010E94F31FCE01DF91CF911F9128
:104BF0000F91FF90EF9008951D830C83B70188817A
:104C000099810E941F43F0CFFB0101900020E9F73A
:104C10003197AF01461B570B0C94E3250F931F935D
:104C2000CF93DF93CDB7DEB762970FB6F894DEBFB0
:104C30000FBECDBF8C01CB01F8011182108213820F
:104C40001282158214824AE0BE016F5F7F4F0E947C
:104C50009A3DBE016F5F7F4FC8010E940426629695
:104C60000FB6F894DEBF0FBECDBFDF91CF911F917D
:104C70000F910895CF93DF93EC01FB0186179707FF
:104C800049F0608171816115710541F04481558160
:104C90000E94E325CE01DF91CF9108950E94F31F7A
:104CA000F9CFFC01118210821382128215821482C4
:104CB0000C943A26FC011182108213821282158212
:104CC0001482FB0101900020E9F73197AF01461BE8
:104CD000570B0C94E325AF92BF92CF92DF92EF92E5
:104CE000FF920F931F93CF93DF936C015B017A01C7
:104CF00089012417350720F48F2D7901042F182FEF
:104D000066E375E0C6010E945A26D5011496CD913E
:104D1000DC91EC16FD06E0F40C171D0708F4E80121
:104D2000D501ED91FC911197EC0FFD1F10811082C0
:104D30006D917C916E0D7F1DC60161157105A1F00D
:104D40000E940426F50180819181C80FD91F188324
:104D5000C601DF91CF911F910F91FF90EF90DF90EF
:104D6000CF90BF90AF9008950E94F31FEBCF0F93A9
:104D70001F93CF93DF9300D000D0CDB7DEB78C0167
:104D80000E94AF1D66E374E00115110539F062E47D
:104D900074E00130110511F06EE474E0CE0101966B
:104DA0000E945A2625EE3FEAAE014F5F5F4F65E055
:104DB00070E085E090E00E94C413CE0101960E944D
:104DC00005200E94891D26960FB6F894DEBF0FBEFF
:104DD000CDBFDF91CF911F910F9108950F931F9336
:104DE000CF93DF93CDB7DEB72C970FB6F894DEBF25
:104DF0000FBECDBF8C0166E375E0CE0107960E9421
:104E00005A2601301105E1F168F00230110509F46C
:104E100040C06CE774E0CE0107960E94042600E2D1
:104E20001DEF0AC06BE375E0CE0107960E940426D1
:104E30001092E10A00E018EFBE01695F7F4FCE01DA
:104E400001960E9451269801AE014F5F5F4F6CE2C0
:104E500070E085E090E00E94C413CE0101960E94AC
:104E60000520CE0107960E9405202C960FB6F894D7
:104E7000DEBF0FBECDBFDF91CF911F910F9108957F
:104E80006AE574E0CE0107960E94042600EE17E062
:104E9000D3CF6BE674E0CE0107960E9404260FE1A3
:104EA00010E0CACF2091340230913502281739071B
:104EB00041F090933502809334020E94EE2681E007
:104EC000089580E00895EF92FF920F931F93CF9380
:104ED000DF93CDB7DEB762970FB6F894DEBF0FBE93
:104EE000CDBF8C017B01FC012481358180912D1087
:104EF00090912E102817390741F469E270E1C8013A
:104F00000E945B25892B09F472C0B80189E290E107
:104F10000E943A26F0920502E0920402B701CE0107
:104F200007960E940E266DE874E0CE0101960E945D
:104F30005A26BE01695F7F4FCE0101960E94B025BF
:104F4000BC01CE010D960E94512620E038EFAE0143
:104F5000435F5F4F66E970E090E080E00E94C41319
:104F6000CE010D960E940520CE0101960E940520DB
:104F7000CE0107960E9405200E94AF1DF801848192
:104F800095814C9708F440C02BE130E050E040E0C0
:104F9000B801CE0101960E946B2620E038EFAE01E9
:104FA0004F5F5F4F6AEA70E090E080E00E94C413B8
:104FB000CE0101960E940520F801248135814BE144
:104FC00050E0B801CE0101960E946B2620E038EF38
:104FD000AE014F5F5F4F62EB70E090E080E00E94B7
:104FE000C413CE0101960E9405200E94891D62967D
:104FF0000FB6F894DEBF0FBECDBFDF91CF911F91EA
:105000000F91FF90EF900895B801CE0101960E9494
:10501000512620E038EFAE014F5F5F4F6AEA70E043
:10502000DCCF0F931F93CF93DF93CDB7DEB762979B
:105030000FB6F894DEBF0FBECDBF8C0120913310A8
:1050400030913410FC01848195812817390741F48F
:10505000B8018FE290E10E945B25892B09F45CC0C6
:10506000B8018FE290E10E943A260E94781D0E94CA
:10507000AF1DF80184819581489708F458C026E156
:1050800030E050E040E0B801CE0107960E946B2668
:1050900066E974E0CE0101960E945A26BE01695F5E
:1050A0007F4FCE0101960E94B025BC01CE010D9626
:1050B0000E94512620EE3FEFAE01435F5F4F68EC48
:1050C00070E090E080E00E94C413CE010D960E9433
:1050D0000520CE0101960E940520CE0107960E9470
:1050E0000520F8012481358146E150E0B801CE0168
:1050F00001960E946B2620EE3FEFAE014F5F5F4F9F
:1051000060ED70E090E080E00E94C413CE01019653
:105110000E9405200E94891D62960FB6F894DEBF9A
:105120000FBECDBFDF91CF911F910F91089566E91A
:1051300074E0CE0101960E945A26B801CE01019674
:105140000E94B025BC01CE0107960E94512620EE98
:105150003FEFAE01495F5F4F68EC70E090E080E0A8
:105160000E94C413CE0107960E940520CE0101962D
:105170000E940520CFCF2F923F924F925F926F9265
:105180007F928F929F92AF92BF92CF92DF92EF92D7
:10519000FF920F931F93CF93DF93CDB7DEB7CA581B
:1051A000D1090FB6F894DEBF0FBECDBF8CEA9BE0ED
:1051B0000E948118892B09F42DC78CEA9BE00E947C
:1051C0005F188C01EC968FAFEC971092FF0A20913C
:1051D000020B3091030B2131310508F03AC0F9017F
:1051E0008827EA50F74D8F4F0C9421400E290E2945
:1051F000A729C229D929E129EB29F529FF291F2A45
:10520000372A4D2A652AF32AF32A5F2B5F2B81E088
:1052100090E09093030B8093020BC8CF80910B0B0F
:10522000EC962FADEC972D3F09F07FC022E030E0E7
:105230003093030B2093020B10924106009340061B
:105240008E7F80930B0B8FEF9FEF90933F068093A1
:105250003E068091FF0A8130A9F42091070B30911E
:10526000080B909144069093050B2115310521F40C
:1052700010920A0B1092090B2F5F3F4F3093080BCF
:105280002093070B909141069093040D2091020BFF
:105290003091030B3093E60A2093E50A9091040BBA
:1052A0009093E70A9091050B9F5F9093E80A2091F5
:1052B000070B3091080B3093EB0A2093EA0A2091F8
:1052C000010B30E03093ED0A2093EC0A90910B0B28
:1052D0009093EE0A1092010B823041F42091520714
:1052E000309153073093020D2093010D9EEF980FDC
:1052F000923008F020C481E08093010B1092FF0AE5
:10530000EC96BFADEC97BD3F09F081CF82E090E015
:105310009093030B8093020B109241068FEF9FEF47
:1053200090933F0680933E0641CFEC963FADEC97BD
:105330003E3F09F06CC622E030E03093030B20932F
:10534000020B109241060093400681607ACF0093D1
:1053500041061092040B602F8EE396E00E94C6195E
:1053600080910B0B80FF07C01092420610924306FB
:1053700085E090E002C083E090E09093030B80937F
:10538000020B67CF00934206C8018E7F9927892BB5
:1053900041F08091010B8F5F8093010B81E090E0E1
:1053A000ECCF602F8EE396E00E94C61984E090E077
:1053B000E4CF00934306602F8EE396E00E94C61967
:1053C000D7CF00934406602F8EE396E00E94C61963
:1053D00086E090E0D2CF00934506602F8EE396E002
:1053E0000E94C61987E090E0C8CF00934606602F60
:1053F0008EE396E00E94C61988E090E0BECFEC965E
:10540000BFADEC978B2F90E0A0E080934706909380
:105410004806A0934906602F8EE396E00E94C619C5
:1054200080910B0B80FF08C080914106882309F40E
:1054300049C08BE090E0A1CF89E090E09ECF8091C1
:10544000470690914806A0914906EC96EFADEC977F
:105450009E2B8093470690934806A0934906602FA1
:105460008EE396E00E94C6198AE090E086CF809194
:10547000470690914806A0914906EC96FFADEC973F
:10548000AF2B8093470690934806A0934906602F60
:105490008EE396E00E94C619C7CFE091040B81E02D
:1054A0008E0F8093040BF0E0E65BF94F0083602FD2
:1054B0008EE396E00E94C6199091040B80914106FC
:1054C0009813C7CE8CE090E058CF8091470690911A
:1054D0004806A0914906AC016A2F70E0EAE08E2EE2
:1054E000912CA12CB12CC12CD12C76012AE0D70112
:1054F000C601880D991DAA1DBB1D0196A11DB11DD8
:10550000B695A79597958795289FF001299FF00D4F
:105510001124EA56FC4F408051806280738044150C
:1055200055056605770568F54C015D0131E0831A84
:105530009108A108B108C814D904EA04FB04B8F220
:105540008AE08C9DF0018D9DF00D1124EA56FC4FF0
:1055500080819181A281B381481759076A077B072F
:10556000C1F464818EE396E00E94C61980913E06E4
:1055700090913F06992708171906A1F48DE090E055
:1055800013C06C017D014416550666067706C0F609
:10559000D2CF8EE090E09093030B8093020B0093A8
:1055A000520757CE8EE090E09093030B8093020B4E
:1055B000009352078091040B9AE09C9DF0019D9D01
:1055C000F00D1124EA56FC4F4681841708F041CEB5
:1055D00050E090E0481B590B70E060E0865B994F0B
:1055E0000E940F4336CE2E303105B1F080913F0638
:1055F000C158DF4F8883CF57D040C058DF4F188243
:10560000C058D040C158DF4FA881B981CF57D04092
:1056100081E00A171B0609F082E08093FF0A0093DD
:1056200053078091420680FF17C08091FF0A8230A5
:1056300051F480E190E09093030B8093020B8DE096
:1056400080930C0B06CE8FE090E09093030B809339
:10565000020B1092FF0AF3CFE0910D0BF0910E0BAD
:10566000309749F002A4F3A5E02D3097A9F480917A
:10567000FF0A823001F581E090E09093030B809364
:10568000020B83E291E0EEE3F6E0A1E0BDE00190E1
:105690000D920197E1F7DDCD809147069091480684
:1056A000A0914906AC016A2F70E08FEF9AE019953E
:1056B0008111E1CFDCCF83E08093FF0ADCCF8091C2
:1056C0000C0BEDE0F0E0E81BF109EC5AF84F008319
:1056D000815080930C0B81119AC480900D0B909097
:1056E0000E0B81E08114910409F4B5C120900F0BD9
:1056F0003090100B17E6E12E16EEF12E09E01AE6B7
:105700002596ECAEFDAE0EAF1FAF259705E81EEA5D
:1057100027E63BEB29960CAF1DAF2EAF3FAF299785
:1057200082E793EFAEE6BCE32D968CAF9DAFAEAFB4
:10573000BFAF2D971AE3E12E15EFF12E0FE415EA16
:105740006196ECAEFDAE0EAF1FAF61970FE712E5AD
:105750002EE031E565960CAF1DAF2EAF3FAF6597DC
:105760008CE898E6A5E0BBE969968CAF9DAFAEAF3B
:10577000BFAF69978BEA99EDA3E8BFE16D968CAF57
:105780009DAFAEAFBFAF6D9789E19DECA0EEBBE5DD
:10579000A1968CAF9DAFAEAFBFAFA197A5961CAE43
:1057A0001DAE1EAE1FAEA59720E230E040E050E0F7
:1057B000B401665F7F4FCE0101960E946D202AE002
:1057C00030E040E050E060E476E0CE0101960E94D7
:1057D0006D202091410630E050E040E06AE476E040
:1057E000CE0101960E946D2022E030E040E050E0C2
:1057F00062E577E0CE0101960E946D2027E030E05F
:1058000040E050E064E577E0CE0101960E946D2013
:10581000BE016B587F4FCE0101960E940D2046E0DD
:1058200050E06BE577E0CE018B589F4F0E94F94224
:10583000892B21F082E090E0D4018FC05090540772
:10584000AE961FAEAE97AF961FAEAF97E0961FAE67
:10585000E097E1961FAEE197E2961FAEE297E396DE
:105860001FAEE397E4961FAEE497E5961FAEE5976B
:1058700086E0E5E5F7E0DE01A359BF4F01900D9208
:105880008A95E1F72114310411F1F10180819181B0
:10589000E091450620914606D101712C612C8615B8
:1058A0009705C1F013963C911397E3130BC0149620
:1058B0003C911497231306C012963C9112975316ED
:1058C00009F4D3C0FFEF6F1A7F0A1996E8CF83E07F
:1058D00090E0B2CF409718F084E090E0ADCFAE9664
:1058E0002FADAE97AF963FADAF97E0964FADE09737
:1058F000E1965FADE197E2966FADE297E3967FADFB
:10590000E397E4968FADE497E5969FADE597205831
:105910003247444A5F4F6F4F7F4F8F4F9F4FD401A5
:105920001296AC9012971396BC9013971496CC9045
:1059300014971596DC9015971696EC901697179677
:10594000FC90179718960C91189719961C91199717
:105950000E94CA40F0F485E090E09D969C938E935F
:105960009C97E0910D0BF0910E0B02A4F3A5E02D96
:1059700080E0309709F46FC0809147069091480607
:10598000A0914906AC016A2F70E08FEF9AE019955B
:1059900062C089E0869DD001879DB00D1124A20DC3
:1059A000B31D1396EC9313978091460614968C932F
:1059B000149712965C92C3010196F1019183808342
:1059C00089E0869DD001879DB00D11241596A20D0A
:1059D000B31D86E0E5E5F7E001900D928A95E1F7C9
:1059E000AE963FACAE97AF965FACAF97E0966FAC1C
:1059F000E097E1967FACE197E296BFADE297E39640
:105A0000AFADE397E4964FACE497E5962FACE597FE
:105A1000F401A280B380C480D580E680F780008541
:105A20001185232D352DA3016B2F7A2F842D922DD7
:105A30000E94CA4049F040F03282538264827582EB
:105A4000B683A7834086218681E090E0D4019D96AD
:105A50009C938E939C972091020B3091030B2031E5
:105A6000310509F063C082E027CEA6961FAEA69747
:105A7000A7961FAEA797A8961FAEA897A9961FAE88
:105A8000A997AA961FAEAA97AB961FAEAB97AC96F6
:105A90001FAEAC97AD961FAEAD9789E0869DF00125
:105AA000879DF00D11243596E20DF31D86E0DE0191
:105AB000AB59BF4F01900D928A95E1F7AE962FAD8D
:105AC000AE97AF963FADAF97E0964FADE097E196BA
:105AD0005FADE197E2966FADE297E3967FADE39716
:105AE000A696AFACA697A796BFACA797A896CFAC43
:105AF000A897A996DFACA997AA96EFACAA97AB9600
:105B0000FFACAB97AC960FADAC97AD961FADAD9714
:105B1000E4968FADE497E5969FADE5970E94CA4065
:105B200011F008F04DCF86E090E086CE882309F48E
:105B3000C2CD81E0C1CD882309F438CB80910A0D14
:105B400090910B0DA0910C0D8D349105A10509F4D8
:105B5000D2C190F40097A10509F493C10197A10562
:105B600009F024CB8091110D9FEF980F943608F027
:105B70001DCB8093E10A1ACB8D369105A10509F45E
:105B80002AC18F369105A10509F010CB809104023E
:105B900090910502079711F40E94671D81E08093A0
:105BA000D20AE0910D0DEC96EFAFEC97F0910E0D4F
:105BB000EF96FFAFEF97E0900F0DCF57DF4FE882E2
:105BC000C158D040F090100DCE57DF4FF882C25828
:105BD000D0400091110DCD57DF4F0883C358D040FE
:105BE0001091120DCC57DF4F1883C458D04020912C
:105BF000130DCB57DF4F2883C558D0403091140D7B
:105C0000CA57DF4F3883C658D040E093E60CF09374
:105C1000E70CE092E80CF092E90C0093EA0C109388
:105C2000EB0C2093EC0C3093ED0C4090150D509044
:105C3000160D6090170D7090180D8090190D9090B2
:105C40001A0D30901B0D20901C0D4092EE0C5092BE
:105C5000EF0C6092F00C7092F10C8092F20C90922A
:105C6000F30C3092F40C2092F50C0E945A17C9578D
:105C7000DF4F688379838A839B83C758D040209104
:105C8000F40A3091F50A4091F60A5091F70A6091B2
:105C9000F80A7091F90A8091FA0A9091FB0AA09093
:105CA000CA0AB090CB0AC090CC0AD090CD0AE0903E
:105CB000CE0AF090CF0A0091D00A1091D10A0E942A
:105CC000C140520163017401032D122D0E94C14095
:105CD000C957DF4FE880F9800A811B81C758D0403F
:105CE00057016801E12CF12C00E010E00E94AC406B
:105CF00001E00E949140EC96AFACEC97EF96BFAC00
:105D0000EF97CF57DF4FC880C158D040CE57DF4FF5
:105D1000D880C258D040CD57DF4FE880C358D0401C
:105D2000CC57DF4FF880C458D040CB57DF4F0881A5
:105D3000C558D040CA57DF4F1881C658D0400E947E
:105D4000AC4019012A013B014C012093F40A309226
:105D5000F50A4093F60A5092F70A6093F80A709297
:105D6000F90A8093FA0A9092FB0A0E945A178B0153
:105D70009C016093CA0A1093CB0A8093CC0A30939B
:105D8000CD0A1092CE0A1092CF0A1092D00A109229
:105D9000D10A0E94781D8AE0A82EB12CC12CD12CEA
:105DA000E12CF12C00E010E09101A201B301C4014B
:105DB0000E9432402093020030930300409304007D
:105DC00050930500609306007093070080930800CD
:105DD00090930900EBC9009104021091050205306F
:105DE000110511F40E94671D81E08093750B80916D
:105DF000110D8093D80A8091120D8093D90A809159
:105E0000130D8093DA0A8B3048F56CE974E0CE010B
:105E100001960E945A2666E070E0CE0101960E942B
:105E20006327CE0101960E9405201091D90A112303
:105E3000D9F081E08093D70A8091D80A8695885955
:105E4000990B9093D60A8093D50A812F869588590D
:105E5000990B9093D40A8093D30AA8C906301105F0
:105E600021F70E94671DE1CF1092D70A90E080E0F1
:105E70000E945227882301F390E080E00E94EE26E2
:105E8000DBCF8091080D813009F090C98091090D18
:105E90008F3B09F08BC90E94FF1760930602709335
:105EA000070280930802909309028091140D8330B9
:105EB00061F08430B1F083E090E00E9452278823A3
:105EC00009F474C983E090E009C082E090E00E9488
:105ED0005227882309F46AC982E090E00E94EE26E6
:105EE00065C981E090E00E945227882309F45EC9C9
:105EF00081E090E0F3CF80910D0D90910E0D803BED
:105F0000910599F08039914009F050C96FEA74E029
:105F1000CE0101960E945A26CE0101960E941128B8
:105F2000CE0101960E94052041C90091950B109168
:105F3000960BC801019790938D0B80938C0B66E3B1
:105F400075E0CE018B599F4F0E945A2601301105F2
:105F500009F441C0F4F4012B81F1BE016B597F4F6C
:105F6000CE0101960E945126EE962EAD3FADEE97E2
:105F7000AE014F5F5F4F61E470E086E490E00E9405
:105F8000C413CE0101960E940520CE018B599F4F6C
:105F9000C9CF0230110569F103301105F1F669EE40
:105FA00074E0CE018B599F4F0E940426E0E0F8EF89
:105FB000EE96FFAFEEAFEE97D0CF68EC74E0CE0177
:105FC0008B599F4F0E9404262FEF3FEFEE963FAF75
:105FD0002EAFEE97C2CF63ED74E0CE018B599F4F89
:105FE0000E94042680EE97E0EE969FAF8EAFEE976C
:105FF000B4CF6EED74E0CE018B599F4F0E94042602
:10600000A0EEBFEFEE96BFAFAEAFEE97A6CF8091FA
:10601000FF0A38C9C657DF4F0FB6F894DEBF0FBE70
:10602000CDBFDF91CF911F910F91FF90EF90DF9047
:10603000CF90BF90AF909F908F907F906F905F9028
:106040004F903F902F9008952F923F924F925F92E2
:106050006F927F928F929F92AF92BF92CF92DF9278
:10606000EF92FF920F931F93CF93DF93CDB7DEB7DD
:106070006C970FB6F894DEBF0FBECDBF0E94AF1D68
:1060800080910202909103022091D70A222309F401
:1060900036C22091340230913502232B09F4F8C125
:1060A000029751F164EF74E0CE0101960E945A26E6
:1060B00020EE37E0AE014F5F5F4F63E770E085E0B1
:1060C00090E00E94C413CE0101960E94052066E074
:1060D00075E0CE0101960E945A2620EE37E0AE010F
:1060E0004F5F5F4F6BE770E085E090E00E94C41364
:1060F000CE0101960E94052082E090E09093030279
:106100008093020283E090E09093F1058093F00584
:106110000E94891DC090D50AD090D60A8091F005C2
:106120009091F1050397E1F48091D30A9091D40AFC
:1061300088389F4F5CF488E8C8168FEFD80634F48F
:1061400082E090E09093F1058093F0058091D20A6F
:10615000811106C084E090E09093F1058093F005F2
:10616000E090F005F090F10580910002909101021D
:10617000E816F906B9F010E000E025E0E216F104B7
:1061800038F4F701EE0FFF1FE457FD4F0081118136
:106190002DE230E04AEA50E069E170E086E990E003
:1061A0000E948413F0920102E09200028091F405B3
:1061B0009091F5058C159D0509F457C0B601CE01E7
:1061C00046960E940E26E090D50AF090D60A8DE9F8
:1061D000E8168FEFF80654F16EE275E0CE010196F5
:1061E0000E945A26B701CE0140960E940E26BE019B
:1061F000605F7F4FCE010A960E945126BE016F5FFD
:106200007F4FCE010A960E94B025BC01CE01469672
:106210000E943A26CE010A960E940520CE014096A1
:106220000E940520CE0101960E9405208091D70A88
:10623000882309F49AC1BE016A5E7F4FCE010196A0
:106240000E9451262FEF3FEFAE014F5F5F4F6AE58F
