:100000000C94BB100C94EC100C94EC100C94EC10B1
:100010000C94EC100C94EC100C94EC100C94EC1070
:100020000C94EC100C94EC100C94EC100C94EC1060
:100030000C94EC100C94EC100C94EC100C94EC1050
:100040000C94EC100C94EC100C94EC100C94EC1040
:100050000C94EC100C94EC100C94EC100C947B337E
:100060000C94EC100C944F340C9425340C94EC103C
:100070000C94EC100C94EC100C94EC100C94EC1010
:100080000C94EC100C94EC100C94EC100C94EC1000
:100090000C94EC100C94EC100C94EC100C94EC10F0
:1000A0000C94EC100C94EC100C94EC100C94EC10E0
:1000B0000C94EC100C94EC100C94EC100C94EC10D0
:1000C0000C94EC100C94EC100C94EC100C94EC10C0
:1000D0000C94EC100C94EC100C94EF330C94C5338E
:1000E0000C94EC100C9472190C94741E0C94992DB1
:1000F0000C9485340C94A5160C9461180C94A415DA
:100100000C946A150C9489150C945F2D0C941D2E7B
:100110000C949B150C947C1E0C9483150C94031862
:100120000C9472150C9453180C94AB2E0C943E192D
:100130000C94E1170C94BF160C940A170C949116AA
:100140000C948D150C9497150C9430180C943A3E21
:100150000C94D3160C94EB170C946E150C94791523
:100160000C94112F0C94BC250C9487160C94A91593
:100170000C94C9160C9482160C9476150C94A31842
:100180000C943F180C949F150C94701E0C947F15C2
:100190000C9464150C941B290C94B5160C94AD1694
:1001A0000C94EC240C9414170C94F0180C947A2DE5
:1001B0000C94C62C0C94EF2D0C94F6160C949B16F4
:1001C0000C94CA230C946C1E0C94681E0C94D923B6
:1001D0000C94D72D0C940D2C0C94A32D0C943D193C
:1001E0000C94E2160C94A5150C94912D0C94EC161D
:1001F0000C94B72D0C94781E0C94052E0C94AD2DF8
:100200000C9491150C947A160C9400170608206033
:1002100004000000000000050000065F0600060064
:1002200007030007030600247E247E240500242BF8
:100230006A120006006313086463060036495620FC
:1002400050040000070300000400003E41000004C9
:100250000000413E00000600083E1C3E0806000863
:10026000083E0808040000E06000000600080808D6
:100270000808040000606000000600201008040266
:1002800006003E5149453E050000427F4000060001
:100290006251494946060022494949360600181468
:1002A000127F1006002F4949493106003C4A49494E
:1002B0003006000171090503060036494949360632
:1002C00000064949291E0400006C6C00000400006F
:1002D000EC6C0000050008142241000600242424D0
:1002E00024240600004122140806000201590906D0
:1002F00006003E415D551E06007E1111117E06006E
:100300007F4949493606003E4141412206007F416E
:1003100041413E06007F4949494106007F090909DC
:100320000106003E4149497A06007F0808087F051A
:100330000000417F41000600304040403F06007F02
:100340000814224106007F4040404006007F02041E
:10035000027F06007F0204087F06003E4141413EC5
:1003600006007F0909090606003E4151215E06008C
:100370007F0909196606002649494932060001012C
:100380007F010106003F4040403F06001F20402003
:100390001F06003F403C403F0600631408146306FC
:1003A0000007087008070500714945430005000073
:1003B0007F41410006000204081020050000414171
:1003C0007F00060004020102040680808080808095
:1003D000040000030700000600205454547806006F
:1003E0007F444444380600384444442806003844D6
:1003F00044447F060038545454080500087E090917
:1004000000060018A4A4A47C05007F04047800055D
:100410000000007D400005004080847D0005007FD5
:1004200010284400050000007F400006007C0418EE
:10043000047805007C0404780006003844444438FD
:100440000600FC44444438060038444444FC06009A
:100450004478440408060008545454200500043E1F
:1004600044240005003C40207C0006001C20402065
:100470001C06003C6030603C05006C10106C0005F0
:10048000009CA0603C0005006454544C000500082A
:100490003E41410004000000770000060000414199
:1004A0003E080500020102010006003C2623263C0E
:1004B0000B1020600600000000000000000000009B
:1004C0000000000000000000000000070000000025
:1004D00000007C00FF33FF337C00000000000000C0
:1004E000000008000000003C003C00000000003C50
:1004F000003C000000000000000B0002101E901FD6
:10050000F0037E021E1E901FF0037E021E001000EC
:100510000900007804FC0CCC0CFF3FFF3FCC0CCC56
:100520000F8807000000000B00303838381C380EE8
:1005300000078003C001E038703838381C000A001A
:1005400000001FB83FFC31C621E2373E1E1C1C00D4
:1005500036002200000600000000000027003F00D7
:100560001F00000000000000000000000800000064
:1005700000F003FC0FFE1F073801200120000000DF
:100580000000000800000000012001200738FE1FC5
:10059000FC0FF003000000000000090000980CB8F8
:1005A0000EE003F80FF80FE003B80E980C000000FF
:1005B00000090000800180018001F00FF00F800130
:1005C0008001800100000000060000000000000023
:1005D000B800F800780000000000000000000009EA
:1005E0000000800180018001800180018001800184
:1005F000800100000000060000000000000038003C
:10060000380038000000000000000000000B001857
:10061000001C000E00078003C001E00070003800DD
:100620001C000E000BF807FE1F061E03338331C3A8
:1006300030633033301E18FE1FF8070A0000000038
:100640000C300C300E30FF3FFF3F003000300030E8
:1006500000000B1C301E38073C033E03378333C3B6
:1006600031E33077303E301C300B0C0C0E1C073859
:10067000C330C330C330C330C330E7397E1F3C0EB4
:100680000BC003E003700338031C030E030703FFD2
:100690003FFF3F000300030B3F0C7F1C63386330B8
:1006A0006330633063306330E338C31F830F0BC0A4
:1006B0000FF01FF839DC30CE30C730C330C330C341
:1006C00039801F000F0B0300030003000330033CBD
:1006D000030FC303F3003F000F0003000B000FBC28
:1006E0001FFE39E730C330C330C330E730FE39BCBA
:1006F0001F000F0B3C007E00E730C330C330C3380F
:10070000C31CC30EE707FE03FC0006000000000048
:1007100000701C701C701C00000000000000000035
:100720000006000000000000709C70FC707C00005F
:100730000000000000000000090000C000E001F01F
:100740000338071C0E0E1C07380330000000000A97
:1007500000006006600660066006600660066006CF
:10076000600660060000090000033007380E1C1CFC
:100770000E3807F003E001C000000000000A1C0072
:100780001E00070003008337C337E30077003E00F5
:100790001C0000000BF80FFE1F0718F333FB371B7C
:1007A00036FB37FB370736FE03F8010A0038003FF7
:1007B000E007FC061F061F06FC06E007003F0038A6
:1007C00000000AFF3FFF3FC330C330C330C330E7F0
:1007D00030FE39BC1F000F00000AF003FC0F0E1C96
:1007E000073803300330033007380E1C0C0C0000B0
:1007F0000AFF3FFF3F033003300330033007380E5A
:100800001CFC0FF00300000AFF3FFF3FC330C33062
:10081000C330C330C330C3300330033000000AFF9D
:100820003FFF3FC300C300C300C300C300C30003B6
:1008300000030000000AF003FC0F0E1C0738033011
:10084000C330C330C330C73FC63F00000AFF3FFF7D
:100850003FC000C000C000C000C000C000FF3FFF9C
:100860003F0000080000000003300330FF3FFF3F5F
:10087000033003300000000000000A000E001E00DC
:100880003800300030003000300038FF1FFF070014
:10089000000AFF3FFF3FC000E001F00338071C0ED5
:1008A0000E1C0738033000000AFF3FFF3F003000F6
:1008B0003000300030003000300030003000000ADE
:1008C000FF3FFF3F1E007800E001E00178001E00BE
:1008D000FF3FFF3F00000AFF3FFF3F0E003800F0E0
:1008E00000C0030007001CFF3FFF3F00000AF003A9
:1008F000FC0F0E1C07380330033007380E1CFC0FAA
:10090000F00300000AFF3FFF3F830183018301835F
:10091000018301C701FE007C0000000AF003FC0F08
:100920000E1C073803300336073E0E1CFC3FF03325
:1009300000000AFF3FFF3F83018301830383078396
:100940000FC71DFE387C3000000A3C0C7E1CE738C7
:10095000C330C330C330C330C7398E1F0C0F000003
:10096000090000030003000300FF3FFF3F030003F3
:10097000000300000000000AFF07FF1F00380030DE
:100980000030003000300038FF1FFF0700000A076A
:10099000003F00F801C00F003E003EC00FF8013FCD
:1009A00000070000000AFF3FFF3F001C0006800315
:1009B00080030006001CFF3FFF3F00000A03300FCA
:1009C0003C1C0E3003E001E00130031C0E0F3C0321
:1009D0003000000A03000F003C00F000C03FC03FA1
:1009E000F0003C000F00030000000A0330033C034A
:1009F0003E0333C331E33033301F300F3003300058
:100A0000000800000000FF3FFF3F033003300330C9
:100A100003300000000000000B0E001C00380070C6
:100A200000E000C00180030007000E001C00180851
:100A3000000000000330033003300330FF3FFF3F6E
:100A40000000000000000B6000700038001C000E69
:100A50000007000E001C003800700060000B00C092
:100A600000C000C000C000C000C000C000C000C086
:100A700000C000C00700000000000000003E007E33
:100A8000004E0000000000000000000A001C403E74
:100A9000603360336033603360336033E03FC03FC6
:100AA00000000AFF3FFF3FC03060306030603060C0
:100AB00030E038C01F800F00000A800FC01FE038F0
:100AC00060306030603060306030C01880080000F6
:100AD0000A800FC01FE038603060306030E030C006
:100AE00030FF3FFF3F00000A800FC01FE03B603334
:100AF0006033603360336033C0138001000008C08E
:100B000000C000FC3FFE3FC700C300C3000300005D
:100B100000000000000A8003C0C7E0CE60CC60CCBB
:100B200060CC60CC60E6E07FE03F000009FF3FFF63
:100B30003FC000600060006000E000C03F803F00F8
:100B4000000000080000000000306030EC3FEC3F87
:100B5000003000300000000000000800000000002D
:100B60006000E000C060C0ECFFEC7F00000000000F
:100B700000090000FF3FFF3F00038007C00FE01C9B
:100B80006038003000000000080000000000300362
:100B900030FF3FFF3F003000300000000000000A3F
:100BA000E03FC03FE000E000C03FC03FE000E000A9
:100BB000C03F803F00000A0000E03FE03F6000606F
:100BC0000060006000E000C03F803F00000A800F2E
:100BD000C01FE0386030603060306030E038C01FE7
:100BE000800F00000AE0FFE0FF600C6018601860F2
:100BF000186018E01CC00F800700000A8007C00FB3
:100C0000E01C6018601860186018600CE0FFE0FFDE
:100C100000000A0000E03FE03FC0006000600060AC
:100C2000006000E000C000000008C011E033603345
:100C3000603360336033603F401E000000000000FE
:100C40000860006000FE1FFE3F60306030603000D2
:100C5000300000000000000AE00FE01F0038003004
:100C60000030003000300018E03FE03F00000A6034
:100C700000E0018007001E00380038001E8007E0F9
:100C800001600000000AE007E01F0038001CE00FD0
:100C9000E00F001C0038E01FE0070000096030E0B2
:100CA00038C01D800F0007800FC01DE03860300085
:100CB0000000000900006000E08180E7007E001E67
:100CC0008007E001600000000000096030603860CB
:100CD0003C60366033E031E03060302030000000AE
:100CE000000900008000C001FC1F7E3F0770036008
:100CF0000360036000000000060000000000000028
:100D000000FF3FFF3F00000000000000000000095E
:100D1000000003600360036007707E3FFC1FC0019A
:100D20008000000000000A100018000C0004000CF5
:100D3000001800100018000C00040000000A000F4A
:100D4000800FC00C600C300C300C600CC00C800F9D
:100D5000000F0000FFFFFFFFFFFFFFFFFFFFFFFF90
:100D6000FFFFFFFFFFFFFFFFFFFFFFFFFFFFFFFF93
:100D7000FFFFFFFFFFFFFFFFFFFFFFFFFFFFFFFF83
:100D8000FFFFFFFFFFFFFFFFFFFFFFFFFFFFFFFF73
:100D9000FFFFFFFFFFFFFFFFFFFFFFFFFFFFFFFF63
:10112000FFFFFFFFFFFF00000FFFFFFFFFFFFFFFBD
:10113000FFFFFFFFFFFFFFFFFFFFFFE00000007F5B
:10114000FFFFFFFFFFFFFFFFFFFFFFFFFFFFFFFFAF
:10115000FE0000000007FFFFFFFFFFFFFFFFFFFF94
:10116000FFFFFFFFFFFFF00000000000FFFFFFFF99
:10117000FFFFFFFFFFFFFFFFFFFFFFFFC0000000BB
:1011800000003FFFFFFFFFFFFFFFFFFFFFFFFFFF2D
:10119000FFFE00000000000007FFFFFFFFFFFFFF52
:1011A000FFFFFFFFFFFFFFF800000000000001FF4E
:1011B000FFFFFFFFFFFFFFFFFFFFFFFFFFE000005C
:1011C00000000000007FFFFFFFFFFFFFFFFFFFFFAA
:1011D000FFFFFFC0000000000000003FFFFFFFFF17
:1011E000FFFFFFFFFFFFFFFFFF0000000000000008
:1011F000000FFFFFFFFFFFFFFFFFFFFFFFFFFE00EE
:101200000000000000000007FFFFFFFFFFFFFFFFDF
:10121000FFFFFFFFF8000000000000000001FFFFDB
:10122000FFFFFFFFFFFFFFFFFFFFF00000000000D8
:1012300000000000FFFFFFFFFFFFFFFFFFFFFFFFBA
:10124000E00000000000000000007FFFFFFFFFFF44
:10125000FFFFFFFFFFFF8000000000000000000014
:101260001FFFFFFFFFFFFFFFFFFFFFFF000000006A
:101270000000000000000FFFFFFFFFFFFFFFFFFF68
:10128000FFFE0000000000000000000007FFFFFF5D
:10129000FFFFFFFFFFFFFFFC000000000000000059
:1012A000000003FFFFFFFFFFFFFFFFFFFFF800004D
:1012B000000000000000000001FFFFFFFFFFFFFF34
:1012C000FFFFFFF00000000000000000000000FF32
:1012D000FFFFFFFFFFFFFFFFFFE000000000000037
:1012E00000000000007FFFFFFFFFFFFFFFFFFFC0C8
:1012F00000000000000000000000003FFFFFFFFFB3
:10130000FFFFFFFFFF800000000000000000000062
:10131000001FFFFFFFFFFFFFFFFFFF0000000000B7
:10132000000000000000000FFFFFFFFFFFFFFFFFB6
:10133000FF0000000000000000000000000FFFFFA1
:10134000FFFFFFFFFFFFFE000000000000000000A5
:1013500000000007FFFFFFFFFFFFFFFFFC00000092
:1013600000000000000000000003FFFFFFFFFFFF80
:10137000FFFFFC0000000000000000000000000172
:10138000FFFFFFFFFFFFFFFFF8000000000000006D
:10139000000000000001FFFFFFFFFFFFFFFFF00064
:1013A000000000000000000000000000FFFFFFFF41
:1013B000FFFFFFFFF0000000000000000000000041
:1013C00000007FFFFFFFFFFFFFFFE00000000000C5
:1013D00000000000000000007FFFFFFFFFFFFFFF95
:1013E000C0000000000000000000000000007FFFBF
:1013F000FFFFFFFFFFFFC0000FFFE0000000000045
:10140000000000007FFFFFFFFFFFFFFF80007FFF66
:10141000FC0000000007FFFFFFFFFFFFFFFFFFFFD3
:10142000FFFF8001FFFFFF000000003FFFFFFFFF05
:10143000FFFFFFFFFFFFFFFF0003FFFFFFC00000F4
:1014400000FFFFFFFFFFFFFFFFFFFFFFFFFF000F9A
:10145000FFFFFFE0000003FFFFFFFFFFFFFFFFFFB5
:10146000FFFFFFFE001FFFFFFFF8000007FFFFFF69
:10147000FFFFFFFFFFFFFFFFFFFE003FFFFFFFFC3F
:1014800000000FFFFFFFFFFFFFFFFFFFFFFFFFFE5B
:10149000007FFFFFFFFE00001FFFFFFFFFFFFFFFBA
:1014A000FFFFFFFFFFFC00FFFFFFFFFF00001FFF2C
:1014B000FFFFFFFFFFFFFFFFFFFFFFFC01FFFFFF3D
:1014C000FFFF00003FFFFFFFFFFFFFFFFFFFFFFFEA
:1014D000FFFC01FFFC007FFF80003FFFF8000000E1
:1014E00007FFFFFFFFFFFFF803FFF0001FFFC00033
:1014F0003FFE0000000001FFFFFFFFFFFFF807FFB6
:10150000E00007FFC0007FF80000000001FFFFFFC0
:10151000FFFFFFF807FFC00003FFE0007FF80000B7
:10152000000001FFFFFFFFFFFFF00FFF800001FF42
:10153000E0007FF00000000000FFFFFFFFFFFFF072
:101540000FFF000001FFF0007FF00000000000FF2F
:10155000FFFFFFFFFFF00FFE000000FFF0007FF035
:101560000000000000FFFFFFFFFFFFF01FFE000074
:10157000007FF0007FF00000000000FFFFFFFFFF92
:10158000FFE01FFC0000007FF8007FF80000000073
:10159000007FFFFFFFFFFFE01FFC0000003FF8009F
:1015A0007FF800000000007FFFFFFFFFFFE01FFC4F
:1015B0000000003FF8007FFC00000000007FFFFFFC
:1015C000FFFFFFE01FF80000003FF8003FFF0000B2
:1015D0000000007FFFFFFFFFFFE03FF80000003F3B
:1015E000F8003FFFC0000000007FFFFFFFFFFFE0AB
:1015F0003FF80000001FF8001FFFF8000000007F08
:10160000FFFFFFFFFFE03FF80000001FF8001FFF93
:10161000FF000000007FFFFFFFFFFFC03FF800005A
:10162000001FF8000FFFFFE00000003FFFFFFFFF7B
:10163000FFC03FF80000001FF80007FFFFFE00009A
:10164000003FFFFFFFFFFFC03FF80000003FF80032
:1016500003FFFFFFC000003FFFFFFFFFFFC03FF899
:101660000000003FF80001FFFFFFF800003FFFFF10
:10167000FFFFFFC03FF00000003FF800007FFFFFCA
:10168000FE00003FFFFFFFFFFFC03FF00000003FF4
:10169000F800001FFFFFFF80003FFFFFFFFFFFC0BC
:1016A0003FF00000003FF8000007FFFFFFE0003FB1
:1016B000FFFFFFFFFFC03FF00000003FF800000009
:1016C000FFFFFFF0003FFFFFFFFFFFC03FF0000004
:1016D000003FF00000001FFFFFF8003FFFFFFFFF8B
:1016E000FFC07FF00000003FF000000003FFFFFCA0
:1016F000003FFFFFFFFFFFC07FF00000003FF00052
:101700000000007FFFFE003FFFFFFFFFFFE07FE0E4
:101710000000003FF0000000000FFFFF003FFFFF50
:10172000FFFFFFE07FE00000007FF000000000010D
:10173000FFFF007FFFFFFFFFFFE07FE00000007F73
:10174000F000000000007FFF807FFFFFFFFFFFE051
:101750007FE00000007FF000000000001FFF807F9E
:10176000FFFFFFFFFFE07FE00000007FE0000000E0
:10177000000007FF807FFFFFFFFFFFE07FE000002A
:10178000007FE0000000000003FFC07FFFFFFFFFBD
:10179000FFE0FFE00000007FE0000000000003FF2A
:1017A000C07FFFFFFFFFFFF0FFE00000007FE000D1
:1017B0000000000001FFC0FFFFFFFFFFFFF0FFE0A0
:1017C000000000FFE0000000000001FFC0FFFFFF7D
:1017D000FFFFFFF0FFE0000000FFE000000000005E
:1017E00001FFC0FFFFFFFFFFFFF0FFE0000000FF71
:1017F000E0000000000001FFC0FFFFFFFFFFFFF05F
:10180000FFC0000000FFE0000000000003FFC0FF79
:10181000FFFFFFFFFFF8FFC0000000FFE000000037
:10182000000003FF81FFFFFFFFFFFFF8FFC0000084
:1018300000FFE000000000000FFF81FFFFFFFFFF3F
:10184000FFFCFFC0000000FFE000000000003FFFC1
:1018500081FFFFFFFFFFFFFDFFC0000000FFFFFF54
:10186000FFFFFFFFFFFF03FFFFFFFFFFFFFFFFC0C3
:10187000000000FFFFFFFFFFFFFFFFFF03FFFFFF71
:10188000FFFFFFFFFFC0000001FFFFFFFFFFFFFFA3
:10189000FFFE03FFFFFFFFFFFFFFFF80000001FFD0
:1018A000FFFFFFFFFFFFFFFE07FFFFFFFFFFFFFF41
:1018B000FF80000001FFFFFFFFFFFFFFFFFC07FFAE
:1018C000FFFFFFFFFFFFFF80000001FFFFFFFFFFA3
:1018D000FFFFFFF80FFFFFFFFFFFFFFFFF8000008C
:1018E00001FFFFFFFFFFFFFFFFE00FFFFFFFFFFF15
:1018F000FFFFFF80000001FFFFFFFFFFFFFFFFC0B2
:101900001FFFFFFFFFFFFFFFFF80000001FFFFFF42
:10191000FFFFFFFFFF001FFFFFFFFFFFFFFFFF8035
:10192000000001FFFFFFFFFFFFFFC0003FFFFFFFC1
:10193000FFFFFFFFFF80000000000000000000002C
:1019400000003FFFFFFFFFFFFFFFFF8000000000E0
:1019500000000000000000007FFFFFFFFFFFFFFF0F
:10196000FF000000000000000000000000007FFFFA
:10197000FFFFFFFFFFFFFF0000000000000000006E
:1019800000000000FFFFFFFFFFFFFFFFFF00000060
:1019900000000000000000000000FFFFFFFFFFFF4D
:1019A000FFFFFF0000000000000000000000000139
:1019B000FFFFFFFFFFFFFFFFFF0000000000000030
:1019C000000000000003FFFFFFFFFFFFFFFFFF001D
:1019D000000000000000000000000007FFFFFFFF04
:1019E000FFFFFFFFFF0000000000000000000000FC
:1019F0000007FFFFFFFFFFFFFFFFFF0000000000E9
:101A0000000000000000000FFFFFFFFFFFFFFFFFCF
:101A1000FF8000000000000000000000001FFFFF2A
:101A2000FFFFFFFFFFFFFFC00000000000000000FD
:101A30000000003FFFFFFFFFFFFFFFFFFFE0000090
:101A40000000000000000000007FFFFFFFFFFFFF1D
:101A5000FFFFFFE000000000000000000000007F2A
:101A6000FFFFFFFFFFFFFFFFFFF00000000000008F
:101A70000000000000FFFFFFFFFFFFFFFFFFFFFC74
:101A80000000000000000000000001FFFFFFFFFF5A
:101A9000FFFFFFFFFFFE000000000000000000004D
:101AA00003FFFFFFFFFFFFFFFFFFFFFF000000003E
:101AB00000000000000007FFFFFFFFFFFFFFFFFF28
:101AC000FFFF800000000000000000001FFFFFFF7C
:101AD000FFFFFFFFFFFFFFFFC0000000000000004E
:101AE00000003FFFFFFFFFFFFFFFFFFFFFFFE000E2
:101AF00000000000000000007FFFFFFFFFFFFFFF6E
:101B0000FFFFFFFFF8000000000000000000FFFFE3
:101B1000FFFFFFFFFFFFFFFFFFFFFC0000000000D3
:101B200000000003FFFFFFFFFFFFFFFFFFFFFFFFBE
:101B3000FE000000000000000007FFFFFFFFFFFFA6
:101B4000FFFFFFFFFFFFFF80000000000000001FFD
:101B5000FFFFFFFFFFFFFFFFFFFFFFFFFFE00000B2
:101B600000000000007FFFFFFFFFFFFFFFFFFFFF00
:101B7000FFFFFFF000000000000000FFFFFFFFFF7D
:101B8000FFFFFFFFFFFFFFFFFFFE00000000000060
:101B900003FFFFFFFFFFFFFFFFFFFFFFFFFFFFFF51
:101BA0008000000000001FFFFFFFFFFFFFFFFFFF9F
:101BB000FFFFFFFFFFFFE000000000007FFFFFFFCF
:101BC000FFFFFFFFFFFFFFFFFFFFFFFFFC00000025
:101BD0000003FFFFFFFFFFFFFFFFFFFFFFFFFFFF10
:101BE000FFFFFF800000001FFFFFFFFFFFFFFFFF61
:101BF000FFFFFFFFFFFFFFFFFFFC000001FFFFFFF4
:101C0000FFFFFFFFFFFFFFFFFFFFFFFFFFFFFFFFE4
:101C1000F000FFFFFFFFFFFFFFFFFFFFFFFFFFFFE2
:101C2000FFFFFFFFFFFFFFFFFFFFFFFFFFFFFFFFC4
:101C3000FFFFFFFFFFFFFFFFFFFFFFFFFFFFFFFFB4
:101C4000FFFFFFFFFFFFFFFFFFFFFFFFFFFFFFFFA4
:101C5000FFFFFFFFFFFFFFFFFFFFFFFFFFFFFFFF94
:10205000FFFF00002100240027002A002D0030008F
:10206000330001010000040107010A010000220001
:10207000250028002B002E00310034000201000052
:10208000050108010B0100002000230026002900A3
:102090002C002F003200000100000301060109019D
:1020A00005050505070508080808020202020A0AD4
:1020B00008080404040401010101010101010303F2
:1020C000030303030303040707070C0C0C0C0C0C9D
:1020D0000C0C0202020206060606060606060B0B9A
:1020E0000B0B0B0B0B0B01021020200808102040DB
:1020F00010204080020102010804020101020408CC
:102100001020408080402010080402018004020159
:1021100080402010080402010804020101020408A2
:1021200010204080010204081020408000000A0BAB
:1021300002090C0D0E080703040100000000000056
:10214000000000000000000000000000000000008F
:10215000000000000000000012111000000000004C
:10216000000000000000000000000000000000006F
:10217000000085343A3E11241FBECFEFD1E2DEBF0E
:10218000CDBF00E00CBF20E1AAEDB5E001C01D927B
:10219000A731B207E1F715E0A0E0B2E0E0ECF7E824
:1021A00000E00BBF02C007900D92AA3DB107D9F71E
:1021B00010E1CAEBD0E100E006C021970109802FB1
:1021C000FE010E94C940C93BD10780E00807A9F77A
:1021D0000E9489350C94CE430C940000809101102C
:1021E00090910210A0910310B09104100197A109E1
:1021F000B1098093011090930210A0930310B09343
:102200000410892B8A2B8B2B49F4E091BF0FF0919E
:10221000C00F80819091C30F892B80830895AC01FA
:10222000E091BB0FF091BC0F80819091C40F892B7E
:102230008083E091BF0FF091C00F80819091C30F18
:102240009095982390838091B50F20E130E060E075
:1022500070E887FF12C05EBD0DB407FEFDCF4EBD16
:102260000DB407FEFDCFE091BF0FF091C00F80814C
:102270009091C30F892B80830895E091B70FF0915F
:10228000B80F9091C10FDA01A623B7238081AB2B41
:10229000D9F0982B9083E091B90FF091BA0F80811B
:1022A0009091C20F892B8083E091B90FF091BA0F02
:1022B00080819091C20F9095982390837695679531
:1022C00021503109D1F6CFCF90959823E3CF9C01CF
:1022D000E091BB0FF091BC0F80819091C40F90955D
:1022E00098239083E091BF0FF091C00F808190916F
:1022F000C30F9095982390838091B50F40E150E0F3
:1023000060E070E887FF12C01EBC0DB407FEFDCF71
:102310002EBD0DB407FEFDCFE091BF0FF091C00FB1
:1023200080819091C30F892B80830895E091B70F2E
:10233000F091B80F9091C10FD901A623B7238081E6
:10234000AB2BD9F0982B9083E091B90FF091BA0F95
:1023500080819091C20F892B8083E091B90FF09119
:10236000BA0F80819091C20F9095982390837695B3
:10237000679541505109D1F6CFCF90959823E3CF7F
:10238000CF93DF93EB010E946711CE01DF91CF91D4
:102390000C940F118091011090910210A0910310E4
:1023A000B0910410AC01BD014F5F5F4F6F4F7F4F85
:1023B0004093011050930210609303107093041027
:1023C000892B8A2B8B2B91F48091B50F87FF04C04A
:1023D00080E58CBD81E08DBDE091BF0FF091C00F15
:1023E00090818091C30F8095892380830895DC01BB
:1023F000FB018091C50F8230B9F0833069F18130E3
:1024000051F58091AD0F9091AE0F019720813181F0
:10241000821B930B918380832D913C9111978D9317
:102420009C933183208308958091AB0F9091AC0FE2
:1024300001972D913C911197821B930B8D939C9347
:102440008091AD0F9091AE0F019720813181821B59
:10245000930B9183808308958091AB0F9091AC0F83
:1024600001972D913C911197821B930B11969C9390
:102470008E93208131812D933C93EBCF0F931F934B
:10248000CF93DF9300D01F92CDB7DEB79A838983B5
:102490007C836B832091AB0F3091AC0F8217930735
:1024A00020F52091AD0F3091AE0F62177307E8F45D
:1024B0008A01BE016D5F7F4FCE0101960E94F71128
:1024C0000E94CA1169817A8180E290E00E94C01165
:1024D0006B817C8181E290E00E94C011B80182E2B0
:1024E00090E00E94C0110E94EE100F900F900F908C
:1024F0000F90DF91CF911F910F9108950F931F932C
:10250000CF93DF9300D000D01F921F92CDB7DEB7DC
:102510007C836B835E834D8338872F832091AB0F41
:102520003091AC0F215031092817390708F4C9013F
:102530009A8389838D819E812817390708F4C90100
:102540009E838D838091AD0F9091AE0F01972B816B
:102550003C818217930708F49C013C832B832F81D5
:1025600038858217930708F49C0138872F83BE01B2
:102570006D5F7F4FCE0101960E94F711BE01695F2A
:102580007F4FCE0105960E94F7112D813E818981F2
:102590009A812817390720F43A8329839E838D83F3
:1025A0002F8138858B819C812817390720F43C8343
:1025B0002B8398878F830E94CA11E091C50FEE2369
:1025C00079F0E150FF0B23E0EE0FFF1F2A95E1F7B2
:1025D000E00FF11FEE0FFF1FE953F04F0081118153
:1025E000B80183E0660F771F8A95E1F7706183E099
:1025F00090E00E94C0116D817E8186E390E00E9490
:10260000C01169817A8187E390E00E94C0116F81D7
:10261000788588E390E00E94C0116B817C8189E31A
:1026200090E00E94C011159507950130110529F120
:10263000ACF46D817E81012B11F182E290E00E9469
:1026400067110E94EE1028960FB6F894DEBF0FBEF9
:10265000CDBFDF91CF911F910F91089502301105E9
:10266000C9F069817A810330110539F780E290E081
:102670000E94C0116B817C8108C069817A8180E2EF
:1026800090E00E94C0116F81788581E290E00E9405
:10269000C011D3CF6D817E81E9CF6FEA70E086E310
:1026A00090E00E94C01170E060E087E390E00E943B
:1026B000C0116BED70E088E390E00E94C01170E003
:1026C00060E089E390E00C94C0118F929F92AF92EA
:1026D000BF92CF92DF92EF92FF920F931F93CF930F
:1026E000DF935C014B01EA017901680107E010E02A
:1026F0000E947E120E94CA118FEFE81AF80AE818A9
:10270000F9082196CA19DB09EC9E5001ED9EB00C28
:10271000FC9EB00C1124A114B10439F0C6010E9432
:102720000F1181E0A81AB108F6CF0E94EE10DF91D8
:10273000CF911F910F91FF90EF90DF90CF90BF90BE
:10274000AF909F908F900C944D132F923F924F9289
:102750005F926F927F928F929F92AF92BF92CF9231
:10276000DF92EF92FF920F931F93CF93DF9300D0EE
:1027700000D000D01F921F92CDB7DEB75B015B8304
:102780004A83522E432E7C01712C272D30E0EA81A2
:10279000FB81848195812817390708F0D4C0808196
:1027A0009181009709F4A5C0820F931FFC018081DD
:1027B000F091FB0FFA872091FF0FF29F90011124F7
:1027C0002F5F3F4F082E000C990B4091FD0F841B8B
:1027D0009109289F6001299FD00C389FD00C1124AB
:1027E0008091001081110BC0E091F90FF091FA0F68
:1027F00096012C5F3F4FE20FF31F34913A8785E03B
:10280000C80ED11C0E94CA119A85292E312CA7010D
:102810004F5F5F4F420D531D8091AB0F9091AC0FF6
:102820004817590708F067C02091FC0F2150330B5F
:102830002A0D3B1D8091AD0F9091AE0F28173907DF
:1028400008F059C007E010E0B501C7010E947E12F0
:10285000E1E0E9831B868601612C2B852E0D3F2D3F
:10286000311D39872887802F8C199091FF0F891788
:1028700008F059C03A859B85E0E0391739F0E091BE
:10288000F90FF091FA0FE00FF11FE4910F5F1F4F66
:10289000F8E08F9FC00111249C012A0D3B1D3D8350
:1028A0002C83912C812C8E2F90E09F838E8380919E
:1028B000FC0F6816C0F68E819F81082C02C095958A
:1028C00087950A94E2F781709927E981EE23D1F088
:1028D000892BA9F48091AF0F9091B00F0E940F1136
:1028E0006394FFEF8F1A9F0A28E082169104F9F68D
:1028F000BACF80E05DCF1982ADCF6801ACCF852D16
:10290000942DECCF4091AF0F5091B00F892B11F067
:10291000452D542D6C817D81680D791D88859985A3
:102920000E943E12DDCF3B853F5F3B878A85831740
:1029300020F70E94EE100E944D13C1010196E80E8F
:10294000F91E739422CFC7012B960FB6F894DEBF01
:102950000FBECDBFDF91CF911F910F91FF90EF90F0
:10296000DF90CF90BF90AF909F908F907F906F90AF
:102970005F904F903F902F9008952F923F924F92EB
:102980005F926F927F928F929F92AF92BF92CF92FF
:10299000DF92EF92FF920F931F93CF93DF93EC019F
:1029A0008B014A017901E61AF70AF7FE03C0F19498
:1029B000E194F1086401CC1ADD0AD7FE03C0D1947A
:1029C000C194D108CE14DF0454F4982D892D490107
:1029D000292F382F9C2F8D2FE801092F182F8C16A7
:1029E0009D0650F4902F812F8901292F382F9C2F7D
:1029F0008D2FE401892E982E14012C1A3D0A2901ED
:102A0000401A510A57FE03C05194419451083101B4
:102A100037FE03C08FEF681A780A75946794AA246A
:102A2000AA94BA2C0217130718F4AA24A394B12C61
:102A30000E94CA118C169D06A8F04FEF5FEFBE01F1
:102A4000C801CE14DF0414F0B801CE010E943E127A
:102A50006418750877FE04C00A0D1B1D620C731CF8
:102A60002196E8CFDF91CF911F910F91FF90EF90CA
:102A7000DF90CF90BF90AF909F908F907F906F909E
:102A80005F904F903F902F900C94EE1081508231C8
:102A900008F05AC0E82FF0E08827EE5AFA4E8F4F20
:102AA0000C94C9407215761564156A156E15A41537
:102AB00079157F15831589158D15911597159B151A
:102AC000A4159F15A515A915809180008F77809377
:102AD00080000895809180008F7DF9CF80918000E3
:102AE000877FF5CF84B58F7784BD089584B58F7DBA
:102AF000FBCF8091B0008F778093B00008958091D4
:102B0000B0008F7DF9CF809190008F7780939000F7
:102B10000895809190008F7DF9CF80919000877FFC
:102B2000F5CF8091A0008F778093A00008958091C9
:102B3000A0008F7DF9CF8091A000877FF5CF809195
:102B400020018F77809320010895809120018F7D4F
:102B5000F9CF80912001877FF5CFCF93DF93282F86
:102B600030E0F901E45DFE4D8491F901EA51FF4D39
:102B7000D491F901E056FF4DC491CC23A1F081110D
:102B80000E944615EC2FF0E0EE0FFF1FEA57FF4DB5
:102B9000A591B491EC91ED2381E090E009F480E0FF
:102BA000DF91CF91089580E090E0FACF1F93CF930B
:102BB000DF93282F30E0F901E45DFE4D8491F901A7
:102BC000EA51FF4DD491F901E056FF4DC491CC2359
:102BD000A9F0162F81110E944615EC2FF0E0EE0FA0
:102BE000FF1FE459FF4DA591B4918FB7F894EC9174
:102BF000111108C0D095DE23DC938FBFDF91CF91F8
:102C00001F910895DE2BF8CFCF93DF9390E0FC0166
:102C1000EA51FF4D249180569F4DFC0184918823F9
:102C2000D1F090E0880F991FFC01EE5AFF4DA5915D
:102C3000B491FC01E459FF4DC591D49161110EC0CE
:102C40009FB7F8948C91E22FE0958E238C93288186
:102C5000E223E8839FBFDF91CF9108958FB7F89467
:102C6000EC91E22BEC938FBFF6CF1F93CF93DF93C2
:102C70008093F80F1091B60F112309F43FC0C09153
:102C8000C60FD0E0811102C0D0E0C0E061E0812F2A
:102C90000E940416209739F460E0812FDF91CF91D4
:102CA0001F910C94D615CF3FD10511F461E0F5CFFB
:102CB000E12FF0E0E45DFE4DE491E150E23108F0F7
:102CC000B3C0F0E08827E859F94E8F4F0C94C94003
:102CD0007A168216871691169B161417A516AD162E
:102CE000B516BF16C916D316E216EC161417F6164B
:102CF00000170A1784B5806884BDC7BDDF91CF91E6
:102D00001F91089584B5806284BDC8BDF7CF8091BE
:102D10008000806880938000D0938900C0938800F1
:102D2000EDCF80918000806280938000D0938B00F3
:102D3000C0938A00E3CF80918000886080938000F8
:102D4000D0938D00C0938C00D9CF8091B000806863
:102D50008093B000C093B300D1CF8091B000806267
:102D60008093B000C093B400C9CF80919000806878
:102D700080939000D0939900C0939800BFCF80912A
:102D80009000806280939000D0939B00C0939A0043
:102D9000B5CF80919000886080939000D0939D0083
:102DA000C0939C00ABCF8091A00080688093A0006E
:102DB0008091A0008F7B8093A000D093A900C09346
:102DC000A8009CCF8091A00080628093A000D09347
:102DD000AB00C093AA0092CF8091A000886080933E
:102DE000A000D093AD00C093AC0088CF80912001AB
:102DF000806880932001D0932901C09328017ECF61
:102E000080912001806280932001D0932B01C09398
:102E10002A0174CF80912001886080932001D09393
:102E20002D01C0932C016ACFC038D1050CF03ECFE4
:102E300033CF90917B00977F90937B008653806483
:102E400080937C0080917A00806480937A008091E6
:102E50007A0086FDFCCF80917800909179000895EA
:102E60003FB7F89480917E0B90917F0BA091800BDF
:102E7000B091810B26B5A89B05C02F3F19F0019694
:102E8000A11DB11D3FBFBA2FA92F982F8827BC01C4
:102E9000CD01620F711D811D911D42E0660F771FEC
:102EA000881F991F4A95D1F708958F929F92AF92EC
:102EB000BF92CF92DF92EF92FF924B015C010E9492
:102EC00030176B017C010E9430176C197D098E0947
:102ED0009F09683E734081059105A8F321E0821A9D
:102EE0009108A108B10888EEC80E83E0D81EE11C45
:102EF000F11C81149104A104B10429F7FF90EF9013
:102F0000DF90CF90BF90AF909F908F900895CF9219
:102F1000DF92EF92FF920F931F93CF93C091C50F53
:102F20001092C50F80EBC82ED12CD092AC0FC0925E
:102F3000AB0F9CEDE92EF12CF092AE0FE092AD0FAD
:102F400010E000E02BED30E04FEA50E070E060E090
:102F500090E080E00E946513C370C093C50FC1303C
:102F6000B9F0C330A9F0D092AC0FC092AB0FF09281
:102F7000AE0FE092AD0F6AE070E080E090E0CF919C
:102F80001F910F91FF90EF90DF90CF900C94551709
:102F90008CED90E09093AC0F8093AB0F80EB90E0C2
:102FA0009093AE0F8093AD0FE6CF2FB7F89460915A
:102FB0007A0B70917B0B80917C0B90917D0B2FBFD6
:102FC000089581E02091720B3091730B1216130655
:102FD0000CF480E00895E1E02091D80A3091D90AFC
:102FE0004091DA0A5091DB0A6091DC0A7091DD0AA7
:102FF0008091DE0A9091DF0AA0E00E947B4109F4F3
:10300000E0E08E2F0895AF92BF92CF92DF92EF92C1
:10301000FF920F931F93CF93DF936C017B018B0182
:10302000040F151FEB015E01AE18BF08C017D107D2
:1030300059F06991D601ED91FC910190F081E02D5C
:10304000C6011995892B79F7C501DF91CF911F91A1
:103050000F91FF90EF90DF90CF90BF90AF900895C9
:10306000FC01538D448D252F30E0842F90E0821B8E
:10307000930B541710F0CF96089501970895FC0113
:10308000918D828D981761F0A28DAE0FBF2FB11D6B
:103090005D968C91928D9F5F9F73928F90E00895C3
:1030A0008FEF9FEF0895FC01918D828D981731F07D
:1030B000828DE80FF11D858D90E008958FEF9FEFD1
:1030C0000895FC01918D228D892F90E0805C9F4FA7
:1030D000821B91098F73992708958AE89BE00E94CB
:1030E000611821E0892B09F420E0822F089587E2FE
:1030F0009CE00E94611821E0892B09F420E0822FD6
:103100000895FC01A48DA80FB92FB11DA35ABF4F7C
:103110002C91848D90E001968F739927848FA689D6
:10312000B7892C93A089B1898C91837080648C932A
:10313000938D848D981306C00288F389E02D8081D9
:103140008F7D80830895EF92FF920F931F93CF930B
:10315000DF93EC0181E0888F9B8D8C8D98131AC0D2
:10316000E889F989808185FF15C09FB7F894EE89B9
:10317000FF896083E889F989808183708064808316
:103180009FBF81E090E0DF91CF911F910F91FF9061
:10319000EF900895F62E0B8D10E00F5F1F4F0F7309
:1031A0001127E02E8C8D8E110CC00FB607FCFACFC4
:1031B000E889F989808185FFF5CFCE010E948118C9
:1031C000F1CFEB8DEC0FFD2FF11DE35AFF4FF08295
:1031D0009FB7F8940B8FEA89FB8980818062CFCFFB
:1031E000CF93DF93EC01888D8823B9F0AA89BB893E
:1031F000E889F9898C9185FD03C0808186FD0DC029
:103200000FB607FCF7CF8C9185FFF2CF808185FF49
:10321000EDCFCE010E948118E9CFDF91CF910895C3
:1032200080E090E0892B29F00E94771881110E949C
:10323000000080E090E0892B49F080E090E0892B4D
:1032400029F00E94000081110E94000080E090E0BF
:10325000892B49F080E090E0892B29F00E94000042
:1032600081110E94000080E090E0892B29F00E94EB
:103270006D1881110C9400000895089508950F931E
:103280001F93CF93DF938C01C2E0DEE0CE0182502A
:103290009E408017910734F469918AE89BE00E9470
:1032A000A318F4CFDF91CF911F910F9108950F9341
:1032B0001F930E94D51700910202109103022091E2
:1032C000040230910502601B710B820B930B21E00D
:1032D000613177428105910508F420E0822F1F912A
:1032E0000F9108954F3651056105710571F0411533
:1032F00051056105710549F04F7D81E04D3451055F
:103300006105710519F080E0089581E00895FB01E1
:103310009081892790E1899F90011124822790E074
:10332000382F2227AC0163E0440F551F6A95E1F75F
:1033300024273527418150E02427352774E09595CF
:1033400087957A95E1F78227932791838083089563
:103350000F931F93CF93DF931F921F92CDB7DEB7CA
:103360008C01862FF801208131813A832983BE01A7
:103370006F5F7F4F0E94871989819A81F80191833D
:1033800080830F900F90DF91CF911F910F9108953F
:103390002F923F924F925F926F927F928F929F9265
:1033A000AF92BF92CF92DF92EF92FF920F931F9353
:1033B000CF93DF93CDB7DEB7A4970FB6F894DEBFF7
:1033C0000FBECDBFFC019C01205C3F4F8C01D8019A
:1033D0006D917D918D919D91AD010E94D140D8015B
:1033E0006D937D938D939C9313978A014217530796
:1033F00071F7DA018D909D90AD90BC908D829E8288
:10340000AF82B886DF01AC5BBF4F8D909D90AD90D1
:10341000BC9013978D869E86AF86B88A14960D91C0
:103420001D912D913C911397098B1A8B2B8B3C8B03
:1034300014962D913D914D915C9113972F8F38A348
:1034400049A35AA314968D909D90AD90BC9013976C
:1034500089829A82AB82BC8214960D911D912D9126
:103460003C9113970D8B1E8B2F8B388F14962D91BB
:103470003D914D915C911397298F3A8F4B8F5C8FC3
:1034800014968D909D90AD90BC9089869A86AB865F
:10349000BC8608E912E01E8F0D8F312C212CD10142
:1034A00010E1211631040CF021C2AA0FBB1FAA0F94
:1034B000BB1FAE0FBF1FCD90DD90ED90FC90AD8D8A
:1034C000BE8D0D911D912D913D91BE8FAD8F498186
:1034D0005A816B817C818AE1440F551F661F771FDB
:1034E0008A95D1F789809A80AB80BC8096E0B694AB
:1034F000A794979487949A95D1F7482959296A29CE
:103500007B2949805A806B807C80A5E1440C551C46
:10351000661C771CAA95D1F789819A81AB81BC8101
:10352000072E7BE0B695A795979587957A95D1F765
:10353000702D84299529A629B729482759276A2754
:103540007B2749805A806B807C8089E176946794E0
:10355000579447948A95D1F789819A81AB81BC8130
:10356000689416F8880F991FAA1FBB1F1694D1F7ED
:1035700084299529A629B7292A013B0148265926DD
:103580006A267B2649815A816B817C8140955095C2
:1035900060957095898C9A8CAB8CBC8C4821592194
:1035A0006A217B2189819A81AB81BC818D889E882B
:1035B000AF88B88C88219921AA21BB21842795271F
:1035C000A627B727B301A201480F591F6A1F7B1F07
:1035D000400F511F621F731FC40ED51EE61EF71E3B
:1035E00009851A852B853C850C0D1D1D2E1D3F1D43
:1035F0008D809E80AF80B8848EE1880C991CAA1CB7
:10360000BB1C8A95D1F74D805E806F80788492E0F4
:1036100076946794579447949A95D1F7842895287F
:10362000A628B7284D815E816F817885A3E1440F7C
:10363000551F661F771FAA95D1F78D819E81AF8197
:10364000B885072E7DE0B695A795979587957A95CD
:10365000D1F7702D842B952BA62BB72B8826992676
:10366000AA26BB264D815E816F81788586E176959D
:103670006795579547958A95D1F78D819E81AF8142
:10368000B885072E7AE0880F991FAA1FBB1F7A956D
:10369000D1F7702D842B952BA62BB72BB501A40148
:1036A000482759276A277B278D849E84AF84B88852
:1036B00089899A89AB89BC8988269926AA26BB263E
:1036C0008D819E81AF81B88588229922AA22BB2252
:1036D000CD84DE84EF84F88889899A89AB89BC8996
:1036E000C822D922EA22FB22C824D924EA24FB24B6
:1036F000C40ED51EE61EF71E4F8C58A069A07AA0F6
:10370000400E511E621E731EC00ED11EE21EF31E1D
:103710009FEF291A390A89889A88AB88BC888F8ECE
:1037200098A2A9A2BAA2098D1A8D2B8D3C8D09876A
:103730001A872B873C8710E42116310409F0ADC0AD
:10374000DF01A05CBF4F0D911D912D913C9113970E
:10375000C00ED11EE21EF31ECD92DD92ED92FC92C0
:10376000139714964D915D916D917C9113978D8077
:103770009E80AF80B884480D591D6A1D7B1D4D93F6
:103780005D936D937C93139714964D915D916D911C
:103790007C9113970D851E852F853889400F511F09
:1037A000621F731F4D935D936D937C9313971496D3
:1037B0004D915D916D917C91139789889A88AB8822
:1037C000BC88480D591D6A1D7B1D4D935D936D93FB
:1037D0007C93139714964D915D916D917C91139705
:1037E000440E551E661E771E4D925D926D927C9220
:1037F000139714964D915D916D917C91139709816A
:103800001A812B813C81400F511F621F731F4D9302
:103810005D936D937C931397BF01685A7F4FDB01D3
:10382000CD90DD90ED90FC9013978D889E88AF88A9
:10383000B88CC80CD91CEA1CFB1CCD92DD92ED9211
:10384000FC921397E45AFF4F80819181A281B3814A
:10385000898C9A8CAB8CBC8C880D991DAA1DBB1DC4
:1038600080839183A283B383A4960FB6F894DEBFBE
:103870000FBECDBFDF91CF911F910F91FF90EF90C1
:10388000DF90CF90BF90AF909F908F907F906F9080
:103890005F904F903F902F9008952D893E894F89DA
:1038A000588D298F3A8F4B8F5C8F89819A81AB819C
:1038B000BC818D8B9E8BAF8BB88F49825A826B8275
:1038C0007C828D849E84AF84B888898A9A8AAB8AE8
:1038D000BC8A0D811E812F8138850D871E872F8719
:1038E000388BCD82DE82EF82F886D9CD1297AF7009
:1038F000BB27AA0FBB1FAA0FBB1FAE0FBF1F0D9187
:103900001D912D913C91D1011F97AF70BB27AA0F3C
:10391000BB1FAA0FBB1FAE0FBF1F4D915D916D91D5
:103920007C91C1018F709927880F991F880F991F6B
:10393000DF01A80FB91FBCA3ABA3D1011797AF70CC
:10394000BB27AA0FBB1FAA0FBB1FAE0FBF1FCD9077
:10395000DD90ED90FC90ABA1BCA18D909D90AD90C1
:10396000BC90C80CD91CEA1CFB1C480159019FE003
:10397000880C991CAA1CBB1C9A95D1F7D901C801C7
:10398000072E71E1B695A795979587957A95D1F70A
:10399000702D882A992AAA2ABB2AD901C801072E84
:1039A0007DE0880F991FAA1FBB1F7A95D1F7702D54
:1039B00028013901032E33E1769467945794479494
:1039C0003A95D1F7302D84299529A629B72988253C
:1039D0009925AA25BB250F2EFAE036952795179530
:1039E0000795FA95D1F7F02D80279127A227B327C5
:1039F000C80ED91EEA1EFB1E8A019B0187E0369580
:103A00002795179507958A95D1F7DB01CA01072EEF
:103A100079E1880F991FAA1FBB1F7A95D1F7702DE6
:103A2000082B192B2A2B3B2BDB01CA01072E7EE02A
:103A3000880F991FAA1FBB1F7A95D1F7702D2A01F5
:103A40003B01032E32E176946794579447943A955C
:103A5000D1F7302D84299529A629B72980279127C8
:103A6000A227B32723E076956795579547952A9522
:103A7000D1F784279527A627B727C80ED91EEA1E97
:103A8000FB1EABA1BCA1CD92DD92ED92FC921397EF
:103A900016CD0F931F9310E000E02DED30E040EBCA
:103AA00050E068EC70E090E080E00E9465131F91A8
:103AB0000F910895E0EBF4E0F093FA0FE093F90F23
:103AC000E491E093FB0FE1EBF4E084918093FC0F31
:103AD000E2EBF4E0E491E093FD0FE3EBF4E0E4913A
:103AE000E093FE0F982F9695969596959093FF0FDD
:103AF00010920010877019F09F5F9093FF0F089548
:103B0000ECE0F2E0F093FA0FE093F90FE491E09328
:103B1000FB0FEDE0F2E084918093FC0FEEE0F2E029
:103B2000E491E093FD0FEFE0F2E0E491E093FE0F0B
:103B3000982F9695969596959093FF0F109200105A
:103B4000877019F09F5F9093FF0F0895CF92DF92D7
:103B5000EF92FF92CF93DF93EC016A017B018F819B
:103B60009885A985BA858C199D09AE09BF09B7FF4B
:103B700003C080E090E0DC018F839887A987BA8733
:103B800088810E94AD15892BB9F48F819885A9850C
:103B9000BA85892B8A2B8B2B79F489819A81892B81
:103BA000C9F481E090E09A838983DF91CF91FF90FF
:103BB000EF90DF90CF90089588810E94AD15892BFA
:103BC00089F584EF91E0A0E0B0E08F839887A98722
:103BD000BA87EBCF8B859C85AD85BE858C0D9D1DF1
:103BE000AE1DBF1D8B879C87AD87BE87843F9140EC
:103BF000A105B105D0F283E090E09A83898384EF38
:103C000091E0A0E0B0E08F839887A987BA87ED8123
:103C1000FE81309751F2DF91CF91FF90EF90DF90CE
:103C2000CF90199489819A81019769F484EF91E08A
:103C3000A0E0B0E08F839887A987BA87EB81FC81E9
:103C4000309709F019951A8219821B861C861D86E9
:103C50001E86ABCFCF92DF92EF92FF92CF93DF938E
:103C6000EC016A017B0188810E94AD159C0181E015
:103C700090E02115310511F090E080E09A8389836E
:103C80008D819E81AF81B885232BC1F40097A1055A
:103C9000B105A1F4EB81FC81309709F0199584EF0F
:103CA00091E0A0E0B0E08D839E83AF83B887DF9181
:103CB000CF91FF90EF90DF90CF9008958C199D09E0
:103CC000AE09BF09B7FFEFCF80E090E0DC01EBCF9A
:103CD00081E08093700B089581E08093710B0895CB
:103CE00081E08093740B089581E08093750B0895B3
:103CF00081E08093760B089581E08093770B08959F
:103D00008F929F92AF92BF92CF92DF92EF92FF92EB
:103D10000F931F93CF93DF937C014A015B016901ED
:103D2000FC011995C091840BD091850B82E190E044
:103D30002097E1F50E949B41FC01108211821282C2
:103D400013821482158216821782138612861586B4
:103D5000148617861686118A108A9093850B809395
:103D6000840B9093830B8093820B11861086E091D5
:103D7000840BF091850BF586E48610821182128205
:103D8000138284829582A682B782D386C2861787E1
:103D90000687DF91CF911F910F91FF90EF90DF90F9
:103DA000CF90BF90AF909F908F9008950E949B41BD
:103DB000FC011082118212821382148215821682F3
:103DC0001782138612861586148617861686118A20
:103DD000108A998B888B8885998501969187808731
:103DE000F093850BE093840BC2CFEF92FF920F9379
:103DF0001F93CF93DF930097A1F1EC01E090880B24
:103E0000F090890B0885198584E090E0E114F104B5
:103E1000D1F40E949B41FC01138212829093890B82
:103E20008093880B9093870B8093860B118300837C
:103E3000EE85FF853097A9F0DF91CF911F910F910B
:103E4000FF90EF9019940E949B41FC011382128213
:103E5000F701938382839093890B8093880BFC01F5
:103E6000E5CFDF91CF911F910F91FF90EF900895D3
:103E70008091820B9091830B009751F0FC01208977
:103E800031893093830B2093820B0E943742F0CF0D
:103E90008091860B9091870B009751F0FC01228155
:103EA00033813093870B2093860B0E943742F0CFEB
:103EB0001092830B1092820B1092850B1092840B40
:103EC0001092890B1092880B0895CF92DF92EF9297
:103ED000FF920F931F93CF93DF93C091860BD091E6
:103EE000870B209709F445C0E091820BF091830B7A
:103EF00028813981808591852817390759F480896F
:103F000091899093830B8093820B0E9437420A80A1
:103F1000DB81C02D0091820B1091830BD80150964C
:103F2000ED91FC912097E9F03097D9F0E088F18885
:103F300028813981808591852817390779F4D8013E
:103F40005096EC9250975196FC92E088F188C70108
:103F50000E9437420A80DB81C02DF8018F01F701F2
:103F6000E1CF1092870B1092860B1092890B109262
:103F7000880BC091820BD091830B209751F1CC809C
:103F8000DD80EE80FF800E94D517088119812A818B
:103F90003B81601B710B820B930B6C157D058E05AD
:103FA0009F0598F00E94D517688379838A839B8345
:103FB000EA85FB85309731F01995882319F0CE01F9
:103FC0000E94F51EEC85FD8519950888D989C02DBC
:103FD000D4CFDF91CF911F910F91FF90EF90DF90A1
:103FE000CF900895CF93DF93EC018881998100975A
:103FF00011F00E943742198218821D821C821B8296
:104000001A82DF91CF910895FC0180819181009700
:1040100011F00C9437420895CF92DF92EF92FF9205
:104020000F931F93CF93DF93EC018B01FC01E05AB8
:10403000FF4FC080D180E280F38096012F73332739
:1040400083E0CC0CDD1CEE1CFF1C8A95D1F7C90166
:1040500001962C0F3D1F40E8F901408389339105FB
:1040600078F040E450E0481B590B70E060E08C0FA2
:104070009D1F0E94B743CE010E94C81990E080E0C6
:104080004CE350E0481B590B70E060E08C0F9D1F23
:104090000E94B743FCAEEDAEDEAECFAECE010E94C5
:1040A000C819FE01E05CFF4F2081318142815381BC
:1040B000CC5BDF4F8A819B81F8015083418332833F
:1040C000238394838583DF91CF911F910F91FF907C
:1040D000EF90DF90CF9008954F925F926F927F9212
:1040E0008F929F92AF92BF92CF92DF92EF92FF9208
:1040F0000F931F93CF93DF938C01EB0149015A017A
:10410000FC01E05AFF4F80819181A281B3816C0153
:104110007D012FE3C222DD24EE24FF24880D991DAA
:10412000AA1DBB1D80839183A283B3838114910454
:10413000A104B10479F180E490E0A0E0B0E08C1932
:104140009D09AE09BF092401350188159905AA0505
:10415000BB0510F42C013D01C8018C0D9D1DA20171
:10416000BE010E94AE43C40CD51CE61CF71CC40D56
:10417000D51D84189508A608B70880E4C816D10490
:10418000E104F10499F6C8010E94C819C12CD12C90
:104190007601CCCFDF91CF911F910F91FF90EF90DF
:1041A000DF90CF90BF90AF909F908F907F906F9057
:1041B0005F904F900895AF92BF92DF92EF92FF927F
:1041C0000F931F93CF93DF93EC018B01FB01D380FF
:1041D0008281645F7F4F8E3F09F459C0ED2CF12C32
:1041E000FB01EE0DFF1DDE2C91E09E1538F49701CA
:1041F000215031099291992309F463C08883D982AF
:10420000F80184818A8385818B8386818C83878171
:104210008D8380858E8381858F8381859285A3851B
:10422000988781859285A385A987A701CE010A96E3
:104230000E94AE43FAE0EF0EF11CCE0DDF1DF80137
:10424000848199E0F92E80FF3AC08DE0F8019081D9
:10425000988391819983A82EB12C882341F0B801CD
:104260006A5E7E4FA501CE0102960E94AE43C50153
:104270008F0D911D03968D0D911DDF91CF911F9193
:104280000F91FF90EF90DF90BF90AF9008958883DB
:10429000D98286818A8387818B8380858C8381857F
:1042A0008D83438150E0CE0106960E94AE43F80113
:1042B000838190E00696C80FD91F25E0F22E80E09A
:1042C000C5CF790190CF3F924F925F926F927F92CC
:1042D0008F929F92AF92BF92CF92DF92EF92FF9216
:1042E0000F931F93CF93DF93CDB7DEB7C857D10994
:1042F0000FB6F894DEBF0FBECDBF6C013E2C80918F
:10430000EA05582F527081FD1DC0E091EC05F09137
:10431000ED05309731F080812DE0522E11E080FDC7
:1043200002C0512C10E08DEFF60182833C96E00F25
:10433000F11D8291811103C001500130D1F78AE053
:10434000482E09C08EEFD60112968C93022F512C65
:1043500096E0492E10E0D60113960C93139717960A
:104360006C93179718964C93189711114CC014968C
:104370001C92D60115961C9215978091E50516960C
:104380008C9316978091E5058F5F8093E5051296D3
:104390008C911297A6968FAFA69713968C91139730
:1043A000A7968FAFA79719968D919D91AC91F60125
:1043B00036812781552359F1A8963FAFA897A99632
:1043C0002FAFA997AA964FAFAA97AB968FAFAB978F
:1043D000A42CB12C8FEF9FEF9A838983CE018B5948
:1043E0009F4F7C014C018A0C9B1C9FEFE91AF90A34
:1043F0008E149F0439F1BE016F5F7F4FD7018C91FE
:104400000E948719F2CF81E0F6018483B2CF5481F4
:10441000A8965FAFA8975581A9965FAFA997AA966E
:104420003FAFAA97AB962FAFAB97AC964FAFAC9779
:10443000AD968FAFAD97AE969FAFAE97AF96AFAF3D
:10444000AF97C6CF89819A81E9969FAF8EAFE997E2
:10445000F6016380712C7601FCE0EF0EF11C470140
:1044600081E0681A7108BE0169587F4F9FEF691695
:10447000790631F0D4018D914D010E948719F0CF5A
:10448000832D0E948719E8969FADE897E9968FAD36
:10449000E997D6011396EC911397EE0DFF2DF11DC0
:1044A00090831396EC911397EE0DFF2DF11D8183F0
:1044B0009C9311968C931197112309F4F4C00091E9
:1044C000EC051091ED050115110509F4ECC0F8019A
:1044D000808180FFE8C013967C9081814601FAEECE
:1044E0008F1AFEEF9F0AD4018C93F8018281E09627
:1044F0008FAFE0978381E1968FAFE1978481E29659
:104500008FAFE2978581E3968FAFE3978681E4963C
:104510008FAFE4978781E5968FAFE5978085E69624
:104520008FAFE6978185E7968FAFE79786E0FE012C
:10453000E159FF4F119601900D928A95E1F7D8014C
:1045400012962C91129713963C91139714964C91B6
:10455000149715965C91159716966C911697179669
:104560007C91179718968C91189719969C91A1E0B9
:104570000E945D41F801228333834483558366831F
:1045800077838087918787E696EEA9E0BAE625963D
:104590008CAF9DAFAEAFBFAF259785E89EEAA7E68B
:1045A000BBEB29968CAF9DAFAEAFBFAF299782E72B
:1045B00093EFAEE6BCE32D968CAF9DAFAEAFBFAF31
:1045C0002D978AE395EFAFE4B5EA61968CAF9DAF86
:1045D000AEAFBFAF61978FE792E5AEE0B1E565960C
:1045E0008CAF9DAFAEAFBFAF65978CE898E6A5E006
:1045F000BBE969968CAF9DAFAEAFBFAF69978BEA51
:1046000099EDA3E8BFE16D968CAF9DAFAEAFBFAFA4
:104610006D9789E19DECA0EEBBE5A1968CAF9DAFB7
:10462000AEAFBFAFA197A5961CAE1DAE1EAE1FAE1E
:10463000A597B801665F7F4F20E230E040E050E090
:10464000CE0101960E946C20242D30E050E040E025
:10465000BE016B597F4FCE0101960E946C20272D21
:1046600030E050E040E0B701CE0101960E946C209E
:10467000B701670D711D22E030E040E050E0CE014F
:1046800001960E946C2027E030E040E050E0B40149
:10469000CE0101960E946C20B601635E7E4FCE0172
:1046A00001960E940C20D60113968C918A0D9B2DA9
:1046B000911D0296850D911DC858DF4F0FB6F894D5
:1046C000DEBF0FBECDBFDF91CF911F910F91FF9045
:1046D000EF90DF90CF90BF90AF909F908F907F90A2
:1046E0006F905F904F903F900895EF920F93CF930C
:1046F000DF93682F70E090E080E00E947C3EEEE265
:10470000FFE065837683878390872481A281B381CC
:1047100031814081C9EADFE0E881F98164877587EA
:1047200086879787108A118A128A138A148A158AB3
:10473000168A178A108E118E128E138E148E158E75
:10474000168E178E10A211A212A213A214A215A2E5
:1047500016A217A2B1A7A0A742A733A724A78CE44B
:1047600090E0A0E081879287A38788E9E82E01E2A4
:1047700021E241E062E0CF010E94632168817981FA
:104780008091A70F9091A80FDF91CF910F91EF909B
:104790000C94DB2080E00E9475230E943F198091D9
:1047A000720B9091730B01979093730B8093720B24
:1047B000089581E00E9475230E943F198091720B39
:1047C0009091730B01979093730B8093720B0895E4
:1047D0008F929F92AF92BF92CF92DF92EF92FF9211
:1047E0000F931F93CF93DF93F62E142F682F70E053
:1047F00090E080E00E947C3E4B015C01CEE2DFE075
:104800008CA69DA6AEA6BFA66F2D70E090E080E0BE
:104810000E947C3E6B017C01C8AAD9AAEAAAFBAA25
:10482000612F70E090E080E00E947C3E6CAB7DAB3D
:104830008EAB9FAB2BA549A55AA538A5AFA1C9EA58
:10484000DFE0E881F98184869586A686B786C08AEE
:10485000D18AE28AF38A648B758B868B978B108E54
:10486000118E128E138E148E158E168E178E10A228
:1048700011A212A213A214A215A216A217A251A746
:1048800040A7A2A733A724A78CE490E0A0E08187EB
:104890009287A38788E9E82E01E221E241E062E005
:1048A000CF010E946321688179818091A70F909147
:1048B000A80FDF91CF911F910F91FF90EF90DF90A4
:1048C000CF90BF90AF909F908F900C94DB204F9231
:1048D0005F926F927F928F929F92AF92BF92CF9290
:1048E000DF92EF92FF920F93CF93DF9380915A0B59
:1048F00090915B0B019663E070E00E94B540BC01B3
:104900006F5F7F4F072E000C880B990B0E947E3E35
:10491000EEE2FFE0628F738F848F958FC688D78811
:10492000E08CF18C82889388A488B588468457846B
:10493000608871882585438554853285A185C9EABB
:10494000DFE0E881F9814486558666867786808A2D
:10495000918AA28AB38AC48AD58AE68AF78A608F46
:10496000718F828F938F148E158E168E178E10A2D4
:1049700011A212A213A214A215A216A217A251A745
:1049800040A7A2A733A724A78CE490E0A0E08187EA
:104990009287A38788E9E82E01E221E241E062E004
:1049A000CF010E946321688179818091A70F909146
:1049B000A80F0E94DB20DF91CF910F91FF90EF9025
:1049C000DF90CF90BF90AF909F908F907F906F902F
:1049D0005F904F900C943F192F923F924F925F92AD
:1049E0006F927F928F929F92AF92BF92CF92DF92FF
:1049F000EF92FF920F931F93CF93DF932091B20A10
:104A00003091B30A4091B40A5091B50A6091B60A48
:104A10007091B70A8091B80A9091B90AA0E00E94FB
:104A20007B41A1F40E943017DC01CB016093B20AF4
:104A30009093B30AA093B40AB093B50A1092B60A41
:104A40001092B70A1092B80A1092B90A0E94301751
:104A50002B013C012091D80A3091D90A4091DA0A01
:104A60005091DB0A6091DC0A7091DD0A8091DE0AC8
:104A70009091DF0AA090B20AB090B30AC090B40A35
:104A8000D090B50AE090B60AF090B70A0091B80A43
:104A90001091B90A0E946941120151016301E12C90
:104AA000F12C00E010E00E9454412093770F3093E6
:104AB000780F4093790F50937A0F60937B0F709328
:104AC0007C0F80937D0F90937E0FA091800FB0910B
:104AD0007F0F40906F0F5090700F6090710F70902B
:104AE000720F8090730F9090740FD091750FC091DA
:104AF000760FE091A90FF091AA0F4486558666863D
:104B00007786808A918AD28BC38B248B358B468B98
:104B1000578B608F718F828F938FB48FA58F8FE6A5
:104B200090E0A0E081879287A38782E2E82E02E1ED
:104B300020E141E062E0CF010E9463216091A90F72
:104B40007091AA0F8091A70F9091A80F0E94DB206F
:104B5000DF91CF911F910F91FF90EF90DF90CF9059
:104B6000BF90AF909F908F907F906F905F904F908D
:104B70003F902F900C943F19CF92DF92EF920F93BA
:104B80001F93CF93DF93CEEDD5E01C8582E08C8719
:104B90002EE23FE099EAC92E9FE0D92ED601ED9191
:104BA000FC91D901D9964C91D997D8966C911486DD
:104BB000158616861786108A118A128A138A848BA4
:104BC00011861286138622E3E22E09E029E0CF0146
:104BD0000E9463211C87F601608171818091A70F7B
:104BE0009091A80F0E94DB20DF91CF911F910F9130
:104BF000EF90DF90CF900C943F19CF93DF93EC01AF
:104C0000A881B981EB01E881F9811097F1F0309723
:104C1000B1F4EC018C819D81892BC9F08C9190E0DD
:104C20000BC0DB0114968D919C91892B81F08081C2
:104C300090E0919581959109DF91CF910895BF0101
:104C4000CD01DF91CF910C94BE43309751F790E0A6
:104C500080E0F2CF0F931F93CF93DF93EC01888115
:104C60009981009759F02A813B812617370730F048
:104C700081E0DF91CF911F910F9108958B016F5FBC
:104C80007F4F0E94C042009759F0998388831B830D
:104C90000A832C813D81232B59F7FC011082E8CF38
:104CA00080E0E7CFEF92FF920F931F93CF93DF93B4
:104CB000EC01FB01E080F180E114F10411F10481C9
:104CC000158101151105A9F08C819D81080F191F0F
:104CD000B801CE010E942A26882399F028813981C3
:104CE0008C819D81B701820F931F0E94C7431D8352
:104CF0000C83CE01DF91CF911F910F91FF90EF9028
:104D00000895CE010E94F21FF4CFEF92FF920F930D
:104D10001F93CF93DF93EC017B018A01BA010E94BC
:104D20002A2681110BC0CE010E94F21FCE01DF9115
:104D3000CF911F910F91FF90EF9008951D830C83E9
:104D4000B701888199810E94C743F0CFFB01019090
:104D50000020E9F73197AF01461B570B0C948526CD
:104D60000F931F93CF93DF9300D000D000D0CDB727
:104D7000DEB78C01862FF801118210821382128215
:104D8000158214824AE0BE016F5F7F4F90E00E945F
:104D90004D3EBE016F5F7F4FC8010E94A626299637
:104DA0000FB6F894DEBF0FBECDBFDF91CF911F913C
:104DB0000F910895CF93DF93EC01FB0186179707BE
:104DC00049F0608171816115710541F0448155811F
:104DD0000E948526CE01DF91CF9108950E94F21F97
:104DE000F9CFFC0111821082138212821582148283
:104DF0000C94DA26FC011182108213821282158231
:104E00001482FB0101900020E9F73197AF01461BA6
:104E1000570B0C948526AF92BF92CF92DF92EF9200
:104E2000FF920F931F93CF93DF936C015B017A0185
:104E300089012417350720F48F2D7901042F182FAD
:104E400066EF74E0C6010E94FA26D5011496CD9152
:104E5000DC91EC16FD06E0F40C171D0708F4E801E0
:104E6000D501ED91FC911197EC0FFD1F108110827F
:104E70006D917C916E0D7F1DC60161157105A1F0CC
:104E80000E94A626F50180819181C80FD91F188341
:104E9000C601DF91CF911F910F91FF90EF90DF90AE
:104EA000CF90BF90AF9008950E94F21FEBCF0F9369
:104EB0001F93CF93DF9300D000D0CDB7DEB78C0126
:104EC0000E94801D68E374E0012B11F063E474E03C
:104ED000CE0101960E94FA2625EE3FEAAE014F5F11
:104EE0005F4F65E070E085E090E00E94A513CE0181
:104EF00001960E9404200E945A1D26960FB6F8942F
:104F0000DEBF0FBECDBFDF91CF911F910F910895EE
:104F1000EF92FF920F931F93CF93DF93CDB7DEB73E
:104F20002C970FB6F894DEBF0FBECDBF8C0166EF95
:104F300074E0CE0107960E94FA260F5F1F4F0130E2
:104F4000110509F443C044F5012BB1F1BE01695FBD
:104F50007F4FCE0101960E94F1269701AE014F5F6F
:104F60005F4F61E470E086E490E00E94A513CE01FB
:104F700001960E940420CE0107960E9404202C96E0
:104F80000FB6F894DEBF0FBECDBFDF91CF911F915A
:104F90000F91FF90EF9008950230110511F1033049
:104FA0001105A1F660E774E0CE0107960E94A626DF
:104FB000E12C88EFF82ECACF6FE474E0CE0107969B
:104FC0000E94A626EE24EA94FE2CC0CF6AE574E087
:104FD000CE0107960E94A62620EEE22E27E0F22EB2
:104FE000B5CF65E674E0CE0107960E94A62690EE46
:104FF000E92EFF24FA94AACF0F931F93CF93DF9348
:10500000CDB7DEB72C970FB6F894DEBF0FBECDBF7D
:105010008C0166EF74E0CE0107960E94FA260130FB
:105020001105E1F168F00230110509F440C06DE9A5
:1050300074E0CE0107960E94A62600E21DEF0AC08A
:105040006BEF74E0CE0107960E94A6261092C50A67
:1050500000E018EFBE01695F7F4FCE0101960E940C
:10506000F1269801AE014F5F5F4F6CE270E085E082
:1050700090E00E94A513CE0101960E940420CE016B
:1050800007960E9404202C960FB6F894DEBF0FBE40
:10509000CDBFDF91CF911F910F9108956BE774E021
:1050A000CE0107960E94A62600EE17E0D3CF6CE84B
:1050B00074E0CE0107960E94A6260FE110E0CACF49
:1050C00020914002309141022817390741F0909316
:1050D0004102809340020E94FC2781E0089580E015
:1050E00008950F931F93CF93DF93CDB7DEB76297E9
:1050F0000FB6F894DEBF0FBECDBF8C01209111100A
:1051000030911210FC01848195812817390741F4F0
:10511000B8018DE090E10E94FD25892B09F45CC067
:10512000B8018DE090E10E94DA260E94491D0E949C
:10513000801DF80184819581489708F458C026E1C4
:1051400030E050E040E0B801CE0107960E940B2706
:105150006EEA74E0CE0101960E94FA26BE01695FF4
:105160007F4FCE0101960E945226BC01CE010D96C2
:105170000E94F12620EE3FEFAE01435F5F4F68ECE7
:1051800070E090E080E00E94A513CE010D960E9491
:105190000420CE0101960E940420CE0107960E94B1
:1051A0000420F8012481358146E150E0B801CE01A8
:1051B00001960E940B2720EE3FEFAE014F5F5F4F3D
:1051C00060ED70E090E080E00E94A513CE010196B2
:1051D0000E9404200E945A1D62960FB6F894DEBF0A
:1051E0000FBECDBFDF91CF911F910F9108956EEA51
:1051F00074E0CE0101960E94FA26B801CE01019614
:105200000E945226BC01CE0107960E94F12620EE94
:105210003FEFAE01495F5F4F68EC70E090E080E0E7
:105220000E94A513CE0107960E940420CE0101968C
:105230000E940420CFCF2F923F924F925F926F92A5
:105240007F928F929F92AF92BF92DF92EF92FF92E6
:105250000F931F93CF93DF93CDB7DEB768970FB649
:10526000F894DEBF0FBECDBF0E94801D809100026A
:10527000909101022091BB0A222309F4C9C1209117
:10528000400230914102232B09F493C1029751F15E
:1052900064EB74E0CE0101960E94FA2620EE37E01E
:1052A000AE014F5F5F4F63E770E085E090E00E94E2
:1052B000A513CE0101960E94042066EC74E0CE0195
:1052C00001960E94FA2620EE37E0AE014F5F5F4F55
:1052D0006BE770E085E090E00E94A513CE01019697
:1052E0000E94042082E090E09093010280930002EB
:1052F0000E945A1D6091BA0A8091DC059091DD05EB
:105300006817190609F453C0CE0143960E94B026CF
:105310006091BA0A85EF860F893508F0ABC1CE01DE
:1053200001960E94B02669E075E0CE010D960E94BC
:10533000FA26BE01635F7F4FCE0107960E94F126D9
:10534000BE016F5F7F4FCE0107960E945226BC01BF
:10535000CE0143960E94DA26CE0107960E940420D1
:10536000CE010D960E940420CE0101960E940420D9
:105370008091BB0A882309F487C1BE016D5E7F4F0F
:10538000CE0101960E94F1262FEF3FEFAE014F5F55
:105390005F4F6AE570E087E390E00E94A513CE01BD
:1053A00001960E940420CE0143960E940420D090D2
:1053B000C50A6D2D70E08091DA059091DB056817C4
:1053C000790709F4D0C08CE390EE892E97E0992EEE
:1053D0008D1550F08EE120EE822E99249A948D1531
:1053E00018F0812C88EF982EA090E20AB12C35019C
:1053F0008AE0680E711CE090E30AF12C072E000C85
:10540000880B990B0E947E3E20E030E048EC52E48D
:105410000E9408409B01AC0160E070E080E89FE3DF
:105420000E949B3F20E030E040E252E40E94DD3EDB
:105430001B012C01B7010F2C000C880B990B0E944B
:105440007E3E9B01AC01C201B1010E949C3F0E94C3
:1054500081401B0110E000E09301AB01B501C701E1
:105460000E946513A701485D5F4F84019301B50158
:10547000C1010E9465138FEF8D0D893070F46BE0D0
:1054800075E0CE0101960E94FA26CE0101960E9497
:105490007128CE0101960E9404200E94801D6D2D6E
:1054A000CE0143960E94B0268091C50A9FEF980FC7
:1054B000993008F0F0C069E075E0CE0107960E94CF
:1054C000FA26BE01695F7F4FCE0101960E94F12648
:1054D000BE016D5E7F4FCE0101960E945226BC0137
:1054E000CE0143960E94DA26CE0101960E94042046
:1054F000CE0107960E9404206CE375E0CE0107966A
:105500000E94FA26BE016D5E7F4FCE010D960E946D
:10551000F126BE01695F7F4FCE010D960E94522693
:10552000BC01CE0101960E94F1266091E20A70E072
:105530008091E30A90E02FEF3FEFAE014F5F5F4FA6
:10554000C2960E94A513CE0101960E940420CE01AE
:105550000D960E940420CE0107960E940420CE01E1
:1055600043960E9404208091BA0A90E09093DD0552
:105570008093DC058091C50A90E09093DB058093D1
:10558000DA0568960FB6F894DEBF0FBECDBFDF9187
:10559000CF911F910F91FF90EF90DF90BF90AF9050
:1055A0009F908F907F906F905F904F903F902F9043
:1055B0000895019751F162ED74E0CE0101960E94C9
:1055C000FA262FEF37E0AE014F5F5F4F63E770E0E1
:1055D00085E090E00E94A513CE0101960E94042070
:1055E00065EE74E0CE0101960E94FA2620EE37E0C7
:1055F000AE014F5F5F4F6BE770E085E090E00E9487
:10560000A513CE0101960E94042081E090E06CCEAB
:10561000892B09F46DCE67EF74E0CE0101960E94EC
:10562000FA2620E23DEFAE014F5F5F4F63E770E087
:1056300085E090E00E94A513CE0101960E9404200F
:1056400065EE74E0CE0101960E94FA2620EE37E066
:10565000AE014F5F5F4F6BE770E085E090E00E9426
:10566000A513CE0101960E9404201092010210920F
:1056700000023ECE6A3008F07BCECE0101960E9439
:10568000B02668E075E051CE60EF74E0CE0101967F
:105690000E94FA2679CE81112FCF69E375E0CE0101
:1056A00043960E94A62628CFEF92FF920F931F9356
:1056B000CF93DF93CDB7DEB76E970FB6F894DEBF0A
:1056C0000FBECDBF8C017B01FC012481358180910F
:1056D0000B1090910C102817390741F467E070E126
:1056E000C8010E94FD25892B09F47DC0B80187E01F
:1056F00090E10E94DA261C8A1B8A1E8A1D8A188E57
:105700001F8A4AE0BE016F5F7F4FC7010E94423E81
:10571000BE016F5F7F4FCE0143960E94A6266EE3C7
:1057200075E0CE0101960E94FA26BE016D5E7F4FA4
:10573000CE0101960E945226BC01CE0149960E94DC
:10574000F12620E038EFAE01475E5F4F66E970E07A
:1057500090E080E00E94A513CE0149960E940420AB
:10576000CE0101960E940420CE0143960E9404209F
:105770000E94801DF801848195814C9708F440C0F7
:105780002BE130E050E040E0B801CE0101960E94EC
:105790000B2720E038EFAE014F5F5F4F6AEA70E001
:1057A00090E080E00E94A513CE0101960E940420A3
:1057B000F801248135814BE150E0B801CE0101961A
:1057C0000E940B2720E038EFAE014F5F5F4F62EB86
:1057D00070E090E080E00E94A513CE0101960E9447
:1057E00004200E945A1D6E960FB6F894DEBF0FBEBD
:1057F000CDBFDF91CF911F910F91FF90EF90089552
:10580000B801CE0101960E94F12620E038EFAE01EA
:105810004F5F5F4F6AEA70E0DCCF1F93CF93DF9357
:10582000CDB7DEB768970FB6F894DEBF0FBECDBF19
:105830000E94491D1091E00A112329F18091780BF3
:10584000882389F16AE575E0CE0143960E94FA2625
:1058500010E063E070E0CE0143960E94542BCE012D
:1058600043960E940420112361F0CE0107960E9406
:105870000420CE0101960E940420CE010D960E94C4
:1058800004201092780B1092730B1092720B1092EE
:10589000E00A68960FB6F894DEBF0FBECDBFDF9169
:1058A000CF911F91089567E475E0CE010D960E9497
:1058B000FA2667E575E0CE0101960E94FA26BE0140
:1058C0006F5F7F4FCE0107960E94F126BE01635F96
:1058D0007F4FCE0107960E945226BC01CE0143960F
:1058E0000E94F126B6CF2F923F924F925F926F9215
:1058F0007F928F929F92AF92BF92CF92DF92EF9260
:10590000FF920F931F93CF93DF93CDB7DEB7C858A5
:10591000D1090FB6F894DEBF0FBECDBF8AE89BE079
:105920000E946118892B09F4CCC68AE89BE00E948A
:105930003F188C01EC968FAFEC971092E40A2091FF
:10594000E70A3091E80A2131310508F03AC0F9013F
:105950008827E255F34D8F4F0C94C940C62CC62CB6
:105960005F2D7A2D912D992DA32DAD2DB72DD72DEE
:10597000EF2D052E1D2EAB2EAB2E112F112F81E0FA
:1059800090E09093E80A8093E70AC8CF8091F00AEC
:10599000EC962FADEC972D3F09F07FC022E030E070
:1059A0003093E80A2093E70A10922906009328060C
:1059B0008E7F8093F00A8FEF9FEF9093270680935E
:1059C00026068091E40A8130A9F42091EC0A3091F6
:1059D000ED0A90912C069093EA0A2115310521F4E5
:1059E0001092EF0A1092EE0A2F5F3F4F3093ED0AAC
:1059F0002093EC0A909129069093E20C2091E70AFB
:105A00003091E80A3093CA0A2093C90A9091E90AB2
:105A10009093CB0A9091EA0A9F5F9093CC0A2091D1
:105A2000EC0A3091ED0A3093CF0A2093CE0A2091F0
:105A3000E60A30E03093D10A2093D00A9091F00A20
:105A40009093D20A1092E60A823041F420913A07EC
:105A500030913B073093E00C2093DF0C9EEF980FC2
:105A6000923008F037C481E08093E60A1092E40A8D
:105A7000EC96FFADEC97FD3F09F081CF82E090E01E
:105A80009093E80A8093E70A109229068FEF9FEF20
:105A9000909327068093260641CFEC963FADEC9776
:105AA0003E3F09F00BC622E030E03093E80A209335
:105AB000E70A109229060093280681607ACF0093A6
:105AC00029061092E90A602F86E296E00E94A81942
:105AD0008091F00A80FF07C010922A0610922B06D0
:105AE00085E090E002C083E090E09093E80A809324
:105AF000E70A67CF00932A06C8018E7F9927892B72
:105B000041F08091E60A8F5F8093E60A81E090E0A1
:105B1000ECCF602F86E296E00E94A81984E090E026
:105B2000E4CF00932B06602F86E296E00E94A8192E
:105B3000D7CF00932C06602F86E296E00E94A8192A
:105B400086E090E0D2CF00932D06602F86E296E0AB
:105B50000E94A81987E090E0C8CF00932E06602F1E
:105B600086E296E00E94A81988E090E0BECFEC960D
:105B7000BFADEC978B2F90E0A0E080932F06909321
:105B80003006A0933106602F86E296E00E94A819A5
:105B90008091F00A80FF08C080912906882309F4CB
:105BA00049C08BE090E0A1CF89E090E09ECF80914A
:105BB0002F0690913006A0913106EC96EFADEC9750
:105BC0009E2B80932F0690933006A0933106602F72
:105BD00086E296E00E94A8198AE090E086CF809144
:105BE0002F0690913006A0913106EC96FFADEC9710
:105BF000AF2B80932F0690933006A0933106602F31
:105C000086E296E00E94A819C7CFE091E90A81E0F8
:105C10008E0F8093E90AF0E0EE5CF94F0083602F6D
:105C200086E296E00E94A8199091E90A80912906DF
:105C30009813C7CE8CE090E058CF80912F069091BA
:105C40003006A0913106AC016A2F70E0EAE08E2E9A
:105C5000912CA12CB12CC12CD12C76012AE0D7019A
:105C6000C601880D991DAA1DBB1D0196A11DB11D60
:105C7000B695A79597958795289FF001299FF00DD8
:105C80001124E856FC4F4080518062807380441597
:105C900055056605770568F54C015D0131E0831A0D
:105CA0009108A108B108C814D904EA04FB04B8F2A9
:105CB0008AE08C9DF0018D9DF00D1124E856FC4F7B
:105CC00080819181A281B381481759076A077B07B8
:105CD000C1F4648186E296E00E94A81980912606AC
:105CE00090912706992708171906A1F48DE090E0F6
:105CF00013C06C017D014416550666067706C0F692
:105D0000D2CF8EE090E09093E80A8093E70A009368
:105D10003A0757CE8EE090E09093E80A8093E70A26
:105D200000933A078091E90A9AE09C9DF0019D9DBD
:105D3000F00D1124E856FC4F4681841708F041CE3F
:105D400050E090E0481B590B70E060E08E5C994F8A
:105D50000E94B74336CE2E30310581F08091270660
:105D6000EE968FAFEE97EF961FAEEF97EF96AEAD34
:105D7000BFADEF9781E00A171B0609F082E0809320
:105D8000E40A00933B0780912A0680FF17C08091A8
:105D9000E40A823051F480E190E09093E80A809325
:105DA000E70A8DE08093F10A0CCE8FE090E09093AB
:105DB000E80A8093E70A1092E40AF3CFE091F20A2E
:105DC000F091F30A309749F002A4F3A5E02D309743
:105DD000A9F48091E40A823001F581E090E090938B
:105DE000E80A8093E70A83E291E0E6E2F6E0AFEDAD
:105DF000BCE001900D920197E1F7E3CD80912F0671
:105E000090913006A0913106AC016A2F70E084EECB
:105E10009AE019958111E1CFDCCF83E08093E40A09
:105E2000DCCF8091F10AEDE0F0E0E81BF109E45CE1
:105E3000F84F008381508093F10A81113FC4809014
:105E4000F20A9090F30A81E08114910409F4D2C11E
:105E50002090F40A3090F50A17E6E12E16EEF12EA6
:105E600009E01AE62596ECAEFDAE0EAF1FAF259702
:105E700005E81EEA27E63BEB29960CAF1DAF2EAFD7
:105E80003FAF299782E793EFAEE6BCE32D968CAF48
:105E90009DAFAEAFBFAF2D971AE3E12E15EFF12EF8
:105EA0000FE415EA6196ECAEFDAE0EAF1FAF619741
:105EB0000FE712E52EE031E565960CAF1DAF2EAF72
:105EC0003FAF65978CE898E6A5E0BBE969968CAF93
:105ED0009DAFAEAFBFAF69978BEA99EDA3E8BFE185
:105EE0006D968CAF9DAFAEAFBFAF6D9789E19DEC66
:105EF000A0EEBBE5A1968CAF9DAFAEAFBFAFA197B3
:105F0000A5961CAE1DAE1EAE1FAEA59720E230E0DA
:105F100040E050E0B401665F7F4FCE0101960E94E1
:105F20006C202AE030E040E050E068E276E0CE010C
:105F300001960E946C202091290630E050E040E05C
:105F400062E376E0CE0101960E946C2022E030E010
:105F500040E050E06AE377E0CE0101960E946C20B9
:105F600027E030E040E050E06CE377E0CE010196BE
:105F70000E946C20BE016B587F4FCE0101960E949B
:105F80000C2046E050E063E477E0CE018B589F4F51
:105F90000E94A143892B21F082E090E0D4018FC0C0
:105FA00050903C07AE961FAEAE97AF961FAEAF9720
:105FB000E0961FAEE097E1961FAEE197E2961FAE26
:105FC000E297E3961FAEE397E4961FAEE497E5965B
:105FD0001FAEE59786E0EDE3F7E0DE01A359BF4F82
:105FE00001900D928A95E1F72114310411F1F1012C
:105FF00080819181E0912D0620912E06D101712C96
:10600000612C86159705C1F013963C911397E31305
:106010000BC014963C911497231306C012963C9122
:106020001297531609F4F0C0FFEF6F1A7F0A199602
:10603000E8CF83E090E0B2CF409718F084E090E0A2
:10604000ADCFAE962FADAE97AF963FADAF97E09682
:106050004FADE097E1965FADE197E2966FADE297C5
:10606000E3967FADE397E4968FADE497E5969FAD19
:10607000E59720583247444A5F4F6F4F7F4F8F4F0D
:106080009F4FD4011296AC9012971396BC90139721
:106090001496CC9014971596DC9015971696EC9064
:1060A00016971796FC90179718960C9118971996B3
:1060B0001C9119970E947241F0F485E090E09D9642
:1060C0009C938E939C97E091F20AF091F30A02A4BC
:1060D000F3A5E02D80E0309709F48CC080912F0665
:1060E00090913006A0913106AC016A2F70E084EEE9
:1060F0009AE019957FC089E0869DD001879DB00DFB
:106100001124A20DB31D1396EC93139780912E06C4
:1061100014968C93149712965C92C3010196F10128
:106120009183808389E0869DD001879DB00D1124E5
:106130001596A20DB31D86E0EDE3F7E001900D92F8
:106140008A95E1F7AE963FACAE97AF965FACAF974E
:10615000E0966FACE097E1967FACE197E2964FACAA
:10616000E297E3962FACE397E496FFADE497E596CC
:10617000EFADE597D4011296AC9012971396BC90B0
:1061800013971496CC9014971596DC901597169645
:10619000EC9016971796FC90179718960C911897F5
:1061A00019961C911997232D352DA301642D722D5D
:1061B0008F2F9E2F0E947241C1F0B8F012963C9230
:1061C000129713965C92139714966C9214971596E7
:1061D0007C92159716964C92169717962C921797B5
:1061E0001896FC9318971996EC9381E090E0F401CF
:1061F00095A784A72091E70A3091E80A203131055C
:1062000009F063C082E00ACEA6961FAEA697A796B5
:106210001FAEA797A8961FAEA897A9961FAEA997DD
:10622000AA961FAEAA97AB961FAEAB97AC961FAEC1
:10623000AC97AD961FAEAD9789E0869DF001879D26
:10624000F00D11243596E20DF31D86E0DE01AB5909
