:020000040000FA
:100000000C94B5100C94E6100C94E6100C94E610C9
:100010000C94E6100C94E6100C94E6100C94E61088
:100020000C94E6100C94E6100C94E6100C94E61078
:100030000C94E6100C94E6100C94E6100C94E61068
:100040000C94E6100C94E6100C94E6100C94E61058
:100050000C94E6100C94E6100C94E6100C941C34EE
:100060000C94E6100C94F0340C94C6340C94E61006
:100070000C94E6100C94E6100C94E6100C94E61028
:100080000C94E6100C94E6100C94E6100C94E61018
:100090000C94E6100C94E6100C94E6100C94E61008
:1000A0000C94E6100C94E6100C94E6100C94E610F8
:1000B0000C94E6100C94E6100C94E6100C94E610E8
:1000C0000C94E6100C94E6100C94E6100C94E610D8
:1000D0000C94E6100C94E6100C9490340C94663456
:1000E0000C94E6100C94802E0C943B1E0C949E15E0
:1000F0000C94BA240C94FE3E0C948B150C9464154D
:100100000C9421180C94DC160C948B160C94062D70
:100110000C94F0160C94AF160C947D150C94791574
:100120000C9499150C94CD240C94371E0C943F1EFE
:100130000C9470150C9483150C9485180C946C1504
:100140000C9468150C945E150C94B9160C94E0246C
:100150000C9474160C94A7160C94DB170C949F1631
:100160000C94C22C0C94A3150C949F150C94FC2C8D
:100170000C94E5170C94102D0C94FA160C94F42C96
:100180000C94BD1E0C9475280C94C3160C94232C4F
:100190000C94331E0C9426350C943C2D0C94CD16E7
:1001A0000C947C160C946E2D0C94142E0C949516B5
:1001B0000C94DD2C0C94862D0C94431E0C94D218B8
:1001C0000C941A2D0C94B91E0C9495150C94672B55
:1001D0000C940E170C9481160C9491150C94E61641
:1001E0000C94562D0C9487150C9443180C941218EB
:1001F0000C9473150C9404170C94471E0C9435182A
:100200000608206004000000000000050000065FF2
:100210000600060007030007030600247E247E2450
:100220000500242B6A1200060063130864630600AD
:100230003649562050040000070300000400003E29
:10024000410000040000413E00000600083E1C3E44
:1002500008060008083E0808040000E060000006E8
:10026000000808080808040000606000000600207C
:100270001008040206003E5149453E050000427F39
:100280004000060062514949460600224949493664
:1002900006001814127F1006002F49494931060044
:1002A0003C4A4949300600017109050306003649F8
:1002B0004949360600064949291E0400006C6C00B5
:1002C00000040000EC6C0000050008142241000648
:1002D00000242424242406000041221408060002DD
:1002E0000159090606003E415D551E06007E1111AA
:1002F000117E06007F4949493606003E41414122B0
:1003000006007F4141413E06007F494949410600C0
:100310007F0909090106003E4149497A06007F0824
:1003200008087F050000417F410006003040404042
:100330003F06007F0814224106007F4040404006EF
:10034000007F0204027F06007F0204087F06003E51
:100350004141413E06007F0909090606003E415120
:10036000215E06007F0909196606002649494932BF
:10037000060001017F010106003F4040403F0600AA
:100380001F2040201F06003F403C403F06006314F2
:100390000814630600070870080705007149454303
:1003A000000500007F4141000600020408102005FE
:1003B000000041417F000600040201020406808023
:1003C0008080808004000003070000060020545451
:1003D000547806007F444444380600384444442896
:1003E0000600384444447F0600385454540805003D
:1003F000087E090900060018A4A4A47C05007F0457
:10040000047800050000007D400005004080847DE8
:100410000005007F10284400050000007F40000612
:10042000007C0418047805007C0404780006003879
:10043000444444380600FC444444380600384444EC
:1004400044FC060044784404080600085454542030
:100450000500043E44240005003C40207C000600CA
:100460001C2040201C06003C6030603C05006C10E5
:10047000106C0005009CA0603C0005006454544CC6
:10048000000500083E41410004000000770000061E
:10049000000041413E080500020102010006003C47
:1004A0002623263C0B102060060000000000000000
:1004B0000000000000000000000000000000000735
:1004C0000000000000007C00FF33FF337C000000D0
:1004D00000000000000008000000003C003C00009C
:1004E0000000003C003C000000000000000B000287
:1004F000101E901FF0037E021E1E901FF0037E024E
:100500001E0010000900007804FC0CCC0CFF3FFF1B
:100510003FCC0CCC0F8807000000000B00303838AF
:10052000381C380E00078003C001E03870383838B6
:100530001C000A0000001FB83FFC31C621E2373E14
:100540001E1C1C00360022000006000000000000F7
:1005500027003F001F000000000000000000000016
:100560000800000000F003FC0FFE1F073801200107
:100570002000000000000008000000000120012011
:100580000738FE1FFC0FF003000000000000090008
:1005900000980CB80EE003F80FF80FE003B80E98BF
:1005A0000C00000000090000800180018001F00FB4
:1005B000F00F8001800180010000000006000000B3
:1005C00000000000B800F800780000000000000003
:1005D000000000090000800180018001800180018D
:1005E0008001800180010000000006000000000082
:1005F0000000380038003800000000000000000053
:10060000000B0018001C000E00078003C001E00072
:10061000700038001C000E000BF807FE1F061E03BA
:10062000338331C330633033301E18FE1FF8070A9E
:10063000000000000C300C300E30FF3FFF3F003058
:100640000030003000000B1C301E38073C033E0316
:10065000378333C331E33077303E301C300B0C0C22
:100660000E1C0738C330C330C330C330C330E73942
:100670007E1F3C0E0BC003E003700338031C030E07
:10068000030703FF3FFF3F000300030B3F0C7F1CEA
:10069000633863306330633063306330E338C31FE3
:1006A000830F0BC00FF01FF839DC30CE30C730C3DA
:1006B00030C330C339801F000F0B03000300030059
:1006C0000330033C030FC303F3003F000F0003009C
:1006D0000B000FBC1FFE39E730C330C330C330E717
:1006E00030FE39BC1F000F0B3C007E00E730C330EA
:1006F000C330C338C31CC30EE707FE03FC0006006B
:100700000000000000701C701C701C000000000045
:10071000000000000006000000000000709C70FC5B
:10072000707C00000000000000000000090000C014
:1007300000E001F00338071C0E0E1C0738033000E0
:100740000000000A000060066006600660066006A1
:1007500060066006600660060000090000033007BE
:10076000380E1C1C0E3807F003E001C0000000002A
:10077000000A1C001E00070003008337C337E30094
:1007800077003E001C0000000BF80FFE1F0718F357
:1007900033FB371B36FB37FB370736FE03F8010AFE
:1007A0000038003FE007FC061F061F06FC06E007B6
:1007B000003F003800000AFF3FFF3FC330C330C393
:1007C00030C330E730FE39BC1F000F00000AF003D1
:1007D000FC0F0E1C073803300330033007380E1CA3
:1007E0000C0C00000AFF3FFF3F03300330033003CF
:1007F0003007380E1CFC0FF00300000AFF3FFF3FDC
:10080000C330C330C330C330C330C33003300330D0
:1008100000000AFF3FFF3FC300C300C300C300C383
:1008200000C3000300030000000AF003FC0F0E1CCD
:1008300007380330C330C330C330C73FC63F000062
:100840000AFF3FFF3FC000C000C000C000C000C0A2
:1008500000FF3FFF3F0000080000000003300330AE
:10086000FF3FFF3F033003300000000000000A009C
:100870000E001E003800300030003000300038FF1D
:100880001FFF0700000AFF3FFF3FC000E001F00329
:1008900038071C0E0E1C0738033000000AFF3FFF0C
:1008A0003F003000300030003000300030003000B9
:1008B0003000000AFF3FFF3F1E007800E001E0012A
:1008C00078001E00FF3FFF3F00000AFF3FFF3F0E82
:1008D000003800F000C0030007001CFF3FFF3F008E
:1008E000000AF003FC0F0E1C0738033003300738F2
:1008F0000E1CFC0FF00300000AFF3FFF3F83018343
:1009000001830183018301C701FE007C0000000A0E
:10091000F003FC0F0E1C073803300336073E0E1C95
:10092000FC3FF03300000AFF3FFF3F830183018358
:10093000038307830FC71DFE387C3000000A3C0C80
:100940007E1CE738C330C330C330C330C7398E1F75
:100950000C0F0000090000030003000300FF3FFF2D
:100960003F030003000300000000000AFF07FF1F11
:10097000003800300030003000300038FF1FFF0723
:1009800000000A07003F00F801C00F003E003EC013
:100990000FF8013F00070000000AFF3FFF3F001C67
:1009A0000006800380030006001CFF3FFF3F00009D
:1009B0000A03300F3C1C0E3003E001E00130031C41
:1009C0000E0F3C033000000A03000F003C00F00053
:1009D000C03FC03FF0003C000F00030000000A03CE
:1009E00030033C033E0333C331E33033301F300F59
:1009F00030033000000800000000FF3FFF3F0330DD
:100A00000330033003300000000000000B0E001C18
:100A10000038007000E000C00180030007000E00F5
:100A20001C001808000000000330033003300330BE
:100A3000FF3FFF3F0000000000000B600070003827
:100A4000001C000E0007000E001C00380070006043
:100A5000000B00C000C000C000C000C000C000C04B
:100A600000C000C000C000C007000000000000007F
:100A7000003E007E004E0000000000000000000A62
:100A8000001C403E6033603360336033603360335A
:100A9000E03FC03F00000AFF3FFF3FC030603060D2
:100AA0003060306030E038C01F800F00000A800FD7
:100AB000C01FE03860306030603060306030C01897
:100AC000800800000A800FC01FE03860306030608E
:100AD00030E030C030FF3FFF3F00000A800FC01FF2
:100AE000E03B60336033603360336033C0138001B8
:100AF000000008C000C000FC3FFE3FC700C300C3A9
:100B00000003000000000000000A8003C0C7E0CE20
:100B100060CC60CC60CC60CC60E6E07FE03F000061
:100B200009FF3FFF3FC000600060006000E000C0C0
:100B30003F803F00000000080000000000306030EF
:100B4000EC3FEC3F003000300000000000000800E7
:100B5000000000006000E000C060C0ECFFEC7F001F
:100B60000000000000090000FF3FFF3F0003800776
:100B7000C00FE01C603800300000000008000000DA
:100B80000000300330FF3FFF3F0030003000000026
:100B90000000000AE03FC03FE000E000C03FC03F6F
:100BA000E000E000C03F803F00000A0000E03FE0BE
:100BB0003F6000600060006000E000C03F803F00D8
:100BC000000A800FC01FE038603060306030603055
:100BD000E038C01F800F00000AE0FFE0FF600C60FB
:100BE00018601860186018E01CC00F800700000A29
:100BF0008007C00FE01C6018601860186018600C57
:100C0000E0FFE0FF00000A0000E03FE03FC00060BE
:100C100000600060006000E000C000000008C0113B
:100C2000E0336033603360336033603F401E000068
:100C3000000000000860006000FE1FFE3F603060A2
:100C400030603000300000000000000AE00FE01FBC
:100C5000003800300030003000300018E03FE03F46
:100C600000000A6000E0018007001E003800380024
:100C70001E8007E001600000000AE007E01F003866
:100C8000001CE00FE00F001C0038E01FE007000030
:100C9000096030E038C01D800F0007800FC01DE0E4
:100CA000386030000000000900006000E08180E74B
:100CB000007E001E8007E001600000000000096067
:100CC000306038603C60366033E031E030603020C6
:100CD00030000000000900008000C001FC1F7E3FC2
:100CE000077003600360036000000000060000005E
:100CF0000000000000FF3FFF3F0000000000000078
:100D000000000009000003600360036007707E3F7D
:100D1000FC1FC0018000000000000A100018000C39
:100D20000004000C001800100018000C0004000063
:100D3000000A000F800FC00C600C300C300C600CEF
:100D4000C00C800F000F0000FFFFFFFFFFFFFFFF41
:100D5000FFFFFFFFFFFFFFFFFFFFFFFFFFFFFFFFA3
:100D6000FFFFFFFFFFFFFFFFFFFFFFFFFFFFFFFF93
:100D7000FFFFFFFFFFFFFFFFFFFFFFFFFFFFFFFF83
:100D8000FFFFFFFFFFFFFFFFFFFFFFFFFFFFFFFF73
:10111000FFFFFFFFFFFFFFFFFFFF00000FFFFFFFCD
:10112000FFFFFFFFFFFFFFFFFFFFFFFFFFFFFFE0EE
:101130000000007FFFFFFFFFFFFFFFFFFFFFFFFF3C
:10114000FFFFFFFFFE0000000007FFFFFFFFFFFFA4
:10115000FFFFFFFFFFFFFFFFFFFFF00000000000A9
:10116000FFFFFFFFFFFFFFFFFFFFFFFFFFFFFFFF8F
:10117000C000000000003FFFFFFFFFFFFFFFFFFF79
:10118000FFFFFFFFFFFE00000000000007FFFFFF62
:10119000FFFFFFFFFFFFFFFFFFFFFFF80000000062
:1011A000000001FFFFFFFFFFFFFFFFFFFFFFFFFF4B
:1011B000FFE0000000000000007FFFFFFFFFFFFFD7
:1011C000FFFFFFFFFFFFFFC0000000000000003F27
:1011D000FFFFFFFFFFFFFFFFFFFFFFFFFF0000001C
:1011E00000000000000FFFFFFFFFFFFFFFFFFFFFFA
:1011F000FFFFFE000000000000000007FFFFFFFFF0
:10120000FFFFFFFFFFFFFFFFF800000000000000EE
:101210000001FFFFFFFFFFFFFFFFFFFFFFFFF000E9
:101220000000000000000000FFFFFFFFFFFFFFFFC6
:10123000FFFFFFFFE00000000000000000007FFF54
:10124000FFFFFFFFFFFFFFFFFFFF80000000000028
:10125000000000001FFFFFFFFFFFFFFFFFFFFFFF7A
:10126000000000000000000000000FFFFFFFFFFF74
:10127000FFFFFFFFFFFE0000000000000000000075
:1012800007FFFFFFFFFFFFFFFFFFFFFC0000000065
:1012900000000000000003FFFFFFFFFFFFFFFFFF54
:1012A000FFF80000000000000000000001FFFFFF49
:1012B000FFFFFFFFFFFFFFF0000000000000000045
:1012C000000000FFFFFFFFFFFFFFFFFFFFE0000048
:1012D0000000000000000000007FFFFFFFFFFFFF95
:1012E000FFFFFFC000000000000000000000003F02
:1012F000FFFFFFFFFFFFFFFFFF8000000000000077
:1013000000000000001FFFFFFFFFFFFFFFFFFF00C7
:1013100000000000000000000000000FFFFFFFFFC2
:10132000FFFFFFFFFF0000000000000000000000C2
:10133000000FFFFFFFFFFFFFFFFFFE0000000000A8
:101340000000000000000007FFFFFFFFFFFFFFFF9E
:10135000FC00000000000000000000000003FFFF90
:10136000FFFFFFFFFFFFFC00000000000000000087
:1013700000000001FFFFFFFFFFFFFFFFF80000007C
:1013800000000000000000000001FFFFFFFFFFFF62
:10139000FFFFF0000000000000000000000000005F
:1013A000FFFFFFFFFFFFFFFFF00000000000000055
:1013B0000000000000007FFFFFFFFFFFFFFFE000D5
:1013C0000000000000000000000000007FFFFFFFA1
:1013D000FFFFFFFFC0000000000000000000000051
:1013E00000007FFFFFFFFFFFFFFFC0000FFFE000D7
:1013F00000000000000000007FFFFFFFFFFFFFFF75
:1014000080007FFFFC0000000007FFFFFFFFFFFFE1
:10141000FFFFFFFFFFFF8001FFFFFF000000003F15
:10142000FFFFFFFFFFFFFFFFFFFFFFFF0003FFFFC7
:10143000FFC0000000FFFFFFFFFFFFFFFFFFFFFFF8
:10144000FFFF000FFFFFFFE0000003FFFFFFFFFFB4
:10145000FFFFFFFFFFFFFFFE001FFFFFFFF8000081
:1014600007FFFFFFFFFFFFFFFFFFFFFFFFFE003F44
:10147000FFFFFFFC00000FFFFFFFFFFFFFFFFFFF6D
:10148000FFFFFFFE007FFFFFFFFE00001FFFFFFFCB
:10149000FFFFFFFFFFFFFFFFFFFC00FFFFFFFFFF5E
:1014A00000001FFFFFFFFFFFFFFFFFFFFFFFFFFC2D
:1014B00001FFFFFFFFFF00003FFFFFFFFFFFFFFFF8
:1014C000FFFFFFFFFFFC01FFFC007FFF80003FFFED
:1014D000F800000007FFFFFFFFFFFFF803FFF00029
:1014E0001FFFC0003FFE0000000001FFFFFFFFFFE5
:1014F000FFF807FFE00007FFC0007FF800000000D2
:1015000001FFFFFFFFFFFFF807FFC00003FFE00040
:101510007FF80000000001FFFFFFFFFFFFF00FFF5B
:10152000800001FFE0007FF00000000000FFFFFFEF
:10153000FFFFFFF00FFF000001FFF0007FF0000051
:10154000000000FFFFFFFFFFFFF00FFE000000FFA5
:10155000F0007FF00000000000FFFFFFFFFFFFF042
:101560001FFE0000007FF0007FF00000000000FF81
:10157000FFFFFFFFFFE01FFC0000007FF8007FF887
:1015800000000000007FFFFFFFFFFFE01FFC0000E6
:10159000003FF8007FF800000000007FFFFFFFFF22
:1015A000FFE01FFC0000003FF8007FFC000000008F
:1015B000007FFFFFFFFFFFE01FF80000003FF80083
:1015C0003FFF00000000007FFFFFFFFFFFE03FF84C
:1015D0000000003FF8003FFFC0000000007FFFFF59
:1015E000FFFFFFE03FF80000001FF8001FFFF800BA
:1015F0000000007FFFFFFFFFFFE03FF80000001F3B
:10160000F8001FFFFF000000007FFFFFFFFFFFC08B
:101610003FF80000001FF8000FFFFFE00000003F50
:10162000FFFFFFFFFFC03FF80000001FF80007FFAB
:10163000FFFE0000003FFFFFFFFFFFC03FF800007C
:10164000003FF80003FFFFFFC000003FFFFFFFFF68
:10165000FFC03FF80000003FF80001FFFFFFF80067
:10166000003FFFFFFFFFFFC03FF00000003FF8001A
:10167000007FFFFFFE00003FFFFFFFFFFFC03FF0C6
:101680000000003FF800001FFFFFFF80003FFFFF4A
:10169000FFFFFFC03FF00000003FF8000007FFFF22
:1016A000FFE0003FFFFFFFFFFFC03FF00000003FF3
:1016B000F8000000FFFFFFF0003FFFFFFFFFFFC04B
:1016C0003FF00000003FF00000001FFFFFF8003F68
:1016D000FFFFFFFFFFC07FF00000003FF0000000B1
:1016E00003FFFFFC003FFFFFFFFFFFC07FF0000094
:1016F000003FF0000000007FFFFE003FFFFFFFFF04
:10170000FFE07FE00000003FF0000000000FFFFF5F
:10171000003FFFFFFFFFFFE07FE00000007FF000E1
:1017200000000001FFFF007FFFFFFFFFFFE07FE001
:101730000000007FF000000000007FFF807FFFFFBF
:10174000FFFFFFE07FE00000007FF00000000000EE
:101750001FFF807FFFFFFFFFFFE07FE00000007FB3
:10176000E0000000000007FF807FFFFFFFFFFFE0B9
:101770007FE00000007FE0000000000003FFC07F6A
:10178000FFFFFFFFFFE0FFE00000007FE000000040
:10179000000003FFC07FFFFFFFFFFFF0FFE000003E
:1017A000007FE0000000000001FFC0FFFFFFFFFF1F
:1017B000FFF0FFE0000000FFE0000000000001FF7C
:1017C000C0FFFFFFFFFFFFF0FFE0000000FFE000B1
:1017D0000000000001FFC0FFFFFFFFFFFFF0FFE080
:1017E000000000FFE0000000000001FFC0FFFFFF5D
:1017F000FFFFFFF0FFC0000000FFE000000000005E
:1018000003FFC0FFFFFFFFFFFFF8FFC0000000FF66
:10181000E0000000000003FF81FFFFFFFFFFFFF873
:10182000FFC0000000FFE000000000000FFF81FF8C
:10183000FFFFFFFFFFFCFFC0000000FFE000000013
:1018400000003FFF81FFFFFFFFFFFFFDFFC0000023
:1018500000FFFFFFFFFFFFFFFFFF03FFFFFFFFFF93
:10186000FFFFFFC0000000FFFFFFFFFFFFFFFFFFC4
:1018700003FFFFFFFFFFFFFFFFC0000001FFFFFFAF
:10188000FFFFFFFFFFFE03FFFFFFFFFFFFFFFF80E4
:10189000000001FFFFFFFFFFFFFFFFFE07FFFFFF4D
:1018A000FFFFFFFFFF80000001FFFFFFFFFFFFFFC3
:1018B000FFFC07FFFFFFFFFFFFFFFF80000001FFAE
:1018C000FFFFFFFFFFFFFFF80FFFFFFFFFFFFFFF1F
:1018D000FF80000001FFFFFFFFFFFFFFFFE00FFFA2
:1018E000FFFFFFFFFFFFFF80000001FFFFFFFFFF83
:1018F000FFFFFFC01FFFFFFFFFFFFFFFFF80000094
:1019000001FFFFFFFFFFFFFFFF001FFFFFFFFFFFC4
:10191000FFFFFF80000001FFFFFFFFFFFFFFC00090
:101920003FFFFFFFFFFFFFFFFF8000000000000000
:101930000000000000003FFFFFFFFFFFFFFFFF80F0
:101940000000000000000000000000007FFFFFFF1B
:10195000FFFFFFFFFF00000000000000000000008C
:1019600000007FFFFFFFFFFFFFFFFF000000000000
:101970000000000000000000FFFFFFFFFFFFFFFF6F
:10198000FF00000000000000000000000000FFFF5A
:10199000FFFFFFFFFFFFFF0000000000000000004E
:1019A00000000001FFFFFFFFFFFFFFFFFF0000003F
:1019B00000000000000000000003FFFFFFFFFFFF2A
:1019C000FFFFFF0000000000000000000000000713
:1019D000FFFFFFFFFFFFFFFFFF0000000000000010
:1019E000000000000007FFFFFFFFFFFFFFFFFF00F9
:1019F00000000000000000000000000FFFFFFFFFDC
:101A0000FFFFFFFFFF80000000000000000000005B
:101A1000001FFFFFFFFFFFFFFFFFFFC000000000F0
:101A2000000000000000003FFFFFFFFFFFFFFFFF7F
:101A3000FFE000000000000000000000007FFFFF4A
:101A4000FFFFFFFFFFFFFFE00000000000000000BD
:101A50000000007FFFFFFFFFFFFFFFFFFFF0000020
:101A6000000000000000000000FFFFFFFFFFFFFF7D
:101A7000FFFFFFFC0000000000000000000001FF6D
:101A8000FFFFFFFFFFFFFFFFFFFE00000000000061
:101A90000000000003FFFFFFFFFFFFFFFFFFFFFF4E
:101AA0000000000000000000000007FFFFFFFFFF34
:101AB000FFFFFFFFFFFF80000000000000000000AC
:101AC0001FFFFFFFFFFFFFFFFFFFFFFFC000000042
:101AD0000000000000003FFFFFFFFFFFFFFFFFFFD0
:101AE000FFFFE00000000000000000007FFFFFFF9C
:101AF000FFFFFFFFFFFFFFFFF800000000000000F6
:101B00000000FFFFFFFFFFFFFFFFFFFFFFFFFC00E5
:101B10000000000000000003FFFFFFFFFFFFFFFFCA
:101B2000FFFFFFFFFE000000000000000007FFFFB6
:101B3000FFFFFFFFFFFFFFFFFFFFFF800000000030
:101B40000000001FFFFFFFFFFFFFFFFFFFFFFFFF82
:101B5000FFE0000000000000007FFFFFFFFFFFFF2D
:101B6000FFFFFFFFFFFFFFF000000000000000FF8D
:101B7000FFFFFFFFFFFFFFFFFFFFFFFFFFFE000074
:101B80000000000003FFFFFFFFFFFFFFFFFFFFFF5D
:101B9000FFFFFFFF8000000000001FFFFFFFFFFFAF
:101BA000FFFFFFFFFFFFFFFFFFFFE000000000005F
:101BB0007FFFFFFFFFFFFFFFFFFFFFFFFFFFFFFFB5
:101BC000FC0000000003FFFFFFFFFFFFFFFFFFFF20
:101BD000FFFFFFFFFFFFFF800000001FFFFFFFFF71
:101BE000FFFFFFFFFFFFFFFFFFFFFFFFFFFC000006
:101BF00001FFFFFFFFFFFFFFFFFFFFFFFFFFFFFFF3
:101C0000FFFFFFFFF000FFFFFFFFFFFFFFFFFFFFF2
:101C1000FFFFFFFFFFFFFFFFFFFFFFFFFFFFFFFFD4
:101C2000FFFFFFFFFFFFFFFFFFFFFFFFFFFFFFFFC4
:101C3000FFFFFFFFFFFFFFFFFFFFFFFFFFFFFFFFB4
:101C4000FFFFFFFFFFFFFFFFFFFFFFFFFFFFFFFFA4
:10204000FFFFFFFFFFFF00002100240027002A0000
:102050002D003000330001010000040107010A01D6
:1020600000002200250028002B002E003100340043
:1020700002010000050108010B01000020002300FF
:10208000260029002C002F0032000001000003016F
:1020900006010901050505050705080808080202EB
:1020A00002020A0A080804040404010101010101F2
:1020B00001010303030303030303040707070C0CD5
:1020C0000C0C0C0C0C0C020202020606060606069C
:1020D00006060B0B0B0B0B0B0B0B01021020200841
:1020E0000810204010204080020102010804020173
:1020F00001020408102040808040201008040201E2
:10210000800402018040201008040201080402013A
:1021100001020408102040800102040810204080C1
:1021200000000A0B02090C0D0E0807030401000051
:10213000000000000000000000000000000000009F
:10214000000000000000000000000000121110005C
:10215000000000000000000000000000000000007F
:102160000000000000002635FE3E11241FBECFEF08
:10217000D1E2DEBFCDBF00E00CBF22E1A6E9B8E0AE
:1021800001C01D92A53AB207E1F718E0A0E0B2E065
:10219000E8EBF9E800E00BBF02C007900D92A6390A
:1021A000B107D9F710E1C4EBD0E100E006C02197F8
:1021B0000109802FFE010E94D141C33BD10780E07D
:1021C0000807A9F70E942A360C94CA440C94000010
:1021D00080918F1290919012A0919112B0919212D1
:1021E0000197A109B10980938F1290939012A09347
:1021F0009112B0939212892B8A2B8B2B49F4E09188
:102200004D12F0914E12808190915112892B808352
:102210000895AC01E0914912F0914A1280819091A9
:102220005212892B8083E0914D12F0914E128081E1
:10223000909151129095982390838091431220E1C0
:1022400030E060E070E887FF12C05EBD0DB407FEAD
:10225000FDCF4EBD0DB407FEFDCFE0914D12F091C4
:102260004E12808190915112892B80830895E091C4
:102270004512F091461290914F12DA01A623B7232E
:102280008081AB2BD9F0982B9083E0914712F0918D
:102290004812808190915012892B8083E0914712DF
:1022A000F0914812808190915012909598239083DC
:1022B0007695679521503109D1F6CFCF9095982327
:1022C000E3CF9C01E0914912F0914A1280819091F4
:1022D0005212909598239083E0914D12F0914E12F6
:1022E0008081909151129095982390838091431210
:1022F00040E150E060E070E887FF12C01EBC0DB402
:1023000007FEFDCF2EBD0DB407FEFDCFE0914D12AF
:10231000F0914E12808190915112892B8083089503
:10232000E0914512F091461290914F12D901A623E7
:10233000B7238081AB2BD9F0982B9083E091471283
:10234000F0914812808190915012892B8083E09106
:102350004712F091481280819091501290959823E5
:1023600090837695679541505109D1F6CFCF9095DE
:102370009823E3CFCF93DF93EB010E946111CE014D
:10238000DF91CF910C94091180918F12909190124E
:10239000A0919112B0919212AC01BD014F5F5F4FBD
:1023A0006F4F7F4F40938F12509390126093911212
:1023B00070939212892B8A2B8B2B91F4809143126C
:1023C00087FF04C080E58CBD81E08DBDE0914D129A
:1023D000F0914E12908180915112809589238083D3
:1023E0000895DC01FB01809153128230B9F08330F3
:1023F00069F1813051F580913B1290913C12019727
:1024000020813181821B930B918380832D913C919C
:1024100011978D939C933183208308958091391275
:1024200090913A1201972D913C911197821B930B39
:102430008D939C9380913B1290913C120197208147
:102440003181821B930B918380830895809139128F
:1024500090913A1201972D913C911197821B930B09
:1024600011969C938E93208131812D933C93EBCFD9
:102470000F931F93CF93DF9300D01F92CDB7DEB79A
:102480009A8389837C836B832091391230913A122D
:102490008217930720F520913B1230913C1262176E
:1024A0007307E8F48A01BE016D5F7F4FCE0101968C
:1024B0000E94F1110E94C41169817A8180E290E04A
:1024C0000E94BA116B817C8181E290E00E94BA1176
:1024D000B80182E290E00E94BA110E94E8100F90C9
:1024E0000F900F900F90DF91CF911F910F91089552
:1024F0000F931F93CF93DF9300D000D01F921F92B2
:10250000CDB7DEB77C836B835E834D8338872F83A3
:102510002091391230913A12215031092817390788
:1025200008F4C9019A8389838D819E812817390710
:1025300008F4C9019E838D8380913B1290913C12D7
:1025400001972B813C818217930708F49C013C83FF
:102550002B832F8138858217930708F49C013887D5
:102560002F83BE016D5F7F4FCE0101960E94F11156
:10257000BE01695F7F4FCE0105960E94F1112D814A
:102580003E8189819A812817390720F43A8329836B
:102590009E838D832F8138858B819C8128173907F5
:1025A00020F43C832B8398878F830E94C411E09191
:1025B0005312EE2379F0E150FF0B23E0EE0FFF1FE3
:1025C0002A95E1F7E00FF11FEE0FFF1FEB5AFD4ECA
:1025D00000811181B80183E0660F771F8A95E1F7CA
:1025E000706183E090E00E94BA116D817E8186E384
:1025F00090E00E94BA1169817A8187E390E00E949D
:10260000BA116F81788588E390E00E94BA116B81DE
:102610007C8189E390E00E94BA11159507950130FD
:10262000110529F1ACF46D817E81012B11F182E25B
:1026300090E00E9461110E94E81028960FB6F8946D
:10264000DEBF0FBECDBFDF91CF911F910F910895D7
:1026500002301105C9F069817A810330110539F71B
:1026600080E290E00E94BA116B817C8108C0698190
:102670007A8180E290E00E94BA116F81788581E2D0
:1026800090E00E94BA11D3CF6D817E81E9CF6FEACD
:1026900070E086E390E00E94BA1170E060E087E3AA
:1026A00090E00E94BA116BED70E088E390E00E9428
:1026B000BA1170E060E089E390E00C94BA118F9257
:1026C0009F92AF92BF92CF92DF92EF92FF920F93C1
:1026D0001F93CF93DF935C014B01EA0179016801FD
:1026E00007E010E00E9478120E94C4118FEFE81AF0
:1026F000F80AE818F9082196CA19DB09EC9E50017E
:10270000ED9EB00CFC9EB00C1124A114B10439F064
:10271000C6010E94091181E0A81AB108F6CF0E94F3
:10272000E810DF91CF911F910F91FF90EF90DF9014
:10273000CF90BF90AF909F908F900C9447132F92A3
:102740003F924F925F926F927F928F929F92AF9241
:10275000BF92CF92DF92EF92FF920F931F93CF938E
:10276000DF9300D000D000D01F921F92CDB7DEB70C
:102770005B015B834A83522E432E7C01712C272DF3
:1027800030E0EA81FB81848195812817390708F0C0
:10279000D4C080819181009709F4A5C0820F931F56
:1027A000FC018081F0918912FA8720918D12F29FAD
:1027B000900111242F5F3F4F082E000C990B409180
:1027C0008B12841B9109289F6001299FD00C389F90
:1027D000D00C112480918E1281110BC0E0918712D0
:1027E000F091881296012C5F3F4FE20FF31F349156
:1027F0003A8785E0C80ED11C0E94C4119A85292E03
:10280000312CA7014F5F5F4F420D531D809139124C
:1028100090913A124817590708F067C020918A1220
:102820002150330B2A0D3B1D80913B1290913C129D
:102830002817390708F059C007E010E0B501C701B3
:102840000E947812E1E0E9831B868601612C2B85CA
:102850002E0D3F2D311D39872887802F8C1990919F
:102860008D12891708F059C03A859B85E0E0391729
:1028700039F0E0918712F0918812E00FF11FE49196
:102880000F5F1F4FF8E08F9FC00111249C012A0D9C
:102890003B1D3D832C83912C812C8E2F90E09F83B8
:1028A0008E8380918A126816C0F68E819F81082CD3
:1028B00002C0959587950A94E2F781709927E9817E
:1028C000EE23D1F0892BA9F480913D1290913E1214
:1028D0000E9409116394FFEF8F1A9F0A28E0821665
:1028E0009104F9F6BACF80E05DCF1982ADCF6801CF
:1028F000ACCF852D942DECCF40913D1250913E12DE
:10290000892B11F0452D542D6C817D81680D791D29
:10291000888599850E943812DDCF3B853F5F3B87D4
:102920008A85831720F70E94E8100E944713C1018F
:102930000196E80EF91E739422CFC7012B960FB6AD
:10294000F894DEBF0FBECDBFDF91CF911F910F91E5
:10295000FF90EF90DF90CF90BF90AF909F908F90BF
:102960007F906F905F904F903F902F9008952F929F
:102970003F924F925F926F927F928F929F92AF920F
:10298000BF92CF92DF92EF92FF920F931F93CF935C
:10299000DF93EC018B014A017901E61AF70AF7FE91
:1029A00003C0F194E194F1086401CC1ADD0AD7FE6A
:1029B00003C0D194C194D108CE14DF0454F4982DEF
:1029C000892D4901292F382F9C2F8D2FE801092FA0
:1029D000182F8C169D0650F4902F812F8901292FD6
:1029E000382F9C2F8D2FE401892E982E14012C1A3C
:1029F0003D0A2901401A510A57FE03C051944194DF
:102A00005108310137FE03C08FEF681A780A7594B8
:102A10006794AA24AA94BA2C0217130718F4AA24BC
:102A2000A394B12C0E94C4118C169D06A8F04FEF00
:102A30005FEFBE01C801CE14DF0414F0B801CE016F
:102A40000E9438126418750877FE04C00A0D1B1D19
:102A5000620C731C2196E8CFDF91CF911F910F91EB
:102A6000FF90EF90DF90CF90BF90AF909F908F90AE
:102A70007F906F905F904F903F902F900C94E81054
:102A80008150823108F05AC0E82FF0E08827E45BDB
:102A9000FA4E8F4F0C94D1416C1570155E1564156C
:102AA00068159E15731579157D15831587158B157A
:102AB000911595159E1599159F15A3158091800068
:102AC0008F77809380000895809180008F7DF9CF6B
:102AD00080918000877FF5CF84B58F7784BD08957E
:102AE00084B58F7DFBCF8091B0008F778093B0004D
:102AF00008958091B0008F7DF9CF809190008F77FD
:102B0000809390000895809190008F7DF9CF8091FF
:102B10009000877FF5CF8091A0008F778093A000F1
:102B200008958091A0008F7DF9CF8091A000877FCC
:102B3000F5CF809120018F778093200108958091B7
:102B400020018F7DF9CF80912001877FF5CFCF9332
:102B5000DF93282F30E0F901E05EFE4D8491F9010A
:102B6000E652FF4DD491F901EC56FF4DC491CC23B0
:102B7000A1F081110E944015EC2FF0E0EE0FFF1F35
:102B8000E658FF4DA591B491EC91ED2381E090E0E2
:102B900009F480E0DF91CF91089580E090E0FACFD2
:102BA0001F93CF93DF93282F30E0F901E05EFE4DB5
:102BB0008491F901E652FF4DD491F901EC56FF4D95
:102BC000C491CC23A9F0162F81110E944015EC2F3F
:102BD000F0E0EE0FFF1FE05AFF4DA591B4918FB7C3
:102BE000F894EC91111108C0D095DE23DC938FBFCF
:102BF000DF91CF911F910895DE2BF8CFCF93DF9314
:102C000090E0FC01E652FF4D24918C569F4DFC0153
:102C100084918823D1F090E0880F991FFC01EA5B32
:102C2000FF4DA591B491FC01E05AFF4DC591D4919F
:102C300061110EC09FB7F8948C91E22FE0958E231E
:102C40008C932881E223E8839FBFDF91CF91089581
:102C50008FB7F894EC91E22BEC938FBFF6CF1F93D4
:102C6000CF93DF938093861210914412112309F4BD
:102C70003FC0C0915412D0E0811102C0D0E0C0E04A
:102C800061E0812F0E94FE15209739F460E0812FCA
:102C9000DF91CF911F910C94D015CF3FD10511F446
:102CA00061E0F5CFE12FF0E0E05EFE4DE491E15010
:102CB000E23108F0B3C0F0E08827EE59F94E8F4FAB
:102CC0000C94D14174167C1681168B1695160E172E
:102CD0009F16A716AF16B916C316CD16DC16E61644
:102CE0000E17F016FA16041784B5806884BDC7BDA8
:102CF000DF91CF911F91089584B5806284BDC8BDD6
:102D0000F7CF80918000806880938000D093890005
:102D1000C0938800EDCF8091800080628093800016
:102D2000D0938B00C0938A00E3CF809180008860AD
:102D300080938000D0938D00C0938C00D9CF809178
:102D4000B00080688093B000C093B300D1CF809171
:102D5000B00080628093B000C093B400C9CF80916E
:102D60009000806880939000D0939900C093980061
:102D7000BFCF80919000806280939000D0939B00A1
:102D8000C0939A00B5CF80919000886080939000A6
:102D9000D0939D00C0939C00ABCF8091A000806831
:102DA0008093A0008091A0008F7B8093A000D0939F
:102DB000A900C093A8009CCF8091A000806280935E
:102DC000A000D093AB00C093AA0092CF8091A00046
:102DD00088608093A000D093AD00C093AC0088CFF2
:102DE00080912001806880932001D0932901C093B5
:102DF00028017ECF80912001806280932001D093B2
:102E00002B01C0932A0174CF8091200188608093A8
:102E10002001D0932D01C0932C016ACFC038D10579
:102E20000CF03ECF33CF90917B00977F90937B0047
:102E30008653806480937C0080917A0080648093C4
:102E40007A0080917A0086FDFCCF80917800909185
:102E5000790008953FB7F8948091C40D9091C50D05
:102E6000A091C60DB091C70D26B5A89B05C02F3FF8
:102E700019F00196A11DB11D3FBFBA2FA92F982FA0
:102E80008827BC01CD01620F711D811D911D42E09B
:102E9000660F771F881F991F4A95D1F708958F9263
:102EA0009F92AF92BF92CF92DF92EF92FF924B012F
:102EB0005C010E942A176B017C010E942A176C1981
:102EC0007D098E099F09683E734081059105A8F32D
:102ED00021E0821A9108A108B10888EEC80E83E0AB
:102EE000D81EE11CF11C81149104A104B10429F73E
:102EF000FF90EF90DF90CF90BF90AF909F908F901A
:102F00000895CF92DF92EF92FF920F931F93CF938A
:102F1000C09153121092531280EBC82ED12CD09234
:102F20003A12C09239129CEDE92EF12CF0923C122B
:102F3000E0923B1210E000E02BED30E04FEA50E071
:102F400070E060E090E080E00E945F13C370C09387
:102F50005312C130B9F0C330A9F0D0923A12C092E6
:102F60003912F0923C12E0923B126AE070E080E08D
:102F700090E0CF911F910F91FF90EF90DF90CF9055
:102F80000C944F178CED90E090933A128093391285
:102F900080EB90E090933C1280933B12E6CF2FB7EA
:102FA000F8946091C00D7091C10D8091C20D909107
:102FB000C30D2FBF089581E02091B80D3091B90D58
:102FC000121613060CF480E00895AF92BF92CF92D0
:102FD000DF92EF92FF920F931F93CF93DF936C01D9
:102FE0007B018B01040F151FEB015E01AE18BF08BA
:102FF000C017D10759F06991D601ED91FC9101906C
:10300000F081E02DC6011995892B79F7C501DF9173
:10301000CF911F910F91FF90EF90DF90CF90BF90D5
:10302000AF900895FC01538D448D252F30E0842FFF
:1030300090E0821B930B541710F0CF9608950197E0
:103040000895FC01918D828D981761F0A28DAE0FCD
:10305000BF2FB11D5D968C91928D9F5F9F73928F54
:1030600090E008958FEF9FEF0895FC01918D828D80
:10307000981731F0828DE80FF11D858D90E008954D
:103080008FEF9FEF0895FC01918D228D892F90E0A5
:10309000805C9F4F821B91098F739927089588E167
:1030A0009EE00E94431821E0892B09F420E0822F42
:1030B000089585EB9EE00E94431821E0892B09F4D6
:1030C00020E0822F0895FC01A48DA80FB92FB11D17
:1030D000A35ABF4F2C91848D90E001968F7399274E
:1030E000848FA689B7892C93A089B1898C9183702C
:1030F00080648C93938D848D981306C00288F38925
:10310000E02D80818F7D80830895EF92FF920F9351
:103110001F93CF93DF93EC0181E0888F9B8D8C8D83
:1031200098131AC0E889F989808185FF15C09FB777
:10313000F894EE89FF896083E889F989808183703A
:10314000806480839FBF81E090E0DF91CF911F91E9
:103150000F91FF90EF900895F62E0B8D10E00F5F0A
:103160001F4F0F731127E02E8C8D8E110CC00FB6E0
:1031700007FCFACFE889F989808185FFF5CFCE0178
:103180000E946318F1CFEB8DEC0FFD2FF11DE35A78
:10319000FF4FF0829FB7F8940B8FEA89FB898081FB
:1031A0008062CFCFCF93DF93EC01888D8823B9F075
:1031B000AA89BB89E889F9898C9185FD03C0808142
:1031C00086FD0DC00FB607FCF7CF8C9185FFF2CFBF
:1031D000808185FFEDCFCE010E946318E9CFDF919A
:1031E000CF91089580E090E0892B29F00E94591832
:1031F00081110E94000080E090E0892B49F080E07E
:1032000090E0892B29F00E94000081110E940000AB
:1032100080E090E0892B49F080E090E0892B29F054
:103220000E94000081110E94000080E090E0892B44
:1032300029F00E944F1881110C94000008950F93FB
:103240001F93CF93DF938C01C0E9D0E1CE01805969
:1032500090418017910734F4699188E19EE00E94C3
:103260008518F4CFDF91CF911F910F9108950F939F
:103270001F930E94CF170091020210910302209128
:10328000040230910502601B710B820B930B21E04D
:10329000613177428105910508F420E0822F1F916A
:1032A0000F910895FB019081892790E1899F9001FA
:1032B0001124822790E0382F2227AC0163E0440FCD
:1032C000551F6A95E1F724273527418150E02427CF
:1032D000352774E0959587957A95E1F782279327AE
:1032E0009183808308950F931F93CF93DF931F9251
:1032F0001F92CDB7DEB78C01862FF8012081318176
:103300003A832983BE016F5F7F4F0E9452198981E2
:103310009A81F801918380830F900F90DF91CF9174
:103320001F910F9108952F923F924F925F926F924B
:103330007F928F929F92AF92BF92CF92DF92EF9245
:10334000FF920F931F93CF93DF93CDB7DEB7A49770
:103350000FB6F894DEBF0FBECDBFFC019C01205C10
:103360003F4F8C01D8016D917D918D919D91AD0163
:103370000E94D941D8016D937D938D939C931397AF
:103380008A014217530771F7DA018D909D90AD9035
:10339000BC908D829E82AF82B886DF01AC5BBF4F4E
:1033A0008D909D90AD90BC9013978D869E86AF8634
:1033B000B88A14960D911D912D913C911397098B0C
:1033C0001A8B2B8B3C8B14962D913D914D915C91DA
:1033D00013972F8F38A349A35AA314968D909D90CD
:1033E000AD90BC90139789829A82AB82BC8214966E
:1033F0000D911D912D913C9113970D8B1E8B2F8B51
:10340000388F14962D913D914D915C911397298F92
:103410003A8F4B8F5C8F14968D909D90AD90BC90A1
:1034200089869A86AB86BC8608E912E01E8F0D8FCE
:10343000312C212CD10110E1211631040CF021C2D4
:10344000AA0FBB1FAA0FBB1FAE0FBF1FCD90DD90F1
:10345000ED90FC90AD8DBE8D0D911D912D913D9106
:10346000BE8FAD8F49815A816B817C818AE1440F87
:10347000551F661F771F8A95D1F789809A80AB8088
:10348000BC8096E0B694A794979487949A95D1F7C8
:10349000482959296A297B2949805A806B807C8078
:1034A000A5E1440C551C661C771CAA95D1F78981AF
:1034B0009A81AB81BC81072E7BE0B695A795979545
:1034C00087957A95D1F7702D84299529A629B72952
:1034D000482759276A277B2749805A806B807C8040
:1034E00089E176946794579447948A95D1F78981B6
:1034F0009A81AB81BC81689416F8880F991FAA1F26
:10350000BB1F1694D1F784299529A629B7292A012A
:103510003B01482659266A267B2649815A816B81C0
:103520007C814095509560957095898C9A8CAB8C78
:10353000BC8C482159216A217B2189819A81AB81E8
:10354000BC818D889E88AF88B88C88219921AA215A
:10355000BB2184279527A627B727B301A201480FCF
:10356000591F6A1F7B1F400F511F621F731FC40E1C
:10357000D51EE61EF71E09851A852B853C850C0D88
:103580001D1D2E1D3F1D8D809E80AF80B8848EE155
:10359000880C991CAA1CBB1C8A95D1F74D805E80B3
:1035A0006F80788492E076946794579447949A95C4
:1035B000D1F784289528A628B7284D815E816F8190
:1035C0007885A3E1440F551F661F771FAA95D1F791
:1035D0008D819E81AF81B885072E7DE0B695A79538
:1035E000979587957A95D1F7702D842B952BA62BDF
:1035F000B72B88269926AA26BB264D815E816F812E
:10360000788586E176956795579547958A95D1F7A0
:103610008D819E81AF81B885072E7AE0880F991F32
:10362000AA1FBB1F7A95D1F7702D842B952BA62B43
:10363000B72BB501A401482759276A277B278D841A
:103640009E84AF84B88889899A89AB89BC89882689
:103650009926AA26BB268D819E81AF81B8858822B6
:103660009922AA22BB22CD84DE84EF84F88889893E
:103670009A89AB89BC89C822D922EA22FB22C824B4
:10368000D924EA24FB24C40ED51EE61EF71E4F8C57
:1036900058A069A07AA0400E511E621E731EC00E73
:1036A000D11EE21EF31E9FEF291A390A89889A88D3
:1036B000AB88BC888F8E98A2A9A2BAA2098D1A8D58
:1036C0002B8D3C8D09871A872B873C8710E42116A8
:1036D000310409F0ADC0DF01A05CBF4F0D911D9119
:1036E0002D913C911397C00ED11EE21EF31ECD9278
:1036F000DD92ED92FC92139714964D915D916D9130
:103700007C9113978D809E80AF80B884480D591DA1
:103710006A1D7B1D4D935D936D937C931397149657
:103720004D915D916D917C9113970D851E852F852F
:103730003889400F511F621F731F4D935D936D9326
:103740007C93139714964D915D916D917C91139795
:1037500089889A88AB88BC88480D591D6A1D7B1DD5
:103760004D935D936D937C93139714964D915D915A
:103770006D917C911397440E551E661E771E4D92D7
:103780005D926D927C92139714964D915D916D911F
:103790007C91139709811A812B813C81400F511F25
:1037A000621F731F4D935D936D937C931397BF01BD
:1037B000685A7F4FDB01CD90DD90ED90FC90139720
:1037C0008D889E88AF88B88CC80CD91CEA1CFB1C5D
:1037D000CD92DD92ED92FC921397E45AFF4F8081D7
:1037E0009181A281B381898C9A8CAB8CBC8C880D21
:1037F000991DAA1DBB1D80839183A283B383A496C8
:103800000FB6F894DEBF0FBECDBFDF91CF911F91F1
:103810000F91FF90EF90DF90CF90BF90AF909F906F
:103820008F907F906F905F904F903F902F90089572
:103830002D893E894F89588D298F3A8F4B8F5C8F08
:1038400089819A81AB81BC818D8B9E8BAF8BB88F28
:1038500049825A826B827C828D849E84AF84B88830
:10386000898A9A8AAB8ABC8A0D811E812F8138850C
:103870000D871E872F87388BCD82DE82EF82F886F8
:10388000D9CD1297AF70BB27AA0FBB1FAA0FBB1FC2
:10389000AE0FBF1F0D911D912D913C91D1011F972E
:1038A000AF70BB27AA0FBB1FAA0FBB1FAE0FBF1F56
:1038B0004D915D916D917C91C1018F709927880F19
:1038C000991F880F991FDF01A80FB91FBCA3ABA3D5
:1038D000D1011797AF70BB27AA0FBB1FAA0FBB1F41
:1038E000AE0FBF1FCD90DD90ED90FC90ABA1BCA1C1
:1038F0008D909D90AD90BC90C80CD91CEA1CFB1C0F
:10390000480159019FE0880C991CAA1CBB1C9A9580
:10391000D1F7D901C801072E71E1B695A795979502
:1039200087957A95D1F7702D882A992AAA2ABB2AD9
:10393000D901C801072E7DE0880F991FAA1FBB1F60
:103940007A95D1F7702D28013901032E33E1769451
:103950006794579447943A95D1F7302D8429952947
:10396000A629B72988259925AA25BB250F2EFAE077
:103970003695279517950795FA95D1F7F02D80275D
:103980009127A227B327C80ED91EEA1EFB1E8A0163
:103990009B0187E036952795179507958A95D1F76E
:1039A000DB01CA01072E79E1880F991FAA1FBB1FEF
:1039B0007A95D1F7702D082B192B2A2B3B2BDB0185
:1039C000CA01072E7EE0880F991FAA1FBB1F7A9598
:1039D000D1F7702D2A013B01032E32E176946794D2
:1039E000579447943A95D1F7302D84299529A629E3
:1039F000B72980279127A227B32723E076956795DB
:103A0000579547952A95D1F784279527A627B72755
:103A1000C80ED91EEA1EFB1EABA1BCA1CD92DD9241
:103A2000ED92FC92139716CD0F931F9310E000E0D8
:103A30002DED30E040EB50E068EC70E090E080E08D
:103A40000E945F131F910F910895E4EAF4E0F09350
:103A50008812E0938712E491E0938912E5EAF4E09A
:103A6000849180938A12E6EAF4E0E491E0938B1269
:103A7000E7EAF4E0E491E0938C12982F96959695FE
:103A8000969590938D1210928E12877019F09F5F09
:103A900090938D120895E0E0F2E0F0938812E093A5
:103AA0008712E491E0938912E1E0F2E0849180933F
:103AB0008A12E2E0F2E0E491E0938B12E3E0F2E0BC
:103AC000E491E0938C12982F969596959695909305
:103AD0008D1210928E12877019F09F5F90938D1245
:103AE0000895CF92DF92EF92FF92CF93DF93EC0194
:103AF0006A017B018F819885A985BA858C199D09FA
:103B0000AE09BF09B7FF03C080E090E0DC018F83FE
:103B10009887A987BA8788810E94A715892BB9F44D
:103B20008F819885A985BA85892B8A2B8B2B79F46F
:103B300089819A81892BC9F481E090E09A838983F5
:103B4000DF91CF91FF90EF90DF90CF900895888123
:103B50000E94A715892B89F584EF91E0A0E0B0E0E1
:103B60008F839887A987BA87EBCF8B859C85AD8596
:103B7000BE858C0D9D1DAE1DBF1D8B879C87AD879F
:103B8000BE87843F9140A105B105D0F283E090E06B
:103B90009A83898384EF91E0A0E0B0E08F839887D7
:103BA000A987BA87ED81FE81309751F2DF91CF91DD
:103BB000FF90EF90DF90CF90199489819A810197BF
:103BC00069F484EF91E0A0E0B0E08F839887A98743
:103BD000BA87EB81FC81309709F019951A82198216
:103BE0001B861C861D861E86ABCFCF92DF92EF927E
:103BF000FF92CF93DF93EC016A017B0188810E94E1
:103C0000A7159C0181E090E02115310511F090E0AD
:103C100080E09A8389838D819E81AF81B885232B33
:103C2000C1F40097A105B105A1F4EB81FC813097A7
:103C300009F0199584EF91E0A0E0B0E08D839E83B8
:103C4000AF83B887DF91CF91FF90EF90DF90CF9057
:103C500008958C199D09AE09BF09B7FFEFCF80E029
:103C600090E0DC01EBCF81E08093B60D089581E018
:103C70008093B70D089581E08093BA0D089581E097
:103C80008093BB0D089581E08093BC0D089581E081
:103C90008093BD0D0895FC0101900020E9F7319754
:103CA000AF01481B590BBC0185EB9EE00C94E51756
:103CB0008F929F92AF92BF920F931F93CF93DF93F8
:103CC000CDB7DEB7A1970FB6F894DEBF0FBECDBF5C
:103CD00019A2423008F44AE08E010F5D1F4F842E76
:103CE000912CB12CA12CA50194010E94AF41E62F8B
:103CF000B901CA01EA30F4F4E05DD801EE938D0118
:103D0000232B242B252B79F790E080E0109719F0D6
:103D1000CD010E944B1EA1960FB6F894DEBF0FBED8
:103D2000CDBFDF91CF911F910F91BF90AF909F902A
:103D30008F900895E95CE1CFCF93DF934AE00E9432
:103D4000581EEC0188E194E00E944B1E8C0F9D1FD1
:103D5000DF91CF910895CF93DF930E944B1EEC012A
:103D600088E194E00E944B1E8C0F9D1FDF91CF9144
:103D700008958BE194E00C94AB1E8AE394E00C94DC
:103D8000AB1ECF93DF93682F70E090E080E04AE0B5
:103D90000E94581EEC0188E194E00E944B1E8C0F9B
:103DA0009D1FDF91CF910895CF92DF92EF92FF9206
:103DB000CF93DF936C01990FEE08FF08F7FE1FC049
:103DC0006DE285EB9EE00E948518EC01662777275F
:103DD000CB016C197D098E099F094AE00E94581E8B
:103DE000C80FD91F88E194E00E944B1E8C0F9D1FC5
:103DF000DF91CF91FF90EF90DF90CF9008954AE050
:103E0000C701B6010E94581EEC01ECCF4F925F92A1
:103E10006F927F928F929F92AF92BF92CF92DF92DA
:103E2000EF92FF920F931F93CF93DF938C01EB01DF
:103E300049015A01FC01E05AFF4F80819181A28122
:103E4000B3816C017D012FE3C222DD24EE24FF2427
:103E5000880D991DAA1DBB1D80839183A283B38306
:103E600081149104A104B10479F180E490E0A0E010
:103E7000B0E08C199D09AE09BF09240135018815F0
:103E80009905AA05BB0510F42C013D01C8018C0D54
:103E90009D1DA201BE010E94AA44C40CD51CE61CB3
:103EA000F71CC40DD51D84189508A608B70880E432
:103EB000C816D104E104F10499F6C8010E949319CF
:103EC000C12CD12C7601CCCFDF91CF911F910F91D6
:103ED000FF90EF90DF90CF90BF90AF909F908F902A
:103EE0007F906F905F904F900895AF92BF92DF9256
:103EF000EF92FF920F931F93CF93DF93EC018B010F
:103F0000FB01D3808281645F7F4F8E3F09F459C0EB
:103F1000ED2CF12CFB01EE0DFF1DDE2C91E09E152A
:103F200038F49701215031099291992309F463C023
:103F30008883D982F80184818A8385818B838681F5
:103F40008C8387818D8380858E8381858F83818516
:103F50009285A385988781859285A385A987A701E6
:103F6000CE010A960E94AA44FAE0EF0EF11CCE0D93
:103F7000DF1DF801848199E0F92E80FF3AC08DE0C1
:103F8000F8019081988391819983A82EB12C882380
:103F900041F0B8016A5E7E4FA501CE0102960E94F3
:103FA000AA44C5018F0D911D03968D0D911DDF91C2
:103FB000CF911F910F91FF90EF90DF90BF90AF9046
:103FC00008958883D98286818A8387818B838085BF
:103FD0008C8381858D83438150E0CE0106960E94BB
:103FE000AA44F801838190E00696C80FD91F25E006
:103FF000F22E80E0C5CF790190CF8F929F92AF9241
:10400000BF92CF92DF92EF92FF920F931F93CF93C5
:10401000DF937C014A015B016901FC011995C091A4
:10402000CA0DD091CB0D82E190E02097E1F50E947E
:104030009742FC011082118212821382148215822F
:1040400016821782138612861586148617861686A0
:10405000118A108A9093CB0D8093CA0D9093C90D4D
:104060008093C80D11861086E091CA0DF091CB0D9A
:10407000F586E486108211821282138284829582F0
:10408000A682B782D386C28617870687DF91CF9133
:104090001F910F91FF90EF90DF90CF90BF90AF9066
:1040A0009F908F9008950E949742FC011082118288
:1040B0001282138214821582168217821386128648
:1040C0001586148617861686118A108A998B888B16
:1040D00088859985019691878087F093CB0DE09331
:1040E000CA0DC2CF8091C80D9091C90D009751F0B3
:1040F000FC01208931893093C90D2093C80D0E949D
:104100003343F0CF8091CC0D9091CD0D009751F0BD
:10411000FC01228133813093CD0D2093CC0D0E9480
:104120003343F0CF1092C90D1092C80D1092CB0DF1
:104130001092CA0D1092CF0D1092CE0D0895CF920D
:10414000DF92EF92FF920F931F93CF93DF93C09173
:10415000CC0DD091CD0D209709F445C0E091C80D4C
:10416000F091C90D288139818085918528173907FB
:1041700059F4808991899093C90D8093C80D0E944C
:1041800033430A80DB81C02D0091C80D1091C90D09
:10419000D8015096ED91FC912097E9F03097D9F035
:1041A000E088F18828813981808591852817390731
:1041B00079F4D8015096EC9250975196FC92E08891
:1041C000F188C7010E9433430A80DB81C02DF801CA
:1041D0008F01F701E1CF1092CD0D1092CC0D10920E
:1041E000CF0D1092CE0DC091C80DD091C90D209762
:1041F00009F457C0CC80DD80EE80FF800E94CF178D
:10420000088119812A813B81601B710B820B930B02
:104210006C157D058E059F0578F10E94CF17688388
:1042200079838A839B83EA85FB85309711F1199501
:104230008823F9F0E090CE0DF090CF0D0885198518
:1042400084E090E0E114F104D9F40E949742FC016B
:10425000138212829093CF0D8093CE0D9093CD0D4B
:104260008093CC0D11830083EE85FF85309709F094
:104270001995EC85FD8519950888D989C02DB7CF8A
:104280000E949742DC0113961C921E921297F7012E
:10429000938382839093CF0D8093CE0D0D931C93C7
:1042A000E3CFDF91CF911F910F91FF90EF90DF90BF
:1042B000CF900895CF93DF93EC0188819981009787
:1042C00011F00E943343198218821D821C821B82C6
:1042D0001A82DF91CF910895FC018081918100972E
:1042E00011F00C9433430895CF92DF92EF92FF9236
:1042F0000F931F93CF93DF93EC018B01FC01E05AE6
:10430000FF4FC080D180E280F38096012F73332766
:1043100083E0CC0CDD1CEE1CFF1C8A95D1F7C90193
:1043200001962C0F3D1F40E8F90140838933910528
:1043300078F040E450E0481B590B70E060E08C0FCF
:104340009D1F0E94B344CE010E94931990E080E02B
:104350004CE350E0481B590B70E060E08C0F9D1F50
:104360000E94B344FCAEEDAEDEAECFAECE010E94F5
:104370009319FE01E05CFF4F20813181428153811E
:10438000CC5BDF4F8A819B81F8015083418332836C
:10439000238394838583DF91CF911F910F91FF90A9
:1043A000EF90DF90CF9008953F924F925F926F927F
:1043B0007F928F929F92AF92BF92CF92DF92EF92B5
:1043C000FF920F931F93CF93DF93CDB7DEB7C857FC
:1043D000D1090FB6F894DEBF0FBECDBF6C013E2CE5
:1043E0008091DC0D582F527081FD1DC0E091DE0DD3
:1043F000F091DF0D309731F080812DE0522E11E0E9
:1044000080FD02C0512C10E08DEFF60182833C96B6
:10441000E00FF11D8291811103C001500130D1F7ED
:104420008AE0482E09C08EEFD60112968C93022F97
:10443000512C96E0492E10E0D60113960C93139759
:1044400017966C93179718964C93189711114CC0A8
:1044500014961C92D60115961C9215978091D70D33
:1044600016968C9316978091D70D8F5F8093D70DFA
:1044700012968C911297A6968FAFA69713968C9151
:104480001397A7968FAFA79719968D919D91AC9191
:10449000F60136812781552359F1A8963FAFA89799
:1044A000A9962FAFA997AA964FAFAA97AB968FAFB1
:1044B000AB97A42CB12C8FEF9FEF9A838983CE0109
:1044C0008B599F4F7C014C018A0C9B1C9FEFE91A72
:1044D000F90A8E149F0439F1BE016F5F7F4FD70137
:1044E0008C910E945219F2CF81E0F6018483B2CF01
:1044F0005481A8965FAFA8975581A9965FAFA997F9
:10450000AA963FAFAA97AB962FAFAB97AC964FAF9B
:10451000AC97AD968FAFAD97AE969FAFAE97AF9677
:10452000AFAFAF97C6CF89819A81E9969FAF8EAF23
:10453000E997F6016380712C7601FCE0EF0EF11C27
:10454000470181E0681A7108BE0169587F4F9FEFEB
:104550006916790631F0D4018D914D010E945219EE
:10456000F0CF832D0E945219E8969FADE897E99607
:104570008FADE997D6011396EC911397EE0DFF2DB1
:10458000F11D90831396EC911397EE0DFF2DF11D05
:1045900081839C9311968C931197112309F4F4C095
:1045A0000091DE0D1091DF0D0115110509F4ECC02D
:1045B000F801808180FFE8C013967C9081814601DC
:1045C000FAEE8F1AFEEF9F0AD4018C93F8018281D4
:1045D000E0968FAFE0978381E1968FAFE19784817A
:1045E000E2968FAFE2978581E3968FAFE39786815E
:1045F000E4968FAFE4978781E5968FAFE597808546
:10460000E6968FAFE6978185E7968FAFE79786E0CE
:10461000FE01E159FF4F119601900D928A95E1F745
:10462000D80112962C91129713963C9113971496D9
:104630004C91149715965C91159716966C91169758
:1046400017967C91179718968C91189719969C91AC
:10465000A1E00E946542F80122833383448355839D
:10466000668377838087918787E696EEA9E0BAE62E
:1046700025968CAF9DAFAEAFBFAF259785E89EEA7C
:10468000A7E6BBEB29968CAF9DAFAEAFBFAF299726
:1046900082E793EFAEE6BCE32D968CAF9DAFAEAF55
:1046A000BFAF2D978AE395EFAFE4B5EA61968CAF83
:1046B0009DAFAEAFBFAF61978FE792E5AEE0B1E5DA
:1046C00065968CAF9DAFAEAFBFAF65978CE898E6AF
:1046D000A5E0BBE969968CAF9DAFAEAFBFAF699760
:1046E0008BEA99EDA3E8BFE16D968CAF9DAFAEAFBD
:1046F000BFAF6D9789E19DECA0EEBBE5A1968CAFB5
:104700009DAFAEAFBFAFA197A5961CAE1DAE1EAEBE
:104710001FAEA597B801665F7F4F20E230E040E012
:1047200050E0CE0101960E94061F242D30E050E09B
:1047300040E0BE016B597F4FCE0101960E94061FDB
:10474000272D30E050E040E0B701CE0101960E94F5
:10475000061FB701670D711D22E030E040E050E018
:10476000CE0101960E94061F27E030E040E050E0B5
:10477000B401CE0101960E94061FB601635E7E4F12
:10478000CE0101960E947421D60113968C918A0D58
:104790009B2D911D0296850D911DC858DF4F0FB6B8
:1047A000F894DEBF0FBECDBFDF91CF911F910F9167
:1047B000FF90EF90DF90CF90BF90AF909F908F9041
:1047C0007F906F905F904F903F9008958F929F924F
:1047D000AF92BF92CF92DF92EF92FF920F931F930F
:1047E000CF93DF93F62E142F682F70E090E080E0D7
:1047F0000E94623F4B015C01CCEBD1E18CA69DA6EF
:10480000AEA6BFA66F2D70E090E080E00E94623FF0
:104810006B017C01C8AAD9AAEAAAFBAA612F70E0A1
:1048200090E080E00E94623F6CAB7DAB8EAB9FABB3
:104830002BA549A55AA538A5AFA1C7E3D2E1E881C8
:10484000F98184869586A686B786C08AD18AE28A4F
:10485000F38A648B758B868B978B108E118E128EDC
:10486000138E148E158E168E178E10A211A212A200
:1048700013A214A215A216A217A251A740A7A2A77D
:1048800033A724A78CE490E0A0E081879287A387D8
:1048900088E9E82E01E221E241E062E0CF010E94D6
:1048A000D421688179818091351290913612DF91FF
:1048B000CF911F910F91FF90EF90DF90CF90BF901D
:1048C000AF909F908F900C94751FEF920F93CF93A2
:1048D000DF93682F70E090E080E00E94623FECEB95
:1048E000F1E165837683878390872481A281B381F8
:1048F00031814081C7E3D2E1E881F981648775871E
:1049000086879787108A118A128A138A148A158AD1
:10491000168A178A108E118E128E138E148E158E93
:10492000168E178E10A211A212A213A214A215A203
:1049300016A217A2B1A7A0A742A733A724A78CE469
:1049400090E0A0E081879287A38788E9E82E01E2C2
:1049500021E241E062E0CF010E94D42168817981A7
:104960008091351290913612DF91CF910F91EF9097
:104970000C94751F88E594E00E94AB1E80E00E94B5
:1049800065240E941F198091B80D9091B90D01976F
:104990009093B90D8093B80D089584E894E00E9437
:1049A000AB1E81E00E9465240E941F198091B80D02
:1049B0009091B90D01979093B90D8093B80D08951A
:1049C000CF92DF92EF920F931F93CF93DF938CE9F7
:1049D00094E00E94AB1EC0EDDDE01C8582E08C8778
:1049E0002CEB31E197E3C92E92E1D92ED601ED915E
:1049F000FC91D901D9964C91D997D8966C9114868F
:104A0000158616861786108A118A128A138A848B55
:104A100011861286138622E3E22E09E029E0CF01F7
:104A20000E94D4211C87F60160817181809135122A
:104A3000909136120E94751FDF91CF911F910F91B7
:104A4000EF90DF90CF900C941F19CF93DF93EC0180
:104A5000A881B981EB01E881F9811097F1F03097D5
:104A6000B1F4EC018C819D81892BC9F08C9190E08F
:104A70000BC0DB0114968D919C91892B81F0808174
:104A800090E0919581959109DF91CF910895BF01B3
:104A9000CD01DF91CF910C94BA44309751F790E05B
:104AA00080E0F2CF0F931F93CF93DF93EC018881C7
:104AB0009981009759F02A813B812617370730F0FA
:104AC00081E0DF91CF911F910F9108958B016F5F6E
:104AD0007F4F0E94BC43009759F0998388831B83C2
:104AE0000A832C813D81232B59F7FC011082E8CFEA
:104AF00080E0E7CFEF92FF920F931F93CF93DF9366
:104B0000EC01FB01E080F180E114F10411F104817A
:104B1000158101151105A9F08C819D81080F191FC0
:104B2000B801CE010E945225882399F0288139814D
:104B30008C819D81B701820F931F0E94C3441D8306
:104B40000C83CE01DF91CF911F910F91FF90EF90D9
:104B50000895CE010E945A21F4CFEF92FF920F9355
:104B60001F93CF93DF93EC017B018A01BA010E946E
:104B7000522581110BC0CE010E945A21CE01DF9136
:104B8000CF911F910F91FF90EF9008951D830C839B
:104B9000B701888199810E94C344F0CFFB01019045
:104BA0000020E9F73197AF01461B570B0C94AD2558
:104BB0000F931F93CF93DF9300D000D000D0CDB7D9
:104BC000DEB78C01862FF8011182108213821282C7
:104BD000158214824AE0BE016F5F7F4F90E00E9411
:104BE000333FBE016F5F7F4FC8010E94CE252996DB
:104BF0000FB6F894DEBF0FBECDBFDF91CF911F91EE
:104C00000F9108950F931F93CF93DF93CDB7DEB726
:104C1000A1970FB6F894DEBF0FBECDBF8C01CB01BC
:104C2000BA01F80111821082138212821582148255
:104C30002AE0AE014F5F5F4F0E94113FBE016F5FE0
:104C40007F4FC8010E94CE25A1960FB6F894DEBF13
:104C50000FBECDBFDF91CF911F910F910895CF93DC
:104C6000DF93EC01FB018617970749F060817181A2
:104C70006115710541F0448155810E94AD25CE0139
:104C8000DF91CF9108950E945A21F9CFFC01118242
:104C9000108213821282158214820C942F26FC013A
:104CA000118210821382128215821482FB010190FC
:104CB0000020E9F73197AF01461B570B0C94AD2547
:104CC000AF92BF92CF92DF92EF92FF920F931F931A
:104CD000CF93DF936C015B017A01890124173507BB
:104CE00020F48F2D7901042F182F6AE174E0C6019A
:104CF0000E944F26D5011496CD91DC91EC16FD064D
:104D0000E0F40C171D0708F4E801D501ED91FC91C2
:104D10001197EC0FFD1F108110826D917C916E0D2B
:104D20007F1DC60161157105A1F00E94CE25F50118
:104D300080819181C80FD91F1883C601DF91CF915F
:104D40001F910F91FF90EF90DF90CF90BF90AF90A9
:104D500008950E945A21EBCF0F931F93CF93DF93B7
:104D600000D000D0CDB7DEB78C010E944B1D65EBA3
:104D700074E0012B11F060EC74E0CE0101960E940A
:104D80004F2625EE3FEAAE014F5F5F4F65E070E0D2
:104D900085E090E00E949F13CE0101960E946C2155
:104DA0000E94251D26960FB6F894DEBF0FBECDBF1C
:104DB000DF91CF911F910F910895EF92FF920F9382
:104DC0001F93CF93DF93CDB7DEB72C970FB6F89430
:104DD000DEBF0FBECDBF8C016AE174E0CE01079645
:104DE0000E944F260F5F1F4F0130110509F443C089
:104DF00044F5012BB1F1BE01695F7F4FCE010196F1
:104E00000E9446269701AE014F5F5F4F61E470E05C
:104E100086E490E00E949F13CE0101960E946C21CF
:104E2000CE0107960E946C212C960FB6F894DEBF37
:104E30000FBECDBFDF91CF911F910F91FF90EF90EB
:104E400008950230110511F103301105A1F66DEE40
:104E500074E0CE0107960E94CE25E12C88EFF82E53
:104E6000CACF6CEC74E0CE0107960E94CE25EE24EA
:104E7000EA94FE2CC0CF67ED74E0CE0107960E9445
:104E8000CE2520EEE22E27E0F22EB5CF62EE74E0C2
:104E9000CE0107960E94CE2590EEE92EFF24FA94CB
:104EA000AACF0F931F93CF93DF93CDB7DEB72C9785
:104EB0000FB6F894DEBF0FBECDBF8C016AE174E07F
:104EC000CE0107960E944F260130110509F440C01B
:104ED00068F00230110509F444C067E275E0CE01C4
:104EE00007960E94CE2500E21DEF0EC065E875E032
:104EF000CE0107960E94CE251092410D88EF94E0D6
:104F00000E94AB1E00E018EFBE01695F7F4FCE012B
:104F100001960E9446269801AE014F5F5F4F6CE2FA
:104F200070E085E090E00E949F13CE0101960E9400
:104F30006C21CE0107960E946C212C960FB6F89436
:104F4000DEBF0FBECDBFDF91CF911F910F910895AE
:104F500065E075E0CE0107960E94CE2500EE17E0D1
:104F6000D3CF66E175E0CE0107960E94CE250FE112
:104F700010E0CACF20914002309141022817390732
:104F800041F090934102809340020E94512781E0BA
:104F9000089580E008950F931F93CF93DF93CDB7CB
:104FA000DEB762970FB6F894DEBF0FBECDBF8C019F
:104FB00020919F123091A012FC01848195812817C5
:104FC000390741F4B8018BE992E10E942525892B2C
:104FD00009F45CC0B8018BE992E10E942F260E947F
:104FE000141D0E944B1DF80184819581489708F497
:104FF00058C026E130E050E040E0B801CE0107960D
:105000000E94602668E375E0CE0101960E944F265B
:10501000BE01695F7F4FCE0101960E947A25BC01D7
:10502000CE010D960E94462620EE3FEFAE01435F73
:105030005F4F68EC70E090E080E00E949F13CE012B
:105040000D960E946C21CE0101960E946C21CE012A
:1050500007960E946C21F8012481358146E150E0D9
:10506000B801CE0101960E94602620EE3FEFAE010E
:105070004F5F5F4F60ED70E090E080E00E949F1313
:10508000CE0101960E946C210E94251D62960FB6EA
:10509000F894DEBF0FBECDBFDF91CF911F910F916E
:1050A000089568E375E0CE0101960E944F26B8018D
:1050B000CE0101960E947A25BC01CE0107960E947E
:1050C000462620EE3FEFAE01495F5F4F68EC70E08F
:1050D00090E080E00E949F13CE0107960E946C2111
:1050E000CE0101960E946C21CFCF2F923F924F921A
:1050F0005F926F927F928F929F92AF92BF92DF9258
:10510000EF92FF920F931F93CF93DF93CDB7DEB74C
:1051100068970FB6F894DEBF0FBECDBF0E944B1D3F
:1051200080910002909101022091370D222309F411
:10513000C9C12091400230914102232B09F493C14F
:10514000029751F16EE375E0CE0101960E944F2661
:1051500020EE37E0AE014F5F5F4F63E770E085E020
:1051600090E00E949F13CE0101960E946C2160E5A1
:1051700075E0CE0101960E944F2620EE37E0AE0189
:105180004F5F5F4F6BE770E085E090E00E949F13F8
:10519000CE0101960E946C2182E090E09093010282
:1051A000809300020E94251D6091360D8091980821
:1051B000909199086817190609F453C0CE014396D7
:1051C0000E94D8256091360D85EF860F893508F04D
:1051D000ABC1CE0101960E94D82563E975E0CE01EE
:1051E0000D960E944F26BE01635F7F4FCE0107964A
:1051F0000E944626BE016F5F7F4FCE0107960E9438
:105200007A25BC01CE0143960E942F26CE01079637
:105210000E946C21CE010D960E946C21CE01019658
:105220000E946C218091370D882309F487C1BE014B
:105230006D5E7F4FCE0101960E9446262FEF3FEF15
:10524000AE014F5F5F4F6AE570E087E390E00E9438
:105250009F13CE0101960E946C21CE0143960E94BD
:105260006C21D090410D6D2D70E080919608909149
:1052700097086817790709F4D0C08CE390EE892E5F
:1052800097E0992E8D1550F08EE120EE822E992414
:105290009A948D1518F0812C88EF982EA090560DB9
:1052A000B12C35018AE0680E711CE090570DF12C8D
:1052B000072E000C880B990B0E94643F20E030E021
:1052C00048EC52E40E94EE409B01AC0160E070E0CB
:1052D00080E89FE30E94814020E030E040E252E419
:1052E0000E94C33F1B012C01B7010F2C000C880B3F
:1052F000990B0E94643F9B01AC01C201B1010E9465
:1053000082400E9467411B0110E000E09301AB0165
:10531000B501C7010E945F13A701485D5F4F84017B
:105320009301B501C1010E945F138FEF8D0D89308C
:1053300070F465E975E0CE0101960E944F26CE011A
:1053400001960E94CB27CE0101960E946C210E94FB
:105350004B1D6D2DCE0143960E94D8258091410DA5
:105360009FEF980F993008F0F0C063E975E0CE0127
:1053700007960E944F26BE01695F7F4FCE010196BE
:105380000E944626BE016D5E7F4FCE0101960E94AF
:105390007A25BC01CE0143960E942F26CE010196AC
:1053A0000E946C21CE0107960E946C2166EC75E08C
:1053B000CE0107960E944F26BE016D5E7F4FCE0143
:1053C0000D960E944626BE01695F7F4FCE010D9665
:1053D0000E947A25BC01CE0101960E94462660916A
:1053E000560D70E08091570D90E02FEF3FEFAE012A
:1053F0004F5F5F4FC2960E949F13CE0101960E949D
:105400006C21CE010D960E946C21CE0107960E9460
:105410006C21CE0143960E946C218091360D90E064
:1054200090939908809398088091410D90E0909313
:1054300097088093960868960FB6F894DEBF0FBE63
:10544000CDBFDF91CF911F910F91FF90EF90DF9033
:10545000BF90AF909F908F907F906F905F904F9094
:105460003F902F900895019751F16CE575E0CE01C2
:1054700001960E944F262FEF37E0AE014F5F5F4F3E
:1054800063E770E085E090E00E949F13CE010196F3
:105490000E946C216FE675E0CE0101960E944F26B6
:1054A00020EE37E0AE014F5F5F4F6BE770E085E0C5
:1054B00090E00E949F13CE0101960E946C2181E032
:1054C00090E06CCE892B09F46DCE61E875E0CE01D9
:1054D00001960E944F2620E23DEFAE014F5F5F4FE5
:1054E00063E770E085E090E00E949F13CE01019693
:1054F0000E946C216FE675E0CE0101960E944F2656
:1055000020EE37E0AE014F5F5F4F6BE770E085E064
:1055100090E00E949F13CE0101960E946C21109290
:105520000102109200023ECE6A3008F07BCECE011E
:1055300001960E94D82562E975E051CE6AE775E0D0
:10554000CE0101960E944F2679CE81112FCF63ECB8
:1055500075E0CE0143960E94CE2528CFEF92FF92B0
:105560000F931F93CF93DF93CDB7DEB76E970FB630
:10557000F894DEBF0FBECDBF8C017B01FC012481FE
:1055800035818091991290919A122817390741F428
:1055900065E972E1C8010E942525892B09F47DC0C7
:1055A000B80185E992E10E942F261C8A1B8A1E8A77
:1055B0001D8A188E1F8A4AE0BE016F5F7F4FC701A8
:1055C0000E94063FBE016F5F7F4FCE0143960E944F
:1055D000CE2568EC75E0CE0101960E944F26BE01F3
:1055E0006D5E7F4FCE0101960E947A25BC01CE01EF
:1055F00049960E94462620E038EFAE01475E5F4F95
:1056000066E970E090E080E00E949F13CE01499629
:105610000E946C21CE0101960E946C21CE0143961E
:105620000E946C210E944B1DF801848195814C974A
:1056300008F440C02BE130E050E040E0B801CE017A
:1056400001960E94602620E038EFAE014F5F5F4F69
:105650006AEA70E090E080E00E949F13CE0101961C
:105660000E946C21F801248135814BE150E0B801A2
:10567000CE0101960E94602620E038EFAE014F5F18
:105680005F4F62EB70E090E080E00E949F13CE01DC
:1056900001960E946C210E94251D6E960FB6F8940B
:1056A000DEBF0FBECDBFDF91CF911F910F91FF9055
:1056B000EF900895B801CE0101960E94462620E0A1
:1056C00038EFAE014F5F5F4F6AEA70E0DCCF1F93A7
:1056D000CF93DF93CDB7DEB768970FB6F894DEBFF0
:1056E0000FBECDBF0E94141D1091540D112329F13E
:1056F0008091BE0D882389F164EE75E0CE0143965A
:105700000E944F2610E063E070E0CE0143960E94B5
:10571000AE2ACE0143960E946C21112361F0CE0186
:1057200007960E946C21CE0101960E946C21CE0149
:105730000D960E946C211092BE0D1092B90D109220
:10574000B80D1092540D68960FB6F894DEBF0FBED8
:10575000CDBFDF91CF911F91089561ED75E0CE012E
:105760000D960E944F2661EE75E0CE0101960E94D3
:105770004F26BE016F5F7F4FCE0107960E944626DF
:10578000BE01635F7F4FCE0107960E947A25BC0160
:10579000CE0143960E944626B6CF2F923F924F925B
:1057A0005F926F927F928F929F92AF92BF92CF92B1
:1057B000DF92EF92FF920F931F93CF93DF93CDB7BA
:1057C000DEB7C559D1090FB6F894DEBF0FBECDBF05
:1057D00088E19EE00E944318892B11F40C94023456
:1057E00088E19EE00E9421188C01CD56DF4F88830E
:1057F000C359D0401092580D20915B0D30915C0D33
:105800002131310508F03CC0F9018827E55FF34DEF
:105810008F4F0C94D141232C232CC22CDD2CF42C43
:10582000FC2C062D102D1A2D3C2D562D6E2D862D5F
:10583000142E142E802E802E81E090E090935C0D2B
:1058400080935B0DC5CF8091640DCD56DF4F2881CD
:10585000C359D0402D3F09F081C022E030E03093A1
:105860005C0D20935B0D10929D0800939C088E7F29
:105870008093640D8FEF9FEF90939B0880939A081D
:105880008091580D8130A9F42091600D3091610D07
:105890009091A00890935E0D2115310521F410928E
:1058A000630D1092620D2F5F3F4F3093610D209377
:1058B000600D90919D089093700F20915B0D309139
:1058C0005C0D3093460D2093450D90915D0D9093A6
:1058D000470D90915E0D9F5F9093480D2091600D54
:1058E0003091610D30934B0D20934A0D20915A0D4C
:1058F00030E030934D0D20934C0D9091640D9093BA
:105900004E0D10925A0D823041F42091AE09309123
:10591000AF0930936E0F20936D0F9EEF980F92306A
:1059200008F043C481E080935A0D1092580DCD5673
:10593000DF4FF881C359D040FD3F09F07DCF82E0B1
:1059400090E090935C0D80935B0D10929D088FEF1B
:105950009FEF90939B0880939A083ACFCD56DF4FE4
:105960003881C359D0403E3F09F049C722E030E0BA
:1059700030935C0D20935B0D10929D0800939C0862
:10598000816076CF00939D0810925D0D602F8AE9AB
:1059900098E00E9473198091640D80FF07C01092F7
:1059A0009E0810929F0885E090E002C083E090E09E
:1059B00090935C0D80935B0D63CF00939E08C801AC
:1059C0008E7F9927892B41F080915A0D8F5F8093AC
:1059D0005A0D81E090E0ECCF602F8AE998E00E94B8
:1059E000731984E090E0E4CF00939F08602F8AE968
:1059F00098E00E947319D7CF0093A008602F8AE91E
:105A000098E00E94731986E090E0D2CF0093A1083D
:105A1000602F8AE998E00E94731987E090E0C8CF70
:105A20000093A208602F8AE998E00E94731988E029
:105A300090E0BECFCD56DF4FB881C359D0408B2FF9
:105A400090E0A0E08093A3089093A408A093A508F9
:105A5000602F8AE998E00E9473198091640D80FF9D
:105A600008C080919D08882309F44DC08BE090E028
:105A70009FCF89E090E09CCF8091A3089091A408EB
:105A8000A091A508CD56DF4FE881C359D0409E2B89
:105A90008093A3089093A408A093A508602F8AE997
:105AA00098E00E9473198AE090E082CF8091A30869
:105AB0009091A408A091A508CD56DF4FF881C35955
:105AC000D040AF2B8093A3089093A408A093A5087F
:105AD000602F8AE998E00E947319C3CFE0915D0DB1
:105AE00081E08E0F80935D0DF0E0EA55F74F008363
:105AF000602F8AE998E00E94731990915D0D809162
:105B00009D089813BDCE8CE090E052CF8091A30801
:105B10009091A408A091A508AC016A2F70E0EAE07A
:105B20008E2E912CA12CB12CC12CD12C76012AE0E7
:105B3000D701C601880D991DAA1DBB1D0196A11D87
:105B4000B11DB695A79597958795289FF001299F38
:105B5000F00D1124E856FC4F408051806280738024
:105B6000441555056605770568F54C015D0131E082
:105B7000831A9108A108B108C814D904EA04FB04E7
:105B8000B8F28AE08C9DF0018D9DF00D1124E8564D
:105B9000FC4F80819181A281B381481759076A0720
:105BA0007B07C1F464818AE998E00E9473198091AF
:105BB0009A0890919B08992708171906A1F48DE07F
:105BC00090E013C06C017D01441655066606770609
:105BD000C0F6D2CF8EE090E090935C0D80935B0D89
:105BE0000093AE094DCE8EE090E090935C0D8093D3
:105BF0005B0D0093AE0980915D0D9AE09C9DF001D4
:105C00009D9DF00D1124E856FC4F4681841708F045
:105C100037CE50E090E0481B590B70E060E08A55A9
:105C2000974F0E94B3442CCE2E303105B1F08091B5
:105C30009B08CC56DF4F8883C459D040CB56DF4FEA
:105C40001882C559D040CC56DF4FA881B981C459BC
:105C5000D04081E00A171B0609F082E08093580DBE
:105C60000093AF0980919E0880FF17C08091580D66
:105C7000823051F480E190E090935C0D80935B0D55
:105C80008DE08093650DFCCD8FE090E090935C0DEE
:105C900080935B0D1092580DF3CFE091660DF0915B
:105CA000670D309749F002A4F3A5E02D3097A9F4D1
:105CB0008091580D823001F581E090E090935C0D69
:105CC00080935B0D83E291E0EAE9F8E0ADE6BFE0A6
:105CD00001900D920197E1F7D3CD8091A3089091A7
:105CE000A408A091A508AC016A2F70E088E59DE0AA
:105CF00019958111E1CFDCCF83E08093580DDCCF83
:105D00008091650DEDE0F0E0E81BF109E055F64FFC
:105D1000008381508093650D811171C58090660D5F
:105D20009090670D81E08114910409F4CEC1209018
:105D3000680D3090690D87E696EEA9E0BAE62596E3
:105D40008CAF9DAFAEAFBFAF259785E89EEAA7E6C3
:105D5000BBEB29968CAF9DAFAEAFBFAF299782E763
:105D600093EFAEE6BCE32D968CAF9DAFAEAFBFAF69
:105D70002D978AE395EFAFE4B5EA61968CAF9DAFBE
:105D8000AEAFBFAF61978FE792E5AEE0B1E5659644
:105D90008CAF9DAFAEAFBFAF65978CE898E6A5E03E
:105DA000BBE969968CAF9DAFAEAFBFAF69978BEA89
:105DB00099EDA3E8BFE16D968CAF9DAFAEAFBFAFDD
:105DC0006D9789E19DECA0EEBBE5A1968CAF9DAFF0
:105DD000AEAFBFAFA197A5961CAE1DAE1EAE1FAE57
:105DE000A59720E230E040E050E0B401665F7F4FCD
:105DF000CE0101960E94061F2AE030E040E050E00C
:105E00006CE978E0CE0101960E94061F20919D0862
:105E100030E050E040E066EA78E0CE0101960E9472
:105E2000061F22E030E040E050E06EEA79E0CE016B
:105E300001960E94061F27E030E040E050E060EB52
:105E400079E0CE0101960E94061FBE016B587F4F7C
:105E5000CE0101960E94742146E050E067EB79E0A4
:105E6000CE018B589F4F0E949D44892B21F082E0E8
:105E700090E0D4018FC05090B009AE961FAEAE979F
:105E8000AF961FAEAF97E0961FAEE097E1961FAEBC
:105E9000E197E2961FAEE297E3961FAEE397E49692
:105EA0001FAEE497E5961FAEE59786E0E1EBF9E0DB
:105EB000DE01A359BF4F01900D928A95E1F721149D
:105EC000310411F1F10180819181E091A1082091CB
:105ED000A208D101712C612C86159705C1F013968B
:105EE0003C911397E3130BC014963C911497231322
:105EF00006C012963C911297531609F4F0C0FFEFBA
:105F00006F1A7F0A1996E8CF83E090E0B2CF4097EE
:105F100018F084E090E0ADCFAE962FADAE97AF967F
:105F20003FADAF97E0964FADE097E1965FADE1975B
:105F3000E2966FADE297E3967FADE397E4968FAD7F
:105F4000E497E5969FADE59720583247444A5F4F66
:105F50006F4F7F4F8F4F9F4FD4011296AC90129787
:105F60001396BC9013971496CC9014971596DC90CA
:105F700015971696EC9016971796FC90179718960B
:105F80000C91189719961C9119970E947A42F0F477
:105F900085E090E09D969C938E939C97E091660D92
:105FA000F091670D02A4F3A5E02D80E0309709F48D
:105FB0008CC08091A3089091A408A091A508AC0181
:105FC0006A2F70E088E59DE019957FC089E0869D85
:105FD000D001879DB00D1124A20DB31D1396EC9333
:105FE00013978091A20814968C93149712965C9242
:105FF000C3010196F1019183808389E0869DD001E0
:10600000879DB00D11241596A20DB31D86E0E1EB1E
:10601000F9E001900D928A95E1F7AE963FACAE970C
:10602000AF965FACAF97E0966FACE097E1967FAC30
:10603000E197E2964FACE297E3962FACE397E496B4
:10604000FFADE497E596EFADE597D4011296AC90DD
:1060500012971396BC9013971496CC90149715969C
:10606000DC9015971696EC9016971796FC9017975C
:1060700018960C91189719961C911997232D352D68
:10608000A301642D722D8F2F9E2F0E947A42C1F0A2
:10609000B8F012963C92129713965C92139714964E
:1060A0006C92149715967C92159716964C921697AB
:1060B00017962C9217971896FC9318971996EC93AD
:1060C00081E090E0F40195A784A720915B0D3091C9
:1060D0005C0D2031310509F063C082E00ECEA6963A
:1060E0001FAEA697A7961FAEA797A8961FAEA89714
:1060F000A9961FAEA997AA961FAEAA97AB961FAEF8
:10610000AB97AC961FAEAC97AD961FAEAD9789E03E
:10611000869DF001879DF00D11243596E20DF31D4B
:1061200086E0DE01AB59BF4F01900D928A95E1F7F1
:10613000AE962FADAE97AF963FADAF97E0964FAD11
:10614000E097E1965FADE197E2966FADE297E39657
:106150007FADE397A696AFACA697A796BFACA797DF
:10616000A896CFACA897A996DFACA997AA96EFAC52
:10617000AA97AB96FFACAB97AC960FADAC97AD962C
:106180001FADAD97E4968FADE497E5969FADE5978B
:106190000E947A4211F008F030CF86E090E069CE9C
:1061A000882309F4A9CD81E0A8CD882309F410CB78
:1061B00088EE95E00E944B1E8091760F9091770FAC
:1061C000A091780FBC018A2F90E00E949C1E8091C4
:1061D000760F9091770FA091780F8D349105A105DE
:1061E00009F4B4C2C0F40097A10509F46AC201978A
:1061F000A10509F0EDCA82ED96E00E94AB1E109158
:106200007D0F89EE96E00E944B1E812F0E94C11ED9
:106210001093410DDDCA8D369105A10509F416C212
:106220008F369105A10509F0D3CA8FEF95E00E9442
:10623000AB1E8091790F8093520F80917A0F8093DB
:10624000530F80917B0F8093540F80917C0F80932C
