:100000000C94B3100C94E4100C94E4100C94E410D1
:100010000C94E4100C94E4100C94E4100C94E41090
:100020000C94E4100C94E4100C94E4100C94E41080
:100030000C94E4100C94E4100C94E4100C94E41070
:100040000C94E4100C94E4100C94E4100C94E41060
:100050000C94E4100C94E4100C94E4100C94C4324E
:100060000C94E4100C9498330C946E330C94E410BC
:100070000C94E4100C94E4100C94E4100C94E41030
:100080000C94E4100C94E4100C94E4100C94E41020
:100090000C94E4100C94E4100C94E4100C94E41010
:1000A0000C94E4100C94E4100C94E4100C94E41000
:1000B0000C94E4100C94E4100C94E4100C94E410F0
:1000C0000C94E4100C94E4100C94E4100C94E410E0
:1000D0000C94E4100C94E4100C9438330C940E330C
:1000E0000C94E4100C94D9170C9485150C940217F9
:1000F0000C94A5160C94AD1D0C947A160C94F62253
:100100000C9493150C94CB160C94B91D0C94EC2AFA
:100110000C94A1150C94A9250C94CE330C94E416E0
:100120000C94492D0C94B7160C9472160C94BD2B9C
:100130000C94803D0C94D92B0C949D160C94DA16DB
:100140000C9481150C9405230C94DD2C0C94BD1D8E
:100150000C94AA250C94E32B0C9471150C947B152C
:100160000C943E270C9493230C9489160C94C52B65
:100170000C94B51D0C94F8160C94E3170C943318DA
:100180000C946E150C9493160C946A150C94B11D76
:100190000C94EE160C9483180C9441180C948F1543
:1001A0000C949C150C94372C0C941F2C0C949715C4
:1001B0000C9410180C94CF2B0C948B2B0C94621570
:1001C0000C9477150C94A62B0C9489150C94D018CC
:1001D0000C94052C0C947F160C944F2C0C946615E3
:1001E0000C941F180C945C150C94AD160C94C1164D
:1001F0000C94302A0C949D150C940C170608206062
:1002000004000000000000050000065F0600060074
:1002100007030007030600247E247E240500242B08
:100220006A1200060063130864630600364956200C
:1002300050040000070300000400003E41000004D9
:100240000000413E00000600083E1C3E0806000873
:10025000083E0808040000E06000000600080808E6
:100260000808040000606000000600201008040276
:1002700006003E5149453E050000427F4000060011
:100280006251494946060022494949360600181478
:10029000127F1006002F4949493106003C4A49495E
:1002A0003006000171090503060036494949360642
:1002B00000064949291E0400006C6C00000400007F
:1002C000EC6C0000050008142241000600242424E0
:1002D00024240600004122140806000201590906E0
:1002E00006003E415D551E06007E1111117E06007E
:1002F0007F4949493606003E4141412206007F417F
:1003000041413E06007F4949494106007F090909EC
:100310000106003E4149497A06007F0808087F052A
:100320000000417F41000600304040403F06007F12
:100330000814224106007F4040404006007F02042E
:10034000027F06007F0204087F06003E4141413ED5
:1003500006007F0909090606003E4151215E06009C
:100360007F0909196606002649494932060001013C
:100370007F010106003F4040403F06001F20402013
:100380001F06003F403C403F06006314081463060C
:100390000007087008070500714945430005000083
:1003A0007F41410006000204081020050000414181
:1003B0007F000600040201020406808080808080A5
:1003C000040000030700000600205454547806007F
:1003D0007F444444380600384444442806003844E6
:1003E00044447F060038545454080500087E090927
:1003F00000060018A4A4A47C05007F04047800056E
:100400000000007D400005004080847D0005007FE5
:1004100010284400050000007F400006007C0418FE
:10042000047805007C04047800060038444444380D
:100430000600FC44444438060038444444FC0600AA
:100440004478440408060008545454200500043E2F
:1004500044240005003C40207C0006001C20402075
:100460001C06003C6030603C05006C10106C000500
:10047000009CA0603C0005006454544C000500083A
:100480003E414100040000007700000600004141A9
:100490003E080500020102010006003C2623263C1E
:1004A0000B102060060000000000000000000000AB
:1004B0000000000000000000000000070000000035
:1004C00000007C00FF33FF337C00000000000000D0
:1004D000000008000000003C003C00000000003C60
:1004E000003C000000000000000B0002101E901FE6
:1004F000F0037E021E1E901FF0037E021E001000FD
:100500000900007804FC0CCC0CFF3FFF3FCC0CCC66
:100510000F8807000000000B00303838381C380EF8
:1005200000078003C001E038703838381C000A002A
:1005300000001FB83FFC31C621E2373E1E1C1C00E4
:1005400036002200000600000000000027003F00E7
:100550001F00000000000000000000000800000074
:1005600000F003FC0FFE1F073801200120000000EF
:100570000000000800000000012001200738FE1FD5
:10058000FC0FF003000000000000090000980CB808
:100590000EE003F80FF80FE003B80E980C0000000F
:1005A00000090000800180018001F00FF00F800140
:1005B0008001800100000000060000000000000033
:1005C000B800F800780000000000000000000009FA
:1005D0000000800180018001800180018001800194
:1005E000800100000000060000000000000038004C
:1005F000380038000000000000000000000B001868
:10060000001C000E00078003C001E00070003800ED
:100610001C000E000BF807FE1F061E03338331C3B8
:1006200030633033301E18FE1FF8070A0000000048
:100630000C300C300E30FF3FFF3F003000300030F8
:1006400000000B1C301E38073C033E03378333C3C6
:1006500031E33077303E301C300B0C0C0E1C073869
:10066000C330C330C330C330C330E7397E1F3C0EC4
:100670000BC003E003700338031C030E030703FFE2
:100680003FFF3F000300030B3F0C7F1C63386330C8
:100690006330633063306330E338C31F830F0BC0B4
:1006A0000FF01FF839DC30CE30C730C330C330C351
:1006B00039801F000F0B0300030003000330033CCD
:1006C000030FC303F3003F000F0003000B000FBC38
:1006D0001FFE39E730C330C330C330E730FE39BCCA
:1006E0001F000F0B3C007E00E730C330C330C3381F
:1006F000C31CC30EE707FE03FC0006000000000059
:1007000000701C701C701C00000000000000000045
:100710000006000000000000709C70FC707C00006F
:100720000000000000000000090000C000E001F02F
:100730000338071C0E0E1C07380330000000000AA7
:1007400000006006600660066006600660066006DF
:10075000600660060000090000033007380E1C1C0C
:100760000E3807F003E001C000000000000A1C0082
:100770001E00070003008337C337E30077003E0005
:100780001C0000000BF80FFE1F0718F333FB371B8C
:1007900036FB37FB370736FE03F8010A0038003F07
:1007A000E007FC061F061F06FC06E007003F0038B6
:1007B00000000AFF3FFF3FC330C330C330C330E700
:1007C00030FE39BC1F000F00000AF003FC0F0E1CA6
:1007D000073803300330033007380E1C0C0C0000C0
:1007E0000AFF3FFF3F033003300330033007380E6A
:1007F0001CFC0FF00300000AFF3FFF3FC330C33073
:10080000C330C330C330C3300330033000000AFFAD
:100810003FFF3FC300C300C300C300C300C30003C6
:1008200000030000000AF003FC0F0E1C0738033021
:10083000C330C330C330C73FC63F00000AFF3FFF8D
:100840003FC000C000C000C000C000C000FF3FFFAC
:100850003F0000080000000003300330FF3FFF3F6F
:10086000033003300000000000000A000E001E00EC
:100870003800300030003000300038FF1FFF070024
:10088000000AFF3FFF3FC000E001F00338071C0EE5
:100890000E1C0738033000000AFF3FFF3F00300006
:1008A0003000300030003000300030003000000AEE
:1008B000FF3FFF3F1E007800E001E00178001E00CE
:1008C000FF3FFF3F00000AFF3FFF3F0E003800F0F0
:1008D00000C0030007001CFF3FFF3F00000AF003B9
:1008E000FC0F0E1C07380330033007380E1CFC0FBA
:1008F000F00300000AFF3FFF3F8301830183018370
:10090000018301C701FE007C0000000AF003FC0F18
:100910000E1C073803300336073E0E1CFC3FF03335
:1009200000000AFF3FFF3F830183018303830783A6
:100930000FC71DFE387C3000000A3C0C7E1CE738D7
:10094000C330C330C330C330C7398E1F0C0F000013
:10095000090000030003000300FF3FFF3F03000303
:10096000000300000000000AFF07FF1F00380030EE
:100970000030003000300038FF1FFF0700000A077A
:10098000003F00F801C00F003E003EC00FF8013FDD
:1009900000070000000AFF3FFF3F001C0006800325
:1009A00080030006001CFF3FFF3F00000A03300FDA
:1009B0003C1C0E3003E001E00130031C0E0F3C0331
:1009C0003000000A03000F003C00F000C03FC03FB1
:1009D000F0003C000F00030000000A0330033C035A
:1009E0003E0333C331E33033301F300F3003300068
:1009F000000800000000FF3FFF3F033003300330DA
:100A000003300000000000000B0E001C00380070D6
:100A100000E000C00180030007000E001C00180861
:100A2000000000000330033003300330FF3FFF3F7E
:100A30000000000000000B6000700038001C000E79
:100A40000007000E001C003800700060000B00C0A2
:100A500000C000C000C000C000C000C000C000C096
:100A600000C000C00700000000000000003E007E43
:100A7000004E0000000000000000000A001C403E84
:100A8000603360336033603360336033E03FC03FD6
:100A900000000AFF3FFF3FC03060306030603060D0
:100AA00030E038C01F800F00000A800FC01FE03800
:100AB00060306030603060306030C0188008000006
:100AC0000A800FC01FE038603060306030E030C016
:100AD00030FF3FFF3F00000A800FC01FE03B603344
:100AE0006033603360336033C0138001000008C09E
:100AF00000C000FC3FFE3FC700C300C3000300006E
:100B000000000000000A8003C0C7E0CE60CC60CCCB
:100B100060CC60CC60E6E07FE03F000009FF3FFF73
:100B20003FC000600060006000E000C03F803F0008
:100B3000000000080000000000306030EC3FEC3F97
:100B4000003000300000000000000800000000003D
:100B50006000E000C060C0ECFFEC7F00000000001F
:100B600000090000FF3FFF3F00038007C00FE01CAB
:100B70006038003000000000080000000000300372
:100B800030FF3FFF3F003000300000000000000A4F
:100B9000E03FC03FE000E000C03FC03FE000E000B9
:100BA000C03F803F00000A0000E03FE03F6000607F
:100BB0000060006000E000C03F803F00000A800F3E
:100BC000C01FE0386030603060306030E038C01FF7
:100BD000800F00000AE0FFE0FF600C601860186002
:100BE000186018E01CC00F800700000A8007C00FC3
:100BF000E01C6018601860186018600CE0FFE0FFEF
:100C000000000A0000E03FE03FC0006000600060BC
:100C1000006000E000C000000008C011E033603355
:100C2000603360336033603F401E0000000000000E
:100C30000860006000FE1FFE3F60306030603000E2
:100C4000300000000000000AE00FE01F0038003014
:100C50000030003000300018E03FE03F00000A6044
:100C600000E0018007001E00380038001E8007E009
:100C700001600000000AE007E01F0038001CE00FE0
:100C8000E00F001C0038E01FE0070000096030E0C2
:100C900038C01D800F0007800FC01DE03860300095
:100CA0000000000900006000E08180E7007E001E77
:100CB0008007E001600000000000096030603860DB
:100CC0003C60366033E031E03060302030000000BE
:100CD000000900008000C001FC1F7E3F0770036018
:100CE0000360036000000000060000000000000038
:100CF00000FF3FFF3F00000000000000000000096F
:100D0000000003600360036007707E3FFC1FC001AA
:100D10008000000000000A100018000C0004000C05
:100D2000001800100018000C00040000000A000F5A
:100D3000800FC00C600C300C300C600CC00C800FAD
:100D4000000F0000FFFFFFFFFFFFFFFFFFFFFFFFA0
:100D5000FFFFFFFFFFFFFFFFFFFFFFFFFFFFFFFFA3
:100D6000FFFFFFFFFFFFFFFFFFFFFFFFFFFFFFFF93
:100D7000FFFFFFFFFFFFFFFFFFFFFFFFFFFFFFFF83
:100D8000FFFFFFFFFFFFFFFFFFFFFFFFFFFFFFFF73
:10111000FFFFFFFFFFFF00000FFFFFFFFFFFFFFFCD
:10112000FFFFFFFFFFFFFFFFFFFFFFE00000007F6B
:10113000FFFFFFFFFFFFFFFFFFFFFFFFFFFFFFFFBF
:10114000FE0000000007FFFFFFFFFFFFFFFFFFFFA4
:10115000FFFFFFFFFFFFF00000000000FFFFFFFFA9
:10116000FFFFFFFFFFFFFFFFFFFFFFFFC0000000CB
:1011700000003FFFFFFFFFFFFFFFFFFFFFFFFFFF3D
:10118000FFFE00000000000007FFFFFFFFFFFFFF62
:10119000FFFFFFFFFFFFFFF800000000000001FF5E
:1011A000FFFFFFFFFFFFFFFFFFFFFFFFFFE000006C
:1011B00000000000007FFFFFFFFFFFFFFFFFFFFFBA
:1011C000FFFFFFC0000000000000003FFFFFFFFF27
:1011D000FFFFFFFFFFFFFFFFFF0000000000000018
:1011E000000FFFFFFFFFFFFFFFFFFFFFFFFFFE00FE
:1011F0000000000000000007FFFFFFFFFFFFFFFFF0
:10120000FFFFFFFFF8000000000000000001FFFFEB
:10121000FFFFFFFFFFFFFFFFFFFFF00000000000E8
:1012200000000000FFFFFFFFFFFFFFFFFFFFFFFFCA
:10123000E00000000000000000007FFFFFFFFFFF54
:10124000FFFFFFFFFFFF8000000000000000000024
:101250001FFFFFFFFFFFFFFFFFFFFFFF000000007A
:101260000000000000000FFFFFFFFFFFFFFFFFFF78
:10127000FFFE0000000000000000000007FFFFFF6D
:10128000FFFFFFFFFFFFFFFC000000000000000069
:10129000000003FFFFFFFFFFFFFFFFFFFFF800005D
:1012A000000000000000000001FFFFFFFFFFFFFF44
:1012B000FFFFFFF00000000000000000000000FF42
:1012C000FFFFFFFFFFFFFFFFFFE000000000000047
:1012D00000000000007FFFFFFFFFFFFFFFFFFFC0D8
:1012E00000000000000000000000003FFFFFFFFFC3
:1012F000FFFFFFFFFF800000000000000000000073
:10130000001FFFFFFFFFFFFFFFFFFF0000000000C7
:10131000000000000000000FFFFFFFFFFFFFFFFFC6
:10132000FF0000000000000000000000000FFFFFB1
:10133000FFFFFFFFFFFFFE000000000000000000B5
:1013400000000007FFFFFFFFFFFFFFFFFC000000A2
:1013500000000000000000000003FFFFFFFFFFFF90
:10136000FFFFFC0000000000000000000000000182
:10137000FFFFFFFFFFFFFFFFF8000000000000007D
:10138000000000000001FFFFFFFFFFFFFFFFF00074
:10139000000000000000000000000000FFFFFFFF51
:1013A000FFFFFFFFF0000000000000000000000051
:1013B00000007FFFFFFFFFFFFFFFE00000000000D5
:1013C00000000000000000007FFFFFFFFFFFFFFFA5
:1013D000C0000000000000000000000000007FFFCF
:1013E000FFFFFFFFFFFFC0000FFFE0000000000055
:1013F000000000007FFFFFFFFFFFFFFF80007FFF77
:10140000FC0000000007FFFFFFFFFFFFFFFFFFFFE3
:10141000FFFF8001FFFFFF000000003FFFFFFFFF15
:10142000FFFFFFFFFFFFFFFF0003FFFFFFC0000004
:1014300000FFFFFFFFFFFFFFFFFFFFFFFFFF000FAA
:10144000FFFFFFE0000003FFFFFFFFFFFFFFFFFFC5
:10145000FFFFFFFE001FFFFFFFF8000007FFFFFF79
:10146000FFFFFFFFFFFFFFFFFFFE003FFFFFFFFC4F
:1014700000000FFFFFFFFFFFFFFFFFFFFFFFFFFE6B
:10148000007FFFFFFFFE00001FFFFFFFFFFFFFFFCA
:10149000FFFFFFFFFFFC00FFFFFFFFFF00001FFF3C
:1014A000FFFFFFFFFFFFFFFFFFFFFFFC01FFFFFF4D
:1014B000FFFF00003FFFFFFFFFFFFFFFFFFFFFFFFA
:1014C000FFFC01FFFC007FFF80003FFFF8000000F1
:1014D00007FFFFFFFFFFFFF803FFF0001FFFC00043
:1014E0003FFE0000000001FFFFFFFFFFFFF807FFC6
:1014F000E00007FFC0007FF80000000001FFFFFFD1
:10150000FFFFFFF807FFC00003FFE0007FF80000C7
:10151000000001FFFFFFFFFFFFF00FFF800001FF52
:10152000E0007FF00000000000FFFFFFFFFFFFF082
:101530000FFF000001FFF0007FF00000000000FF3F
:10154000FFFFFFFFFFF00FFE000000FFF0007FF045
:101550000000000000FFFFFFFFFFFFF01FFE000084
:10156000007FF0007FF00000000000FFFFFFFFFFA2
:10157000FFE01FFC0000007FF8007FF80000000083
:10158000007FFFFFFFFFFFE01FFC0000003FF800AF
:101590007FF800000000007FFFFFFFFFFFE01FFC5F
:1015A0000000003FF8007FFC00000000007FFFFF0C
:1015B000FFFFFFE01FF80000003FF8003FFF0000C2
:1015C0000000007FFFFFFFFFFFE03FF80000003F4B
:1015D000F8003FFFC0000000007FFFFFFFFFFFE0BB
:1015E0003FF80000001FF8001FFFF8000000007F18
:1015F000FFFFFFFFFFE03FF80000001FF8001FFFA4
:10160000FF000000007FFFFFFFFFFFC03FF800006A
:10161000001FF8000FFFFFE00000003FFFFFFFFF8B
:10162000FFC03FF80000001FF80007FFFFFE0000AA
:10163000003FFFFFFFFFFFC03FF80000003FF80042
:1016400003FFFFFFC000003FFFFFFFFFFFC03FF8A9
:101650000000003FF80001FFFFFFF800003FFFFF20
:10166000FFFFFFC03FF00000003FF800007FFFFFDA
:10167000FE00003FFFFFFFFFFFC03FF00000003F04
:10168000F800001FFFFFFF80003FFFFFFFFFFFC0CC
:101690003FF00000003FF8000007FFFFFFE0003FC1
:1016A000FFFFFFFFFFC03FF00000003FF800000019
:1016B000FFFFFFF0003FFFFFFFFFFFC03FF0000014
:1016C000003FF00000001FFFFFF8003FFFFFFFFF9B
:1016D000FFC07FF00000003FF000000003FFFFFCB0
:1016E000003FFFFFFFFFFFC07FF00000003FF00062
:1016F0000000007FFFFE003FFFFFFFFFFFE07FE0F5
:101700000000003FF0000000000FFFFF003FFFFF60
:10171000FFFFFFE07FE00000007FF000000000011D
:10172000FFFF007FFFFFFFFFFFE07FE00000007F83
:10173000F000000000007FFF807FFFFFFFFFFFE061
:101740007FE00000007FF000000000001FFF807FAE
:10175000FFFFFFFFFFE07FE00000007FE0000000F0
:10176000000007FF807FFFFFFFFFFFE07FE000003A
:10177000007FE0000000000003FFC07FFFFFFFFFCD
:10178000FFE0FFE00000007FE0000000000003FF3A
:10179000C07FFFFFFFFFFFF0FFE00000007FE000E1
:1017A0000000000001FFC0FFFFFFFFFFFFF0FFE0B0
:1017B000000000FFE0000000000001FFC0FFFFFF8D
:1017C000FFFFFFF0FFE0000000FFE000000000006E
:1017D00001FFC0FFFFFFFFFFFFF0FFE0000000FF81
:1017E000E0000000000001FFC0FFFFFFFFFFFFF06F
:1017F000FFC0000000FFE0000000000003FFC0FF8A
:10180000FFFFFFFFFFF8FFC0000000FFE000000047
:10181000000003FF81FFFFFFFFFFFFF8FFC0000094
:1018200000FFE000000000000FFF81FFFFFFFFFF4F
:10183000FFFCFFC0000000FFE000000000003FFFD1
:1018400081FFFFFFFFFFFFFDFFC0000000FFFFFF64
:10185000FFFFFFFFFFFF03FFFFFFFFFFFFFFFFC0D3
:10186000000000FFFFFFFFFFFFFFFFFF03FFFFFF81
:10187000FFFFFFFFFFC0000001FFFFFFFFFFFFFFB3
:10188000FFFE03FFFFFFFFFFFFFFFF80000001FFE0
:10189000FFFFFFFFFFFFFFFE07FFFFFFFFFFFFFF51
:1018A000FF80000001FFFFFFFFFFFFFFFFFC07FFBE
:1018B000FFFFFFFFFFFFFF80000001FFFFFFFFFFB3
:1018C000FFFFFFF80FFFFFFFFFFFFFFFFF8000009C
:1018D00001FFFFFFFFFFFFFFFFE00FFFFFFFFFFF25
:1018E000FFFFFF80000001FFFFFFFFFFFFFFFFC0C2
:1018F0001FFFFFFFFFFFFFFFFF80000001FFFFFF53
:10190000FFFFFFFFFF001FFFFFFFFFFFFFFFFF8045
:10191000000001FFFFFFFFFFFFFFC0003FFFFFFFD1
:10192000FFFFFFFFFF80000000000000000000003C
:1019300000003FFFFFFFFFFFFFFFFF8000000000F0
:1019400000000000000000007FFFFFFFFFFFFFFF1F
:10195000FF000000000000000000000000007FFF0A
:10196000FFFFFFFFFFFFFF0000000000000000007E
:1019700000000000FFFFFFFFFFFFFFFFFF00000070
:1019800000000000000000000000FFFFFFFFFFFF5D
:10199000FFFFFF0000000000000000000000000149
:1019A000FFFFFFFFFFFFFFFFFF0000000000000040
:1019B000000000000003FFFFFFFFFFFFFFFFFF002D
:1019C000000000000000000000000007FFFFFFFF14
:1019D000FFFFFFFFFF00000000000000000000000C
:1019E0000007FFFFFFFFFFFFFFFFFF0000000000F9
:1019F000000000000000000FFFFFFFFFFFFFFFFFE0
:101A0000FF8000000000000000000000001FFFFF3A
:101A1000FFFFFFFFFFFFFFC000000000000000000D
:101A20000000003FFFFFFFFFFFFFFFFFFFE00000A0
:101A30000000000000000000007FFFFFFFFFFFFF2D
:101A4000FFFFFFE000000000000000000000007F3A
:101A5000FFFFFFFFFFFFFFFFFFF00000000000009F
:101A60000000000000FFFFFFFFFFFFFFFFFFFFFC84
:101A70000000000000000000000001FFFFFFFFFF6A
:101A8000FFFFFFFFFFFE000000000000000000005D
:101A900003FFFFFFFFFFFFFFFFFFFFFF000000004E
:101AA00000000000000007FFFFFFFFFFFFFFFFFF38
:101AB000FFFF800000000000000000001FFFFFFF8C
:101AC000FFFFFFFFFFFFFFFFC0000000000000005E
:101AD00000003FFFFFFFFFFFFFFFFFFFFFFFE000F2
:101AE00000000000000000007FFFFFFFFFFFFFFF7E
:101AF000FFFFFFFFF8000000000000000000FFFFF4
:101B0000FFFFFFFFFFFFFFFFFFFFFC0000000000E3
:101B100000000003FFFFFFFFFFFFFFFFFFFFFFFFCE
:101B2000FE000000000000000007FFFFFFFFFFFFB6
:101B3000FFFFFFFFFFFFFF80000000000000001F0D
:101B4000FFFFFFFFFFFFFFFFFFFFFFFFFFE00000C2
:101B500000000000007FFFFFFFFFFFFFFFFFFFFF10
:101B6000FFFFFFF000000000000000FFFFFFFFFF8D
:101B7000FFFFFFFFFFFFFFFFFFFE00000000000070
:101B800003FFFFFFFFFFFFFFFFFFFFFFFFFFFFFF61
:101B90008000000000001FFFFFFFFFFFFFFFFFFFAF
:101BA000FFFFFFFFFFFFE000000000007FFFFFFFDF
:101BB000FFFFFFFFFFFFFFFFFFFFFFFFFC00000035
:101BC0000003FFFFFFFFFFFFFFFFFFFFFFFFFFFF20
:101BD000FFFFFF800000001FFFFFFFFFFFFFFFFF71
:101BE000FFFFFFFFFFFFFFFFFFFC000001FFFFFF04
:101BF000FFFFFFFFFFFFFFFFFFFFFFFFFFFFFFFFF5
:101C0000F000FFFFFFFFFFFFFFFFFFFFFFFFFFFFF2
:101C1000FFFFFFFFFFFFFFFFFFFFFFFFFFFFFFFFD4
:101C2000FFFFFFFFFFFFFFFFFFFFFFFFFFFFFFFFC4
:101C3000FFFFFFFFFFFFFFFFFFFFFFFFFFFFFFFFB4
:101C4000FFFFFFFFFFFFFFFFFFFFFFFFFFFFFFFFA4
:10204000FFFF00002100240027002A002D0030009F
:10205000330001010000040107010A010000220011
:10206000250028002B002E00310034000201000062
:10207000050108010B0100002000230026002900B3
:102080002C002F00320000010000030106010901AD
:1020900005050505070508080808020202020A0AE4
:1020A0000808040404040101010101010101030302
:1020B000030303030303040707070C0C0C0C0C0CAD
:1020C0000C0C0202020206060606060606060B0BAA
:1020D0000B0B0B0B0B0B01021020200808102040EB
:1020E00010204080020102010804020101020408DC
:1020F000102040808040201008040201800402016A
:1021000080402010080402010804020101020408B2
:1021100010204080010204081020408000000A0BBB
:1021200002090C0D0E080703040100000000000066
:10213000000000000000000000000000000000009F
:10214000000000000000000012111000000000005C
:10215000000000000000000000000000000000007F
:102160000000CE33803D11241FBECFEFD1E2DEBF91
:10217000CDBF00E00CBF2FE0AEE8B5E001C01D927E
:10218000A139B207E1F715E0A0E0B2E0ECEBF6E828
:1021900000E00BBF02C007900D92AE38B107D9F72F
:1021A00010E1C2EBD0E100E006C021970109802FC9
:1021B000FE010E945340C13BD10780E00807A9F708
:1021C0000E94C7340C944C430C94000080917B0F08
:1021D00090917C0FA0917D0FB0917E0F0197A10986
:1021E000B10980937B0F90937C0FA0937D0FB093E8
:1021F0007E0F892B8A2B8B2B49F4E091390FF091BC
:102200003A0F808190913D0F892B80830895AC0116
:10221000E091350FF091360F808190913E0F892B20
:102220008083E091390FF0913A0F808190913D0FBA
:1022300090959823908380912F0F20E130E060E00B
:1022400070E887FF12C05EBD0DB407FEFDCF4EBD26
:102250000DB407FEFDCFE091390FF0913A0F808168
:1022600090913D0F892B80830895E091310FF0917B
:10227000320F90913B0FDA01A623B7238081AB2B5D
:10228000D9F0982B9083E091330FF091340F808137
:1022900090913C0F892B8083E091330FF091340FA4
:1022A000808190913C0F90959823908376956795C7
:1022B00021503109D1F6CFCF90959823E3CF9C01DF
:1022C000E091350FF091360F808190913E0F9095FF
:1022D00098239083E091390FF0913A0F808190918B
:1022E0003D0F90959823908380912F0F40E150E00F
:1022F00060E070E887FF12C01EBC0DB407FEFDCF82
:102300002EBD0DB407FEFDCFE091390FF0913A0FCD
:10231000808190913D0F892B80830895E091310F4A
:10232000F091320F90913B0FD901A623B723808102
:10233000AB2BD9F0982B9083E091330FF091340FB1
:10234000808190913C0F892B8083E091330FF09135
:10235000340F808190913C0F9095982390837695CF
:10236000679541505109D1F6CFCF90959823E3CF8F
:10237000CF93DF93EB010E945F11CE01DF91CF91EC
:102380000C94071180917B0F90917C0FA0917D0F91
:10239000B0917E0FAC01BD014F5F5F4F6F4F7F4F1C
:1023A00040937B0F50937C0F60937D0F70937E0F53
:1023B000892B8A2B8B2B91F480912F0F87FF04C0E0
:1023C00080E58CBD81E08DBDE091390FF0913A0F31
:1023D000908180913D0F8095892380830895DC0151
:1023E000FB0180913F0F8230B9F0833069F1813079
:1023F00051F58091270F9091280F0197208131810D
:10240000821B930B918380832D913C9111978D9327
:102410009C933183208308958091250F9091260FFE
:1024200001972D913C911197821B930B8D939C9357
:102430008091270F9091280F019720813181821B75
:10244000930B9183808308958091250F9091260F9F
:1024500001972D913C911197821B930B11969C93A0
:102460008E93208131812D933C93EBCF0F931F935B
:10247000CF93DF9300D01F92CDB7DEB79A838983C5
:102480007C836B832091250F3091260F8217930751
:1024900020F52091270F3091280F62177307E8F479
:1024A0008A01BE016D5F7F4FCE0101960E94EF1140
:1024B0000E94C21169817A8180E290E00E94B81185
:1024C0006B817C8181E290E00E94B811B80182E2C8
:1024D00090E00E94B8110E94E6100F900F900F90AC
:1024E0000F90DF91CF911F910F9108950F931F933C
:1024F000CF93DF9300D000D01F921F92CDB7DEB7ED
:102500007C836B835E834D8338872F832091250FD7
:102510003091260F215031092817390708F4C901D5
:102520009A8389838D819E812817390708F4C90110
:102530009E838D838091270F9091280F01972B8187
:102540003C818217930708F49C013C832B832F81E5
:1025500038858217930708F49C0138872F83BE01C2
:102560006D5F7F4FCE0101960E94EF11BE01695F42
:102570007F4FCE0105960E94EF112D813E8189810A
:102580009A812817390720F43A8329839E838D8303
:102590002F8138858B819C812817390720F43C8353
:1025A0002B8398878F830E94C211E0913F0FEE2307
:1025B00079F0E150FF0B23E0EE0FFF1F2A95E1F7C2
:1025C000E00FF11FEE0FFF1FEF5BF04F0081118155
:1025D000B80183E0660F771F8A95E1F7706183E0A9
:1025E00090E00E94B8116D817E8186E390E00E94A8
:1025F000B81169817A8187E390E00E94B8116F81F8
:10260000788588E390E00E94B8116B817C8189E332
:1026100090E00E94B811159507950130110529F138
:10262000ACF46D817E81012B11F182E290E00E9479
:102630005F110E94E61028960FB6F894DEBF0FBE19
:10264000CDBFDF91CF911F910F91089502301105F9
:10265000C9F069817A810330110539F780E290E091
:102660000E94B8116B817C8108C069817A8180E207
:1026700090E00E94B8116F81788581E290E00E941D
:10268000B811D3CF6D817E81E9CF6FEA70E086E328
:1026900090E00E94B81170E060E087E390E00E9453
:1026A000B8116BED70E088E390E00E94B81170E023
:1026B00060E089E390E00C94B8118F929F92AF9202
:1026C000BF92CF92DF92EF92FF920F931F93CF931F
:1026D000DF935C014B01EA017901680107E010E03A
:1026E0000E9476120E94C2118FEFE81AF80AE818C9
:1026F000F9082196CA19DB09EC9E5001ED9EB00C39
:10270000FC9EB00C1124A114B10439F0C6010E9442
:10271000071181E0A81AB108F6CF0E94E610DF91F8
:10272000CF911F910F91FF90EF90DF90CF90BF90CE
:10273000AF909F908F900C9445132F923F924F92A1
:102740005F926F927F928F929F92AF92BF92CF9241
:10275000DF92EF92FF920F931F93CF93DF9300D0FE
:1027600000D000D01F921F92CDB7DEB75B015B8314
:102770004A83522E432E7C01712C272D30E0EA81B2
:10278000FB81848195812817390708F0D4C08081A6
:102790009181009709F4A5C0820F931FFC018081ED
:1027A000F091750FFA872091790FF29F9001112413
:1027B0002F5F3F4F082E000C990B4091770F841B21
:1027C0009109289F6001299FD00C389FD00C1124BB
:1027D00080917A0F81110BC0E091730FF091740F0B
:1027E00096012C5F3F4FE20FF31F34913A8785E04B
:1027F000C80ED11C0E94C2119A85292E312CA70126
:102800004F5F5F4F420D531D8091250F9091260F12
:102810004817590708F067C02091760F2150330BF5
:102820002A0D3B1D8091270F9091280F28173907FB
:1028300008F059C007E010E0B501C7010E94761208
:10284000E1E0E9831B868601612C2B852E0D3F2D4F
:10285000311D39872887802F8C199091790F89171E
:1028600008F059C03A859B85E0E0391739F0E091CE
:10287000730FF091740FE00FF11FE4910F5F1F4F82
:10288000F8E08F9FC00111249C012A0D3B1D3D8360
:102890002C83912C812C8E2F90E09F838E838091AE
:1028A000760F6816C0F68E819F81082C02C0959520
:1028B00087950A94E2F781709927E981EE23D1F098
:1028C000892BA9F48091290F90912A0F0E9407115A
:1028D0006394FFEF8F1A9F0A28E082169104F9F69D
:1028E000BACF80E05DCF1982ADCF6801ACCF852D26
:1028F000942DECCF4091290F50912A0F892B11F084
:10290000452D542D6C817D81680D791D88859985B3
:102910000E943612DDCF3B853F5F3B878A85831758
:1029200020F70E94E6100E944513C1010196E80EAF
:10293000F91E739422CFC7012B960FB6F894DEBF11
:102940000FBECDBFDF91CF911F910F91FF90EF9000
:10295000DF90CF90BF90AF909F908F907F906F90BF
:102960005F904F903F902F9008952F923F924F92FB
:102970005F926F927F928F929F92AF92BF92CF920F
:10298000DF92EF92FF920F931F93CF93DF93EC01AF
:102990008B014A017901E61AF70AF7FE03C0F194A8
:1029A000E194F1086401CC1ADD0AD7FE03C0D1948A
:1029B000C194D108CE14DF0454F4982D892D490117
:1029C000292F382F9C2F8D2FE801092F182F8C16B7
:1029D0009D0650F4902F812F8901292F382F9C2F8D
:1029E0008D2FE401892E982E14012C1A3D0A2901FD
:1029F000401A510A57FE03C05194419451083101C5
:102A000037FE03C08FEF681A780A75946794AA247A
:102A1000AA94BA2C0217130718F4AA24A394B12C71
:102A20000E94C2118C169D06A8F04FEF5FEFBE0109
:102A3000C801CE14DF0414F0B801CE010E94361292
:102A40006418750877FE04C00A0D1B1D620C731C08
:102A50002196E8CFDF91CF911F910F91FF90EF90DA
:102A6000DF90CF90BF90AF909F908F907F906F90AE
:102A70005F904F903F902F900C94E61081508231E0
:102A800008F05AC0E82FF0E08827E65BFA4E8F4F37
:102A90000C9453406A156E155C15621566159C15ED
:102AA000711577157B158115851589158F1593156A
:102AB0009C1597159D15A115809180008F778093A7
:102AC00080000895809180008F7DF9CF80918000F3
:102AD000877FF5CF84B58F7784BD089584B58F7DCA
:102AE000FBCF8091B0008F778093B00008958091E4
:102AF000B0008F7DF9CF809190008F778093900008
:102B00000895809190008F7DF9CF80919000877F0C
:102B1000F5CF8091A0008F778093A00008958091D9
:102B2000A0008F7DF9CF8091A000877FF5CF8091A5
:102B300020018F77809320010895809120018F7D5F
:102B4000F9CF80912001877FF5CFCF93DF93282F96
:102B500030E0F901E45EFE4D8491F901EA52FF4D47
:102B6000D491F901E057FF4DC491CC23A1F081111C
:102B70000E943E15EC2FF0E0EE0FFF1FEA58FF4DCC
:102B8000A591B491EC91ED2381E090E009F480E00F
:102B9000DF91CF91089580E090E0FACF1F93CF931B
:102BA000DF93282F30E0F901E45EFE4D8491F901B6
:102BB000EA52FF4DD491F901E057FF4DC491CC2367
:102BC000A9F0162F81110E943E15EC2FF0E0EE0FB8
:102BD000FF1FE45AFF4DA591B4918FB7F894EC9183
:102BE000111108C0D095DE23DC938FBFDF91CF9108
:102BF0001F910895DE2BF8CFCF93DF9390E0FC0177
:102C0000EA52FF4D249180579F4DFC018491882307
:102C1000D1F090E0880F991FFC01EE5BFF4DA5916C
:102C2000B491FC01E45AFF4DC591D49161110EC0DD
:102C30009FB7F8948C91E22FE0958E238C93288196
:102C4000E223E8839FBFDF91CF9108958FB7F89477
:102C5000EC91E22BEC938FBFF6CF1F93CF93DF93D2
:102C60008093720F1091300F112309F43FC0C0916F
:102C7000400FD0E0811102C0D0E0C0E061E0812FC0
:102C80000E94FC15209739F460E0812FDF91CF91ED
:102C90001F910C94CE15CF3FD10511F461E0F5CF13
:102CA000E12FF0E0E45EFE4DE491E150E23108F006
:102CB000B3C0F0E08827E05AF94E8F4F0C94534090
:102CC00072167A167F16891693160C179D16A5167E
:102CD000AD16B716C116CB16DA16E4160C17EE169B
:102CE000F816021784B5806884BDC7BDDF91CF9107
:102CF0001F91089584B5806284BDC8BDF7CF8091CF
:102D00008000806880938000D0938900C093880001
:102D1000EDCF80918000806280938000D0938B0003
:102D2000C0938A00E3CF8091800088608093800008
:102D3000D0938D00C0938C00D9CF8091B000806873
:102D40008093B000C093B300D1CF8091B000806277
:102D50008093B000C093B400C9CF80919000806888
:102D600080939000D0939900C0939800BFCF80913A
:102D70009000806280939000D0939B00C0939A0053
:102D8000B5CF80919000886080939000D0939D0093
:102D9000C0939C00ABCF8091A00080688093A0007E
:102DA0008091A0008F7B8093A000D093A900C09356
:102DB000A8009CCF8091A00080628093A000D09357
:102DC000AB00C093AA0092CF8091A000886080934E
:102DD000A000D093AD00C093AC0088CF80912001BB
:102DE000806880932001D0932901C09328017ECF71
:102DF00080912001806280932001D0932B01C093A9
:102E00002A0174CF80912001886080932001D093A3
:102E10002D01C0932C016ACFC038D1050CF03ECFF4
:102E200033CF90917B00977F90937B008653806493
:102E300080937C0080917A00806480937A008091F6
:102E40007A0086FDFCCF80917800909179000895FA
:102E50003FB7F8948091B90A9091BA0AA091BB0A41
:102E6000B091BC0A26B5A89B05C02F3F19F001966A
:102E7000A11DB11D3FBFBA2FA92F982F8827BC01D4
:102E8000CD01620F711D811D911D42E0660F771FFC
:102E9000881F991F4A95D1F708958F929F92AF92FC
:102EA000BF92CF92DF92EF92FF924B015C010E94A2
:102EB00028176B017C010E9428176C197D098E0967
:102EC0009F09683E734081059105A8F321E0821AAD
:102ED0009108A108B10888EEC80E83E0D81EE11C55
:102EE000F11C81149104A104B10429F7FF90EF9023
:102EF000DF90CF90BF90AF909F908F900895CF922A
:102F0000DF92EF92FF920F931F93CF93C0913F0FE9
:102F100010923F0F80EBC82ED12CD092260FC0927A
:102F2000250F9CEDE92EF12CF092280FE092270F4F
:102F300010E000E02BED30E04FEA50E070E060E0A0
:102F400090E080E00E945D13C370C0933F0FC130DA
:102F5000B9F0C330A9F0D092260FC092250FF0929D
:102F6000280FE092270F6AE070E080E090E0CF91B8
:102F70001F910F91FF90EF90DF90CF900C944D1721
:102F80008CED90E09093260F8093250F80EB90E0DE
:102F90009093280F8093270FE6CF2FB7F894609176
:102FA000B50A7091B60A8091B70A9091B80A2FBFFE
:102FB000089581E02091AE0A3091AF0A12161306EF
:102FC0000CF480E00895AF92BF92CF92DF92EF921F
:102FD000FF920F931F93CF93DF936C017B018B01C3
:102FE000040F151FEB015E01AE18BF08C017D10713
:102FF00059F06991D601ED91FC910190F081E02D9D
:10300000C6011995892B79F7C501DF91CF911F91E1
:103010000F91FF90EF90DF90CF90BF90AF90089509
:10302000FC01538D448D252F30E0842F90E0821BCE
:10303000930B541710F0CF96089501970895FC0153
:10304000918D828D981761F0A28DAE0FBF2FB11DAB
:103050005D968C91928D9F5F9F73928F90E0089503
:103060008FEF9FEF0895FC01918D828D981731F0BD
:10307000828DE80FF11D858D90E008958FEF9FEF11
:103080000895FC01918D228D892F90E0805C9F4FE7
:10309000821B91098F73992708958DE09BE00E9410
:1030A000411821E0892B09F420E0822F08958AEA53
:1030B0009BE00E94411821E0892B09F420E0822F37
:1030C0000895FC01A48DA80FB92FB11DA35ABF4FBD
:1030D0002C91848D90E001968F739927848FA68917
:1030E000B7892C93A089B1898C91837080648C936B
:1030F000938D848D981306C00288F389E02D80811A
:103100008F7D80830895EF92FF920F931F93CF934B
:10311000DF93EC0181E0888F9B8D8C8D98131AC012
:10312000E889F989808185FF15C09FB7F894EE89F9
:10313000FF896083E889F989808183708064808356
:103140009FBF81E090E0DF91CF911F910F91FF90A1
:10315000EF900895F62E0B8D10E00F5F1F4F0F7349
:103160001127E02E8C8D8E110CC00FB607FCFACF04
:10317000E889F989808185FFF5CFCE010E94611829
:10318000F1CFEB8DEC0FFD2FF11DE35AFF4FF082D5
:103190009FB7F8940B8FEA89FB8980818062CFCF3B
:1031A000CF93DF93EC01888D8823B9F0AA89BB897E
:1031B000E889F9898C9185FD03C0808186FD0DC069
:1031C0000FB607FCF7CF8C9185FFF2CF808185FF8A
:1031D000EDCFCE010E946118E9CFDF91CF91089524
:1031E00080E090E0892B29F00E94571881110E94FD
:1031F000000080E090E0892B49F080E090E0892B8E
:1032000029F00E94000081110E94000080E090E0FF
:10321000892B49F080E090E0892B29F00E94000082
:1032200081110E94000080E090E0892B29F00E942B
:103230004D1881110C94000008950F931F93CF93A4
:10324000DF938C01C5E8DDE0CE0185589D408017F5
:10325000910734F469918DE09BE00E948318F4CFCC
:10326000DF91CF911F910F9108950F931F930E94AB
:10327000CD170091040210910502209106023091B1
:103280000702601B710B820B930B21E061317742C7
:103290008105910508F420E0822F1F910F91089578
:1032A000FB019081892790E1899F90011124822759
:1032B00090E0382F2227AC0163E0440F551F6A9538
:1032C000E1F724273527418150E02427352774E092
:1032D000959587957A95E1F7822793279183808347
:1032E00008950F931F93CF93DF931F921F92CDB733
:1032F000DEB78C01862FF801208131813A83298342
:10330000BE016F5F7F4F0E94501989819A81F80139
:10331000918380830F900F90DF91CF911F910F9138
:1033200008952F923F924F925F926F927F928F9269
:103330009F92AF92BF92CF92DF92EF92FF920F9344
:103340001F93CF93DF93CDB7DEB7A4970FB6F89452
:10335000DEBF0FBECDBFFC019C01205C3F4F8C0146
:10336000D8016D917D918D919D91AD010E945B4041
:10337000D8016D937D938D939C9313978A01421787
:10338000530771F7DA018D909D90AD90BC908D82BE
:103390009E82AF82B886DF01AC5BBF4F8D909D905F
:1033A000AD90BC9013978D869E86AF86B88A149692
:1033B0000D911D912D913C911397098B1A8B2B8B9D
:1033C0003C8B14962D913D914D915C9113972F8FCD
:1033D00038A349A35AA314968D909D90AD90BC90AC
:1033E000139789829A82AB82BC8214960D911D91AB
:1033F0002D913C9113970D8B1E8B2F8B388F14962C
:103400002D913D914D915C911397298F3A8F4B8F60
:103410005C8F14968D909D90AD90BC9089869A8615
:10342000AB86BC8604E912E01E8F0D8F312C212C57
:10343000D10110E1211631040CF021C2AA0FBB1FEB
:10344000AA0FBB1FAE0FBF1FCD90DD90ED90FC907B
:10345000AD8DBE8D0D911D912D913D91BE8FAD8F86
:1034600049815A816B817C818AE1440F551F661F17
:10347000771F8A95D1F789809A80AB80BC8096E0CF
:10348000B694A794979487949A95D1F74829592987
:103490006A297B2949805A806B807C80A5E1440C95
:1034A000551C661C771CAA95D1F789819A81AB813E
:1034B000BC81072E7BE0B695A795979587957A9561
:1034C000D1F7702D84299529A629B729482759278E
:1034D0006A277B2749805A806B807C8089E17694BB
:1034E0006794579447948A95D1F789819A81AB81E3
:1034F000BC81689416F8880F991FAA1FBB1F1694E9
:10350000D1F784299529A629B7292A013B01482604
:1035100059266A267B2649815A816B817C81409598
:10352000509560957095898C9A8CAB8CBC8C482199
:1035300059216A217B2189819A81AB81BC818D8847
:103540009E88AF88B88C88219921AA21BB21842725
:103550009527A627B727B301A201480F591F6A1F55
:103560007B1F400F511F621F731FC40ED51EE61E26
:10357000F71E09851A852B853C850C0D1D1D2E1DFA
:103580003F1D8D809E80AF80B8848EE1880C991C91
:10359000AA1CBB1C8A95D1F74D805E806F80788411
:1035A00092E076946794579447949A95D1F784283B
:1035B0009528A628B7284D815E816F817885A3E183
:1035C000440F551F661F771FAA95D1F78D819E81E5
:1035D000AF81B885072E7DE0B695A795979587951D
:1035E0007A95D1F7702D842B952BA62BB72B882697
:1035F0009926AA26BB264D815E816F81788586E15A
:1036000076956795579547958A95D1F78D819E81D7
:10361000AF81B885072E7AE0880F991FAA1FBB1FBC
:103620007A95D1F7702D842B952BA62BB72BB5014E
:10363000A401482759276A277B278D849E84AF845D
:10364000B88889899A89AB89BC8988269926AA264F
:10365000BB268D819E81AF81B88588229922AA22BE
:10366000BB22CD84DE84EF84F88889899A89AB896E
:10367000BC89C822D922EA22FB22C824D924EA2400
:10368000FB24C40ED51EE61EF71E4F8C58A069A061
:103690007AA0400E511E621E731EC00ED11EE21E85
:1036A000F31E9FEF291A390A89889A88AB88BC884B
:1036B0008F8E98A2A9A2BAA2098D1A8D2B8D3C8D4E
:1036C00009871A872B873C8710E42116310409F0FB
:1036D000ADC0DF01A05CBF4F0D911D912D913C91BC
:1036E0001397C00ED11EE21EF31ECD92DD92ED9215
:1036F000FC92139714964D915D916D917C91139767
:103700008D809E80AF80B884480D591D6A1D7B1D39
:103710004D935D936D937C93139714964D915D91AA
:103720006D917C9113970D851E852F853889400FEB
:10373000511F621F731F4D935D936D937C9313977D
:1037400014964D915D916D917C91139789889A881B
:10375000AB88BC88480D591D6A1D7B1D4D935D9338
:103760006D937C93139714964D915D916D917C911F
:103770001397440E551E661E771E4D925D926D92F4
:103780007C92139714964D915D916D917C91139756
:1037900009811A812B813C81400F511F621F731FC9
:1037A0004D935D936D937C931397BF01685A7F4F40
:1037B000DB01CD90DD90ED90FC9013978D889E8875
:1037C000AF88B88CC80CD91CEA1CFB1CCD92DD92CA
:1037D000ED92FC921397E45AFF4F80819181A28170
:1037E000B381898C9A8CAB8CBC8C880D991DAA1DD9
:1037F000BB1D80839183A283B383A4960FB6F894F4
:10380000DEBF0FBECDBFDF91CF911F910F91FF9013
:10381000EF90DF90CF90BF90AF909F908F907F9070
:103820006F905F904F903F902F9008952D893E8923
:103830004F89588D298F3A8F4B8F5C8F89819A8160
:10384000AB81BC818D8B9E8BAF8BB88F49825A82A6
:103850006B827C828D849E84AF84B888898A9A8AA0
:10386000AB8ABC8A0D811E812F8138850D871E870A
:103870002F87388BCD82DE82EF82F886D9CD1297E2
:10388000AF70BB27AA0FBB1FAA0FBB1FAE0FBF1F76
:103890000D911D912D913C91D1011F97AF70BB27C8
:1038A000AA0FBB1FAA0FBB1FAE0FBF1F4D915D918B
:1038B0006D917C91C1018F709927880F991F880F96
:1038C000991FDF01A80FB91FBCA3ABA3D1011797A4
:1038D000AF70BB27AA0FBB1FAA0FBB1FAE0FBF1F26
:1038E000CD90DD90ED90FC90ABA1BCA18D909D9012
:1038F000AD90BC90C80CD91CEA1CFB1C48015901B6
:103900009FE0880C991CAA1CBB1C9A95D1F7D90181
:10391000C801072E71E1B695A795979587957A9579
:10392000D1F7702D882A992AAA2ABB2AD901C80161
:10393000072E7DE0880F991FAA1FBB1F7A95D1F72C
:10394000702D28013901032E33E176946794579442
:1039500047943A95D1F7302D84299529A629B7297E
:1039600088259925AA25BB250F2EFAE0369527959F
:1039700017950795FA95D1F7F02D80279127A22763
:10398000B327C80ED91EEA1EFB1E8A019B0187E0E1
:1039900036952795179507958A95D1F7DB01CA01CA
:1039A000072E79E1880F991FAA1FBB1F7A95D1F7BF
:1039B000702D082B192B2A2B3B2BDB01CA01072E5C
:1039C0007EE0880F991FAA1FBB1F7A95D1F7702D33
:1039D0002A013B01032E32E1769467945794479471
:1039E0003A95D1F7302D84299529A629B729802722
:1039F0009127A227B32723E076956795579547959A
:103A00002A95D1F784279527A627B727C80ED91E50
:103A1000EA1EFB1EABA1BCA1CD92DD92ED92FC9201
:103A2000139716CD0F931F9310E000E02DED30E0BB
:103A300040EB50E068EC70E090E080E00E945D13A5
:103A40001F910F910895E0EAF4E0F093740FE09372
:103A5000730FE491E093750FE1EAF4E084918093B1
:103A6000760FE2EAF4E0E491E093770FE3EAF4E022
:103A7000E491E093780F982F96959695969590936C
:103A8000790F10927A0F877019F09F5F9093790FDA
:103A90000895ECEFF1E0F093740FE093730FE4916D
:103AA000E093750FEDEFF1E084918093760FEEEFE8
:103AB000F1E0E491E093770FEFEFF1E0E491E09330
:103AC000780F982F9695969596959093790F1092DA
:103AD0007A0F877019F09F5F9093790F0895CF92B6
:103AE000DF92EF92FF92CF93DF93EC016A017B01AB
:103AF00088810E94A5159C0181E090E02115310587
:103B000011F090E080E09A8389838D819E81AF815E
:103B1000B885232BC1F40097A105B105A1F4EB8171
:103B2000FC81309709F0199584EF91E0A0E0B0E0B6
:103B30008D839E83AF83B887DF91CF91FF90EF9005
:103B4000DF90CF9008958C199D09AE09BF09B7FF8A
:103B5000EFCF80E090E0DC01EBCF81E08093AC0A16
:103B6000089581E08093AD0A089581E08093B00AC2
:103B7000089581E08093B10A089581E08093B20AAC
:103B800008954F925F926F927F928F929F92AF9221
:103B9000BF92CF92DF92EF92FF920F931F93CF933A
:103BA000DF938C01EB0149015A01FC01E05AFF4F00
:103BB00080819181A281B3816C017D012FE3C222BA
:103BC000DD24EE24FF24880D991DAA1DBB1D8083D2
:103BD0009183A283B38381149104A104B10479F188
:103BE00080E490E0A0E0B0E08C199D09AE09BF0927
:103BF0002401350188159905AA05BB0510F42C018F
:103C00003D01C8018C0D9D1DA201BE010E942C43E7
:103C1000C40CD51CE61CF71CC40DD51D84189508D2
:103C2000A608B70880E4C816D104E104F10499F6A7
:103C3000C8010E949119C12CD12C7601CCCFDF9103
:103C4000CF911F910F91FF90EF90DF90CF90BF9099
:103C5000AF909F908F907F906F905F904F9008955E
:103C6000AF92BF92DF92EF92FF920F931F93CF9389
:103C7000DF93EC018B01FB01D3808281645F7F4F76
:103C80008E3F09F459C0ED2CF12CFB01EE0DFF1D08
:103C9000DE2C91E09E1538F4970121503109929164
:103CA000992309F463C08883D982F80184818A83C7
:103CB00085818B8386818C8387818D8380858E83AC
:103CC00081858F8381859285A3859887818592855B
:103CD000A385A987A701CE010A960E942C43FAE08A
:103CE000EF0EF11CCE0DDF1DF801848199E0F92E55
:103CF00080FF3AC08DE0F80190819883918199838B
:103D0000A82EB12C882341F0B8016A5E7E4FA50130
:103D1000CE0102960E942C43C5018F0D911D039682
:103D20008D0D911DDF91CF911F910F91FF90EF901D
:103D3000DF90BF90AF9008958883D98286818A836F
:103D400087818B8380858C8381858D83438150E03F
:103D5000CE0106960E942C43F801838190E00696DE
:103D6000C80FD91F25E0F22E80E0C5CF790190CF92
:103D70008F929F92AF92BF92CF92DF92EF92FF927B
:103D80000F931F93CF93DF937C014A015B0169017D
:103D9000FC011995C091BF0AD091C00A82E190E060
:103DA0002097E1F50E941941FC01108211821282D4
:103DB0001382148215821682178213861286158644
:103DC000148617861686118A108A9093C00A8093EB
:103DD000BF0A9093BE0A8093BD0A11861086E091B7
:103DE000BF0AF091C00AF586E48610821182128221
:103DF000138284829582A682B782D386C286178771
:103E00000687DF91CF911F910F91FF90EF90DF9088
:103E1000CF90BF90AF909F908F9008950E941941CE
:103E2000FC01108211821282138214821582168282
:103E30001782138612861586148617861686118AAF
:103E4000108A998B888B88859985019691878087C0
:103E5000F093C00AE093BF0AC2CF8091BD0A90914F
:103E6000BE0A009751F0FC01208931893093BE0AC7
:103E70002093BD0A0E94B541F0CF8091C10A909174
:103E8000C20A009751F0FC01228133813093C20AAB
:103E90002093C10A0E94B541F0CF1092BE0A109241
:103EA000BD0A1092C00A1092BF0A1092C40A109262
:103EB000C30A0895CF92DF92EF92FF920F931F9360
:103EC000CF93DF93C091C10AD091C20A209709F421
:103ED00045C0E091BD0AF091BE0A288139818085F4
:103EE00091852817390759F4808991899093BE0AE2
:103EF0008093BD0A0E94B5410A80DB81C02D0091EC
:103F0000BD0A1091BE0AD8015096ED91FC91209700
:103F1000E9F03097D9F0E088F188288139818085EF
:103F200091852817390779F4D8015096EC9250976B
:103F30005196FC92E088F188C7010E94B5410A8041
:103F4000DB81C02DF8018F01F701E1CF1092C20A89
:103F50001092C10A1092C40A1092C30AC091BD0AFD
:103F6000D091BE0A209709F457C0CC80DD80EE8046
:103F7000FF800E94CD17088119812A813B81601B37
:103F8000710B820B930B6C157D058E059F0578F1E7
:103F90000E94CD17688379838A839B83EA85FB859A
:103FA000309711F119958823F9F0E090C30AF09049
:103FB000C40A0885198584E090E0E114F104D9F47D
:103FC0000E941941FC01138212829093C40A8093CB
:103FD000C30A9093C20A8093C10A11830083EE85BD
:103FE000FF85309709F01995EC85FD8519950888AE
:103FF000D989C02DB7CF0E941941DC0113961C92BC
:104000001E921297F701938382839093C40A809340
:10401000C30A0D931C93E3CFDF91CF911F910F91B2
:10402000FF90EF90DF90CF900895CF93DF93EC0156
:1040300088819981009711F00E94B54119821882F8
:104040001D821C821B821A82DF91CF910895FC0190
:1040500080819181009711F00C94B5410895CF9221
:10406000DF92EF92FF920F931F93CF93DF93EC01B8
:104070008B01FC01E05AFF4FC080D180E280F380C9
:1040800096012F73332783E0CC0CDD1CEE1CFF1C44
:104090008A95D1F7C90101962C0F3D1F40E8F9011F
:1040A00040838933910578F040E450E0481B590B78
:1040B00070E060E08C0F9D1F0E943543CE010E948E
:1040C000911990E080E04CE350E0481B590B70E000
:1040D00060E08C0F9D1F0E943543FCAEEDAEDEAE5E
:1040E000CFAECE010E949119FE01E05CFF4F20810E
:1040F000318142815381CC5BDF4F8A819B81F80102
:10410000508341833283238394838583DF91CF91CE
:104110001F910F91FF90EF90DF90CF9008953F9205
:104120004F925F926F927F928F929F92AF92BF92C7
:10413000CF92DF92EF92FF920F931F93CF93DF9373
:10414000CDB7DEB7C857D1090FB6F894DEBF0FBEA2
:10415000CDBF6C013E2C8091D10A582F527081FD49
:104160001DC0E091D30AF091D40A309731F08081DC
:104170002DE0522E11E080FD02C0512C10E08DEF99
:10418000F60182833C96E00FF11D8291811103C0FC
:1041900001500130D1F78AE0482E09C08EEFD601D8
:1041A00012968C93022F512C96E0492E10E0D601E6
:1041B00013960C93139717966C93179718964C9326
:1041C000189711114CC014961C92D60115961C928A
:1041D00015978091CC0A16968C9316978091CC0AED
:1041E0008F5F8093CC0A12968C911297A6968FAF10
:1041F000A69713968C911397A7968FAFA7971996AA
:104200008D919D91AC91F60136812781552359F10D
:10421000A8963FAFA897A9962FAFA997AA964FAF98
:10422000AA97AB968FAFAB97A42CB12C8FEF9FEFD3
:104230009A838983CE018B599F4F7C014C018A0C54
:104240009B1C9FEFE91AF90A8E149F0439F1BE01F5
:104250006F5F7F4FD7018C910E945019F2CF81E0A0
:10426000F6018483B2CF5481A8965FAFA897558199
:10427000A9965FAFA997AA963FAFAA97AB962FAF23
:10428000AB97AC964FAFAC97AD968FAFAD97AE9660
:104290009FAFAE97AF96AFAFAF97C6CF89819A81E8
:1042A000E9969FAF8EAFE997F6016380712C760196
:1042B000FCE0EF0EF11C470181E0681A7108BE01B5
:1042C00069587F4F9FEF6916790631F0D4018D91BF
:1042D0004D010E945019F0CF832D0E945019E8968D
:1042E0009FADE897E9968FADE997D6011396EC91CB
:1042F0001397EE0DFF2DF11D90831396EC911397FC
:10430000EE0DFF2DF11D81839C9311968C931197D7
:10431000112309F4F4C00091D30A1091D40A0115B5
:10432000110509F4ECC0F801808180FFE8C0139604
:104330007C9081814601FAEE8F1AFEEF9F0AD4012C
:104340008C93F8018281E0968FAFE0978381E196AC
:104350008FAFE1978481E2968FAFE2978581E396F4
:104360008FAFE3978681E4968FAFE4978781E596D8
:104370008FAFE5978085E6968FAFE6978185E796C4
:104380008FAFE79786E0FE01E159FF4F119601904C
:104390000D928A95E1F7D80112962C9112971396F7
:1043A0003C91139714964C91149715965C91159720
:1043B00016966C91169717967C91179718968C9174
:1043C000189719969C91A1E00E94E740F80122837A
:1043D000338344835583668377838087918787E619
:1043E00096EEA9E0BAE625968CAF9DAFAEAFBFAF13
:1043F000259785E89EEAA7E6BBEB29968CAF9DAF93
:10440000AEAFBFAF299782E793EFAEE6BCE32D9640
:104410008CAF9DAFAEAFBFAF2D978AE395EFAFE402
:10442000B5EA61968CAF9DAFAEAFBFAF61978FE736
:1044300092E5AEE0B1E565968CAF9DAFAEAFBFAF94
:1044400065978CE898E6A5E0BBE969968CAF9DAFCF
:10445000AEAFBFAF69978BEA99EDA3E8BFE16D9668
:104460008CAF9DAFAEAFBFAF6D9789E19DECA0EE75
:10447000BBE5A1968CAF9DAFAEAFBFAFA197A596A0
:104480001CAE1DAE1EAE1FAEA597B801665F7F4F76
:1044900020E230E040E050E0CE0101960E94C11DD4
:1044A000242D30E050E040E0BE016B597F4FCE013B
:1044B00001960E94C11D272D30E050E040E0B70179
:1044C000CE0101960E94C11DB701670D711D22E04A
:1044D00030E040E050E0CE0101960E94C11D27E08F
:1044E00030E040E050E0B401CE0101960E94C11DD1
:1044F000B601635E7E4FCE0101960E942F20D60149
:1045000013968C918A0D9B2D911D0296850D911D00
:10451000C858DF4F0FB6F894DEBF0FBECDBFDF9196
:10452000CF911F910F91FF90EF90DF90CF90BF90B0
:10453000AF909F908F907F906F905F904F903F9043
:104540000895EF920F93CF93DF93682F70E090E080
:1045500080E00E94E43DE1EBFEE0658376838783A3
:1045600090872481A281B38131814081C3E2DFE061
:10457000E881F9816487758786879787108A118A11
:10458000128A138A148A158A168A178A108E118E37
:10459000128E138E148E158E168E178E10A211A2E7
:1045A00012A213A214A215A216A217A2B1A7A0A725
:1045B00042A733A724A78CE490E0A0E081879287EC
:1045C000A38788E9E82E01E221E241E062E0CF0121
:1045D0000E948F20688179818091210F9091220F14
:1045E000DF91CF910F91EF900C94301E80E00E94EC
:1045F000A1220E941D198091AE0A9091AF0A0197E5
:104600009093AF0A8093AE0A089581E00E94A122A0
:104610000E941D198091AE0A9091AF0A0197909364
:10462000AF0A8093AE0A08958F929F92AF92BF9285
:10463000CF92DF92EF92FF920F931F93CF93DF936E
:10464000F62E142F682F70E090E080E00E94E43D89
:104650004B015C01C1EBDEE08BA29CA2ADA2BEA22D
:104660006F2D70E090E080E00E94E43D6B017C01E2
:10467000CFA2D8A6E9A6FAA6612F70E090E080E06C
:104680000E94E43D6BA77CA78DA79EA72AA148A105
:1046900059A13F8DAE8DC3E2DFE0E881F9818486C8
:1046A0009586A686B786C08AD18AE28AF38A648B09
:1046B000758B868B978B108E118E128E138E148EA7
:1046C000158E168E178E10A211A212A213A214A27A
:1046D00015A216A217A251A740A7A2A733A724A7E5
:1046E0008CE490E0A0E081879287A38788E9E82E98
:1046F00001E221E241E062E0CF010E948F20688167
:1047000079818091210F9091220FDF91CF911F919C
:104710000F91FF90EF90DF90CF90BF90AF909F9060
:104720008F900C94301ECF92DF92EF920F931F93D5
:10473000CF93DF93C5ECDAE01C8582E08C8721EB18
:104740003EE093E2C92E9FE0D92ED601ED91FC9177
:10475000D901D0964C91D0979F966C91148615866E
:1047600016861786108A118A128A138A848B1186FC
:104770001286138622E3E22E09E029E0CF010E948F
:104780008F201C87F601608171818091210F9091AB
:10479000220F0E94301EDF91CF911F910F91EF9059
:1047A000DF90CF900C941D19CF93DF93EC01A8817B
:1047B000B981EB01E881F9811097F1F03097B1F4FC
:1047C000EC018C819D81892BC9F08C9190E00BC00C
:1047D000DB0114968D919C91892B81F0808190E072
:1047E000919581959109DF91CF910895BF01CD01F8
:1047F000DF91CF910C943C43309751F790E080E0EB
:10480000F2CF0F931F93CF93DF93EC0188819981AF
:10481000009759F02A813B812617370730F081E055
:10482000DF91CF911F910F9108958B016F5F7F4FA3
:104830000E943E42009759F0998388831B830A8324
:104840002C813D81232B59F7FC011082E8CF80E0B9
:10485000E7CFEF92FF920F931F93CF93DF93EC017B
:10486000FB01E080F180E114F10411F10481158174
:1048700001151105A9F08C819D81080F191FB80140
:10488000CE010E940124882399F0288139818C81EE
:104890009D81B701820F931F0E9445431D830C83A6
:1048A000CE01DF91CF911F910F91FF90EF9008956E
:1048B000CE010E941520F4CFEF92FF920F931F9329
:1048C000CF93DF93EC017B018A01BA010E9401249E
:1048D00081110BC0CE010E941520CE01DF91CF9136
:1048E0001F910F91FF90EF9008951D830C83B701E6
:1048F000888199810E944543F0CFFB0101900020FF
:10490000E9F73197AF01461B570B0C945C240F93CA
:104910001F93CF93DF9300D000D000D0CDB7DEB788
:104920008C01862FF8011182108213821282158267
:1049300014824AE0BE016F5F7F4F90E00E94B53D58
:10494000BE016F5F7F4FC8010E947D2429960FB67C
:10495000F894DEBF0FBECDBFDF91CF911F910F91B5
:1049600008950F931F93CF93DF93CDB7DEB7A19731
:104970000FB6F894DEBF0FBECDBF8C01CB01BA01DC
:10498000F8011182108213821282158214822AE0A9
:10499000AE014F5F5F4F0E94933DBE016F5F7F4F3F
:1049A000C8010E947D24A1960FB6F894DEBF0FBE09
:1049B000CDBFDF91CF911F910F910895CF93DF93DA
:1049C000EC01FB018617970749F060817181611541
:1049D000710541F0448155810E945C24CE01DF9134
:1049E000CF9108950E941520F9CFFC011182108209
:1049F00013821282158214820C94DE24FC0111822F
:104A000010821382128215821482FB010190002011
:104A1000E9F73197AF01461B570B0C945C24AF921A
:104A2000BF92CF92DF92EF92FF920F931F93CF939B
:104A3000DF936C015B017A0189012417350720F4AB
:104A40008F2D7901042F182F6BEC74E0C6010E94A2
:104A5000FE24D5011496CD91DC91EC16FD06E0F410
:104A60000C171D0708F4E801D501ED91FC91119791
:104A7000EC0FFD1F108110826D917C916E0D7F1DDA
:104A8000C60161157105A1F00E947D24F5018081A8
:104A90009181C80FD91F1883C601DF91CF911F9153
:104AA0000F91FF90EF90DF90CF90BF90AF9008955F
:104AB0000E941520EBCF0F931F93CF93DF93CDB7B9
:104AC000DEB72C970FB6F894DEBF0FBECDBF209196
:104AD0000202309103028217930781F18C016BEC83
:104AE00074E0CE0107960E94FE2464E174E0023077
:104AF000110511F46CE174E0CE0107960E947D244B
:104B0000BE01695F7F4FCE0101960E94F5242FEF11
:104B10003FEFAE014F5F5F4F63E770E087E390E0E8
:104B20000E949D13CE0101960E942720109303023C
:104B300000930202CE0107960E9427202C960FB602
:104B4000F894DEBF0FBECDBFDF91CF911F910F91C3
:104B5000089508950895EF92FF920F931F93CF93B6
:104B6000DF93CDB7DEB72C970FB6F894DEBF0FBE3C
:104B7000CDBF8C016BEC74E0CE0107960E94FE2441
:104B80000F5F1F4F0130110509F443C044F5012B9D
:104B9000B1F1BE01695F7F4FCE0101960E94F524FD
:104BA0009701AE014F5F5F4F61E470E086E490E0F3
:104BB0000E949D13CE0101960E942720CE010796E8
:104BC0000E9427202C960FB6F894DEBF0FBECDBFF3
:104BD000DF91CF911F910F91FF90EF9008950230D8
:104BE000110511F103301105A1F665E474E0CE0161
:104BF00007960E947D24E12C88EFF82ECACF64E24C
:104C000074E0CE0107960E947D24EE24EA94FE2CE7
:104C1000C0CF6FE274E0CE0107960E947D2420EEA3
:104C2000E22E27E0F22EB5CF6AE374E0CE010796BC
:104C30000E947D2490EEE92EFF24FA94AACF0F93D0
:104C40001F93CF93DF93CDB7DEB72C970FB6F894B1
:104C5000DEBF0FBECDBF8C016BEC74E0CE010796BA
:104C60000E94FE2401301105E1F168F002301105C7
:104C700009F440C062E774E0CE0107960E947D24EB
:104C800000E21DEF0AC060ED74E0CE0107960E94BD
:104C90007D241092810A00E018EFBE01695F7F4F0A
:104CA000CE0101960E94F5249801AE014F5F5F4F3F
:104CB0006CE270E085E090E00E949D13CE010196C9
:104CC0000E942720CE0107960E9427202C960FB61F
:104CD000F894DEBF0FBECDBFDF91CF911F910F9132
:104CE000089560E574E0CE0107960E947D2400EEF1
:104CF00017E0D3CF61E674E0CE0107960E947D24D1
:104D00000FE110E0CACF20913C0230913D022817FC
:104D1000390741F090933D0280933C020E941F2688
:104D200081E0089580E008950F931F93CF93DF9360
:104D3000CDB7DEB762970FB6F894DEBF0FBECDBF1A
:104D40008C0120918B0F30918C0FFC018481958117
:104D50002817390741F4B80187E89FE00E94D4235F
:104D6000892B09F45CC0B80187E89FE00E94DE242B
:104D70000E94121D0E94491DF80184819581489767
:104D800008F458C026E130E050E040E0B801CE0120
:104D900007960E940F2563E874E0CE0101960E94F9
:104DA000FE24BE01695F7F4FCE0101960E94292437
:104DB000BC01CE010D960E94F52420EE3FEFAE011E
:104DC000435F5F4F68EC70E090E080E00E949D13CD
:104DD000CE010D960E942720CE0101960E94272029
:104DE000CE0107960E942720F8012481358146E1F3
:104DF00050E0B801CE0101960E940F2520EE3FEF52
:104E0000AE014F5F5F4F60ED70E090E080E00E9488
:104E10009D13CE0101960E9427200E94231D6296B9
:104E20000FB6F894DEBF0FBECDBFDF91CF911F91BB
:104E30000F91089563E874E0CE0101960E94FE246C
:104E4000B801CE0101960E942924BC01CE0107962B
:104E50000E94F52420EE3FEFAE01495F5F4F68EC02
:104E600070E090E080E00E949D13CE0107960E94C2
:104E70002720CE0101960E942720CFCF2F923F926C
:104E80004F925F926F927F928F929F92AF92BF925A
:104E9000DF92EF92FF920F931F93CF93DF93CDB7E3
:104EA000DEB768970FB6F894DEBF0FBECDBF0E9485
:104EB000491D80910002909101022091770A2223DE
:104EC00009F4C9C120913C0230913D02232B09F421
:104ED00093C1029751F169E874E0CE0101960E94F6
:104EE000FE2420EE37E0AE014F5F5F4F63E770E0D6
:104EF00085E090E00E949D13CE0101960E9427203C
:104F00006BE974E0CE0101960E94FE2420EE37E0AA
:104F1000AE014F5F5F4F6BE770E085E090E00E946D
:104F20009D13CE0101960E94272082E090E090938D
:104F30000102809300020E94231D6091760A8091F5
:104F40009005909191056817190609F453C0CE0198
:104F500043960E9487246091760A85EF860F8935F3
:104F600008F0ABC1CE0101960E9487246EED74E07B
:104F7000CE010D960E94FE24BE01635F7F4FCE01DD
:104F800007960E94F524BE016F5F7F4FCE01079602
:104F90000E942924BC01CE0143960E94DE24CE014A
:104FA00007960E942720CE010D960E942720CE0151
:104FB00001960E9427208091770A882309F487C1EF
:104FC000BE016D5E7F4FCE0101960E94F5242FEF4A
:104FD0003FEFAE014F5F5F4F6AE570E087E390E01F
:104FE0000E949D13CE0101960E942720CE01439678
:104FF0000E942720D090810A6D2D70E080918E054F
:1050000090918F056817790709F4D0C08CE390EE72
:10501000892E97E0992E8D1550F08EE120EE822E8C
:1050200099249A948D1518F0812C88EF982EA090D1
:10503000960AB12C35018AE0680E711CE090970A3F
:10504000F12C072E000C880B990B0E94E63D20E006
:1050500030E048EC52E40E94703F9B01AC0160E0FC
:1050600070E080E89FE30E94033F20E030E040E2F0
:1050700052E40E94453E1B012C01B7010F2C000C8D
:10508000880B990B0E94E63D9B01AC01C201B10166
:105090000E94043F0E94E93F1B0110E000E09301E1
:1050A000AB01B501C7010E945D13A701485D5F4FC9
:1050B00084019301B501C1010E945D138FEF8D0D35
:1050C000893070F460EE74E0CE0101960E94FE24F7
:1050D000CE0101960E949426CE0101960E942720BF
:1050E0000E94491D6D2DCE0143960E948724809118
:1050F000810A9FEF980F993008F0F0C06EED74E0D0
:10510000CE0107960E94FE24BE01695F7F4FCE014B
:1051100001960E94F524BE016D5E7F4FCE0101967F
:105120000E942924BC01CE0143960E94DE24CE01B8
:1051300001960E942720CE0107960E94272061E158
:1051400075E0CE0107960E94FE24BE016D5E7F4F82
:10515000CE010D960E94F524BE01695F7F4FCE01FE
:105160000D960E942924BC01CE0101960E94F524CF
:105170006091960A70E08091970A90E02FEF3FEFE0
:10518000AE014F5F5F4FC2960E949D13CE01019604
:105190000E942720CE010D960E942720CE0107965F
:1051A0000E942720CE0143960E9427208091760AF4
:1051B00090E090939105809390058091810A90E012
:1051C00090938F0580938E0568960FB6F894DEBF96
:1051D0000FBECDBFDF91CF911F910F91FF90EF9048
:1051E000DF90BF90AF909F908F907F906F905F9077
:1051F0004F903F902F900895019751F167EA74E026
:10520000CE0101960E94FE242FEF37E0AE014F5FE2
:105210005F4F63E770E085E090E00E949D13CE0150
:1052200001960E9427206AEB74E0CE0101960E944D
:10523000FE2420EE37E0AE014F5F5F4F6BE770E07A
:1052400085E090E00E949D13CE0101960E942720E8
:1052500081E090E06CCE892B09F46DCE6CEC74E0AB
:10526000CE0101960E94FE2420E23DEFAE014F5F89
:105270005F4F63E770E085E090E00E949D13CE01F0
:1052800001960E9427206AEB74E0CE0101960E94ED
:10529000FE2420EE37E0AE014F5F5F4F6BE770E01A
:1052A00085E090E00E949D13CE0101960E94272088
:1052B00010920102109200023ECE6A3008F07BCEBE
:1052C000CE0101960E9487246DED74E051CE65EC0D
:1052D00074E0CE0101960E94FE2479CE81112FCF79
:1052E0006EE075E0CE0143960E947D2428CFEF92B8
:1052F000FF920F931F93CF93DF93CDB7DEB76E97D7
:105300000FB6F894DEBF0FBECDBF8C017B01FC0150
:10531000248135818091850F9091860F2817390758
:1053200041F461E87FE0C8010E94D423892B09F48D
:105330007DC0B80181E89FE00E94DE241C8A1B8AA0
:105340001E8A1D8A188E1F8A4AE0BE016F5F7F4F3A
:10535000C7010E94883DBE016F5F7F4FCE0143961B
:105360000E947D2463E175E0CE0101960E94FE2437
:10537000BE016D5E7F4FCE0101960E942924BC01C3
:10538000CE0149960E94F52420E038EFAE01475E39
:105390005F4F66E970E090E080E00E949D13CE01CF
:1053A00049960E942720CE0101960E942720CE0117
:1053B00043960E9427200E94491DF801848195810F
:1053C0004C9708F440C02BE130E050E040E0B801D9
:1053D000CE0101960E940F2520E038EFAE014F5F0D
:1053E0005F4F6AEA70E090E080E00E949D13CE017A
:1053F00001960E942720F801248135814BE150E07D
:10540000B801CE0101960E940F2520E038EFAE01D1
:105410004F5F5F4F62EB70E090E080E00E949D1371
:10542000CE0101960E9427200E94231D6E960FB682
:10543000F894DEBF0FBECDBFDF91CF911F910F91CA
:10544000FF90EF900895B801CE0101960E94F524D7
:1054500020E038EFAE014F5F5F4F6AEA70E0DCCFCB
:105460001F93CF93DF93CDB7DEB768970FB6F8944D
:10547000DEBF0FBECDBF0E94121D1091940A1123F2
:1054800029F18091B30A882389F16FE275E0CE019A
:1054900043960E94FE2410E063E070E0CE01439644
:1054A0000E947729CE0143960E942720112361F0A4
:1054B000CE0107960E942720CE0101960E94272048
:1054C000CE010D960E9427201092B30A1092AF0AC7
:1054D0001092AE0A1092940A68960FB6F894DEBF46
:1054E0000FBECDBFDF91CF911F9108956CE175E0A4
:1054F000CE010D960E94FE246CE275E0CE0101966D
:105500000E94FE24BE016F5F7F4FCE0107960E946E
:10551000F524BE01635F7F4FCE0107960E942924C8
:10552000BC01CE0143960E94F524B6CF2F923F9244
:105530004F925F926F927F928F929F92AF92BF92A3
:10554000CF92DF92EF92FF920F931F93CF93DF934F
:10555000CDB7DEB7C75AD1090FB6F894DEBF0FBE7C
:10556000CDBF8DE09BE00E944118892B11F40C9473
:10557000AA328DE09BE00E941F188C01CD56DF4FB0
:105580008883C359D040109292052091950530919F
:1055900096052131310508F03CC0F9018827EC520D
:1055A000F54D8F4F0C945340EC2AEC2A8B2BA62BF5
:1055B000BD2BC52BCF2BD92BE32B052C1F2C372C28
:1055C0004F2CDD2CDD2C492D492D81E090E090936E
:1055D000960580939505C5CF80919E05CD56DF4FEA
:1055E0002881C359D0402D3F09F081C022E030E02E
:1055F00030939605209395051092DD050093DC0508
:105600008E7F80939E058FEF9FEF9093DB058093B5
:10561000DA05809192058130A9F420919A053091A4
:105620009B059091E005909398052115310521F493
:1056300010929D0510929C052F5F3F4F30939B0564
:1056400020939A059091DD059093650C2091950526
:10565000309196053093860A2093850A909197059C
:105660009093870A909198059F5F9093880A209164
:105670009A0530919B0530938B0A20938A0A2091DA
:10568000940530E030938D0A20938C0A90919E050A
:1056900090938E0A10929405823041F42091EE0688
:1056A0003091EF063093630C2093620C9EEF980FBD
:1056B000923008F045C481E08093940510929205E1
:1056C000CD56DF4FF881C359D040FD3F09F07DCF63
:1056D00082E090E090939605809395051092DD0509
:1056E0008FEF9FEF9093DB058093DA053ACFCD568D
:1056F000DF4F3881C359D0403E3F09F028C722E030
:1057000030E030939605209395051092DD050093C7
:10571000DC05816076CF0093DD0510929705602F40
:105720008AED95E00E94711980919E0580FF07C067
:105730001092DE051092DF0585E090E002C083E064
:1057400090E0909396058093950563CF0093DE05D6
:10575000C8018E7F9927892B41F0809194058F5F36
:105760008093940581E090E0ECCF602F8AED95E086
:105770000E94711984E090E0E4CF0093DF05602F70
:105780008AED95E00E947119D7CF0093E005602F54
:105790008AED95E00E94711986E090E0D2CF0093E7
:1057A000E105602F8AED95E00E94711987E090E095
:1057B000C8CF0093E205602F8AED95E00E94711931
:1057C00088E090E0BECFCD56DF4F4881C359D0402E
:1057D000842F90E0A0E08093E3059093E405A093EC
:1057E000E505602F8AED95E00E94711980919E0574
:1057F00080FF08C08091DD05882309F44DC08BE04F
:1058000090E09FCF89E090E09CCF8091E30590915C
:10581000E405A091E505CD56DF4F5881C359D0402E
:10582000952B8093E3059093E405A093E505602F05
:105830008AED95E00E9471198AE090E082CF809114
:10584000E3059091E405A091E505CD56DF4FB881C1
:10585000C359D040AB2B8093E3059093E405A0930C
:10586000E505602F8AED95E00E947119C3CFE091A4
:10587000970581E08E0F80939705F0E0EA51FA4F8B
:105880000083602F8AED95E00E9471199091970531
:105890008091DD059813BDCE8CE090E052CF8091D1
:1058A000E3059091E405A091E505AC016A2F70E055
:1058B000EAE08E2E912CA12CB12CC12CD12C76019A
:1058C0002AE0D701C601880D991DAA1DBB1D0196AE
:1058D000A11DB11DB695A79597958795289FF001B5
:1058E000299FF00D1124EC56FC4F408051806280BE
:1058F0007380441555056605770568F54C015D0113
:10590000E1E08E1A9108A108B108C814D904EA048C
:10591000FB04B8F28AE08C9DF0018D9DF00D1124FE
:10592000EC56FC4F80819181A281B38148175907C1
:105930006A077B07C1F464818AED95E00E947119C2
:105940008091DA059091DB05992708171906A1F4D3
:105950008DE090E013C06C017D014416550666068B
:105960007706C0F6D2CF8EE090E0909396058093B4
:1059700095050093EE064DCE8EE090E0909396054F
:10598000809395050093EE06809197059AE09C9D83
:10599000F0019D9DF00D1124EC56FC4F46818417BB
:1059A00008F037CE50E090E0481B590B70E060E003
:1059B0008A519A4F0E9435432CCE2E303105B1F0DA
:1059C000F091DB05C456DF4FF883CC59D040C35665
:1059D000DF4F1882CD59D040C456DF4FE880F980A0
:1059E000CC59D04081E00E151F0409F082E080936D
:1059F00092050093EF068091DE0580FF17C080912D
:105A00009205823051F480E190E090939605809366
:105A100095058DE080939F05FCCD8FE090E09093FD
:105A200096058093950510929205F3CFE091A0051D
:105A3000F091A105309749F002A4F3A5E02D30972D
:105A4000A9F480919205823001F581E090E0909375
:105A500096058093950583E291E0EAEDF5E0A2E6F4
:105A6000BCE001900D920197E1F7D3CD8091E30561
:105A70009091E405A091E505AC016A2F70E082E900
:105A800095E019958111E1CFDCCF83E080939205F9
:105A9000DCCF80919F05EDE0F0E0E81BF109E051DB
:105AA000F94F0083815080939F05811150C58090EC
:105AB000A0059090A10581E08114910409F4D0C162
:105AC0002090A2053090A30507E616EE29E03AE6FD
:105AD00025960CAF1DAF2EAF3FAF259725E83EEAC8
:105AE00047E65BEB29962CAF3DAF4EAF5FAF2997F2
:105AF00082E793EFAEE6BCE32D968CAF9DAFAEAFE1
:105B0000BFAF2D971AE3E12E15EFF12E0FE415EA42
:105B10006196ECAEFDAE0EAF1FAF61970FE712E5D9
:105B20002EE031E565960CAF1DAF2EAF3FAF659708
:105B30002CE838E645E05BE969962CAF3DAF4EAF07
:105B40005FAF69978BEA99EDA3E8BFE16D968CAFE3
:105B50009DAFAEAFBFAF6D9789E19DECA0EEBBE509
:105B6000A1968CAF9DAFAEAFBFAFA197A5961CAE6F
:105B70001DAE1EAE1FAEA59720E230E040E050E023
:105B8000B401665F7F4FCE0101960E94C11D2AE0DD
:105B900030E040E050E06CED75E0CE0101960E94EF
:105BA000C11D2091DD0530E050E040E066EE75E07B
:105BB000CE0101960E94C11D22E030E040E050E09D
:105BC0006EEE76E0CE0101960E94C11D27E030E026
:105BD00040E050E060EF76E0CE0101960E94C11DEA
:105BE000BE016B587F4FCE0101960E942F2046E0E8
:105BF00050E067EF76E0CE018B589F4F0E941F4325
:105C0000892B21F082E090E0D4018FC05090F00603
:105C1000AE961FAEAE97AF961FAEAF97E0961FAE93
:105C2000E097E1961FAEE197E2961FAEE297E3960A
:105C30001FAEE397E4961FAEE497E5961FAEE59797
:105C400086E0E1EFF6E0DE01A359BF4F01900D922F
:105C50008A95E1F72114310411F1F10180819181DC
:105C6000E091E1052091E205D101712C612C8615AE
:105C70009705C1F013963C911397E3130BC014964C
:105C80003C911497231306C012963C911297531619
:105C900009F4F0C0FFEF6F1A7F0A1996E8CF83E08E
:105CA00090E0B2CF409718F084E090E0ADCFAE9690
:105CB0002FADAE97AF963FADAF97E0964FADE09763
:105CC000E1965FADE197E2966FADE297E3967FAD27
:105CD000E397E4968FADE497E5969FADE59720585E
:105CE0003247444A5F4F6F4F7F4F8F4F9F4FD401D2
:105CF0001296AC9012971396BC9013971496CC9072
:105D000014971596DC9015971696EC9016971796A3
:105D1000FC90179718960C91189719961C91199743
:105D20000E94FC40F0F485E090E09D969C938E9359
:105D30009C97E091A005F091A10502A4F3A5E02DA8
:105D400080E0309709F48CC08091E3059091E405E0
:105D5000A091E505AC016A2F70E082E995E0199504
:105D60007FC089E0869DD001879DB00D1124A20DD2
:105D7000B31D1396EC9313978091E20514968C93C0
:105D8000149712965C92C3010196F101918380836E
:105D900089E0869DD001879DB00D11241596A20D36
:105DA000B31D86E0E1EFF6E001900D928A95E1F7F0
:105DB000AE963FACAE97AF965FACAF97E0966FAC48
:105DC000E097E1967FACE197E2964FACE297E396DD
:105DD0002FACE397E496FFADE497E596EFADE5973A
:105DE000D4011296AC9012971396BC901397149608
:105DF000CC9014971596DC9015971696EC90169704
:105E00001796FC90179718960C91189719961C9155
:105E10001997232D352DA301642D722D8F2F9E2FC1
:105E20000E94FC40C1F0B8F012963C921297139673
:105E30005C92139714966C92149715967C92159712
:105E400016964C92169717962C9217971896FC93C5
:105E500018971996EC9381E090E0F40195A784A738
:105E600020919505309196052031310509F063C0E8
:105E700082E00CCEA6961FAEA697A7961FAEA79758
:105E8000A8961FAEA897A9961FAEA997AA961FAE6F
:105E9000AA97AB961FAEAB97AC961FAEAC97AD96DC
:105EA0001FAEAD9789E0869DF001879DF00D11240E
:105EB0003596E20DF31D86E0DE01AB59BF4F019030
:105EC0000D928A95E1F7AE962FADAE97AF963FADA6
:105ED000AF97E0964FADE097E1965FADE197E29620
:105EE0006FADE297E3967FADE397A696AFACA6972A
:105EF000A796BFACA797A896CFACA897A996DFACFA
:105F0000A997AA96EFACAA97AB96FFACAB97AC96C5
:105F10000FADAC97AD961FADAD97E4968FADE497FE
:105F2000E5969FADE5970E94FC4011F008F030CF58
:105F300086E090E069CE882309F4A7CD81E0A6CD64
:105F4000882309F40ECB80916B0C90916C0CA0917E
:105F50006D0C8D349105A10509F4CAC268F400974F
:105F6000A10509F48BC20197A10509F0FACA809135
:105F7000720C8093810AF5CA8D369105A10509F44A
:105F800050C28F369105A10509F0EBCAE0906E0C66
:105F9000CD56DF4FE882C359D040F0906F0CC55604
:105FA000DF4FF882CB59D0400091700CC256DF4FC2
:105FB0000883CE59D0401091710CC156DF4F188321
:105FC000CF59D0402091720CC056DF4F2883C05A61
:105FD000D0403091730CCF55DF4F3883C15AD04039
:105FE0004091740CCE55DF4F4883C25AD040509137
:105FF000750CCD55DF4F5883C35AD040E092470C03
:10600000F092480C0093490C10934A0C20934B0CCF
:1060100030934C0C40934D0C50934E0C4090760CAA
:106020005090770C6090780C7090790C80907A0C7E
:1060300090907B0C30907C0C20907D0C40924F0C0B
:106040005092500C6092510C7092520C8092530CF2
:106050009092540C3092550C2092560C0E942817A6
:10606000CC55DF4F688379838A839B83C45AD040A1
:1060700020916E0A30916F0A4091700A5091710A16
:106080006091720A7091730A8091740A9091750AF6
:10609000A090660AB090670AC090680AD090690A1A
:1060A000E0906A0AF0906B0A00916C0A10916D0AF8
:1060B0000E94F340520163017401032D122D0E94CE
:1060C000F340CC55DF4FE880F9800A811B81C45A28
:1060D000D04057016801E12CF12C00E010E00E9453
:1060E000DE4001E00E94C340CD56DF4FA880C35977
:1060F000D040C556DF4FB880CB59D040C256DF4F95
:10610000C880CE59D040C156DF4FD880CF59D0403B
:10611000C056DF4FE880C05AD040CF55DF4FF880DF
:10612000C15AD040CE55DF4F0881C25AD040CD551C
:10613000DF4F1881C35AD0400E94DE40722E832E5A
:10614000942E652E562E472E382E292E20936E0A19
:1061500030936F0A4093700A5093710A6093720AE9
:106160007093730A8093740A9093750A0E9428179B
:106170007B018C0120E030E0A901CD56DF4F688320
:10618000C359D040CC56DF4FF882C459D040CB56CB
:10619000DF4F8883C559D040CA56DF4F1883C65990
:1061A000D040C956DF4F2883C759D040C856DF4F6B
:1061B0003883C859D040C756DF4F4883C959D040AB
:1061C000C656DF4F5883CA59D0406093660AF09292
:1061D000670A8093680A1093690A10926A0A1092FB
:1061E0006B0A10926C0A10926D0A0E9428179B018C
:1061F000AC0160E070E080E090E0CD56DF4FA88019
:10620000C359D040CC56DF4FB880C459D040CB568C
:10621000DF4FC880C559D040CA56DF4FD880C65915
:10622000D040E12CF12C00E010E00E94F340A72CBC
:10623000B82CC92CD62CE52CF42C032D122D0E9441
:10624000DE40E0E4AE2EF2E4BF2EAFE0CA2ED12C49
