:020000040000FA
:100000000C94460F0C94770F0C94770F0C94770F89
:100010000C94770F0C94770F0C94770F0C94770F48
:100020000C94770F0C94770F0C94770F0C94770F38
:100030000C94770F0C94770F0C94770F0C94770F28
:100040000C94770F0C94770F0C94770F0C94770F18
:100050000C94770F0C94770F0C94770F0C943A2430
:100060000C94770F0C940E250C94E4240C94770FC9
:100070000C94770F0C94770F0C94770F0C94770FE8
:100080000C94770F0C94770F0C94770F0C94770FD8
:100090000C94770F0C94770F0C94770F0C94770FC8
:1000A0000C94770F0C94770F0C94770F0C94770FB8
:1000B0000C94770F0C94770F0C94770F0C94770FA8
:1000C0000C94770F0C94770F0C94770F0C94770F98
:1000D0000C94770F0C94770F0C94AE240C9484241A
:1000E0000C94770F0C940A170C94D91F0C94D81306
:1000F0000C941D160C94A5130C94B2130C94F214CA
:100100000C9444250C947B160C9433150C94AD146C
:100110000C947A1F0C94B6130C94C4140C94911F75
:100120000C945F1F0C94DC130C94AD1F0C94C4133F
:100130000C946D160C94B71F0C9447150C940D1667
:100140000C94CA130C94B5140C94991F0C94F31FBF
:100150000C949D130C944A160C941F150C94CE14F9
:100160000C94BD160C94C01E0C94BA140C94E81494
:100170000C9423200C9497130C94FC140C94A31F40
:100180000C94D7130C94A1130C940B200C945916B7
:100190000C94A9130C94CE130C94AC130C94291545
:1001A0000C94E0140C9406150C941D210C94151558
:1001B0000C94BC130C94D2130C943D150C94D814CD
:1001C0000C94C0130C94B1200B10206006000000AA
:1001D000000000000000000000000000000000001F
:1001E000000000070000000000007C00FF33FF3328
:1001F0007C00000000000000000008000000003C3F
:10020000003C00000000003C003C0000000000003A
:10021000000B0002101E901FF0037E021E1E901F96
:10022000F0037E021E0010000900007804FC0CCCD4
:100230000CFF3FFF3FCC0CCC0F8807000000000BE9
:1002400000303838381C380E00078003C001E03811
:10025000703838381C000A0000001FB83FFC31C657
:1002600021E2373E1E1C1C00360022000006000062
:100270000000000027003F001F00000000000000F9
:10028000000000000800000000F003FC0FFE1F0744
:1002900038012001200000000000000800000000DC
:1002A000012001200738FE1FFC0FF00300000000B2
:1002B0000000090000980CB80EE003F80FF80FE0FA
:1002C00003B80E980C0000000009000080018001B6
:1002D0008001F00FF00F800180018001000000001C
:1002E0000600000000000000B800F80078000000E0
:1002F0000000000000000009000080018001800172
:100300008001800180018001800100000000060062
:100310000000000000003800380038000000000035
:1003200000000000000B0018001C000E00078003F6
:10033000C001E000700038001C000E000BF807FE42
:100340001F061E03338331C330633033301E18FE63
:100350001FF8070A000000000C300C300E30FF3F81
:10036000FF3F00300030003000000B1C301E38070B
:100370003C033E03378333C331E33077303E301CD8
:10038000300B0C0C0E1C0738C330C330C330C330E5
:10039000C330E7397E1F3C0E0BC003E00370033807
:1003A000031C030E030703FF3FFF3F000300030B83
:1003B0003F0C7F1C633863306330633063306330DD
:1003C000E338C31F830F0BC00FF01FF839DC30CEAA
:1003D00030C730C330C330C339801F000F0B030058
:1003E000030003000330033C030FC303F3003F008B
:1003F0000F0003000B000FBC1FFE39E730C330C3F2
:1004000030C330E730FE39BC1F000F0B3C007E00CC
:10041000E730C330C330C338C31CC30EE707FE0345
:10042000FC0006000000000000701C701C701C0026
:1004300000000000000000000006000000000000B6
:10044000709C70FC707C0000000000000000000048
:10045000090000C000E001F00338071C0E0E1C0765
:10046000380330000000000A0000600660066006E5
:10047000600660066006600660066006000009000F
:1004800000033007380E1C1C0E3807F003E001C0D3
:1004900000000000000A1C001E0007000300833754
:1004A000C337E30077003E001C0000000BF80FFE8E
:1004B0001F0718F333FB371B36FB37FB370736FEB6
:1004C00003F8010A0038003FE007FC061F061F067C
:1004D000FC06E007003F003800000AFF3FFF3FC373
:1004E00030C330C330C330E730FE39BC1F000F00CB
:1004F000000AF003FC0F0E1C0738033003300330F2
:1005000007380E1C0C0C00000AFF3FFF3F033003AE
:10051000300330033007380E1CFC0FF00300000AD4
:10052000FF3FFF3FC330C330C330C330C330C3309D
:100530000330033000000AFF3FFF3FC300C300C386
:1005400000C300C300C3000300030000000AF0035F
:10055000FC0F0E1C07380330C330C330C330C73F15
:10056000C63F00000AFF3FFF3FC000C000C000C000
:1005700000C000C000FF3FFF3F0000080000000077
:1005800003300330FF3FFF3F033003300000000023
:1005900000000A000E001E0038003000300030005D
:1005A000300038FF1FFF0700000AFF3FFF3FC00079
:1005B000E001F00338071C0E0E1C07380330000062
:1005C0000AFF3FFF3F0030003000300030003000B5
:1005D000300030003000000AFF3FFF3F1E0078006F
:1005E000E001E00178001E00FF3FFF3F00000AFF2E
:1005F0003FFF3F0E003800F000C0030007001CFF63
:100600003FFF3F00000AF003FC0F0E1C07380330C9
:10061000033007380E1CFC0FF00300000AFF3FFFF9
:100620003F83018301830183018301C701FE007CB5
:100630000000000AF003FC0F0E1C073803300336DD
:10064000073E0E1CFC3FF03300000AFF3FFF3F83D4
:1006500001830183038307830FC71DFE387C3000AD
:10066000000A3C0C7E1CE738C330C330C330C330B3
:10067000C7398E1F0C0F00000900000300030003A0
:1006800000FF3FFF3F030003000300000000000ADB
:10069000FF07FF1F00380030003000300030003806
:1006A000FF1FFF0700000A07003F00F801C00F000E
:1006B0003E003EC00FF8013F00070000000AFF3F68
:1006C000FF3F001C0006800380030006001CFF3F64
:1006D000FF3F00000A03300F3C1C0E3003E001E036
:1006E0000130031C0E0F3C033000000A03000F0012
:1006F0003C00F000C03FC03FF0003C000F00030092
:1007000000000A0330033C033E0333C331E33033BC
:10071000301F300F30033000000800000000FF3FA2
:10072000FF3F0330033003300330000000000000BF
:100730000B0E001C0038007000E000C001800300B8
:1007400007000E001C0018080000000003300330F2
:1007500003300330FF3FFF3F0000000000000B604C
:1007600000700038001C000E0007000E001C00384E
:1007700000700060000B00C000C000C000C000C0DE
:1007800000C000C000C000C000C000C007000000E2
:1007900000000000003E007E004E0000000000004F
:1007A0000000000A001C403E603360336033603359
:1007B00060336033E03FC03F00000AFF3FFF3FC0AF
:1007C000306030603060306030E038C01F800F0033
:1007D000000A800FC01FE038603060306030603049
:1007E0006030C018800800000A800FC01FE0386029
:1007F0003060306030E030C030FF3FFF3F00000A23
:10080000800FC01FE03B6033603360336033603380
:10081000C0138001000008C000C000FC3FFE3FC7BD
:1008200000C300C30003000000000000000A8003B2
:10083000C0C7E0CE60CC60CC60CC60CC60E6E07F2E
:10084000E03F000009FF3FFF3FC000600060006024
:1008500000E000C03F803F000000000800000000F2
:1008600000306030EC3FEC3F003000300000000012
:1008700000000800000000006000E000C060C0EC64
:10088000FFEC7F000000000000090000FF3FFF3F79
:1008900000038007C00FE01C60380030000000003B
:1008A000080000000000300330FF3FFF3F00300031
:1008B000300000000000000AE03FC03FE000E00020
:1008C000C03FC03FE000E000C03F803F00000A00A2
:1008D00000E03FE03F6000600060006000E000C0BA
:1008E0003F803F00000A800FC01FE038603060305A
:1008F00060306030E038C01F800F00000AE0FFE089
:10090000FF600C6018601860186018E01CC00F8051
:100910000700000A8007C00FE01C6018601860180C
:100920006018600CE0FFE0FF00000A0000E03FE01C
:100930003FC0006000600060006000E000C0000098
:100940000008C011E0336033603360336033603FD0
:10095000401E0000000000000860006000FE1FFE56
:100960003F60306030603000300000000000000A5E
:10097000E00FE01F00380030003000300030001879
:10098000E03FE03F00000A6000E0018007001E0039
:10099000380038001E8007E001600000000AE00710
:1009A000E01F0038001CE00FE00F001C0038E01FC3
:1009B000E0070000096030E038C01D800F000780AC
:1009C0000FC01DE03860300000000009000060002A
:1009D000E08180E7007E001E8007E00160000000EB
:1009E00000000960306038603C60366033E031E020
:1009F0003060302030000000000900008000C0019D
:100A0000FC1F7E3F0770036003600360000000006E
:100A1000060000000000000000FF3FFF3F00000054
:100A20000000000000000009000003600360036094
:100A300007707E3FFC1FC0018000000000000A100C
:100A40000018000C0004000C001800100018000C26
:100A500000040000000A000F800FC00C600C300C76
:100A6000300C600CC00C800F000F00000000210053
:100A7000240027002A002D0030003300010100006F
:100A8000040107010A0100002200250028002B00B4
:100A90002E003100340002010000050108010B01A5
:100AA000000020002300260029002C002F00320027
:100AB0000001000003010601090105050505070500
:100AC00008080808020202020A0A080804040404CA
:100AD00001010101010101010303030303030303F6
:100AE000040707070C0C0C0C0C0C0C0C0202020285
:100AF00006060606060606060B0B0B0B0B0B0B0B6E
:100B0000010210202008081020401020408002011F
:100B10000201080402010102040810204080804004
:100B20002010080402018004020180402010080403
:100B300002010804020101020408102040800102A1
:100B400004081020408000000A0B02090C0D0E085A
:100B50000703040100000000000000000000000086
:100B60000000000000000000000000000000000085
:100B70000000121110000000000000000000000042
:100B8000000000000000000000000000FFFFFFFF69
:100B9000FFFFFFFFFFFFFFFFFFFFFFFFFFFFFFFF65
:100BA000FFFFFFFFFFFFFFFFFFFFFFFFFFFFFFFF55
:100BB000FFFFFFFFFFFFFFFFFFFFFFFFFFFFFFFF45
:100BC000FFFFFFFFFFFFFFFFFFFFFFFFFFFFFFFF35
:100F5000FFFFFFFFFFFFFFFFFFFFFFFFFFFF00009F
:100F60000FFFFFFFFFFFFFFFFFFFFFFFFFFFFFFF81
:100F7000FFFFFFE00000007FFFFFFFFFFFFFFFFF1D
:100F8000FFFFFFFFFFFFFFFFFE0000000007FFFF66
:100F9000FFFFFFFFFFFFFFFFFFFFFFFFFFFFF0006F
:100FA00000000000FFFFFFFFFFFFFFFFFFFFFFFF4D
:100FB000FFFFFFFFC000000000003FFFFFFFFFFF3B
:100FC000FFFFFFFFFFFFFFFFFFFE0000000000002C
:100FD00007FFFFFFFFFFFFFFFFFFFFFFFFFFFFF820
:100FE00000000000000001FFFFFFFFFFFFFFFFFF09
:100FF000FFFFFFFFFFE0000000000000007FFFFF99
:10100000FFFFFFFFFFFFFFFFFFFFFFC0000000002B
:101010000000003FFFFFFFFFFFFFFFFFFFFFFFFF9D
:10102000FF00000000000000000FFFFFFFFFFFFFB8
:10103000FFFFFFFFFFFFFE000000000000000007B1
:10104000FFFFFFFFFFFFFFFFFFFFFFFFF8000000B4
:10105000000000000001FFFFFFFFFFFFFFFFFFFF99
:10106000FFFFF0000000000000000000FFFFFFFF96
:10107000FFFFFFFFFFFFFFFFE00000000000000098
:1010800000007FFFFFFFFFFFFFFFFFFFFFFF80006C
:1010900000000000000000001FFFFFFFFFFFFFFF38
:1010A000FFFFFFFF000000000000000000000FFF36
:1010B000FFFFFFFFFFFFFFFFFFFE0000000000003B
:1010C0000000000007FFFFFFFFFFFFFFFFFFFFFC27
:1010D0000000000000000000000003FFFFFFFFFF12
:1010E000FFFFFFFFFFF8000000000000000000000D
:1010F00001FFFFFFFFFFFFFFFFFFFFF00000000009
:1011000000000000000000FFFFFFFFFFFFFFFFFFE8
:10111000FFE000000000000000000000007FFFFF73
:10112000FFFFFFFFFFFFFFC0000000000000000006
:101130000000003FFFFFFFFFFFFFFFFFFF800000F9
:101140000000000000000000001FFFFFFFFFFFFF86
:10115000FFFFFF0000000000000000000000000F83
:10116000FFFFFFFFFFFFFFFFFF0000000000000088
:1011700000000000000FFFFFFFFFFFFFFFFFFE006A
:10118000000000000000000000000007FFFFFFFF5C
:10119000FFFFFFFFFC000000000000000000000057
:1011A0000003FFFFFFFFFFFFFFFFFC000000000048
:1011B0000000000000000001FFFFFFFFFFFFFFFF36
:1011C000F800000000000000000000000001FFFF28
:1011D000FFFFFFFFFFFFF000000000000000000025
:1011E00000000000FFFFFFFFFFFFFFFFF000000017
:1011F000000000000000000000007FFFFFFFFFFF75
:10120000FFFFE00000000000000000000000000000
:101210007FFFFFFFFFFFFFFFC00000000000000096
:101220000000000000007FFFFFFFFFFFFFFFC00086
:101230000FFFE00000000000000000007FFFFFFF44
:10124000FFFFFFFF80007FFFFC0000000007FFFFA3
:10125000FFFFFFFFFFFFFFFFFFFF8001FFFFFF001A
:101260000000003FFFFFFFFFFFFFFFFFFFFFFFFF4B
:101270000003FFFFFFC0000000FFFFFFFFFFFFFFB5
:10128000FFFFFFFFFFFF000FFFFFFFE0000003FF76
:10129000FFFFFFFFFFFFFFFFFFFFFFFE001FFFFF3E
:1012A000FFF8000007FFFFFFFFFFFFFFFFFFFFFF4B
:1012B000FFFE003FFFFFFFFC00000FFFFFFFFFFFEF
:1012C000FFFFFFFFFFFFFFFE007FFFFFFFFE0000AD
:1012D0001FFFFFFFFFFFFFFFFFFFFFFFFFFC00FF00
:1012E000FFFFFFFF00001FFFFFFFFFFFFFFFFFFFEC
:1012F000FFFFFFFC01FFFFFFFFFF00003FFFFFFFBD
:10130000FFFFFFFFFFFFFFFFFFFC01FFFC007FFF70
:1013100080003FFFF800000007FFFFFFFFFFFFF81E
:1013200003FFF0001FFFC0003FFE0000000001FFB0
:10133000FFFFFFFFFFF807FFE00007FFC0007FF897
:101340000000000001FFFFFFFFFFFFF807FFC000E4
:1013500003FFE0007FF80000000001FFFFFFFFFF38
:10136000FFF00FFF800001FFE0007FF000000000B1
:1013700000FFFFFFFFFFFFF00FFF000001FFF00085
:101380007FF00000000000FFFFFFFFFFFFF00FFEF7
:10139000000000FFF0007FF00000000000FFFFFFF2
:1013A000FFFFFFF01FFE0000007FF0007FF0000055
:1013B000000000FFFFFFFFFFFFE01FFC0000007FB9
:1013C000F8007FF800000000007FFFFFFFFFFFE054
:1013D0001FFC0000003FF8007FF800000000007FC5
:1013E000FFFFFFFFFFE01FFC0000003FF8007FFC55
:1013F00000000000007FFFFFFFFFFFE01FF800007C
:10140000003FF8003FFF00000000007FFFFFFFFFEC
:10141000FFE03FF80000003FF8003FFFC000000081
:10142000007FFFFFFFFFFFE03FF80000001FF80014
:101430001FFFF8000000007FFFFFFFFFFFE03FF805
:101440000000001FF8001FFFFF000000007FFFFFEB
:10145000FFFFFFC03FF80000001FF8000FFFFFE094
:101460000000003FFFFFFFFFFFC03FF80000001F2C
:10147000F80007FFFFFE0000003FFFFFFFFFFFC077
:101480003FF80000003FF80003FFFFFFC000003FEF
:10149000FFFFFFFFFFC03FF80000003FF80001FF23
:1014A000FFFFF800003FFFFFFFFFFFC03FF000001D
:1014B000003FF800007FFFFFFE00003FFFFFFFFF3F
:1014C000FFC03FF00000003FF800001FFFFFFF805B
:1014D000003FFFFFFFFFFFC03FF00000003FF800AC
:1014E0000007FFFFFFE0003FFFFFFFFFFFC03FF0EF
:1014F0000000003FF8000000FFFFFFF0003FFFFF8B
:10150000FFFFFFC03FF00000003FF00000001FFFA2
:10151000FFF8003FFFFFFFFFFFC07FF00000003F2C
:10152000F000000003FFFFFC003FFFFFFFFFFFC0D4
:101530007FF00000003FF0000000007FFFFE003F52
:10154000FFFFFFFFFFE07FE00000003FF000000032
:10155000000FFFFF003FFFFFFFFFFFE07FE0000005
:10156000007FF00000000001FFFF007FFFFFFFFF92
:10157000FFE07FE00000007FF000000000007FFF40
:10158000807FFFFFFFFFFFE07FE00000007FF000B3
:10159000000000001FFF807FFFFFFFFFFFE07FE0F4
:1015A0000000007FE0000000000007FF807FFFFFD9
:1015B000FFFFFFE07FE00000007FE0000000000090
:1015C00003FFC07FFFFFFFFFFFE0FFE00000007FA1
:1015D000E0000000000003FFC07FFFFFFFFFFFF0FF
:1015E000FFE00000007FE0000000000001FFC0FFFE
:1015F000FFFFFFFFFFF0FFE0000000FFE000000042
:10160000000001FFC0FFFFFFFFFFFFF0FFE0000051
:1016100000FFE0000000000001FFC0FFFFFFFFFF30
:10162000FFF0FFE0000000FFE0000000000001FF0D
:10163000C0FFFFFFFFFFFFF0FFC0000000FFE00062
:101640000000000003FFC0FFFFFFFFFFFFF8FFC027
:10165000000000FFE0000000000003FF81FFFFFF2B
:10166000FFFFFFF8FFC0000000FFE00000000000E7
:101670000FFF81FFFFFFFFFFFFFCFFC0000000FF27
:10168000E000000000003FFF81FFFFFFFFFFFFFDC4
:10169000FFC0000000FFFFFFFFFFFFFFFFFF03FF92
:1016A000FFFFFFFFFFFFFFC0000000FFFFFFFFFF86
:1016B000FFFFFFFF03FFFFFFFFFFFFFFFFC0000073
:1016C00001FFFFFFFFFFFFFFFFFE03FFFFFFFFFF25
:1016D000FFFFFF80000001FFFFFFFFFFFFFFFFFE96
:1016E00007FFFFFFFFFFFFFFFF80000001FFFFFF7D
:1016F000FFFFFFFFFFFC07FFFFFFFFFFFFFFFF8074
:10170000000001FFFFFFFFFFFFFFFFF80FFFFFFFDC
:10171000FFFFFFFFFF80000001FFFFFFFFFFFFFF54
:10172000FFE00FFFFFFFFFFFFFFFFF80000001FF53
:10173000FFFFFFFFFFFFFFC01FFFFFFFFFFFFFFFD8
:10174000FF80000001FFFFFFFFFFFFFFFF001FFF03
:10175000FFFFFFFFFFFFFF80000001FFFFFFFFFF14
:10176000FFFFC0003FFFFFFFFFFFFFFFFF80000004
:10177000000000000000000000003FFFFFFFFFFF2F
:10178000FFFFFF80000000000000000000000000DC
:101790007FFFFFFFFFFFFFFFFF00000000000000D2
:1017A0000000000000007FFFFFFFFFFFFFFFFF00C2
:1017B000000000000000000000000000FFFFFFFF2D
:1017C000FFFFFFFFFF00000000000000000000001E
:1017D0000000FFFFFFFFFFFFFFFFFF000000000012
:1017E0000000000000000001FFFFFFFFFFFFFFFF00
:1017F000FF00000000000000000000000003FFFFE9
:10180000FFFFFFFFFFFFFF000000000000000000DF
:1018100000000007FFFFFFFFFFFFFFFFFF000000CA
:1018200000000000000000000007FFFFFFFFFFFFB7
:10183000FFFFFF0000000000000000000000000F9C
:10184000FFFFFFFFFFFFFFFFFF8000000000000021
:1018500000000000001FFFFFFFFFFFFFFFFFFFC0B2
:1018600000000000000000000000003FFFFFFFFF3D
:10187000FFFFFFFFFFE0000000000000000000008D
:10188000007FFFFFFFFFFFFFFFFFFFE00000000002
:10189000000000000000007FFFFFFFFFFFFFFFFFD1
:1018A000FFF00000000000000000000000FFFFFF4C
:1018B000FFFFFFFFFFFFFFFC000000000000000033
:1018C000000001FFFFFFFFFFFFFFFFFFFFFE000023
:1018D000000000000000000003FFFFFFFFFFFFFF0C
:1018E000FFFFFFFF0000000000000000000007FFF6
:1018F000FFFFFFFFFFFFFFFFFFFF80000000000072
:10190000000000001FFFFFFFFFFFFFFFFFFFFFFFC3
:10191000C00000000000000000003FFFFFFFFFFFCD
:10192000FFFFFFFFFFFFE0000000000000000000DD
:101930007FFFFFFFFFFFFFFFFFFFFFFFF80000003B
:10194000000000000000FFFFFFFFFFFFFFFFFFFFA1
:10195000FFFFFC000000000000000003FFFFFFFF8E
:10196000FFFFFFFFFFFFFFFFFE0000000000000081
:101970000007FFFFFFFFFFFFFFFFFFFFFFFFFF80ED
:10198000000000000000001FFFFFFFFFFFFFFFFF40
:10199000FFFFFFFFFFE0000000000000007FFFFFEF
:1019A000FFFFFFFFFFFFFFFFFFFFFFF00000000052
:1019B000000000FFFFFFFFFFFFFFFFFFFFFFFFFF34
:1019C000FFFE00000000000003FFFFFFFFFFFFFF1E
:1019D000FFFFFFFFFFFFFFFF8000000000001FFF71
:1019E000FFFFFFFFFFFFFFFFFFFFFFFFFFFFE00025
:1019F000000000007FFFFFFFFFFFFFFFFFFFFFFF73
:101A0000FFFFFFFFFC0000000003FFFFFFFFFFFFE1
:101A1000FFFFFFFFFFFFFFFFFFFFFF800000001F32
:101A2000FFFFFFFFFFFFFFFFFFFFFFFFFFFFFFFFC6
:101A3000FFFC000001FFFFFFFFFFFFFFFFFFFFFFB5
:101A4000FFFFFFFFFFFFFFFFF000FFFFFFFFFFFFB4
:101A5000FFFFFFFFFFFFFFFFFFFFFFFFFFFFFFFF96
:101A6000FFFFFFFFFFFFFFFFFFFFFFFFFFFFFFFF86
:101A7000FFFFFFFFFFFFFFFFFFFFFFFFFFFFFFFF76
:101A8000FFFFFFFFFFFFFFFFFFFFFFFFFFFFFFFF66
:101E8000FFFFFFFFFFFFFFFFFFFF442511241FBEE1
:101E9000CFEFD1E2DEBFCDBF00E00CBF26E1A4E171
:101EA000BDE001C01D92A73CB207E1F71DE0A0E034
:101EB000B2E0ECEFF2E600E00BBF02C007900D923B
:101EC000A431B107D9F71FE0C6E4DFE000E006C0A7
:101ED00021970109802FFE010E94A72EC534D1074A
:101EE00080E00807A9F70E94F6250C947C310C9439
:101EF00000008091BD169091BE16A091BF16B091C2
:101F0000C0160197A109B1098093BD169093BE1622
:101F1000A093BF16B093C016892B8A2B8B2B49F444
:101F2000E0917B16F0917C16808190917F16892B31
:101F300080830895AC01E0917716F0917816808146
:101F400090918016892B8083E0917B16F0917C160E
:101F5000808190917F16909598239083809171163F
:101F600020E130E060E070E887FF12C05EBD0DB494
:101F700007FEFDCF4EBD0DB407FEFDCFE0917B16F1
:101F8000F0917C16808190917F16892B8083089533
:101F9000E0917316F091741690917D16DA01A623E4
:101FA000B7238081AB2BD9F0982B9083E0917516E5
:101FB000F0917616808190917E16892B8083E09136
:101FC0007516F0917616808190917E1690959823E3
:101FD00090837695679521503109D1F6CFCF9095B2
:101FE0009823E3CF9C01E0917716F09178168081D9
:101FF00090918016909598239083E0917B16F091B4
:102000007C16808190917F16909598239083809183
:10201000711640E150E060E070E887FF12C01EBC1E
:102020000DB407FEFDCF2EBD0DB407FEFDCFE09130
:102030007B16F0917C16808190917F16892B80838E
:102040000895E0917316F091741690917D16D90160
:10205000A623B7238081AB2BD9F0982B9083E091F6
:102060007516F0917616808190917E16892B80836B
:10207000E0917516F0917616808190917E1690957C
:10208000982390837695679541505109D1F6CFCF2B
:1020900090959823E3CFCF93DF93EB010E94F20F4B
:1020A000CE01DF91CF910C949A0F8091BD16909143
:1020B000BE16A091BF16B091C016AC01BD014F5F16
:1020C0005F4F6F4F7F4F4093BD165093BE16609386
:1020D000BF167093C016892B8A2B8B2B91F480919D
:1020E000711687FF04C080E58CBD81E08DBDE09155
:1020F0007B16F0917C16908180917F1680958923C4
:1021000080830895DC01FB01809181168230B9F053
:10211000833069F1813051F58091691690916A168A
:10212000019720813181821B930B918380832D91B4
:102130003C9111978D939C933183208308958091D6
:1021400067169091681601972D913C911197821B0B
:10215000930B8D939C938091691690916A160197C9
:1021600020813181821B930B91838083089580911C
:1021700067169091681601972D913C911197821BDB
:10218000930B11969C938E93208131812D933C93D8
:10219000EBCF0F931F93CF93DF9300D01F92CDB758
:1021A000DEB79A8389837C836B8320916716309195
:1021B00068168217930720F52091691630916A16E8
:1021C00062177307E8F48A01BE016D5F7F4FCE018D
:1021D00001960E9482100E94551069817A8180E2E6
:1021E00090E00E944B106B817C8181E290E00E9424
:1021F0004B10B80182E290E00E944B100E94790FD0
:102200000F900F900F900F90DF91CF911F910F9132
:1022100008950F931F93CF93DF9300D000D01F92A8
:102220001F92CDB7DEB77C836B835E834D83388787
:102230002F83209167163091681621503109281795
:10224000390708F4C9019A8389838D819E812817F3
:10225000390708F4C9019E838D8380916916909196
:102260006A1601972B813C818217930708F49C0121
:102270003C832B832F8138858217930708F49C01B8
:1022800038872F83BE016D5F7F4FCE0101960E947C
:102290008210BE01695F7F4FCE0105960E948210B9
:1022A0002D813E8189819A812817390720F43A834C
:1022B00029839E838D832F8138858B819C8128176C
:1022C000390720F43C832B8398878F830E94551015
:1022D000E0918116EE2379F0E150FF0B23E0EE0F41
:1022E000FF1F2A95E1F7E00FF11FEE0FFF1FED57DB
:1022F000F94E00811181B80183E0660F771F8A953E
:10230000E1F7706183E090E00E944B106D817E8167
:1023100086E390E00E944B1069817A8187E390E028
:102320000E944B106F81788588E390E00E944B10EB
:102330006B817C8189E390E00E944B101595079595
:102340000130110529F1ACF46D817E81012B11F171
:1023500082E290E00E94F20F0E94790F28960FB659
:10236000F894DEBF0FBECDBFDF91CF911F910F91CB
:10237000089502301105C9F069817A810330110591
:1023800039F780E290E00E944B106B817C8108C09D
:1023900069817A8180E290E00E944B106F8178859C
:1023A00081E290E00E944B10D3CF6D817E81E9CF16
:1023B0005F926F927F928F929F92AF92BF92CF92D5
:1023C000DF92EF92FF920F931F93CF93DF936C01F5
:1023D0005B018091671690916816813B910510F022
:1023E00080EB90E03C0121E0621A7108809169164F
:1023F00090916A168E3D910510F08DED90E07C0174
:1024000021E0E21AF10806E010E09701A30170E074
:1024100060E090E080E00E9409110E945510912C2C
:10242000812C512C10E000E0E016F1062CF1D0E0F8
:10243000C0E0CE0187709927550C892B59F4FE0115
:1024400083E0F595E7958A95E1F7E80DF91DE457E6
:10245000F44F54906C167D062CF0C60157FEC50152
:102460000E949A0F2196C03BD10519F70F5F1F4FAD
:1024700086E1880E911CD8CFDF91CF911F910F91EB
:10248000FF90EF90DF90CF90BF90AF909F908F9094
:102490007F906F905F900C94790F6FEA70E086E305
:1024A00090E00E944B1070E060E087E390E00E94B3
:1024B0004B106BED70E088E390E00E944B1070E0F1
:1024C00060E089E390E00C944B1008953F924F92A6
:1024D0005F926F927F928F929F92AF92BF92CF92B4
:1024E000DF92EF92FF920F931F93CF93DF9300D071
:1024F00000D000D01F92CDB7DEB76C017C836B8318
:10250000512C25E030E03A872987252D30E0EB81FA
:10251000FC81848195812817390708F0D0C080811B
:102520009181009709F4A0C0820F931FFC01808164
:102530007090B7162091BB16729E900111242F5FE8
:102540003F4F082E000C990B4091B916841B91093E
:10255000289F7001299FF00C389FF00C1124809166
:10256000BC16811109C0E091B516F091B616C701ED
:102570000496E80FF91F7490F5E0EF0EF11C0E942D
:102580005510A72CB12C49855A854F5F5F4F4A0DD6
:102590005B1D80916716909168164817590708F0DF
:1025A00065C02091B8162150330B2C0D3D1D809134
:1025B000691690916A162817390708F057C007E086
:1025C00010E0B60189859A850E940911442443943C
:1025D000612C8701312C29853A85260D311D3887DC
:1025E0002F83802F8E199091BB16891708F056C043
:1025F000E0E0761439F0E091B516F091B616E00FF0
:10260000F11FE4910F5F1F4F38E0839FC001112439
:102610009C012C0D3D1D3A832983912C812C8E2FFA
:1026200090E09E838D838091B8163816D0F68D8108
:102630009E81082C02C0959587950A94E2F78170D7
:1026400099274420D1F0892BA9F480916B169091A1
:102650006C160E949A0F33949FEF891A990AE8E04A
:102660008E16910401F7BDCF80E062CF412CB0CF30
:102670007801AFCF8FEF9FEFECCF40916B16509169
:102680006C16892B11F04FEF5FEF69817A81680D2D
:10269000791D8F8198850E94C910DDCF63947614CF
:1026A00038F70E94790F0E944D12C50101962985C5
:1026B0003A85280F391F3A872987539426CF898571
:1026C0009A852A960FB6F894DEBF0FBECDBFDF9174
:1026D000CF911F910F91FF90EF90DF90CF90BF901F
:1026E000AF909F908F907F906F905F904F903F90B2
:1026F00008958150823108F05AC0E82FF0E0882711
:10270000EB57FC4E8F4F0C94A72EA513A9139713CC
:102710009D13A113D713AC13B213B613BC13C0137C
:10272000C413CA13CE13D713D213D813DC1380915A
:1027300080008F77809380000895809180008F7D46
:10274000F9CF80918000877FF5CF84B58F7784BDE6
:10275000089584B58F7DFBCF8091B0008F778093F3
:10276000B00008958091B0008F7DF9CF80919000E6
:102770008F77809390000895809190008F7DF9CF9E
:1027800080919000877FF5CF8091A0008F77809314
:10279000A00008958091A0008F7DF9CF8091A000C6
:1027A000877FF5CF809120018F7780932001089556
:1027B000809120018F7DF9CF80912001877FF5CF17
:1027C000CF93DF93282F30E0F901EA5BF44F849137
:1027D000F901E050F54FD491F901E654F54FC49159
:1027E000CC23A1F081110E947913EC2FF0E0EE0FC1
:1027F000FF1FE056F54FA591B491EC91ED2381E0D8
:1028000090E009F480E0DF91CF91089580E090E0BE
:10281000FACF1F93CF93DF93282F30E0F901EA5BC3
:10282000F44F8491F901E050F54FD491F901E65449
:10283000F54FC491CC23A9F0162F81110E94791372
:10284000EC2FF0E0EE0FFF1FEA57F54FA591B49182
:102850008FB7F894EC91111108C0D095DE23DC936A
:102860008FBFDF91CF911F910895DE2BF8CFCF93CB
:10287000DF9390E0FC01E050F54F24918654954F92
:10288000FC0184918823D1F090E0880F991FFC010E
:10289000E459F54FA591B491FC01EA57F54FC59164
:1028A000D49161110EC09FB7F8948C91E22FE095FE
:1028B0008E238C932881E223E8839FBFDF91CF9101
:1028C00008958FB7F894EC91E22BEC938FBFF6CF7D
:1028D0001F93CF93DF938093B41610917216112338
:1028E00009F43FC0C0918216D0E0811102C0D0E04F
:1028F000C0E061E0812F0E943714209739F460E036
:10290000812FDF91CF911F910C940914CF3FD105F6
:1029100011F461E0F5CFE12FF0E0EA5BF44FE491D0
:10292000E150E23108F0B3C0F0E08827E556FB4EF5
:102930008F4F0C94A72EAD14B514BA14C414CE1432
:102940004715D814E014E814F214FC1406151515F4
:102950001F154715291533153D1584B5806884BDAD
:10296000C7BDDF91CF911F91089584B5806284BD6A
:10297000C8BDF7CF80918000806880938000D0939D
:102980008900C0938800EDCF8091800080628093A1
:102990008000D0938B00C0938A00E3CF80918000A9
:1029A000886080938000D0938D00C0938C00D9CF35
:1029B0008091B00080688093B000C093B300D1CF05
:1029C0008091B00080628093B000C093B400C9CF02
:1029D00080919000806880939000D0939900C0937C
:1029E0009800BFCF80919000806280939000D09338
:1029F0009B00C0939A00B5CF80919000886080932F
:102A00009000D0939D00C0939C00ABCF8091A0001C
:102A100080688093A0008091A0008F7B8093A000AD
:102A2000D093A900C093A8009CCF8091A0008062A1
:102A30008093A000D093AB00C093AA0092CF809166
:102A4000A00088608093A000D093AD00C093AC003C
:102A500088CF80912001806880932001D093290144
:102A6000C09328017ECF8091200180628093200155
:102A7000D0932B01C0932A0174CF809120018860EC
:102A800080932001D0932D01C0932C016ACFC038D0
:102A9000D1050CF03ECF33CF90917B00977F909380
:102AA0007B008653806480937C0080917A008064F0
:102AB00080937A0080917A0086FDFCCF8091780027
:102AC0009091790008953FB7F89480918A1290917F
:102AD0008B12A0918C12B0918D1226B5A89B05C0C7
:102AE0002F3F19F00196A11DB11D3FBFBA2FA92F8D
:102AF000982F8827BC01CD01620F711D811D911D8A
:102B000042E0660F771F881F991F4A95D1F70895F5
:102B10008F929F92AF92BF92CF92DF92EF92FF92ED
:102B20004B015C010E9463156B017C010E946315DF
:102B30006C197D098E099F09683E734081059105D6
:102B4000A8F321E0821A9108A108B10888EEC80E06
:102B500083E0D81EE11CF11C81149104A104B1048E
:102B600029F7FF90EF90DF90CF90BF90AF909F90AC
:102B70008F9008950F931F93CF93C0918116109259
:102B8000811680EB90E090936816809367168CED29
:102B900090E090936A168093691607E010E02BEDA1
:102BA00030E04FEA50E070E060E090E080E00E94AA
:102BB00009110E94551000E417E990E080E00E949E
:102BC0009A0F01501109C9F70E94790F0E944D1206
:102BD000C370C0938116C130B9F0C330A9F080EB47
:102BE00090E090936816809367168CED90E0909338
:102BF0006A16809369166AE070E080E090E0CF91F9
:102C00001F910F910C9488158CED90E090936816AD
:102C10008093671680EB90E0EACF4115510561057E
:102C2000710549F04D7F81E04D3651056105710513
:102C300019F080E0089581E00895AF92BF92CF929D
:102C4000DF92EF92FF920F931F93CF93DF936C016C
:102C50007B018B01040F151FEB015E01AE18BF084D
:102C6000C017D10759F06991D601ED91FC910190FF
:102C7000F081E02DC6011995892B79F7C501DF9107
:102C8000CF911F910F91FF90EF90DF90CF90BF9069
:102C9000AF900895FC01538D448D252F30E0842F93
:102CA00090E0821B930B541710F0CF960895019774
:102CB0000895FC01918D828D981761F0A28DAE0F61
:102CC000BF2FB11D5D968C91928D9F5F9F73928FE8
:102CD00090E008958FEF9FEF0895FC01918D828D14
:102CE000981731F0828DE80FF11D858D90E00895E1
:102CF0008FEF9FEF0895FC01918D228D892F90E039
:102D0000805C9F4F821B91098F739927089589E9F1
:102D100092E10E947B1621E0892B09F420E0822FAA
:102D2000089586E393E10E947B1621E0892B09F444
:102D300020E0822F0895FC01A48DA80FB92FB11DAA
:102D4000A35ABF4F2C91848D90E001968F739927E1
:102D5000848FA689B7892C93A089B1898C918370BF
:102D600080648C93938D848D981306C00288F389B8
:102D7000E02D80818F7D80830895EF92FF920F93E5
:102D80001F93CF93DF93EC0181E0888F9B8D8C8D17
:102D900098131AC0E889F989808185FF15C09FB70B
:102DA000F894EE89FF896083E889F98980818370CE
:102DB000806480839FBF81E090E0DF91CF911F917D
:102DC0000F91FF90EF900895F62E0B8D10E00F5F9E
:102DD0001F4F0F731127E02E8C8D8E110CC00FB674
:102DE00007FCFACFE889F989808185FFF5CFCE010C
:102DF0000E949B16F1CFEB8DEC0FFD2FF11DE35AD6
:102E0000FF4FF0829FB7F8940B8FEA89FB8980818E
:102E10008062CFCFCF93DF93EC01888D8823B9F008
:102E2000AA89BB89E889F9898C9185FD03C08081D5
:102E300086FD0DC00FB607FCF7CF8C9185FFF2CF52
:102E4000808185FFEDCFCE010E949B16E9CFDF91F7
:102E5000CF91089580E090E0892B29F00E9491168F
:102E600081110E94000080E090E0892B49F080E011
:102E700090E0892B29F00E94000081110E9400003F
:102E800080E090E0892B49F080E090E0892B29F0E8
:102E90000E94000081110E94000080E090E0892BD8
:102EA00029F00E94871681110C94000008950E9459
:102EB000631521E0613C764C8D42910508F420E0D9
:102EC000822F0895FB019081892790E1899F9001CD
:102ED0001124822790E0382F2227AC0163E0440FB1
:102EE000551F6A95E1F724273527418150E02427B3
:102EF000352774E0959587957A95E1F78227932792
:102F00009183808308950F931F93CF93DF931F9234
:102F10001F92CDB7DEB78C01862FF8012081318159
:102F20003A832983BE016F5F7F4F0E9462178981B8
:102F30009A81F801918380830F900F90DF91CF9158
:102F40001F910F9108950F931F938091180D811178
:102F50000DC00E9463156093140D7093150D80933E
:102F6000160D9093170D81E08093180D84E00E9458
:102F7000E01380939112882309F452C00E946315D4
:102F8000AB01BC018091931290919412A091951283
:102F9000B09196120091140D1091150D2091160DFF
:102FA0003091170D801B910BA20BB30B840F951F53
:102FB000A61FB71F8093931290939412A09395121B
:102FC000B093961281389448AE41B10518F081E073
:102FD0008093921285E00E94E01380938F1283E029
:102FE0000E94E01380938E1282E00E94E01380938F
:102FF000901286E00E94E0138093971288E00E946E
:10300000E013809398120E9463156093140D7093DF
:10301000150D8093160D9093170D1F910F91089524
:10302000109293121092941210929512109296127E
:1030300010929212CFCF0E94A317809191128823F1
:10304000D1F308958F929F92AF92BF92CF92DF9269
:10305000EF92FF920F931F93CF93DF938C01CAE0FF
:10306000D0E086E30E944C15BC01990F880B990BA8
:103070000E94062D9B01AC01C501B4010E94932D55
:103080004B015C0187E30E944C15BC01990F880B32
:10309000990B0E94062D9B01AC01C701B6010E944D
:1030A000932D6B017C012197E1F620E030E040E2B6
:1030B00051E4C501B4010E94FF2D0E94712EF80158
:1030C0007183608320E030E040E251E4C701B60143
:1030D0000E94FF2D0E94712EF80173836283DF919D
:1030E000CF911F910F91FF90EF90DF90CF90BF9005
:1030F000AF909F908F9008952F923F924F925F9242
:103100006F927F928F929F92AF92BF92CF92DF92F7
:10311000EF92FF920F931F93CF93DF93CDB7DEB75C
:10312000CA58D1400FB6F894DEBF0FBECDBF1C0108
:10313000C35ADE4F79836883CD55D140C95BDE4FDA
:10314000288339834A835B83C754D140DC01CD9007
:10315000DD90ED90FC90DA01C90113E0880F991F12
:10316000AA1FBB1F1A95D1F78C0D9D1DAE1DBF1D4B
:10317000F10180839183A283B3838C159D05AE05F5
:10318000BF0558F484819581A681B7810196A11D60
:10319000B11D84839583A683B783A3E0F694E79457
:1031A000D794C794AA95D1F7FFE3CF22DD24EE246C
:1031B000FF248101085D1F4FCD57DE4F198308831F
:1031C000C358D1408E010F5B1E4FCF5BDE4F19837A
:1031D0000883C154D140C95BDE4F488059806A8062
:1031E0007B80C754D140411451046104710409F437
:1031F00087C480E490E0A0E0B0E08C199D09AE099E
:10320000BF095301420184159505A605B70510F4C1
:103210004C015D01CD57DE4F88819981C358D14063
:103220008C0D9D1DA401C35ADE4F68817981CD5557
:10323000D1400E946531C80CD91CEA1CFB1CC35A42
:10324000DE4F68807980CD55D140680C791CC35A17
:10325000DE4F79826882CD55D140C95BDE4F488010
:1032600059806A807B80C754D140481859086A0841
:103270007B08C95BDE4F488259826A827B82C754D1
:10328000D14000E4C016D104E104F10409F0A3CF59
:10329000CD57DE4F88819981C358D1408E010F5F91
:1032A0001E4FF801DC0113962C9113972083129680
:1032B0002C911297218311962C91119722832C9196
:1032C000238304963496CF5BDE4F48805980C154E7
:1032D000D1404E165F0631F7D1011896CD90DD90A2
:1032E000ED90FC901B97C15ADE4FC882D982EA82CA
:1032F000FB82CF55D1401C964D905D906D907C9097
:103300001F97CD59DE4F488259826A827B82C3560D
:10331000D14050964D905D906D907C905397C959D7
:10332000DE4F488259826A827B82C756D1405496CA
:103330004D905D906D907C905797C559DE4F4882B7
:1033400059826A827B82CB56D14058964D905D90CF
:103350006D907C905B97C159DE4F488259826A829A
:103360007B82CF56D1405C964D905D906D907C9065
:103370005F97CD58DE4F488259826A827B82C3575D
:10338000D14090964D905D906D907C909397C958E8
:10339000DE4F488259826A827B82C757D140949619
:1033A0004D905D906D907C909797C558DE4F488208
:1033B00059826A827B82CB57D1409E012F5F3F4F5B
:1033C000CD5ADE4F39832883C355D140C901D80176
:1033D0004D915D916D917D918D01DC014D935D93DA
:1033E0006D937D93CD01E017F10789F7CD5ADE4F3C
:1033F00048805980C355D140B0EC4B0E511CCD5A7A
:10340000DE4F68807980C355D140CD5BDE4F798235
:103410006882C354D140F30180AD91ADA2ADB3AD8C
:103420000481158126813781F4E06F0E711C6C01D7
:103430007D014FE0CC0CDD1CEE1CFF1C4A95D1F742
:10344000AC01BD01E1E17695679557954795EA9501
:10345000D1F7C42AD52AE62AF72AAC01BD01FDE03E
:10346000440F551F661F771FFA95D1F74C015D0178
:10347000E3E1B694A79497948794EA95D1F7482905
:1034800059296A297B294C255D256E257F25FAE07F
:10349000B695A79597958795FA95D1F7842795279F
:1034A000A627B727CD5BDE4FE881F981C354D14011
:1034B00044A155A166A177A1C080D180E280F380AC
:1034C0004C0D5D1D6E1D7F1D840F951FA61FB71F20
:1034D0006801790147E0F694E794D794C7944A9538
:1034E000D1F7B901A801E9E1440F551F661F771F05
:1034F000EA95D1F7C42AD52AE62AF72AB901A80104
:10350000FEE0440F551F661F771FFA95D1F748015B
:103510005901E2E1B694A79497948794EA95D1F77C
:10352000482959296A297B294C255D256E257F2547
:10353000F3E03695279517950795FA95D1F740272B
:10354000512762277327840F951FA61FB71FF3010A
:1035500084AF95AFA6AFB7AF4614570409F055CF67
:1035600008E312E0C757DE4F19830883C958D140DA
:10357000C559DE4F288139814A815B81CB56D140C4
:10358000C158DE4F288339834A835B83CF57D140AC
:10359000C959DE4F488159816A817B81C756D14024
:1035A000C15BDE4F488359836A837B83CF54D1400C
:1035B000CD59DE4F688179818A819B81C356D14084
:1035C000C55BDE4F688379838A839B83CB54D1406C
:1035D000C15ADE4F488159816A817B81CF55D140E4
:1035E000C958DE4F88819981AA81BB81C757D140D4
:1035F000C75ADE4F88839983AA83BB83C955D140BC
:10360000CD58DE4F488059806A807B80C357D140B7
:10361000CB5ADE4F488259826A827B82C555D1409F
:10362000C558DE4FC880D980EA80FB80CB57D14097
:10363000CD5BDE4FC882D982EA82FB82C354D1407F
:10364000C159DE4F88819981AA81BB81CF56D14073
:10365000C757DE4FE881F981C958D140C190D19058
:10366000E190F190C757DE4FF983E883C958D14004
:10367000CB57DE4FC882D982EA82FB82C558D1403F
:10368000CD5ADE4FE881F981C355D14081909190A8
:10369000A190B190CD5ADE4FF983E883C355D14054
:1036A0002C013D012AE1440C551C661C771C2A950F
:1036B000D1F78C019D01E6E0369527951795079582
:1036C000EA95D1F7402A512A622A732A8C019D017A
:1036D000F5E1000F111F221F331FFA95D1F76C017E
:1036E0007D01EBE0F694E794D794C794EA95D1F77F
:1036F0000C291D292E293F29042515252625372586
:103700002C013D01F9E17694679457944794FA951A
:10371000D1F76C017D01E7E0CC0CDD1CEE1CFF1C39
:10372000EA95D1F7C428D528E628F7280C251D25C9
:103730002E253F25CB57DE4F488059806A807B80FD
:10374000C558D140840C951CA61CB71C080D191D2A
:103750002A1D3B1D4C015D0180949094A094B0946F
:10376000C75ADE4FC880D980EA80FB80C955D14056
:103770008C209D20AE20BF20CB5ADE4FC880D98040
:10378000EA80FB80C555D140C822D922EA22FB221B
:103790008C249D24AE24BF24800E911EA21EB31E35
:1037A000CD5BDE4FE880F9800A811B81C354D14094
:1037B0008E0C9F1CA01EB11E8A019B01FEE1000F12
:1037C000111F221F331FFA95D1F76A017B01E2E036
:1037D000F694E794D794C794EA95D1F72601370178
:1037E000402A512A622A732A6A017B01F3E1CC0C38
:1037F000DD1CEE1CFF1CFA95D1F78A019B01EDE060
:103800003695279517950795EA95D1F7C02AD12ABD
:10381000E22AF32AC424D524E624F7242A013B0112
:10382000F6E17694679457944794FA95D1F78A0114
:103830009B01EAE0000F111F221F331FEA95D1F709
:10384000402A512A622A732A930182010C251D25E0
:103850002E253F25CD5BDE4F088319832A833B83CA
:10386000C354D140C55BDE4FC880D980EA80FB805D
:10387000CB54D140C15BDE4F488059806A807B8049
:10388000CF54D140C424D524E624F724C422D52221
:10389000E622F722C55BDE4F088119812A813B8130
:1038A000CB54D1400421152126213721C026D12611
:1038B000E226F326CD5BDE4F488059806A807B800C
:1038C000C354D1404C0C5D1C6E1C7F1CC158DE4F94
:1038D000088119812A813B81CF57D140080D191DDC
:1038E0002A1D3B1D480C591C6A1C7B1CC75ADE4F05
:1038F000C880D980EA80FB80C955D140CD5BDE4FBE
:10390000C882D982EA82FB82C354D140C15BDE4FB8
:10391000C880D980EA80FB80CF54D140C158DE4FA7
:10392000C882D982EA82FB82CF57D140F8E3EF2EDA
:10393000F3E0FF2EC757DE4FE881F981C958D14027
:10394000EE16FF0609F0A7C0C15ADE4FC880D98025
:10395000EA80FB80CF55D1404C0C5D1C6E1C7F1C57
:10396000F1014086518662867386CD59DE4F4880CC
:1039700059806A807B80C356D140440D551D661D19
:10398000771D4487558766877787C959DE4F4881F9
:1039900059816A817B81C756D140C55BDE4F488023
:1039A00059806A807B80CB54D140440D551D661DE3
:1039B000771D408B518B628B738BC559DE4F4881CD
:1039C00059816A817B81CB56D140C15BDE4F4880F3
:1039D00059806A807B80CF54D140440D551D661DAF
:1039E000771D448B558B668B778BC159DE4F488092
:1039F00059806A807B80CF56D140400E511E621E96
:103A0000731E83017201E08EF18E028F138FCD58E9
:103A1000DE4F488059806A807B80C357D140840D37
:103A2000951DA61DB71D848F958FA68FB78FC9587A
:103A3000DE4F88819981AA81BB81C757D140CB5A7B
:103A4000DE4F488059806A807B80C555D140840D07
:103A5000951DA61DB71D80A391A3A2A3B3A3C5580E
:103A6000DE4F88819981AA81BB81CB57D140C75A4B
:103A7000DE4F488059806A807B80C955D140840DD3
:103A8000951DA61DB71D84A395A3A6A3B7A3C12CFE
:103A9000D12C7601A0CBC55BDE4FC880D980EA80EF
:103AA000FB80CB54D140C15BDE4FC882D982EA8211
:103AB000FB82CF54D140C55BDE4F488359836A8374
:103AC0007B83CB54D140B301A201CB5ADE4F488057
:103AD00059806A807B80C555D140C75ADE4F4882E5
:103AE00059826A827B82C955D140CB5ADE4F888386
:103AF0009983AA83BB83C555D140D901C801A8CDFC
:103B0000C657DE4F0FB6F894DEBF0FBECDBFDF91B4
:103B1000CF911F910F91FF90EF90DF90CF90BF90CA
:103B2000AF909F908F907F906F905F904F903F905D
:103B30002F900895EF92FF920F931F93CF93DF93EF
:103B4000CDB7DEB7C854D1090FB6F894DEBF0FBEAB
:103B5000CDBF8C017B01FC0180819181A281B38169
:103B6000AC01BD0123E076956795579547952A9559
:103B7000D1F74F73552727E730E0241B350B2F7300
:103B8000332740E84983BE016E5F7F4F47E4FB0166
:103B900011924A95E9F7AE01420F531FFA0181874E
:103BA0009087A783B683F8015481458196818781E8
:103BB000DE01A20FB31F15965C93DE01A20FB31FA7
:103BC00014964C93DE01A20FB31F13969C93FB0136
:103BD000E20FF31F8083275F3F4F50E040E06150CA
:103BE0007109C8010E947C18F8018385F701808360
:103BF000F8018285F7018183F8018185F7018283CD
:103C0000F8018085F7018383F8018785F7018483B4
:103C1000F8018685F7018583C85BDF4F0FB6F894FE
:103C2000DEBF0FBECDBFDF91CF911F910F91FF90EF
:103C3000EF900895FC0180819181009711F00C9420
:103C4000EE2F0895EF92FF920F931F93CF93DF9380
:103C5000EC017B01198218821B821A821D821C8250
:103C6000FB0101900020E9F731978F01061B170B2C
:103C7000B8016F5F7F4F90E080E00E94773000973F
:103C8000B9F0998388831B830A832C813D81232B80
:103C900011F4FC0110821D830C83B7018881998186
:103CA000DF91CF911F910F91FF90EF900C947531A0
:103CB00088819981009711F00E94EE2F1982188255
:103CC0001D821C821B821A82DF91CF911F910F915E
:103CD000FF90EF9008952F923F924F925F926F92D4
:103CE0007F928F929F92AF92BF92CF92DF92EF928C
:103CF000FF920F931F93CF93DF93CDB7DEB7CC58CE
:103D0000D1090FB6F894DEBF0FBECDBF89E992E1AD
:103D10000E947B16892B09F493C589E992E10E94E0
:103D200059168C01C158DF4F8883CF57D04010926D
:103D3000BF112091C2113091C3112131310508F01A
:103D40003CC0F9018827E855F14E8F4F0C94A72EFF
:103D5000C01EC01E5F1F7A1F911F991FA31FAD1F9A
:103D6000B71FD91FF31F0B202320B120B1201D2125
:103D70001D2181E090E09093C3118093C211C6CFC2
:103D80008091CB11C158DF4F2881CF57D0402D3FB4
:103D900009F081C022E030E03093C3112093C211BA
:103DA0001092230D0093220D8E7F8093CB118FEF05
:103DB0009FEF9093210D8093200D8091BF11813052
:103DC000A9F42091C7113091C8119091260D9093BC
:103DD000C5112115310521F41092CA111092C91193
:103DE0002F5F3F4F3093C8112093C7119091230D3F
:103DF0009093F1132091C2113091C3113093B011FF
:103E00002093AF119091C4119093B1119091C5116D
:103E10009F5F9093B2112091C7113091C8113093D8
:103E2000B5112093B4112091C11130E03093B71136
:103E30002093B6119091CB119093B8111092C111AB
:103E4000823041F42091340E3091350E3093EF13CF
:103E50002093EE139EEF980F923008F01CC481E07F
:103E60008093C1111092BF11C158DF4FB881CF5755
:103E7000D040BD3F09F07DCF82E090E09093C31128
:103E80008093C2111092230D8FEF9FEF9093210D1D
:103E90008093200D3BCFC158DF4F3881CF57D040A2
:103EA0003E3F09F0CAC422E030E03093C3112093B2
:103EB000C2111092230D0093220D816076CF0093E2
:103EC000230D1092C411602F80E29DE00E948317A1
:103ED0008091CB1180FF07C01092240D1092250D08
:103EE00085E090E002C083E090E09093C31180935E
:103EF000C21163CF0093240DC8018E7F9927892BAF
:103F000041F08091C1118F5F8093C11181E090E0F9
:103F1000ECCF602F80E29DE00E94831784E090E068
:103F2000E4CF0093250D602F80E29DE00E9483176F
:103F3000D7CF0093260D602F80E29DE00E9483176B
:103F400086E090E0D2CF0093270D602F80E29DE0C5
:103F50000E94831787E090E0C8CF0093280D602F60
:103F600080E29DE00E94831788E090E0BECFC158B8
:103F7000DF4F4881CF57D040842F90E0A0E080935E
:103F8000290D90932A0DA0932B0D602F80E29DE0C8
:103F90000E9483178091CB1180FF08C08091230D70
:103FA000882309F44DC08BE090E09FCF89E090E03A
:103FB0009CCF8091290D90912A0DA0912B0DC15875
:103FC000DF4F5881CF57D040952B8093290D909388
:103FD0002A0DA0932B0D602F80E29DE00E94831795
:103FE0008AE090E082CF8091290D90912A0DA091D6
:103FF0002B0DC158DF4FB881CF57D040AB2B8093EA
:10400000290D90932A0DA0932B0D602F80E29DE047
:104010000E948317C3CFE091C41181E08E0F80937B
:10402000C411F0E0E45DF24F0083602F80E29DE078
:104030000E9483179091C4118091230D9813BDCED7
:104040008CE090E052CF8091290D90912A0DA091A3
:104050002B0DAC016A2F70E088EE882E912CA12CDC
:10406000B12CC12CD12C76012AE0D701C601880DD4
:10407000991DAA1DBB1D0196A11DB11DB695A79541
:1040800097958795289FF001299FF00D1124E85CF2
:10409000FC4F408051806280738044155505660551
:1040A000770568F54C015D01E1E08E1A9108A108E1
:1040B000B108C814D904EA04FB04B8F28AE08C9D64
:1040C000F0018D9DF00D1124E85CFC4F8081918101
:1040D000A281B381481759076A077B07C1F464813D
:1040E00080E29DE00E9483178091200D9091210D28
:1040F000992708171906A1F48DE090E013C06C0110
:104100007D014416550666067706C0F6D2CF8EE0CE
:1041100090E09093C3118093C2110093340E4DCE62
:104120008EE090E09093C3118093C2110093340EFF
:104130008091C4119AE09C9DF0019D9DF00D112489
:10414000E85CFC4F4681841708F037CE50E090E0E1
:10415000481B590B70E060E0845D924F0E946E3105
:104160002CCE2E303105B1F0F091210DC957DF4F23
:10417000F883C758D040C857DF4F1882C858D0407E
:10418000C957DF4FE880F980C758D04081E00E154D
:104190001F0409F082E08093BF110093350E8091D7
:1041A000240D80FF17C08091BF11823051F480E14F
:1041B00090E09093C3118093C2118DE08093CC1155
:1041C000FCCD8FE090E09093C3118093C2111092C8
:1041D000BF11F3CFE091CD11F091CE11309749F09E
:1041E00002A4F3A5E02D3097A9F48091BF1182308D
:1041F00001F581E090E09093C3118093C21183E2B6
:1042000091E0E0E2FDE0AEEEB3E101900D920197A6
:10421000E1F7D3CD8091290D90912A0DA0912B0D1E
:10422000AC016A2F70E08FEB91E119958111E1CF1C
:10423000DCCF83E08093BF11DCCF8091CC11EDE027
:10424000F0E0E81BF109EA5CF14F008381508093B4
:10425000CC118111F2C28090CD119090CE1181E0ED
:104260008114910409F4A7C12090CF113090D0118E
:1042700019821A821B821C821D821E821F8218864E
:1042800007E616EE29E03AE609871A872B873C876E
:1042900025E83EEA47E65BEB2D873E874F87588B44
:1042A00082E793EFAEE6BCE3898B9A8BAB8BBC8B3A
:1042B0001AE3E12E15EFF12E0FE415EAED8AFE8ADE
:1042C0000F8B188F0FE712E52EE031E5098F1A8F5B
:1042D0002B8F3C8F2CE838E645E05BE92D8F3E8F35
:1042E0004F8F58A38BEA99EDA3E8BFE189A39AA366
:1042F000ABA3BCA319E1E12E1DECF12E00EE1BE5F2
:10430000EDA2FEA20FA318A720E230E040E050E0AB
:10431000B401665F7F4FCE0101960E947C182AE0AF
:1043200030E040E050E062E27DE0CE0101960E9484
:104330007C182091230D30E050E040E06CE27DE0FD
:10434000CE0101960E947C1822E030E040E050E06F
:1043500064E37EE0CE0101960E947C1827E030E005
:1043600040E050E066E37EE0CE0101960E947C18BA
:10437000BE0167587F4FCE0101960E949A1D46E00C
:1043800050E06DE37EE0CE0187589F4F0E94583188
:10439000892B21F082E090E0D4018FC05090360E3E
:1043A000E2961FAEE297E3961FAEE397E4961FAE48
:1043B000E497E5961FAEE597E6961FAEE697E7967B
:1043C0001FAEE797E8961FAEE897E9961FAEE9970C
:1043D00086E0E7E3FEE0DE01AF58BF4F01900D92AB
:1043E0008A95E1F72114310411F1F1018081918165
:1043F000E091270D2091280DD101712C612C86159B
:104400009705C1F013963C911397E3130BC01496D4
:104410003C911497231306C012963C9112975316A1
:1044200009F4D3C0FFEF6F1A7F0A1996E8CF83E033
:1044300090E0B2CF409718F084E090E0ADCFE296E4
:104440002FADE297E3963FADE397E4964FADE49747
:10445000E5965FADE597E6966FADE697E7967FAD9B
:10446000E797E8968FADE897E9969FADE9972058D2
:104470003247444A5F4F6F4F7F4F8F4F9F4FD4015A
:104480001296AC9012971396BC9013971496CC90FA
:1044900014971596DC9015971696EC90169717962C
:1044A000FC90179718960C91189719961C911997CC
:1044B0000E94492FF0F485E090E09D969C938E93A6
:1044C0009C97E091CD11F091CE1102A4F3A5E02DBF
:1044D00080E0309709F46FC08091290D90912A0DEA
:1044E000A0912B0DAC016A2F70E08FEB91E1199533
:1044F00062C089E0869DD001879DB00D1124A20D78
:10450000B31D1396EC9313978091280D14968C93FA
:10451000149712965C92C3010196F10191838083F6
:1045200089E0869DD001879DB00D11241596A20DBE
:10453000B31D86E0E7E3FEE001900D928A95E1F776
:10454000E2963FACE297E3965FACE397E4966FACFC
:10455000E497E5967FACE597E696BFADE697E796DC
:10456000AFADE797E8964FACE897E9962FACE9979F
:10457000F401A280B380C480D580E680F7800085F6
:104580001185232D352DA3016B2F7A2F842D922D8C
:104590000E94492F49F040F0328253826482758232
:1045A000B683A7834086218681E090E0D4019D9662
:1045B0009C938E939C972091C2113091C31120310E
:1045C000310509F063C082E035CEAA961FAEAA97E6
:1045D000AB961FAEAB97AC961FAEAC97AD961FAE29
:1045E000AD97AE961FAEAE97AF961FAEAF97E09663
:1045F0001FAEE097E1961FAEE19789E0869DF0013E
:10460000879DF00D11243596E20DF31D86E0DE0145
:10461000A759BF4F01900D928A95E1F7E2962FAD11
:10462000E297E3963FADE397E4964FADE497E596C6
:104630005FADE597E6966FADE697E7967FADE797B6
:10464000AA96AFACAA97AB96BFACAB97AC96CFACE3
:10465000AC97AD96DFACAD97AE96EFACAE97AF969C
:10466000FFACAF97E0960FADE097E1961FADE197F5
:10467000E8968FADE897E9969FADE9970E94492F9C
:1046800011F008F04DCF86E090E086CE882309F443
:10469000D0CD81E0CFCD882309F438CB8091F713BA
:1046A0009091F813A091F9138F369105A10509F0A7
:1046B0002DCB2090FA133090FB134090FC135090B8
:1046C000FD136090FE137090FF1380900014909083
:1046D00001142092D3133092D4134092D5135092E8
:1046E000D6136092D7137092D8138092D9139092F8
:1046F000DA13A0900214B0900314C0900414D09068
:104700000514E0900614C757DF4FE882C958D0401F
:10471000F0900714C657DF4FF882CA58D040009176
:104720000814C557DF4F0883CB58D04010910914A7
:10473000C457DF4F1883CC58D040A092DB13B092FF
:10474000DC13C092DD13D092DE13E092DF13F092FF
:10475000E0130093E1131093E2130E9463157B01B1
:104760008C0120E030E0A901C158DF4F6883CF57AA
:10477000D040C058DF4FF882C058D040CF57DF4FED
:104780008883C158D040CE57DF4F1883C258D040DD
:10479000CD57DF4F2883C358D040CC57DF4F3883E5
:1047A000C458D040CB57DF4F4883C558D040CA5774
:1047B000DF4F5883C658D0409B01AC0160E070E0E9
:1047C00080E090E0C757DF4FE880C958D040C65717
:1047D000DF4FF880CA58D040C557DF4F0881CB580B
:1047E000D040C457DF4F1881CC58D0400E94402F92
:1047F00001E00E94102F51016201730184010E94A7
:104800002B2FEAE0AE2EB12CC12CD12CE12CF12CB7
:1048100000E010E00E94B12E2093091230930A129A
:1048200040930B1250930C1260930D1270930E1262
:1048300080930F129093101269CA8091BF11D6CA4B
:10484000C457DF4F0FB6F894DEBF0FBECDBFDF9168
:10485000CF911F910F91FF90EF90DF90CF90BF907D
:10486000AF909F908F907F906F905F904F903F9010
:104870002F9008951F920F920FB60F9211242F932D
:104880003F938F939F93AF93BF93809186129091A4
:104890008712A0918812B09189123091851223E07D
:1048A000230F2D3758F50196A11DB11D20938512B8
:1048B0008093861290938712A0938812B0938912E6
:1048C00080918A1290918B12A0918C12B0918D12CE
:1048D0000196A11DB11D80938A1290938B12A09313
:1048E0008C12B0938D12BF91AF919F918F913F9198
:1048F0002F910F900FBE0F901F90189526E8230F51
:104900000296A11DB11DD2CF1F920F920FB60F922A
:1049100011240BB60F922F933F934F935F936F9396
:104920007F938F939F93AF93BF93EF93FF9389E907
:1049300092E10E949B16FF91EF91BF91AF919F91E1
:104940008F917F916F915F914F913F912F910F9038
:104950000BBE0F900FBE0F901F9018951F920F92D5
:104960000FB60F9211240BB60F922F938F939F9334
:10497000EF93FF93E091A912F091AA128081E09148
:10498000AF12F091B01282FD1DC090818091B212E1
:104990008F5F8F732091B312821741F0E091B212B2
:1049A000F0E0E756FD4E958F8093B212FF91EF91A4
:1049B0009F918F912F910F900BBE0F900FBE0F9074
:1049C0001F9018958081F2CF1F920F920FB60F9211
:1049D00011240BB60F922F933F934F935F936F93D6
:1049E0007F938F939F93AF93BF93EF93FF9386E350
:1049F00093E10E949B16FF91EF91BF91AF919F9120
:104A00008F917F916F915F914F913F912F910F9077
:104A10000BBE0F900FBE0F901F9018951F920F9214
:104A20000FB60F9211240BB60F922F938F939F9373
:104A3000EF93FF93E0914613F09147138081E0914B
:104A40004C13F0914D1382FD1DC0908180914F1346
:104A50008F5F8F7320915013821741F0E0914F13B5
:104A6000F0E0EA5CFC4E958F80934F13FF91EF913D
:104A70009F918F912F910F900BBE0F900FBE0F90B3
:104A80001F9018958081F2CFE9E9F2E1138212823A
:104A900048EE53E060E070E044835583668377839B
:104AA00086E79CE09183808325E331E03587248786
:104AB00024E331E03787268720E331E0318B208BF8
:104AC00021E331E0338B228B22E331E0358B248BE1
:104AD00026E331E0378B268B118E128E138E148EC7
:104AE000E6E3F3E11382128244835583668377837E
:104AF0009183808385EC90E09587848784EC90E0B7
:104B00009787868780EC90E0918B808B81EC90E09A
:104B1000938B828B82EC90E0958B848B86EC90E07B
:104B2000978B868B118E128E138E148EE5EEF3E129
:104B300081E080839FEB918322E12283138247EA05
:104B400054E060E070E04583568367837087E3ED4F
:104B5000F3E122E0208B818BEDE3F6E1808391830A
:104B600040E951E0538342831482218782878387FF
:104B7000118A108A138A128A148A158A168A178A49
:104B8000108E118E128E138E84A395A381E195E170
:104B900097A386A38EEE93E191A780A780E3E8E038
:104BA000F2E0A3E8B6E101900D928A95E1F7E7E61D
:104BB000F6E18AE3868389E387838BE3808788E352
:104BC00081878DE382878FE3838788EC838F1092C0
:104BD000B3161092BD161092BE161092BF16109208
:104BE000C0161092C2161092C1160895CF93DF938B
:104BF000CDB7DEB7CC57D1090FB6F894DEBF0FBEE4
:104C0000CDBF789484B5826084BD84B5816084BD55
:104C100085B5826085BD85B5816085BD80916E005A
:104C2000816080936E00109281008091810082608B
:104C300080938100809181008160809381008091C8
:104C400080008160809380008091B10084608093B7
:104C5000B1008091B00081608093B000809191009C
:104C60008260809391008091910081608093910097
:104C7000809190008160809390008091A10082607B
:104C80008093A1008091A10081608093A100809118
:104C9000A00081608093A0008091210182608093B8
:104CA0002101809121018160809321018091200167
:104CB00081608093200180917A00846080937A00E3
:104CC00080917A00826080937A0080917A0081607E
:104CD00080937A0080917A00806880937A001092A5
:104CE000C10060E082E00E94371460E083E00E942F
:104CF000371460E085E00E94371460E084E00E9491
:104D0000371460E086E00E94371460E088E00E947B
:104D1000371460E086E30E94371460E087E30E9466
:104D20003714E0914613F091471382E08083E091BD
:104D30004213F09143131082E0914413F091451314
:104D40008FEC808310924E13E0914A13F0914B1335
:104D500086E08083E0914813F0914913808180615F
:104D60008083E0914813F0914913808188608083AB
:104D7000E0914813F0914913808180688083E0912D
:104D80004813F091491380818F7D808380916D1647
:104D9000181644F461E00E94371460E080916D16AB
:104DA0000E94091480917216181634F461E00E9472
:104DB000371480E00E94681461E080916E160E94B2
:104DC000371460E080916E160E94091461E08091B2
:104DD0006F160E94371461E080916F160E940914CB
:104DE00080916F16082E000C990BFC01E654F54FCC
:104DF000E491F0E0EE0FFF1FEA57F54F2591349153
:104E000030937C1620937B16FC01E050F54FE49123
:104E1000E0937F1680916E16082E000C990BFC0112
:104E2000E654F54FE491F0E0EE0FFF1FEA57F54F1F
:104E3000259134913093781620937716FC01E05039
:104E4000F54FE491E09380168091711687FDB7C20B
:104E500061E0809170160E94371460E080917016B6
:104E60000E94091461E0809171160E94371461E07C
:104E7000809171160E94091480917116082E000C01
:104E8000990BFC01E654F54FE491F0E0EE0FFF1FA3
:104E9000EA57F54FA591B491B0937616A093751685
:104EA0008050954FFC01849180937E16209170165E
:104EB000022E000C330BF901E654F54FE491F0E0BB
:104EC000EE0FFF1FEA57F54F45915491509374161A
:104ED00040937316F901E050F54FE491E0937D168D
:104EE000EC9180958E238C93E0917316F09174165B
:104EF000908180917D1680958923808380917116A1
:104F000087FF33C01FB7F8948091BE11811127C06D
:104F1000EFEEFAE08491E5E3FBE09491E82FF0E016
:104F2000EE0FFF1FE459F54FA591B491EC91E923E1
:104F300021F461E085E30E94091461E085E30E94A9
:104F400037148CB580618CBD8CB580648CBD61E0FC
:104F500084E30E94371461E083E30E943714809158
:104F6000BE118F5F8093BE111FBF80916D16181602
:104F7000FCF461E00E94091461E070E080E090E0E0
:104F80000E94881560E080916D160E9409146AE005
:104F900070E080E090E00E94881561E080916D16DD
:104FA0000E94091462E370E080E090E00E9488159E
:104FB0000E94551070E060E080E190E00E944B108C
:104FC00070E060E081E190E00E944B1070E060E0F2
:104FD00082E190E00E944B1070E060E083E190E09D
:104FE0000E944B1070E060E084E190E00E944B1062
:104FF0000E94790F68E270E080E090E00E948815DE
:105000000E94551068E170E081E190E00E944B1031
:1050100061E271E682E190E00E944B106FE670E081
:1050200083E190E00E944B106FE579E484E190E029
:105030000E944B1060E078E080E190E00E944B100D
:105040000E94790F6AE070E080E090E00E9488158D
:105050000E9455106BE370E181E190E00E944B10DB
:105060000E94790F62E370E080E090E00E94881572
:105070000E9455106CE171E081E090E00E944B10BD
:1050800060E071E082E090E00E944B1068E370E124
:1050900083E090E00E944B1070E060E087E090E0D9
:1050A0000E944B1068E078E088E090E00E944B108E
:1050B00060E071E18BE090E00E944B1070E060E0F6
:1050C0008CE090E00E944B1061E07DE08FE090E08A
:1050D0000E944B1060E270E085E190E00E944B106E
:1050E00070E060E080E290E00E944B1070E060E0D1
:1050F00081E290E00E944B1070E060E080E390E07D
:105100000E944B106BED70E081E390E00E944B1029
:1051100070E060E082E390E00E944B1070E060E09D
:1051200083E390E00E944B106BED70E084E390E02D
:105130000E944B1070E060E085E390E00E944B100D
:105140006FEA70E086E390E00E944B1070E060E050
:1051500087E390E00E944B106BED70E088E390E0F5
:105160000E944B1070E060E089E390E00E944B10D9
:1051700070E060E080E590E00E944B1068E078E02D
:1051800081E590E00E944B106AE078E082E590E0D3
:105190000E944B106AE070E083E590E00E944B10A3
:1051A00068E07AE084E590E00E944B1068E078E0E7
:1051B00085E590E00E944B1070E060E086E590E0AD
:1051C0000E944B1060E07AE087E590E00E944B106F
:1051D00060E177E088E590E00E944B1060E177E0C5
:1051E00089E590E00E944B1062E170E087E090E07A
:1051F0000E944B100E94790F62E370E080E090E023
:105200000E9488150E94551067E170E187E090E0E8
:105210000E944B100E94790F81E00E946814109246
:10522000811680EB90E090936816809367168CED62
:1052300090E090936A168093691610926C16109203
:105240006B160E94BA150E94BA15E8ECF1E0F093D3
:10525000B616E093B516E491E093B716E9ECF1E0E9
:1052600084918093B816EAECF1E0E491E093B916EA
:10527000EBECF1E0E491E093BA16982F96959695B1
:1052800096959093BB161092BC16877019F09F5F8D
:105290009093BB166FE170E08FEF9FEF0E94D811E3
:1052A0006CED7EEA80E194E80E94D81164E87CE02D
:1052B000CE0101960E94221EBE016F5F7F4F85E0E6
:1052C00090E00E946612CE0101960E941A1E60E9CB
:1052D0007CE0CE0101960E94221EBE016F5F7F4FCF
:1052E0008DE290E00E946612CE0101960E941A1E85
:1052F00067E97CE0CE0101960E94221EBE016F5F2D
:105300007F4F86E490E00E946612CE0101960E94D3
:105310001A1EE7E0F2E18EE2DF011D928A95E9F7BD
:1053200081E08093071280E2E2E5FCE0A1E1B2E1D6
:1053300001900D928A95E1F78DE096E190933212FB
:10534000809331126DE97CE0CE0101960E94221E0D
:10535000CE0101960E941A1ECE0101960E942218CB
:105360006AEC7CE0CE0101960E94221E0E941B186E
:10537000CE0101960E941A1ECE0101960E942218AB
:105380006AEE7CE0CE0101960E94221ECE010196BB
:105390000E941A1E0E9457178823A1F180910002D3
:1053A00090910102892B21F01092010210920002CB
:1053B0000E945717882381F00E946B1EF9CF10922C
:1053C00076161092751610927E1610927416109220
:1053D000731610927D1692CD809100029091010279
:1053E000029731F082E090E09093010280930002F6
:1053F0000E94631560937D1270937E1280937F12DA
:105400009093801259E1252E5DEC352E50EE452EFD
:105410005BE5552E0E946315609381127093821292
:1054200080938312909384120E94631500917D12E1
:1054300010917E1220917F1230918012601B710BAF
:10544000820B930B603177428105910508F4D6C237
:1054500080916216909161168090591670905A163C
:1054600070915B1660915C1650915D1640915E16CE
:1054700030915F162091601690905116A0905216B0
:10548000B0905316D0905416E0905516F0905616E2
:10549000B0915716A0915816009165161091661696
:1054A000F8019486A586B686D786E08AF18AB28B03
:1054B000A38B848A758A768B678B508F418F328F4E
:1054C000238F948F858F8FE690E0A0E0818792876D
:1054D000A38780914112982F927081FD18C0E091AE
:1054E0004312F0914412F12C309719F080818170B1
:1054F000F82E8DEFF80182837E9682E122912111B0
:1055000003C081508130D1F73AE0D32E06C08EEF30
:10551000828346E0D42EF12C80E1D80113968C933F
:10552000139782E017968C93179781E018968C93C7
:105530001897F1104AC014961C92D80115961C9227
:10554000159780913C1216968C93169780913C1279
:105550008F5F80933C1212968C911297AA968FAF10
:10556000AA9713968C911397AB968FAFAB9799230D
:1055700079F116968C911697AC968FAFAC971796DB
:105580008C91AD968FAFAD9781E0AE968FAFAE9711
:105590008FE6AF968FAFAF978FEF9FEF9A83898398
:1055A000CE0187599F4F5C014C018D0C911C9FEFE0
:1055B000A91AB90AA814B90459F1BE016F5F7F4F47
:1055C000D5018C910E946217F2CFF8018483B5CF88
:1055D000F8018481AC968FAFAC978581AD968FAF83
:1055E000AD978681AE968FAFAE978781AF968FAF1E
:1055F000AF9781E0E0968FAFE0978FE6E1968FAFAF
:10560000E197E2961FAEE297E3961FAEE397C4CF11
:1056100089819A81ED969FAF8EAFED97F8018380D7
:10562000912C5801FCE0AF0EB11C350121E0821A2B
:105630009108BE0165587F4F8FEF8816980631F0AC
:10564000D3018D913D010E946217F0CF82E20E944A
:105650006217EC969FADEC97ED968FADED97D80164
:105660001396EC911397EA0DFB2DF11D9083139681
:10567000EC911397EA0DFB2DF11D81839C931196FC
:105680008C931197FF2009F4E2C0E0904312F09050
:105690004412E114F10409F4DAC0F701808180FFBB
:1056A000D6C013967C9081814801FAEE8F1AFEEFE6
:1056B0009F0AD4018C93F7018281E4968FAFE4971F
:1056C0008381E5968FAFE5978481E6968FAFE69765
:1056D0008581E7968FAFE7978681E8968FAFE89749
:1056E0008781E9968FAFE9978085EA968FAFEA9731
:1056F0008185EB968FAFEB97119686E0FE01ED5812
:10570000FF4F01900D928A95E1F7D70112962C91E7
:10571000129713963C91139714964C9114971596E3
:105720005C91159716966C91169717967C91179722
:1057300018968C91189719969C91A1E00E94342F8D
:10574000F70122833383448355836683778380877D
:10575000918719821A821B821C821D821E821F82DF
:10576000188687E696EEA9E0BAE689879A87AB871E
:10577000BC8785E89EEAA7E6BBEB8D879E87AF874F
:10578000B88B82E793EFAEE6BCE3898B9A8BAB8B49
:10579000BC8B8AE395EFAFE4B5EA8D8B9E8BAF8B24
:1057A000B88F8FE792E5AEE0B1E5898F9A8FAB8F26
:1057B000BC8F8CE898E6A5E0BBE98D8F9E8FAF8FFC
:1057C000B8A38BEA99EDA3E8BFE189A39AA3ABA3A1
:1057D000BCA32DA23EA24FA258A6B701665F7F4F81
:1057E00020E230E040E050E0CE0101960E947C18BB
:1057F0002D2D30E050E040E0BE0167597F4FCE01D3
:1058000001960E947C18272D30E050E040E0B50161
:10581000CE0101960E947C18B501670D711D22E032
:1058200030E040E050E0CE0101960E947C1827E075
:1058300030E040E050E0B401CE0101960E947C18B7
:10584000B801635E7E4FCE0101960E949A1D0091C1
:10585000651610916616E0906316F0906416D801F4
:105860001396DC90139712968C911297B801645F8F
:105870007F4F8E3F09F49BC0AD2CB12CFB01EA0D8C
:10588000FB1DDA2CB1E0BA1538F49501215031092D
:105890009291992309F4B0C0F7018083D182D80195
:1058A00014968C911497828315968C911597838307
:1058B00016968C911697848317968C9117978583EB
:1058C00018968C911897868319968C9119978783CF
:1058D00019968D919D91AC919087F8018185928563
:1058E000A385F701A187A501C7010A960E9465312A
:1058F000FAE0AF0EB11CF701EA0DFB1DD8011496BA
:105900008C9199E0F92E80FF75C08DE0D8019C91B3
:10591000908311969C919183882E912C882341F03D
:10592000B8016A5E7E4FA401CF0102960E946531E4
:1059300084010F0D111D0D5F1F4F0D0D111D81E114
:10594000E82E85E1F82EF70161917F0189E992E166
:105950000E94BD16C70181519541801791079CF3A4
:105960000E94631560937D1270937E1280937F1264
:10597000909380120E946B1E0E945717811141C0A4
:105980000E9463150091811210918212209183125E
:1059900030918412601B710B820B930B6A3071057E
:1059A0008105910508F036CD0E94A317E9CFF701D4
:1059B0008083D18216968C911697828317968C914C
:1059C0001797838318968C911897848319968C91D6
:1059D0001997858313964C9150E0C70106960E9453
:1059E0006531D8011396EC91F0E03696EE0DFF1D6F
:1059F00025E0F22E80E08ACF590143CF0E94631543
:105A0000B9CF0E942A17C6CCE89409C097FB3EF490
:105A100090958095709561957F4F8F4F9F4F9923FB
:105A2000A9F0F92F96E9BB279395F6958795779579
:105A30006795B795F111F8CFFAF4BB0F11F460FF39
:105A40001BC06F5F7F4F8F4F9F4F16C0882311F091
:105A500096E911C0772321F09EE8872F762F05C0A5
:105A6000662371F096E8862F70E060E02AF09A9540
:105A7000660F771F881FDAF7880F9695879597F935
:105A8000089597F99F6780E870E060E008959FEFC0
:105A900080EC089500240A941616170618060906C5
:105AA000089500240A941216130614060506089594
:105AB000092E0394000C11F4882352F0BB0F40F41C
:105AC000BF2B11F460FF04C06F5F7F4F8F4F9F4F5C
:105AD000089557FD9058440F551F59F05F3F71F0DE
:105AE0004795880F97FB991F61F09F3F79F0879545
:105AF0000895121613061406551FF2CF4695F1DFCE
:105B000008C0161617061806991FF1CF869571055D
:105B1000610508940895E894BB2766277727CB0191
:105B200097F908955058BB27AA270E94AA2D0C94D4
:105B3000582D0E944A2D38F00E94512D20F039F442
:105B40009F3F19F426F40C94472D0EF4E095E7FBE3
:105B50000C94412DE92F0E94692D58F3BA17620762
:105B600073078407950720F079F4A6F50C948B2D24
:105B70000EF4E0950B2EBA2FA02D0B01B901900168
:105B80000C01CA01A0011124FF27591B99F0593FAC
:105B900050F4503E68F11A16F040A22F232F342FF4
:105BA0004427585FF3CF469537952795A795F04042
:105BB0005395C9F77EF41F16BA0B620B730B840B57
:105BC000BAF09150A1F0FF0FBB1F661F771F881F0F
:105BD000C2F70EC0BA0F621F731F841F48F4879567
:105BE00077956795B795F7959E3F08F0B0CF939559
:105BF000880F08F09927EE0F9795879508950E94D2
:105C0000132E0C94582D0E94512D58F00E944A2DAD
:105C100040F029F45F3F29F00C94412D51110C9470
:105C20008C2D0C94472D0E94692D68F39923B1F3B4
:105C3000552391F3951B550BBB27AA2762177307B2
:105C4000840738F09F5F5F4F220F331F441FAA1F46
:105C5000A9F335D00E2E3AF0E0E832D09150504002
:105C6000E695001CCAF72BD0FE2F29D0660F771FB0
:105C7000881FBB1F261737074807AB07B0E809F096
:105C8000BB0B802DBF01FF2793585F4F3AF09E3F1B
:105C9000510578F00C94412D0C948C2D5F3FE4F36A
:105CA000983ED4F3869577956795B795F7959F5F5E
:105CB000C9F7880F911D9695879597F90895E1E0AA
:105CC000660F771F881FBB1F621773078407BA0709
:105CD00020F0621B730B840BBA0BEE1F88F7E09564
:105CE00008950E94782E6894B1110C948C2D08951B
:105CF0000E94712D88F09F5798F0B92F9927B751BE
:105D0000B0F0E1F0660F771F881F991F1AF0BA955F
:105D1000C9F714C0B13091F00E948B2DB1E0089505
:105D20000C948B2D672F782F8827B85F39F0B93FF7
:105D3000CCF3869577956795B395D9F73EF4909512
:105D40008095709561957F4F8F4F9F4F0895EE0F0F
:105D5000FF1F881F8BBF0790F691E02D1994689460
:105D600001C0E8948F929F92CF93DF930E94BD2E43
:105D7000DF91CF919F908F90089588249924F4010A
:105D8000E401B0E49F93AA279A158B049C04ED05C7
:105D9000FE05CF05D007A10798F4AD2FDC2FCF2F3C
:105DA000FE2FE92D982C892E982F872F762F652F7F
:105DB000542F432F322F2227B85031F7BF9127C0DD
:105DC0001B2EBF91BB27220F331F441F551F661F79
:105DD000771F881F991F881C991CEE1FFF1FCC1F5F
:105DE000DD1FAA1FBB1F8A149B04EC05FD05CE0511
:105DF000DF05A007B10748F08A189B08EC09FD09E8
:105E0000CE09DF09A00BB10B21601A94E1F62EF444
:105E10009401AF01BE01CD01000C089597FD1094CF
:105E2000002E083098F00850232F342F452F562F7E
:105E3000672F782F892F912DF4CF159497958795FB
:105E40007795679557954795379527950A95AAF7BA
:105E50001124002D08952A0D3B1D4C1D5D1D6E1D46
:105E60007F1D801F911F08950024A7FD00942A0F15
:105E7000301D401D501D601D701D801D901D08951A
:105E80002A193B094C095D096E097F09800B910BAA
:105E900008952A153B054C055D056E057F058007B5
:105EA000910708950F931F93CF93DF93823091054D
:105EB00010F482E090E0E091C516F091C61630E053
:105EC00020E0B0E0A0E0309799F42115310509F405
:105ED0004AC0281B390B24303105D8F58A819B81B3
:105EE0006115710589F1FB0193838283FE0111C065
:105EF000408151810281138148175907E0F048170A
:105F0000590799F4109761F012960C931297139613
:105F10001C933296CF01DF91CF911F910F9108957D
:105F20000093C5161093C616F4CF2115310551F014
:105F30004217530738F0A901DB019A01BD01DF01C7
:105F4000F801C1CFEF01F9CF9093C6168093C51623
:105F5000CDCFFE01E20FF31F8193919322503109BF
:105F600039832883D7CF2091C3163091C416232BB1
:105F700041F420910402309105023093C41620931D
:105F8000C31620910202309103022115310541F41C
:105F90002DB73EB74091060250910702241B350BE6
:105FA000E091C316F091C416E217F307A0F42E1B7C
:105FB0003F0B2817390778F0AC014E5F5F4F24176D
:105FC000350748F04E0F5F1F5093C4164093C31619
:105FD000819391939FCFF0E0E0E09CCFCF93DF934C
:105FE0000097E9F0FC01329713821282A091C51646
:105FF000B091C616ED0130E020E01097A1F42081A9
:106000003181820F931F2091C3163091C416281737
:10601000390709F061C0F093C416E093C316DF910D
:10602000CF910895EA01CE17DF07E8F54A815B8139
:106030009E0141155105B1F7E901FB83EA834991BE
:106040005991C40FD51FEC17FD0761F48081918130
:106050000296840F951FE901998388838281938139
:106060009B838A83F0E0E0E012968D919C911397D8
:106070000097B9F52D913C911197CD010296820FB1
:10608000931F2091C3163091C4162817390739F68B
:10609000309751F51092C6161092C516B093C416DB
:1060A000A093C316BCCFD383C28340815181840F98
:1060B000951FC817D90761F44E5F5F4F888199819A
:1060C000480F591F518340838A819B819383828328
:1060D0002115310509F0B0CFF093C616E093C5162F
:1060E0009ECFFD01DC01C0CF13821282D7CF4F9229
:1060F0005F926F927F928F929F92AF92BF92CF9258
:10610000DF92EF92FF920F931F93CF93DF938C0157
:10611000009799F4CB01DF91CF911F910F91FF90E0
:10612000EF90DF90CF90BF90AF909F908F907F9037
:106130006F905F904F900C94522FFC01E60FF71F69
:106140009C0122503109E217F30708F4AEC0D901CF
:10615000CD91DC911197C617D70720F1C530D10535
:1061600078F0CE0104978617970750F0C61BD70B1F
:106170002297C193D1936D937C93CF010E94EE2F10
:10618000C801DF91CF911F910F91FF90EF90DF90A9
:10619000CF90BF90AF909F908F907F906F905F90C7
:1061A0004F9008955B01AC1ABD0A4C018C0E9D1EE8
:1061B000A091C516B091C616512C412CF12CE12CA2
:1061C000109731F58091C3169091C41688159905E2
:1061D00009F05CC04616570608F058C080910202CC
:1061E00090910302009741F48DB79EB7409106024B
:1061F00050910702841B950BE817F90708F055C06A
:10620000F093C416E093C316F90171836083B8CF8D
:106210008D919C91119712966C90129713967C9089
:106220001397A815B90559F56C0142E0C40ED11CAD
:10623000CA14DB0420F1AC014A195B09DA01129699
:10624000159780F06282738251834083D9016D93E8
