:100000000C9436070C9467070C9467070C946707E9
:100010000C9467070C9467070C9467070C946707A8
:100020000C9467070C9467070C9467070C94670798
:100030000C9467070C9467070C9467070C94670788
:100040000C9467070C9467070C9467070C94670778
:100050000C9467070C9467070C9467070C94292F7E
:100060000C9467070C949D2F0C94732F0C946707C6
:100070000C9467070C9467070C9467070C94670748
:100080000C9467070C9467070C9467070C94670738
:100090000C9467070C9467070C9467070C94670728
:1000A0000C9467070C9467070C9467070C94670718
:1000B0000C9467070C9467070C9467070C94670708
:1000C0000C9467070C9467070C9467070C946707F8
:1000D0000C9467070C9467070C9467070C946707E8
:1000E0000C9467070C944B0C0C944C290C946C0CDE
:1000F0000C9458280C94FD150C94BB390C94990D54
:100100000C94470C0C9432280C943D0F0C94B2299B
:100110000C9400280C94D40E0C94360C0C944E289D
:100120000C94DA0D0C94C60D0C94C6260C9467271B
:100130000C9478280C94A6280C946D0C0C94B20D99
:100140000C947B0D0C942E160C94400D0C946B0D9E
:100150000C94E4150C9426160C945F0C0C94D00DA2
:100160000C94E30E0C94A70E0C94F70E0C94BC0D9B
:100170000C94F2250C943A280C94DB0F0C948A0F03
:100180000C94A80D0C941B280C94480D0C94410C55
:100190000C94050F0C9445160C9436160C94590CBF
:1001A0000C9490280C94D32F0C94181F0C94570D7A
:1001B0000C94670C0C94610D0C943E160C94550C29
:1001C0000C94730D0C943E0C0C94630C0C94331033
:1001D0000C944D0D0C943A0C0C948F0D0C9422162B
:1001E0000C94BE280C942C0C0C9444280C94510CA8
:1001F0000C94710C0C943F160C94320C0C94850DDD
:100200000608206004000000000000050000065FF2
:100210000600060007030007030600247E247E2450
:100220000500242B6A1200060063130864630600AD
:100230003649562050040000070300000400003E29
:10024000410000040000413E00000600083E1C3E44
:1002500008060008083E0808040000E060000006E8
:10026000000808080808040000606000000600207C
:100270001008040206003E5149453E050000427F39
:100280004000060062514949460600224949493664
:1002900006001814127F1006002F49494931060044
:1002A0003C4A4949300600017109050306003649F8
:1002B0004949360600064949291E0400006C6C00B5
:1002C00000040000EC6C0000050008142241000648
:1002D00000242424242406000041221408060002DD
:1002E0000159090606003E415D551E06007E1111AA
:1002F000117E06007F4949493606003E41414122B0
:1003000006007F4141413E06007F494949410600C0
:100310007F0909090106003E4149497A06007F0824
:1003200008087F050000417F410006003040404042
:100330003F06007F0814224106007F4040404006EF
:10034000007F0204027F06007F0204087F06003E51
:100350004141413E06007F0909090606003E415120
:10036000215E06007F0909196606002649494932BF
:10037000060001017F010106003F4040403F0600AA
:100380001F2040201F06003F403C403F06006314F2
:100390000814630600070870080705007149454303
:1003A000000500007F4141000600020408102005FE
:1003B000000041417F000600040201020406808023
:1003C0008080808004000003070000060020545451
:1003D000547806007F444444380600384444442896
:1003E0000600384444447F0600385454540805003D
:1003F000087E090900060018A4A4A47C05007F0457
:10040000047800050000007D400005004080847DE8
:100410000005007F10284400050000007F40000612
:10042000007C0418047805007C0404780006003879
:10043000444444380600FC444444380600384444EC
:1004400044FC060044784404080600085454542030
:100450000500043E44240005003C40207C000600CA
:100460001C2040201C06003C6030603C05006C10E5
:10047000106C0005009CA0603C0005006454544CC6
:10048000000500083E41410004000000770000061E
:10049000000041413E080500020102010006003C47
:1004A0002623263C0B102060060000000000000000
:1004B0000000000000000000000000000000000735
:1004C0000000000000007C00FF33FF337C000000D0
:1004D00000000000000008000000003C003C00009C
:1004E0000000003C003C000000000000000B000287
:1004F000101E901FF0037E021E1E901FF0037E024E
:100500001E0010000900007804FC0CCC0CFF3FFF1B
:100510003FCC0CCC0F8807000000000B00303838AF
:10052000381C380E00078003C001E03870383838B6
:100530001C000A0000001FB83FFC31C621E2373E14
:100540001E1C1C00360022000006000000000000F7
:1005500027003F001F000000000000000000000016
:100560000800000000F003FC0FFE1F073801200107
:100570002000000000000008000000000120012011
:100580000738FE1FFC0FF003000000000000090008
:1005900000980CB80EE003F80FF80FE003B80E98BF
:1005A0000C00000000090000800180018001F00FB4
:1005B000F00F8001800180010000000006000000B3
:1005C00000000000B800F800780000000000000003
:1005D000000000090000800180018001800180018D
:1005E0008001800180010000000006000000000082
:1005F0000000380038003800000000000000000053
:10060000000B0018001C000E00078003C001E00072
:10061000700038001C000E000BF807FE1F061E03BA
:10062000338331C330633033301E18FE1FF8070A9E
:10063000000000000C300C300E30FF3FFF3F003058
:100640000030003000000B1C301E38073C033E0316
:10065000378333C331E33077303E301C300B0C0C22
:100660000E1C0738C330C330C330C330C330E73942
:100670007E1F3C0E0BC003E003700338031C030E07
:10068000030703FF3FFF3F000300030B3F0C7F1CEA
:10069000633863306330633063306330E338C31FE3
:1006A000830F0BC00FF01FF839DC30CE30C730C3DA
:1006B00030C330C339801F000F0B03000300030059
:1006C0000330033C030FC303F3003F000F0003009C
:1006D0000B000FBC1FFE39E730C330C330C330E717
:1006E00030FE39BC1F000F0B3C007E00E730C330EA
:1006F000C330C338C31CC30EE707FE03FC0006006B
:100700000000000000701C701C701C000000000045
:10071000000000000006000000000000709C70FC5B
:10072000707C00000000000000000000090000C014
:1007300000E001F00338071C0E0E1C0738033000E0
:100740000000000A000060066006600660066006A1
:1007500060066006600660060000090000033007BE
:10076000380E1C1C0E3807F003E001C0000000002A
:10077000000A1C001E00070003008337C337E30094
:1007800077003E001C0000000BF80FFE1F0718F357
:1007900033FB371B36FB37FB370736FE03F8010AFE
:1007A0000038003FE007FC061F061F06FC06E007B6
:1007B000003F003800000AFF3FFF3FC330C330C393
:1007C00030C330E730FE39BC1F000F00000AF003D1
:1007D000FC0F0E1C073803300330033007380E1CA3
:1007E0000C0C00000AFF3FFF3F03300330033003CF
:1007F0003007380E1CFC0FF00300000AFF3FFF3FDC
:10080000C330C330C330C330C330C33003300330D0
:1008100000000AFF3FFF3FC300C300C300C300C383
:1008200000C3000300030000000AF003FC0F0E1CCD
:1008300007380330C330C330C330C73FC63F000062
:100840000AFF3FFF3FC000C000C000C000C000C0A2
:1008500000FF3FFF3F0000080000000003300330AE
:10086000FF3FFF3F033003300000000000000A009C
:100870000E001E003800300030003000300038FF1D
:100880001FFF0700000AFF3FFF3FC000E001F00329
:1008900038071C0E0E1C0738033000000AFF3FFF0C
:1008A0003F003000300030003000300030003000B9
:1008B0003000000AFF3FFF3F1E007800E001E0012A
:1008C00078001E00FF3FFF3F00000AFF3FFF3F0E82
:1008D000003800F000C0030007001CFF3FFF3F008E
:1008E000000AF003FC0F0E1C0738033003300738F2
:1008F0000E1CFC0FF00300000AFF3FFF3F83018343
:1009000001830183018301C701FE007C0000000A0E
:10091000F003FC0F0E1C073803300336073E0E1C95
:10092000FC3FF03300000AFF3FFF3F830183018358
:10093000038307830FC71DFE387C3000000A3C0C80
:100940007E1CE738C330C330C330C330C7398E1F75
:100950000C0F0000090000030003000300FF3FFF2D
:100960003F030003000300000000000AFF07FF1F11
:10097000003800300030003000300038FF1FFF0723
:1009800000000A07003F00F801C00F003E003EC013
:100990000FF8013F00070000000AFF3FFF3F001C67
:1009A0000006800380030006001CFF3FFF3F00009D
:1009B0000A03300F3C1C0E3003E001E00130031C41
:1009C0000E0F3C033000000A03000F003C00F00053
:1009D000C03FC03FF0003C000F00030000000A03CE
:1009E00030033C033E0333C331E33033301F300F59
:1009F00030033000000800000000FF3FFF3F0330DD
:100A00000330033003300000000000000B0E001C18
:100A10000038007000E000C00180030007000E00F5
:100A20001C001808000000000330033003300330BE
:100A3000FF3FFF3F0000000000000B600070003827
:100A4000001C000E0007000E001C00380070006043
:100A5000000B00C000C000C000C000C000C000C04B
:100A600000C000C000C000C007000000000000007F
:100A7000003E007E004E0000000000000000000A62
:100A8000001C403E6033603360336033603360335A
:100A9000E03FC03F00000AFF3FFF3FC030603060D2
:100AA0003060306030E038C01F800F00000A800FD7
:100AB000C01FE03860306030603060306030C01897
:100AC000800800000A800FC01FE03860306030608E
:100AD00030E030C030FF3FFF3F00000A800FC01FF2
:100AE000E03B60336033603360336033C0138001B8
:100AF000000008C000C000FC3FFE3FC700C300C3A9
:100B00000003000000000000000A8003C0C7E0CE20
:100B100060CC60CC60CC60CC60E6E07FE03F000061
:100B200009FF3FFF3FC000600060006000E000C0C0
:100B30003F803F00000000080000000000306030EF
:100B4000EC3FEC3F003000300000000000000800E7
:100B5000000000006000E000C060C0ECFFEC7F001F
:100B60000000000000090000FF3FFF3F0003800776
:100B7000C00FE01C603800300000000008000000DA
:100B80000000300330FF3FFF3F0030003000000026
:100B90000000000AE03FC03FE000E000C03FC03F6F
:100BA000E000E000C03F803F00000A0000E03FE0BE
:100BB0003F6000600060006000E000C03F803F00D8
:100BC000000A800FC01FE038603060306030603055
:100BD000E038C01F800F00000AE0FFE0FF600C60FB
:100BE00018601860186018E01CC00F800700000A29
:100BF0008007C00FE01C6018601860186018600C57
:100C0000E0FFE0FF00000A0000E03FE03FC00060BE
:100C100000600060006000E000C000000008C0113B
:100C2000E0336033603360336033603F401E000068
:100C3000000000000860006000FE1FFE3F603060A2
:100C400030603000300000000000000AE00FE01FBC
:100C5000003800300030003000300018E03FE03F46
:100C600000000A6000E0018007001E003800380024
:100C70001E8007E001600000000AE007E01F003866
:100C8000001CE00FE00F001C0038E01FE007000030
:100C9000096030E038C01D800F0007800FC01DE0E4
:100CA000386030000000000900006000E08180E74B
:100CB000007E001E8007E001600000000000096067
:100CC000306038603C60366033E031E030603020C6
:100CD00030000000000900008000C001FC1F7E3FC2
:100CE000077003600360036000000000060000005E
:100CF0000000000000FF3FFF3F0000000000000078
:100D000000000009000003600360036007707E3F7D
:100D1000FC1FC0018000000000000A100018000C39
:100D20000004000C001800100018000C0004000063
:100D3000000A000F800FC00C600C300C300C600CEF
:100D4000C00C800F000F00000000210024002700CD
:100D50002A002D00300033000101000004010701CA
:100D60000A0100002200250028002B002E0031007F
:100D7000340002010000050108010B010000200001
:100D80002300260029002C002F0032000001000063
:100D900003010601090105050505070508080808FE
:100DA000020202020A0A0808040404040101010103
:100DB00001010101030303030303030304070707FE
:100DC0000C0C0C0C0C0C0C0C0202020206060606A3
:100DD000060606060B0B0B0B0B0B0B0B0102102070
:100DE0002008081020401020408002010201080461
:100DF00002010102040810204080804020100804F5
:100E0000020180040201804020100804020108044D
:100E10000201010204081020408001020408102091
:100E2000408000000A0B02090C0D0E0807030401A4
:100E300000000000000000000000000000000000B2
:100E4000000000000000000000000000000012117F
:100E50001000000000000000000000000000000082
:100E60000000000000000000D32FBB3911241FBE7A
:100E7000CFEFD1E2DEBFCDBF00E00CBF23E1A4E3A2
:100E8000BAE001C01D92AA3EB207E1F71AE0A0E065
:100E9000B2E0EAE7FFE700E00BBF02C007900D9267
:100EA000A433B107D9F717E0C5E3D7E000E006C0E7
:100EB00021970109802FFE010E949F3CC433D10776
:100EC00080E00807A9F70E94B1300C94AB3F0C9466
:100ED0000000AC01E0918E13F0918F13808190910E
:100EE0009713892B8083E0919213F0919313808163
:100EF000909196139095982390838091881320E188
:100F000030E060E070E887FF12C05EBD0DB407FE00
:100F1000FDCF4EBD0DB407FEFDCFE0919213F091D1
:100F20009313808190919613892B80830895E0918B
:100F30008A13F0918B1390919413DA01A623B723AF
:100F40008081AB2BD9F0982B9083E0918C13F0919A
:100F50008D13808190919513892B8083E0918C1360
:100F6000F0918D13808190919513909598239083A3
:100F70007695679521503109D1F6CFCF909598237A
:100F8000E3CF9C01E0918E13F0918F1380819091BB
:100F90009713909598239083E0919213F091931377
:100FA00080819091961390959823908380918813D7
:100FB00040E150E060E070E887FF12C01EBC0DB455
:100FC00007FEFDCF2EBD0DB407FEFDCFE0919213BD
:100FD000F0919313808190919613892B80830895CB
:100FE000E0918A13F0918B1390919413D901A62369
:100FF000B7238081AB2BD9F0982B9083E0918C1391
:10100000F0918D13808190919513892B8083E091CD
:101010008C13F0918D138081909195139095982366
:1010200090837695679541505109D1F6CFCF909531
:101030009823E3CFCF93DF93EB010E94C107CE014A
:10104000DF91CF910C9469076FEA70E086E390E03E
:101050000E941A0870E060E087E390E00E941A089E
:101060006BED70E088E390E00E941A0870E060E0A9
:1010700089E390E00C941A088091D4139091D513D1
:10108000A091D613B091D7130197A109B10980930C
:10109000D4139093D513A093D613B093D713892B61
:1010A0008A2B8B2B49F4E0919213F091931380815A
:1010B00090919613892B808308958091D4139091F9
:1010C000D513A091D613B091D713AC01BD014F5FDA
:1010D0005F4F6F4F7F4F4093D4135093D51360935E
:1010E000D6137093D713892B8A2B8B2B91F4809175
:1010F000881387FF04C080E58CBD81E08DBDE09141
:101100009213F09193139081809196138095892387
:1011100080830895DC01FB01809198138230B9F03F
:10112000833069F1813051F5809180139091811362
:10113000019720813181821B930B918380832D91B4
:101140003C9111978D939C933183208308958091D6
:101150007E1390917F1301972D913C911197821BE3
:10116000930B8D939C9380918013909181130197A1
:1011700020813181821B930B91838083089580911C
:101180007E1390917F1301972D913C911197821BB3
:10119000930B11969C938E93208131812D933C93D8
:1011A000EBCF0F931F93CF93DF9300D000D01F920C
:1011B0001F92CDB7DEB77C836B835E834D83388708
:1011C0002F8320917E1330917F13215031092817EE
:1011D000390708F4C9019A8389838D819E81281774
:1011E000390708F4C9019E838D8380918013909103
:1011F000811301972B813C818217930708F49C018E
:101200003C832B832F8138858217930708F49C0138
:1012100038872F83BE016D5F7F4FCE0101960E94FC
:101220008A08BE01695F7F4FCE0105960E948A0839
:101230002D813E8189819A812817390720F43A83CC
:1012400029839E838D832F8138858B819C812817EC
:10125000390720F43C832B8398878F830E945D0895
:10126000E091981307E010E0EE2359F0E150FF0BF6
:1012700024E0EE0FFF1F2A95E1F7E258FC4E02A58D
:1012800013A5B80183E0660F771F8A95E1F77061B7
:1012900083E090E00E941A086D817E8186E390E0F1
:1012A0000E941A0869817A8187E390E00E941A08F7
:1012B0006F81788588E390E00E941A086B817C81B9
:1012C00089E390E00E941A081595079501301105F1
:1012D00029F1ACF46D817E81012B11F182E290E065
:1012E0000E94C1070E943C0828960FB6F894DEBF02
:1012F0000FBECDBFDF91CF911F910F9108950230A6
:101300001105C9F069817A810330110539F780E24E
:1013100090E00E941A086B817C8108C069817A8103
:1013200080E290E00E941A086F81788581E290E067
:101330000E941A08D3CF6D817E81E9CFAF92BF9210
:10134000CF92DF92EF92FF920F931F93CF93DF9391
:101350006C015B01EA0179010E94D1080E945D08DD
:101360008FEFE81AF80AEA18FB082196CC19DD0974
:10137000EC9E6001ED9ED00CFC9ED00C1124C1149B
:10138000D10439F0C8010E94690781E0C81AD10868
:10139000F6CF0E943C08DF91CF911F910F91FF90F3
:1013A000EF90DF90CF90BF90AF900C9424080F93F4
:1013B0001F93CF93DF9300D01F92CDB7DEB79A83F0
:1013C00089837C836B8320917E1330917F138217F6
:1013D000930720F5209180133091811362177307D2
:1013E000E8F48A01BE016D5F7F4FCE0101960E9435
:1013F0008A080E945D0869817A8180E290E00E94FB
:101400001A086B817C8181E290E00E941A08B80181
:1014100082E290E00E941A080E943C080F900F9010
:101420000F900F90DF91CF911F910F9108952F9200
:101430003F924F925F926F927F928F929F92AF9264
:10144000BF92CF92DF92EF92FF920F931F93CF93B1
:10145000DF93EC018B014A017901E61AF70AF7FEE6
:1014600003C0F194E194F1086401CC1ADD0AD7FEBF
:1014700003C0D194C194D108CE14DF0454F4982D44
:10148000892D4901292F382F9C2F8D2FE801092FF5
:10149000182F8C169D0650F4902F812F8901292F2B
:1014A000382F9C2F8D2FE401892E982E14012C1A91
:1014B0003D0A2901401A510A57FE03C05194419434
:1014C0005108310137FE03C08FEF681A780A75940E
:1014D0006794AA24AA94BA2C0217130718F4AA2412
:1014E000A394B12C0E945D088C169D06A8F04FEFC6
:1014F0005FEFBE01C801CE14DF0414F0B801CE01C5
:101500000E94D7096418750877FE04C00A0D1B1DD8
:10151000620C731C2196E8CFDF91CF911F910F9140
:10152000FF90EF90DF90CF90BF90AF909F908F9003
:101530007F906F905F904F903F902F900C943C085D
:10154000CF92DF92EF92FF920F931F93CF93DF938F
:101550006C018B01EA0179010E945D089701A601E7
:10156000B801C6010E94170A9801AE01B801C60170
:101570000E94170A9701AE01B701C6010E94170A1F
:101580009701AE01B801CE010E94170ADF91CF91F9
:101590001F910F91FF90EF90DF90CF900C943C083B
:1015A000E8E0F0E1A089B18982E08C93A485B5855B
:1015B0001C92A685B78580E18C93108EA489B5898D
:1015C00086E08C93A289B3898C9180618C93A289E7
:1015D000B3898C9188608C93A289B3898C9180683F
:1015E0008C930288F389E02D80818F7D808308951C
:1015F0002F923F924F925F926F927F928F929F9223
:10160000AF92BF92CF92DF92EF92FF920F931F9310
:10161000CF93DF9300D000D000D01F921F92CDB7A0
:10162000DEB74B015C834B83422E3D838C01712CD2
:10163000272D30E0EB81FC818481958128173907C3
:1016400008F0D2C080819181009709F4A3C0820F75
:10165000931FFC018081F091CE13FA872091D21361
:10166000F29F900111242F5F3F4F082E000C990B21
:101670004091D013841B9109289F7001299FF00C81
:10168000389FF00C11248091D31381110BC0E0918D
:10169000CC13F091CD1397012C5F3F4FE20FF31F56
:1016A00034913A8785E0E80EF11C0E945D089A8526
:1016B000292E312CA8014F5F5F4F420D531D8091A1
:1016C0007E1390917F134817590708F065C0209149
:1016D000CF132150330B280D391D80918013909129
:1016E00081132817390708F057C0B401C8010E94B8
:1016F000D108662463941B866701512CEB85E00FAB
:10170000F12FF11DF987E8878C2D8E199091D21356
:10171000891708F059C0FA852B85E0E0F21739F0F7
:10172000E091CC13F091CD13EC0DFD1DE4913FEF52
:10173000C31AD30AF8E08F9FC00111249C01280D21
:10174000391D3A832983B12CA12C8E2F90E09F83E1
:101750008E838091CF135816B8F68E819F810A2C04
:1017600002C0959587950A94E2F7817099276620C3
:10177000D1F0892BA9F480918213909183130E9458
:10178000690753949FEFA91AB90AE8E0AE16B104AD
:1017900001F7BACF80E05FCF612CADCF7601ACCF3F
:1017A000842D9D81ECCF4091821350918313892B1E
:1017B00011F0442D5D8169817A816A0D7B1D8885D8
:1017C00099850E94D709DDCFFB85FF5FFB872A85BE
:1017D0002F1720F70E943C080E942408C10101969F
:1017E000080F191F739424CFC8012B960FB6F894D5
:1017F000DEBF0FBECDBFDF91CF911F910F91FF9044
:10180000EF90DF90CF90BF90AF909F908F907F90A0
:101810006F905F904F903F902F900895815082314C
:1018200008F05AC0E82FF0E08827E65EF34F8F4FAC
:101830000C949F3C3A0C3E0C2C0C320C360C6C0C6D
:10184000410C470C4B0C510C550C590C5F0C630CA4
:101850006C0C670C6D0C710C809180008F778093FD
:1018600080000895809180008F7DF9CF8091800065
:10187000877FF5CF84B58F7784BD089584B58F7D3C
:10188000FBCF8091B0008F778093B0000895809156
:10189000B0008F7DF9CF809190008F77809390007A
:1018A0000895809190008F7DF9CF80919000877F7F
:1018B000F5CF8091A0008F778093A000089580914C
:1018C000A0008F7DF9CF8091A000877FF5CF809118
:1018D00020018F77809320010895809120018F7DD2
:1018E000F9CF80912001877FF5CFCF93DF93282F09
:1018F00030E0F901EE5DF14F8491F901E452F24FCD
:10190000D491F901EA56F24FC491CC23A1F0811190
:101910000E940E0CEC2FF0E0EE0FFF1FE458F24F88
:10192000A591B491EC91ED2381E090E009F480E081
:10193000DF91CF91089580E090E0FACF1F93CF938D
:10194000DF93282F30E0F901EE5DF14F8491F9012A
:10195000E452F24FD491F901EA56F24FC491CC23EC
:10196000A9F0162F81110E940E0CEC2FF0E0EE0F63
:10197000FF1FEE59F24FA591B4918FB7F894EC91F7
:10198000111108C0D095DE23DC938FBFDF91CF917A
:101990001F910895DE2BF8CFCF93DF9390E0FC01E9
:1019A000E452F24F24918A56924FFC01849188238D
:1019B000C9F090E0880F991FFC01E85BF24FA591F8
:1019C000B491FC01EE59F24FC591D49161110DC053
:1019D0009FB7F8948C91209582238C93888128233B
:1019E00028839FBFDF91CF910895623051F49FB754
:1019F000F8943C91822F809583238C93E8812E2B41
:101A0000EFCF8FB7F894EC912E2B2C938FBFEACFAA
:101A10001F93CF93DF93182FEB0161E00E94CC0C52
:101A2000209739F460E0812FDF91CF911F910C94C2
:101A30009E0CCF3FD10511F461E0F5CFE12FF0E02E
:101A4000EE5DF14FE491E150E23108F0B3C0F0E017
:101A50008827E25DF24F8F4F0C949F3C400D480D5C
:101A60004D0D570D610DDA0D6B0D730D7B0D850D51
:101A70008F0D990DA80DB20DDA0DBC0DC60DD00D50
:101A800084B5806884BDC7BDDF91CF911F91089553
:101A900084B5806284BDC8BDF7CF80918000806826
:101AA00080938000D0938900C0938800EDCF80910F
:101AB0008000806280938000D0938B00C0938A0066
:101AC000E3CF80918000886080938000D0938D0068
:101AD000C0938C00D9CF8091B00080688093B00013
:101AE000C093B300D1CF8091B00080628093B000EA
:101AF000C093B400C9CF809190008068809390001B
:101B0000D0939900C0939800BFCF809190008062DD
:101B100080939000D0939B00C0939A00B5CF8091A2
:101B20009000886080939000D0939D00C0939C00AB
:101B3000ABCF8091A00080688093A0008091A0002E
:101B40008F7B8093A000D093A900C093A8009CCF66
:101B50008091A00080628093A000D093AB00C093DE
:101B6000AA0092CF8091A00088608093A000D093BB
:101B7000AD00C093AC0088CF809120018068809335
:101B80002001D0932901C09328017ECF80912001AC
:101B9000806280932001D0932B01C0932A0174CFDF
:101BA00080912001886080932001D0932D01C09303
:101BB0002C016ACFC038D1050CF03ECF33CF9091C5
:101BC0007B00977F90937B008653806480937C009A
:101BD00080917A00806480937A0080917A0086FDFB
:101BE000FCCF809178009091790008953FB7F894E8
:101BF0008091FC0F9091FD0FA091FE0FB091FF0F0F
:101C000026B5A89B05C02F3F19F00196A11DB11D57
:101C10003FBFBA2FA92F982F8827BC01CD01620F93
:101C2000711D811D911D42E0660F771F881F991F4E
:101C30004A95D1F708958F929F92AF92BF92CF921B
:101C4000DF92EF92FF924B015C010E94F60D6B0157
:101C50007C010E94F60D6C197D098E099F09683E72
:101C6000734081059105A8F321E0821A9108A1082B
:101C7000B10888EEC80E83E0D81EE11CF11C811467
:101C80009104A104B10429F7FF90EF90DF90CF9069
:101C9000BF90AF909F908F900895CF92DF92EF9278
:101CA000FF920F931F93CF93C091981310929813A4
:101CB00080EBC82ED12CD0927F13C0927E139CED66
:101CC000E92EF12CF0928113E092801310E000E0F5
:101CD0002BED30E04FEA50E070E060E090E080E013
:101CE0000E949E09C370C0939813C130B9F0C330ED
:101CF000A9F0D0927F13C0927E13F0928113E092EC
:101D000080136AE070E080E090E0CF911F910F9126
:101D1000FF90EF90DF90CF900C941B0E8CED90E035
:101D200090937F1380937E1380EB90E090938113C8
:101D300080938013E6CF2FB7F8946091F80F7091DD
:101D4000F90F8091FA0F9091FB0F2FBF0895AF927A
:101D5000BF92CF92DF92EF92FF920F931F93CF9398
:101D6000DF936C017B018B01040F151FEB015E01FA
:101D7000AE18BF08C017D10759F06991D601ED918F
:101D8000FC910190F081E02DC6011995892B79F71E
:101D9000C501DF91CF911F910F91FF90EF90DF90E0
:101DA000CF90BF90AF900895FC01538D448D252FA7
:101DB00030E0842F90E0821B930B541710F0CF96E5
:101DC000089501970895FC01918D828D981761F017
:101DD000A28DAE0FBF2FB11D5D968C91928D9F5F2E
:101DE0009F73928F90E008958FEF9FEF0895FC010D
:101DF000918D828D981731F0828DE80FF11D858DC0
:101E000090E008958FEF9FEF0895FC01918D228D52
:101E1000892F90E0805C9F4F821B91098F739927D7
:101E2000089588E090E10E94050F21E0892B09F4D4
:101E300020E0822F0895FC01A48DA80FB92FB11DB9
:101E4000A35ABF4F2C91848D90E001968F739927F0
:101E5000848FA689B7892C93A089B1898C918370CE
:101E600080648C93938D848D981306C00288F389C7
:101E7000E02D80818F7D80830895EF92FF920F93F4
:101E80001F93CF93DF93EC0181E0888F9B8D8C8D26
:101E900098131AC0E889F989808185FF15C09FB71A
:101EA000F894EE89FF896083E889F98980818370DD
:101EB000806480839FBF81E090E0DF91CF911F918C
:101EC0000F91FF90EF900895F62E0B8D10E00F5FAD
:101ED0001F4F0F731127E02E8C8D8E110CC00FB683
:101EE00007FCFACFE889F989808185FFF5CFCE011B
:101EF0000E941B0FF1CFEB8DEC0FFD2FF11DE35A6C
:101F0000FF4FF0829FB7F8940B8FEA89FB8980819D
:101F10008062CFCFCF93DF93EC01888D8823B9F017
:101F2000AA89BB89E889F9898C9185FD03C08081E4
:101F300086FD0DC00FB607FCF7CF8C9185FFF2CF61
:101F4000808185FFEDCFCE010E941B0FE9CFDF918D
:101F5000CF91089580E090E0892B29F00E94110F25
:101F600081110E94000080E090E0892B49F080E020
:101F700090E0892B29F00E94000081110E9400004E
:101F800080E090E0892B49F080E090E0892B29F0F7
:101F90000E94000081110E94000080E090E0892BE7
:101FA00049F080E090E0892B29F00E940000811127
:101FB0000C940000089581E020913F02309140028E
:101FC000232B09F080E008959093DB0F8093DA0FC4
:101FD0000E949B0E6093D60F7093D70F8093D80FFB
:101FE0009093D90F08951092DB0F1092DA0F109290
:101FF000D60F1092D70F1092D80F1092D90F0895C4
:102000000F931F93CF93DF938C01C9EED1E1CE01E3
:10201000895E91418017910734F4699188E090E1DD
:102020000E943D0FF4CFDF91CF911F910F91089542
:102030000F931F930E949B0E0091390210913A0258
:1020400020913B0230913C02601B710B820B930B81
:1020500021E0693B7B408105910508F420E0822F57
:102060001F910F9108954F3651056105710571F06B
:10207000423051056105710548F04F7D81E04D34D6
:1020800051056105710519F080E0089581E008951A
:10209000FB019081892790E1899F9001112482277B
:1020A00090E0382F2227AC0163E0440F551F6A955A
:1020B000E1F724273527418150E02427352774E0B4
:1020C000959587957A95E1F7822793279183808369
:1020D00008950F931F93CF93DF931F921F92CDB755
:1020E000DEB78C01862FF801208131813A83298364
:1020F000BE016F5F7F4F0E94481089819A81F8016D
:10210000918380830F900F90DF91CF911F910F915A
:1021100008952F923F924F925F926F927F928F928B
:102120009F92AF92BF92CF92DF92EF92FF920F9366
:102130001F93CF93DF93CDB7DEB7A4970FB6F89474
:10214000DEBF0FBECDBFFC019C01205C3F4F8C0168
:10215000D8016D917D918D919D91AD010E94A73C1B
:10216000D8016D937D938D939C9313978A014217A9
:10217000530771F7DA018D909D90AD90BC908D82E0
:102180009E82AF82B886DF01AC5BBF4F8D909D9081
:10219000AD90BC9013978D869E86AF86B88A1496B4
:1021A0000D911D912D913C911397098B1A8B2B8BBF
:1021B0003C8B14962D913D914D915C9113972F8FEF
:1021C00038A349A35AA314968D909D90AD90BC90CE
:1021D000139789829A82AB82BC8214960D911D91CD
:1021E0002D913C9113970D8B1E8B2F8B388F14964E
:1021F0002D913D914D915C911397298F3A8F4B8F83
:102200005C8F14968D909D90AD90BC9089869A8637
:10221000AB86BC8601E812E01E8F0D8F312C212C7D
:10222000D10110E1211631040CF021C2AA0FBB1F0D
:10223000AA0FBB1FAE0FBF1FCD90DD90ED90FC909D
:10224000AD8DBE8D0D911D912D913D91BE8FAD8FA8
:1022500049815A816B817C818AE1440F551F661F39
:10226000771F8A95D1F789809A80AB80BC8096E0F1
:10227000B694A794979487949A95D1F748295929A9
:102280006A297B2949805A806B807C80A5E1440CB7
:10229000551C661C771CAA95D1F789819A81AB8160
:1022A000BC81072E7BE0B695A795979587957A9583
:1022B000D1F7702D84299529A629B72948275927B0
:1022C0006A277B2749805A806B807C8089E17694DD
:1022D0006794579447948A95D1F789819A81AB8105
:1022E000BC81689416F8880F991FAA1FBB1F16940B
:1022F000D1F784299529A629B7292A013B01482627
:1023000059266A267B2649815A816B817C814095BA
:10231000509560957095898C9A8CAB8CBC8C4821BB
:1023200059216A217B2189819A81AB81BC818D8869
:102330009E88AF88B88C88219921AA21BB21842747
:102340009527A627B727B301A201480F591F6A1F77
:102350007B1F400F511F621F731FC40ED51EE61E48
:10236000F71E09851A852B853C850C0D1D1D2E1D1C
:102370003F1D8D809E80AF80B8848EE1880C991CB3
:10238000AA1CBB1C8A95D1F74D805E806F80788433
:1023900092E076946794579447949A95D1F784285D
:1023A0009528A628B7284D815E816F817885A3E1A5
:1023B000440F551F661F771FAA95D1F78D819E8107
:1023C000AF81B885072E7DE0B695A795979587953F
:1023D0007A95D1F7702D842B952BA62BB72B8826B9
:1023E0009926AA26BB264D815E816F81788586E17C
:1023F00076956795579547958A95D1F78D819E81FA
:10240000AF81B885072E7AE0880F991FAA1FBB1FDE
:102410007A95D1F7702D842B952BA62BB72BB50170
:10242000A401482759276A277B278D849E84AF847F
:10243000B88889899A89AB89BC8988269926AA2671
:10244000BB268D819E81AF81B88588229922AA22E0
:10245000BB22CD84DE84EF84F88889899A89AB8990
:10246000BC89C822D922EA22FB22C824D924EA2422
:10247000FB24C40ED51EE61EF71E4F8C58A069A083
:102480007AA0400E511E621E731EC00ED11EE21EA7
:10249000F31E9FEF291A390A89889A88AB88BC886D
:1024A0008F8E98A2A9A2BAA2098D1A8D2B8D3C8D70
:1024B00009871A872B873C8710E42116310409F01D
:1024C000ADC0DF01A05CBF4F0D911D912D913C91DE
:1024D0001397C00ED11EE21EF31ECD92DD92ED9237
:1024E000FC92139714964D915D916D917C91139789
:1024F0008D809E80AF80B884480D591D6A1D7B1D5C
:102500004D935D936D937C93139714964D915D91CC
:102510006D917C9113970D851E852F853889400F0D
:10252000511F621F731F4D935D936D937C9313979F
:1025300014964D915D916D917C91139789889A883D
:10254000AB88BC88480D591D6A1D7B1D4D935D935A
:102550006D937C93139714964D915D916D917C9141
:102560001397440E551E661E771E4D925D926D9216
:102570007C92139714964D915D916D917C91139778
:1025800009811A812B813C81400F511F621F731FEB
:102590004D935D936D937C931397BF01685A7F4F62
:1025A000DB01CD90DD90ED90FC9013978D889E8897
:1025B000AF88B88CC80CD91CEA1CFB1CCD92DD92EC
:1025C000ED92FC921397E45AFF4F80819181A28192
:1025D000B381898C9A8CAB8CBC8C880D991DAA1DFB
:1025E000BB1D80839183A283B383A4960FB6F89416
:1025F000DEBF0FBECDBFDF91CF911F910F91FF9036
:10260000EF90DF90CF90BF90AF909F908F907F9092
:102610006F905F904F903F902F9008952D893E8945
:102620004F89588D298F3A8F4B8F5C8F89819A8182
:10263000AB81BC818D8B9E8BAF8BB88F49825A82C8
:102640006B827C828D849E84AF84B888898A9A8AC2
:10265000AB8ABC8A0D811E812F8138850D871E872C
:102660002F87388BCD82DE82EF82F886D9CD129704
:10267000AF70BB27AA0FBB1FAA0FBB1FAE0FBF1F98
:102680000D911D912D913C91D1011F97AF70BB27EA
:10269000AA0FBB1FAA0FBB1FAE0FBF1F4D915D91AD
:1026A0006D917C91C1018F709927880F991F880FB8
:1026B000991FDF01A80FB91FBCA3ABA3D1011797C6
:1026C000AF70BB27AA0FBB1FAA0FBB1FAE0FBF1F48
:1026D000CD90DD90ED90FC90ABA1BCA18D909D9034
:1026E000AD90BC90C80CD91CEA1CFB1C48015901D8
:1026F0009FE0880C991CAA1CBB1C9A95D1F7D901A4
:10270000C801072E71E1B695A795979587957A959B
:10271000D1F7702D882A992AAA2ABB2AD901C80183
:10272000072E7DE0880F991FAA1FBB1F7A95D1F74E
:10273000702D28013901032E33E176946794579464
:1027400047943A95D1F7302D84299529A629B729A0
:1027500088259925AA25BB250F2EFAE036952795C1
:1027600017950795FA95D1F7F02D80279127A22785
:10277000B327C80ED91EEA1EFB1E8A019B0187E003
:1027800036952795179507958A95D1F7DB01CA01EC
:10279000072E79E1880F991FAA1FBB1F7A95D1F7E1
:1027A000702D082B192B2A2B3B2BDB01CA01072E7E
:1027B0007EE0880F991FAA1FBB1F7A95D1F7702D55
:1027C0002A013B01032E32E1769467945794479493
:1027D0003A95D1F7302D84299529A629B729802744
:1027E0009127A227B32723E07695679557954795BC
:1027F0002A95D1F784279527A627B727C80ED91E73
:10280000EA1EFB1EABA1BCA1CD92DD92ED92FC9223
:10281000139716CD0F931F9310E000E028EC30E0E3
:1028200040EB50E066E970E090E080E00E949E0995
:102830001F910F9108950F931F9310E000E02DED6D
:1028400030E040EB50E068EC70E090E080E00E9407
:102850009E091F910F9108959F92AF92BF92CF92C0
:10286000DF92EF92FF920F931F93CF93DF93942EFB
:10287000690190E07C012CE1E20EF11CC62FD0E052
:102880005E01E9E0AE0EB11C10E000E09501A70189
:10289000BE010E949E099920C9F0892D853608F055
:1028A00084E6FCE18F9FC001112464E670E00E9481
:1028B0004A3CCB01009751F086019501A701BE016A
:1028C000F701E81BF90BCF010E949E09DF91CF9120
:1028D0001F910F91FF90EF90DF90CF90BF90AF903E
:1028E0009F900895E4EAF4E0F093CD13E093CC13C5
:1028F000E491E093CE13E5EAF4E084918093CF1362
:10290000E6EAF4E0E491E093D013E7EAF4E0E4913E
:10291000E093D113982F9695969596959093D21310
:102920001092D313877019F09F5F9093D21308957C
:10293000E0E0F2E0F093CD13E093CC13E491E09368
:10294000CE13E1E0F2E084918093CF13E2E0F2E075
:10295000E491E093D013E3E0F2E0E491E093D1134B
:10296000982F9695969596959093D2131092D3138F
:10297000877019F09F5F9093D21308952F923F9222
:102980004F925F926F927F928F929F92AF92BF927F
:10299000CF92DF92EF92FF920F931F93CF93DF932B
:1029A000CDB7DEB768970FB6F894DEBF0FBECDBFC8
:1029B000082F688BF42E152F0E94981488E0ECECF9
:1029C000F3E1DE01119601900D928A95E1F72980DD
:1029D0003A802B812B873C813C878D815F804885A5
:1029E0004F87529E90011124F9013196FE87ED87A1
:1029F000F9861A87282F30E03C8B2B8B452D50E031
:102A00005E8B4D8BC1010596988F8F8BE985FA857A
:102A10008191FA87E987882309F463C090E02B89C4
:102A20003C89821B930B4D855E85849F7001859F39
:102A3000F00C949FF00C11245F851B85511105C08B
:102A4000F7013496E20DF31D14918F89988DE80EED
:102A5000F91EA02EB12C8A2D801B811708F03EC0D4
:102A60009889692E712C912C812C412C851470F53C
:102A7000F401EE0DFF1DE491D12CC12C2E2F30E07E
:102A80003A8B298B3C854316D0F489899A890C2C82
:102A900002C0959587950A94E2F780FF08C040E14F
:102AA00054E8B601660D771DC5010E94D70943940D
:102AB0004FEFC41AD40A58E0C516D10419F78FEFA6
:102AC000881A980A98E0690E711CD0CFED89FE89AA
:102AD000EE0EFF1EFFEFAF1ABF0ABDCF1F5F010F43
:102AE00095CF68960FB6F894DEBF0FBECDBFDF91CD
:102AF000CF911F910F91FF90EF90DF90CF90BF90FB
:102B0000AF909F908F907F906F905F904F903F908D
:102B10002F900895CF93DF93EC0189810E94750C6B
:102B2000892B49F088810E94750C892B31F081E056
:102B3000DF91CF91089580E0FBCF82E0F9CFCF9273
:102B4000DF92EF92FF92CF93DF93EC016A017B015A
:102B500088810E94750C9C0181E090E0211531056F
:102B600011F090E080E09A8389838D819E81AF810E
:102B7000B885232BC9F4181619061A061B062CF063
:102B8000EB81FC81309709F0199588E290E0A0E094
:102B9000B0E08D839E83AF83B887DF91CF91FF90A4
:102BA000EF90DF90CF9008958C199D09AE09BF0971
:102BB000B7FF03C080E090E0DC018D839E83AF838C
:102BC000B8871A821982E9CF2091D40F3091D50F9E
:102BD000C90101962330310550F081E090E09093D7
:102BE000E70F8093E60F81E08093E80F089563E09C
:102BF00070E00E944A3C0196F2CF0F931F930E940F
:102C00009B0E0091340A1091350A2091360A3091BA
:102C1000370A601B710B820B930B6D3D754081056C
:102C2000910568F081E08093F60F0E949B0E6093FF
:102C3000340A7093350A8093360A9093370A1F91AD
:102C40000F91089581E08093E30F089581E08093D0
:102C5000E90F1092EB0F1092EA0F089581E0809334
:102C6000EB0F1092EA0F1092E90F089581E0809324
:102C7000EA0F1092EB0F1092E90F08950895109249
:102C8000F50F81E08093F00F089581E08093F50FB8
:102C90001092F00F0895CF92DF92EF92FF92809101
:102CA000450A811109C08AE292E00E948A15809348
:102CB0002C0281E08093450A8091440A811109C069
:102CC00081E292E00E948A158093230281E0809342
:102CD000440A80913C0A81110DC00E949B0E6093B2
:102CE000380A7093390A80933A0A90933B0A81E03C
:102CF00080933C0A0E949B0EC090380AD090390AFB
:102D0000E0903A0AF0903B0A9B01AC012C193D0976
:102D10004E095F0969017A018091190290911A02A6
:102D2000A0911B02B0911C028C199D09AE09BF092C
:102D3000B7FF03C080E090E0DC018093190290931C
:102D40001A02A0931B02B0931C02809112020E94EF
:102D5000750C2091130230911402892B09F08EC05A
:102D60008091190290911A02A0911B02B0911C024D
:102D7000181619061A061B060CF041C0211531055C
:102D800009F04FC0B701A60189E092E00E949F15AB
:102D9000B701A60180E092E00E949F1581E292E0D7
:102DA0000E948A1590912302891741F08093230293
:102DB000882309F484C0823009F484C08AE292E056
:102DC0000E948A1590912C02891751F080932C0251
:102DD000813009F47DC008F478C0823009F47BC0EA
:102DE0000E949B0E6093380A7093390A80933A0AC6
:102DF00090933B0AFF90EF90DF90CF9008952115BC
:102E0000310579F481E090E09093140280931302ED
:102E100010921D0210921E0210921F0210922002A8
:102E2000B1CF2130310509F0ADCF80911D029091D5
:102E30001E02A0911F02B09120028C0D9D1DAE1D9F
:102E4000BF1D80931D0290931E02A0931F02B0939A
:102E50002002843F9140A105B10508F493CF83E09F
:102E600090E09093140280931302E0911702F09186
:102E70001802309709F486CF199584CF2130310597
:102E800039F4E0911502F0911602309709F0199586
:102E90008091130290911402892B61F088E290E0F6
:102EA000A0E0B0E08093190290931A02A0931B0255
:102EB000B0931C021092140210921302A9CF0E9428
:102EC0003F167CCF0E94451679CF0E942E1688CFE0
:102ED0000E94361685CF0E94261682CFFC010190F3
:102EE0000020E9F73197AF01481B590BBC0188E07E
:102EF00090E10C94A70E8F929F92AF92BF920F9386
:102F00001F93CF93DF93CDB7DEB7A1970FB6F89499
:102F1000DEBF0FBECDBF19A2423008F44AE08E01D9
:102F20000F5D1F4F842E912CB12CA12CA501940173
:102F30000E945E3CE62FB901CA01EA30F4F4E05D7C
:102F4000D801EE938D01232B242B252B79F790E0CC
:102F500080E0109719F0CD010E946E17A1960FB670
:102F6000F894DEBF0FBECDBFDF91CF911F910F91BF
:102F7000BF90AF909F908F900895E95CE1CFCF9282
:102F8000DF92EF92FF92CF93DF936B017C016DE2B2
:102F900088E090E10E943D0FEC0166277727CB0186
:102FA0006C197D098E099F094AE00E947B178C0FDE
:102FB0009D1FDF91CF91FF90EF90DF90CF9008950C
:102FC000BC01990F880B990B97FD0C94BF174AE031
:102FD0000C947B17CF93DF93BC01990F880B990B4F
:102FE00097FF0CC00E94BF17EC018DE094E00E9497
:102FF0006E178C0F9D1FDF91CF9108954AE00E94BC
:103000007B17F2CF0C946E17CF92DF92EF92FF9264
:10301000CF93DF93CAE0D0E0C12CD12C76018CE3B2
:103020000E94DF0D092E000CAA0BBB0BC80ED91E87
:10303000EA1EFB1E219799F7C701B6012AE030E08E
:1030400040E050E00E94803C6901E90180E194E0A9
:103050000E940218C6010E94EA1780E01C161D0695
:103060008CF48FEFC81683E0D8069CF4D60124E6D2
:1030700030E00E94AE3C2FEF33E040E050E00E9491
:10308000803C822FDF91CF91FF90EF90DF90CF9027
:10309000089584E6F7CFCF93DF930E946E17EC017B
:1030A0008DE094E00E946E178C0F9D1FDF91CF91F1
:1030B0000895CF93DF93682F70E090E080E04AE0BE
:1030C0000E947B17EC018DE094E00E946E178C0F3C
:1030D0009D1FDF91CF910895CF930E940418C82FB0
:1030E00030E020E040E0853058F0482F20EE37E017
:1030F000893230F420E038EF853110F020EE3FEFD8
:1031000060914B0F80914C0F0E942C1460914B0FDB
:103110006F5F80914C0F41E254E08A5F0E94BE14C1
:1031200084E294E00E9402188C2FCF910C945918DD
:103130004F925F926F927F928F929F92AF92BF92C7
:10314000CF92DF92EF92FF920F931F93CF936B0179
:103150007C01742EAC019B010E94453C882399F0B0
:1031600081E394E0CF911F910F91FF90EF90DF905A
:10317000CF90BF90AF909F908F907F906F905F9017
:103180004F900C946E1746015701E894B7F82FEF53
:103190003FEF4FE75FE7C501B4010E94453C811155
:1031A0000DC02FEF3FEF4FE75FE7C501B4010E946D
:1031B000F83918161CF485E394E0D4CF2FEF3FEFD5
:1031C0004FE75FE4C701B6010E94403C18161CF4AB
:1031D00089E394E0C7CF2FEF3FEF4FE75FECC701E4
:1031E000B6010E94F83987FDF3CF20E030E0A90155
:1031F000C701B6010E94F83910E000E087FF0AC05D
:103200006DE288E090E10E943D0F8C01F7FAF094A6
:10321000F7F8F094C0E060E070E080E09FE37C1697
:1032200041F020E030E040E251E40E94983BCF5F63
:10323000F6CFA70196010E942C3B2B013C010E9476
:10324000113C4B015C014AE00E947B177C01E00EBF
:10325000F11ECC23C1F1C501B4010E94FD399B01CF
:10326000AC01C301B2010E942B3B4B015C016EE239
:1032700088E090E10E943D0FE80EF91EC15018F160
:1032800020E030E040E251E4C501B4010E945E3A22
:103290002B013C010E94113C4B01B12CA12C4AE0B6
:1032A000C501B4010E947B17E80EF91EC501B401E7
:1032B0000E94FD399B01AC01C301B2010E942B3B6E
:1032C0004B015C01DBCFC701CF911F910F91FF90A4
:1032D000EF90DF90CF90BF90AF909F908F907F90B6
:1032E0006F905F904F900895CF93DF934AE00E94D4
:1032F0007B17EC018DE094E00E946E178C0F9D1FF0
:10330000DF91CF9108958F929F92AF92BF92EF92EB
:10331000FF920F931F93CF93DF938C014A015B01C0
:103320007901FC011995C0910210D091031082E13E
:1033300090E02097D1F50E94783DFC011082118227
:1033400012821382148215821682178213861286C5
:103350001586148617861686118A108A9093031094
:1033600080930210909301108093001011861086B4
:10337000E0910210F09103101587048710821182EA
:103380001282138284829582A682B782F386E286B5
:1033900017861686DF91CF911F910F91FF90EF90C6
:1033A000BF90AF909F908F9008950E94783DFC0150
:1033B0001082118212821382148215821682178261
:1033C000138612861586148617861686118A108A29
:1033D000998B888B88859985019691878087F09352
:1033E0000310E0930210C4CFEF92FF920F931F934C
:1033F000CF93DF930097A1F1EC01E0900610F090DD
:1034000007100885198584E090E0E114F104D1F4F7
:103410000E94783DFC0113821282909307108093E2
:103420000610909305108093041011830083EE859D
:10343000FF853097A9F0DF91CF911F910F91FF90F9
:10344000EF9019940E94783DFC0113821282F701DB
:10345000938382839093071080930610FC01E5CF3D
:10346000DF91CF911F910F91FF90EF900895809180
:10347000001090910110009751F0FC0120893189D2
:1034800030930110209300100E94143EF0CF8091E1
:10349000041090910510009751F0FC0122813381B6
:1034A00030930510209304100E94143EF0CF109228
:1034B000011010920010109203101092021010923E
:1034C0000710109206100895CF92DF92EF92FF92AC
:1034D0000F931F93CF93DF93C0910410D0910510E9
:1034E000209709F445C0E0910010F0910110288167
:1034F0003981808591852817390759F48089918908
:1035000090930110809300100E94143E0A80DB818A
:10351000C02D0091001010910110D8015096ED912E
:10352000FC912097E9F03097D9F0E088F188288164
:103530003981808591852817390779F4D80150960B
:10354000EC9250975196FC92E088F188C7010E9456
:10355000143E0A80DB81C02DF8018F01F701E1CF15
:10356000109205101092041010920710109206107D
:10357000C0910010D0910110209751F1CC80DD80D6
:10358000EE80FF800E949B0E088119812A813B8179
:10359000601B710B820B930B6C157D058E059F05CF
:1035A00098F00E949B0E688379838A839B83EA85C7
:1035B000FB85309731F01995882319F0CE010E94D0
:1035C000F419EC85FD8519950888D989C02DD4CFCB
:1035D000DF91CF911F910F91FF90EF90DF90CF90EF
:1035E0000895CF93DF93EC0188819981009711F0C2
:1035F0000E94143E198218821D821C821B821A822C
:10360000DF91CF910895FC0180819181009711F0A5
:103610000C94143E0895CF92DF92EF92FF920F9395
:103620001F93CF93DF93EC018B01FC01E05AFF4F16
:10363000C080D180E280F38096012F73332783E02E
:10364000CC0CDD1CEE1CFF1C8A95D1F7C90101963C
:103650002C0F3D1F40E8F90140838933910578F034
:1036600040E450E0481B590B70E060E08C0F9D1F58
:103670000E94943FCE010E94891090E080E04CE3CC
:1036800050E0481B590B70E060E08C0F9D1F0E94BA
:10369000943FFCAEEDAEDEAECFAECE010E948910FF
:1036A000FE01E05CFF4F2081318142815381CC5B80
:1036B000DF4F8A819B81F8015083418332832383CA
:1036C00094838583DF91CF911F910F91FF90EF90AD
:1036D000DF90CF900895CF93DF93EC01A881B9815B
:1036E000EB01E881F9811097F1F03097B1F4EC012A
:1036F0008C819D81892BC9F08C9190E00BC0DB01FE
:1037000014968D919C91892B81F0808190E0919508
:1037100081959109DF91CF910895BF01CD01DF918E
:10372000CF910C949B3F309751F790E080E0F2CF1F
:103730000F931F93CF93DF93EC01888199810097BA
:1037400059F02A813B812617370730F081E0DF915D
:10375000CF911F910F9108958B016F5F7F4F0E9452
:103760009D3E009759F0998388831B830A832C819F
:103770003D81232B59F7FC011082E8CF80E0E7CF91
:10378000EF92FF920F931F93CF93DF93EC01FB0116
:10379000E080F180E114F10411F10481158101153B
:1037A0001105A9F08C819D81080F191FB801CE0168
:1037B0000E94981B882399F0288139818C819D81F2
:1037C000B701820F931F0E94A43F1D830C83CE017B
:1037D000DF91CF911F910F91FF90EF900895CE014F
:1037E0000E94F11AF4CFEF92FF920F931F93CF93A1
:1037F000DF93EC017B018A01BA010E94981B8111C1
:103800000BC0CE010E94F11ACE01DF91CF911F9122
:103810000F91FF90EF9008951D830C83B70188816D
:1038200099810E94A43FF0CFFB0101900020E9F7AD
:103830003197AF01461B570B0C94F31B0F931F934B
:10384000CF93DF93CDB7DEB762970FB6F894DEBFA4
:103850000FBECDBF8C01CB01F80111821082138203
:103860001282158214824AE0BE016F5F7F4F0E9470
:10387000C339BE016F5F7F4FC8010E94141C62965E
:103880000FB6F894DEBF0FBECDBFDF91CF911F9171
:103890000F910895CF93DF93EC01FB0186179707F3
:1038A00049F0608171816115710541F04481558154
:1038B0000E94F31BCE01DF91CF9108950E94F11A6F
:1038C000F9CFFC01118210821382128215821482B8
:1038D0000C944A1CFC011182108213821282158200
:1038E0001482FB0101900020E9F73197AF01461BDC
:1038F000570B0C94F31BAF92BF92CF92DF92EF92D3
:10390000FF920F931F93CF93DF936C015B017A01BA
:1039100089012417350720F48F2D7901042F182FE2
:103920006FE074E0C6010E946A1CD5011496CD9127
:10393000DC91EC16FD06E0F40C171D0708F4E80115
:10394000D501ED91FC911197EC0FFD1F10811082B4
:103950006D917C916E0D7F1DC60161157105A1F001
:103960000E94141CF50180819181C80FD91F188312
:10397000C601DF91CF911F910F91FF90EF90DF90E3
:10398000CF90BF90AF9008950E94F11AEBCF0F93A4
:103990001F93CF93DF9300D000D0CDB7DEB78C015B
:1039A0000E9498146DE374E00115110539F069E483
:1039B00074E00130110511F065E574E0CE01019667
:1039C0000E946A1C25EE3FEAAE014F5F5F4F65E043
:1039D00070E085E090E00E94F80ACE0101960E9416
:1039E000031B0E94721426960FB6F894DEBF0FBE1A
:1039F000CDBFDF91CF911F910F9108950F931F932A
:103A0000CF93DF93CDB7DEB72C970FB6F894DEBF18
:103A10000FBECDBF8C016FE074E0CE0107960E940F
:103A20006A1C01301105A9F102301105D9F162E4D7
:103A300075E0CE0107960E94141C1092370F81E6A4
:103A400094E00E944B1800E018EFBE01695F7F4FC1
:103A5000CE0101960E94611C9801AE014F5F5F4F3D
:103A60006CE270E085E090E00E94F80ACE010196D9
:103A70000E94031BCE0107960E94031B2C960FB6D3
:103A8000F894DEBF0FBECDBFDF91CF911F910F9194
:103A900008956EE674E0CE0107960E94141C00EEB5
:103AA00017E0D3CF6FE774E0CE0107960E94141C95
:103AB0000FE110E0CACF20913F0230914002281759
:103AC000390741F09093400280933F020E94FE1C10
:103AD00081E0089580E00895EF92FF920F931F9385
:103AE000CF93DF93CDB7DEB762970FB6F894DEBF02
:103AF0000FBECDBF8C017B01FC01248135818091FB
:103B0000DE139091DF132817390741F46AED73E152
:103B1000C8010E946B1B892B09F472C0B8018AEDA1
:103B200093E10E944A1CF0923E02E0923D02B701EE
:103B3000CE0107960E941E1C60E974E0CE0101963A
:103B40000E946A1CBE01695F7F4FCE0101960E94F0
:103B5000C01BBC01CE010D960E94611C20E038EF15
:103B6000AE01435F5F4F66E970E090E080E00E9445
:103B7000F80ACE010D960E94031BCE0101960E9409
:103B8000031BCE0107960E94031B0E949814F801A4
:103B9000848195814C9708F440C02BE130E050E0DF
:103BA00040E0B801CE0101960E947B1C20E038EF76
:103BB000AE014F5F5F4F6AEA70E090E080E00E94E4
:103BC000F80ACE0101960E94031BF8012481358179
:103BD0004BE150E0B801CE0101960E947B1C20E031
:103BE00038EFAE014F5F5F4F62EB70E090E080E036
:103BF0000E94F80ACE0101960E94031B0E947214D3
:103C000062960FB6F894DEBF0FBECDBFDF91CF91A5
:103C10001F910F91FF90EF900895B801CE0101968A
:103C20000E94611C20E038EFAE014F5F5F4F6AEAEF
:103C300070E0DCCF0F931F93CF93DF93CDB7DEB748
:103C400062970FB6F894DEBF0FBECDBF8C012091F6
:103C5000E4133091E513FC0184819581281739071D
:103C600041F4B80180EE93E10E946B1B892B09F4AB
:103C70005CC0B80180EE93E10E944A1C0E941B14B4
:103C80000E949814F80184819581489708F458C0DF
:103C900026E130E050E040E0B801CE0107960E94F6
:103CA0007B1C69E974E0CE0101960E946A1CBE018A
:103CB000695F7F4FCE0101960E94C01BBC01CE01FF
:103CC0000D960E94611C20EE3FEFAE01435F5F4FF7
:103CD00068EC70E090E080E00E94F80ACE010D965A
:103CE0000E94031BCE0101960E94031BCE01079682
:103CF0000E94031BF8012481358146E150E0B801A0
:103D0000CE0101960E947B1C20EE3FEFAE014F5F7B
:103D10005F4F60ED70E090E080E00E94F80ACE0115
:103D200001960E94031B0E94721462960FB6F894CB
:103D3000DEBF0FBECDBFDF91CF911F910F910895D0
:103D400069E974E0CE0101960E946A1CB801CE01B7
:103D500001960E94C01BBC01CE0107960E94611C07
:103D600020EE3FEFAE01495F5F4F68EC70E090E0FE
:103D700080E00E94F80ACE0107960E94031BCE0144
:103D800001960E94031BCFCF0F931F93CF93DF9316
:103D900000D000D0CDB7DEB71091370F20EE37E05E
:103DA000193230F420EE3FEF1F3110F420E038EFED
:103DB000412F60914D0F80914E0F0E942C14609105
:103DC0004D0F6F5F80914E0F4FE954E08E5F0E9460
:103DD000BE14115001E01E3108F000E08091460A47
:103DE0001E3108F5811112C083EA94E00E944B183D
:103DF0006EED74E0CE0101960E946A1CCE01019620
:103E00000E941A1ECE0101960E94031B0093460ACF
:103E100026960FB6F894DEBF0FBECDBFDF91CF91CF
:103E20001F910F910895882389F30E941B14EECFF0
:103E3000EF92FF920F931F93CF93DF93CDB7DEB72F
:103E400068970FB6F894DEBF0FBECDBF0E949814DE
:103E500010914F0FE0903F02F090400280913502A8
:103E600090913602112309F484C0E114F10409F49D
:103E700051C0029751F16CEF74E0CE0101960E949F
:103E80006A1C20EE37E0AE014F5F5F4F63E770E0E2
:103E900085E090E00E94F80ACE0101960E94031B83
:103EA0006EE075E0CE0101960E946A1C20EE37E0BC
:103EB000AE014F5F5F4F6BE770E085E090E00E94DE
:103EC000F80ACE0101960E94031B82E090E09093D5
:103ED0003602809335020E947214EF2809F47BC0E9
:103EE000112309F478C08091290F882309F445C172
:103EF00080912A0F90912B0F88389F4F44F080912A
:103F00002C0F90912D0F88389F4F0CF039C182E013
:103F100090E063C0019751F16AE175E0CE0101962E
:103F20000E946A1C20E038EFAE014F5F5F4F63E7ED
:103F300070E085E090E00E94F80ACE0101960E94B0
:103F4000031B6CE275E0CE0101960E946A1C20EE14
:103F500037E0AE014F5F5F4F6BE770E085E090E0C8
:103F60000E94F80ACE0101960E94031B81E090E0B6
:103F7000AECF892B09F4AFCF6EE375E0CE01019689
:103F80000E946A1C20E038EFAE014F5F5F4F63E78D
:103F900070E085E090E00E94F80ACE0101960E9450
:103FA000031B6CE275E0CE0101960E946A1C20EEB4
:103FB00037E0AE014F5F5F4F6BE770E085E090E068
:103FC0000E94F80ACE0101960E94031B109236024D
:103FD0001092350280CF90E080E09093480A809361
:103FE000470A20913302309134028217930721F15E
:103FF0008FE495E00E9402188091470A9091480A48
:104000000E94EA178091470A9091480A00E018EF51
:104010008530910538F4880F991FFC01E958FD4F50
:10402000008111812DE230E04AEA50E069E170E060
:1040300086E990E00E949E098091470A9091480A83
:10404000909334028093330260912C0F70912D0F66
:1040500080914B0A90914C0A6817790709F455C072
:10406000CE0143960E941E1C00912C0F10912D0F23
:104070000D398FEF180754F165E375E0CE01019615
:104080000E946A1CB801CE010D960E941E1CBE0142
:10409000635F7F4FCE0107960E94611CBE016F5F78
:1040A0007F4FCE0107960E94C01BBC01CE014396F4
:1040B0000E944A1CCE0107960E94031BCE010D965A
:1040C0000E94031BCE0101960E94031B80914F0F9B
:1040D000882309F458C0BE016D5E7F4FCE01019662
:1040E0000E94611C2FEF3FEFAE014F5F5F4F6AE50B
:1040F00070E087E390E00E94F80ACE0101960E94EA
:10410000031BCE0143960E94031B2091370F809121
:10411000490A90914A0A2817190611F00E94C41EF4
:104120000E940418082F10E0809137029091380205
:104130000817190711F00E946C1880912C0F9091AC
:104140002D0F90934C0A80934B0A8091370F90E08B
:1041500090934A0A8093490A1093380200933702D9
:1041600068960FB6F894DEBF0FBECDBFDF91CF913A
:104170001F910F91FF90EF90089584E090E02DCF74
:1041800083E090E02ACF67E375E0CE0101960E94BC
:104190006A1CA8CF4F925F926F927F928F929F92EC
:1041A000AF92BF92CF92DF92EF92FF920F931F9345
:1041B000CF93DF938C01EB0149015A01FC01E05AD6
:1041C000FF4F80819181A281B3816C017D012FE33A
:1041D000C222DD24EE24FF24880D991DAA1DBB1DDB
:1041E00080839183A283B38381149104A104B104D9
:1041F00079F180E490E0A0E0B0E08C199D09AE096F
:10420000BF092401350188159905AA05BB0510F4DD
:104210002C013D01C8018C0D9D1DA201BE010E9413
:104220008B3FC40CD51CE61CF71CC40DD51D84188F
:104230009508A608B70880E4C816D104E104F10483
:1042400099F6C8010E948910C12CD12C7601CCCFDF
:10425000DF91CF911F910F91FF90EF90DF90CF9062
:10426000BF90AF909F908F907F906F905F904F9096
:104270000895AF92BF92DF92EF92FF920F931F9338
:10428000CF93DF93EC018B01FB01D3808281645FCC
:104290007F4F8E3F09F459C0ED2CF12CFB01EE0D40
:1042A000FF1DDE2C91E09E1538F497012150310955
:1042B0009291992309F463C08883D982F80184819B
:1042C0008A8385818B8386818C8387818D8380859A
:1042D0008E8381858F8381859285A385988781854B
:1042E0009285A385A987A701CE010A960E948B3FDC
:1042F000FAE0EF0EF11CCE0DDF1DF801848199E08C
:10430000F92E80FF3AC08DE0F80190819883918169
:104310009983A82EB12C882341F0B8016A5E7E4FA4
:10432000A501CE0102960E948B3FC5018F0D911D04
:1043300003968D0D911DDF91CF911F910F91FF90ED
:10434000EF90DF90BF90AF9008958883D9828681E7
:104350008A8387818B8380858C8381858D8343814C
:1043600050E0CE0106960E948B3FF801838190E0D9
:104370000696C80FD91F25E0F22E80E0C5CF79013F
:1043800090CF3F924F925F926F927F928F929F92C7
:10439000AF92BF92CF92DF92EF92FF920F931F9353
:1043A000CF93DF93CDB7DEB7C857D1090FB6F894D6
:1043B000DEBF0FBECDBF6C013E2C8091590A582F35
:1043C000527081FD1DC0E0915B0AF0915C0A30974C
:1043D00031F080812DE0522E11E080FD02C0512C81
:1043E00010E08DEFF60182833C96E00FF11D829183
:1043F000811103C001500130D1F78AE0482E09C075
:104400008EEFD60112968C93022F512C96E0492EF6
:1044100010E0D60113960C93139717966C93179789
:1044200018964C93189711114CC014961C92D601F3
:1044300015961C9215978091540A16968C93169790
:104440008091540A8F5F8093540A12968C91129730
:10445000A6968FAFA69713968C911397A7968FAFBA
:10446000A79719968D919D91AC91F6013681278180
:10447000552359F1A8963FAFA897A9962FAFA997B2
:10448000AA964FAFAA97AB968FAFAB97A42CB12C3F
:104490008FEF9FEF9A838983CE018B599F4F7C01C9
:1044A0004C018A0C9B1C9FEFE91AF90A8E149F0499
:1044B00039F1BE016F5F7F4FD7018C910E94481088
:1044C000F2CF81E0F6018483B2CF5481A8965FAF2A
:1044D000A8975581A9965FAFA997AA963FAFAA97CB
:1044E000AB962FAFAB97AC964FAFAC97AD968FAF67
:1044F000AD97AE969FAFAE97AF96AFAFAF97C6CF23
:1045000089819A81E9969FAF8EAFE997F601638022
:10451000712C7601FCE0EF0EF11C470181E0681A76
:104520007108BE0169587F4F9FEF6916790631F017
:10453000D4018D914D010E944810F0CF832D0E942F
:104540004810E8969FADE897E9968FADE997D601B8
:104550001396EC911397EE0DFF2DF11D908313969A
:10456000EC911397EE0DFF2DF11D81839C93119615
:104570008C931197112309F4F4C000915B0A1091F8
:104580005C0A0115110509F4ECC0F801808180FF77
:10459000E8C013967C9081814601FAEE8F1AFEEFF7
:1045A0009F0AD4018C93F8018281E0968FAFE09747
:1045B0008381E1968FAFE1978481E2968FAFE29796
:1045C0008581E3968FAFE3978681E4968FAFE4977A
:1045D0008781E5968FAFE5978085E6968FAFE69762
:1045E0008185E7968FAFE79786E0FE01E159FF4F9F
:1045F000119601900D928A95E1F7D80112962C91AF
:10460000129713963C91139714964C911497159604
:104610005C91159716966C91169717967C91179743
:1046200018968C91189719969C91A1E00E943A3D9A
:10463000F80122833383448355836683778380879D
:10464000918787E696EEA9E0BAE625968CAF9DAFF6
:10465000AEAFBFAF259785E89EEAA7E6BBEB2996EC
:104660008CAF9DAFAEAFBFAF299782E793EFAEE6B9
:10467000BCE32D968CAF9DAFAEAFBFAF2D978AE355
:1046800095EFAFE4B5EA61968CAF9DAFAEAFBFAF2B
:1046900061978FE792E5AEE0B1E565968CAF9DAF8F
:1046A000AEAFBFAF65978CE898E6A5E0BBE9699629
:1046B0008CAF9DAFAEAFBFAF69978BEA99EDA3E822
:1046C000BFE16D968CAF9DAFAEAFBFAF6D9789E187
:1046D0009DECA0EEBBE5A1968CAF9DAFAEAFBFAF9A
:1046E000A197A5961CAE1DAE1EAE1FAEA597B80134
:1046F000665F7F4F20E230E040E050E0CE0101965F
:104700000E94CA20242D30E050E040E0BE016B59E9
:104710007F4FCE0101960E94CA20272D30E050E045
:1047200040E0B701CE0101960E94CA20B701670D93
:10473000711D22E030E040E050E0CE0101960E9481
:10474000CA2027E030E040E050E0B401CE010196FD
:104750000E94CA20B601635E7E4FCE0101960E9480
:104760000B1BD60113968C918A0D9B2D911D0296E1
:10477000850D911DC858DF4F0FB6F894DEBF0FBEF0
:10478000CDBFDF91CF911F910F91FF90EF90DF9000
:10479000CF90BF90AF909F908F907F906F905F90E1
:1047A0004F903F900895CF92DF92EF92FF920F9338
:1047B000811161C080E090E0A0E8BFE380931A130C
:1047C00090931B13A0931C13B0931D13C0901E1342
:1047D000D0901F13E0902013F09021132091191313
:1047E000609117137091181330911613409115139F
:1047F000E0917C13F0917D1384879587A687B78716
:10480000C08AD18AE28AF38A148A158A168A178A9C
:10481000108E118E128E138E148E158E168E178E8C
:1048200010A211A212A213A214A215A216A217A2DC
:1048300071A760A742A733A724A78CE490E0A0E06B
:1048400081879287A38788E9E82E01E221E241E08F
:1048500062E0CF010E94C12160917C1370917D13B1
:1048600080917A1390917B130F91FF90EF90DF90DE
:10487000CF900C94392180E090E0A0E0B0E49ECF8E
:10488000EF920F93CF93DF93BC01990F880B990B95
:104890000E94FF39E5E1F3E163A374A385A396A326
:1048A00022A1A0A1B1A1378D468DCCE7D3E1E8814B
:1048B000F9816487758786879787108A118A128A9B
:1048C000138A148A158A168A178A108E118E128EF0
:1048D000138E148E158E168E178E10A211A212A290
:1048E00013A214A215A216A217A2B1A7A0A742A7AD
:1048F00033A724A78CE490E0A0E081879287A38768
:1049000088E9E82E01E221E241E062E0CF010E9465
:10491000C1216881798180917A1390917B13DF9115
:10492000CF910F91EF900C943921EF920F93CF9389
:10493000DF93E5E1F3E16093521370935313809397
:1049400054139093551324ADA2ADB3AD31AD40AD2A
:10495000CCE7D3E1E881F9816487758786879787FB
:10496000108A118A128A138A148A158A168A178A5B
:10497000108E118E128E138E148E158E168E178E2B
:1049800010A211A212A213A214A215A216A217A27B
:10499000B1A7A0A742A733A724A78CE490E0A0E08A
:1049A00081879287A38788E9E82E01E221E241E02E
:1049B00062E0CF010E94C1216881798180917A13E0
:1049C00090917B13DF91CF910F91EF900C9439214F
:1049D0004F925F926F927F928F929F92AF92BF920F
:1049E000CF92DF92EF92FF920F931F93CF93DF93BB
:1049F000C82FD0E011E0813029F0D1E0823009F0F9
:104A0000D0E010E08CE595E00E9402186C2F70E079
:104A100090E080E04AE00E947B1786E895E00E94E3
:104A20000218E12EF12CC7010E94E0178FE695E0F5
:104A30000E9402188D2F90E00E94E01785E795E014
:104A40000E940218C7010E94EA1780E090E0DC0192
:104A5000112321F080E090E0A0E8BFE380934113B0
:104A600090934213A0934313B093441340E050E05B
:104A7000BA01DD2321F040E050E060E87FE340939D
:104A800045135093461360934713709348138093D4
:104A9000491390934A13A0934B13B0934C138CE794
:104AA00095E00E9402186091411370914213809129
:104AB00043139091441342E00E9498188FE695E0CA
:104AC0000E9402186091451370914613809147131C
:104AD0009091481342E00E94981885E795E00E9463
:104AE00002186091491370914A1380914B13909171
:104AF0004C1342E00E9498188DE094E00E946E17DB
:104B0000C0904913D0904A13E0904B13F0904C138F
:104B10008090451390904613A0904713B09048138F
:104B2000409041135090421360904313709044138F
:104B30008091401340913E1350913F1390913D134B
:104B400020913C13E0917C13F0917D1344865586AF
:104B500066867786808A918AA28AB38AC48AD58A31
:104B6000E68AF78A108E118E128E138E148E158E91
:104B7000168E178E10A211A212A213A214A215A2B1
:104B800016A217A251A740A722A793A784A78CE437
:104B900090E0A0E081879287A38788E9E82E01E270
:104BA00021E241E062E0CF010E94C12160917C13CB
:104BB00070917D1380917A1390917B130E9439211B
:104BC000DF91CF911F910F91FF90EF90DF90CF90E9
:104BD000BF90AF909F908F907F906F905F904F901D
:104BE0000C9400102F923F924F925F926F927F929F
:104BF0008F929F92AF92BF92CF92DF92EF92FF92ED
:104C00000F931F93CF93DF938DE895E00E944B188D
:104C10002091210F3091220F4091230F5091240FAA
:104C20006091250F7091260F8091270F9091280F8A
:104C3000A0E00E94583DA1F40E94F60DDC01CB01DA
:104C40006093210F9093220FA093230FB093240F12
:104C50001092250F1092260F1092270F1092280FF6
:104C60000E94F60D2B013C012091C80F3091C90F15
:104C70004091CA0F5091CB0F6091CC0F7091CD0F26
:104C80008091CE0F9091CF0FA090210FB090220F66
:104C9000C090230FD090240FE090250FF090260FA6
:104CA0000091270F1091280F0E94463D12015101DB
:104CB0006301E12CF12C00E010E00E94313D2093D3
:104CC0007013309371134093721350937313609366
:104CD0007413709375138093761390937713A09148
:104CE0007913B091781340906813509069136090D5
:104CF0006A1370906B1380906C1390906D13D09129
:104D00006E13C0916F13E0917C13F0917D13448674
:104D1000558666867786808A918AD28BC38B248B50
:104D2000358B468B578B608F718F828F938FB48FAB
:104D3000A58F8FE690E0A0E081879287A38786EC1D
:104D4000E82E02E122E141E062E0CF010E94C121B0
:104D500060917C1370917D1380917A1390917B13F5
:104D60000E943921DF91CF911F910F91FF90EF9019
:104D7000DF90CF90BF90AF909F908F907F906F907B
:104D80005F904F903F902F900C940010CF92DF9245
:104D9000EF920F931F93CF93DF938DEA95E00E94DC
:104DA0004B18CDE4DAE01C8522E02C8730915C13AF
:104DB00050915A1370915913009158138CE7C82ED3
:104DC00083E1D82ED601ED91FC914091571360916B
:104DD000561380915B1390E0B0E0A0E08487958744
:104DE000A687B787008B718B528B338B248B1186F0
:104DF0001286138692E3E92E09E029E0CF010E9492
:104E0000C1211C87F6016081718180917A13909194
:104E10007B130E943921DF91CF911F910F91EF9069
:104E2000DF90CF900C9400102F923F924F925F92A0
:104E30006F927F928F929F92AF92BF92CF92DF92AA
:104E4000EF92FF920F931F93CF93DF93CDB7DEB70F
:104E5000CD57D1090FB6F894DEBF0FBECDBF88E0A5
:104E600090E10E94050F892B09F4D9C788E090E1F1
:104E70000E94E30E8C01EC968FAFEC971092500FCE
:104E80002091530F3091540F2131310508F03AC071
:104E9000F9018827E15BF84D8F4F0C949F3C672701
:104EA000672700281B2832283A2844284E285828EB
:104EB00078289028A628BE284C294C29B229B22946
:104EC00081E090E09093540F8093530FC8CF80916E
:104ED0005C0FEC962FADEC972D3F09F07FC022E0E0
:104EE00030E03093540F2093530F1092980A0093A0
:104EF000970A8E7F80935C0F8FEF9FEF9093960AB7
:104F00008093950A8091500F8130A9F42091580F19
:104F10003091590F90919B0A9093560F21153105AE
:104F200021F410925B0F10925A0F2F5F3F4F309376
:104F3000590F2093580F9091980A9093C91020917F
:104F4000530F3091540F30933C0F20933B0F9091AF
:104F5000550F90933D0F9091560F9F5F90933E0F8A
:104F60002091580F3091590F3093410F2093400FEB
:104F70002091520F30E03093430F2093420F9091D5
:104F80005C0F9093440F1092520F823041F42091A5
:104F9000A90B3091AA0B3093C7102093C6109EEF37
:104FA000980F923008F033C481E08093520F109232
:104FB000500FEC96FFADEC97FD3F09F081CF82E0FA
:104FC00090E09093540F8093530F1092980A8FEFB4
:104FD0009FEF9093960A8093950A41CFEC963FAD50
:104FE000EC973E3F09F018C722E030E03093540FB1
:104FF0002093530F1092980A0093970A81607ACFFA
:105000000093980A1092550F602F85E99AE00E944C
:10501000691080915C0F80FF07C01092990A10926E
:105020009A0A85E090E002C083E090E09093540FEC
:105030008093530F67CF0093990AC8018E7F9927F9
:10504000892B41F08091520F8F5F8093520F81E046
:1050500090E0ECCF602F85E99AE00E94691084E02F
:1050600090E0E4CF00939A0A602F85E99AE00E94CD
:105070006910D7CF00939B0A602F85E99AE00E94C0
:10508000691086E090E0D2CF00939C0A602F85E9FA
:105090009AE00E94691087E090E0C8CF00939D0AD3
:1050A000602F85E99AE00E94691088E090E0BECF09
:1050B000EC96BFADEC978B2F90E0A0E080939E0A1A
:1050C00090939F0AA093A00A602F85E99AE00E941E
:1050D000691080915C0F80FF08C08091980A882336
:1050E00009F449C08BE090E0A1CF89E090E09ECF29
:1050F00080919E0A90919F0AA091A00AEC96EFAD34
:10510000EC979E2B80939E0A90939F0AA093A00AEF
:10511000602F85E99AE00E9469108AE090E086CFCE
:1051200080919E0A90919F0AA091A00AEC96FFADF3
:10513000EC97AF2B80939E0A90939F0AA093A00AAE
:10514000602F85E99AE00E946910C7CFE091550F62
:1051500081E08E0F8093550FF0E0EF55F54F0083FF
:10516000602F85E99AE00E9469109091550F809117
:10517000980A9813C7CE8CE090E058CF80919E0A91
:1051800090919F0AA091A00AAC016A2F70E0A8E05C
:105190008A2E912CA12CB12CC12CD12C76012AE085
:1051A000D701C601880D991DAA1DBB1D0196A11D21
:1051B000B11DB695A79597958795289FF001299FD2
:1051C000F00D1124EF57FC4F4080518062807380B6
:1051D000441555056605770568F54C015D0131E01C
:1051E000831A9108A108B108C814D904EA04FB0481
:1051F000B8F28AE08C9DF0018D9DF00D1124EF57DF
:10520000FC4F80819181A281B381481759076A07B9
:105210007B07C1F4648185E99AE00E94691080915E
:10522000950A9091960A992708171906A1F48DE01E
:1052300090E013C06C017D014416550666067706A2
:10524000C0F6D2CF8EE090E09093540F8093530F2E
:105250000093A90B57CE8EE090E09093540F80936B
:10526000530F0093A90B8091550F9AE09C9DF0017C
:105270009D9DF00D1124EF57FC4F4681841708F0D7
:1052800041CE50E090E0481B590B70E060E08F5534
:10529000954F0E94943F36CE2E30310581F080919B
:1052A000960AED968FAFED97EE961FAEEE97EE96BF
:1052B000AEADBFADEE9781E00A171B0609F082E0A4
:1052C0008093500F0093AA0B8091990A80FF17C01A
:1052D0008091500F823051F480E190E09093540F10
:1052E0008093530F8DE080935D0F0CCE8FE090E0A4
:1052F0009093540F8093530F1092500FF3CFE0917F
:105300005E0FF0915F0F309749F002A4F3A5E02DF6
:105310003097A9F48091500F823001F581E090E040
:105320009093540F8093530F83E291E0E5E9FAE004
:10533000A6ECB0E101900D920197E1F7E3CD8091E9
:105340009E0A90919F0AA091A00AAC016A2F70E07A
:1053500080E59FE019958111E1CFDCCF83E0809358
:10536000500FDCCF80915D0FEDE0F0E0E81BF1091C
:10537000E555F44F0083815080935D0F81114CC53A
:1053800080905E0F90905F0F81E08114910409F48A
:10539000CEC12090600F3090610F87E696EEA9E0B5
:1053A000BAE625968CAF9DAFAEAFBFAF259785E827
:1053B0009EEAA7E6BBEB29968CAF9DAFAEAFBFAF21
:1053C000299782E793EFAEE6BCE32D968CAF9DAFB5
:1053D000AEAFBFAF2D978AE395EFAFE4B5EA619624
:1053E0008CAF9DAFAEAFBFAF61978FE792E5AEE0F8
:1053F000B1E565968CAF9DAFAEAFBFAF65978CE85A
:1054000098E6A5E0BBE969968CAF9DAFAEAFBFAFA4
:1054100069978BEA99EDA3E8BFE16D968CAF9DAFDC
:10542000AEAFBFAF6D9789E19DECA0EEBBE5A19655
:105430008CAF9DAFAEAFBFAFA197A5961CAE1DAE12
:105440001EAE1FAEA59720E230E040E050E0B40170
:10545000665F7F4FCE0101960E94CA202AE030E0AD
:1054600040E050E067E97AE0CE0101960E94CA2050
:105470002091980A30E050E040E061EA7AE0CE0105
:1054800001960E94CA2022E030E040E050E069EA44
:105490007BE0CE0101960E94CA2027E030E040E088
:1054A00050E06BEA7BE0CE0101960E94CA20BE016B
:1054B0006B587F4FCE0101960E940B1B46E050E0D7
:1054C00062EB7BE0CE018B589F4F0E947E3F892B81
:1054D00021F082E090E0D4018FC05090AB0BAE96EB
:1054E0001FAEAE97AF961FAEAF97E0961FAEE09798
:1054F000E1961FAEE197E2961FAEE297E3961FAEEC
:10550000E397E4961FAEE497E5961FAEE59786E035
:10551000ECEAFBE0DE01A359BF4F01900D928A95A2
:10552000E1F72114310411F1F10180819181E091C1
:105530009C0A20919D0AD101712C612C861597053A
:10554000C1F013963C911397E3130BC014963C9152
:105550001497231306C012963C911297531609F420
:10556000F0C0FFEF6F1A7F0A1996E8CF83E090E052
:10557000B2CF409718F084E090E0ADCFAE962FAD5B
:10558000AE97AF963FADAF97E0964FADE097E196FF
:105590005FADE197E2966FADE297E3967FADE3975B
:1055A000E4968FADE497E5969FADE5972058324796
:1055B000444A5F4F6F4F7F4F8F4F9F4FD4011296DA
:1055C000AC9012971396BC9013971496CC901497A6
:1055D0001596DC9015971696EC9016971796FC90FA
:1055E000179718960C91189719961C9119970E9465
:1055F0004F3DF0F485E090E09D969C938E939C97B0
:10560000E0915E0FF0915F0F02A4F3A5E02D80E022
:10561000309709F48CC080919E0A90919F0AA091C6
:10562000A00AAC016A2F70E080E59FE019957FC069
:1056300089E0869DD001879DB00D1124A20DB31D78
:105640001396EC93139780919D0A14968C9314975C
:1056500012965C92C3010196F1019183808389E0E7
:10566000869DD001879DB00D11241596A20DB31D06
:1056700086E0ECEAFBE001900D928A95E1F7AE96A8
:105680003FACAE97AF965FACAF97E0966FACE0974C
:10569000E1967FACE197E2964FACE297E3962FACB0
:1056A000E397E496FFADE497E596EFADE597D40177
:1056B0001296AC9012971396BC9013971496CC90B8
:1056C00014971596DC9015971696EC9016971796EA
:1056D000FC90179718960C91189719961C9119978A
:1056E000232D352DA301642D722D8F2F9E2F0E9407
:1056F0004F3DC1F0B8F012963C92129713965C920F
:10570000139714966C92149715967C92159716968B
:105710004C92169717962C9217971896FC931897F9
:105720001996EC9381E090E0F40195A784A720916D
:10573000530F3091540F2031310509F063C082E0DE
:105740000ECEA6961FAEA697A7961FAEA797A896B1
:105750001FAEA897A9961FAEA997AA961FAEAA97A3
:10576000AB961FAEAB97AC961FAEAC97AD961FAE87
:10577000AD9789E0869DF001879DF00D1124359647
:10578000E20DF31D86E0DE01AB59BF4F01900D9293
:105790008A95E1F7AE962FADAE97AF963FADAF9736
:1057A000E0964FADE097E1965FADE197E2966FAD81
:1057B000E297E3967FADE397A696AFACA697A79640
:1057C000BFACA797A896CFACA897A996DFACA9972E
:1057D000AA96EFACAA97AB96FFACAB97AC960FAD81
:1057E000AC97AD961FADAD97E4968FADE497E59677
:1057F0009FADE5970E944F3D11F008F030CF86E055
:1058000090E069CE882309F4A9CD81E0A8CD882352
:1058100009F425CB86EC95E00E9402188091CF1008
:105820009091D010A091D110BC018A2F90E00E94DD
:1058300074198091CF109091D010A091D1108D3615
:105840009105A10509F44DC18F369105A105D1F04F
:10585000892B8A2B09F003CB8BE396E00E944B182F
:105860009091CD108091B710981307C09091CE10F1
:105870008091B810981709F498C182E796E00E94C9
:105880004B18EDCA8DED95E00E944B1880913D02BA
:1058900090913E02079711F40E940A1481E08093D0
:1058A000290F8091D2108093A5108091D3108093FE
:1058B000A6108091D4108093A7108091D51080936A
:1058C000A8108091D6108093A9108091D710809352
:1058D000AA108091D8108093AB108091D91080933A
:1058E000AC108091DA108093AD108091DB10809322
:1058F000AE108091DC108093AF108091DD1080930A
:10590000B0108091DE108093B1108091DF108093F1
:10591000B2108091E0108093B3108091E1108093D9
:10592000B4108FEE95E00E9402186091A51070915E
:10593000A6108091A7109091A8100091AD10109121
:10594000AE102091AF103091B010601B710B820B24
:10595000930B0E9474190E94F60D2B013C012091BB
:10596000210F3091220F4091230F5091240F60910D
:10597000250F7091260F8091270F9091280FA090EE
:10598000AD10B090AE10C090AF10D090B010E090BD
:10599000B110F090B2100091B3101091B4100E94A9
:1059A000313D59016A017B018C012091C80F309172
:1059B000C90F4091CA0F5091CB0F6091CC0F7091DD
:1059C000CD0F8091CE0F9091CF0F0E94463D1201D6
:1059D00051016301E12CF12C00E010E00E94313D07
:1059E00001E00E94163DA090A510B090A610C090B6
:1059F000A710D090A810E090A910F090AA100091E4
:105A0000AB101091AC100E94313D2093C80F309321
:105A1000C90F4093CA0F5093CB0F6093CC0F709374
:105A2000CD0F8093CE0F9093CF0F0E94F60D8B0178
:105A30009C016093210F1093220F8093230F3093CA
:105A4000240F1092250F1092260F1092270F1092FC
:105A5000280F8FEF95E00E9402186091C80F709197
:105A6000C90F8091CA0F9091CB0F0091A510109192
:105A7000A6102091A7103091A810601B710B820B0B
:105A8000930B0E9474190E941B142091C80F30912F
:105A9000C90F4091CA0F5091CB0F6091CC0F7091FC
:105AA000CD0FEAE0AE2EB12CC12CD12CE12CF12C83
:105AB00000E010E08091CE0F9091CF0F0E94B73C94
:105AC000209302003093030040930400509305009C
:105AD000609306007093070080930800909309007C
