:100000000C9436070C9467070C9467070C946707E9
:100010000C9467070C9467070C9467070C946707A8
:100020000C9467070C9467070C9467070C94670798
:100030000C9467070C9467070C9467070C94670788
:100040000C9467070C9467070C9467070C94670778
:100050000C9467070C9467070C9467070C946E2C3C
:100060000C9467070C94422D0C94182D0C94670780
:100070000C9467070C9467070C9467070C94670748
:100080000C9467070C9467070C9467070C94670738
:100090000C9467070C9467070C9467070C94670728
:1000A0000C9467070C9467070C9467070C94670718
:1000B0000C9467070C9467070C9467070C94670708
:1000C0000C9467070C9467070C9467070C946707F8
:1000D0000C9467070C9467070C94E22C0C94B82CD2
:1000E0000C9467070C946C0C0C94FD250C94D90DA2
:1000F0000C94A70D0C94350C0C9489160C94D30E0B
:100100000C943D0C0C947A0D0C94A5250C94660C63
:100110000C94840D0C949F230C946B0C0C9438104D
:100120000C9463260C94930F0C94DF250C94720DA1
:100130000C94AC160C9495160C948E0D0C94F60E33
:100140000C94E00F0C94A60E0C94C0250C94390C62
:100150000C94580C0C94D7250C946F240C94600DBF
:100160000C94F3250C9435260C94F1260C942B0C4E
:100170000C94470D0C944B260C940C250C94620C9B
:100180000C94A5160C946A0D0C94500C0C948D16BE
:100190000C945E0C0C949D160C94CF0D0C94310CA9
:1001A0000C94700C0C943F0D0C94560D0C94E92596
:1001B0000C94980D0C94BF360C94621D0C944B1645
:1001C0000C94782D0C94A6160C94460C0C94C50D2A
:1001D0000C94540C0C94B10D0C941D260C94BB0D76
:1001E0000C94400C0C9464160C94460F0C944C0D1B
:1001F0000C94E20E0C94040F0C944A0C0C945727A8
:100200000608206004000000000000050000065FF2
:100210000600060007030007030600247E247E2450
:100220000500242B6A1200060063130864630600AD
:100230003649562050040000070300000400003E29
:10024000410000040000413E00000600083E1C3E44
:1002500008060008083E0808040000E060000006E8
:10026000000808080808040000606000000600207C
:100270001008040206003E5149453E050000427F39
:100280004000060062514949460600224949493664
:1002900006001814127F1006002F49494931060044
:1002A0003C4A4949300600017109050306003649F8
:1002B0004949360600064949291E0400006C6C00B5
:1002C00000040000EC6C0000050008142241000648
:1002D00000242424242406000041221408060002DD
:1002E0000159090606003E415D551E06007E1111AA
:1002F000117E06007F4949493606003E41414122B0
:1003000006007F4141413E06007F494949410600C0
:100310007F0909090106003E4149497A06007F0824
:1003200008087F050000417F410006003040404042
:100330003F06007F0814224106007F4040404006EF
:10034000007F0204027F06007F0204087F06003E51
:100350004141413E06007F0909090606003E415120
:10036000215E06007F0909196606002649494932BF
:10037000060001017F010106003F4040403F0600AA
:100380001F2040201F06003F403C403F06006314F2
:100390000814630600070870080705007149454303
:1003A000000500007F4141000600020408102005FE
:1003B000000041417F000600040201020406808023
:1003C0008080808004000003070000060020545451
:1003D000547806007F444444380600384444442896
:1003E0000600384444447F0600385454540805003D
:1003F000087E090900060018A4A4A47C05007F0457
:10040000047800050000007D400005004080847DE8
:100410000005007F10284400050000007F40000612
:10042000007C0418047805007C0404780006003879
:10043000444444380600FC444444380600384444EC
:1004400044FC060044784404080600085454542030
:100450000500043E44240005003C40207C000600CA
:100460001C2040201C06003C6030603C05006C10E5
:10047000106C0005009CA0603C0005006454544CC6
:10048000000500083E41410004000000770000061E
:10049000000041413E080500020102010006003C47
:1004A0002623263C0B102060060000000000000000
:1004B0000000000000000000000000000000000735
:1004C0000000000000007C00FF33FF337C000000D0
:1004D00000000000000008000000003C003C00009C
:1004E0000000003C003C000000000000000B000287
:1004F000101E901FF0037E021E1E901FF0037E024E
:100500001E0010000900007804FC0CCC0CFF3FFF1B
:100510003FCC0CCC0F8807000000000B00303838AF
:10052000381C380E00078003C001E03870383838B6
:100530001C000A0000001FB83FFC31C621E2373E14
:100540001E1C1C00360022000006000000000000F7
:1005500027003F001F000000000000000000000016
:100560000800000000F003FC0FFE1F073801200107
:100570002000000000000008000000000120012011
:100580000738FE1FFC0FF003000000000000090008
:1005900000980CB80EE003F80FF80FE003B80E98BF
:1005A0000C00000000090000800180018001F00FB4
:1005B000F00F8001800180010000000006000000B3
:1005C00000000000B800F800780000000000000003
:1005D000000000090000800180018001800180018D
:1005E0008001800180010000000006000000000082
:1005F0000000380038003800000000000000000053
:10060000000B0018001C000E00078003C001E00072
:10061000700038001C000E000BF807FE1F061E03BA
:10062000338331C330633033301E18FE1FF8070A9E
:10063000000000000C300C300E30FF3FFF3F003058
:100640000030003000000B1C301E38073C033E0316
:10065000378333C331E33077303E301C300B0C0C22
:100660000E1C0738C330C330C330C330C330E73942
:100670007E1F3C0E0BC003E003700338031C030E07
:10068000030703FF3FFF3F000300030B3F0C7F1CEA
:10069000633863306330633063306330E338C31FE3
:1006A000830F0BC00FF01FF839DC30CE30C730C3DA
:1006B00030C330C339801F000F0B03000300030059
:1006C0000330033C030FC303F3003F000F0003009C
:1006D0000B000FBC1FFE39E730C330C330C330E717
:1006E00030FE39BC1F000F0B3C007E00E730C330EA
:1006F000C330C338C31CC30EE707FE03FC0006006B
:100700000000000000701C701C701C000000000045
:10071000000000000006000000000000709C70FC5B
:10072000707C00000000000000000000090000C014
:1007300000E001F00338071C0E0E1C0738033000E0
:100740000000000A000060066006600660066006A1
:1007500060066006600660060000090000033007BE
:10076000380E1C1C0E3807F003E001C0000000002A
:10077000000A1C001E00070003008337C337E30094
:1007800077003E001C0000000BF80FFE1F0718F357
:1007900033FB371B36FB37FB370736FE03F8010AFE
:1007A0000038003FE007FC061F061F06FC06E007B6
:1007B000003F003800000AFF3FFF3FC330C330C393
:1007C00030C330E730FE39BC1F000F00000AF003D1
:1007D000FC0F0E1C073803300330033007380E1CA3
:1007E0000C0C00000AFF3FFF3F03300330033003CF
:1007F0003007380E1CFC0FF00300000AFF3FFF3FDC
:10080000C330C330C330C330C330C33003300330D0
:1008100000000AFF3FFF3FC300C300C300C300C383
:1008200000C3000300030000000AF003FC0F0E1CCD
:1008300007380330C330C330C330C73FC63F000062
:100840000AFF3FFF3FC000C000C000C000C000C0A2
:1008500000FF3FFF3F0000080000000003300330AE
:10086000FF3FFF3F033003300000000000000A009C
:100870000E001E003800300030003000300038FF1D
:100880001FFF0700000AFF3FFF3FC000E001F00329
:1008900038071C0E0E1C0738033000000AFF3FFF0C
:1008A0003F003000300030003000300030003000B9
:1008B0003000000AFF3FFF3F1E007800E001E0012A
:1008C00078001E00FF3FFF3F00000AFF3FFF3F0E82
:1008D000003800F000C0030007001CFF3FFF3F008E
:1008E000000AF003FC0F0E1C0738033003300738F2
:1008F0000E1CFC0FF00300000AFF3FFF3F83018343
:1009000001830183018301C701FE007C0000000A0E
:10091000F003FC0F0E1C073803300336073E0E1C95
:10092000FC3FF03300000AFF3FFF3F830183018358
:10093000038307830FC71DFE387C3000000A3C0C80
:100940007E1CE738C330C330C330C330C7398E1F75
:100950000C0F0000090000030003000300FF3FFF2D
:100960003F030003000300000000000AFF07FF1F11
:10097000003800300030003000300038FF1FFF0723
:1009800000000A07003F00F801C00F003E003EC013
:100990000FF8013F00070000000AFF3FFF3F001C67
:1009A0000006800380030006001CFF3FFF3F00009D
:1009B0000A03300F3C1C0E3003E001E00130031C41
:1009C0000E0F3C033000000A03000F003C00F00053
:1009D000C03FC03FF0003C000F00030000000A03CE
:1009E00030033C033E0333C331E33033301F300F59
:1009F00030033000000800000000FF3FFF3F0330DD
:100A00000330033003300000000000000B0E001C18
:100A10000038007000E000C00180030007000E00F5
:100A20001C001808000000000330033003300330BE
:100A3000FF3FFF3F0000000000000B600070003827
:100A4000001C000E0007000E001C00380070006043
:100A5000000B00C000C000C000C000C000C000C04B
:100A600000C000C000C000C007000000000000007F
:100A7000003E007E004E0000000000000000000A62
:100A8000001C403E6033603360336033603360335A
:100A9000E03FC03F00000AFF3FFF3FC030603060D2
:100AA0003060306030E038C01F800F00000A800FD7
:100AB000C01FE03860306030603060306030C01897
:100AC000800800000A800FC01FE03860306030608E
:100AD00030E030C030FF3FFF3F00000A800FC01FF2
:100AE000E03B60336033603360336033C0138001B8
:100AF000000008C000C000FC3FFE3FC700C300C3A9
:100B00000003000000000000000A8003C0C7E0CE20
:100B100060CC60CC60CC60CC60E6E07FE03F000061
:100B200009FF3FFF3FC000600060006000E000C0C0
:100B30003F803F00000000080000000000306030EF
:100B4000EC3FEC3F003000300000000000000800E7
:100B5000000000006000E000C060C0ECFFEC7F001F
:100B60000000000000090000FF3FFF3F0003800776
:100B7000C00FE01C603800300000000008000000DA
:100B80000000300330FF3FFF3F0030003000000026
:100B90000000000AE03FC03FE000E000C03FC03F6F
:100BA000E000E000C03F803F00000A0000E03FE0BE
:100BB0003F6000600060006000E000C03F803F00D8
:100BC000000A800FC01FE038603060306030603055
:100BD000E038C01F800F00000AE0FFE0FF600C60FB
:100BE00018601860186018E01CC00F800700000A29
:100BF0008007C00FE01C6018601860186018600C57
:100C0000E0FFE0FF00000A0000E03FE03FC00060BE
:100C100000600060006000E000C000000008C0113B
:100C2000E0336033603360336033603F401E000068
:100C3000000000000860006000FE1FFE3F603060A2
:100C400030603000300000000000000AE00FE01FBC
:100C5000003800300030003000300018E03FE03F46
:100C600000000A6000E0018007001E003800380024
:100C70001E8007E001600000000AE007E01F003866
:100C8000001CE00FE00F001C0038E01FE007000030
:100C9000096030E038C01D800F0007800FC01DE0E4
:100CA000386030000000000900006000E08180E74B
:100CB000007E001E8007E001600000000000096067
:100CC000306038603C60366033E031E030603020C6
:100CD00030000000000900008000C001FC1F7E3FC2
:100CE000077003600360036000000000060000005E
:100CF0000000000000FF3FFF3F0000000000000078
:100D000000000009000003600360036007707E3F7D
:100D1000FC1FC0018000000000000A100018000C39
:100D20000004000C001800100018000C0004000063
:100D3000000A000F800FC00C600C300C300C600CEF
:100D4000C00C800F000F00000000210024002700CD
:100D50002A002D00300033000101000004010701CA
:100D60000A0100002200250028002B002E0031007F
:100D7000340002010000050108010B010000200001
:100D80002300260029002C002F0032000001000063
:100D900003010601090105050505070508080808FE
:100DA000020202020A0A0808040404040101010103
:100DB00001010101030303030303030304070707FE
:100DC0000C0C0C0C0C0C0C0C0202020206060606A3
:100DD000060606060B0B0B0B0B0B0B0B0102102070
:100DE0002008081020401020408002010201080461
:100DF00002010102040810204080804020100804F5
:100E0000020180040201804020100804020108044D
:100E10000201010204081020408001020408102091
:100E2000408000000A0B02090C0D0E0807030401A4
:100E300000000000000000000000000000000000B2
:100E4000000000000000000000000000000012117F
:100E50001000000000000000000000000000000082
:100E60000000000000000000782DBF3611241FBED6
:100E7000CFEFD1E2DEBFCDBF00E00CBF20E1A8E3A1
:100E8000B6E001C01D92AF38B207E1F716E0A0E06E
:100E9000B2E0E8E7F9E700E00BBF02C007900D926F
:100EA000A833B107D9F717E0C5E3D7E000E006C0E3
:100EB00021970109802FFE010E947C39C433D1079C
:100EC00080E00807A9F70E947C2E0C94AA3C0C94A1
:100ED0000000AC01E0913310F091341080819091CA
:100EE0003C10892B8083E0913710F091381080817D
:100EF00090913B1090959823908380912D1020E144
:100F000030E060E070E887FF12C05EBD0DB407FE00
:100F1000FDCF4EBD0DB407FEFDCFE0913710F0912F
:100F20003810808190913B10892B80830895E09147
:100F30002F10F091301090913910DA01A623B723C9
:100F40008081AB2BD9F0982B9083E0913110F091F8
:100F50003210808190913A10892B8083E09131107A
:100F6000F0913210808190913A109095982390835F
:100F70007695679521503109D1F6CFCF909598237A
:100F8000E3CF9C01E0913310F09134108081909177
:100F90003C10909598239083E0913710F091381091
:100FA000808190913B1090959823908380912D1093
:100FB00040E150E060E070E887FF12C01EBC0DB455
:100FC00007FEFDCF2EBD0DB407FEFDCFE09137101B
:100FD000F0913810808190913B10892B8083089587
:100FE000E0912F10F091301090913910D901A62383
:100FF000B7238081AB2BD9F0982B9083E0913110EF
:10100000F0913210808190913A10892B8083E09189
:101010003110F0913210808190913A109095982380
:1010200090837695679541505109D1F6CFCF909531
:101030009823E3CFCF93DF93EB010E94C107CE014A
:10104000DF91CF910C9469076FEA70E086E390E03E
:101050000E941A0870E060E087E390E00E941A089E
:101060006BED70E088E390E00E941A0870E060E0A9
:1010700089E390E00C941A088091791090917A108D
:10108000A0917B10B0917C100197A109B1098093C8
:10109000791090937A10A0937B10B0937C10892BD9
:1010A0008A2B8B2B49F4E0913710F0913810808116
:1010B00090913B10892B80830895809179109091B5
:1010C0007A10A0917B10B0917C10AC01BD014F5FF4
:1010D0005F4F6F4F7F4F4093791050937A1060931A
:1010E0007B1070937C10892B8A2B8B2B91F4809131
:1010F0002D1087FF04C080E58CBD81E08DBDE0919F
:101100003710F0913810908180913B1080958923A1
:1011100080830895DC01FB0180913D108230B9F09D
:10112000833069F1813051F580912510909126101E
:10113000019720813181821B930B918380832D91B4
:101140003C9111978D939C933183208308958091D6
:1011500023109091241001972D913C911197821B9F
:10116000930B8D939C93809125109091261001975D
:1011700020813181821B930B91838083089580911C
:1011800023109091241001972D913C911197821B6F
:10119000930B11969C938E93208131812D933C93D8
:1011A000EBCF0F931F93CF93DF9300D000D01F920C
:1011B0001F92CDB7DEB77C836B835E834D83388708
:1011C0002F832091231030912410215031092817AA
:1011D000390708F4C9019A8389838D819E81281774
:1011E000390708F4C9019E838D8380912510909161
:1011F000261001972B813C818217930708F49C01EC
:101200003C832B832F8138858217930708F49C0138
:1012100038872F83BE016D5F7F4FCE0101960E94FC
:101220008A08BE01695F7F4FCE0105960E948A0839
:101230002D813E8189819A812817390720F43A83CC
:1012400029839E838D832F8138858B819C812817EC
:10125000390720F43C832B8398878F830E945D0895
:10126000E0913D1007E010E0EE2359F0E150FF0B54
:1012700024E0EE0FFF1F2A95E1F7ED5DFF4E02A57A
:1012800013A5B80183E0660F771F8A95E1F77061B7
:1012900083E090E00E941A086D817E8186E390E0F1
:1012A0000E941A0869817A8187E390E00E941A08F7
:1012B0006F81788588E390E00E941A086B817C81B9
:1012C00089E390E00E941A081595079501301105F1
:1012D00029F1ACF46D817E81012B11F182E290E065
:1012E0000E94C1070E943C0828960FB6F894DEBF02
:1012F0000FBECDBFDF91CF911F910F9108950230A6
:101300001105C9F069817A810330110539F780E24E
:1013100090E00E941A086B817C8108C069817A8103
:1013200080E290E00E941A086F81788581E290E067
:101330000E941A08D3CF6D817E81E9CFAF92BF9210
:10134000CF92DF92EF92FF920F931F93CF93DF9391
:101350006C015B01EA0179010E94D1080E945D08DD
:101360008FEFE81AF80AEA18FB082196CC19DD0974
:10137000EC9E6001ED9ED00CFC9ED00C1124C1149B
:10138000D10439F0C8010E94690781E0C81AD10868
:10139000F6CF0E943C08DF91CF911F910F91FF90F3
:1013A000EF90DF90CF90BF90AF900C9424080F93F4
:1013B0001F93CF93DF9300D01F92CDB7DEB79A83F0
:1013C00089837C836B8320912310309124108217B2
:1013D000930720F52091251030912610621773078E
:1013E000E8F48A01BE016D5F7F4FCE0101960E9435
:1013F0008A080E945D0869817A8180E290E00E94FB
:101400001A086B817C8181E290E00E941A08B80181
:1014100082E290E00E941A080E943C080F900F9010
:101420000F900F90DF91CF911F910F9108952F9200
:101430003F924F925F926F927F928F929F92AF9264
:10144000BF92CF92DF92EF92FF920F931F93CF93B1
:10145000DF93EC018B014A017901E61AF70AF7FEE6
:1014600003C0F194E194F1086401CC1ADD0AD7FEBF
:1014700003C0D194C194D108CE14DF0454F4982D44
:10148000892D4901292F382F9C2F8D2FE801092FF5
:10149000182F8C169D0650F4902F812F8901292F2B
:1014A000382F9C2F8D2FE401892E982E14012C1A91
:1014B0003D0A2901401A510A57FE03C05194419434
:1014C0005108310137FE03C08FEF681A780A75940E
:1014D0006794AA24AA94BA2C0217130718F4AA2412
:1014E000A394B12C0E945D088C169D06A8F04FEFC6
:1014F0005FEFBE01C801CE14DF0414F0B801CE01C5
:101500000E94D7096418750877FE04C00A0D1B1DD8
:10151000620C731C2196E8CFDF91CF911F910F9140
:10152000FF90EF90DF90CF90BF90AF909F908F9003
:101530007F906F905F904F903F902F900C943C085D
:10154000CF92DF92EF92FF920F931F93CF93DF938F
:101550006C018B01EA0179010E945D089701A601E7
:10156000B801C6010E94170A9801AE01B801C60170
:101570000E94170A9701AE01B701C6010E94170A1F
:101580009701AE01B801CE010E94170ADF91CF91F9
:101590001F910F91FF90EF90DF90CF900C943C083B
:1015A000FC01A089B18982E08C93A485B5851C9249
:1015B000A685B78580E18C93108EA489B58986E0D5
:1015C0008C93A289B3898C9180618C93A289B38911
:1015D0008C9188608C93A289B3898C9180688C935C
:1015E0000288F389E02D80818F7D808308952F927A
:1015F0003F924F925F926F927F928F929F92AF92A3
:10160000BF92CF92DF92EF92FF920F931F93CF93EF
:10161000DF9300D000D000D01F921F92CDB7DEB76D
:101620004B015C834B83422E3D838C01712C272D13
:1016300030E0EB81FC81848195812817390708F01F
:10164000D2C080819181009709F4A3C0820F931FBB
:10165000FC018081F0917310FA8720917710F29F3E
:10166000900111242F5F3F4F082E000C990B4091E1
:101670007510841B9109289F7001299FF00C389FD9
:10168000F00C11248091781081110BC0E091711041
:10169000F091721097012C5F3F4FE20FF31F3491CE
:1016A0003A8785E0E80EF11C0E945D089A85292E94
:1016B000312CA8014F5F5F4F420D531D80912310C5
:1016C000909124104817590708F065C020917410B4
:1016D0002150330B280D391D809125109091261033
:1016E0002817390708F057C0B401C8010E94D10873
:1016F000662463941B866701512CEB85E00FF12F64
:10170000F11DF987E8878C2D8E1990917710891734
:1017100008F059C0FA852B85E0E0F21739F0E09126
:101720007110F0917210EC0DFD1DE4913FEFC31AA2
:10173000D30AF8E08F9FC00111249C01280D391DA8
:101740003A832983B12CA12C8E2F90E09F838E8326
:10175000809174105816B8F68E819F810A2C02C0B1
:10176000959587950A94E2F7817099276620D1F0C4
:10177000892BA9F480912710909128100E94690765
:1017800053949FEFA91AB90AE8E0AE16B10401F725
:10179000BACF80E05FCF612CADCF7601ACCF842D86
:1017A0009D81ECCF4091271050912810892B11F08A
:1017B000442D5D8169817A816A0D7B1D88859985BB
:1017C0000E94D709DDCFFB85FF5FFB872A852F1796
:1017D00020F70E943C080E942408C1010196080FCE
:1017E000191F739424CFC8012B960FB6F894DEBF4F
:1017F0000FBECDBFDF91CF911F910F91FF90EF9062
:10180000DF90CF90BF90AF909F908F907F906F9020
:101810005F904F903F902F9008958150823108F053
:101820005AC0E82FF0E08827E75EF34F8F4F0C9403
:101830007C39390C3D0C2B0C310C350C6B0C400CED
:10184000460C4A0C500C540C580C5E0C620C6B0C81
:10185000660C6C0C700C809180008F7780938000F8
:101860000895809180008F7DF9CF80918000877FDF
:10187000F5CF84B58F7784BD089584B58F7DFBCF78
:101880008091B0008F778093B00008958091B00070
:101890008F7DF9CF809190008F778093900008958D
:1018A000809190008F7DF9CF80919000877FF5CF58
:1018B0008091A0008F778093A00008958091A00070
:1018C0008F7DF9CF8091A000877FF5CF8091200197
:1018D0008F77809320010895809120018F7DF9CF2B
:1018E00080912001877FF5CFCF93DF93282F30E0C1
:1018F000F901EE5DF14F8491F901E452F24FD49178
:10190000F901EA56F24FC491CC23A1F081110E9453
:101910000D0CEC2FF0E0EE0FFF1FE458F24FA591F5
:10192000B491EC91ED2381E090E009F480E0DF9147
:10193000CF91089580E090E0FACF1F93CF93DF938B
:10194000282F30E0F901EE5DF14F8491F901E45266
:10195000F24FD491F901EA56F24FC491CC23A9F089
:10196000162F81110E940D0CEC2FF0E0EE0FFF1FDF
:10197000EE59F24FA591B4918FB7F894EC911111F3
:1019800008C0D095DE23DC938FBFDF91CF911F91EC
:101990000895DE2BF8CFCF93DF9390E0FC01E45263
:1019A000F24F24918A56924FFC0184918823C9F00A
:1019B00090E0880F991FFC01E85BF24FA591B4916C
:1019C000FC01EE59F24FC591D49161110DC09FB742
:1019D000F8948C91209582238C93888128232883E6
:1019E0009FBFDF91CF910895623051F49FB7F89473
:1019F0003C91822F809583238C93E8812E2BEFCF0F
:101A00008FB7F894EC912E2B2C938FBFEACF1F93B6
:101A1000CF93DF93182FEB0161E00E94CB0C20974E
:101A200039F460E0812FDF91CF911F910C949D0CD0
:101A3000CF3FD10511F461E0F5CFE12FF0E0EE5D8D
:101A4000F14FE491E150E23108F0B3C0F0E08827B3
:101A5000E35DF24F8F4F0C947C393F0D470D4C0DD9
:101A6000560D600DD90D6A0D720D7A0D840D8E0D17
:101A7000980DA70DB10DD90DBB0DC50DCF0D84B5BA
:101A8000806884BDC7BDDF91CF911F91089584B553
:101A9000806284BDC8BDF7CF80918000806880934C
:101AA0008000D0938900C0938800EDCF80918000A2
:101AB000806280938000D0938B00C0938A00E3CF34
:101AC00080918000886080938000D0938D00C093C7
:101AD0008C00D9CF8091B00080688093B000C09313
:101AE000B300D1CF8091B00080628093B000C093EA
:101AF000B400C9CF80919000806880939000D0930B
:101B00009900C0939800BFCF80919000806280932D
:101B10009000D0939B00C0939A00B5CF8091900025
:101B2000886080939000D0939D00C0939C00ABCFC1
:101B30008091A00080688093A0008091A0008F7B9E
:101B40008093A000D093A900C093A8009CCF80915F
:101B5000A00080628093A000D093AB00C093AA0045
:101B600092CF8091A00088608093A000D093AD00B8
:101B7000C093AC0088CF80912001806880932001C1
:101B8000D0932901C09328017ECF809120018062EB
:101B900080932001D0932B01C0932A0174CF8091B0
:101BA0002001886080932001D0932D01C0932C01E7
:101BB0006ACFC038D1050CF03ECF33CF90917B0077
:101BC000977F90937B008653806480937C00809104
:101BD0007A00806480937A0080917A0086FDFCCF41
:101BE000809178009091790008953FB7F8948091A2
:101BF000040C9091050CA091060CB091070C26B531
:101C0000A89B05C02F3F19F00196A11DB11D3FBF34
:101C1000BA2FA92F982F8827BC01CD01620F711D03
:101C2000811D911D42E0660F771F881F991F4A95FD
:101C3000D1F708958F929F92AF92BF92CF92DF9289
:101C4000EF92FF924B015C010E94F50D6B017C014C
:101C50000E94F50D6C197D098E099F09683E73403D
:101C600081059105A8F321E0821A9108A108B10825
:101C700088EEC80E83E0D81EE11CF11C811491048B
:101C8000A104B10429F7FF90EF90DF90CF90BF90AF
:101C9000AF909F908F900895CF92DF92EF92FF9236
:101CA0000F931F93CF93C0913D1010923D1080EB86
:101CB000C82ED12CD0922410C09223109CEDE92E76
:101CC000F12CF0922610E092251010E000E02BEDB0
:101CD00030E04FEA50E070E060E090E080E00E9489
:101CE0009E09C370C0933D10C130B9F0C330A9F054
:101CF000D0922410C0922310F0922610E09225106A
:101D00006AE070E080E090E0CF911F910F91FF902A
:101D1000EF90DF90CF900C941A0E8CED90E09093A2
:101D200024108093231080EB90E0909326108093F2
:101D30002510E6CF2FB7F8946091000C7091010C3C
:101D40008091020C9091030C2FBF0895AF92BF9227
:101D5000CF92DF92EF92FF920F931F93CF93DF9377
:101D60006C017B018B01040F151FEB015E01AE18A6
:101D7000BF08C017D10759F06991D601ED91FC91C8
:101D80000190F081E02DC6011995892B79F7C501E5
:101D9000DF91CF911F910F91FF90EF90DF90CF9047
:101DA000BF90AF900895FC01538D448D252F30E0F6
:101DB000842F90E0821B930B541710F0CF96089558
:101DC00001970895FC01918D828D981761F0A28D85
:101DD000AE0FBF2FB11D5D968C91928D9F5F9F734B
:101DE000928F90E008958FEF9FEF0895FC01918D01
:101DF000828D981731F0828DE80FF11D858D90E06E
:101E000008958FEF9FEF0895FC01918D228D892F0A
:101E100090E0805C9F4F821B91098F7399270895F2
:101E200080E19CE00E94040F21E0892B09F420E06E
:101E3000822F08958DEA9CE00E94040F21E0892BF7
:101E400009F420E0822F0895FC01A48DA80FB92F7A
:101E5000B11DA35ABF4F2C91848D90E001968F73D2
:101E60009927848FA689B7892C93A089B1898C91F1
:101E7000837080648C93938D848D981306C0028840
:101E8000F389E02D80818F7D80830895EF92FF920A
:101E90000F931F93CF93DF93EC0181E0888F9B8D8D
:101EA0008C8D98131AC0E889F989808185FF15C047
:101EB0009FB7F894EE89FF896083E889F98980816A
:101EC0008370806480839FBF81E090E0DF91CF9139
:101ED0001F910F91FF90EF900895F62E0B8D10E05B
:101EE0000F5F1F4F0F731127E02E8C8D8E110CC0CA
:101EF0000FB607FCFACFE889F989808185FFF5CF15
:101F0000CE010E94240FF1CFEB8DEC0FFD2FF11DC0
:101F1000E35AFF4FF0829FB7F8940B8FEA89FB8951
:101F200080818062CFCFCF93DF93EC01888D8823AF
:101F3000B9F0AA89BB89E889F9898C9185FD03C02C
:101F4000808186FD0DC00FB607FCF7CF8C9185FF11
:101F5000F2CF808185FFEDCFCE010E94240FE9CF23
:101F6000DF91CF91089580E090E0892B29F00E94C5
:101F70001A0F81110E94000080E090E0892B49F047
:101F800080E090E0892B29F00E94000081110E94DE
:101F9000000080E090E0892B49F080E090E0892B00
:101FA00029F00E94000081110E94000080E090E072
:101FB000892B29F00E94100F81110C9400000895C4
:101FC00081E020913F0230914002232B09F080E014
:101FD00008959093E30B8093E20B0E949A0E609316
:101FE000DE0B7093DF0B8093E00B9093E10B089571
:101FF0001092E30B1092E20B1092DE0B1092DF0BAB
:102000001092E00B1092E10B08950F931F93CF9362
:10201000DF938C01CEE8DEE0CE018E589E40801723
:10202000910734F4699180E19CE00E94460FF4CF5F
:10203000DF91CF911F910F9108950F931F930E94ED
:102040009A0E0091390210913A0220913B02309190
:102050003C02601B710B820B930B21E0693B7B40C0
:102060008105910508F420E0822F1F910F910895BA
:102070004F3651056105710571F04230510561051A
:10208000710548F04F7D81E04D34510561057105C2
:1020900019F080E0089581E00895FB01908189277F
:1020A00090E1899F90011124822790E0382F222708
:1020B000AC0163E0440F551F6A95E1F724273527EB
:1020C000418150E02427352774E0959587957A95CE
:1020D000E1F7822793279183808308950F931F93BD
:1020E000CF93DF931F921F92CDB7DEB78C01862F5F
:1020F000F801208131813A832983BE016F5F7F4FD0
:102100000E944D1089819A81F801918380830F90FC
:102110000F90DF91CF911F910F9108952F923F92D1
:102120004F925F926F927F928F929F92AF92BF92E7
:10213000CF92DF92EF92FF920F931F93CF93DF9393
:10214000CDB7DEB7A4970FB6F894DEBF0FBECDBFF4
:10215000FC019C01205C3F4F8C01D8016D917D9169
:102160008D919D91AD010E948439D8016D937D932D
:102170008D939C9313978A014217530771F7DA01E5
:102180008D909D90AD90BC908D829E82AF82B886DE
:10219000DF01AC5BBF4F8D909D90AD90BC901397CD
:1021A0008D869E86AF86B88A14960D911D912D91CD
:1021B0003C911397098B1A8B2B8B3C8B14962D918A
:1021C0003D914D915C9113972F8F38A349A35AA34A
:1021D00014968D909D90AD90BC90139789829A82B1
:1021E000AB82BC8214960D911D912D913C91139759
:1021F0000D8B1E8B2F8B388F14962D913D914D9109
:102200005C911397298F3A8F4B8F5C8F14968D902A
:102210009D90AD90BC9089869A86AB86BC8601E87D
:1022200012E01E8F0D8F312C212CD10110E12116CF
:1022300031040CF021C2AA0FBB1FAA0FBB1FAE0FA7
:10224000BF1FCD90DD90ED90FC90AD8DBE8D0D91BA
:102250001D912D913D91BE8FAD8F49815A816B812A
:102260007C818AE1440F551F661F771F8A95D1F73D
:1022700089809A80AB80BC8096E0B694A7949794AE
:1022800087949A95D1F7482959296A297B29498049
:102290005A806B807C80A5E1440C551C661C771C21
:1022A000AA95D1F789819A81AB81BC81072E7BE009
:1022B000B695A795979587957A95D1F7702D84292E
:1022C0009529A629B729482759276A277B274980B6
:1022D0005A806B807C8089E1769467945794479408
:1022E0008A95D1F789819A81AB81BC81689416F86F
:1022F000880F991FAA1FBB1F1694D1F7842995290F
:10230000A629B7292A013B01482659266A267B2699
:1023100049815A816B817C8140955095609570957B
:10232000898C9A8CAB8CBC8C482159216A217B21E9
:1023300089819A81AB81BC818D889E88AF88B88C59
:1023400088219921AA21BB2184279527A627B72771
:10235000B301A201480F591F6A1F7B1F400F511F75
:10236000621F731FC40ED51EE61EF71E09851A854F
:102370002B853C850C0D1D1D2E1D3F1D8D809E80C7
:10238000AF80B8848EE1880C991CAA1CBB1C8A956E
:10239000D1F74D805E806F80788492E07694679468
:1023A000579447949A95D1F784289528A628B7285A
:1023B0004D815E816F817885A3E1440F551F661FB3
:1023C000771FAA95D1F78D819E81AF81B885072EA1
:1023D0007DE0B695A795979587957A95D1F7702D5D
:1023E000842B952BA62BB72B88269926AA26BB26AD
:1023F0004D815E816F81788586E1769567955795E9
:1024000047958A95D1F78D819E81AF81B885072E3A
:102410007AE0880F991FAA1FBB1F7A95D1F7702DFC
:10242000842B952BA62BB72BB501A4014827592740
:102430006A277B278D849E84AF84B88889899A898E
:10244000AB89BC8988269926AA26BB268D819E81C8
:10245000AF81B88588229922AA22BB22CD84DE844E
:10246000EF84F88889899A89AB89BC89C822D922E6
:10247000EA22FB22C824D924EA24FB24C40ED51E58
:10248000E61EF71E4F8C58A069A07AA0400E511E80
:10249000621E731EC00ED11EE21EF31E9FEF291A8C
:1024A000390A89889A88AB88BC888F8E98A2A9A29D
:1024B000BAA2098D1A8D2B8D3C8D09871A872B871F
:1024C0003C8710E42116310409F0ADC0DF01A05CA7
:1024D000BF4F0D911D912D913C911397C00ED11EB0
:1024E000E21EF31ECD92DD92ED92FC9213971496AC
:1024F0004D915D916D917C9113978D809E80AF8001
:10250000B884480D591D6A1D7B1D4D935D936D93D5
:102510007C93139714964D915D916D917C911397D7
:102520000D851E852F853889400F511F621F731F2F
:102530004D935D936D937C93139714964D915D919C
:102540006D917C91139789889A88AB88BC88480DD7
:10255000591D6A1D7B1D4D935D936D937C9313975D
:1025600014964D915D916D917C911397440E551E7B
:10257000661E771E4D925D926D927C921397149613
:102580004D915D916D917C91139709811A812B81F9
:102590003C81400F511F621F731F4D935D936D93DC
:1025A0007C931397BF01685A7F4FDB01CD90DD907C
:1025B000ED90FC9013978D889E88AF88B88CC80CDE
:1025C000D91CEA1CFB1CCD92DD92ED92FC92139774
:1025D000E45AFF4F80819181A281B381898C9A8CCA
:1025E000AB8CBC8C880D991DAA1DBB1D808391836B
:1025F000A283B383A4960FB6F894DEBF0FBECDBFFF
:10260000DF91CF911F910F91FF90EF90DF90CF90CE
:10261000BF90AF909F908F907F906F905F904F9002
:102620003F902F9008952D893E894F89588D298F8D
:102630003A8F4B8F5C8F89819A81AB81BC818D8B66
:102640009E8BAF8BB88F49825A826B827C828D843D
:102650009E84AF84B888898A9A8AAB8ABC8A0D81A5
:102660001E812F8138850D871E872F87388BCD825D
:10267000DE82EF82F886D9CD1297AF70BB27AA0F02
:10268000BB1FAA0FBB1FAE0FBF1F0D911D912D9138
:102690003C91D1011F97AF70BB27AA0FBB1FAA0F98
:1026A000BB1FAE0FBF1F4D915D916D917C91C1011C
:1026B0008F709927880F991F880F991FDF01A80F26
:1026C000B91FBCA3ABA3D1011797AF70BB27AA0F4B
:1026D000BB1FAA0FBB1FAE0FBF1FCD90DD90ED90AB
:1026E000FC90ABA1BCA18D909D90AD90BC90C80C0E
:1026F000D91CEA1CFB1C480159019FE0880C991C5D
:10270000AA1CBB1C9A95D1F7D901C801072E71E10B
:10271000B695A795979587957A95D1F7702D882AC4
:10272000992AAA2ABB2AD901C801072E7DE0880F61
:10273000991FAA1FBB1F7A95D1F7702D2801390167
:10274000032E33E176946794579447943A95D1F7E2
:10275000302D84299529A629B72988259925AA25C8
:10276000BB250F2EFAE03695279517950795FA9514
:10277000D1F7F02D80279127A227B327C80ED91EA5
:10278000EA1EFB1E8A019B0187E036952795179567
:1027900007958A95D1F7DB01CA01072E79E1880FE9
:1027A000991FAA1FBB1F7A95D1F7702D082B192BE3
:1027B0002A2B3B2BDB01CA01072E7EE0880F991FD5
:1027C000AA1FBB1F7A95D1F7702D2A013B01032E5A
:1027D00032E176946794579447943A95D1F7302D27
:1027E00084299529A629B72980279127A227B327CD
:1027F00023E076956795579547952A95D1F78427D5
:102800009527A627B727C80ED91EEA1EFB1EABA127
:10281000BCA1CD92DD92ED92FC92139716CD0F9351
:102820001F9310E000E028EC30E040EB50E066E958
:1028300070E090E080E00E949E091F910F91089542
:102840000F931F9310E000E02DED30E040EB50E0DF
:1028500068EC70E090E080E00E949E091F910F916B
:1028600008959F92AF92BF92CF92DF92EF92FF9224
:102870000F931F93CF93DF93942E690190E07C0117
:102880002CE1E20EF11CC62FD0E05E01E9E0AE0EB5
:10289000B11C10E000E09501A701BE010E949E0955
:1028A0009920C9F0892D853608F084E6FCE18F9FD8
:1028B000C001112464E670E00E944939CB01009701
:1028C00051F086019501A701BE01F701E81BF90B44
:1028D000CF010E949E09DF91CF911F910F91FF9030
:1028E000EF90DF90CF90BF90AF909F900895E4EA73
:1028F000F4E0F0937210E0937110E491E0937310A0
:10290000E5EAF4E0849180937410E6EAF4E0E4915F
:10291000E0937510E7EAF4E0E491E0937610982FE5
:10292000969596959695909377101092781087705B
:1029300019F09F5F909377100895E0E0F2E0F09334
:102940007210E0937110E491E0937310E1E0F2E013
:10295000849180937410E2E0F2E0E491E0937510CA
:10296000E3E0F2E0E491E0937610982F9695969547
:1029700096959093771010927810877019F09F5F5A
:102980009093771008952F923F924F925F926F929B
:102990007F928F929F92AF92BF92CF92DF92EF92EF
:1029A000FF920F931F93CF93DF93CDB7DEB7689756
:1029B0000FB6F894DEBF0FBECDBF082F688BF42E84
:1029C000152F0E949D1488E0E1E7F0E1DE011196E9
:1029D00001900D928A95E1F729803A802B812B870F
:1029E0003C813C878D815F8048854F87529E900156
:1029F0001124F9013196FE87ED87F9861A87282F71
:102A000030E03C8B2B8B452D50E05E8B4D8BC10114
:102A10000596988F8F8BE985FA858191FA87E987EA
:102A2000882309F463C090E02B893C89821B930BB7
:102A30004D855E85849F7001859FF00C949FF00CFE
:102A400011245F851B85511105C0F7013496E20DF5
:102A5000F31D14918F89988DE80EF91EA02EB12CCC
:102A60008A2D801B811708F03EC09889692E712C31
:102A7000912C812C412C851470F5F401EE0DFF1D75
:102A8000E491D12CC12C2E2F30E03A8B298B3C8540
:102A90004316D0F489899A890C2C02C095958795A4
:102AA0000A94E2F780FF08C040E154E8B601660DE1
:102AB000771DC5010E94D70943944FEFC41AD40A69
:102AC00058E0C516D10419F78FEF881A980A98E0D4
:102AD000690E711CD0CFED89FE89EE0EFF1EFFEF4F
:102AE000AF1ABF0ABDCF1F5F010F95CF68960FB613
:102AF000F894DEBF0FBECDBFDF91CF911F910F9134
:102B0000FF90EF90DF90CF90BF90AF909F908F900D
:102B10007F906F905F904F903F902F900895CF924D
:102B2000DF92EF92FF92CF93DF93CAE0D0E0C12C07
:102B3000D12C76018CE30E94DE0D092E000CAA0B2D
:102B4000BB0BC80ED91EEA1EFB1E219799F7C701C1
:102B5000B6012AE030E040E050E00E945D39C90152
:102B600018161906BCF42F3F63E03607ACF4D90100
:102B700024E630E00E948B392FEF33E040E050E054
:102B80000E945D39822FDF91CF91FF90EF90DF900F
:102B9000CF90089580E0F7CF84E6F5CF0E948F159F
:102BA000853058F020EE37E0893250F420E038EFDD
:102BB000853130F020EE3FEF03C030E020E080E0D0
:102BC000482F6091500B8091510B0E9431146091FD
:102BD000500B6F5F8091510B4DE054E08A5F0C9475
:102BE000C314CF93DF93EC0189810E94740C892B6D
:102BF00049F088810E94740C892B31F081E0DF91CB
:102C0000CF91089580E0FBCF82E0F9CFCF92DF92A1
:102C1000EF92FF92CF93DF93EC016A017B018881F1
:102C20000E94740C9C0181E090E02115310511F0A7
:102C300090E080E09A8389838D819E81AF81B88501
:102C4000232BC9F4181619061A061B062CF0EB8163
:102C5000FC81309709F0199588E290E0A0E0B0E09F
:102C60008D839E83AF83B887DF91CF91FF90EF90E4
:102C7000DF90CF9008958C199D09AE09BF09B7FF69
:102C800003C080E090E0DC018D839E83AF83B88732
:102C90001A821982E9CF2091DC0B3091DD0BC9013A
:102CA00001962330310550F081E090E09093EF0BD6
:102CB0008093EE0B81E08093F00B089563E070E069
:102CC0000E9449390196F2CF0F931F930E949A0EEA
:102CD000009138061091390620913A0630913B0652
:102CE000601B710B820B930B6D3D75408105910547
:102CF00068F081E08093FE0B0E949A0E6093380684
:102D00007093390680933A0690933B061F910F917A
:102D1000089581E08093EB0B089581E08093F10B9F
:102D20001092F30B1092F20B089581E08093F30B55
:102D30001092F20B1092F10B089581E08093F20B48
:102D40001092F30B1092F10B089508951092FD0B61
:102D500081E08093F80B089581E08093FD0B109241
:102D6000F80B0895CF92DF92EF92FF92809149067F
:102D7000811109C08AE292E00E94F11580932C0231
:102D800081E08093490680914806811109C081E263
:102D900092E00E94F1158093230281E0809348061F
:102DA0008091400681110DC00E949A0E60933C06EE
:102DB00070933D0680933E0690933F0681E080939A
:102DC00040060E949A0EC0903C06D0903D06E090CE
:102DD0003E06F0903F069B01AC012C193D094E09BF
:102DE0005F0969017A018091190290911A02A091FC
:102DF0001B02B0911C028C199D09AE09BF09B7FFD7
:102E000003C080E090E0DC018093190290931A02E5
:102E1000A0931B02B0931C02809112020E94740CBA
:102E20002091130230911402892B09F08EC08091F9
:102E3000190290911A02A0911B02B0911C0218165F
:102E400019061A061B060CF041C02115310509F0C0
:102E50004FC0B701A60189E092E00E940616B701B3
:102E6000A60180E092E00E94061681E292E00E94B4
:102E7000F11590912302891741F080932302882352
:102E800009F484C0823009F484C08AE292E00E948E
:102E9000F11590912C02891751F080932C0281300A
:102EA00009F47DC008F478C0823009F47BC00E9428
:102EB0009A0E60933C0670933D0680933E06909375
:102EC0003F06FF90EF90DF90CF90089521153105D8
:102ED00079F481E090E090931402809313021092B1
:102EE0001D0210921E0210921F0210922002B1CFFA
:102EF0002130310509F0ADCF80911D0290911E0265
:102F0000A0911F02B09120028C0D9D1DAE1DBF1D12
:102F100080931D0290931E02A0931F02B093200283
:102F2000843F9140A105B10508F493CF83E090E080
:102F30009093140280931302E0911702F09118020B
:102F4000309709F486CF199584CF2130310539F4B3
:102F5000E0911502F0911602309709F019958091D1
:102F6000130290911402892B61F088E290E0A0E0B6
:102F7000B0E08093190290931A02A0931B02B093C1
:102F80001C021092140210921302A9CF0E94A616DE
:102F90007CCF0E94AC1679CF0E94951688CF0E94F4
:102FA0009D1685CF0E948D1682CF8F929F92AF92F1
:102FB000BF92EF92FF920F931F93CF93DF938C01F9
:102FC0004A015B017901FC011995C0910A0CD0916D
:102FD0000B0C82E190E02097D1F50E94773AFC013A
:102FE0001082118212821382148215821682178235
:102FF000138612861586148617861686118A108AFD
:1030000090930B0C80930A0C9093090C8093080CFE
:1030100011861086E0910A0CF0910B0C158704873D
:10302000108211821282138284829582A682B782D4
:10303000F386E28617861686DF91CF911F910F9156
:10304000FF90EF90BF90AF909F908F9008950E9457
:10305000773AFC0110821182128213821482158247
:103060001682178213861286158614861786168690
:10307000118A108A998B888B88859985019691870A
:103080008087F0930B0CE0930A0CC4CFEF92FF9271
:103090000F931F93CF93DF930097A1F1EC01E09082
:1030A0000E0CF0900F0C0885198584E090E0E11477
:1030B000F104D1F40E94773AFC01138212829093BA
:1030C0000F0C80930E0C90930D0C80930C0C1183BD
:1030D0000083EE85FF853097A9F0DF91CF911F9196
:1030E0000F91FF90EF9019940E94773AFC011382A0
:1030F0001282F7019383828390930F0C80930E0CBE
:10310000FC01E5CFDF91CF911F910F91FF90EF90E0
:1031100008958091080C9091090C009751F0FC01E2
:10312000208931893093090C2093080C0E94133BAD
:10313000F0CF80910C0C90910D0C009751F0FC0198
:103140002281338130930D0C20930C0C0E94133B91
:10315000F0CF1092090C1092080C10920B0C1092E8
:103160000A0C10920F0C10920E0C0895CF92DF9261
:10317000EF92FF920F931F93CF93DF93C0910C0CAC
:10318000D0910D0C209709F445C0E091080CF09106
:10319000090C28813981808591852817390759F4D0
:1031A000808991899093090C8093080C0E94133BAD
:1031B0000A80DB81C02D0091080C1091090CD80108
:1031C0005096ED91FC912097E9F03097D9F0E08886
:1031D000F18828813981808591852817390779F40C
:1031E000D8015096EC9250975196FC92E088F18865
:1031F000C7010E94133B0A80DB81C02DF8018F01BB
:10320000F701E1CF10920D0C10920C0C10920F0CE4
:1032100010920E0CC091080CD091090C209751F11E
:10322000CC80DD80EE80FF800E949A0E088119819B
:103230002A813B81601B710B820B930B6C157D0502
:103240008E059F0598F00E949A0E688379838A8381
:103250009B83EA85FB85309731F01995882319F017
:10326000CE010E944618EC85FD8519950888D989FC
:10327000C02DD4CFDF91CF911F910F91FF90EF9090
:10328000DF90CF900895CF93DF93EC0188819981EF
:10329000009711F00E94133B198218821D821C8234
:1032A0001B821A82DF91CF910895FC018081918168
:1032B000009711F00C94133B0895CF92DF92EF9298
:1032C000FF920F931F93CF93DF93EC018B01FC01CF
:1032D000E05AFF4FC080D180E280F38096012F73C7
:1032E000332783E0CC0CDD1CEE1CFF1C8A95D1F744
:1032F000C90101962C0F3D1F40E8F9014083893335
:10330000910578F040E450E0481B590B70E060E014
:103310008C0F9D1F0E94933CCE010E948E1090E066
:1033200080E04CE350E0481B590B70E060E08C0FEC
:103330009D1F0E94933CFCAEEDAEDEAECFAECE0143
:103340000E948E10FE01E05CFF4F2081318142819E
:103350005381CC5BDF4F8A819B81F801508341838D
:103360003283238394838583DF91CF911F910F91C3
:10337000FF90EF90DF90CF900895CF93DF93EC0113
:10338000A881B981EB01E881F9811097F1F03097BC
:10339000B1F4EC018C819D81892BC9F08C9190E076
:1033A0000BC0DB0114968D919C91892B81F080815B
:1033B00090E0919581959109DF91CF910895BF019A
:1033C000CD01DF91CF910C949A3C309751F790E06A
:1033D00080E0F2CF0F931F93CF93DF93EC018881AE
:1033E0009981009759F02A813B812617370730F0E1
:1033F00081E0DF91CF911F910F9108958B016F5F55
:103400007F4F0E949C3B009759F0998388831B83D0
:103410000A832C813D81232B59F7FC011082E8CFD0
:1034200080E0E7CFEF92FF920F931F93CF93DF934C
:10343000EC01FB01E080F180E114F10411F1048161
:10344000158101151105A9F08C819D81080F191FA7
:10345000B801CE010E94EA19882399F028813981A8
:103460008C819D81B701820F931F0E94A33C1D8315
:103470000C83CE01DF91CF911F910F91FF90EF90C0
:103480000895CE010E944319F4CFEF92FF920F935B
:103490001F93CF93DF93EC017B018A01BA010E9455
:1034A000EA1981110BC0CE010E944319CE01DF91B0
:1034B000CF911F910F91FF90EF9008951D830C8382
:1034C000B701888199810E94A33CF0CFFB01019054
:1034D0000020E9F73197AF01461B570B0C94451AB2
:1034E0000F931F93CF93DF93CDB7DEB762970FB6DD
:1034F000F894DEBF0FBECDBF8C01CB01F801118265
:10350000108213821282158214824AE0BE016F5F1C
:103510007F4F0E94C736BE016F5F7F4FC8010E9478
:10352000661A62960FB6F894DEBF0FBECDBFDF916C
:10353000CF911F910F910895CF93DF93EC01FB0181
:103540008617970749F0608171816115710541F017
:10355000448155810E94451ACE01DF91CF91089593
:103560000E944319F9CFFC0111821082138212824A
:10357000158214820C949C1AFC0111821082138211
:10358000128215821482FB0101900020E9F7319725
:10359000AF01461B570B0C94451AAF92BF92CF92C6
:1035A000DF92EF92FF920F931F93CF93DF936C0103
:1035B0005B017A0189012417350720F48F2D7901E9
:1035C000042F182F68EC74E0C6010E94BC1AD501C4
:1035D0001496CD91DC91EC16FD06E0F40C171D0756
:1035E00008F4E801D501ED91FC911197EC0FFD1F56
:1035F000108110826D917C916E0D7F1DC601611549
:103600007105A1F00E94661AF50180819181C80FB1
:10361000D91F1883C601DF91CF911F910F91FF90A1
:10362000EF90DF90CF90BF90AF9008950E94431924
:10363000EBCF0F931F93CF93DF9300D000D0CDB784
:10364000DEB78C010E949D1460E174E00115110544
:1036500039F06CE174E00130110511F068E274E0BA
:10366000CE0101960E94BC1A25EE3FEAAE014F5FE3
:103670005F4F65E070E085E090E00E94F70ACE01C0
:1036800001960E9455190E94771426960FB6F89459
:10369000DEBF0FBECDBFDF91CF911F910F91089577
:1036A0000F931F93CF93DF93CDB7DEB72C970FB651
:1036B000F894DEBF0FBECDBF8C0168EC74E0CE0184
:1036C00007960E94BC1A0130110589F102301105DC
:1036D000B9F16DEC74E0CE0107960E94661A109263
:1036E0003C0B00E018EFBE01695F7F4FCE010196F1
:1036F0000E94B31A9801AE014F5F5F4F6CE270E019
:1037000085E090E00E94F70ACE0101960E945519CB
:10371000CE0107960E9455192C960FB6F894DEBF7D
:103720000FBECDBFDF91CF911F910F91089564E33C
:1037300074E0CE0107960E94661A00EE17E0D3CF20
:1037400065E474E0CE0107960E94661A0FE110E06E
:10375000CACF20913F02309140022817390741F02B
:103760009093400280933F020E94501B81E0089595
:1037700080E00895EF92FF920F931F93CF93DF9312
:10378000CDB7DEB762970FB6F894DEBF0FBECDBFE0
:103790008C017B01FC012481358180918310909103
:1037A00084102817390741F46FE770E1C8010E94BF
:1037B000BD19892B09F472C0B8018FE790E10E940E
:1037C0009C1AF0923E02E0923D02B701CE010796AC
:1037D0000E94701A66E574E0CE0101960E94BC1A40
:1037E000BE01695F7F4FCE0101960E94121ABC0193
:1037F000CE010D960E94B31A20E038EFAE01435F70
:103800005F4F66E970E090E080E00E94F70ACE0129
:103810000D960E945519CE0101960E945519CE01B0
:1038200007960E9455190E949D14F8018481958184
:103830004C9708F440C02BE130E050E040E0B80184
:10384000CE0101960E94CD1A20E038EFAE014F5F05
:103850005F4F6AEA70E090E080E00E94F70ACE01D4
:1038600001960E945519F801248135814BE150E001
:10387000B801CE0101960E94CD1A20E038EFAE01CA
:103880004F5F5F4F62EB70E090E080E00E94F70ACC
:10389000CE0101960E9455190E94771462960FB6C8
:1038A000F894DEBF0FBECDBFDF91CF911F910F9176
:1038B000FF90EF900895B801CE0101960E94B31ACF
:1038C00020E038EFAE014F5F5F4F6AEA70E0DCCF77
:1038D0000F931F93CF93DF93CDB7DEB762970FB6E9
:1038E000F894DEBF0FBECDBF8C01209189103091BE
:1038F0008A10FC01848195812817390741F4B801A9
:1039000085E890E10E94BD19892B09F45CC0B801DB
:1039100085E890E10E949C1A0E9420140E949D1448
:10392000F80184819581489708F458C026E130E079
:1039300050E040E0B801CE0107960E94CD1A6FE535
:1039400074E0CE0101960E94BC1ABE01695F7F4FF0
:10395000CE0101960E94121ABC01CE010D960E9462
:10396000B31A20EE3FEFAE01435F5F4F68EC70E0AB
:1039700090E080E00E94F70ACE010D960E94551952
:10398000CE0101960E945519CE0107960E94551945
:10399000F8012481358146E150E0B801CE0101965D
:1039A0000E94CD1A20EE3FEFAE014F5F5F4F60EDFA
:1039B00070E090E080E00E94F70ACE0101960E943C
:1039C00055190E94771462960FB6F894DEBF0FBEA9
:1039D000CDBFDF91CF911F910F9108956FE574E0F6
:1039E000CE0101960E94BC1AB801CE0101960E9438
:1039F000121ABC01CE0107960E94B31A20EE3FEFC7
:103A0000AE01495F5F4F68EC70E090E080E00E949B
:103A1000F70ACE0107960E945519CE0101960E9421
:103A20005519CFCF0F931F93CF93DF9300D000D0C2
:103A3000CDB7DEB710913C0B20EE37E0193230F4F1
:103A400020EE3FEF1F3110F420E038EF412F60915E
:103A5000520B8091530B0E9431146091520B6F5F97
:103A60008091530B45E654E08E5F0E94C3141150C1
:103A700001E01E3108F000E080914A061E31E8F4B2
:103A800081110EC069E674E0CE0101960E94BC1A55
:103A9000CE0101960E94681CCE0101960E94551924
:103AA00000934A0626960FB6F894DEBF0FBECDBF30
:103AB000DF91CF911F910F910895882389F30E9480
:103AC0002014EECFCF92DF92EF92FF920F931F93CD
:103AD000CF93DF93CDB7DEB768970FB6F894DEBF0C
:103AE0000FBECDBF0E949D141091320BE0903F029B
:103AF000F09040028091350290913602112309F432
:103B00008DC0E114F10409F45AC0029751F167E83D
:103B100074E0CE0101960E94BC1A20EE37E0AE019F
:103B20004F5F5F4F63E770E085E090E00E94F70A27
:103B3000CE0101960E94551969E974E0CE01019603
:103B40000E94BC1A20EE37E0AE014F5F5F4F6BE77B
:103B500070E085E090E00E94F70ACE0101960E9495
:103B6000551982E090E090933602809335020E94CE
:103B70007714C090300BD090310BEF2809F480C03F
:103B8000112309F47DC080912D0B24E0E22EF12C4D
:103B9000882309F477C080912E0B90912F0B8838E1
:103BA0009F4F4CF033E0E32EF12C88E8C8168FEFDE
:103BB000D8060CF067C092E0E92EF12C63C00197A3
:103BC00051F165EA74E0CE0101960E94BC1A2FEF14
:103BD00037E0AE014F5F5F4F63E770E085E090E054
:103BE0000E94F70ACE0101960E94551967EB74E016
:103BF000CE0101960E94BC1A2FEF37E0AE014F5F55
:103C00005F4F6BE770E085E090E00E94F70ACE011D
:103C100001960E94551981E090E0A5CF892B09F407
:103C2000A6CF69EC74E0CE0101960E94BC1A20E098
:103C300038EFAE014F5F5F4F63E770E085E090E0E3
:103C40000E94F70ACE0101960E94551967EB74E0B5
:103C5000CE0101960E94BC1A20EE37E0AE014F5F04
:103C60005F4F6BE770E085E090E00E94F70ACE01BD
:103C700001960E945519109236021092350277CFA4
:103C8000F12CE12CF0924C06E0924B06809133022D
:103C900090913402E816F90689F0F701EE0FFF1F44
:103CA000E958FD4F008111812DE230E04AEA50E0F1
:103CB00069E170E086E990E00E949E09F09234028A
:103CC000E092330280914F06909150068C159D052D
:103CD00009F456C0B601CE0143960E94701A0091B5
:103CE000300B1091310B0D392FEF120754F160ECAE
:103CF00074E0CE0101960E94BC1AB801CE010D9667
:103D00000E94701ABE01635F7F4FCE0107960E942A
:103D1000B31ABE016F5F7F4FCE0107960E94121A41
:103D2000BC01CE0143960E949C1ACE0107960E94C8
:103D30005519CE010D960E945519CE0101960E948B
:103D400055198091320B882309F452C0BE016D5E73
:103D50007F4FCE0101960E94B31A2FEF3FEFAE01C5
:103D60004F5F5F4F6AE570E087E390E00E94F70ADB
:103D7000CE0101960E945519CE0143960E94551915
:103D800000913C0B10E080914D0690914E06081773
:103D9000190711F00E94121D0E948F15E82EF12CB8
:103DA0008091370290913802E816F90611F00E94CE
:103DB000CE158091300B9091310B909350068093EB
:103DC0004F0610934E0600934D06F0923802E09293
:103DD000370268960FB6F894DEBF0FBECDBFDF91F5
:103DE000CF911F910F91FF90EF90DF90CF900895AA
:103DF00062EC74E0CE0101960E94BC1AAECF4F92E5
:103E00005F926F927F928F929F92AF92BF92CF926A
:103E1000DF92EF92FF920F931F93CF93DF938C016A
:103E2000EB0149015A01FC01E05AFF4F8081918169
:103E3000A281B3816C017D012FE3C222DD24EE2437
:103E4000FF24880D991DAA1DBB1D80839183A28329
:103E5000B38381149104A104B10479F180E490E06A
:103E6000A0E0B0E08C199D09AE09BF09240135011D
:103E700088159905AA05BB0510F42C013D01C80160
:103E80008C0D9D1DA201BE010E948A3CC40CD51C54
:103E9000E61CF71CC40DD51D84189508A608B708A4
:103EA00080E4C816D104E104F10499F6C8010E9427
:103EB0008E10C12CD12C7601CCCFDF91CF911F91E8
:103EC0000F91FF90EF90DF90CF90BF90AF909F90B9
:103ED0008F907F906F905F904F900895AF92BF92B8
:103EE000DF92EF92FF920F931F93CF93DF93EC013A
:103EF0008B01FB01D3808281645F7F4F8E3F09F489
:103F000059C0ED2CF12CFB01EE0DFF1DDE2C91E0D4
:103F10009E1538F49701215031099291992309F4A3
:103F200063C08883D982F80184818A8385818B83E9
:103F300086818C8387818D8380858E8381858F8325
:103F400081859285A385988781859285A385A98798
:103F5000A701CE010A960E948A3CFAE0EF0EF11CFE
:103F6000CE0DDF1DF801848199E0F92E80FF3AC063
:103F70008DE0F8019081988391819983A82EB12CCE
:103F8000882341F0B8016A5E7E4FA501CE010296FA
:103F90000E948A3CC5018F0D911D03968D0D911DC8
:103FA000DF91CF911F910F91FF90EF90DF90BF9025
:103FB000AF9008958883D98286818A8387818B8395
:103FC00080858C8381858D83438150E0CE01069668
:103FD0000E948A3CF801838190E00696C80FD91FA1
:103FE00025E0F22E80E0C5CF790190CF3F924F922D
:103FF0005F926F927F928F929F92AF92BF92CF9279
:10400000DF92EF92FF920F931F93CF93DF93CDB781
:10401000DEB7C857D1090FB6F894DEBF0FBECDBFCB
:104020006C013E2C80915D06582F527081FD1DC0A1
:10403000E0915F06F0916006309731F080812DE0CD
:10404000522E11E080FD02C0512C10E08DEFF601E0
:1040500082833C96E00FF11D8291811103C00150D3
:104060000130D1F78AE0482E09C08EEFD6011296B2
:104070008C93022F512C96E0492E10E0D601139616
:104080000C93139717966C93179718964C93189751
:1040900011114CC014961C92D60115961C921597BE
:1040A0008091580616968C931697809158068F5FCC
:1040B0008093580612968C911297A6968FAFA6976A
:1040C00013968C911397A7968FAFA79719968D91FA
:1040D0009D91AC91F60136812781552359F1A8961F
:1040E0003FAFA897A9962FAFA997AA964FAFAA97C7
:1040F000AB968FAFAB97A42CB12C8FEF9FEF9A8329
:104100008983CE018B599F4F7C014C018A0C9B1CEB
:104110009FEFE91AF90A8E149F0439F1BE016F5F0F
:104120007F4FD7018C910E944D10F2CF81E0F601B4
:104130008483B2CF5481A8965FAFA8975581A99682
:104140005FAFA997AA963FAFAA97AB962FAFAB9751
:10415000AC964FAFAC97AD968FAFAD97AE969FAF85
:10416000AE97AF96AFAFAF97C6CF89819A81E996E8
:104170009FAF8EAFE997F6016380712C7601FCE06A
:10418000EF0EF11C470181E0681A7108BE01695801
:104190007F4F9FEF6916790631F0D4018D914D0163
:1041A0000E944D10F0CF832D0E944D10E8969FADD8
:1041B000E897E9968FADE997D6011396EC9113979E
:1041C000EE0DFF2DF11D90831396EC911397EE0DDC
:1041D000FF2DF11D81839C9311968C9311971123D0
:1041E00009F4F4C000915F061091600601151105F5
:1041F00009F4ECC0F801808180FFE8C013967C9040
:1042000081814601FAEE8F1AFEEF9F0AD4018C934A
:10421000F8018281E0968FAFE0978381E1968FAFBE
:10422000E1978481E2968FAFE2978581E3968FAF25
:10423000E3978681E4968FAFE4978781E5968FAF09
:10424000E5978085E6968FAFE6978185E7968FAFF5
:10425000E79786E0FE01E159FF4F119601900D921C
:104260008A95E1F7D80112962C91129713963C91FA
:10427000139714964C91149715965C911597169672
:104280006C91169717967C91179718968C911897A2
:1042900019969C91A1E00E94173AF801228333837A
:1042A00044835583668377838087918787E696EE7C
:1042B000A9E0BAE625968CAF9DAFAEAFBFAF25970C
:1042C00085E89EEAA7E6BBEB29968CAF9DAFAEAF23
:1042D000BFAF299782E793EFAEE6BCE32D968CAF94
:1042E0009DAFAEAFBFAF2D978AE395EFAFE4B5EAD0
:1042F00061968CAF9DAFAEAFBFAF61978FE792E590
:10430000AEE0B1E565968CAF9DAFAEAFBFAF659740
:104310008CE898E6A5E0BBE969968CAF9DAFAEAF9F
:10432000BFAF69978BEA99EDA3E8BFE16D968CAFBB
:104330009DAFAEAFBFAF6D9789E19DECA0EEBBE541
:10434000A1968CAF9DAFAEAFBFAFA197A5961CAEA7
:104350001DAE1EAE1FAEA597B801665F7F4F20E26F
:1043600030E040E050E0CE0101960E94FF1E242D77
:1043700030E050E040E0BE016B597F4FCE01019626
:104380000E94FF1E272D30E050E040E0B701CE0133
:1043900001960E94FF1EB701670D711D22E030E0FB
:1043A00040E050E0CE0101960E94FF1E27E030E081
:1043B00040E050E0B401CE0101960E94FF1EB6011C
:1043C000635E7E4FCE0101960E945D19D601139661
:1043D0008C918A0D9B2D911D0296850D911DC858BB
:1043E000DF4F0FB6F894DEBF0FBECDBFDF91CF9188
:1043F0001F910F91FF90EF90DF90CF90BF90AF9003
:104400009F908F907F906F905F904F903F90089516
:10441000CF92DF92EF92FF920F93811161C080E003
:1044200090E0A0E8BFE38093BF0F9093C00FA093EC
:10443000C10FB093C20FC090C30FD090C40FE090D3
:10444000C50FF090C60F2091BE0F6091BC0F709108
:10445000BD0F3091BB0F4091BA0FE0912110F09148
:10446000221084879587A687B787C08AD18AE28A77
:10447000F38A148A158A168A178A108E118E128E64
:10448000138E148E158E168E178E10A211A212A2E4
:1044900013A214A215A216A217A271A760A742A781
:1044A00033A724A78CE490E0A0E081879287A387BC
:1044B00088E9E82E01E221E241E062E0CF010E94BA
:1044C000F61F609121107091221080911F10909121
:1044D00020100F91FF90EF90DF90CF900C946E1F03
:1044E00080E090E0A0E0B0E49ECFEF920F93CF93F6
:1044F000DF93BC01990F880B990B0E940337EAEBFD
:10450000FFE063A374A385A396A322A1A0A1B1A1F8
:10451000378D468DC1E2D0E1E881F98164877587E6
:1045200086879787108A118A128A138A148A158AB5
:10453000168A178A108E118E128E138E148E158E77
:10454000168E178E10A211A212A213A214A215A2E7
:1045500016A217A2B1A7A0A742A733A724A78CE44D
:1045600090E0A0E081879287A38788E9E82E01E2A6
:1045700021E241E062E0CF010E94F61F688179816B
:1045800080911F1090912010DF91CF910F91EF90AB
:104590000C946E1FEF920F93CF93DF93EAEBFFE043
:1045A0006093F70F7093F80F8093F90F9093FA0FC1
:1045B00024ADA2ADB3AD31AD40ADC1E2D0E1E881F3
:1045C000F9816487758786879787108A118A128A8E
:1045D000138A148A158A168A178A108E118E128EE3
:1045E000138E148E158E168E178E10A211A212A283
:1045F00013A214A215A216A217A2B1A7A0A742A7A0
:1046000033A724A78CE490E0A0E081879287A3875A
:1046100088E9E82E01E221E241E062E0CF010E9458
:10462000F61F6881798180911F1090912010DF9191
:10463000CF910F91EF900C946E1FEF920F931F93F9
:10464000CF93813041F021E0823009F020E080E01A
:1046500090E0DC0105C020E080E090E0A0E8BFE34E
:104660008093E60F9093E70FA093E80FB093E90FC4
:1046700040E050E0BA01222321F040E050E060E841
:104680007FE34093EA0F5093EB0F6093EC0F70932E
:10469000ED0F8093EE0F9093EF0FA093F00FB09378
:1046A000F10F2091E50F0091E30F1091E40F30918D
:1046B000E20FC091E10FE0912110F0912210848768
:1046C0009587A687B787408B518B628B738B848BC2
:1046D000958BA68BB78B108E118E128E138E148E27
:1046E000158E168E178E10A211A212A213A214A25A
:1046F00015A216A217A211A700A7C2A733A724A725
:104700008CE490E0A0E081879287A38788E9E82E77
:1047100001E221E241E062E0CF010E94F61F6091D8
:1047200021107091221080911F10909120100E94F2
:104730006E1FCF911F910F91EF900C9405102F9247
:104740003F924F925F926F927F928F929F92AF9221
:10475000BF92CF92DF92EF92FF920F931F93CF936E
:10476000DF932091250B3091260B4091270B509120
:10477000280B6091290B70912A0B80912B0B909143
:104780002C0BA0E00E94353AA1F40E94F50DDC014B
:10479000CB016093250B9093260BA093270BB0932E
:1047A000280B1092290B10922A0B10922B0B1092AF
:1047B0002C0B0E94F50D2B013C012091CC0B30916C
:1047C000CD0B4091CE0B5091CF0B6091D00B7091DF
:1047D000D10B8091D20B9091D30BA090250BB09070
:1047E000260BC090270BD090280BE090290BF0905F
:1047F0002A0B00912B0B10912C0B0E94233A1201D3
:1048000051016301E12CF12C00E010E00E940E3A0E
:1048100020931510309316104093171050931810D2
:104820006093191070931A1080931B1090931C10B2
:10483000A0911E10B0911D1040900D1050900E10C0
:1048400060900F10709010108090111090901210C6
:10485000D0911310C0911410E0912110F09122100A
:104860004486558666867786808A918AD28BC38BEA
:10487000248B358B468B578B608F718F828F938FF4
:10488000B48FA58F8FE690E0A0E081879287A38701
:1048900086ECE82E02E122E141E062E0CF010E94D5
:1048A000F61F609121107091221080911F1090913D
:1048B00020100E946E1FDF91CF911F910F91FF90EA
:1048C000EF90DF90CF90BF90AF909F908F907F90B0
:1048D0006F905F904F903F902F900C940510CF9267
:1048E000DF92EF920F931F93CF93DF93C1E5D6E052
:1048F0001C8522E02C87309101105091FF0F7091A0
:10490000FE0F0091FD0F81E2C82E80E1D82ED60166
:10491000ED91FC914091FC0F6091FB0F8091001094
:1049200090E0B0E0A0E084879587A687B787008BEA
:10493000718B528B338B248B11861286138692E3F4
:10494000E92E09E029E0CF010E94F61F1C87F6013D
:104950006081718180911F10909120100E946E1FC4
:10496000DF91CF911F910F91EF90DF90CF900C943A
:1049700005102F923F924F925F926F927F928F928B
:104980009F92AF92BF92CF92DF92EF92FF920F93DE
:104990001F93CF93DF93CDB7DEB7C858D1090FB6B9
:1049A000F894DEBF0FBECDBF80E19CE00E94040FF3
:1049B000892B09F479C780E19CE00E94E20E8C010A
:1049C000EC968FAFEC971092540B2091570B3091CF
:1049D000580B2131310508F03AC0F9018827EC5015
:1049E000FB4D8F4F0C947C390C250C25A525C0253B
:1049F000D725DF25E925F325FD251D2635264B2660
:104A00006326F126F1265727572781E090E09093FF
:104A1000580B8093570BC8CF8091600BEC962FAD4D
:104A2000EC972D3F09F07FC022E030E03093580B27
:104A30002093570B10929C0600939B068E7F8093C9
:104A4000600B8FEF9FEF90939A0680939906809169
:104A5000540B8130A9F420915C0B30915D0B909147
:104A60009F0690935A0B2115310521F410925F0B8C
:104A700010925E0B2F5F3F4F30935D0B20935C0BCA
:104A800090919C0690936E0D2091570B3091580B8E
:104A90003093410B2093400B9091590B9093420B14
:104AA00090915A0B9F5F9093430B20915C0B309138
:104AB0005D0B3093460B2093450B2091560B30E055
:104AC0003093480B2093470B9091600B9093490BC8
:104AD0001092560B823041F42091AD073091AE0711
:104AE00030936C0D20936B0D9EEF980F923008F071
:104AF00037C481E08093560B1092540BEC96FFADB7
:104B0000EC97FD3F09F081CF82E090E09093580B45
:104B10008093570B10929C068FEF9FEF90939A060D
:104B20008093990641CFEC963FADEC973E3F09F05C
:104B3000B8C622E030E03093580B2093570B109208
:104B40009C0600939B0681607ACF00939C0610928E
:104B5000590B602F89E996E00E946E108091600BDE
:104B600080FF07C010929D0610929E0685E090E09F
:104B700002C083E090E09093580B8093570B67CF6F
:104B800000939D06C8018E7F9927892B41F0809163
:104B9000560B8F5F8093560B81E090E0ECCF602F37
:104BA00089E996E00E946E1084E090E0E4CF0093E3
:104BB0009E06602F89E996E00E946E10D7CF009381
:104BC0009F06602F89E996E00E946E1086E090E0D3
:104BD000D2CF0093A006602F89E996E00E946E1064
:104BE00087E090E0C8CF0093A106602F89E996E0A6
:104BF0000E946E1088E090E0BECFEC96BFADEC97BF
:104C00008B2F90E0A0E08093A2069093A306A09340
:104C1000A406602F89E996E00E946E108091600BD7
:104C200080FF08C080919C06882309F449C08BE06E
:104C300090E0A1CF89E090E09ECF8091A206909174
:104C4000A306A091A406EC96EFADEC979E2B809363
:104C5000A2069093A306A093A406602F89E996E08C
:104C60000E946E108AE090E086CF8091A20690911B
:104C7000A306A091A406EC96FFADEC97AF2B809312
:104C8000A2069093A306A093A406602F89E996E05C
:104C90000E946E10C7CFE091590B81E08E0F809378
:104CA000590BF0E0EB55F94F0083602F89E996E04E
:104CB0000E946E109091590B80919C069813C7CE5C
:104CC0008CE090E058CF8091A2069091A306A0912D
:104CD000A406AC016A2F70E0F8E08F2E912CA12C75
:104CE000B12CC12CD12C76012AE0D701C601880D48
:104CF000991DAA1DBB1D0196A11DB11DB695A795B5
:104D000097958795289FF001299FF00D1124EF5763
:104D1000FC4F4080518062807380441555056605C4
:104D2000770568F54C015D0131E0831A9108A1080F
:104D3000B108C814D904EA04FB04B8F28AE08C9DD7
:104D4000F0018D9DF00D1124EF57FC4F8081918172
:104D5000A281B381481759076A077B07C1F46481B0
:104D600089E996E00E946E108091990690919A06CA
:104D7000992708171906A1F48DE090E013C06C0183
:104D80007D014416550666067706C0F6D2CF8EE042
:104D900090E09093580B8093570B0093AD0757CE3C
:104DA0008EE090E09093580B8093570B0093AD07E3
:104DB0008091590B9AE09C9DF0019D9DF00D11246E
:104DC000EF57FC4F4681841708F041CE50E090E049
:104DD000481B590B70E060E08B55994F0E94933C43
:104DE00036CE2E30310581F080919A06EE968FAF47
:104DF000EE97EF961FAEEF97EF96AEADBFADEF9784
:104E000081E00A171B0609F082E08093540B00939F
:104E1000AE0780919D0680FF17C08091540B8230B1
:104E200051F480E190E09093580B8093570B8DE004
:104E30008093610B0CCE8FE090E09093580B8093A1
:104E4000570B1092540BF3CFE091620BF091630B70
:104E5000309749F002A4F3A5E02D3097A9F4809192
:104E6000540B823001F581E090E09093580B8093D1
:104E7000570B83E291E0E9E9F6E0ABE6BDE0019093
:104E80000D920197E1F7E3CD8091A2069091A306E0
:104E9000A091A406AC016A2F70E084E59BE019950F
:104EA0008111E1CFDCCF83E08093540BDCCF809184
:104EB000610BEDE0F0E0E81BF109E155F84F0083EC
:104EC00081508093610B8111ECC48090620B9090B3
:104ED000630B81E08114910409F4D2C12090640B2A
:104EE0003090650B17E6E12E16EEF12E09E01AE67A
:104EF0002596ECAEFDAE0EAF1FAF259705E81EEA76
:104F000027E63BEB29960CAF1DAF2EAF3FAF29979D
:104F100082E793EFAEE6BCE32D968CAF9DAFAEAFCC
:104F2000BFAF2D971AE3E12E15EFF12E0FE415EA2E
:104F30006196ECAEFDAE0EAF1FAF61970FE712E5C5
:104F40002EE031E565960CAF1DAF2EAF3FAF6597F4
:104F50008CE898E6A5E0BBE969968CAF9DAFAEAF53
:104F6000BFAF69978BEA99EDA3E8BFE16D968CAF6F
:104F70009DAFAEAFBFAF6D9789E19DECA0EEBBE5F5
:104F8000A1968CAF9DAFAEAFBFAFA197A5961CAE5B
:104F90001DAE1EAE1FAEA59720E230E040E050E00F
:104FA000B401665F7F4FCE0101960E94FF1E2AE08A
:104FB00030E040E050E06BE976E0CE0101960E94DF
:104FC000FF1E20919C0630E050E040E065EA76E06C
:104FD000CE0101960E94FF1E22E030E040E050E04A
:104FE0006DEA77E0CE0101960E94FF1E27E030E0D7
:104FF00040E050E06FEA77E0CE0101960E94FF1E8C
:10500000BE016B587F4FCE0101960E945D1946E0AC
:1050100050E066EB77E0CE018B589F4F0E947D3CBD
:10502000892B21F082E090E0D4018FC05090AF072F
:10503000AE961FAEAE97AF961FAEAF97E0961FAE7F
:10504000E097E1961FAEE197E2961FAEE297E396F6
:105050001FAEE397E4961FAEE497E5961FAEE59783
:1050600086E0E0EBF7E0DE01A359BF4F01900D921F
:105070008A95E1F72114310411F1F10180819181C8
:10508000E091A0062091A106D101712C612C86151A
:105090009705C1F013963C911397E3130BC0149638
:1050A0003C911497231306C012963C911297531605
:1050B00009F4F0C0FFEF6F1A7F0A1996E8CF83E07A
:1050C00090E0B2CF409718F084E090E0ADCFAE967C
:1050D0002FADAE97AF963FADAF97E0964FADE0974F
:1050E000E1965FADE197E2966FADE297E3967FAD13
:1050F000E397E4968FADE497E5969FADE59720584A
:105100003247444A5F4F6F4F7F4F8F4F9F4FD401BD
:105110001296AC9012971396BC9013971496CC905D
:1051200014971596DC9015971696EC90169717968F
:10513000FC90179718960C91189719961C9119972F
:105140000E942C3AF0F485E090E09D969C938E931B
:105150009C97E091620BF091630B02A4F3A5E02D04
:1051600080E0309709F48CC08091A2069091A3064C
:10517000A091A406AC016A2F70E084E59BE019952C
:105180007FC089E0869DD001879DB00D1124A20DBE
:10519000B31D1396EC9313978091A10614968C93EC
:1051A000149712965C92C3010196F101918380835A
:1051B00089E0869DD001879DB00D11241596A20D22
:1051C000B31D86E0E0EBF7E001900D928A95E1F7E0
:1051D000AE963FACAE97AF965FACAF97E0966FAC34
:1051E000E097E1967FACE197E2964FACE297E396C9
:1051F0002FACE397E496FFADE497E596EFADE59726
:10520000D4011296AC9012971396BC9013971496F3
:10521000CC9014971596DC9015971696EC901697EF
:105220001796FC90179718960C91189719961C9141
:105230001997232D352DA301642D722D8F2F9E2FAD
:105240000E942C3AC1F0B8F012963C921297139635
:105250005C92139714966C92149715967C921597FE
:1052600016964C92169717962C9217971896FC93B1
:1052700018971996EC9381E090E0F40195A784A724
:105280002091570B3091580B2031310509F063C044
:1052900082E00ACEA6961FAEA697A7961FAEA79746
:1052A000A8961FAEA897A9961FAEA997AA961FAE5B
:1052B000AA97AB961FAEAB97AC961FAEAC97AD96C8
:1052C0001FAEAD9789E0869DF001879DF00D1124FA
:1052D0003596E20DF31D86E0DE01AB59BF4F01901C
:1052E0000D928A95E1F7AE962FADAE97AF963FAD92
:1052F000AF97E0964FADE097E1965FADE197E2960C
:105300006FADE297E3967FADE397A696AFACA69715
:10531000A796BFACA797A896CFACA897A996DFACE5
:10532000A997AA96EFACAA97AB96FFACAB97AC96B1
:105330000FADAC97AD961FADAD97E4968FADE497EA
:10534000E5969FADE5970E942C3A11F008F030CF1A
:1053500086E090E069CE882309F4A5CD81E0A4CD54
:10536000882309F421CB8091740D9091750DA09143
:10537000760D8D369105A10509F40CC28F36910585
:10538000A10509F4E2C0892B8A2B09F00DCB90917D
:10539000720D80915C0D981307CB9091730D8091E5
:1053A0005D0D981301CB0E949A0E609339027093A1
:1053B0003A0280933B0290933C0280917E0D809351
:1053C0006A0DC090770DD090780DE090790DF09037
:1053D0007A0DC0925E0D80917C0D80935F0DC0921E
:1053E000610DD092620DE092630DF092640DC601E2
:1053F0008370992701979093E50B8093E40B0E94AB
:10540000191B9701860142E0369527951795079558
:105410004A95D1F703701127C80101979093DD0BCE
:105420008093DC0B68EC74E0CE018B599F4F0E9497
:10543000BC1A0230110509F40DC20330110509F43C
:1054400013C20130110509F4FBC16DEE74E0CE0109
:105450008B599F4F0E94661A0FEF1FEFBE016B59C9
:105460007F4FCE0101960E94B31A9801AE014F5FA3
:105470005F4F61E470E086E490E00E94F70ACE019D
:1054800001960E945519CE018B599F4F0E945519C4
:10549000D701C60124E0B695A795979587952A95DB
:1054A000D1F783709927AA27BB270297A105B105D9
:1054B00009F4E4C182E090E00E94A91B97018601F3
:1054C00096E036952795179507959A95D1F703702D
:1054D0000150110B0330110568F58091E60B909196
:1054E000E70B0817190731F11093E70B0093E60B50
:1054F0000130110509F0C5C169E175E0CE010196E1
:105500000E94BC1A68E070E0CE0101960E94BA1BAE
:10551000CE0101960E94551967E275E0CE01019611
:105520000E94BC1ACE0101960E94681CCE01019611
:105530000E945519CD2CDE2CEF2CFF2404E60C150F
:1055400008F432CAC0923C0B2FCA80913D02909160
:105550003E02079711F40E940F1481E080932D0BF7
:10556000E090770DEC96EFAEEC97F090780DED961D
:10557000FFAEED970091790DC158DF4F0883CF57EB
:10558000D04010917A0DC058DF4F1883C058D040DA
:1055900020917B0DCF57DF4F2883C158D0403091E9
:1055A0007C0DCE57DF4F3883C258D04080917D0D9F
:1055B000CD57DF4F8883C358D04090917E0DCC5794
:1055C000DF4F9883C458D040E0924A0DF0924B0DC3
:1055D00000934C0D10934D0D20934E0D30934F0DB5
:1055E0008093500D9093510D40907F0D5090800D01
:1055F0006090810D7090820D8090830D9090840D4D
:105600003090850D2090860D4092520D5092530D92
:105610006092540D7092550D8092560D9092570DD8
:105620003092580D2092590D0E94F50DCB57DF4F47
:10563000688379838A839B83C558D0402091CC0BA3
:105640003091CD0B4091CE0B5091CF0B6091D00B90
:105650007091D10B8091D20B9091D30BA090250B20
:10566000B090260BC090270BD090280BE090290B10
:10567000F0902A0B00912B0B10912C0B0E94233AD7
:10568000520163017401032D122D0E94233ACB575E
:10569000DF4FE880F9800A811B81C558D04057014F
:1056A0006801E12CF12C00E010E00E940E3A01E0CC
:1056B0000E94F339EC96AFACEC97ED96BFACED974A
:1056C000C158DF4FC880CF57D040C058DF4FD88077
:1056D000C058D040CF57DF4FE880C158D040CE5798
:1056E000DF4FF880C258D040CD57DF4F0881C358F4
:1056F000D040CC57DF4F1881C458D0400E940E3A9A
:1057000019012A013B014C012093CC0B3092CD0BA7
:105710004093CE0B5092CF0B6093D00B7092D10B75
:105720008093D20B9092D30B0E94F50D8B019C01BC
:105730006093250B1093260B8093270B3093280B37
:105740001092290B10922A0B10922B0B10922C0BFB
:105750000E9420145AE0A52EB12CC12CD12CE12C92
:10576000F12C00E010E09101A201B301C4010E94FC
:105770009439209302003093030040930400509327
:1057800005006093060070930700809308009093D3
:1057900009000AC900913D0210913E020530110531
:1057A00011F40E940F1481E08093CA0B80917B0D4D
:1057B0008093330B80917C0D8093340B80917D0D11
:1057C0008093350B8B3048F56AED74E0CE0101967D
:1057D0000E94BC1A66E070E0CE0101960E94BA1BDE
:1057E000CE0101960E9455191091340B1123D9F066
:1057F00081E08093320B8091330B86958859990B09
:105800009093310B8093300B812F86958859990B9B
:1058100090932F0B80932E0BC7C80630110521F7EC
:105820000E940F14E1CF1092320B90E080E00E94B2
:10583000A91B882301F390E080E00E94501BDBCF7E
:1058400068EF74E0CE018B599F4F0E94661A00EEFC
:1058500017E004CE63E075E0CE018B599F4F0E94A4
:10586000661A00EE1FEFFACD6EE075E0CE018B599F
:105870009F4F0E94661A00E018EFF0CD81E090E0A3
:105880001BCE80913D0290913E02089711F40E9438
:105890000F146AE375E0012B09F440CE60E575E072
:1058A0003DCE8091540BECC8C857DF4F0FB6F8942B
:1058B000DEBF0FBECDBFDF91CF911F910F91FF9043
:1058C000EF90DF90CF90BF90AF909F908F907F90A0
:1058D0006F905F904F903F902F9008951F920F927E
:1058E0000FB60F9211242F933F938F939F93AF93F3
:1058F000BF938091000C9091010CA091020CB0918B
:10590000030C3091FF0B23E0230F2D3758F5019640
:10591000A11DB11D2093FF0B8093000C9093010CEF
:10592000A093020CB093030C8091040C9091050C91
:10593000A091060CB091070C0196A11DB11D80939A
:10594000040C9093050CA093060CB093070CBF9128
:10595000AF919F918F913F912F910F900FBE0F901C
:105960001F90189526E8230F0296A11DB11DD2CFD6
:105970001F920F920FB60F9211240BB60F922F9316
:105980003F934F935F936F937F938F939F93AF93C7
:10599000BF93EF93FF9380E19CE00E94240FFF915F
:1059A000EF91BF91AF919F918F917F916F915F9197
:1059B0004F913F912F910F900BBE0F900FBE0F9004
:1059C0001F9018951F920F920FB60F9211240BB6CD
:1059D0000F922F938F939F93EF93FF93E091200C5F
:1059E000F091210C8081E091260CF091270C82FD32
:1059F0001DC090818091290C8F5F8F7320912A0C9C
:105A0000821741F0E091290CF0E0E05FF34F958FB1
:105A10008093290CFF91EF919F918F912F910F907F
:105A20000BBE0F900FBE0F901F9018958081F2CF84
:105A30001F920F920FB60F9211240BB60F922F9355
:105A40003F934F935F936F937F938F939F93AF9306
:105A5000BF93EF93FF938DEA9CE00E94240FFF9188
:105A6000EF91BF91AF919F918F917F916F915F91D6
:105A70004F913F912F910F900BBE0F900FBE0F9043
:105A80001F9018951F920F920FB60F9211240BB60C
:105A90000F922F938F939F93EF93FF93E091BD0C01
:105AA000F091BE0C8081E091C30CF091C40C82FD9A
:105AB0001DC090818091C60C8F5F8F732091C70CA1
:105AC000821741F0E091C60CF0E0E355F34F958F5B
:105AD0008093C60CFF91EF919F918F912F910F9022
